{
  "_format": "hh-sol-artifact-1",
  "contractName": "Arc",
  "sourceName": "contracts/ARC/Arc.sol",
  "abi": [
    {
      "inputs": [
        {
          "internalType": "address",
          "name": "_emissions",
          "type": "address"
        }
      ],
      "stateMutability": "nonpayable",
      "type": "constructor"
    },
    {
      "anonymous": false,
      "inputs": [
        {
          "indexed": true,
          "internalType": "address",
          "name": "owner",
          "type": "address"
        },
        {
          "indexed": true,
          "internalType": "address",
          "name": "spender",
          "type": "address"
        },
        {
          "indexed": false,
          "internalType": "uint256",
          "name": "value",
          "type": "uint256"
        }
      ],
      "name": "Approval",
      "type": "event"
    },
    {
      "anonymous": false,
      "inputs": [
        {
          "indexed": false,
          "internalType": "string[]",
          "name": "results",
          "type": "string[]"
        }
      ],
      "name": "GachaResults",
      "type": "event"
    },
    {
      "anonymous": false,
      "inputs": [
        {
          "indexed": true,
          "internalType": "address",
          "name": "previousOwner",
          "type": "address"
        },
        {
          "indexed": true,
          "internalType": "address",
          "name": "newOwner",
          "type": "address"
        }
      ],
      "name": "OwnershipTransferred",
      "type": "event"
    },
    {
      "anonymous": false,
      "inputs": [
        {
          "indexed": true,
          "internalType": "address",
          "name": "from",
          "type": "address"
        },
        {
          "indexed": true,
          "internalType": "address",
          "name": "to",
          "type": "address"
        },
        {
          "indexed": false,
          "internalType": "uint256",
          "name": "value",
          "type": "uint256"
        }
      ],
      "name": "Transfer",
      "type": "event"
    },
    {
      "inputs": [
        {
          "internalType": "address",
          "name": "_a",
          "type": "address"
        }
      ],
      "name": "addWhitelist",
      "outputs": [],
      "stateMutability": "nonpayable",
      "type": "function"
    },
    {
      "inputs": [
        {
          "internalType": "address",
          "name": "owner",
          "type": "address"
        },
        {
          "internalType": "address",
          "name": "spender",
          "type": "address"
        }
      ],
      "name": "allowance",
      "outputs": [
        {
          "internalType": "uint256",
          "name": "",
          "type": "uint256"
        }
      ],
      "stateMutability": "view",
      "type": "function"
    },
    {
      "inputs": [
        {
          "internalType": "address",
          "name": "spender",
          "type": "address"
        },
        {
          "internalType": "uint256",
          "name": "amount",
          "type": "uint256"
        }
      ],
      "name": "approve",
      "outputs": [
        {
          "internalType": "bool",
          "name": "",
          "type": "bool"
        }
      ],
      "stateMutability": "nonpayable",
      "type": "function"
    },
    {
      "inputs": [
        {
          "internalType": "address",
          "name": "account",
          "type": "address"
        }
      ],
      "name": "balanceOf",
      "outputs": [
        {
          "internalType": "uint256",
          "name": "",
          "type": "uint256"
        }
      ],
      "stateMutability": "view",
      "type": "function"
    },
    {
      "inputs": [
        {
          "internalType": "uint256",
          "name": "amount",
          "type": "uint256"
        }
      ],
      "name": "burn",
      "outputs": [],
      "stateMutability": "nonpayable",
      "type": "function"
    },
    {
      "inputs": [
        {
          "internalType": "address",
          "name": "account",
          "type": "address"
        },
        {
          "internalType": "uint256",
          "name": "amount",
          "type": "uint256"
        }
      ],
      "name": "burnFrom",
      "outputs": [],
      "stateMutability": "nonpayable",
      "type": "function"
    },
    {
      "inputs": [
        {
          "internalType": "address",
          "name": "_marketAddress",
          "type": "address"
        },
        {
          "internalType": "uint256",
          "name": "_marketplaceId",
          "type": "uint256"
        }
      ],
      "name": "buyNFTFromMarketplace",
      "outputs": [],
      "stateMutability": "nonpayable",
      "type": "function"
    },
    {
      "inputs": [],
      "name": "decimals",
      "outputs": [
        {
          "internalType": "uint8",
          "name": "",
          "type": "uint8"
        }
      ],
      "stateMutability": "view",
      "type": "function"
    },
    {
      "inputs": [
        {
          "internalType": "address",
          "name": "spender",
          "type": "address"
        },
        {
          "internalType": "uint256",
          "name": "subtractedValue",
          "type": "uint256"
        }
      ],
      "name": "decreaseAllowance",
      "outputs": [
        {
          "internalType": "bool",
          "name": "",
          "type": "bool"
        }
      ],
      "stateMutability": "nonpayable",
      "type": "function"
    },
    {
      "inputs": [],
      "name": "emissions",
      "outputs": [
        {
          "internalType": "address",
          "name": "",
          "type": "address"
        }
      ],
      "stateMutability": "view",
      "type": "function"
    },
    {
      "inputs": [],
      "name": "gacha",
      "outputs": [
        {
          "internalType": "contract IGacha",
          "name": "",
          "type": "address"
        }
      ],
      "stateMutability": "view",
      "type": "function"
    },
    {
      "inputs": [
        {
          "internalType": "address",
          "name": "_a",
          "type": "address"
        }
      ],
      "name": "getIsWhitelisted",
      "outputs": [
        {
          "internalType": "bool",
          "name": "",
          "type": "bool"
        }
      ],
      "stateMutability": "view",
      "type": "function"
    },
    {
      "inputs": [],
      "name": "girls",
      "outputs": [
        {
          "internalType": "contract IERC721",
          "name": "",
          "type": "address"
        }
      ],
      "stateMutability": "view",
      "type": "function"
    },
    {
      "inputs": [
        {
          "internalType": "address",
          "name": "spender",
          "type": "address"
        },
        {
          "internalType": "uint256",
          "name": "addedValue",
          "type": "uint256"
        }
      ],
      "name": "increaseAllowance",
      "outputs": [
        {
          "internalType": "bool",
          "name": "",
          "type": "bool"
        }
      ],
      "stateMutability": "nonpayable",
      "type": "function"
    },
    {
      "inputs": [
        {
          "internalType": "address",
          "name": "",
          "type": "address"
        }
      ],
      "name": "isWhitelisted",
      "outputs": [
        {
          "internalType": "bool",
          "name": "",
          "type": "bool"
        }
      ],
      "stateMutability": "view",
      "type": "function"
    },
    {
      "inputs": [],
      "name": "marketplace",
      "outputs": [
        {
          "internalType": "contract IMarketplace",
          "name": "",
          "type": "address"
        }
      ],
      "stateMutability": "view",
      "type": "function"
    },
    {
      "inputs": [],
      "name": "marketplaceFee",
      "outputs": [
        {
          "internalType": "uint256",
          "name": "",
          "type": "uint256"
        }
      ],
      "stateMutability": "view",
      "type": "function"
    },
    {
      "inputs": [],
      "name": "maxSupply",
      "outputs": [
        {
          "internalType": "uint256",
          "name": "",
          "type": "uint256"
        }
      ],
      "stateMutability": "view",
      "type": "function"
    },
    {
      "inputs": [],
      "name": "name",
      "outputs": [
        {
          "internalType": "string",
          "name": "",
          "type": "string"
        }
      ],
      "stateMutability": "view",
      "type": "function"
    },
    {
      "inputs": [],
      "name": "owner",
      "outputs": [
        {
          "internalType": "address",
          "name": "",
          "type": "address"
        }
      ],
      "stateMutability": "view",
      "type": "function"
    },
    {
      "inputs": [
        {
          "internalType": "uint256",
          "name": "",
          "type": "uint256"
        }
      ],
      "name": "payeeAddress",
      "outputs": [
        {
          "internalType": "address",
          "name": "",
          "type": "address"
        }
      ],
      "stateMutability": "view",
      "type": "function"
    },
    {
      "inputs": [
        {
          "internalType": "uint256",
          "name": "",
          "type": "uint256"
        }
      ],
      "name": "payeePerc",
      "outputs": [
        {
          "internalType": "uint256",
          "name": "",
          "type": "uint256"
        }
      ],
      "stateMutability": "view",
      "type": "function"
    },
    {
      "inputs": [],
      "name": "payees",
      "outputs": [
        {
          "internalType": "uint256",
          "name": "",
          "type": "uint256"
        }
      ],
      "stateMutability": "view",
      "type": "function"
    },
    {
      "inputs": [
        {
          "internalType": "address",
          "name": "_a",
          "type": "address"
        }
      ],
      "name": "removeWhitelist",
      "outputs": [],
      "stateMutability": "nonpayable",
      "type": "function"
    },
    {
      "inputs": [],
      "name": "renounceOwnership",
      "outputs": [],
      "stateMutability": "nonpayable",
      "type": "function"
    },
    {
      "inputs": [
        {
          "internalType": "address",
          "name": "_emissions",
          "type": "address"
        }
      ],
      "name": "setEmissionsContract",
      "outputs": [],
      "stateMutability": "nonpayable",
      "type": "function"
    },
    {
      "inputs": [
        {
          "internalType": "address",
          "name": "_girlContractAddress",
          "type": "address"
        }
      ],
      "name": "setGirlContract",
      "outputs": [],
      "stateMutability": "nonpayable",
      "type": "function"
    },
    {
      "inputs": [
        {
          "internalType": "address",
          "name": "_a",
          "type": "address"
        },
        {
          "internalType": "address",
          "name": "_b",
          "type": "address"
        },
        {
          "internalType": "address",
          "name": "_c",
          "type": "address"
        },
        {
          "internalType": "address",
          "name": "_d",
          "type": "address"
        },
        {
          "internalType": "uint256",
          "name": "_aPerc",
          "type": "uint256"
        },
        {
          "internalType": "uint256",
          "name": "_bPerc",
          "type": "uint256"
        },
        {
          "internalType": "uint256",
          "name": "_cPerc",
          "type": "uint256"
        },
        {
          "internalType": "uint256",
          "name": "_dPerc",
          "type": "uint256"
        }
      ],
      "name": "setInitialPayees",
      "outputs": [],
      "stateMutability": "nonpayable",
      "type": "function"
    },
    {
      "inputs": [
        {
          "internalType": "uint256",
          "name": "_fee",
          "type": "uint256"
        }
      ],
      "name": "setMarketplaceFee",
      "outputs": [],
      "stateMutability": "nonpayable",
      "type": "function"
    },
    {
      "inputs": [
        {
          "internalType": "uint256",
          "name": "_id",
          "type": "uint256"
        },
        {
          "internalType": "address",
          "name": "_addr",
          "type": "address"
        },
        {
          "internalType": "uint256",
          "name": "_perc",
          "type": "uint256"
        }
      ],
      "name": "setPayee",
      "outputs": [],
      "stateMutability": "nonpayable",
      "type": "function"
    },
    {
      "inputs": [
        {
          "internalType": "address",
          "name": "_gachaAddress",
          "type": "address"
        },
        {
          "internalType": "uint256",
          "name": "_amount",
          "type": "uint256"
        }
      ],
      "name": "spinGacha",
      "outputs": [],
      "stateMutability": "nonpayable",
      "type": "function"
    },
    {
      "inputs": [],
      "name": "splitter",
      "outputs": [
        {
          "internalType": "address",
          "name": "",
          "type": "address"
        }
      ],
      "stateMutability": "view",
      "type": "function"
    },
    {
      "inputs": [],
      "name": "symbol",
      "outputs": [
        {
          "internalType": "string",
          "name": "",
          "type": "string"
        }
      ],
      "stateMutability": "view",
      "type": "function"
    },
    {
      "inputs": [],
      "name": "totalSupply",
      "outputs": [
        {
          "internalType": "uint256",
          "name": "",
          "type": "uint256"
        }
      ],
      "stateMutability": "view",
      "type": "function"
    },
    {
      "inputs": [
        {
          "internalType": "address",
          "name": "to",
          "type": "address"
        },
        {
          "internalType": "uint256",
          "name": "amount",
          "type": "uint256"
        }
      ],
      "name": "transfer",
      "outputs": [
        {
          "internalType": "bool",
          "name": "",
          "type": "bool"
        }
      ],
      "stateMutability": "nonpayable",
      "type": "function"
    },
    {
      "inputs": [
        {
          "internalType": "address",
          "name": "from",
          "type": "address"
        },
        {
          "internalType": "address",
          "name": "to",
          "type": "address"
        },
        {
          "internalType": "uint256",
          "name": "amount",
          "type": "uint256"
        }
      ],
      "name": "transferFrom",
      "outputs": [
        {
          "internalType": "bool",
          "name": "",
          "type": "bool"
        }
      ],
      "stateMutability": "nonpayable",
      "type": "function"
    },
    {
      "inputs": [
        {
          "internalType": "address",
          "name": "newOwner",
          "type": "address"
        }
      ],
      "name": "transferOwnership",
      "outputs": [],
      "stateMutability": "nonpayable",
      "type": "function"
    }
  ],
  "bytecode": "0x608060405260046009556a295be96e640669720000006011553480156200002557600080fd5b50604051620047093803806200470983398181016040528101906200004b919062000807565b6040518060400160405280600c81526020017f5447472d4172632d5465737400000000000000000000000000000000000000008152506040518060400160405280600781526020017f5447472d612d74000000000000000000000000000000000000000000000000008152508160039080519060200190620000cf92919062000740565b508060049080519060200190620000e892919062000740565b50505060016005819055506200011362000107620002da60201b60201c565b620002e260201b60201c565b6200012f671fbd34d61d3bf1fe60c01b620003a860201b60201c565b6200014b67d3aa1e78700605d560c01b620003a860201b60201c565b620001676785a2632e7aba18f160c01b620003a860201b60201c565b6200017881620003ab60201b60201c565b62000194678846710004c1ee4f60c01b620003a860201b60201c565b620001b067654ec96c6a78970860c01b620003a860201b60201c565b620001c260056200046f60201b60201c565b620001de673ca14f79f107b9f860c01b620003a860201b60201c565b620001fa6783212058e191792460c01b620003a860201b60201c565b62000239336200020f620004f960201b60201c565b600a6200021d9190620009bc565b62e94e906200022d919062000af9565b6200050260201b60201c565b62000255678e5158fd0dcc2a1060c01b620003a860201b60201c565b6200027167f16661398da7578560c01b620003a860201b60201c565b620002d3600e60009054906101000a900473ffffffffffffffffffffffffffffffffffffffff16620002a8620004f960201b60201c565b600a620002b69190620009bc565b630211a1f0620002c7919062000af9565b6200050260201b60201c565b5062000cb2565b600033905090565b6000600660009054906101000a900473ffffffffffffffffffffffffffffffffffffffff16905081600660006101000a81548173ffffffffffffffffffffffffffffffffffffffff021916908373ffffffffffffffffffffffffffffffffffffffff1602179055508173ffffffffffffffffffffffffffffffffffffffff168173ffffffffffffffffffffffffffffffffffffffff167f8be0079c531659141344cd1fd0a4f28419497f9722a3daafe3b4186f6b6457e060405160405180910390a35050565b50565b620003c767c9881c61c740fb0f60c01b620003a860201b60201c565b620003d76200067b60201b60201c565b620003f3674fcf42f614bc420860c01b620003a860201b60201c565b6200040f67aadecbdfa93894e260c01b620003a860201b60201c565b6200042b678f3ec67ad9e2c7ba60c01b620003a860201b60201c565b80600e60006101000a81548173ffffffffffffffffffffffffffffffffffffffff021916908373ffffffffffffffffffffffffffffffffffffffff16021790555050565b6200048b67c24d1ccbe9f82aa460c01b620003a860201b60201c565b6200049b6200067b60201b60201c565b620004b7672571aedcf94e785e60c01b620003a860201b60201c565b620004d367f347f7221d1a76ac60c01b620003a860201b60201c565b620004ef67f1ef683ae74485fc60c01b620003a860201b60201c565b8060108190555050565b60006012905090565b600073ffffffffffffffffffffffffffffffffffffffff168273ffffffffffffffffffffffffffffffffffffffff16141562000575576040517f08c379a00000000000000000000000000000000000000000000000000000000081526004016200056c90620008b4565b60405180910390fd5b62000589600083836200070c60201b60201c565b80600260008282546200059d919062000904565b92505081905550806000808473ffffffffffffffffffffffffffffffffffffffff1673ffffffffffffffffffffffffffffffffffffffff1681526020019081526020016000206000828254620005f4919062000904565b925050819055508173ffffffffffffffffffffffffffffffffffffffff16600073ffffffffffffffffffffffffffffffffffffffff167fddf252ad1be2c89b69c2b068fc378daa952ba7f163c4a11628f55a4df523b3ef836040516200065b9190620008d6565b60405180910390a362000677600083836200071160201b60201c565b5050565b6200068b620002da60201b60201c565b73ffffffffffffffffffffffffffffffffffffffff16620006b16200071660201b60201c565b73ffffffffffffffffffffffffffffffffffffffff16146200070a576040517f08c379a0000000000000000000000000000000000000000000000000000000008152600401620007019062000892565b60405180910390fd5b565b505050565b505050565b6000600660009054906101000a900473ffffffffffffffffffffffffffffffffffffffff16905090565b8280546200074e9062000ba5565b90600052602060002090601f016020900481019282620007725760008555620007be565b82601f106200078d57805160ff1916838001178555620007be565b82800160010185558215620007be579182015b82811115620007bd578251825591602001919060010190620007a0565b5b509050620007cd9190620007d1565b5090565b5b80821115620007ec576000816000905550600101620007d2565b5090565b600081519050620008018162000c98565b92915050565b6000602082840312156200081a57600080fd5b60006200082a84828501620007f0565b91505092915050565b600062000842602083620008f3565b91506200084f8262000c46565b602082019050919050565b600062000869601f83620008f3565b9150620008768262000c6f565b602082019050919050565b6200088c8162000b8e565b82525050565b60006020820190508181036000830152620008ad8162000833565b9050919050565b60006020820190508181036000830152620008cf816200085a565b9050919050565b6000602082019050620008ed600083018462000881565b92915050565b600082825260208201905092915050565b6000620009118262000b8e565b91506200091e8362000b8e565b9250827fffffffffffffffffffffffffffffffffffffffffffffffffffffffffffffffff0382111562000956576200095562000bdb565b5b828201905092915050565b6000808291508390505b6001851115620009b3578086048111156200098b576200098a62000bdb565b5b60018516156200099b5780820291505b8081029050620009ab8562000c39565b94506200096b565b94509492505050565b6000620009c98262000b8e565b9150620009d68362000b98565b925062000a057fffffffffffffffffffffffffffffffffffffffffffffffffffffffffffffffff848462000a0d565b905092915050565b60008262000a1f576001905062000af2565b8162000a2f576000905062000af2565b816001811462000a48576002811462000a535762000a89565b600191505062000af2565b60ff84111562000a685762000a6762000bdb565b5b8360020a91508482111562000a825762000a8162000bdb565b5b5062000af2565b5060208310610133831016604e8410600b841016171562000ac35782820a90508381111562000abd5762000abc62000bdb565b5b62000af2565b62000ad2848484600162000961565b9250905081840481111562000aec5762000aeb62000bdb565b5b81810290505b9392505050565b600062000b068262000b8e565b915062000b138362000b8e565b9250817fffffffffffffffffffffffffffffffffffffffffffffffffffffffffffffffff048311821515161562000b4f5762000b4e62000bdb565b5b828202905092915050565b600062000b678262000b6e565b9050919050565b600073ffffffffffffffffffffffffffffffffffffffff82169050919050565b6000819050919050565b600060ff82169050919050565b6000600282049050600182168062000bbe57607f821691505b6020821081141562000bd55762000bd462000c0a565b5b50919050565b7f4e487b7100000000000000000000000000000000000000000000000000000000600052601160045260246000fd5b7f4e487b7100000000000000000000000000000000000000000000000000000000600052602260045260246000fd5b60008160011c9050919050565b7f4f776e61626c653a2063616c6c6572206973206e6f7420746865206f776e6572600082015250565b7f45524332303a206d696e7420746f20746865207a65726f206164647265737300600082015250565b62000ca38162000b5a565b811462000caf57600080fd5b50565b613a478062000cc26000396000f3fe608060405234801561001057600080fd5b50600436106102275760003560e01c806379cc679011610130578063a9c35334116100b8578063dd62ed3e1161007c578063dd62ed3e1461067c578063df238800146106ac578063f2fde38b146106c8578063f4131433146106e4578063f80f5dd51461070057610227565b8063a9c35334146105d8578063abc8c7af146105f4578063d0a723d214610612578063d5abeb011461062e578063d73a58651461064c57610227565b80639407ea98116100ff5780639407ea9814610520578063948142bb1461053c57806395d89b411461055a578063a457c2d714610578578063a9059cbb146105a857610227565b806379cc67901461049a57806384eda544146104b65780638da5cb5b146104d2578063938f296c146104f057610227565b80633cd8045e116101b357806354e051901161018257806354e051901461040a5780636a1669641461042657806370a0823114610444578063715018a61461047457806378c8cda71461047e57610227565b80633cd8045e146103945780633fdc2590146103b257806342966c68146103d05780634e8086aa146103ec57610227565b806323b872dd116101fa57806323b872dd146102b6578063313ce567146102e6578063347206f71461030457806339509351146103345780633af32abf1461036457610227565b806306fdde031461022c578063095ea7b31461024a57806318160ddd1461027a5780632267716c14610298575b600080fd5b61023461071c565b6040516102419190612ecc565b60405180910390f35b610264600480360381019061025f91906128e9565b6107ae565b6040516102719190612e60565b60405180910390f35b6102826107d1565b60405161028f919061310e565b60405180910390f35b6102a06107db565b6040516102ad9190612dfa565b60405180910390f35b6102d060048036038101906102cb919061289a565b610801565b6040516102dd9190612e60565b60405180910390f35b6102ee610830565b6040516102fb9190613129565b60405180910390f35b61031e600480360381019061031991906129a2565b610839565b60405161032b9190612dfa565b60405180910390f35b61034e600480360381019061034991906128e9565b61086c565b60405161035b9190612e60565b60405180910390f35b61037e60048036038101906103799190612783565b6108a3565b60405161038b9190612e60565b60405180910390f35b61039c6108c3565b6040516103a99190612dfa565b60405180910390f35b6103ba6108e9565b6040516103c79190612e7b565b60405180910390f35b6103ea60048036038101906103e591906129a2565b61090f565b005b6103f4610923565b604051610401919061310e565b60405180910390f35b610424600480360381019061041f91906128e9565b610929565b005b61042e610d50565b60405161043b919061310e565b60405180910390f35b61045e60048036038101906104599190612783565b610d56565b60405161046b919061310e565b60405180910390f35b61047c610d9e565b005b61049860048036038101906104939190612783565b610db2565b005b6104b460048036038101906104af91906128e9565b610e65565b005b6104d060048036038101906104cb9190612783565b610e85565b005b6104da610f21565b6040516104e79190612dfa565b60405180910390f35b61050a60048036038101906105059190612783565b610f4b565b6040516105179190612e60565b60405180910390f35b61053a600480360381019061053591906129a2565b610fdd565b005b61054461103f565b6040516105519190612e96565b60405180910390f35b610562611065565b60405161056f9190612ecc565b60405180910390f35b610592600480360381019061058d91906128e9565b6110f7565b60405161059f9190612e60565b60405180910390f35b6105c260048036038101906105bd91906128e9565b61116e565b6040516105cf9190612e60565b60405180910390f35b6105f260048036038101906105ed9190612783565b611191565b005b6105fc61122d565b6040516106099190612eb1565b60405180910390f35b61062c600480360381019061062791906127e8565b611253565b005b610636611371565b604051610643919061310e565b60405180910390f35b610666600480360381019061066191906129a2565b611377565b604051610673919061310e565b60405180910390f35b610696600480360381019061069191906127ac565b61138f565b6040516106a3919061310e565b60405180910390f35b6106c660048036038101906106c191906129f4565b611416565b005b6106e260048036038101906106dd9190612783565b6114f1565b005b6106fe60048036038101906106f991906128e9565b611575565b005b61071a60048036038101906107159190612783565b611af6565b005b60606003805461072b90613435565b80601f016020809104026020016040519081016040528092919081815260200182805461075790613435565b80156107a45780601f10610779576101008083540402835291602001916107a4565b820191906000526020600020905b81548152906001019060200180831161078757829003601f168201915b5050505050905090565b6000806107b9611ba9565b90506107c6818585611bb1565b600191505092915050565b6000600254905090565b600e60009054906101000a900473ffffffffffffffffffffffffffffffffffffffff1681565b60008061080c611ba9565b9050610819858285611d7c565b610824858585611e08565b60019150509392505050565b60006012905090565b60076020528060005260406000206000915054906101000a900473ffffffffffffffffffffffffffffffffffffffff1681565b600080610877611ba9565b9050610898818585610889858961138f565b610893919061322c565b611bb1565b600191505092915050565b600d6020528060005260406000206000915054906101000a900460ff1681565b600f60009054906101000a900473ffffffffffffffffffffffffffffffffffffffff1681565b600a60009054906101000a900473ffffffffffffffffffffffffffffffffffffffff1681565b61092061091a611ba9565b82612089565b50565b60095481565b61093d671beddc5b5b7f637660c01b612260565b60026005541415610983576040517f08c379a000000000000000000000000000000000000000000000000000000000815260040161097a906130ae565b60405180910390fd5b600260058190555061099f673c7ef5465dd835ae60c01b612260565b6109b36703d9e3f26006c9cc60c01b612260565b6109c767f3004b29f34b9e3160c01b612260565b6109db671749ba1fa9731bfe60c01b612260565b6109ef6784e1eb48b7aeab1c60c01b612260565b600d60008373ffffffffffffffffffffffffffffffffffffffff1673ffffffffffffffffffffffffffffffffffffffff16815260200190815260200160002060009054906101000a900460ff16610a7b576040517f08c379a0000000000000000000000000000000000000000000000000000000008152600401610a729061308e565b60405180910390fd5b610a8f67bcfc60bbfd9d145960c01b612260565b610aa367a0105abc1214b8f860c01b612260565b81600c60006101000a81548173ffffffffffffffffffffffffffffffffffffffff021916908373ffffffffffffffffffffffffffffffffffffffff160217905550610af8677b032a39eeb0d95560c01b612260565b610b0c67c171e00ded34e39e60c01b612260565b6000610b22679b33b0dbb425522160c01b612260565b610b3667549c579b48eb68e960c01b612260565b6000610b4c6733b3954491b0d17660c01b612260565b600c60009054906101000a900473ffffffffffffffffffffffffffffffffffffffff1673ffffffffffffffffffffffffffffffffffffffff1663a82ba76f33856040518363ffffffff1660e01b8152600401610ba9929190612e15565b6040805180830381600087803b158015610bc257600080fd5b505af1158015610bd6573d6000803e3d6000fd5b505050506040513d601f19601f82011682018060405250810190610bfa9190612925565b8092508193505050610c1667933c83665375936e60c01b612260565b610c2a670f8169779b6c554c60c01b612260565b610c3e676e32fec8432b124f60c01b612260565b80610c4833610d56565b1015610c89576040517f08c379a0000000000000000000000000000000000000000000000000000000008152600401610c809061304e565b60405180910390fd5b610c9d6777e670477465b56060c01b612260565b610cb1671c542d5be1ef82f460c01b612260565b610cc567ff680e83902c93a160c01b612260565b6000610cd082612263565b9050610ce6678f0fceeeada09ac760c01b612260565b610cfa6722d523c69834502760c01b612260565b610d04838261116e565b50610d1967a104357fc4af67a860c01b612260565b610d2d676401f8dd0b7954f160c01b612260565b610d418183610d3c919061330d565b6122ce565b50505060016005819055505050565b60105481565b60008060008373ffffffffffffffffffffffffffffffffffffffff1673ffffffffffffffffffffffffffffffffffffffff168152602001908152602001600020549050919050565b610da661244a565b610db060006124c8565b565b610dc6679fc468917d03523660c01b612260565b610dce61244a565b610de2670da846029212bf1160c01b612260565b610df667c319e75b8690d67560c01b612260565b610e0a6738991c686953a4fb60c01b612260565b6000600d60008373ffffffffffffffffffffffffffffffffffffffff1673ffffffffffffffffffffffffffffffffffffffff16815260200190815260200160002060006101000a81548160ff02191690831515021790555050565b610e7782610e71611ba9565b83611d7c565b610e818282612089565b5050565b610e9967dcfd422c251f3fd360c01b612260565b610ea161244a565b610eb567a1bbeaab9c04a0af60c01b612260565b610ec967242c15283869976660c01b612260565b610edd676ef3a23f64cea11e60c01b612260565b80600a60006101000a81548173ffffffffffffffffffffffffffffffffffffffff021916908373ffffffffffffffffffffffffffffffffffffffff16021790555050565b6000600660009054906101000a900473ffffffffffffffffffffffffffffffffffffffff16905090565b6000610f61677a84f82911b4ed6960c01b612260565b610f756718c7db2bebbae43260c01b612260565b610f8967b81a39ca362c3dde60c01b612260565b600d60008373ffffffffffffffffffffffffffffffffffffffff1673ffffffffffffffffffffffffffffffffffffffff16815260200190815260200160002060009054906101000a900460ff169050919050565b610ff167c24d1ccbe9f82aa460c01b612260565b610ff961244a565b61100d672571aedcf94e785e60c01b612260565b61102167f347f7221d1a76ac60c01b612260565b61103567f1ef683ae74485fc60c01b612260565b8060108190555050565b600b60009054906101000a900473ffffffffffffffffffffffffffffffffffffffff1681565b60606004805461107490613435565b80601f01602080910402602001604051908101604052809291908181526020018280546110a090613435565b80156110ed5780601f106110c2576101008083540402835291602001916110ed565b820191906000526020600020905b8154815290600101906020018083116110d057829003601f168201915b5050505050905090565b600080611102611ba9565b90506000611110828661138f565b905083811015611155576040517f08c379a000000000000000000000000000000000000000000000000000000000815260040161114c906130ee565b60405180910390fd5b6111628286868403611bb1565b60019250505092915050565b600080611179611ba9565b9050611186818585611e08565b600191505092915050565b6111a567c9881c61c740fb0f60c01b612260565b6111ad61244a565b6111c1674fcf42f614bc420860c01b612260565b6111d567aadecbdfa93894e260c01b612260565b6111e9678f3ec67ad9e2c7ba60c01b612260565b80600e60006101000a81548173ffffffffffffffffffffffffffffffffffffffff021916908373ffffffffffffffffffffffffffffffffffffffff16021790555050565b600c60009054906101000a900473ffffffffffffffffffffffffffffffffffffffff1681565b61126767bc2ed86fac455c4d60c01b61258e565b61126f61244a565b61128367c2c21d72f9a0493460c01b61258e565b61129767489a130102c1158660c01b61258e565b6112ab67ee204c58542f9bb760c01b61258e565b6112bf6740efef22b790591960c01b61258e565b6112cb60008986611416565b6112df675454bbbbcb9292ac60c01b61258e565b6112f367795256ddb741c96b60c01b61258e565b6112ff60018885611416565b61131367018499b152609a4d60c01b61258e565b61132767c832a6946700409060c01b61258e565b61133360028784611416565b611347672d9a76f71e5117f960c01b61258e565b61135b67df7324977fecf8f860c01b61258e565b61136760038683611416565b5050505050505050565b60115481565b60086020528060005260406000206000915090505481565b6000600160008473ffffffffffffffffffffffffffffffffffffffff1673ffffffffffffffffffffffffffffffffffffffff16815260200190815260200160002060008373ffffffffffffffffffffffffffffffffffffffff1673ffffffffffffffffffffffffffffffffffffffff16815260200190815260200160002054905092915050565b61142a673793cbbdde24cd7a60c01b61258e565b61143261244a565b611446671ff8adfc87e53f1860c01b61258e565b61145a67f873e447af0a44db60c01b61258e565b61146e67d8b10269c56527e760c01b61258e565b816007600085815260200190815260200160002060006101000a81548173ffffffffffffffffffffffffffffffffffffffff021916908373ffffffffffffffffffffffffffffffffffffffff1602179055506114d46749c6daefad7b08b760c01b61258e565b806008600085815260200190815260200160002081905550505050565b6114f961244a565b600073ffffffffffffffffffffffffffffffffffffffff168173ffffffffffffffffffffffffffffffffffffffff161415611569576040517f08c379a000000000000000000000000000000000000000000000000000000000815260040161156090612f2e565b60405180910390fd5b611572816124c8565b50565b61158967595b404cd2c19f0360c01b612260565b600260055414156115cf576040517f08c379a00000000000000000000000000000000000000000000000000000000081526004016115c6906130ae565b60405180910390fd5b60026005819055506115eb670b1ed78d99a6404a60c01b612260565b6115ff673bce775773b5a2f860c01b612260565b6116136759ae993341cd6bbc60c01b612260565b61162767eeb20468abd0b33960c01b612260565b61163b673686d663e9f2816960c01b612260565b600d60008373ffffffffffffffffffffffffffffffffffffffff1673ffffffffffffffffffffffffffffffffffffffff16815260200190815260200160002060009054906101000a900460ff166116c7576040517f08c379a00000000000000000000000000000000000000000000000000000000081526004016116be90612fce565b60405180910390fd5b6116db6702d9fd593fcb5f4c60c01b612260565b6116ef67c2343f725197d0ce60c01b612260565b611703678e8fa0cec1c4e9de60c01b612260565b61171767d3b7d52cd07655d360c01b612260565b600181148015611737575061173667a5a01abdef42e67760c01b612591565b5b8061175e5750600a8114801561175d575061175c67ef127c0796e565e260c01b612591565b5b5b61179d576040517f08c379a00000000000000000000000000000000000000000000000000000000081526004016117949061300e565b60405180910390fd5b6117b167121cbdd1bcdbb92460c01b612260565b6117c5674750a9094b741b7960c01b612260565b81600b60006101000a81548173ffffffffffffffffffffffffffffffffffffffff021916908373ffffffffffffffffffffffffffffffffffffffff16021790555061181a679f66f1dd0d8b08a960c01b612260565b61182e671f9f21843ce8f3fd60c01b612260565b600081600b60009054906101000a900473ffffffffffffffffffffffffffffffffffffffff1673ffffffffffffffffffffffffffffffffffffffff1663bd3e19d46040518163ffffffff1660e01b815260040160206040518083038186803b15801561189957600080fd5b505afa1580156118ad573d6000803e3d6000fd5b505050506040513d601f19601f820116820180604052508101906118d191906129cb565b6118db91906132b3565b90506118f167759549d67609f08560c01b612260565b6119056723d847040820952360c01b612260565b6119196773881da10b3df6cf60c01b612260565b8061192333610d56565b1015611964576040517f08c379a000000000000000000000000000000000000000000000000000000000815260040161195b906130ce565b60405180910390fd5b611978672ebbd4950f1b684960c01b612260565b61198c67487933d7973c786260c01b612260565b6119a0672c0a496944a7153c60c01b612260565b6119a9816122ce565b6119bd67204e9a64d94f2b6a60c01b612260565b6119d167e51ef1454af29ade60c01b612260565b6000600b60009054906101000a900473ffffffffffffffffffffffffffffffffffffffff1673ffffffffffffffffffffffffffffffffffffffff1663d37d753f33856040518363ffffffff1660e01b8152600401611a30929190612e15565b600060405180830381600087803b158015611a4a57600080fd5b505af1158015611a5e573d6000803e3d6000fd5b505050506040513d6000823e3d601f19601f82011682018060405250810190611a879190612961565b9050611a9d673325eef9c21ba42160c01b612260565b611ab167e0e773210bb63a7a60c01b612260565b7f519a41995e277465e15d78dc01a8a1dcc6fa0e3a714980772f44c16e7c7c4b2b81604051611ae09190612e3e565b60405180910390a1505060016005819055505050565b611b0a67fd8ca73812c6d89060c01b612260565b611b1261244a565b611b266770d1763270a3a8f460c01b612260565b611b3a677525e82788d22f9a60c01b612260565b611b4e6780f03cfcb84ad41560c01b612260565b6001600d60008373ffffffffffffffffffffffffffffffffffffffff1673ffffffffffffffffffffffffffffffffffffffff16815260200190815260200160002060006101000a81548160ff02191690831515021790555050565b600033905090565b600073ffffffffffffffffffffffffffffffffffffffff168373ffffffffffffffffffffffffffffffffffffffff161415611c21576040517f08c379a0000000000000000000000000000000000000000000000000000000008152600401611c189061306e565b60405180910390fd5b600073ffffffffffffffffffffffffffffffffffffffff168273ffffffffffffffffffffffffffffffffffffffff161415611c91576040517f08c379a0000000000000000000000000000000000000000000000000000000008152600401611c8890612f4e565b60405180910390fd5b80600160008573ffffffffffffffffffffffffffffffffffffffff1673ffffffffffffffffffffffffffffffffffffffff16815260200190815260200160002060008473ffffffffffffffffffffffffffffffffffffffff1673ffffffffffffffffffffffffffffffffffffffff168152602001908152602001600020819055508173ffffffffffffffffffffffffffffffffffffffff168373ffffffffffffffffffffffffffffffffffffffff167f8c5be1e5ebec7d5bd14f71427d1e84f3dd0314c0f7b2291e5b200ac8c7c3b92583604051611d6f919061310e565b60405180910390a3505050565b6000611d88848461138f565b90507fffffffffffffffffffffffffffffffffffffffffffffffffffffffffffffffff8114611e025781811015611df4576040517f08c379a0000000000000000000000000000000000000000000000000000000008152600401611deb90612f6e565b60405180910390fd5b611e018484848403611bb1565b5b50505050565b600073ffffffffffffffffffffffffffffffffffffffff168373ffffffffffffffffffffffffffffffffffffffff161415611e78576040517f08c379a0000000000000000000000000000000000000000000000000000000008152600401611e6f9061302e565b60405180910390fd5b600073ffffffffffffffffffffffffffffffffffffffff168273ffffffffffffffffffffffffffffffffffffffff161415611ee8576040517f08c379a0000000000000000000000000000000000000000000000000000000008152600401611edf90612eee565b60405180910390fd5b611ef383838361259c565b60008060008573ffffffffffffffffffffffffffffffffffffffff1673ffffffffffffffffffffffffffffffffffffffff16815260200190815260200160002054905081811015611f79576040517f08c379a0000000000000000000000000000000000000000000000000000000008152600401611f7090612f8e565b60405180910390fd5b8181036000808673ffffffffffffffffffffffffffffffffffffffff1673ffffffffffffffffffffffffffffffffffffffff16815260200190815260200160002081905550816000808573ffffffffffffffffffffffffffffffffffffffff1673ffffffffffffffffffffffffffffffffffffffff168152602001908152602001600020600082825461200c919061322c565b925050819055508273ffffffffffffffffffffffffffffffffffffffff168473ffffffffffffffffffffffffffffffffffffffff167fddf252ad1be2c89b69c2b068fc378daa952ba7f163c4a11628f55a4df523b3ef84604051612070919061310e565b60405180910390a36120838484846125a1565b50505050565b600073ffffffffffffffffffffffffffffffffffffffff168273ffffffffffffffffffffffffffffffffffffffff1614156120f9576040517f08c379a00000000000000000000000000000000000000000000000000000000081526004016120f090612fee565b60405180910390fd5b6121058260008361259c565b60008060008473ffffffffffffffffffffffffffffffffffffffff1673ffffffffffffffffffffffffffffffffffffffff1681526020019081526020016000205490508181101561218b576040517f08c379a000000000000000000000000000000000000000000000000000000000815260040161218290612f0e565b60405180910390fd5b8181036000808573ffffffffffffffffffffffffffffffffffffffff1673ffffffffffffffffffffffffffffffffffffffff1681526020019081526020016000208190555081600260008282546121e2919061330d565b92505081905550600073ffffffffffffffffffffffffffffffffffffffff168373ffffffffffffffffffffffffffffffffffffffff167fddf252ad1be2c89b69c2b068fc378daa952ba7f163c4a11628f55a4df523b3ef84604051612247919061310e565b60405180910390a361225b836000846125a1565b505050565b50565b60006122796775aa7695c66c302960c01b612260565b61228d678c19dfb9da5abb9960c01b612260565b6122a167fcf7b5b58e2fd45b60c01b612260565b606460105460646122b2919061330d565b836122bd91906132b3565b6122c79190613282565b9050919050565b6122e267e034c62d4f1b3c2160c01b612260565b6122f667fbef4b25e1e2285f60c01b612260565b61230a67f8f4171dce49ba7560c01b612260565b6000819050612323675d9870d1dd9280eb60c01b612260565b612337676340660ae672279560c01b612260565b60005b600954811015612414576123586765a5a561fde2f4a560c01b612260565b61236c675f82f738b247bd7260c01b612260565b600061237884836125a6565b905061238e67ae18726242ac5ac760c01b612260565b6123a2676e8e97b2f28d50cc60c01b612260565b6123df6007600084815260200190815260200160002060009054906101000a900473ffffffffffffffffffffffffffffffffffffffff168261116e565b506123f46712d4d6132483868260c01b612260565b8083612400919061330d565b9250508061240d90613498565b905061233a565b50612429676312eef1e8a1fcb860c01b612260565b61243d671995fd24a8f6445260c01b612260565b6124468161090f565b5050565b612452611ba9565b73ffffffffffffffffffffffffffffffffffffffff16612470610f21565b73ffffffffffffffffffffffffffffffffffffffff16146124c6576040517f08c379a00000000000000000000000000000000000000000000000000000000081526004016124bd90612fae565b60405180910390fd5b565b6000600660009054906101000a900473ffffffffffffffffffffffffffffffffffffffff16905081600660006101000a81548173ffffffffffffffffffffffffffffffffffffffff021916908373ffffffffffffffffffffffffffffffffffffffff1602179055508173ffffffffffffffffffffffffffffffffffffffff168173ffffffffffffffffffffffffffffffffffffffff167f8be0079c531659141344cd1fd0a4f28419497f9722a3daafe3b4186f6b6457e060405160405180910390a35050565b50565b600060019050919050565b505050565b505050565b60006125bc67faad2814c49b1f6060c01b61258e565b6125d067e276b30064ac882760c01b61258e565b6125e4670fadf27978d5151660c01b61258e565b606460086000848152602001908152602001600020548461260591906132b3565b61260f9190613282565b905092915050565b600061262a61262584613169565b613144565b9050808382526020820190508285602086028201111561264957600080fd5b60005b8581101561269357815167ffffffffffffffff81111561266b57600080fd5b808601612678898261272f565b8552602085019450602084019350505060018101905061264c565b5050509392505050565b60006126b06126ab84613195565b613144565b9050828152602081018484840111156126c857600080fd5b6126d3848285613402565b509392505050565b6000813590506126ea816139e3565b92915050565b6000815190506126ff816139e3565b92915050565b600082601f83011261271657600080fd5b8151612726848260208601612617565b91505092915050565b600082601f83011261274057600080fd5b815161275084826020860161269d565b91505092915050565b600081359050612768816139fa565b92915050565b60008151905061277d816139fa565b92915050565b60006020828403121561279557600080fd5b60006127a3848285016126db565b91505092915050565b600080604083850312156127bf57600080fd5b60006127cd858286016126db565b92505060206127de858286016126db565b9150509250929050565b600080600080600080600080610100898b03121561280557600080fd5b60006128138b828c016126db565b98505060206128248b828c016126db565b97505060406128358b828c016126db565b96505060606128468b828c016126db565b95505060806128578b828c01612759565b94505060a06128688b828c01612759565b93505060c06128798b828c01612759565b92505060e061288a8b828c01612759565b9150509295985092959890939650565b6000806000606084860312156128af57600080fd5b60006128bd868287016126db565b93505060206128ce868287016126db565b92505060406128df86828701612759565b9150509250925092565b600080604083850312156128fc57600080fd5b600061290a858286016126db565b925050602061291b85828601612759565b9150509250929050565b6000806040838503121561293857600080fd5b6000612946858286016126f0565b92505060206129578582860161276e565b9150509250929050565b60006020828403121561297357600080fd5b600082015167ffffffffffffffff81111561298d57600080fd5b61299984828501612705565b91505092915050565b6000602082840312156129b457600080fd5b60006129c284828501612759565b91505092915050565b6000602082840312156129dd57600080fd5b60006129eb8482850161276e565b91505092915050565b600080600060608486031215612a0957600080fd5b6000612a1786828701612759565b9350506020612a28868287016126db565b9250506040612a3986828701612759565b9150509250925092565b6000612a4f8383612b17565b905092915050565b612a6081613341565b82525050565b6000612a71826131d6565b612a7b81856131f9565b935083602082028501612a8d856131c6565b8060005b85811015612ac95784840389528151612aaa8582612a43565b9450612ab5836131ec565b925060208a01995050600181019050612a91565b50829750879550505050505092915050565b612ae481613353565b82525050565b612af381613396565b82525050565b612b02816133ba565b82525050565b612b11816133de565b82525050565b6000612b22826131e1565b612b2c818561320a565b9350612b3c818560208601613402565b612b458161359d565b840191505092915050565b6000612b5b826131e1565b612b65818561321b565b9350612b75818560208601613402565b612b7e8161359d565b840191505092915050565b6000612b9660238361321b565b9150612ba1826135ae565b604082019050919050565b6000612bb960228361321b565b9150612bc4826135fd565b604082019050919050565b6000612bdc60268361321b565b9150612be78261364c565b604082019050919050565b6000612bff60228361321b565b9150612c0a8261369b565b604082019050919050565b6000612c22601d8361321b565b9150612c2d826136ea565b602082019050919050565b6000612c4560268361321b565b9150612c5082613713565b604082019050919050565b6000612c6860208361321b565b9150612c7382613762565b602082019050919050565b6000612c8b601e8361321b565b9150612c968261378b565b602082019050919050565b6000612cae60218361321b565b9150612cb9826137b4565b604082019050919050565b6000612cd160208361321b565b9150612cdc82613803565b602082019050919050565b6000612cf460258361321b565b9150612cff8261382c565b604082019050919050565b6000612d1760228361321b565b9150612d228261387b565b604082019050919050565b6000612d3a60248361321b565b9150612d45826138ca565b604082019050919050565b6000612d5d601f8361321b565b9150612d6882613919565b602082019050919050565b6000612d80601f8361321b565b9150612d8b82613942565b602082019050919050565b6000612da3601c8361321b565b9150612dae8261396b565b602082019050919050565b6000612dc660258361321b565b9150612dd182613994565b604082019050919050565b612de58161337f565b82525050565b612df481613389565b82525050565b6000602082019050612e0f6000830184612a57565b92915050565b6000604082019050612e2a6000830185612a57565b612e376020830184612ddc565b9392505050565b60006020820190508181036000830152612e588184612a66565b905092915050565b6000602082019050612e756000830184612adb565b92915050565b6000602082019050612e906000830184612aea565b92915050565b6000602082019050612eab6000830184612af9565b92915050565b6000602082019050612ec66000830184612b08565b92915050565b60006020820190508181036000830152612ee68184612b50565b905092915050565b60006020820190508181036000830152612f0781612b89565b9050919050565b60006020820190508181036000830152612f2781612bac565b9050919050565b60006020820190508181036000830152612f4781612bcf565b9050919050565b60006020820190508181036000830152612f6781612bf2565b9050919050565b60006020820190508181036000830152612f8781612c15565b9050919050565b60006020820190508181036000830152612fa781612c38565b9050919050565b60006020820190508181036000830152612fc781612c5b565b9050919050565b60006020820190508181036000830152612fe781612c7e565b9050919050565b6000602082019050818103600083015261300781612ca1565b9050919050565b6000602082019050818103600083015261302781612cc4565b9050919050565b6000602082019050818103600083015261304781612ce7565b9050919050565b6000602082019050818103600083015261306781612d0a565b9050919050565b6000602082019050818103600083015261308781612d2d565b9050919050565b600060208201905081810360008301526130a781612d50565b9050919050565b600060208201905081810360008301526130c781612d73565b9050919050565b600060208201905081810360008301526130e781612d96565b9050919050565b6000602082019050818103600083015261310781612db9565b9050919050565b60006020820190506131236000830184612ddc565b92915050565b600060208201905061313e6000830184612deb565b92915050565b600061314e61315f565b905061315a8282613467565b919050565b6000604051905090565b600067ffffffffffffffff8211156131845761318361356e565b5b602082029050602081019050919050565b600067ffffffffffffffff8211156131b0576131af61356e565b5b6131b98261359d565b9050602081019050919050565b6000819050602082019050919050565b600081519050919050565b600081519050919050565b6000602082019050919050565b600082825260208201905092915050565b600082825260208201905092915050565b600082825260208201905092915050565b60006132378261337f565b91506132428361337f565b9250827fffffffffffffffffffffffffffffffffffffffffffffffffffffffffffffffff03821115613277576132766134e1565b5b828201905092915050565b600061328d8261337f565b91506132988361337f565b9250826132a8576132a7613510565b5b828204905092915050565b60006132be8261337f565b91506132c98361337f565b9250817fffffffffffffffffffffffffffffffffffffffffffffffffffffffffffffffff0483118215151615613302576133016134e1565b5b828202905092915050565b60006133188261337f565b91506133238361337f565b925082821015613336576133356134e1565b5b828203905092915050565b600061334c8261335f565b9050919050565b60008115159050919050565b600073ffffffffffffffffffffffffffffffffffffffff82169050919050565b6000819050919050565b600060ff82169050919050565b60006133a1826133a8565b9050919050565b60006133b38261335f565b9050919050565b60006133c5826133cc565b9050919050565b60006133d78261335f565b9050919050565b60006133e9826133f0565b9050919050565b60006133fb8261335f565b9050919050565b60005b83811015613420578082015181840152602081019050613405565b8381111561342f576000848401525b50505050565b6000600282049050600182168061344d57607f821691505b602082108114156134615761346061353f565b5b50919050565b6134708261359d565b810181811067ffffffffffffffff8211171561348f5761348e61356e565b5b80604052505050565b60006134a38261337f565b91507fffffffffffffffffffffffffffffffffffffffffffffffffffffffffffffffff8214156134d6576134d56134e1565b5b600182019050919050565b7f4e487b7100000000000000000000000000000000000000000000000000000000600052601160045260246000fd5b7f4e487b7100000000000000000000000000000000000000000000000000000000600052601260045260246000fd5b7f4e487b7100000000000000000000000000000000000000000000000000000000600052602260045260246000fd5b7f4e487b7100000000000000000000000000000000000000000000000000000000600052604160045260246000fd5b6000601f19601f8301169050919050565b7f45524332303a207472616e7366657220746f20746865207a65726f206164647260008201527f6573730000000000000000000000000000000000000000000000000000000000602082015250565b7f45524332303a206275726e20616d6f756e7420657863656564732062616c616e60008201527f6365000000000000000000000000000000000000000000000000000000000000602082015250565b7f4f776e61626c653a206e6577206f776e657220697320746865207a65726f206160008201527f6464726573730000000000000000000000000000000000000000000000000000602082015250565b7f45524332303a20617070726f766520746f20746865207a65726f20616464726560008201527f7373000000000000000000000000000000000000000000000000000000000000602082015250565b7f45524332303a20696e73756666696369656e7420616c6c6f77616e6365000000600082015250565b7f45524332303a207472616e7366657220616d6f756e742065786365656473206260008201527f616c616e63650000000000000000000000000000000000000000000000000000602082015250565b7f4f776e61626c653a2063616c6c6572206973206e6f7420746865206f776e6572600082015250565b7f5370656e6465723a204761636861206e6f742077686974656c69737465640000600082015250565b7f45524332303a206275726e2066726f6d20746865207a65726f2061646472657360008201527f7300000000000000000000000000000000000000000000000000000000000000602082015250565b7f5370656e6465723a207370696e2031206f722031302074696d6573206f6e6c79600082015250565b7f45524332303a207472616e736665722066726f6d20746865207a65726f20616460008201527f6472657373000000000000000000000000000000000000000000000000000000602082015250565b7f45534d61726b6574706c6163653a2075736572206e6f7420656e6f756768204160008201527f5243000000000000000000000000000000000000000000000000000000000000602082015250565b7f45524332303a20617070726f76652066726f6d20746865207a65726f2061646460008201527f7265737300000000000000000000000000000000000000000000000000000000602082015250565b7f5370656e6465723a204d61726b6574206e6f742077686974656c697374656400600082015250565b7f5265656e7472616e637947756172643a207265656e7472616e742063616c6c00600082015250565b7f5370656e6465723a2075736572206e6f7420656e6f7567682041524300000000600082015250565b7f45524332303a2064656372656173656420616c6c6f77616e63652062656c6f7760008201527f207a65726f000000000000000000000000000000000000000000000000000000602082015250565b6139ec81613341565b81146139f757600080fd5b50565b613a038161337f565b8114613a0e57600080fd5b5056fea26469706673582212206409c5807969192e846bf3ff1c23fa95a3a9a60451ac67fb1d57df7559b7dbc364736f6c63430008040033",
  "linkReferences": {},
  "deployedLinkReferences": {}
}