{
  "_format": "hh-sol-artifact-1",
  "contractName": "Arc",
  "sourceName": "contracts/ARC/Arc.sol",
  "abi": [
    {
      "inputs": [
        {
          "internalType": "address",
          "name": "_emissions",
          "type": "address"
        },
        {
          "internalType": "address",
          "name": "_rewards",
          "type": "address"
        },
        {
          "internalType": "address",
          "name": "_vesting",
          "type": "address"
        }
      ],
      "stateMutability": "nonpayable",
      "type": "constructor"
    },
    {
      "anonymous": false,
      "inputs": [
        {
          "indexed": true,
          "internalType": "address",
          "name": "owner",
          "type": "address"
        },
        {
          "indexed": true,
          "internalType": "address",
          "name": "spender",
          "type": "address"
        },
        {
          "indexed": false,
          "internalType": "uint256",
          "name": "value",
          "type": "uint256"
        }
      ],
      "name": "Approval",
      "type": "event"
    },
    {
      "anonymous": false,
      "inputs": [
        {
          "indexed": true,
          "internalType": "address",
          "name": "user",
          "type": "address"
        },
        {
          "indexed": true,
          "internalType": "address",
          "name": "gachaAddress",
          "type": "address"
        },
        {
          "indexed": true,
          "internalType": "uint256",
          "name": "spinId",
          "type": "uint256"
        },
        {
          "indexed": false,
          "internalType": "uint256",
          "name": "amount",
          "type": "uint256"
        }
      ],
      "name": "GachaSpun",
      "type": "event"
    },
    {
      "anonymous": false,
      "inputs": [
        {
          "indexed": true,
          "internalType": "address",
          "name": "previousOwner",
          "type": "address"
        },
        {
          "indexed": true,
          "internalType": "address",
          "name": "newOwner",
          "type": "address"
        }
      ],
      "name": "OwnershipTransferred",
      "type": "event"
    },
    {
      "anonymous": false,
      "inputs": [
        {
          "indexed": true,
          "internalType": "address",
          "name": "from",
          "type": "address"
        },
        {
          "indexed": true,
          "internalType": "address",
          "name": "to",
          "type": "address"
        },
        {
          "indexed": false,
          "internalType": "uint256",
          "name": "value",
          "type": "uint256"
        }
      ],
      "name": "Transfer",
      "type": "event"
    },
    {
      "inputs": [
        {
          "internalType": "address",
          "name": "_a",
          "type": "address"
        }
      ],
      "name": "addWhitelist",
      "outputs": [],
      "stateMutability": "nonpayable",
      "type": "function"
    },
    {
      "inputs": [
        {
          "internalType": "address",
          "name": "owner",
          "type": "address"
        },
        {
          "internalType": "address",
          "name": "spender",
          "type": "address"
        }
      ],
      "name": "allowance",
      "outputs": [
        {
          "internalType": "uint256",
          "name": "",
          "type": "uint256"
        }
      ],
      "stateMutability": "view",
      "type": "function"
    },
    {
      "inputs": [
        {
          "internalType": "address",
          "name": "spender",
          "type": "address"
        },
        {
          "internalType": "uint256",
          "name": "amount",
          "type": "uint256"
        }
      ],
      "name": "approve",
      "outputs": [
        {
          "internalType": "bool",
          "name": "",
          "type": "bool"
        }
      ],
      "stateMutability": "nonpayable",
      "type": "function"
    },
    {
      "inputs": [
        {
          "internalType": "address",
          "name": "account",
          "type": "address"
        }
      ],
      "name": "balanceOf",
      "outputs": [
        {
          "internalType": "uint256",
          "name": "",
          "type": "uint256"
        }
      ],
      "stateMutability": "view",
      "type": "function"
    },
    {
      "inputs": [
        {
          "internalType": "uint256",
          "name": "amount",
          "type": "uint256"
        }
      ],
      "name": "burn",
      "outputs": [],
      "stateMutability": "nonpayable",
      "type": "function"
    },
    {
      "inputs": [
        {
          "internalType": "address",
          "name": "account",
          "type": "address"
        },
        {
          "internalType": "uint256",
          "name": "amount",
          "type": "uint256"
        }
      ],
      "name": "burnFrom",
      "outputs": [],
      "stateMutability": "nonpayable",
      "type": "function"
    },
    {
      "inputs": [],
      "name": "decimals",
      "outputs": [
        {
          "internalType": "uint8",
          "name": "",
          "type": "uint8"
        }
      ],
      "stateMutability": "view",
      "type": "function"
    },
    {
      "inputs": [
        {
          "internalType": "address",
          "name": "spender",
          "type": "address"
        },
        {
          "internalType": "uint256",
          "name": "subtractedValue",
          "type": "uint256"
        }
      ],
      "name": "decreaseAllowance",
      "outputs": [
        {
          "internalType": "bool",
          "name": "",
          "type": "bool"
        }
      ],
      "stateMutability": "nonpayable",
      "type": "function"
    },
    {
      "inputs": [],
      "name": "emissions",
      "outputs": [
        {
          "internalType": "address",
          "name": "",
          "type": "address"
        }
      ],
      "stateMutability": "view",
      "type": "function"
    },
    {
      "inputs": [],
      "name": "gacha",
      "outputs": [
        {
          "internalType": "contract IGacha",
          "name": "",
          "type": "address"
        }
      ],
      "stateMutability": "view",
      "type": "function"
    },
    {
      "inputs": [
        {
          "internalType": "address",
          "name": "_a",
          "type": "address"
        }
      ],
      "name": "getIsWhitelisted",
      "outputs": [
        {
          "internalType": "bool",
          "name": "",
          "type": "bool"
        }
      ],
      "stateMutability": "view",
      "type": "function"
    },
    {
      "inputs": [],
      "name": "girls",
      "outputs": [
        {
          "internalType": "contract IERC721",
          "name": "",
          "type": "address"
        }
      ],
      "stateMutability": "view",
      "type": "function"
    },
    {
      "inputs": [
        {
          "internalType": "address",
          "name": "spender",
          "type": "address"
        },
        {
          "internalType": "uint256",
          "name": "addedValue",
          "type": "uint256"
        }
      ],
      "name": "increaseAllowance",
      "outputs": [
        {
          "internalType": "bool",
          "name": "",
          "type": "bool"
        }
      ],
      "stateMutability": "nonpayable",
      "type": "function"
    },
    {
      "inputs": [
        {
          "internalType": "address",
          "name": "",
          "type": "address"
        }
      ],
      "name": "isWhitelisted",
      "outputs": [
        {
          "internalType": "bool",
          "name": "",
          "type": "bool"
        }
      ],
      "stateMutability": "view",
      "type": "function"
    },
    {
      "inputs": [],
      "name": "maxSpins",
      "outputs": [
        {
          "internalType": "uint256",
          "name": "",
          "type": "uint256"
        }
      ],
      "stateMutability": "view",
      "type": "function"
    },
    {
      "inputs": [],
      "name": "maxSupply",
      "outputs": [
        {
          "internalType": "uint256",
          "name": "",
          "type": "uint256"
        }
      ],
      "stateMutability": "view",
      "type": "function"
    },
    {
      "inputs": [],
      "name": "name",
      "outputs": [
        {
          "internalType": "string",
          "name": "",
          "type": "string"
        }
      ],
      "stateMutability": "view",
      "type": "function"
    },
    {
      "inputs": [],
      "name": "owner",
      "outputs": [
        {
          "internalType": "address",
          "name": "",
          "type": "address"
        }
      ],
      "stateMutability": "view",
      "type": "function"
    },
    {
      "inputs": [
        {
          "internalType": "uint256",
          "name": "",
          "type": "uint256"
        }
      ],
      "name": "payeeAddress",
      "outputs": [
        {
          "internalType": "address",
          "name": "",
          "type": "address"
        }
      ],
      "stateMutability": "view",
      "type": "function"
    },
    {
      "inputs": [
        {
          "internalType": "uint256",
          "name": "",
          "type": "uint256"
        }
      ],
      "name": "payeePerc",
      "outputs": [
        {
          "internalType": "uint256",
          "name": "",
          "type": "uint256"
        }
      ],
      "stateMutability": "view",
      "type": "function"
    },
    {
      "inputs": [],
      "name": "payees",
      "outputs": [
        {
          "internalType": "uint256",
          "name": "",
          "type": "uint256"
        }
      ],
      "stateMutability": "view",
      "type": "function"
    },
    {
      "inputs": [
        {
          "internalType": "address",
          "name": "_a",
          "type": "address"
        }
      ],
      "name": "removeWhitelist",
      "outputs": [],
      "stateMutability": "nonpayable",
      "type": "function"
    },
    {
      "inputs": [],
      "name": "renounceOwnership",
      "outputs": [],
      "stateMutability": "nonpayable",
      "type": "function"
    },
    {
      "inputs": [],
      "name": "rewards",
      "outputs": [
        {
          "internalType": "address",
          "name": "",
          "type": "address"
        }
      ],
      "stateMutability": "view",
      "type": "function"
    },
    {
      "inputs": [
        {
          "internalType": "address",
          "name": "_rewards",
          "type": "address"
        }
      ],
      "name": "setBankRewardsContract",
      "outputs": [],
      "stateMutability": "nonpayable",
      "type": "function"
    },
    {
      "inputs": [
        {
          "internalType": "address",
          "name": "_emissions",
          "type": "address"
        }
      ],
      "name": "setEmissionsContract",
      "outputs": [],
      "stateMutability": "nonpayable",
      "type": "function"
    },
    {
      "inputs": [
        {
          "internalType": "address",
          "name": "_girlContractAddress",
          "type": "address"
        }
      ],
      "name": "setGirlContract",
      "outputs": [],
      "stateMutability": "nonpayable",
      "type": "function"
    },
    {
      "inputs": [
        {
          "internalType": "address",
          "name": "_a",
          "type": "address"
        },
        {
          "internalType": "address",
          "name": "_b",
          "type": "address"
        },
        {
          "internalType": "address",
          "name": "_c",
          "type": "address"
        },
        {
          "internalType": "address",
          "name": "_d",
          "type": "address"
        },
        {
          "internalType": "uint256",
          "name": "_aPerc",
          "type": "uint256"
        },
        {
          "internalType": "uint256",
          "name": "_bPerc",
          "type": "uint256"
        },
        {
          "internalType": "uint256",
          "name": "_cPerc",
          "type": "uint256"
        },
        {
          "internalType": "uint256",
          "name": "_dPerc",
          "type": "uint256"
        }
      ],
      "name": "setInitialPayees",
      "outputs": [],
      "stateMutability": "nonpayable",
      "type": "function"
    },
    {
      "inputs": [
        {
          "internalType": "uint256",
          "name": "_maxSpins",
          "type": "uint256"
        }
      ],
      "name": "setMaxSpins",
      "outputs": [],
      "stateMutability": "nonpayable",
      "type": "function"
    },
    {
      "inputs": [
        {
          "internalType": "uint256",
          "name": "_id",
          "type": "uint256"
        },
        {
          "internalType": "address",
          "name": "_addr",
          "type": "address"
        },
        {
          "internalType": "uint256",
          "name": "_perc",
          "type": "uint256"
        }
      ],
      "name": "setPayee",
      "outputs": [],
      "stateMutability": "nonpayable",
      "type": "function"
    },
    {
      "inputs": [
        {
          "internalType": "uint256",
          "name": "_l",
          "type": "uint256"
        }
      ],
      "name": "setPayeesLength",
      "outputs": [],
      "stateMutability": "nonpayable",
      "type": "function"
    },
    {
      "inputs": [
        {
          "internalType": "address",
          "name": "_gachaAddress",
          "type": "address"
        },
        {
          "internalType": "uint256",
          "name": "_amount",
          "type": "uint256"
        }
      ],
      "name": "spinGacha",
      "outputs": [],
      "stateMutability": "nonpayable",
      "type": "function"
    },
    {
      "inputs": [],
      "name": "spinId",
      "outputs": [
        {
          "internalType": "uint256",
          "name": "",
          "type": "uint256"
        }
      ],
      "stateMutability": "view",
      "type": "function"
    },
    {
      "inputs": [],
      "name": "symbol",
      "outputs": [
        {
          "internalType": "string",
          "name": "",
          "type": "string"
        }
      ],
      "stateMutability": "view",
      "type": "function"
    },
    {
      "inputs": [],
      "name": "totalSupply",
      "outputs": [
        {
          "internalType": "uint256",
          "name": "",
          "type": "uint256"
        }
      ],
      "stateMutability": "view",
      "type": "function"
    },
    {
      "inputs": [
        {
          "internalType": "address",
          "name": "to",
          "type": "address"
        },
        {
          "internalType": "uint256",
          "name": "amount",
          "type": "uint256"
        }
      ],
      "name": "transfer",
      "outputs": [
        {
          "internalType": "bool",
          "name": "",
          "type": "bool"
        }
      ],
      "stateMutability": "nonpayable",
      "type": "function"
    },
    {
      "inputs": [
        {
          "internalType": "address",
          "name": "from",
          "type": "address"
        },
        {
          "internalType": "address",
          "name": "to",
          "type": "address"
        },
        {
          "internalType": "uint256",
          "name": "amount",
          "type": "uint256"
        }
      ],
      "name": "transferFrom",
      "outputs": [
        {
          "internalType": "bool",
          "name": "",
          "type": "bool"
        }
      ],
      "stateMutability": "nonpayable",
      "type": "function"
    },
    {
      "inputs": [
        {
          "internalType": "address",
          "name": "newOwner",
          "type": "address"
        }
      ],
      "name": "transferOwnership",
      "outputs": [],
      "stateMutability": "nonpayable",
      "type": "function"
    }
  ],
  "bytecode": "0x608060405260046008556a295be96e64066972000000600e5560646010553480156200002a57600080fd5b5060405162001a3538038062001a358339810160408190526200004d9162000424565b604051806040016040528060078152602001665447472041524360c81b8152506040518060400160405280600381526020016241524360e81b8152508160039080519060200190620000a192919062000361565b508051620000b790600490602084019062000361565b505050620000d4620000ce6200018e60201b60201c565b62000192565b620000df83620001e4565b620000ea8262000210565b6200011233620000fd6012600a620004d1565b6200010c906225317c6200059f565b6200023c565b600d5462000141906001600160a01b0316620001316012600a620004d1565b6200010c90630211a1f06200059f565b6200016382620001546012600a620004d1565b6200010c90622625a06200059f565b6200018581620001766012600a620004d1565b6200010c90629df7746200059f565b50505062000614565b3390565b600580546001600160a01b038381166001600160a01b0319831681179093556040519116919082907f8be0079c531659141344cd1fd0a4f28419497f9722a3daafe3b4186f6b6457e090600090a35050565b620001ee62000303565b600d80546001600160a01b0319166001600160a01b0392909216919091179055565b6200021a62000303565b600b80546001600160a01b0319166001600160a01b0392909216919091179055565b6001600160a01b038216620002985760405162461bcd60e51b815260206004820152601f60248201527f45524332303a206d696e7420746f20746865207a65726f20616464726573730060448201526064015b60405180910390fd5b8060026000828254620002ac91906200046d565b90915550506001600160a01b038216600081815260208181526040808320805486019055518481527fddf252ad1be2c89b69c2b068fc378daa952ba7f163c4a11628f55a4df523b3ef910160405180910390a35050565b6005546001600160a01b031633146200035f5760405162461bcd60e51b815260206004820181905260248201527f4f776e61626c653a2063616c6c6572206973206e6f7420746865206f776e657260448201526064016200028f565b565b8280546200036f90620005c1565b90600052602060002090601f016020900481019282620003935760008555620003de565b82601f10620003ae57805160ff1916838001178555620003de565b82800160010185558215620003de579182015b82811115620003de578251825591602001919060010190620003c1565b50620003ec929150620003f0565b5090565b5b80821115620003ec5760008155600101620003f1565b80516001600160a01b03811681146200041f57600080fd5b919050565b60008060006060848603121562000439578283fd5b620004448462000407565b9250620004546020850162000407565b9150620004646040850162000407565b90509250925092565b60008219821115620004835762000483620005fe565b500190565b600181815b80851115620004c9578160001904821115620004ad57620004ad620005fe565b80851615620004bb57918102915b93841c93908002906200048d565b509250929050565b6000620004e260ff841683620004e9565b9392505050565b600082620004fa5750600162000599565b81620005095750600062000599565b81600181146200052257600281146200052d576200054d565b600191505062000599565b60ff841115620005415762000541620005fe565b50506001821b62000599565b5060208310610133831016604e8410600b841016171562000572575081810a62000599565b6200057e838362000488565b8060001904821115620005955762000595620005fe565b0290505b92915050565b6000816000190483118215151615620005bc57620005bc620005fe565b500290565b600181811c90821680620005d657607f821691505b60208210811415620005f857634e487b7160e01b600052602260045260246000fd5b50919050565b634e487b7160e01b600052601160045260246000fd5b61141180620006246000396000f3fe608060405234801561001057600080fd5b50600436106102325760003560e01c8063878792d511610130578063a9c35334116100b8578063dd62ed3e1161007c578063dd62ed3e146104fc578063df2388001461050f578063f2fde38b14610522578063f413143314610535578063f80f5dd51461054857600080fd5b8063a9c353341461049a578063b88084ec146104ad578063d0a723d2146104c0578063d5abeb01146104d3578063d73a5865146104dc57600080fd5b8063948142bb116100ff578063948142bb1461044657806395d89b41146104595780639ec5a89414610461578063a457c2d714610474578063a9059cbb1461048757600080fd5b8063878792d5146103e35780638da5cb5b146103f65780638e283cd614610407578063938f296c1461041a57600080fd5b80633fdc2590116101be578063715018a611610182578063715018a61461039957806378c8cda7146103a157806379cc6790146103b45780637afa5048146103c757806384eda544146103d057600080fd5b80633fdc25901461033657806342966c68146103495780634e8086aa1461035e57806368cdadf11461036757806370a082311461037057600080fd5b806323b872dd1161020557806323b872dd146102b5578063313ce567146102c8578063347206f7146102d757806339509351146103005780633af32abf1461031357600080fd5b806306fdde0314610237578063095ea7b31461025557806318160ddd146102785780632267716c1461028a575b600080fd5b61023f61055b565b60405161024c91906112ae565b60405180910390f35b610268610263366004611231565b6105ed565b604051901515815260200161024c565b6002545b60405190815260200161024c565b600d5461029d906001600160a01b031681565b6040516001600160a01b03909116815260200161024c565b6102686102c33660046111f6565b610605565b6040516012815260200161024c565b61029d6102e536600461125a565b6006602052600090815260409020546001600160a01b031681565b61026861030e366004611231565b610629565b610268610321366004611133565b600c6020526000908152604090205460ff1681565b60095461029d906001600160a01b031681565b61035c61035736600461125a565b61064b565b005b61027c60085481565b61027c600f5481565b61027c61037e366004611133565b6001600160a01b031660009081526020819052604090205490565b61035c610658565b61035c6103af366004611133565b61066c565b61035c6103c2366004611231565b610695565b61027c60105481565b61035c6103de366004611133565b6106ae565b61035c6103f1366004611133565b6106d8565b6005546001600160a01b031661029d565b61035c61041536600461125a565b610702565b610268610428366004611133565b6001600160a01b03166000908152600c602052604090205460ff1690565b600a5461029d906001600160a01b031681565b61023f61070f565b600b5461029d906001600160a01b031681565b610268610482366004611231565b61071e565b610268610495366004611231565b61079e565b61035c6104a8366004611133565b6107ac565b61035c6104bb36600461125a565b6107d6565b61035c6104ce36600461117f565b6107e3565b61027c600e5481565b61027c6104ea36600461125a565b60076020526000908152604090205481565b61027c61050a36600461114d565b610825565b61035c61051d36600461128a565b610850565b61035c610530366004611133565b610891565b61035c610543366004611231565b610907565b61035c610556366004611133565b610b3d565b60606003805461056a9061136f565b80601f01602080910402602001604051908101604052809291908181526020018280546105969061136f565b80156105e35780601f106105b8576101008083540402835291602001916105e3565b820191906000526020600020905b8154815290600101906020018083116105c657829003601f168201915b5050505050905090565b6000336105fb818585610b69565b5060019392505050565b600033610613858285610c8e565b61061e858585610d08565b506001949350505050565b6000336105fb81858561063c8383610825565b6106469190611301565b610b69565b6106553382610eac565b50565b610660610fd6565b61066a6000611030565b565b610674610fd6565b6001600160a01b03166000908152600c60205260409020805460ff19169055565b6106a0823383610c8e565b6106aa8282610eac565b5050565b6106b6610fd6565b600980546001600160a01b0319166001600160a01b0392909216919091179055565b6106e0610fd6565b600b80546001600160a01b0319166001600160a01b0392909216919091179055565b61070a610fd6565b601055565b60606004805461056a9061136f565b6000338161072c8286610825565b9050838110156107915760405162461bcd60e51b815260206004820152602560248201527f45524332303a2064656372656173656420616c6c6f77616e63652062656c6f77604482015264207a65726f60d81b60648201526084015b60405180910390fd5b61061e8286868403610b69565b6000336105fb818585610d08565b6107b4610fd6565b600d80546001600160a01b0319166001600160a01b0392909216919091179055565b6107de610fd6565b600855565b6107eb610fd6565b6107f760008986610850565b61080360018885610850565b61080f60028784610850565b61081b60038683610850565b5050505050505050565b6001600160a01b03918216600090815260016020908152604080832093909416825291909152205490565b610858610fd6565b600092835260066020908152604080852080546001600160a01b0319166001600160a01b03959095169490941790935560079052912055565b610899610fd6565b6001600160a01b0381166108fe5760405162461bcd60e51b815260206004820152602660248201527f4f776e61626c653a206e6577206f776e657220697320746865207a65726f206160448201526564647265737360d01b6064820152608401610788565b61065581611030565b6001600160a01b0382166000908152600c602052604090205460ff1661096f5760405162461bcd60e51b815260206004820152601e60248201527f5370656e6465723a204761636861206e6f742077686974656c697374656400006044820152606401610788565b6001811015801561098257506010548111155b6109d85760405162461bcd60e51b815260206004820152602160248201527f5370656e6465723a207370696e203120746f206d61785370696e732074696d656044820152607360f81b6064820152608401610788565b600a80546001600160a01b0319166001600160a01b03841690811790915560408051632f4f867560e21b815290516000928492909163bd3e19d491600480820192602092909190829003018186803b158015610a3357600080fd5b505afa158015610a47573d6000803e3d6000fd5b505050506040513d601f19601f82011682018060405250810190610a6b9190611272565b610a759190611339565b33600090815260208190526040902054909150811115610ad75760405162461bcd60e51b815260206004820152601c60248201527f5370656e6465723a2075736572206e6f7420656e6f75676820415243000000006044820152606401610788565b610ae081611082565b600f8054906000610af0836113aa565b9091555050600f546040518381526001600160a01b0385169033907f167484914784d5fd3462b1527c5f53628c0507f9bab137dfd020c438da03fdb19060200160405180910390a4505050565b610b45610fd6565b6001600160a01b03166000908152600c60205260409020805460ff19166001179055565b6001600160a01b038316610bcb5760405162461bcd60e51b8152602060048201526024808201527f45524332303a20617070726f76652066726f6d20746865207a65726f206164646044820152637265737360e01b6064820152608401610788565b6001600160a01b038216610c2c5760405162461bcd60e51b815260206004820152602260248201527f45524332303a20617070726f766520746f20746865207a65726f206164647265604482015261737360f01b6064820152608401610788565b6001600160a01b0383811660008181526001602090815260408083209487168084529482529182902085905590518481527f8c5be1e5ebec7d5bd14f71427d1e84f3dd0314c0f7b2291e5b200ac8c7c3b92591015b60405180910390a3505050565b6000610c9a8484610825565b90506000198114610d025781811015610cf55760405162461bcd60e51b815260206004820152601d60248201527f45524332303a20696e73756666696369656e7420616c6c6f77616e63650000006044820152606401610788565b610d028484848403610b69565b50505050565b6001600160a01b038316610d6c5760405162461bcd60e51b815260206004820152602560248201527f45524332303a207472616e736665722066726f6d20746865207a65726f206164604482015264647265737360d81b6064820152608401610788565b6001600160a01b038216610dce5760405162461bcd60e51b815260206004820152602360248201527f45524332303a207472616e7366657220746f20746865207a65726f206164647260448201526265737360e81b6064820152608401610788565b6001600160a01b03831660009081526020819052604090205481811015610e465760405162461bcd60e51b815260206004820152602660248201527f45524332303a207472616e7366657220616d6f756e7420657863656564732062604482015265616c616e636560d01b6064820152608401610788565b6001600160a01b03848116600081815260208181526040808320878703905593871680835291849020805487019055925185815290927fddf252ad1be2c89b69c2b068fc378daa952ba7f163c4a11628f55a4df523b3ef910160405180910390a3610d02565b6001600160a01b038216610f0c5760405162461bcd60e51b815260206004820152602160248201527f45524332303a206275726e2066726f6d20746865207a65726f206164647265736044820152607360f81b6064820152608401610788565b6001600160a01b03821660009081526020819052604090205481811015610f805760405162461bcd60e51b815260206004820152602260248201527f45524332303a206275726e20616d6f756e7420657863656564732062616c616e604482015261636560f01b6064820152608401610788565b6001600160a01b0383166000818152602081815260408083208686039055600280548790039055518581529192917fddf252ad1be2c89b69c2b068fc378daa952ba7f163c4a11628f55a4df523b3ef9101610c81565b6005546001600160a01b0316331461066a5760405162461bcd60e51b815260206004820181905260248201527f4f776e61626c653a2063616c6c6572206973206e6f7420746865206f776e65726044820152606401610788565b600580546001600160a01b038381166001600160a01b0319831681179093556040519116919082907f8be0079c531659141344cd1fd0a4f28419497f9722a3daafe3b4186f6b6457e090600090a35050565b8060005b6008548110156110e057600061109c84836110ea565b6000838152600660205260409020549091506110c1906001600160a01b03168261079e565b506110cc8184611358565b925050806110d9906113aa565b9050611086565b506106aa8161064b565b6000818152600760205260408120546064906111069085611339565b6111109190611319565b9392505050565b80356001600160a01b038116811461112e57600080fd5b919050565b600060208284031215611144578081fd5b61111082611117565b6000806040838503121561115f578081fd5b61116883611117565b915061117660208401611117565b90509250929050565b600080600080600080600080610100898b03121561119b578384fd5b6111a489611117565b97506111b260208a01611117565b96506111c060408a01611117565b95506111ce60608a01611117565b979a969950949760808101359660a0820135965060c0820135955060e0909101359350915050565b60008060006060848603121561120a578283fd5b61121384611117565b925061122160208501611117565b9150604084013590509250925092565b60008060408385031215611243578182fd5b61124c83611117565b946020939093013593505050565b60006020828403121561126b578081fd5b5035919050565b600060208284031215611283578081fd5b5051919050565b60008060006060848603121561129e578283fd5b8335925061122160208501611117565b6000602080835283518082850152825b818110156112da578581018301518582016040015282016112be565b818111156112eb5783604083870101525b50601f01601f1916929092016040019392505050565b60008219821115611314576113146113c5565b500190565b60008261133457634e487b7160e01b81526012600452602481fd5b500490565b6000816000190483118215151615611353576113536113c5565b500290565b60008282101561136a5761136a6113c5565b500390565b600181811c9082168061138357607f821691505b602082108114156113a457634e487b7160e01b600052602260045260246000fd5b50919050565b60006000198214156113be576113be6113c5565b5060010190565b634e487b7160e01b600052601160045260246000fdfea26469706673582212200c1b96ea6ff69ba7b4382a50d532f84cc70b9c5bf10fb777f0682207540f030464736f6c63430008040033",
  "linkReferences": {},
  "deployedLinkReferences": {}
}