{
  "_format": "hh-sol-artifact-1",
  "contractName": "Arc",
  "sourceName": "contracts/ARC/Arc.sol",
  "abi": [
    {
      "inputs": [
        {
          "internalType": "address",
          "name": "_emissions",
          "type": "address"
        },
        {
          "internalType": "address",
          "name": "_rewards",
          "type": "address"
        },
        {
          "internalType": "address",
          "name": "_vesting",
          "type": "address"
        }
      ],
      "stateMutability": "nonpayable",
      "type": "constructor"
    },
    {
      "anonymous": false,
      "inputs": [
        {
          "indexed": true,
          "internalType": "address",
          "name": "owner",
          "type": "address"
        },
        {
          "indexed": true,
          "internalType": "address",
          "name": "spender",
          "type": "address"
        },
        {
          "indexed": false,
          "internalType": "uint256",
          "name": "value",
          "type": "uint256"
        }
      ],
      "name": "Approval",
      "type": "event"
    },
    {
      "anonymous": false,
      "inputs": [
        {
          "indexed": true,
          "internalType": "address",
          "name": "user",
          "type": "address"
        },
        {
          "indexed": true,
          "internalType": "address",
          "name": "gachaAddress",
          "type": "address"
        },
        {
          "indexed": true,
          "internalType": "uint256",
          "name": "spinId",
          "type": "uint256"
        },
        {
          "indexed": false,
          "internalType": "uint256",
          "name": "amount",
          "type": "uint256"
        }
      ],
      "name": "GachaSpun",
      "type": "event"
    },
    {
      "anonymous": false,
      "inputs": [
        {
          "indexed": true,
          "internalType": "address",
          "name": "previousOwner",
          "type": "address"
        },
        {
          "indexed": true,
          "internalType": "address",
          "name": "newOwner",
          "type": "address"
        }
      ],
      "name": "OwnershipTransferred",
      "type": "event"
    },
    {
      "anonymous": false,
      "inputs": [
        {
          "indexed": true,
          "internalType": "address",
          "name": "from",
          "type": "address"
        },
        {
          "indexed": true,
          "internalType": "address",
          "name": "to",
          "type": "address"
        },
        {
          "indexed": false,
          "internalType": "uint256",
          "name": "value",
          "type": "uint256"
        }
      ],
      "name": "Transfer",
      "type": "event"
    },
    {
      "inputs": [
        {
          "internalType": "address",
          "name": "_a",
          "type": "address"
        }
      ],
      "name": "addWhitelist",
      "outputs": [],
      "stateMutability": "nonpayable",
      "type": "function"
    },
    {
      "inputs": [
        {
          "internalType": "address",
          "name": "owner",
          "type": "address"
        },
        {
          "internalType": "address",
          "name": "spender",
          "type": "address"
        }
      ],
      "name": "allowance",
      "outputs": [
        {
          "internalType": "uint256",
          "name": "",
          "type": "uint256"
        }
      ],
      "stateMutability": "view",
      "type": "function"
    },
    {
      "inputs": [
        {
          "internalType": "address",
          "name": "spender",
          "type": "address"
        },
        {
          "internalType": "uint256",
          "name": "amount",
          "type": "uint256"
        }
      ],
      "name": "approve",
      "outputs": [
        {
          "internalType": "bool",
          "name": "",
          "type": "bool"
        }
      ],
      "stateMutability": "nonpayable",
      "type": "function"
    },
    {
      "inputs": [
        {
          "internalType": "address",
          "name": "account",
          "type": "address"
        }
      ],
      "name": "balanceOf",
      "outputs": [
        {
          "internalType": "uint256",
          "name": "",
          "type": "uint256"
        }
      ],
      "stateMutability": "view",
      "type": "function"
    },
    {
      "inputs": [
        {
          "internalType": "uint256",
          "name": "amount",
          "type": "uint256"
        }
      ],
      "name": "burn",
      "outputs": [],
      "stateMutability": "nonpayable",
      "type": "function"
    },
    {
      "inputs": [
        {
          "internalType": "address",
          "name": "account",
          "type": "address"
        },
        {
          "internalType": "uint256",
          "name": "amount",
          "type": "uint256"
        }
      ],
      "name": "burnFrom",
      "outputs": [],
      "stateMutability": "nonpayable",
      "type": "function"
    },
    {
      "inputs": [],
      "name": "decimals",
      "outputs": [
        {
          "internalType": "uint8",
          "name": "",
          "type": "uint8"
        }
      ],
      "stateMutability": "view",
      "type": "function"
    },
    {
      "inputs": [
        {
          "internalType": "address",
          "name": "spender",
          "type": "address"
        },
        {
          "internalType": "uint256",
          "name": "subtractedValue",
          "type": "uint256"
        }
      ],
      "name": "decreaseAllowance",
      "outputs": [
        {
          "internalType": "bool",
          "name": "",
          "type": "bool"
        }
      ],
      "stateMutability": "nonpayable",
      "type": "function"
    },
    {
      "inputs": [],
      "name": "emissions",
      "outputs": [
        {
          "internalType": "address",
          "name": "",
          "type": "address"
        }
      ],
      "stateMutability": "view",
      "type": "function"
    },
    {
      "inputs": [],
      "name": "gacha",
      "outputs": [
        {
          "internalType": "contract IGacha",
          "name": "",
          "type": "address"
        }
      ],
      "stateMutability": "view",
      "type": "function"
    },
    {
      "inputs": [
        {
          "internalType": "address",
          "name": "_a",
          "type": "address"
        }
      ],
      "name": "getIsWhitelisted",
      "outputs": [
        {
          "internalType": "bool",
          "name": "",
          "type": "bool"
        }
      ],
      "stateMutability": "view",
      "type": "function"
    },
    {
      "inputs": [],
      "name": "girls",
      "outputs": [
        {
          "internalType": "contract IERC721",
          "name": "",
          "type": "address"
        }
      ],
      "stateMutability": "view",
      "type": "function"
    },
    {
      "inputs": [
        {
          "internalType": "address",
          "name": "spender",
          "type": "address"
        },
        {
          "internalType": "uint256",
          "name": "addedValue",
          "type": "uint256"
        }
      ],
      "name": "increaseAllowance",
      "outputs": [
        {
          "internalType": "bool",
          "name": "",
          "type": "bool"
        }
      ],
      "stateMutability": "nonpayable",
      "type": "function"
    },
    {
      "inputs": [
        {
          "internalType": "address",
          "name": "",
          "type": "address"
        }
      ],
      "name": "isWhitelisted",
      "outputs": [
        {
          "internalType": "bool",
          "name": "",
          "type": "bool"
        }
      ],
      "stateMutability": "view",
      "type": "function"
    },
    {
      "inputs": [],
      "name": "maxSupply",
      "outputs": [
        {
          "internalType": "uint256",
          "name": "",
          "type": "uint256"
        }
      ],
      "stateMutability": "view",
      "type": "function"
    },
    {
      "inputs": [
        {
          "internalType": "address",
          "name": "_to",
          "type": "address"
        },
        {
          "internalType": "uint256",
          "name": "amount",
          "type": "uint256"
        }
      ],
      "name": "mintDev",
      "outputs": [],
      "stateMutability": "nonpayable",
      "type": "function"
    },
    {
      "inputs": [],
      "name": "name",
      "outputs": [
        {
          "internalType": "string",
          "name": "",
          "type": "string"
        }
      ],
      "stateMutability": "view",
      "type": "function"
    },
    {
      "inputs": [],
      "name": "owner",
      "outputs": [
        {
          "internalType": "address",
          "name": "",
          "type": "address"
        }
      ],
      "stateMutability": "view",
      "type": "function"
    },
    {
      "inputs": [
        {
          "internalType": "uint256",
          "name": "",
          "type": "uint256"
        }
      ],
      "name": "payeeAddress",
      "outputs": [
        {
          "internalType": "address",
          "name": "",
          "type": "address"
        }
      ],
      "stateMutability": "view",
      "type": "function"
    },
    {
      "inputs": [
        {
          "internalType": "uint256",
          "name": "",
          "type": "uint256"
        }
      ],
      "name": "payeePerc",
      "outputs": [
        {
          "internalType": "uint256",
          "name": "",
          "type": "uint256"
        }
      ],
      "stateMutability": "view",
      "type": "function"
    },
    {
      "inputs": [],
      "name": "payees",
      "outputs": [
        {
          "internalType": "uint256",
          "name": "",
          "type": "uint256"
        }
      ],
      "stateMutability": "view",
      "type": "function"
    },
    {
      "inputs": [
        {
          "internalType": "address",
          "name": "_a",
          "type": "address"
        }
      ],
      "name": "removeWhitelist",
      "outputs": [],
      "stateMutability": "nonpayable",
      "type": "function"
    },
    {
      "inputs": [],
      "name": "renounceOwnership",
      "outputs": [],
      "stateMutability": "nonpayable",
      "type": "function"
    },
    {
      "inputs": [],
      "name": "rewards",
      "outputs": [
        {
          "internalType": "contract IRewards",
          "name": "",
          "type": "address"
        }
      ],
      "stateMutability": "view",
      "type": "function"
    },
    {
      "inputs": [
        {
          "internalType": "address",
          "name": "_rewards",
          "type": "address"
        }
      ],
      "name": "setBankRewardsContract",
      "outputs": [],
      "stateMutability": "nonpayable",
      "type": "function"
    },
    {
      "inputs": [
        {
          "internalType": "address",
          "name": "_emissions",
          "type": "address"
        }
      ],
      "name": "setEmissionsContract",
      "outputs": [],
      "stateMutability": "nonpayable",
      "type": "function"
    },
    {
      "inputs": [
        {
          "internalType": "address",
          "name": "_girlContractAddress",
          "type": "address"
        }
      ],
      "name": "setGirlContract",
      "outputs": [],
      "stateMutability": "nonpayable",
      "type": "function"
    },
    {
      "inputs": [
        {
          "internalType": "address",
          "name": "_a",
          "type": "address"
        },
        {
          "internalType": "address",
          "name": "_b",
          "type": "address"
        },
        {
          "internalType": "address",
          "name": "_c",
          "type": "address"
        },
        {
          "internalType": "address",
          "name": "_d",
          "type": "address"
        },
        {
          "internalType": "uint256",
          "name": "_aPerc",
          "type": "uint256"
        },
        {
          "internalType": "uint256",
          "name": "_bPerc",
          "type": "uint256"
        },
        {
          "internalType": "uint256",
          "name": "_cPerc",
          "type": "uint256"
        },
        {
          "internalType": "uint256",
          "name": "_dPerc",
          "type": "uint256"
        }
      ],
      "name": "setInitialPayees",
      "outputs": [],
      "stateMutability": "nonpayable",
      "type": "function"
    },
    {
      "inputs": [
        {
          "internalType": "uint256",
          "name": "_id",
          "type": "uint256"
        },
        {
          "internalType": "address",
          "name": "_addr",
          "type": "address"
        },
        {
          "internalType": "uint256",
          "name": "_perc",
          "type": "uint256"
        }
      ],
      "name": "setPayee",
      "outputs": [],
      "stateMutability": "nonpayable",
      "type": "function"
    },
    {
      "inputs": [
        {
          "internalType": "uint256",
          "name": "_l",
          "type": "uint256"
        }
      ],
      "name": "setPayeesLength",
      "outputs": [],
      "stateMutability": "nonpayable",
      "type": "function"
    },
    {
      "inputs": [
        {
          "internalType": "address",
          "name": "_gachaAddress",
          "type": "address"
        },
        {
          "internalType": "uint256",
          "name": "_amount",
          "type": "uint256"
        }
      ],
      "name": "spinGacha",
      "outputs": [],
      "stateMutability": "nonpayable",
      "type": "function"
    },
    {
      "inputs": [],
      "name": "spinId",
      "outputs": [
        {
          "internalType": "uint256",
          "name": "",
          "type": "uint256"
        }
      ],
      "stateMutability": "view",
      "type": "function"
    },
    {
      "inputs": [],
      "name": "symbol",
      "outputs": [
        {
          "internalType": "string",
          "name": "",
          "type": "string"
        }
      ],
      "stateMutability": "view",
      "type": "function"
    },
    {
      "inputs": [],
      "name": "totalSupply",
      "outputs": [
        {
          "internalType": "uint256",
          "name": "",
          "type": "uint256"
        }
      ],
      "stateMutability": "view",
      "type": "function"
    },
    {
      "inputs": [
        {
          "internalType": "address",
          "name": "to",
          "type": "address"
        },
        {
          "internalType": "uint256",
          "name": "amount",
          "type": "uint256"
        }
      ],
      "name": "transfer",
      "outputs": [
        {
          "internalType": "bool",
          "name": "",
          "type": "bool"
        }
      ],
      "stateMutability": "nonpayable",
      "type": "function"
    },
    {
      "inputs": [
        {
          "internalType": "address",
          "name": "from",
          "type": "address"
        },
        {
          "internalType": "address",
          "name": "to",
          "type": "address"
        },
        {
          "internalType": "uint256",
          "name": "amount",
          "type": "uint256"
        }
      ],
      "name": "transferFrom",
      "outputs": [
        {
          "internalType": "bool",
          "name": "",
          "type": "bool"
        }
      ],
      "stateMutability": "nonpayable",
      "type": "function"
    },
    {
      "inputs": [
        {
          "internalType": "address",
          "name": "newOwner",
          "type": "address"
        }
      ],
      "name": "transferOwnership",
      "outputs": [],
      "stateMutability": "nonpayable",
      "type": "function"
    }
  ],
  "bytecode": "0x608060405260046009556a295be96e64066972000000600f553480156200002557600080fd5b5060405162001be038038062001be083398101604081905262000048916200041c565b604080518082018252600c81526b1511d1cb505c98cb55195cdd60a21b6020808301918252835180850190945260078452661511d1cb584b5d60ca1b9084015281519192916200009b9160039162000359565b508051620000b190600490602084019062000359565b5050600160055550620000c4336200018a565b620000cf83620001dc565b620000da8262000208565b6200010233620000ed6012600a620004c9565b620000fc906225317c62000597565b62000234565b600e5462000131906001600160a01b0316620001216012600a620004c9565b620000fc90630211a1f062000597565b600c546200015f906001600160a01b0316620001506012600a620004c9565b620000fc90622625a062000597565b6200018181620001726012600a620004c9565b620000fc90629df77462000597565b5050506200060c565b600680546001600160a01b038381166001600160a01b0319831681179093556040519116919082907f8be0079c531659141344cd1fd0a4f28419497f9722a3daafe3b4186f6b6457e090600090a35050565b620001e6620002fb565b600e80546001600160a01b0319166001600160a01b0392909216919091179055565b62000212620002fb565b600c80546001600160a01b0319166001600160a01b0392909216919091179055565b6001600160a01b038216620002905760405162461bcd60e51b815260206004820152601f60248201527f45524332303a206d696e7420746f20746865207a65726f20616464726573730060448201526064015b60405180910390fd5b8060026000828254620002a4919062000465565b90915550506001600160a01b038216600081815260208181526040808320805486019055518481527fddf252ad1be2c89b69c2b068fc378daa952ba7f163c4a11628f55a4df523b3ef910160405180910390a35050565b6006546001600160a01b03163314620003575760405162461bcd60e51b815260206004820181905260248201527f4f776e61626c653a2063616c6c6572206973206e6f7420746865206f776e6572604482015260640162000287565b565b8280546200036790620005b9565b90600052602060002090601f0160209004810192826200038b5760008555620003d6565b82601f10620003a657805160ff1916838001178555620003d6565b82800160010185558215620003d6579182015b82811115620003d6578251825591602001919060010190620003b9565b50620003e4929150620003e8565b5090565b5b80821115620003e45760008155600101620003e9565b80516001600160a01b03811681146200041757600080fd5b919050565b60008060006060848603121562000431578283fd5b6200043c84620003ff565b92506200044c60208501620003ff565b91506200045c60408501620003ff565b90509250925092565b600082198211156200047b576200047b620005f6565b500190565b600181815b80851115620004c1578160001904821115620004a557620004a5620005f6565b80851615620004b357918102915b93841c939080029062000485565b509250929050565b6000620004da60ff841683620004e1565b9392505050565b600082620004f25750600162000591565b81620005015750600062000591565b81600181146200051a5760028114620005255762000545565b600191505062000591565b60ff841115620005395762000539620005f6565b50506001821b62000591565b5060208310610133831016604e8410600b84101617156200056a575081810a62000591565b62000576838362000480565b80600019048211156200058d576200058d620005f6565b0290505b92915050565b6000816000190483118215151615620005b457620005b4620005f6565b500290565b600181811c90821680620005ce57607f821691505b60208210811415620005f057634e487b7160e01b600052602260045260246000fd5b50919050565b634e487b7160e01b600052601160045260246000fd5b6115c4806200061c6000396000f3fe608060405234801561001057600080fd5b50600436106102275760003560e01c806384eda54411610130578063a9c35334116100b8578063dd62ed3e1161007c578063dd62ed3e146104e8578063df238800146104fb578063f2fde38b1461050e578063f413143314610521578063f80f5dd51461053457600080fd5b8063a9c3533414610486578063b88084ec14610499578063d0a723d2146104ac578063d5abeb01146104bf578063d73a5865146104c857600080fd5b8063948142bb116100ff578063948142bb1461043257806395d89b41146104455780639ec5a8941461044d578063a457c2d714610460578063a9059cbb1461047357600080fd5b806384eda544146103cf578063878792d5146103e25780638da5cb5b146103f5578063938f296c1461040657600080fd5b80633af32abf116101b357806368cdadf11161018257806368cdadf11461036f57806370a0823114610378578063715018a6146103a157806378c8cda7146103a957806379cc6790146103bc57600080fd5b80633af32abf1461031d5780633fdc25901461034057806342966c68146103535780634e8086aa1461036657600080fd5b806323b872dd116101fa57806323b872dd146102aa578063313ce567146102bd578063324c6adc146102cc578063347206f7146102e1578063395093511461030a57600080fd5b806306fdde031461022c578063095ea7b31461024a57806318160ddd1461026d5780632267716c1461027f575b600080fd5b610234610547565b6040516102419190611461565b60405180910390f35b61025d6102583660046113c4565b6105d9565b6040519015158152602001610241565b6002545b604051908152602001610241565b600e54610292906001600160a01b031681565b6040516001600160a01b039091168152602001610241565b61025d6102b8366004611389565b6105f1565b60405160128152602001610241565b6102df6102da3660046113c4565b610615565b005b6102926102ef36600461140d565b6007602052600090815260409020546001600160a01b031681565b61025d6103183660046113c4565b61062b565b61025d61032b3660046112c6565b600d6020526000908152604090205460ff1681565b600a54610292906001600160a01b031681565b6102df61036136600461140d565b61064d565b61027160095481565b61027160105481565b6102716103863660046112c6565b6001600160a01b031660009081526020819052604090205490565b6102df61065a565b6102df6103b73660046112c6565b61066e565b6102df6103ca3660046113c4565b610697565b6102df6103dd3660046112c6565b6106ac565b6102df6103f03660046112c6565b6106d6565b6006546001600160a01b0316610292565b61025d6104143660046112c6565b6001600160a01b03166000908152600d602052604090205460ff1690565b600b54610292906001600160a01b031681565b610234610700565b600c54610292906001600160a01b031681565b61025d61046e3660046113c4565b61070f565b61025d6104813660046113c4565b61078f565b6102df6104943660046112c6565b61079d565b6102df6104a736600461140d565b6107c7565b6102df6104ba366004611312565b6107d4565b610271600f5481565b6102716104d636600461140d565b60086020526000908152604090205481565b6102716104f63660046112e0565b610816565b6102df61050936600461143d565b610841565b6102df61051c3660046112c6565b610882565b6102df61052f3660046113c4565b6108f8565b6102df6105423660046112c6565b610bb7565b60606003805461055690611522565b80601f016020809104026020016040519081016040528092919081815260200182805461058290611522565b80156105cf5780601f106105a4576101008083540402835291602001916105cf565b820191906000526020600020905b8154815290600101906020018083116105b257829003601f168201915b5050505050905090565b6000336105e7818585610be3565b5060019392505050565b6000336105ff858285610d08565b61060a858585610d82565b506001949350505050565b61061d610f26565b6106278282610f80565b5050565b6000336105e781858561063e8383610816565b61064891906114b4565b610be3565b610657338261103f565b50565b610662610f26565b61066c6000611169565b565b610676610f26565b6001600160a01b03166000908152600d60205260409020805460ff19169055565b6106a2823383610d08565b610627828261103f565b6106b4610f26565b600a80546001600160a01b0319166001600160a01b0392909216919091179055565b6106de610f26565b600c80546001600160a01b0319166001600160a01b0392909216919091179055565b60606004805461055690611522565b6000338161071d8286610816565b9050838110156107825760405162461bcd60e51b815260206004820152602560248201527f45524332303a2064656372656173656420616c6c6f77616e63652062656c6f77604482015264207a65726f60d81b60648201526084015b60405180910390fd5b61060a8286868403610be3565b6000336105e7818585610d82565b6107a5610f26565b600e80546001600160a01b0319166001600160a01b0392909216919091179055565b6107cf610f26565b600955565b6107dc610f26565b6107e860008986610841565b6107f460018885610841565b61080060028784610841565b61080c60038683610841565b5050505050505050565b6001600160a01b03918216600090815260016020908152604080832093909416825291909152205490565b610849610f26565b600092835260076020908152604080852080546001600160a01b0319166001600160a01b03959095169490941790935560089052912055565b61088a610f26565b6001600160a01b0381166108ef5760405162461bcd60e51b815260206004820152602660248201527f4f776e61626c653a206e6577206f776e657220697320746865207a65726f206160448201526564647265737360d01b6064820152608401610779565b61065781611169565b6109006111bb565b6001600160a01b0382166000908152600d602052604090205460ff166109685760405162461bcd60e51b815260206004820152601e60248201527f5370656e6465723a204761636861206e6f742077686974656c697374656400006044820152606401610779565b8060011480610977575080600a145b6109c35760405162461bcd60e51b815260206004820181905260248201527f5370656e6465723a207370696e2031206f722031302074696d6573206f6e6c796044820152606401610779565b600b80546001600160a01b0319166001600160a01b03841690811790915560408051632f4f867560e21b815290516000928492909163bd3e19d491600480820192602092909190829003018186803b158015610a1e57600080fd5b505afa158015610a32573d6000803e3d6000fd5b505050506040513d601f19601f82011682018060405250810190610a569190611425565b610a6091906114ec565b33600090815260208190526040902054909150811115610ac25760405162461bcd60e51b815260206004820152601c60248201527f5370656e6465723a2075736572206e6f7420656e6f75676820415243000000006044820152606401610779565b610acb81611215565b60108054906000610adb8361155d565b9190505550600c60009054906101000a90046001600160a01b03166001600160a01b03166355f72b7b6040518163ffffffff1660e01b8152600401602060405180830381600087803b158015610b3057600080fd5b505af1158015610b44573d6000803e3d6000fd5b505050506040513d601f19601f82011682018060405250810190610b6891906113ed565b506010546040518381526001600160a01b0385169033907f167484914784d5fd3462b1527c5f53628c0507f9bab137dfd020c438da03fdb19060200160405180910390a4506106276001600555565b610bbf610f26565b6001600160a01b03166000908152600d60205260409020805460ff19166001179055565b6001600160a01b038316610c455760405162461bcd60e51b8152602060048201526024808201527f45524332303a20617070726f76652066726f6d20746865207a65726f206164646044820152637265737360e01b6064820152608401610779565b6001600160a01b038216610ca65760405162461bcd60e51b815260206004820152602260248201527f45524332303a20617070726f766520746f20746865207a65726f206164647265604482015261737360f01b6064820152608401610779565b6001600160a01b0383811660008181526001602090815260408083209487168084529482529182902085905590518481527f8c5be1e5ebec7d5bd14f71427d1e84f3dd0314c0f7b2291e5b200ac8c7c3b92591015b60405180910390a3505050565b6000610d148484610816565b90506000198114610d7c5781811015610d6f5760405162461bcd60e51b815260206004820152601d60248201527f45524332303a20696e73756666696369656e7420616c6c6f77616e63650000006044820152606401610779565b610d7c8484848403610be3565b50505050565b6001600160a01b038316610de65760405162461bcd60e51b815260206004820152602560248201527f45524332303a207472616e736665722066726f6d20746865207a65726f206164604482015264647265737360d81b6064820152608401610779565b6001600160a01b038216610e485760405162461bcd60e51b815260206004820152602360248201527f45524332303a207472616e7366657220746f20746865207a65726f206164647260448201526265737360e81b6064820152608401610779565b6001600160a01b03831660009081526020819052604090205481811015610ec05760405162461bcd60e51b815260206004820152602660248201527f45524332303a207472616e7366657220616d6f756e7420657863656564732062604482015265616c616e636560d01b6064820152608401610779565b6001600160a01b03848116600081815260208181526040808320878703905593871680835291849020805487019055925185815290927fddf252ad1be2c89b69c2b068fc378daa952ba7f163c4a11628f55a4df523b3ef910160405180910390a3610d7c565b6006546001600160a01b0316331461066c5760405162461bcd60e51b815260206004820181905260248201527f4f776e61626c653a2063616c6c6572206973206e6f7420746865206f776e65726044820152606401610779565b6001600160a01b038216610fd65760405162461bcd60e51b815260206004820152601f60248201527f45524332303a206d696e7420746f20746865207a65726f2061646472657373006044820152606401610779565b8060026000828254610fe891906114b4565b90915550506001600160a01b038216600081815260208181526040808320805486019055518481527fddf252ad1be2c89b69c2b068fc378daa952ba7f163c4a11628f55a4df523b3ef910160405180910390a35050565b6001600160a01b03821661109f5760405162461bcd60e51b815260206004820152602160248201527f45524332303a206275726e2066726f6d20746865207a65726f206164647265736044820152607360f81b6064820152608401610779565b6001600160a01b038216600090815260208190526040902054818110156111135760405162461bcd60e51b815260206004820152602260248201527f45524332303a206275726e20616d6f756e7420657863656564732062616c616e604482015261636560f01b6064820152608401610779565b6001600160a01b0383166000818152602081815260408083208686039055600280548790039055518581529192917fddf252ad1be2c89b69c2b068fc378daa952ba7f163c4a11628f55a4df523b3ef9101610cfb565b600680546001600160a01b038381166001600160a01b0319831681179093556040519116919082907f8be0079c531659141344cd1fd0a4f28419497f9722a3daafe3b4186f6b6457e090600090a35050565b6002600554141561120e5760405162461bcd60e51b815260206004820152601f60248201527f5265656e7472616e637947756172643a207265656e7472616e742063616c6c006044820152606401610779565b6002600555565b8060005b60095481101561127357600061122f848361127d565b600083815260076020526040902054909150611254906001600160a01b03168261078f565b5061125f818461150b565b9250508061126c9061155d565b9050611219565b506106278161064d565b60008181526008602052604081205460649061129990856114ec565b6112a391906114cc565b9392505050565b80356001600160a01b03811681146112c157600080fd5b919050565b6000602082840312156112d7578081fd5b6112a3826112aa565b600080604083850312156112f2578081fd5b6112fb836112aa565b9150611309602084016112aa565b90509250929050565b600080600080600080600080610100898b03121561132e578384fd5b611337896112aa565b975061134560208a016112aa565b965061135360408a016112aa565b955061136160608a016112aa565b979a969950949760808101359660a0820135965060c0820135955060e0909101359350915050565b60008060006060848603121561139d578283fd5b6113a6846112aa565b92506113b4602085016112aa565b9150604084013590509250925092565b600080604083850312156113d6578182fd5b6113df836112aa565b946020939093013593505050565b6000602082840312156113fe578081fd5b815180151581146112a3578182fd5b60006020828403121561141e578081fd5b5035919050565b600060208284031215611436578081fd5b5051919050565b600080600060608486031215611451578283fd5b833592506113b4602085016112aa565b6000602080835283518082850152825b8181101561148d57858101830151858201604001528201611471565b8181111561149e5783604083870101525b50601f01601f1916929092016040019392505050565b600082198211156114c7576114c7611578565b500190565b6000826114e757634e487b7160e01b81526012600452602481fd5b500490565b600081600019048311821515161561150657611506611578565b500290565b60008282101561151d5761151d611578565b500390565b600181811c9082168061153657607f821691505b6020821081141561155757634e487b7160e01b600052602260045260246000fd5b50919050565b600060001982141561157157611571611578565b5060010190565b634e487b7160e01b600052601160045260246000fdfea264697066735822122035ff33829787cf35974dfdf8495e5bd7eb239cdfc3af212d8e5848bd6a45166964736f6c63430008040033",
  "linkReferences": {},
  "deployedLinkReferences": {}
}