{
  "_format": "hh-sol-artifact-1",
  "contractName": "Arc",
  "sourceName": "contracts/ARC/Arc.sol",
  "abi": [
    {
      "inputs": [
        {
          "internalType": "address",
          "name": "_emissions",
          "type": "address"
        },
        {
          "internalType": "address",
          "name": "_rewards",
          "type": "address"
        },
        {
          "internalType": "address",
          "name": "_vesting",
          "type": "address"
        }
      ],
      "stateMutability": "nonpayable",
      "type": "constructor"
    },
    {
      "anonymous": false,
      "inputs": [
        {
          "indexed": true,
          "internalType": "address",
          "name": "owner",
          "type": "address"
        },
        {
          "indexed": true,
          "internalType": "address",
          "name": "spender",
          "type": "address"
        },
        {
          "indexed": false,
          "internalType": "uint256",
          "name": "value",
          "type": "uint256"
        }
      ],
      "name": "Approval",
      "type": "event"
    },
    {
      "anonymous": false,
      "inputs": [
        {
          "indexed": true,
          "internalType": "address",
          "name": "user",
          "type": "address"
        },
        {
          "indexed": true,
          "internalType": "address",
          "name": "gachaAddress",
          "type": "address"
        },
        {
          "indexed": true,
          "internalType": "uint256",
          "name": "spinId",
          "type": "uint256"
        },
        {
          "indexed": false,
          "internalType": "uint256",
          "name": "amount",
          "type": "uint256"
        }
      ],
      "name": "GachaSpun",
      "type": "event"
    },
    {
      "anonymous": false,
      "inputs": [
        {
          "indexed": true,
          "internalType": "address",
          "name": "previousOwner",
          "type": "address"
        },
        {
          "indexed": true,
          "internalType": "address",
          "name": "newOwner",
          "type": "address"
        }
      ],
      "name": "OwnershipTransferred",
      "type": "event"
    },
    {
      "anonymous": false,
      "inputs": [
        {
          "indexed": true,
          "internalType": "address",
          "name": "from",
          "type": "address"
        },
        {
          "indexed": true,
          "internalType": "address",
          "name": "to",
          "type": "address"
        },
        {
          "indexed": false,
          "internalType": "uint256",
          "name": "value",
          "type": "uint256"
        }
      ],
      "name": "Transfer",
      "type": "event"
    },
    {
      "inputs": [
        {
          "internalType": "address",
          "name": "_a",
          "type": "address"
        }
      ],
      "name": "addWhitelist",
      "outputs": [],
      "stateMutability": "nonpayable",
      "type": "function"
    },
    {
      "inputs": [
        {
          "internalType": "address",
          "name": "owner",
          "type": "address"
        },
        {
          "internalType": "address",
          "name": "spender",
          "type": "address"
        }
      ],
      "name": "allowance",
      "outputs": [
        {
          "internalType": "uint256",
          "name": "",
          "type": "uint256"
        }
      ],
      "stateMutability": "view",
      "type": "function"
    },
    {
      "inputs": [
        {
          "internalType": "address",
          "name": "spender",
          "type": "address"
        },
        {
          "internalType": "uint256",
          "name": "amount",
          "type": "uint256"
        }
      ],
      "name": "approve",
      "outputs": [
        {
          "internalType": "bool",
          "name": "",
          "type": "bool"
        }
      ],
      "stateMutability": "nonpayable",
      "type": "function"
    },
    {
      "inputs": [
        {
          "internalType": "address",
          "name": "account",
          "type": "address"
        }
      ],
      "name": "balanceOf",
      "outputs": [
        {
          "internalType": "uint256",
          "name": "",
          "type": "uint256"
        }
      ],
      "stateMutability": "view",
      "type": "function"
    },
    {
      "inputs": [
        {
          "internalType": "uint256",
          "name": "amount",
          "type": "uint256"
        }
      ],
      "name": "burn",
      "outputs": [],
      "stateMutability": "nonpayable",
      "type": "function"
    },
    {
      "inputs": [
        {
          "internalType": "address",
          "name": "account",
          "type": "address"
        },
        {
          "internalType": "uint256",
          "name": "amount",
          "type": "uint256"
        }
      ],
      "name": "burnFrom",
      "outputs": [],
      "stateMutability": "nonpayable",
      "type": "function"
    },
    {
      "inputs": [],
      "name": "decimals",
      "outputs": [
        {
          "internalType": "uint8",
          "name": "",
          "type": "uint8"
        }
      ],
      "stateMutability": "view",
      "type": "function"
    },
    {
      "inputs": [
        {
          "internalType": "address",
          "name": "spender",
          "type": "address"
        },
        {
          "internalType": "uint256",
          "name": "subtractedValue",
          "type": "uint256"
        }
      ],
      "name": "decreaseAllowance",
      "outputs": [
        {
          "internalType": "bool",
          "name": "",
          "type": "bool"
        }
      ],
      "stateMutability": "nonpayable",
      "type": "function"
    },
    {
      "inputs": [],
      "name": "emissions",
      "outputs": [
        {
          "internalType": "address",
          "name": "",
          "type": "address"
        }
      ],
      "stateMutability": "view",
      "type": "function"
    },
    {
      "inputs": [],
      "name": "gacha",
      "outputs": [
        {
          "internalType": "contract IGacha",
          "name": "",
          "type": "address"
        }
      ],
      "stateMutability": "view",
      "type": "function"
    },
    {
      "inputs": [
        {
          "internalType": "address",
          "name": "_a",
          "type": "address"
        }
      ],
      "name": "getIsWhitelisted",
      "outputs": [
        {
          "internalType": "bool",
          "name": "",
          "type": "bool"
        }
      ],
      "stateMutability": "view",
      "type": "function"
    },
    {
      "inputs": [],
      "name": "girls",
      "outputs": [
        {
          "internalType": "contract IERC721",
          "name": "",
          "type": "address"
        }
      ],
      "stateMutability": "view",
      "type": "function"
    },
    {
      "inputs": [
        {
          "internalType": "address",
          "name": "spender",
          "type": "address"
        },
        {
          "internalType": "uint256",
          "name": "addedValue",
          "type": "uint256"
        }
      ],
      "name": "increaseAllowance",
      "outputs": [
        {
          "internalType": "bool",
          "name": "",
          "type": "bool"
        }
      ],
      "stateMutability": "nonpayable",
      "type": "function"
    },
    {
      "inputs": [
        {
          "internalType": "address",
          "name": "",
          "type": "address"
        }
      ],
      "name": "isWhitelisted",
      "outputs": [
        {
          "internalType": "bool",
          "name": "",
          "type": "bool"
        }
      ],
      "stateMutability": "view",
      "type": "function"
    },
    {
      "inputs": [],
      "name": "maxSpins",
      "outputs": [
        {
          "internalType": "uint256",
          "name": "",
          "type": "uint256"
        }
      ],
      "stateMutability": "view",
      "type": "function"
    },
    {
      "inputs": [],
      "name": "maxSupply",
      "outputs": [
        {
          "internalType": "uint256",
          "name": "",
          "type": "uint256"
        }
      ],
      "stateMutability": "view",
      "type": "function"
    },
    {
      "inputs": [
        {
          "internalType": "address",
          "name": "_to",
          "type": "address"
        },
        {
          "internalType": "uint256",
          "name": "amount",
          "type": "uint256"
        }
      ],
      "name": "mintDev",
      "outputs": [],
      "stateMutability": "nonpayable",
      "type": "function"
    },
    {
      "inputs": [],
      "name": "name",
      "outputs": [
        {
          "internalType": "string",
          "name": "",
          "type": "string"
        }
      ],
      "stateMutability": "view",
      "type": "function"
    },
    {
      "inputs": [],
      "name": "owner",
      "outputs": [
        {
          "internalType": "address",
          "name": "",
          "type": "address"
        }
      ],
      "stateMutability": "view",
      "type": "function"
    },
    {
      "inputs": [
        {
          "internalType": "uint256",
          "name": "",
          "type": "uint256"
        }
      ],
      "name": "payeeAddress",
      "outputs": [
        {
          "internalType": "address",
          "name": "",
          "type": "address"
        }
      ],
      "stateMutability": "view",
      "type": "function"
    },
    {
      "inputs": [
        {
          "internalType": "uint256",
          "name": "",
          "type": "uint256"
        }
      ],
      "name": "payeePerc",
      "outputs": [
        {
          "internalType": "uint256",
          "name": "",
          "type": "uint256"
        }
      ],
      "stateMutability": "view",
      "type": "function"
    },
    {
      "inputs": [],
      "name": "payees",
      "outputs": [
        {
          "internalType": "uint256",
          "name": "",
          "type": "uint256"
        }
      ],
      "stateMutability": "view",
      "type": "function"
    },
    {
      "inputs": [
        {
          "internalType": "address",
          "name": "_a",
          "type": "address"
        }
      ],
      "name": "removeWhitelist",
      "outputs": [],
      "stateMutability": "nonpayable",
      "type": "function"
    },
    {
      "inputs": [],
      "name": "renounceOwnership",
      "outputs": [],
      "stateMutability": "nonpayable",
      "type": "function"
    },
    {
      "inputs": [],
      "name": "rewards",
      "outputs": [
        {
          "internalType": "address",
          "name": "",
          "type": "address"
        }
      ],
      "stateMutability": "view",
      "type": "function"
    },
    {
      "inputs": [
        {
          "internalType": "address",
          "name": "_rewards",
          "type": "address"
        }
      ],
      "name": "setBankRewardsContract",
      "outputs": [],
      "stateMutability": "nonpayable",
      "type": "function"
    },
    {
      "inputs": [
        {
          "internalType": "address",
          "name": "_emissions",
          "type": "address"
        }
      ],
      "name": "setEmissionsContract",
      "outputs": [],
      "stateMutability": "nonpayable",
      "type": "function"
    },
    {
      "inputs": [
        {
          "internalType": "address",
          "name": "_girlContractAddress",
          "type": "address"
        }
      ],
      "name": "setGirlContract",
      "outputs": [],
      "stateMutability": "nonpayable",
      "type": "function"
    },
    {
      "inputs": [
        {
          "internalType": "address",
          "name": "_a",
          "type": "address"
        },
        {
          "internalType": "address",
          "name": "_b",
          "type": "address"
        },
        {
          "internalType": "address",
          "name": "_c",
          "type": "address"
        },
        {
          "internalType": "address",
          "name": "_d",
          "type": "address"
        },
        {
          "internalType": "uint256",
          "name": "_aPerc",
          "type": "uint256"
        },
        {
          "internalType": "uint256",
          "name": "_bPerc",
          "type": "uint256"
        },
        {
          "internalType": "uint256",
          "name": "_cPerc",
          "type": "uint256"
        },
        {
          "internalType": "uint256",
          "name": "_dPerc",
          "type": "uint256"
        }
      ],
      "name": "setInitialPayees",
      "outputs": [],
      "stateMutability": "nonpayable",
      "type": "function"
    },
    {
      "inputs": [
        {
          "internalType": "uint256",
          "name": "_maxSpins",
          "type": "uint256"
        }
      ],
      "name": "setMaxSpins",
      "outputs": [],
      "stateMutability": "nonpayable",
      "type": "function"
    },
    {
      "inputs": [
        {
          "internalType": "uint256",
          "name": "_id",
          "type": "uint256"
        },
        {
          "internalType": "address",
          "name": "_addr",
          "type": "address"
        },
        {
          "internalType": "uint256",
          "name": "_perc",
          "type": "uint256"
        }
      ],
      "name": "setPayee",
      "outputs": [],
      "stateMutability": "nonpayable",
      "type": "function"
    },
    {
      "inputs": [
        {
          "internalType": "uint256",
          "name": "_l",
          "type": "uint256"
        }
      ],
      "name": "setPayeesLength",
      "outputs": [],
      "stateMutability": "nonpayable",
      "type": "function"
    },
    {
      "inputs": [
        {
          "internalType": "address",
          "name": "_gachaAddress",
          "type": "address"
        },
        {
          "internalType": "uint256",
          "name": "_amount",
          "type": "uint256"
        }
      ],
      "name": "spinGacha",
      "outputs": [],
      "stateMutability": "nonpayable",
      "type": "function"
    },
    {
      "inputs": [],
      "name": "spinId",
      "outputs": [
        {
          "internalType": "uint256",
          "name": "",
          "type": "uint256"
        }
      ],
      "stateMutability": "view",
      "type": "function"
    },
    {
      "inputs": [],
      "name": "symbol",
      "outputs": [
        {
          "internalType": "string",
          "name": "",
          "type": "string"
        }
      ],
      "stateMutability": "view",
      "type": "function"
    },
    {
      "inputs": [],
      "name": "totalSupply",
      "outputs": [
        {
          "internalType": "uint256",
          "name": "",
          "type": "uint256"
        }
      ],
      "stateMutability": "view",
      "type": "function"
    },
    {
      "inputs": [
        {
          "internalType": "address",
          "name": "to",
          "type": "address"
        },
        {
          "internalType": "uint256",
          "name": "amount",
          "type": "uint256"
        }
      ],
      "name": "transfer",
      "outputs": [
        {
          "internalType": "bool",
          "name": "",
          "type": "bool"
        }
      ],
      "stateMutability": "nonpayable",
      "type": "function"
    },
    {
      "inputs": [
        {
          "internalType": "address",
          "name": "from",
          "type": "address"
        },
        {
          "internalType": "address",
          "name": "to",
          "type": "address"
        },
        {
          "internalType": "uint256",
          "name": "amount",
          "type": "uint256"
        }
      ],
      "name": "transferFrom",
      "outputs": [
        {
          "internalType": "bool",
          "name": "",
          "type": "bool"
        }
      ],
      "stateMutability": "nonpayable",
      "type": "function"
    },
    {
      "inputs": [
        {
          "internalType": "address",
          "name": "newOwner",
          "type": "address"
        }
      ],
      "name": "transferOwnership",
      "outputs": [],
      "stateMutability": "nonpayable",
      "type": "function"
    }
  ],
  "bytecode": "0x608060405260046008556a295be96e64066972000000600e5560646010553480156200002a57600080fd5b5060405162001b2438038062001b248339810160408190526200004d9162000424565b604051806040016040528060078152602001665447472041524360c81b8152506040518060400160405280600381526020016241524360e81b8152508160039080519060200190620000a192919062000361565b508051620000b790600490602084019062000361565b505050620000d4620000ce6200018e60201b60201c565b62000192565b620000df83620001e4565b620000ea8262000210565b6200011233620000fd6012600a620004d1565b6200010c906225317c6200059f565b6200023c565b600d5462000141906001600160a01b0316620001316012600a620004d1565b6200010c90630211a1f06200059f565b6200016382620001546012600a620004d1565b6200010c90622625a06200059f565b6200018581620001766012600a620004d1565b6200010c90629df7746200059f565b50505062000614565b3390565b600580546001600160a01b038381166001600160a01b0319831681179093556040519116919082907f8be0079c531659141344cd1fd0a4f28419497f9722a3daafe3b4186f6b6457e090600090a35050565b620001ee62000303565b600d80546001600160a01b0319166001600160a01b0392909216919091179055565b6200021a62000303565b600b80546001600160a01b0319166001600160a01b0392909216919091179055565b6001600160a01b038216620002985760405162461bcd60e51b815260206004820152601f60248201527f45524332303a206d696e7420746f20746865207a65726f20616464726573730060448201526064015b60405180910390fd5b8060026000828254620002ac91906200046d565b90915550506001600160a01b038216600081815260208181526040808320805486019055518481527fddf252ad1be2c89b69c2b068fc378daa952ba7f163c4a11628f55a4df523b3ef910160405180910390a35050565b6005546001600160a01b031633146200035f5760405162461bcd60e51b815260206004820181905260248201527f4f776e61626c653a2063616c6c6572206973206e6f7420746865206f776e657260448201526064016200028f565b565b8280546200036f90620005c1565b90600052602060002090601f016020900481019282620003935760008555620003de565b82601f10620003ae57805160ff1916838001178555620003de565b82800160010185558215620003de579182015b82811115620003de578251825591602001919060010190620003c1565b50620003ec929150620003f0565b5090565b5b80821115620003ec5760008155600101620003f1565b80516001600160a01b03811681146200041f57600080fd5b919050565b60008060006060848603121562000439578283fd5b620004448462000407565b9250620004546020850162000407565b9150620004646040850162000407565b90509250925092565b60008219821115620004835762000483620005fe565b500190565b600181815b80851115620004c9578160001904821115620004ad57620004ad620005fe565b80851615620004bb57918102915b93841c93908002906200048d565b509250929050565b6000620004e260ff841683620004e9565b9392505050565b600082620004fa5750600162000599565b81620005095750600062000599565b81600181146200052257600281146200052d576200054d565b600191505062000599565b60ff841115620005415762000541620005fe565b50506001821b62000599565b5060208310610133831016604e8410600b841016171562000572575081810a62000599565b6200057e838362000488565b8060001904821115620005955762000595620005fe565b0290505b92915050565b6000816000190483118215151615620005bc57620005bc620005fe565b500290565b600181811c90821680620005d657607f821691505b60208210811415620005f857634e487b7160e01b600052602260045260246000fd5b50919050565b634e487b7160e01b600052601160045260246000fd5b61150080620006246000396000f3fe608060405234801561001057600080fd5b506004361061023d5760003560e01c806384eda5441161013b578063a9c35334116100b8578063dd62ed3e1161007c578063dd62ed3e1461051a578063df2388001461052d578063f2fde38b14610540578063f413143314610553578063f80f5dd51461056657600080fd5b8063a9c35334146104b8578063b88084ec146104cb578063d0a723d2146104de578063d5abeb01146104f1578063d73a5865146104fa57600080fd5b8063948142bb116100ff578063948142bb1461046457806395d89b41146104775780639ec5a8941461047f578063a457c2d714610492578063a9059cbb146104a557600080fd5b806384eda544146103ee578063878792d5146104015780638da5cb5b146104145780638e283cd614610425578063938f296c1461043857600080fd5b80633af32abf116101c957806370a082311161018d57806370a082311461038e578063715018a6146103b757806378c8cda7146103bf57806379cc6790146103d25780637afa5048146103e557600080fd5b80633af32abf146103335780633fdc25901461035657806342966c68146103695780634e8086aa1461037c57806368cdadf11461038557600080fd5b806323b872dd1161021057806323b872dd146102c0578063313ce567146102d3578063324c6adc146102e2578063347206f7146102f7578063395093511461032057600080fd5b806306fdde0314610242578063095ea7b31461026057806318160ddd146102835780632267716c14610295575b600080fd5b61024a610579565b604051610257919061139d565b60405180910390f35b61027361026e366004611320565b61060b565b6040519015158152602001610257565b6002545b604051908152602001610257565b600d546102a8906001600160a01b031681565b6040516001600160a01b039091168152602001610257565b6102736102ce3660046112e5565b610623565b60405160128152602001610257565b6102f56102f0366004611320565b610647565b005b6102a8610305366004611349565b6006602052600090815260409020546001600160a01b031681565b61027361032e366004611320565b61065d565b610273610341366004611222565b600c6020526000908152604090205460ff1681565b6009546102a8906001600160a01b031681565b6102f5610377366004611349565b61067f565b61028760085481565b610287600f5481565b61028761039c366004611222565b6001600160a01b031660009081526020819052604090205490565b6102f561068c565b6102f56103cd366004611222565b6106a0565b6102f56103e0366004611320565b6106c9565b61028760105481565b6102f56103fc366004611222565b6106de565b6102f561040f366004611222565b610708565b6005546001600160a01b03166102a8565b6102f5610433366004611349565b610732565b610273610446366004611222565b6001600160a01b03166000908152600c602052604090205460ff1690565b600a546102a8906001600160a01b031681565b61024a61073f565b600b546102a8906001600160a01b031681565b6102736104a0366004611320565b61074e565b6102736104b3366004611320565b6107ce565b6102f56104c6366004611222565b6107dc565b6102f56104d9366004611349565b610806565b6102f56104ec36600461126e565b610813565b610287600e5481565b610287610508366004611349565b60076020526000908152604090205481565b61028761052836600461123c565b610855565b6102f561053b366004611379565b610880565b6102f561054e366004611222565b6108c1565b6102f5610561366004611320565b610937565b6102f5610574366004611222565b610b6d565b6060600380546105889061145e565b80601f01602080910402602001604051908101604052809291908181526020018280546105b49061145e565b80156106015780601f106105d657610100808354040283529160200191610601565b820191906000526020600020905b8154815290600101906020018083116105e457829003601f168201915b5050505050905090565b600033610619818585610b99565b5060019392505050565b600033610631858285610cbe565b61063c858585610d38565b506001949350505050565b61064f610edc565b6106598282610f36565b5050565b6000336106198185856106708383610855565b61067a91906113f0565b610b99565b6106893382610ff5565b50565b610694610edc565b61069e600061111f565b565b6106a8610edc565b6001600160a01b03166000908152600c60205260409020805460ff19169055565b6106d4823383610cbe565b6106598282610ff5565b6106e6610edc565b600980546001600160a01b0319166001600160a01b0392909216919091179055565b610710610edc565b600b80546001600160a01b0319166001600160a01b0392909216919091179055565b61073a610edc565b601055565b6060600480546105889061145e565b6000338161075c8286610855565b9050838110156107c15760405162461bcd60e51b815260206004820152602560248201527f45524332303a2064656372656173656420616c6c6f77616e63652062656c6f77604482015264207a65726f60d81b60648201526084015b60405180910390fd5b61063c8286868403610b99565b600033610619818585610d38565b6107e4610edc565b600d80546001600160a01b0319166001600160a01b0392909216919091179055565b61080e610edc565b600855565b61081b610edc565b61082760008986610880565b61083360018885610880565b61083f60028784610880565b61084b60038683610880565b5050505050505050565b6001600160a01b03918216600090815260016020908152604080832093909416825291909152205490565b610888610edc565b600092835260066020908152604080852080546001600160a01b0319166001600160a01b03959095169490941790935560079052912055565b6108c9610edc565b6001600160a01b03811661092e5760405162461bcd60e51b815260206004820152602660248201527f4f776e61626c653a206e6577206f776e657220697320746865207a65726f206160448201526564647265737360d01b60648201526084016107b8565b6106898161111f565b6001600160a01b0382166000908152600c602052604090205460ff1661099f5760405162461bcd60e51b815260206004820152601e60248201527f5370656e6465723a204761636861206e6f742077686974656c6973746564000060448201526064016107b8565b600181101580156109b257506010548111155b610a085760405162461bcd60e51b815260206004820152602160248201527f5370656e6465723a207370696e203120746f206d61785370696e732074696d656044820152607360f81b60648201526084016107b8565b600a80546001600160a01b0319166001600160a01b03841690811790915560408051632f4f867560e21b815290516000928492909163bd3e19d491600480820192602092909190829003018186803b158015610a6357600080fd5b505afa158015610a77573d6000803e3d6000fd5b505050506040513d601f19601f82011682018060405250810190610a9b9190611361565b610aa59190611428565b33600090815260208190526040902054909150811115610b075760405162461bcd60e51b815260206004820152601c60248201527f5370656e6465723a2075736572206e6f7420656e6f756768204152430000000060448201526064016107b8565b610b1081611171565b600f8054906000610b2083611499565b9091555050600f546040518381526001600160a01b0385169033907f167484914784d5fd3462b1527c5f53628c0507f9bab137dfd020c438da03fdb19060200160405180910390a4505050565b610b75610edc565b6001600160a01b03166000908152600c60205260409020805460ff19166001179055565b6001600160a01b038316610bfb5760405162461bcd60e51b8152602060048201526024808201527f45524332303a20617070726f76652066726f6d20746865207a65726f206164646044820152637265737360e01b60648201526084016107b8565b6001600160a01b038216610c5c5760405162461bcd60e51b815260206004820152602260248201527f45524332303a20617070726f766520746f20746865207a65726f206164647265604482015261737360f01b60648201526084016107b8565b6001600160a01b0383811660008181526001602090815260408083209487168084529482529182902085905590518481527f8c5be1e5ebec7d5bd14f71427d1e84f3dd0314c0f7b2291e5b200ac8c7c3b92591015b60405180910390a3505050565b6000610cca8484610855565b90506000198114610d325781811015610d255760405162461bcd60e51b815260206004820152601d60248201527f45524332303a20696e73756666696369656e7420616c6c6f77616e636500000060448201526064016107b8565b610d328484848403610b99565b50505050565b6001600160a01b038316610d9c5760405162461bcd60e51b815260206004820152602560248201527f45524332303a207472616e736665722066726f6d20746865207a65726f206164604482015264647265737360d81b60648201526084016107b8565b6001600160a01b038216610dfe5760405162461bcd60e51b815260206004820152602360248201527f45524332303a207472616e7366657220746f20746865207a65726f206164647260448201526265737360e81b60648201526084016107b8565b6001600160a01b03831660009081526020819052604090205481811015610e765760405162461bcd60e51b815260206004820152602660248201527f45524332303a207472616e7366657220616d6f756e7420657863656564732062604482015265616c616e636560d01b60648201526084016107b8565b6001600160a01b03848116600081815260208181526040808320878703905593871680835291849020805487019055925185815290927fddf252ad1be2c89b69c2b068fc378daa952ba7f163c4a11628f55a4df523b3ef910160405180910390a3610d32565b6005546001600160a01b0316331461069e5760405162461bcd60e51b815260206004820181905260248201527f4f776e61626c653a2063616c6c6572206973206e6f7420746865206f776e657260448201526064016107b8565b6001600160a01b038216610f8c5760405162461bcd60e51b815260206004820152601f60248201527f45524332303a206d696e7420746f20746865207a65726f20616464726573730060448201526064016107b8565b8060026000828254610f9e91906113f0565b90915550506001600160a01b038216600081815260208181526040808320805486019055518481527fddf252ad1be2c89b69c2b068fc378daa952ba7f163c4a11628f55a4df523b3ef910160405180910390a35050565b6001600160a01b0382166110555760405162461bcd60e51b815260206004820152602160248201527f45524332303a206275726e2066726f6d20746865207a65726f206164647265736044820152607360f81b60648201526084016107b8565b6001600160a01b038216600090815260208190526040902054818110156110c95760405162461bcd60e51b815260206004820152602260248201527f45524332303a206275726e20616d6f756e7420657863656564732062616c616e604482015261636560f01b60648201526084016107b8565b6001600160a01b0383166000818152602081815260408083208686039055600280548790039055518581529192917fddf252ad1be2c89b69c2b068fc378daa952ba7f163c4a11628f55a4df523b3ef9101610cb1565b600580546001600160a01b038381166001600160a01b0319831681179093556040519116919082907f8be0079c531659141344cd1fd0a4f28419497f9722a3daafe3b4186f6b6457e090600090a35050565b8060005b6008548110156111cf57600061118b84836111d9565b6000838152600660205260409020549091506111b0906001600160a01b0316826107ce565b506111bb8184611447565b925050806111c890611499565b9050611175565b506106598161067f565b6000818152600760205260408120546064906111f59085611428565b6111ff9190611408565b9392505050565b80356001600160a01b038116811461121d57600080fd5b919050565b600060208284031215611233578081fd5b6111ff82611206565b6000806040838503121561124e578081fd5b61125783611206565b915061126560208401611206565b90509250929050565b600080600080600080600080610100898b03121561128a578384fd5b61129389611206565b97506112a160208a01611206565b96506112af60408a01611206565b95506112bd60608a01611206565b979a969950949760808101359660a0820135965060c0820135955060e0909101359350915050565b6000806000606084860312156112f9578283fd5b61130284611206565b925061131060208501611206565b9150604084013590509250925092565b60008060408385031215611332578182fd5b61133b83611206565b946020939093013593505050565b60006020828403121561135a578081fd5b5035919050565b600060208284031215611372578081fd5b5051919050565b60008060006060848603121561138d578283fd5b8335925061131060208501611206565b6000602080835283518082850152825b818110156113c9578581018301518582016040015282016113ad565b818111156113da5783604083870101525b50601f01601f1916929092016040019392505050565b60008219821115611403576114036114b4565b500190565b60008261142357634e487b7160e01b81526012600452602481fd5b500490565b6000816000190483118215151615611442576114426114b4565b500290565b600082821015611459576114596114b4565b500390565b600181811c9082168061147257607f821691505b6020821081141561149357634e487b7160e01b600052602260045260246000fd5b50919050565b60006000198214156114ad576114ad6114b4565b5060010190565b634e487b7160e01b600052601160045260246000fdfea26469706673582212209fa4cb8736cea4ce0b22b05b764360020a150df08bd92d5eede4ed2a8b15f60364736f6c63430008040033",
  "linkReferences": {},
  "deployedLinkReferences": {}
}