{
  "_format": "hh-sol-artifact-1",
  "contractName": "Arc",
  "sourceName": "contracts/ARC/Arc.sol",
  "abi": [
    {
      "inputs": [
        {
          "internalType": "address",
          "name": "_emissions",
          "type": "address"
        }
      ],
      "stateMutability": "nonpayable",
      "type": "constructor"
    },
    {
      "anonymous": false,
      "inputs": [
        {
          "indexed": true,
          "internalType": "address",
          "name": "owner",
          "type": "address"
        },
        {
          "indexed": true,
          "internalType": "address",
          "name": "spender",
          "type": "address"
        },
        {
          "indexed": false,
          "internalType": "uint256",
          "name": "value",
          "type": "uint256"
        }
      ],
      "name": "Approval",
      "type": "event"
    },
    {
      "anonymous": false,
      "inputs": [
        {
          "indexed": true,
          "internalType": "address",
          "name": "user",
          "type": "address"
        },
        {
          "indexed": true,
          "internalType": "address",
          "name": "gachaAddress",
          "type": "address"
        },
        {
          "indexed": true,
          "internalType": "uint256",
          "name": "spinId",
          "type": "uint256"
        },
        {
          "indexed": false,
          "internalType": "uint256",
          "name": "amount",
          "type": "uint256"
        }
      ],
      "name": "GachaSpun",
      "type": "event"
    },
    {
      "anonymous": false,
      "inputs": [
        {
          "indexed": true,
          "internalType": "address",
          "name": "previousOwner",
          "type": "address"
        },
        {
          "indexed": true,
          "internalType": "address",
          "name": "newOwner",
          "type": "address"
        }
      ],
      "name": "OwnershipTransferred",
      "type": "event"
    },
    {
      "anonymous": false,
      "inputs": [
        {
          "indexed": true,
          "internalType": "address",
          "name": "from",
          "type": "address"
        },
        {
          "indexed": true,
          "internalType": "address",
          "name": "to",
          "type": "address"
        },
        {
          "indexed": false,
          "internalType": "uint256",
          "name": "value",
          "type": "uint256"
        }
      ],
      "name": "Transfer",
      "type": "event"
    },
    {
      "inputs": [
        {
          "internalType": "address",
          "name": "_a",
          "type": "address"
        }
      ],
      "name": "addWhitelist",
      "outputs": [],
      "stateMutability": "nonpayable",
      "type": "function"
    },
    {
      "inputs": [
        {
          "internalType": "address",
          "name": "owner",
          "type": "address"
        },
        {
          "internalType": "address",
          "name": "spender",
          "type": "address"
        }
      ],
      "name": "allowance",
      "outputs": [
        {
          "internalType": "uint256",
          "name": "",
          "type": "uint256"
        }
      ],
      "stateMutability": "view",
      "type": "function"
    },
    {
      "inputs": [
        {
          "internalType": "address",
          "name": "spender",
          "type": "address"
        },
        {
          "internalType": "uint256",
          "name": "amount",
          "type": "uint256"
        }
      ],
      "name": "approve",
      "outputs": [
        {
          "internalType": "bool",
          "name": "",
          "type": "bool"
        }
      ],
      "stateMutability": "nonpayable",
      "type": "function"
    },
    {
      "inputs": [
        {
          "internalType": "address",
          "name": "account",
          "type": "address"
        }
      ],
      "name": "balanceOf",
      "outputs": [
        {
          "internalType": "uint256",
          "name": "",
          "type": "uint256"
        }
      ],
      "stateMutability": "view",
      "type": "function"
    },
    {
      "inputs": [
        {
          "internalType": "uint256",
          "name": "amount",
          "type": "uint256"
        }
      ],
      "name": "burn",
      "outputs": [],
      "stateMutability": "nonpayable",
      "type": "function"
    },
    {
      "inputs": [
        {
          "internalType": "address",
          "name": "account",
          "type": "address"
        },
        {
          "internalType": "uint256",
          "name": "amount",
          "type": "uint256"
        }
      ],
      "name": "burnFrom",
      "outputs": [],
      "stateMutability": "nonpayable",
      "type": "function"
    },
    {
      "inputs": [],
      "name": "decimals",
      "outputs": [
        {
          "internalType": "uint8",
          "name": "",
          "type": "uint8"
        }
      ],
      "stateMutability": "view",
      "type": "function"
    },
    {
      "inputs": [
        {
          "internalType": "address",
          "name": "spender",
          "type": "address"
        },
        {
          "internalType": "uint256",
          "name": "subtractedValue",
          "type": "uint256"
        }
      ],
      "name": "decreaseAllowance",
      "outputs": [
        {
          "internalType": "bool",
          "name": "",
          "type": "bool"
        }
      ],
      "stateMutability": "nonpayable",
      "type": "function"
    },
    {
      "inputs": [],
      "name": "emissions",
      "outputs": [
        {
          "internalType": "address",
          "name": "",
          "type": "address"
        }
      ],
      "stateMutability": "view",
      "type": "function"
    },
    {
      "inputs": [],
      "name": "gacha",
      "outputs": [
        {
          "internalType": "contract IGacha",
          "name": "",
          "type": "address"
        }
      ],
      "stateMutability": "view",
      "type": "function"
    },
    {
      "inputs": [
        {
          "internalType": "address",
          "name": "_a",
          "type": "address"
        }
      ],
      "name": "getIsWhitelisted",
      "outputs": [
        {
          "internalType": "bool",
          "name": "",
          "type": "bool"
        }
      ],
      "stateMutability": "view",
      "type": "function"
    },
    {
      "inputs": [],
      "name": "girls",
      "outputs": [
        {
          "internalType": "contract IERC721",
          "name": "",
          "type": "address"
        }
      ],
      "stateMutability": "view",
      "type": "function"
    },
    {
      "inputs": [
        {
          "internalType": "address",
          "name": "spender",
          "type": "address"
        },
        {
          "internalType": "uint256",
          "name": "addedValue",
          "type": "uint256"
        }
      ],
      "name": "increaseAllowance",
      "outputs": [
        {
          "internalType": "bool",
          "name": "",
          "type": "bool"
        }
      ],
      "stateMutability": "nonpayable",
      "type": "function"
    },
    {
      "inputs": [
        {
          "internalType": "address",
          "name": "",
          "type": "address"
        }
      ],
      "name": "isWhitelisted",
      "outputs": [
        {
          "internalType": "bool",
          "name": "",
          "type": "bool"
        }
      ],
      "stateMutability": "view",
      "type": "function"
    },
    {
      "inputs": [],
      "name": "maxSupply",
      "outputs": [
        {
          "internalType": "uint256",
          "name": "",
          "type": "uint256"
        }
      ],
      "stateMutability": "view",
      "type": "function"
    },
    {
      "inputs": [
        {
          "internalType": "address",
          "name": "_to",
          "type": "address"
        },
        {
          "internalType": "uint256",
          "name": "amount",
          "type": "uint256"
        }
      ],
      "name": "mintDev",
      "outputs": [],
      "stateMutability": "nonpayable",
      "type": "function"
    },
    {
      "inputs": [],
      "name": "name",
      "outputs": [
        {
          "internalType": "string",
          "name": "",
          "type": "string"
        }
      ],
      "stateMutability": "view",
      "type": "function"
    },
    {
      "inputs": [],
      "name": "owner",
      "outputs": [
        {
          "internalType": "address",
          "name": "",
          "type": "address"
        }
      ],
      "stateMutability": "view",
      "type": "function"
    },
    {
      "inputs": [
        {
          "internalType": "uint256",
          "name": "",
          "type": "uint256"
        }
      ],
      "name": "payeeAddress",
      "outputs": [
        {
          "internalType": "address",
          "name": "",
          "type": "address"
        }
      ],
      "stateMutability": "view",
      "type": "function"
    },
    {
      "inputs": [
        {
          "internalType": "uint256",
          "name": "",
          "type": "uint256"
        }
      ],
      "name": "payeePerc",
      "outputs": [
        {
          "internalType": "uint256",
          "name": "",
          "type": "uint256"
        }
      ],
      "stateMutability": "view",
      "type": "function"
    },
    {
      "inputs": [],
      "name": "payees",
      "outputs": [
        {
          "internalType": "uint256",
          "name": "",
          "type": "uint256"
        }
      ],
      "stateMutability": "view",
      "type": "function"
    },
    {
      "inputs": [
        {
          "internalType": "address",
          "name": "_a",
          "type": "address"
        }
      ],
      "name": "removeWhitelist",
      "outputs": [],
      "stateMutability": "nonpayable",
      "type": "function"
    },
    {
      "inputs": [],
      "name": "renounceOwnership",
      "outputs": [],
      "stateMutability": "nonpayable",
      "type": "function"
    },
    {
      "inputs": [
        {
          "internalType": "address",
          "name": "_emissions",
          "type": "address"
        }
      ],
      "name": "setEmissionsContract",
      "outputs": [],
      "stateMutability": "nonpayable",
      "type": "function"
    },
    {
      "inputs": [
        {
          "internalType": "address",
          "name": "_girlContractAddress",
          "type": "address"
        }
      ],
      "name": "setGirlContract",
      "outputs": [],
      "stateMutability": "nonpayable",
      "type": "function"
    },
    {
      "inputs": [
        {
          "internalType": "address",
          "name": "_a",
          "type": "address"
        },
        {
          "internalType": "address",
          "name": "_b",
          "type": "address"
        },
        {
          "internalType": "address",
          "name": "_c",
          "type": "address"
        },
        {
          "internalType": "address",
          "name": "_d",
          "type": "address"
        },
        {
          "internalType": "uint256",
          "name": "_aPerc",
          "type": "uint256"
        },
        {
          "internalType": "uint256",
          "name": "_bPerc",
          "type": "uint256"
        },
        {
          "internalType": "uint256",
          "name": "_cPerc",
          "type": "uint256"
        },
        {
          "internalType": "uint256",
          "name": "_dPerc",
          "type": "uint256"
        }
      ],
      "name": "setInitialPayees",
      "outputs": [],
      "stateMutability": "nonpayable",
      "type": "function"
    },
    {
      "inputs": [
        {
          "internalType": "uint256",
          "name": "_id",
          "type": "uint256"
        },
        {
          "internalType": "address",
          "name": "_addr",
          "type": "address"
        },
        {
          "internalType": "uint256",
          "name": "_perc",
          "type": "uint256"
        }
      ],
      "name": "setPayee",
      "outputs": [],
      "stateMutability": "nonpayable",
      "type": "function"
    },
    {
      "inputs": [
        {
          "internalType": "address",
          "name": "_gachaAddress",
          "type": "address"
        },
        {
          "internalType": "uint256",
          "name": "_amount",
          "type": "uint256"
        }
      ],
      "name": "spinGacha",
      "outputs": [],
      "stateMutability": "nonpayable",
      "type": "function"
    },
    {
      "inputs": [],
      "name": "spinId",
      "outputs": [
        {
          "internalType": "uint256",
          "name": "",
          "type": "uint256"
        }
      ],
      "stateMutability": "view",
      "type": "function"
    },
    {
      "inputs": [],
      "name": "symbol",
      "outputs": [
        {
          "internalType": "string",
          "name": "",
          "type": "string"
        }
      ],
      "stateMutability": "view",
      "type": "function"
    },
    {
      "inputs": [],
      "name": "totalSupply",
      "outputs": [
        {
          "internalType": "uint256",
          "name": "",
          "type": "uint256"
        }
      ],
      "stateMutability": "view",
      "type": "function"
    },
    {
      "inputs": [
        {
          "internalType": "address",
          "name": "to",
          "type": "address"
        },
        {
          "internalType": "uint256",
          "name": "amount",
          "type": "uint256"
        }
      ],
      "name": "transfer",
      "outputs": [
        {
          "internalType": "bool",
          "name": "",
          "type": "bool"
        }
      ],
      "stateMutability": "nonpayable",
      "type": "function"
    },
    {
      "inputs": [
        {
          "internalType": "address",
          "name": "from",
          "type": "address"
        },
        {
          "internalType": "address",
          "name": "to",
          "type": "address"
        },
        {
          "internalType": "uint256",
          "name": "amount",
          "type": "uint256"
        }
      ],
      "name": "transferFrom",
      "outputs": [
        {
          "internalType": "bool",
          "name": "",
          "type": "bool"
        }
      ],
      "stateMutability": "nonpayable",
      "type": "function"
    },
    {
      "inputs": [
        {
          "internalType": "address",
          "name": "newOwner",
          "type": "address"
        }
      ],
      "name": "transferOwnership",
      "outputs": [],
      "stateMutability": "nonpayable",
      "type": "function"
    }
  ],
  "bytecode": "0x608060405260046009556a295be96e64066972000000600e553480156200002557600080fd5b50604051620019b8380380620019b8833981016040819052620000489162000354565b604080518082018252600c81526b1511d1cb505c98cb55195cdd60a21b6020808301918252835180850190945260078452661511d1cb584b5d60ca1b9084015281519192916200009b91600391620002ae565b508051620000b1906004906020840190620002ae565b5050600160055550620000c4336200010b565b620000cf816200015d565b600d5462000104906001600160a01b0316620000ee6012600a620003e8565b620000fe90630211a1f0620004a9565b62000189565b506200051e565b600680546001600160a01b038381166001600160a01b0319831681179093556040519116919082907f8be0079c531659141344cd1fd0a4f28419497f9722a3daafe3b4186f6b6457e090600090a35050565b6200016762000250565b600d80546001600160a01b0319166001600160a01b0392909216919091179055565b6001600160a01b038216620001e55760405162461bcd60e51b815260206004820152601f60248201527f45524332303a206d696e7420746f20746865207a65726f20616464726573730060448201526064015b60405180910390fd5b8060026000828254620001f9919062000384565b90915550506001600160a01b038216600081815260208181526040808320805486019055518481527fddf252ad1be2c89b69c2b068fc378daa952ba7f163c4a11628f55a4df523b3ef910160405180910390a35050565b6006546001600160a01b03163314620002ac5760405162461bcd60e51b815260206004820181905260248201527f4f776e61626c653a2063616c6c6572206973206e6f7420746865206f776e65726044820152606401620001dc565b565b828054620002bc90620004cb565b90600052602060002090601f016020900481019282620002e057600085556200032b565b82601f10620002fb57805160ff19168380011785556200032b565b828001600101855582156200032b579182015b828111156200032b5782518255916020019190600101906200030e565b50620003399291506200033d565b5090565b5b808211156200033957600081556001016200033e565b60006020828403121562000366578081fd5b81516001600160a01b03811681146200037d578182fd5b9392505050565b600082198211156200039a576200039a62000508565b500190565b600181815b80851115620003e0578160001904821115620003c457620003c462000508565b80851615620003d257918102915b93841c9390800290620003a4565b509250929050565b60006200037d60ff8416836000826200040457506001620004a3565b816200041357506000620004a3565b81600181146200042c5760028114620004375762000457565b6001915050620004a3565b60ff8411156200044b576200044b62000508565b50506001821b620004a3565b5060208310610133831016604e8410600b84101617156200047c575081810a620004a3565b6200048883836200039f565b80600019048211156200049f576200049f62000508565b0290505b92915050565b6000816000190483118215151615620004c657620004c662000508565b500290565b600181811c90821680620004e057607f821691505b602082108114156200050257634e487b7160e01b600052602260045260246000fd5b50919050565b634e487b7160e01b600052601160045260246000fd5b61148a806200052e6000396000f3fe608060405234801561001057600080fd5b50600436106102065760003560e01c806379cc67901161011a578063a9c35334116100ad578063dd62ed3e1161007c578063dd62ed3e1461048e578063df238800146104a1578063f2fde38b146104b4578063f4131433146104c7578063f80f5dd5146104da57600080fd5b8063a9c353341461043f578063d0a723d214610452578063d5abeb0114610465578063d73a58651461046e57600080fd5b8063948142bb116100e9578063948142bb146103fe57806395d89b4114610411578063a457c2d714610419578063a9059cbb1461042c57600080fd5b806379cc67901461039b57806384eda544146103ae5780638da5cb5b146103c1578063938f296c146103d257600080fd5b8063395093511161019d5780634e8086aa1161016c5780634e8086aa1461034557806368cdadf11461034e57806370a0823114610357578063715018a61461038057806378c8cda71461038857600080fd5b806339509351146102e95780633af32abf146102fc5780633fdc25901461031f57806342966c681461033257600080fd5b806323b872dd116101d957806323b872dd14610289578063313ce5671461029c578063324c6adc146102ab578063347206f7146102c057600080fd5b806306fdde031461020b578063095ea7b31461022957806318160ddd1461024c5780632267716c1461025e575b600080fd5b6102136104ed565b6040516102209190611327565b60405180910390f35b61023c6102373660046112aa565b61057f565b6040519015158152602001610220565b6002545b604051908152602001610220565b600d54610271906001600160a01b031681565b6040516001600160a01b039091168152602001610220565b61023c61029736600461126f565b610597565b60405160128152602001610220565b6102be6102b93660046112aa565b6105bb565b005b6102716102ce3660046112d3565b6007602052600090815260409020546001600160a01b031681565b61023c6102f73660046112aa565b6105d1565b61023c61030a3660046111ac565b600c6020526000908152604090205460ff1681565b600a54610271906001600160a01b031681565b6102be6103403660046112d3565b6105f3565b61025060095481565b610250600f5481565b6102506103653660046111ac565b6001600160a01b031660009081526020819052604090205490565b6102be610600565b6102be6103963660046111ac565b610614565b6102be6103a93660046112aa565b61063d565b6102be6103bc3660046111ac565b610652565b6006546001600160a01b0316610271565b61023c6103e03660046111ac565b6001600160a01b03166000908152600c602052604090205460ff1690565b600b54610271906001600160a01b031681565b61021361067c565b61023c6104273660046112aa565b61068b565b61023c61043a3660046112aa565b61070b565b6102be61044d3660046111ac565b610719565b6102be6104603660046111f8565b610743565b610250600e5481565b61025061047c3660046112d3565b60086020526000908152604090205481565b61025061049c3660046111c6565b610785565b6102be6104af366004611303565b6107b0565b6102be6104c23660046111ac565b6107f1565b6102be6104d53660046112aa565b610867565b6102be6104e83660046111ac565b610a9d565b6060600380546104fc906113e8565b80601f0160208091040260200160405190810160405280929190818152602001828054610528906113e8565b80156105755780601f1061054a57610100808354040283529160200191610575565b820191906000526020600020905b81548152906001019060200180831161055857829003601f168201915b5050505050905090565b60003361058d818585610ac9565b5060019392505050565b6000336105a5858285610bee565b6105b0858585610c68565b506001949350505050565b6105c3610e0c565b6105cd8282610e66565b5050565b60003361058d8185856105e48383610785565b6105ee919061137a565b610ac9565b6105fd3382610f25565b50565b610608610e0c565b610612600061104f565b565b61061c610e0c565b6001600160a01b03166000908152600c60205260409020805460ff19169055565b610648823383610bee565b6105cd8282610f25565b61065a610e0c565b600a80546001600160a01b0319166001600160a01b0392909216919091179055565b6060600480546104fc906113e8565b600033816106998286610785565b9050838110156106fe5760405162461bcd60e51b815260206004820152602560248201527f45524332303a2064656372656173656420616c6c6f77616e63652062656c6f77604482015264207a65726f60d81b60648201526084015b60405180910390fd5b6105b08286868403610ac9565b60003361058d818585610c68565b610721610e0c565b600d80546001600160a01b0319166001600160a01b0392909216919091179055565b61074b610e0c565b610757600089866107b0565b610763600188856107b0565b61076f600287846107b0565b61077b600386836107b0565b5050505050505050565b6001600160a01b03918216600090815260016020908152604080832093909416825291909152205490565b6107b8610e0c565b600092835260076020908152604080852080546001600160a01b0319166001600160a01b03959095169490941790935560089052912055565b6107f9610e0c565b6001600160a01b03811661085e5760405162461bcd60e51b815260206004820152602660248201527f4f776e61626c653a206e6577206f776e657220697320746865207a65726f206160448201526564647265737360d01b60648201526084016106f5565b6105fd8161104f565b61086f6110a1565b6001600160a01b0382166000908152600c602052604090205460ff166108d75760405162461bcd60e51b815260206004820152601e60248201527f5370656e6465723a204761636861206e6f742077686974656c6973746564000060448201526064016106f5565b80600114806108e6575080600a145b6109325760405162461bcd60e51b815260206004820181905260248201527f5370656e6465723a207370696e2031206f722031302074696d6573206f6e6c7960448201526064016106f5565b600b80546001600160a01b0319166001600160a01b03841690811790915560408051632f4f867560e21b815290516000928492909163bd3e19d491600480820192602092909190829003018186803b15801561098d57600080fd5b505afa1580156109a1573d6000803e3d6000fd5b505050506040513d601f19601f820116820180604052508101906109c591906112eb565b6109cf91906113b2565b33600090815260208190526040902054909150811115610a315760405162461bcd60e51b815260206004820152601c60248201527f5370656e6465723a2075736572206e6f7420656e6f756768204152430000000060448201526064016106f5565b610a3a816110fb565b600f8054906000610a4a83611423565b9091555050600f546040518381526001600160a01b0385169033907f167484914784d5fd3462b1527c5f53628c0507f9bab137dfd020c438da03fdb19060200160405180910390a4506105cd6001600555565b610aa5610e0c565b6001600160a01b03166000908152600c60205260409020805460ff19166001179055565b6001600160a01b038316610b2b5760405162461bcd60e51b8152602060048201526024808201527f45524332303a20617070726f76652066726f6d20746865207a65726f206164646044820152637265737360e01b60648201526084016106f5565b6001600160a01b038216610b8c5760405162461bcd60e51b815260206004820152602260248201527f45524332303a20617070726f766520746f20746865207a65726f206164647265604482015261737360f01b60648201526084016106f5565b6001600160a01b0383811660008181526001602090815260408083209487168084529482529182902085905590518481527f8c5be1e5ebec7d5bd14f71427d1e84f3dd0314c0f7b2291e5b200ac8c7c3b92591015b60405180910390a3505050565b6000610bfa8484610785565b90506000198114610c625781811015610c555760405162461bcd60e51b815260206004820152601d60248201527f45524332303a20696e73756666696369656e7420616c6c6f77616e636500000060448201526064016106f5565b610c628484848403610ac9565b50505050565b6001600160a01b038316610ccc5760405162461bcd60e51b815260206004820152602560248201527f45524332303a207472616e736665722066726f6d20746865207a65726f206164604482015264647265737360d81b60648201526084016106f5565b6001600160a01b038216610d2e5760405162461bcd60e51b815260206004820152602360248201527f45524332303a207472616e7366657220746f20746865207a65726f206164647260448201526265737360e81b60648201526084016106f5565b6001600160a01b03831660009081526020819052604090205481811015610da65760405162461bcd60e51b815260206004820152602660248201527f45524332303a207472616e7366657220616d6f756e7420657863656564732062604482015265616c616e636560d01b60648201526084016106f5565b6001600160a01b03848116600081815260208181526040808320878703905593871680835291849020805487019055925185815290927fddf252ad1be2c89b69c2b068fc378daa952ba7f163c4a11628f55a4df523b3ef910160405180910390a3610c62565b6006546001600160a01b031633146106125760405162461bcd60e51b815260206004820181905260248201527f4f776e61626c653a2063616c6c6572206973206e6f7420746865206f776e657260448201526064016106f5565b6001600160a01b038216610ebc5760405162461bcd60e51b815260206004820152601f60248201527f45524332303a206d696e7420746f20746865207a65726f20616464726573730060448201526064016106f5565b8060026000828254610ece919061137a565b90915550506001600160a01b038216600081815260208181526040808320805486019055518481527fddf252ad1be2c89b69c2b068fc378daa952ba7f163c4a11628f55a4df523b3ef910160405180910390a35050565b6001600160a01b038216610f855760405162461bcd60e51b815260206004820152602160248201527f45524332303a206275726e2066726f6d20746865207a65726f206164647265736044820152607360f81b60648201526084016106f5565b6001600160a01b03821660009081526020819052604090205481811015610ff95760405162461bcd60e51b815260206004820152602260248201527f45524332303a206275726e20616d6f756e7420657863656564732062616c616e604482015261636560f01b60648201526084016106f5565b6001600160a01b0383166000818152602081815260408083208686039055600280548790039055518581529192917fddf252ad1be2c89b69c2b068fc378daa952ba7f163c4a11628f55a4df523b3ef9101610be1565b600680546001600160a01b038381166001600160a01b0319831681179093556040519116919082907f8be0079c531659141344cd1fd0a4f28419497f9722a3daafe3b4186f6b6457e090600090a35050565b600260055414156110f45760405162461bcd60e51b815260206004820152601f60248201527f5265656e7472616e637947756172643a207265656e7472616e742063616c6c0060448201526064016106f5565b6002600555565b8060005b6009548110156111595760006111158483611163565b60008381526007602052604090205490915061113a906001600160a01b03168261070b565b5061114581846113d1565b9250508061115290611423565b90506110ff565b506105cd816105f3565b60008181526008602052604081205460649061117f90856113b2565b6111899190611392565b9392505050565b80356001600160a01b03811681146111a757600080fd5b919050565b6000602082840312156111bd578081fd5b61118982611190565b600080604083850312156111d8578081fd5b6111e183611190565b91506111ef60208401611190565b90509250929050565b600080600080600080600080610100898b031215611214578384fd5b61121d89611190565b975061122b60208a01611190565b965061123960408a01611190565b955061124760608a01611190565b979a969950949760808101359660a0820135965060c0820135955060e0909101359350915050565b600080600060608486031215611283578283fd5b61128c84611190565b925061129a60208501611190565b9150604084013590509250925092565b600080604083850312156112bc578182fd5b6112c583611190565b946020939093013593505050565b6000602082840312156112e4578081fd5b5035919050565b6000602082840312156112fc578081fd5b5051919050565b600080600060608486031215611317578283fd5b8335925061129a60208501611190565b6000602080835283518082850152825b8181101561135357858101830151858201604001528201611337565b818111156113645783604083870101525b50601f01601f1916929092016040019392505050565b6000821982111561138d5761138d61143e565b500190565b6000826113ad57634e487b7160e01b81526012600452602481fd5b500490565b60008160001904831182151516156113cc576113cc61143e565b500290565b6000828210156113e3576113e361143e565b500390565b600181811c908216806113fc57607f821691505b6020821081141561141d57634e487b7160e01b600052602260045260246000fd5b50919050565b60006000198214156114375761143761143e565b5060010190565b634e487b7160e01b600052601160045260246000fdfea2646970667358221220a8c7dc0134172498b5664318ed49fe91f6b172480d11370d47067d8065bbe29164736f6c63430008040033",
  "linkReferences": {},
  "deployedLinkReferences": {}
}