{
  "_format": "hh-sol-artifact-1",
  "contractName": "Arc",
  "sourceName": "contracts/ARC/Arc.sol",
  "abi": [
    {
      "inputs": [
        {
          "internalType": "address",
          "name": "_emissions",
          "type": "address"
        }
      ],
      "stateMutability": "nonpayable",
      "type": "constructor"
    },
    {
      "anonymous": false,
      "inputs": [
        {
          "indexed": true,
          "internalType": "address",
          "name": "owner",
          "type": "address"
        },
        {
          "indexed": true,
          "internalType": "address",
          "name": "spender",
          "type": "address"
        },
        {
          "indexed": false,
          "internalType": "uint256",
          "name": "value",
          "type": "uint256"
        }
      ],
      "name": "Approval",
      "type": "event"
    },
    {
      "anonymous": false,
      "inputs": [
        {
          "indexed": false,
          "internalType": "string[]",
          "name": "results",
          "type": "string[]"
        }
      ],
      "name": "GachaResults",
      "type": "event"
    },
    {
      "anonymous": false,
      "inputs": [
        {
          "indexed": true,
          "internalType": "address",
          "name": "previousOwner",
          "type": "address"
        },
        {
          "indexed": true,
          "internalType": "address",
          "name": "newOwner",
          "type": "address"
        }
      ],
      "name": "OwnershipTransferred",
      "type": "event"
    },
    {
      "anonymous": false,
      "inputs": [
        {
          "indexed": true,
          "internalType": "address",
          "name": "from",
          "type": "address"
        },
        {
          "indexed": true,
          "internalType": "address",
          "name": "to",
          "type": "address"
        },
        {
          "indexed": false,
          "internalType": "uint256",
          "name": "value",
          "type": "uint256"
        }
      ],
      "name": "Transfer",
      "type": "event"
    },
    {
      "inputs": [
        {
          "internalType": "address",
          "name": "_a",
          "type": "address"
        }
      ],
      "name": "addWhitelist",
      "outputs": [],
      "stateMutability": "nonpayable",
      "type": "function"
    },
    {
      "inputs": [
        {
          "internalType": "address",
          "name": "owner",
          "type": "address"
        },
        {
          "internalType": "address",
          "name": "spender",
          "type": "address"
        }
      ],
      "name": "allowance",
      "outputs": [
        {
          "internalType": "uint256",
          "name": "",
          "type": "uint256"
        }
      ],
      "stateMutability": "view",
      "type": "function"
    },
    {
      "inputs": [
        {
          "internalType": "address",
          "name": "spender",
          "type": "address"
        },
        {
          "internalType": "uint256",
          "name": "amount",
          "type": "uint256"
        }
      ],
      "name": "approve",
      "outputs": [
        {
          "internalType": "bool",
          "name": "",
          "type": "bool"
        }
      ],
      "stateMutability": "nonpayable",
      "type": "function"
    },
    {
      "inputs": [
        {
          "internalType": "address",
          "name": "account",
          "type": "address"
        }
      ],
      "name": "balanceOf",
      "outputs": [
        {
          "internalType": "uint256",
          "name": "",
          "type": "uint256"
        }
      ],
      "stateMutability": "view",
      "type": "function"
    },
    {
      "inputs": [
        {
          "internalType": "uint256",
          "name": "amount",
          "type": "uint256"
        }
      ],
      "name": "burn",
      "outputs": [],
      "stateMutability": "nonpayable",
      "type": "function"
    },
    {
      "inputs": [
        {
          "internalType": "address",
          "name": "account",
          "type": "address"
        },
        {
          "internalType": "uint256",
          "name": "amount",
          "type": "uint256"
        }
      ],
      "name": "burnFrom",
      "outputs": [],
      "stateMutability": "nonpayable",
      "type": "function"
    },
    {
      "inputs": [
        {
          "internalType": "address",
          "name": "_marketAddress",
          "type": "address"
        },
        {
          "internalType": "uint256",
          "name": "_marketplaceId",
          "type": "uint256"
        }
      ],
      "name": "buyNFTFromMarketplace",
      "outputs": [],
      "stateMutability": "nonpayable",
      "type": "function"
    },
    {
      "inputs": [],
      "name": "decimals",
      "outputs": [
        {
          "internalType": "uint8",
          "name": "",
          "type": "uint8"
        }
      ],
      "stateMutability": "view",
      "type": "function"
    },
    {
      "inputs": [
        {
          "internalType": "address",
          "name": "spender",
          "type": "address"
        },
        {
          "internalType": "uint256",
          "name": "subtractedValue",
          "type": "uint256"
        }
      ],
      "name": "decreaseAllowance",
      "outputs": [
        {
          "internalType": "bool",
          "name": "",
          "type": "bool"
        }
      ],
      "stateMutability": "nonpayable",
      "type": "function"
    },
    {
      "inputs": [],
      "name": "emissions",
      "outputs": [
        {
          "internalType": "address",
          "name": "",
          "type": "address"
        }
      ],
      "stateMutability": "view",
      "type": "function"
    },
    {
      "inputs": [],
      "name": "gacha",
      "outputs": [
        {
          "internalType": "contract IGacha",
          "name": "",
          "type": "address"
        }
      ],
      "stateMutability": "view",
      "type": "function"
    },
    {
      "inputs": [
        {
          "internalType": "address",
          "name": "_a",
          "type": "address"
        }
      ],
      "name": "getIsWhitelisted",
      "outputs": [
        {
          "internalType": "bool",
          "name": "",
          "type": "bool"
        }
      ],
      "stateMutability": "view",
      "type": "function"
    },
    {
      "inputs": [],
      "name": "girls",
      "outputs": [
        {
          "internalType": "contract IERC721",
          "name": "",
          "type": "address"
        }
      ],
      "stateMutability": "view",
      "type": "function"
    },
    {
      "inputs": [
        {
          "internalType": "address",
          "name": "spender",
          "type": "address"
        },
        {
          "internalType": "uint256",
          "name": "addedValue",
          "type": "uint256"
        }
      ],
      "name": "increaseAllowance",
      "outputs": [
        {
          "internalType": "bool",
          "name": "",
          "type": "bool"
        }
      ],
      "stateMutability": "nonpayable",
      "type": "function"
    },
    {
      "inputs": [
        {
          "internalType": "address",
          "name": "",
          "type": "address"
        }
      ],
      "name": "isWhitelisted",
      "outputs": [
        {
          "internalType": "bool",
          "name": "",
          "type": "bool"
        }
      ],
      "stateMutability": "view",
      "type": "function"
    },
    {
      "inputs": [],
      "name": "marketplace",
      "outputs": [
        {
          "internalType": "contract IMarketplace",
          "name": "",
          "type": "address"
        }
      ],
      "stateMutability": "view",
      "type": "function"
    },
    {
      "inputs": [],
      "name": "marketplaceFee",
      "outputs": [
        {
          "internalType": "uint256",
          "name": "",
          "type": "uint256"
        }
      ],
      "stateMutability": "view",
      "type": "function"
    },
    {
      "inputs": [],
      "name": "maxSupply",
      "outputs": [
        {
          "internalType": "uint256",
          "name": "",
          "type": "uint256"
        }
      ],
      "stateMutability": "view",
      "type": "function"
    },
    {
      "inputs": [],
      "name": "name",
      "outputs": [
        {
          "internalType": "string",
          "name": "",
          "type": "string"
        }
      ],
      "stateMutability": "view",
      "type": "function"
    },
    {
      "inputs": [],
      "name": "owner",
      "outputs": [
        {
          "internalType": "address",
          "name": "",
          "type": "address"
        }
      ],
      "stateMutability": "view",
      "type": "function"
    },
    {
      "inputs": [
        {
          "internalType": "uint256",
          "name": "",
          "type": "uint256"
        }
      ],
      "name": "payeeAddress",
      "outputs": [
        {
          "internalType": "address",
          "name": "",
          "type": "address"
        }
      ],
      "stateMutability": "view",
      "type": "function"
    },
    {
      "inputs": [
        {
          "internalType": "uint256",
          "name": "",
          "type": "uint256"
        }
      ],
      "name": "payeePerc",
      "outputs": [
        {
          "internalType": "uint256",
          "name": "",
          "type": "uint256"
        }
      ],
      "stateMutability": "view",
      "type": "function"
    },
    {
      "inputs": [],
      "name": "payees",
      "outputs": [
        {
          "internalType": "uint256",
          "name": "",
          "type": "uint256"
        }
      ],
      "stateMutability": "view",
      "type": "function"
    },
    {
      "inputs": [
        {
          "internalType": "address",
          "name": "_a",
          "type": "address"
        }
      ],
      "name": "removeWhitelist",
      "outputs": [],
      "stateMutability": "nonpayable",
      "type": "function"
    },
    {
      "inputs": [],
      "name": "renounceOwnership",
      "outputs": [],
      "stateMutability": "nonpayable",
      "type": "function"
    },
    {
      "inputs": [
        {
          "internalType": "address",
          "name": "_emissions",
          "type": "address"
        }
      ],
      "name": "setEmissionsContract",
      "outputs": [],
      "stateMutability": "nonpayable",
      "type": "function"
    },
    {
      "inputs": [
        {
          "internalType": "address",
          "name": "_girlContractAddress",
          "type": "address"
        }
      ],
      "name": "setGirlContract",
      "outputs": [],
      "stateMutability": "nonpayable",
      "type": "function"
    },
    {
      "inputs": [
        {
          "internalType": "address",
          "name": "_a",
          "type": "address"
        },
        {
          "internalType": "address",
          "name": "_b",
          "type": "address"
        },
        {
          "internalType": "address",
          "name": "_c",
          "type": "address"
        },
        {
          "internalType": "address",
          "name": "_d",
          "type": "address"
        },
        {
          "internalType": "uint256",
          "name": "_aPerc",
          "type": "uint256"
        },
        {
          "internalType": "uint256",
          "name": "_bPerc",
          "type": "uint256"
        },
        {
          "internalType": "uint256",
          "name": "_cPerc",
          "type": "uint256"
        },
        {
          "internalType": "uint256",
          "name": "_dPerc",
          "type": "uint256"
        }
      ],
      "name": "setInitialPayees",
      "outputs": [],
      "stateMutability": "nonpayable",
      "type": "function"
    },
    {
      "inputs": [
        {
          "internalType": "uint256",
          "name": "_fee",
          "type": "uint256"
        }
      ],
      "name": "setMarketplaceFee",
      "outputs": [],
      "stateMutability": "nonpayable",
      "type": "function"
    },
    {
      "inputs": [
        {
          "internalType": "uint256",
          "name": "_id",
          "type": "uint256"
        },
        {
          "internalType": "address",
          "name": "_addr",
          "type": "address"
        },
        {
          "internalType": "uint256",
          "name": "_perc",
          "type": "uint256"
        }
      ],
      "name": "setPayee",
      "outputs": [],
      "stateMutability": "nonpayable",
      "type": "function"
    },
    {
      "inputs": [
        {
          "internalType": "address",
          "name": "_gachaAddress",
          "type": "address"
        },
        {
          "internalType": "uint256",
          "name": "_amount",
          "type": "uint256"
        }
      ],
      "name": "spinGacha",
      "outputs": [],
      "stateMutability": "nonpayable",
      "type": "function"
    },
    {
      "inputs": [],
      "name": "symbol",
      "outputs": [
        {
          "internalType": "string",
          "name": "",
          "type": "string"
        }
      ],
      "stateMutability": "view",
      "type": "function"
    },
    {
      "inputs": [],
      "name": "totalSupply",
      "outputs": [
        {
          "internalType": "uint256",
          "name": "",
          "type": "uint256"
        }
      ],
      "stateMutability": "view",
      "type": "function"
    },
    {
      "inputs": [
        {
          "internalType": "address",
          "name": "to",
          "type": "address"
        },
        {
          "internalType": "uint256",
          "name": "amount",
          "type": "uint256"
        }
      ],
      "name": "transfer",
      "outputs": [
        {
          "internalType": "bool",
          "name": "",
          "type": "bool"
        }
      ],
      "stateMutability": "nonpayable",
      "type": "function"
    },
    {
      "inputs": [
        {
          "internalType": "address",
          "name": "from",
          "type": "address"
        },
        {
          "internalType": "address",
          "name": "to",
          "type": "address"
        },
        {
          "internalType": "uint256",
          "name": "amount",
          "type": "uint256"
        }
      ],
      "name": "transferFrom",
      "outputs": [
        {
          "internalType": "bool",
          "name": "",
          "type": "bool"
        }
      ],
      "stateMutability": "nonpayable",
      "type": "function"
    },
    {
      "inputs": [
        {
          "internalType": "address",
          "name": "newOwner",
          "type": "address"
        }
      ],
      "name": "transferOwnership",
      "outputs": [],
      "stateMutability": "nonpayable",
      "type": "function"
    }
  ],
  "bytecode": "0x608060405260046009556a295be96e640669720000006010553480156200002557600080fd5b5060405162001e8938038062001e898339810160408190526200004891620003b3565b604080518082018252600c81526b1511d1cb505c98cb55195cdd60a21b6020808301918252835180850190945260078452661511d1cb584b5d60ca1b9084015281519192916200009b916003916200030d565b508051620000b19060049060208401906200030d565b5050600160055550620000c43362000139565b620000cf816200018b565b620000db6005620001b7565b6200010333620000ee6012600a62000447565b620000fd9062e94e9062000508565b620001c6565b600e5462000132906001600160a01b0316620001226012600a62000447565b620000fd90630211a1f062000508565b506200057d565b600680546001600160a01b038381166001600160a01b0319831681179093556040519116919082907f8be0079c531659141344cd1fd0a4f28419497f9722a3daafe3b4186f6b6457e090600090a35050565b62000195620002af565b600e80546001600160a01b0319166001600160a01b0392909216919091179055565b620001c1620002af565b600f55565b6001600160a01b038216620002225760405162461bcd60e51b815260206004820152601f60248201527f45524332303a206d696e7420746f20746865207a65726f20616464726573730060448201526064015b60405180910390fd5b8060026000828254620002369190620003e3565b90915550506001600160a01b0382166000908152602081905260408120805483929062000265908490620003e3565b90915550506040518181526001600160a01b038316906000907fddf252ad1be2c89b69c2b068fc378daa952ba7f163c4a11628f55a4df523b3ef9060200160405180910390a35050565b6006546001600160a01b031633146200030b5760405162461bcd60e51b815260206004820181905260248201527f4f776e61626c653a2063616c6c6572206973206e6f7420746865206f776e6572604482015260640162000219565b565b8280546200031b906200052a565b90600052602060002090601f0160209004810192826200033f57600085556200038a565b82601f106200035a57805160ff19168380011785556200038a565b828001600101855582156200038a579182015b828111156200038a5782518255916020019190600101906200036d565b50620003989291506200039c565b5090565b5b808211156200039857600081556001016200039d565b600060208284031215620003c5578081fd5b81516001600160a01b0381168114620003dc578182fd5b9392505050565b60008219821115620003f957620003f962000567565b500190565b600181815b808511156200043f57816000190482111562000423576200042362000567565b808516156200043157918102915b93841c939080029062000403565b509250929050565b6000620003dc60ff841683600082620004635750600162000502565b81620004725750600062000502565b81600181146200048b57600281146200049657620004b6565b600191505062000502565b60ff841115620004aa57620004aa62000567565b50506001821b62000502565b5060208310610133831016604e8410600b8410161715620004db575081810a62000502565b620004e78383620003fe565b8060001904821115620004fe57620004fe62000567565b0290505b92915050565b600081600019048311821515161562000525576200052562000567565b500290565b600181811c908216806200053f57607f821691505b602082108114156200056157634e487b7160e01b600052602260045260246000fd5b50919050565b634e487b7160e01b600052601160045260246000fd5b6118fc806200058d6000396000f3fe608060405234801561001057600080fd5b506004361061021c5760003560e01c806384eda54411610125578063abc8c7af116100ad578063dd62ed3e1161007c578063dd62ed3e146104ca578063df238800146104dd578063f2fde38b146104f0578063f413143314610503578063f80f5dd51461051657600080fd5b8063abc8c7af1461047b578063d0a723d21461048e578063d5abeb01146104a1578063d73a5865146104aa57600080fd5b8063948142bb116100f4578063948142bb1461042757806395d89b411461043a578063a457c2d714610442578063a9059cbb14610455578063a9c353341461046857600080fd5b806384eda544146103c45780638da5cb5b146103d7578063938f296c146103e85780639407ea981461041457600080fd5b80633fdc2590116101a85780636a166964116101775780636a1669641461036457806370a082311461036d578063715018a61461039657806378c8cda71461039e57806379cc6790146103b157600080fd5b80633fdc25901461032057806342966c68146103335780634e8086aa1461034857806354e051901461035157600080fd5b806323b872dd116101ef57806323b872dd1461029f578063313ce567146102b2578063347206f7146102c157806339509351146102ea5780633af32abf146102fd57600080fd5b806306fdde0314610221578063095ea7b31461023f57806318160ddd146102625780632267716c14610274575b600080fd5b610229610529565b6040516102369190611751565b60405180910390f35b61025261024d366004611554565b6105bb565b6040519015158152602001610236565b6002545b604051908152602001610236565b600e54610287906001600160a01b031681565b6040516001600160a01b039091168152602001610236565b6102526102ad366004611514565b6105d3565b60405160128152602001610236565b6102876102cf36600461166e565b6007602052600090815260409020546001600160a01b031681565b6102526102f8366004611554565b6105f7565b61025261030b366004611441565b600d6020526000908152604090205460ff1681565b600a54610287906001600160a01b031681565b61034661034136600461166e565b610619565b005b61026660095481565b61034661035f366004611554565b610626565b610266600f5481565b61026661037b366004611441565b6001600160a01b031660009081526020819052604090205490565b610346610827565b6103466103ac366004611441565b61083b565b6103466103bf366004611554565b610864565b6103466103d2366004611441565b61087d565b6006546001600160a01b0316610287565b6102526103f6366004611441565b6001600160a01b03166000908152600d602052604090205460ff1690565b61034661042236600461166e565b6108a7565b600b54610287906001600160a01b031681565b6102296108b4565b610252610450366004611554565b6108c3565b610252610463366004611554565b61093e565b610346610476366004611441565b61094c565b600c54610287906001600160a01b031681565b61034661049c366004611495565b610976565b61026660105481565b6102666104b836600461166e565b60086020526000908152604090205481565b6102666104d836600461145d565b6109b8565b6103466104eb36600461169e565b6109e3565b6103466104fe366004611441565b610a24565b610346610511366004611554565b610a9a565b610346610524366004611441565b610d8a565b6060600380546105389061182f565b80601f01602080910402602001604051908101604052809291908181526020018280546105649061182f565b80156105b15780601f10610586576101008083540402835291602001916105b1565b820191906000526020600020905b81548152906001019060200180831161059457829003601f168201915b5050505050905090565b6000336105c9818585610db6565b5060019392505050565b6000336105e1858285610edb565b6105ec858585610f55565b506001949350505050565b6000336105c981858561060a83836109b8565b6106149190611795565b610db6565b6106233382611123565b50565b6002600554141561067e5760405162461bcd60e51b815260206004820152601f60248201527f5265656e7472616e637947756172643a207265656e7472616e742063616c6c0060448201526064015b60405180910390fd5b60026005556001600160a01b0382166000908152600d602052604090205460ff166106eb5760405162461bcd60e51b815260206004820152601f60248201527f5370656e6465723a204d61726b6574206e6f742077686974656c6973746564006044820152606401610675565b600c80546001600160a01b0319166001600160a01b03841690811790915560405163a82ba76f60e01b815233600482015260248101839052600091829163a82ba76f906044016040805180830381600087803b15801561074a57600080fd5b505af115801561075e573d6000803e3d6000fd5b505050506040513d601f19601f82011682018060405250810190610782919061157f565b3360009081526020819052604090205491935091508111156107f15760405162461bcd60e51b815260206004820152602260248201527f45534d61726b6574706c6163653a2075736572206e6f7420656e6f7567682041604482015261524360f01b6064820152608401610675565b60006107fc82611269565b9050610808838261093e565b5061081b61081682846117ec565b611296565b50506001600555505050565b61082f6112fe565b6108396000611358565b565b6108436112fe565b6001600160a01b03166000908152600d60205260409020805460ff19169055565b61086f823383610edb565b6108798282611123565b5050565b6108856112fe565b600a80546001600160a01b0319166001600160a01b0392909216919091179055565b6108af6112fe565b600f55565b6060600480546105389061182f565b600033816108d182866109b8565b9050838110156109315760405162461bcd60e51b815260206004820152602560248201527f45524332303a2064656372656173656420616c6c6f77616e63652062656c6f77604482015264207a65726f60d81b6064820152608401610675565b6105ec8286868403610db6565b6000336105c9818585610f55565b6109546112fe565b600e80546001600160a01b0319166001600160a01b0392909216919091179055565b61097e6112fe565b61098a600089866109e3565b610996600188856109e3565b6109a2600287846109e3565b6109ae600386836109e3565b5050505050505050565b6001600160a01b03918216600090815260016020908152604080832093909416825291909152205490565b6109eb6112fe565b600092835260076020908152604080852080546001600160a01b0319166001600160a01b03959095169490941790935560089052912055565b610a2c6112fe565b6001600160a01b038116610a915760405162461bcd60e51b815260206004820152602660248201527f4f776e61626c653a206e6577206f776e657220697320746865207a65726f206160448201526564647265737360d01b6064820152608401610675565b61062381611358565b60026005541415610aed5760405162461bcd60e51b815260206004820152601f60248201527f5265656e7472616e637947756172643a207265656e7472616e742063616c6c006044820152606401610675565b60026005556001600160a01b0382166000908152600d602052604090205460ff16610b5a5760405162461bcd60e51b815260206004820152601e60248201527f5370656e6465723a204761636861206e6f742077686974656c697374656400006044820152606401610675565b8060011480610b69575080600a145b610bb55760405162461bcd60e51b815260206004820181905260248201527f5370656e6465723a207370696e2031206f722031302074696d6573206f6e6c796044820152606401610675565b600b80546001600160a01b0319166001600160a01b03841690811790915560408051632f4f867560e21b815290516000928492909163bd3e19d491600480820192602092909190829003018186803b158015610c1057600080fd5b505afa158015610c24573d6000803e3d6000fd5b505050506040513d601f19601f82011682018060405250810190610c489190611686565b610c5291906117cd565b33600090815260208190526040902054909150811115610cb45760405162461bcd60e51b815260206004820152601c60248201527f5370656e6465723a2075736572206e6f7420656e6f75676820415243000000006044820152606401610675565b610cbd81611296565b600b5460405163d37d753f60e01b8152336004820152602481018490526000916001600160a01b03169063d37d753f90604401600060405180830381600087803b158015610d0a57600080fd5b505af1158015610d1e573d6000803e3d6000fd5b505050506040513d6000823e601f3d908101601f19168201604052610d4691908101906115ac565b90507f519a41995e277465e15d78dc01a8a1dcc6fa0e3a714980772f44c16e7c7c4b2b81604051610d7791906116f0565b60405180910390a1505060016005555050565b610d926112fe565b6001600160a01b03166000908152600d60205260409020805460ff19166001179055565b6001600160a01b038316610e185760405162461bcd60e51b8152602060048201526024808201527f45524332303a20617070726f76652066726f6d20746865207a65726f206164646044820152637265737360e01b6064820152608401610675565b6001600160a01b038216610e795760405162461bcd60e51b815260206004820152602260248201527f45524332303a20617070726f766520746f20746865207a65726f206164647265604482015261737360f01b6064820152608401610675565b6001600160a01b0383811660008181526001602090815260408083209487168084529482529182902085905590518481527f8c5be1e5ebec7d5bd14f71427d1e84f3dd0314c0f7b2291e5b200ac8c7c3b92591015b60405180910390a3505050565b6000610ee784846109b8565b90506000198114610f4f5781811015610f425760405162461bcd60e51b815260206004820152601d60248201527f45524332303a20696e73756666696369656e7420616c6c6f77616e63650000006044820152606401610675565b610f4f8484848403610db6565b50505050565b6001600160a01b038316610fb95760405162461bcd60e51b815260206004820152602560248201527f45524332303a207472616e736665722066726f6d20746865207a65726f206164604482015264647265737360d81b6064820152608401610675565b6001600160a01b03821661101b5760405162461bcd60e51b815260206004820152602360248201527f45524332303a207472616e7366657220746f20746865207a65726f206164647260448201526265737360e81b6064820152608401610675565b6001600160a01b038316600090815260208190526040902054818110156110935760405162461bcd60e51b815260206004820152602660248201527f45524332303a207472616e7366657220616d6f756e7420657863656564732062604482015265616c616e636560d01b6064820152608401610675565b6001600160a01b038085166000908152602081905260408082208585039055918516815290812080548492906110ca908490611795565b92505081905550826001600160a01b0316846001600160a01b03167fddf252ad1be2c89b69c2b068fc378daa952ba7f163c4a11628f55a4df523b3ef8460405161111691815260200190565b60405180910390a3610f4f565b6001600160a01b0382166111835760405162461bcd60e51b815260206004820152602160248201527f45524332303a206275726e2066726f6d20746865207a65726f206164647265736044820152607360f81b6064820152608401610675565b6001600160a01b038216600090815260208190526040902054818110156111f75760405162461bcd60e51b815260206004820152602260248201527f45524332303a206275726e20616d6f756e7420657863656564732062616c616e604482015261636560f01b6064820152608401610675565b6001600160a01b03831660009081526020819052604081208383039055600280548492906112269084906117ec565b90915550506040518281526000906001600160a01b038516907fddf252ad1be2c89b69c2b068fc378daa952ba7f163c4a11628f55a4df523b3ef90602001610ece565b60006064600f54606461127c91906117ec565b61128690846117cd565b61129091906117ad565b92915050565b8060005b6009548110156112f45760006112b084836113aa565b6000838152600760205260409020549091506112d5906001600160a01b03168261093e565b506112e081846117ec565b925050806112ed9061186a565b905061129a565b5061087981610619565b6006546001600160a01b031633146108395760405162461bcd60e51b815260206004820181905260248201527f4f776e61626c653a2063616c6c6572206973206e6f7420746865206f776e65726044820152606401610675565b600680546001600160a01b038381166001600160a01b0319831681179093556040519116919082907f8be0079c531659141344cd1fd0a4f28419497f9722a3daafe3b4186f6b6457e090600090a35050565b6000818152600860205260408120546064906113c690856117cd565b6113d091906117ad565b9392505050565b600082601f8301126113e7578081fd5b815167ffffffffffffffff8111156114015761140161189b565b611414601f8201601f1916602001611764565b818152846020838601011115611428578283fd5b611439826020830160208701611803565b949350505050565b600060208284031215611452578081fd5b81356113d0816118b1565b6000806040838503121561146f578081fd5b823561147a816118b1565b9150602083013561148a816118b1565b809150509250929050565b600080600080600080600080610100898b0312156114b1578384fd5b88356114bc816118b1565b975060208901356114cc816118b1565b965060408901356114dc816118b1565b955060608901356114ec816118b1565b979a969950949760808101359660a0820135965060c0820135955060e0909101359350915050565b600080600060608486031215611528578283fd5b8335611533816118b1565b92506020840135611543816118b1565b929592945050506040919091013590565b60008060408385031215611566578182fd5b8235611571816118b1565b946020939093013593505050565b60008060408385031215611591578182fd5b825161159c816118b1565b6020939093015192949293505050565b600060208083850312156115be578182fd5b825167ffffffffffffffff808211156115d5578384fd5b818501915085601f8301126115e8578384fd5b8151818111156115fa576115fa61189b565b8060051b611609858201611764565b8281528581019085870183870188018b1015611623578889fd5b8893505b848410156116605780518681111561163d57898afd5b61164b8c8a838b01016113d7565b84525060019390930192918701918701611627565b509998505050505050505050565b60006020828403121561167f578081fd5b5035919050565b600060208284031215611697578081fd5b5051919050565b6000806000606084860312156116b2578283fd5b833592506020840135611543816118b1565b600081518084526116dc816020860160208601611803565b601f01601f19169290920160200192915050565b6000602080830181845280855180835260408601915060408160051b8701019250838701855b8281101561174457603f198886030184526117328583516116c4565b94509285019290850190600101611716565b5092979650505050505050565b6020815260006113d060208301846116c4565b604051601f8201601f1916810167ffffffffffffffff8111828210171561178d5761178d61189b565b604052919050565b600082198211156117a8576117a8611885565b500190565b6000826117c857634e487b7160e01b81526012600452602481fd5b500490565b60008160001904831182151516156117e7576117e7611885565b500290565b6000828210156117fe576117fe611885565b500390565b60005b8381101561181e578181015183820152602001611806565b83811115610f4f5750506000910152565b600181811c9082168061184357607f821691505b6020821081141561186457634e487b7160e01b600052602260045260246000fd5b50919050565b600060001982141561187e5761187e611885565b5060010190565b634e487b7160e01b600052601160045260246000fd5b634e487b7160e01b600052604160045260246000fd5b6001600160a01b038116811461062357600080fdfea26469706673582212207ebc1c016da4c0e62bc83a56e52e4823345832ec29c4b3c6a48742450f19d2a564736f6c63430008040033",
  "linkReferences": {},
  "deployedLinkReferences": {}
}