{
  "_format": "hh-sol-artifact-1",
  "contractName": "Arc",
  "sourceName": "contracts/ARC/Arc.sol",
  "abi": [
    {
      "inputs": [
        {
          "internalType": "address",
          "name": "_emissions",
          "type": "address"
        }
      ],
      "stateMutability": "nonpayable",
      "type": "constructor"
    },
    {
      "anonymous": false,
      "inputs": [
        {
          "indexed": true,
          "internalType": "address",
          "name": "owner",
          "type": "address"
        },
        {
          "indexed": true,
          "internalType": "address",
          "name": "spender",
          "type": "address"
        },
        {
          "indexed": false,
          "internalType": "uint256",
          "name": "value",
          "type": "uint256"
        }
      ],
      "name": "Approval",
      "type": "event"
    },
    {
      "anonymous": false,
      "inputs": [
        {
          "indexed": true,
          "internalType": "address",
          "name": "user",
          "type": "address"
        },
        {
          "indexed": true,
          "internalType": "address",
          "name": "gachaAddress",
          "type": "address"
        },
        {
          "indexed": true,
          "internalType": "string",
          "name": "method",
          "type": "string"
        },
        {
          "indexed": false,
          "internalType": "uint256",
          "name": "amount",
          "type": "uint256"
        }
      ],
      "name": "GachaSpun",
      "type": "event"
    },
    {
      "anonymous": false,
      "inputs": [
        {
          "indexed": true,
          "internalType": "address",
          "name": "previousOwner",
          "type": "address"
        },
        {
          "indexed": true,
          "internalType": "address",
          "name": "newOwner",
          "type": "address"
        }
      ],
      "name": "OwnershipTransferred",
      "type": "event"
    },
    {
      "anonymous": false,
      "inputs": [
        {
          "indexed": true,
          "internalType": "address",
          "name": "from",
          "type": "address"
        },
        {
          "indexed": true,
          "internalType": "address",
          "name": "to",
          "type": "address"
        },
        {
          "indexed": false,
          "internalType": "uint256",
          "name": "value",
          "type": "uint256"
        }
      ],
      "name": "Transfer",
      "type": "event"
    },
    {
      "inputs": [
        {
          "internalType": "address",
          "name": "_a",
          "type": "address"
        }
      ],
      "name": "addWhitelist",
      "outputs": [],
      "stateMutability": "nonpayable",
      "type": "function"
    },
    {
      "inputs": [
        {
          "internalType": "address",
          "name": "owner",
          "type": "address"
        },
        {
          "internalType": "address",
          "name": "spender",
          "type": "address"
        }
      ],
      "name": "allowance",
      "outputs": [
        {
          "internalType": "uint256",
          "name": "",
          "type": "uint256"
        }
      ],
      "stateMutability": "view",
      "type": "function"
    },
    {
      "inputs": [
        {
          "internalType": "address",
          "name": "spender",
          "type": "address"
        },
        {
          "internalType": "uint256",
          "name": "amount",
          "type": "uint256"
        }
      ],
      "name": "approve",
      "outputs": [
        {
          "internalType": "bool",
          "name": "",
          "type": "bool"
        }
      ],
      "stateMutability": "nonpayable",
      "type": "function"
    },
    {
      "inputs": [
        {
          "internalType": "address",
          "name": "account",
          "type": "address"
        }
      ],
      "name": "balanceOf",
      "outputs": [
        {
          "internalType": "uint256",
          "name": "",
          "type": "uint256"
        }
      ],
      "stateMutability": "view",
      "type": "function"
    },
    {
      "inputs": [
        {
          "internalType": "uint256",
          "name": "amount",
          "type": "uint256"
        }
      ],
      "name": "burn",
      "outputs": [],
      "stateMutability": "nonpayable",
      "type": "function"
    },
    {
      "inputs": [
        {
          "internalType": "address",
          "name": "account",
          "type": "address"
        },
        {
          "internalType": "uint256",
          "name": "amount",
          "type": "uint256"
        }
      ],
      "name": "burnFrom",
      "outputs": [],
      "stateMutability": "nonpayable",
      "type": "function"
    },
    {
      "inputs": [],
      "name": "decimals",
      "outputs": [
        {
          "internalType": "uint8",
          "name": "",
          "type": "uint8"
        }
      ],
      "stateMutability": "view",
      "type": "function"
    },
    {
      "inputs": [
        {
          "internalType": "address",
          "name": "spender",
          "type": "address"
        },
        {
          "internalType": "uint256",
          "name": "subtractedValue",
          "type": "uint256"
        }
      ],
      "name": "decreaseAllowance",
      "outputs": [
        {
          "internalType": "bool",
          "name": "",
          "type": "bool"
        }
      ],
      "stateMutability": "nonpayable",
      "type": "function"
    },
    {
      "inputs": [],
      "name": "emissions",
      "outputs": [
        {
          "internalType": "address",
          "name": "",
          "type": "address"
        }
      ],
      "stateMutability": "view",
      "type": "function"
    },
    {
      "inputs": [],
      "name": "gacha",
      "outputs": [
        {
          "internalType": "contract IGacha",
          "name": "",
          "type": "address"
        }
      ],
      "stateMutability": "view",
      "type": "function"
    },
    {
      "inputs": [
        {
          "internalType": "address",
          "name": "_a",
          "type": "address"
        }
      ],
      "name": "getIsWhitelisted",
      "outputs": [
        {
          "internalType": "bool",
          "name": "",
          "type": "bool"
        }
      ],
      "stateMutability": "view",
      "type": "function"
    },
    {
      "inputs": [],
      "name": "girls",
      "outputs": [
        {
          "internalType": "contract IERC721",
          "name": "",
          "type": "address"
        }
      ],
      "stateMutability": "view",
      "type": "function"
    },
    {
      "inputs": [
        {
          "internalType": "address",
          "name": "spender",
          "type": "address"
        },
        {
          "internalType": "uint256",
          "name": "addedValue",
          "type": "uint256"
        }
      ],
      "name": "increaseAllowance",
      "outputs": [
        {
          "internalType": "bool",
          "name": "",
          "type": "bool"
        }
      ],
      "stateMutability": "nonpayable",
      "type": "function"
    },
    {
      "inputs": [
        {
          "internalType": "address",
          "name": "",
          "type": "address"
        }
      ],
      "name": "isWhitelisted",
      "outputs": [
        {
          "internalType": "bool",
          "name": "",
          "type": "bool"
        }
      ],
      "stateMutability": "view",
      "type": "function"
    },
    {
      "inputs": [],
      "name": "maxSupply",
      "outputs": [
        {
          "internalType": "uint256",
          "name": "",
          "type": "uint256"
        }
      ],
      "stateMutability": "view",
      "type": "function"
    },
    {
      "inputs": [
        {
          "internalType": "address",
          "name": "_to",
          "type": "address"
        },
        {
          "internalType": "uint256",
          "name": "amount",
          "type": "uint256"
        }
      ],
      "name": "mintDev",
      "outputs": [],
      "stateMutability": "nonpayable",
      "type": "function"
    },
    {
      "inputs": [],
      "name": "name",
      "outputs": [
        {
          "internalType": "string",
          "name": "",
          "type": "string"
        }
      ],
      "stateMutability": "view",
      "type": "function"
    },
    {
      "inputs": [],
      "name": "owner",
      "outputs": [
        {
          "internalType": "address",
          "name": "",
          "type": "address"
        }
      ],
      "stateMutability": "view",
      "type": "function"
    },
    {
      "inputs": [
        {
          "internalType": "uint256",
          "name": "",
          "type": "uint256"
        }
      ],
      "name": "payeeAddress",
      "outputs": [
        {
          "internalType": "address",
          "name": "",
          "type": "address"
        }
      ],
      "stateMutability": "view",
      "type": "function"
    },
    {
      "inputs": [
        {
          "internalType": "uint256",
          "name": "",
          "type": "uint256"
        }
      ],
      "name": "payeePerc",
      "outputs": [
        {
          "internalType": "uint256",
          "name": "",
          "type": "uint256"
        }
      ],
      "stateMutability": "view",
      "type": "function"
    },
    {
      "inputs": [],
      "name": "payees",
      "outputs": [
        {
          "internalType": "uint256",
          "name": "",
          "type": "uint256"
        }
      ],
      "stateMutability": "view",
      "type": "function"
    },
    {
      "inputs": [
        {
          "internalType": "address",
          "name": "_a",
          "type": "address"
        }
      ],
      "name": "removeWhitelist",
      "outputs": [],
      "stateMutability": "nonpayable",
      "type": "function"
    },
    {
      "inputs": [],
      "name": "renounceOwnership",
      "outputs": [],
      "stateMutability": "nonpayable",
      "type": "function"
    },
    {
      "inputs": [
        {
          "internalType": "address",
          "name": "_emissions",
          "type": "address"
        }
      ],
      "name": "setEmissionsContract",
      "outputs": [],
      "stateMutability": "nonpayable",
      "type": "function"
    },
    {
      "inputs": [
        {
          "internalType": "address",
          "name": "_girlContractAddress",
          "type": "address"
        }
      ],
      "name": "setGirlContract",
      "outputs": [],
      "stateMutability": "nonpayable",
      "type": "function"
    },
    {
      "inputs": [
        {
          "internalType": "address",
          "name": "_a",
          "type": "address"
        },
        {
          "internalType": "address",
          "name": "_b",
          "type": "address"
        },
        {
          "internalType": "address",
          "name": "_c",
          "type": "address"
        },
        {
          "internalType": "address",
          "name": "_d",
          "type": "address"
        },
        {
          "internalType": "uint256",
          "name": "_aPerc",
          "type": "uint256"
        },
        {
          "internalType": "uint256",
          "name": "_bPerc",
          "type": "uint256"
        },
        {
          "internalType": "uint256",
          "name": "_cPerc",
          "type": "uint256"
        },
        {
          "internalType": "uint256",
          "name": "_dPerc",
          "type": "uint256"
        }
      ],
      "name": "setInitialPayees",
      "outputs": [],
      "stateMutability": "nonpayable",
      "type": "function"
    },
    {
      "inputs": [
        {
          "internalType": "uint256",
          "name": "_id",
          "type": "uint256"
        },
        {
          "internalType": "address",
          "name": "_addr",
          "type": "address"
        },
        {
          "internalType": "uint256",
          "name": "_perc",
          "type": "uint256"
        }
      ],
      "name": "setPayee",
      "outputs": [],
      "stateMutability": "nonpayable",
      "type": "function"
    },
    {
      "inputs": [
        {
          "internalType": "address",
          "name": "_gachaAddress",
          "type": "address"
        },
        {
          "internalType": "uint256",
          "name": "_amount",
          "type": "uint256"
        }
      ],
      "name": "spinGacha",
      "outputs": [],
      "stateMutability": "nonpayable",
      "type": "function"
    },
    {
      "inputs": [],
      "name": "symbol",
      "outputs": [
        {
          "internalType": "string",
          "name": "",
          "type": "string"
        }
      ],
      "stateMutability": "view",
      "type": "function"
    },
    {
      "inputs": [],
      "name": "totalSupply",
      "outputs": [
        {
          "internalType": "uint256",
          "name": "",
          "type": "uint256"
        }
      ],
      "stateMutability": "view",
      "type": "function"
    },
    {
      "inputs": [
        {
          "internalType": "address",
          "name": "to",
          "type": "address"
        },
        {
          "internalType": "uint256",
          "name": "amount",
          "type": "uint256"
        }
      ],
      "name": "transfer",
      "outputs": [
        {
          "internalType": "bool",
          "name": "",
          "type": "bool"
        }
      ],
      "stateMutability": "nonpayable",
      "type": "function"
    },
    {
      "inputs": [
        {
          "internalType": "address",
          "name": "from",
          "type": "address"
        },
        {
          "internalType": "address",
          "name": "to",
          "type": "address"
        },
        {
          "internalType": "uint256",
          "name": "amount",
          "type": "uint256"
        }
      ],
      "name": "transferFrom",
      "outputs": [
        {
          "internalType": "bool",
          "name": "",
          "type": "bool"
        }
      ],
      "stateMutability": "nonpayable",
      "type": "function"
    },
    {
      "inputs": [
        {
          "internalType": "address",
          "name": "newOwner",
          "type": "address"
        }
      ],
      "name": "transferOwnership",
      "outputs": [],
      "stateMutability": "nonpayable",
      "type": "function"
    }
  ],
  "bytecode": "0x608060405260046009556a295be96e64066972000000600e553480156200002557600080fd5b5060405162001a1f38038062001a1f833981016040819052620000489162000354565b604080518082018252600c81526b1511d1cb505c98cb55195cdd60a21b6020808301918252835180850190945260078452661511d1cb584b5d60ca1b9084015281519192916200009b91600391620002ae565b508051620000b1906004906020840190620002ae565b5050600160055550620000c4336200010b565b620000cf816200015d565b600d5462000104906001600160a01b0316620000ee6012600a620003e8565b620000fe90630211a1f0620004a9565b62000189565b506200051e565b600680546001600160a01b038381166001600160a01b0319831681179093556040519116919082907f8be0079c531659141344cd1fd0a4f28419497f9722a3daafe3b4186f6b6457e090600090a35050565b6200016762000250565b600d80546001600160a01b0319166001600160a01b0392909216919091179055565b6001600160a01b038216620001e55760405162461bcd60e51b815260206004820152601f60248201527f45524332303a206d696e7420746f20746865207a65726f20616464726573730060448201526064015b60405180910390fd5b8060026000828254620001f9919062000384565b90915550506001600160a01b038216600081815260208181526040808320805486019055518481527fddf252ad1be2c89b69c2b068fc378daa952ba7f163c4a11628f55a4df523b3ef910160405180910390a35050565b6006546001600160a01b03163314620002ac5760405162461bcd60e51b815260206004820181905260248201527f4f776e61626c653a2063616c6c6572206973206e6f7420746865206f776e65726044820152606401620001dc565b565b828054620002bc90620004cb565b90600052602060002090601f016020900481019282620002e057600085556200032b565b82601f10620002fb57805160ff19168380011785556200032b565b828001600101855582156200032b579182015b828111156200032b5782518255916020019190600101906200030e565b50620003399291506200033d565b5090565b5b808211156200033957600081556001016200033e565b60006020828403121562000366578081fd5b81516001600160a01b03811681146200037d578182fd5b9392505050565b600082198211156200039a576200039a62000508565b500190565b600181815b80851115620003e0578160001904821115620003c457620003c462000508565b80851615620003d257918102915b93841c9390800290620003a4565b509250929050565b60006200037d60ff8416836000826200040457506001620004a3565b816200041357506000620004a3565b81600181146200042c5760028114620004375762000457565b6001915050620004a3565b60ff8411156200044b576200044b62000508565b50506001821b620004a3565b5060208310610133831016604e8410600b84101617156200047c575081810a620004a3565b6200048883836200039f565b80600019048211156200049f576200049f62000508565b0290505b92915050565b6000816000190483118215151615620004c657620004c662000508565b500290565b600181811c90821680620004e057607f821691505b602082108114156200050257634e487b7160e01b600052602260045260246000fd5b50919050565b634e487b7160e01b600052601160045260246000fd5b6114f1806200052e6000396000f3fe608060405234801561001057600080fd5b50600436106101fb5760003560e01c806379cc67901161011a578063a9c35334116100ad578063dd62ed3e1161007c578063dd62ed3e1461047a578063df2388001461048d578063f2fde38b146104a0578063f4131433146104b3578063f80f5dd5146104c657600080fd5b8063a9c353341461042b578063d0a723d21461043e578063d5abeb0114610451578063d73a58651461045a57600080fd5b8063948142bb116100e9578063948142bb146103ea57806395d89b41146103fd578063a457c2d714610405578063a9059cbb1461041857600080fd5b806379cc67901461038757806384eda5441461039a5780638da5cb5b146103ad578063938f296c146103be57600080fd5b806339509351116101925780634e8086aa116101615780634e8086aa1461033a57806370a0823114610343578063715018a61461036c57806378c8cda71461037457600080fd5b806339509351146102de5780633af32abf146102f15780633fdc25901461031457806342966c681461032757600080fd5b806323b872dd116101ce57806323b872dd1461027e578063313ce56714610291578063324c6adc146102a0578063347206f7146102b557600080fd5b806306fdde0314610200578063095ea7b31461021e57806318160ddd146102415780632267716c14610253575b600080fd5b6102086104d9565b6040516102159190611382565b60405180910390f35b61023161022c3660046112e9565b61056b565b6040519015158152602001610215565b6002545b604051908152602001610215565b600d54610266906001600160a01b031681565b6040516001600160a01b039091168152602001610215565b61023161028c3660046112ae565b610583565b60405160128152602001610215565b6102b36102ae3660046112e9565b6105a7565b005b6102666102c3366004611312565b6007602052600090815260409020546001600160a01b031681565b6102316102ec3660046112e9565b6105bd565b6102316102ff3660046111eb565b600c6020526000908152604090205460ff1681565b600a54610266906001600160a01b031681565b6102b3610335366004611312565b6105df565b61024560095481565b6102456103513660046111eb565b6001600160a01b031660009081526020819052604090205490565b6102b36105ec565b6102b36103823660046111eb565b610600565b6102b36103953660046112e9565b610629565b6102b36103a83660046111eb565b61063e565b6006546001600160a01b0316610266565b6102316103cc3660046111eb565b6001600160a01b03166000908152600c602052604090205460ff1690565b600b54610266906001600160a01b031681565b610208610668565b6102316104133660046112e9565b610677565b6102316104263660046112e9565b6106f7565b6102b36104393660046111eb565b610705565b6102b361044c366004611237565b61072f565b610245600e5481565b610245610468366004611312565b60086020526000908152604090205481565b610245610488366004611205565b610771565b6102b361049b366004611342565b61079c565b6102b36104ae3660046111eb565b6107dd565b6102b36104c13660046112e9565b610853565b6102b36104d43660046111eb565b610adc565b6060600380546104e89061144f565b80601f01602080910402602001604051908101604052809291908181526020018280546105149061144f565b80156105615780601f1061053657610100808354040283529160200191610561565b820191906000526020600020905b81548152906001019060200180831161054457829003601f168201915b5050505050905090565b600033610579818585610b08565b5060019392505050565b600033610591858285610c2d565b61059c858585610ca7565b506001949350505050565b6105af610e4b565b6105b98282610ea5565b5050565b6000336105798185856105d08383610771565b6105da91906113b5565b610b08565b6105e93382610f64565b50565b6105f4610e4b565b6105fe600061108e565b565b610608610e4b565b6001600160a01b03166000908152600c60205260409020805460ff19169055565b610634823383610c2d565b6105b98282610f64565b610646610e4b565b600a80546001600160a01b0319166001600160a01b0392909216919091179055565b6060600480546104e89061144f565b600033816106858286610771565b9050838110156106ea5760405162461bcd60e51b815260206004820152602560248201527f45524332303a2064656372656173656420616c6c6f77616e63652062656c6f77604482015264207a65726f60d81b60648201526084015b60405180910390fd5b61059c8286868403610b08565b600033610579818585610ca7565b61070d610e4b565b600d80546001600160a01b0319166001600160a01b0392909216919091179055565b610737610e4b565b6107436000898661079c565b61074f6001888561079c565b61075b6002878461079c565b6107676003868361079c565b5050505050505050565b6001600160a01b03918216600090815260016020908152604080832093909416825291909152205490565b6107a4610e4b565b600092835260076020908152604080852080546001600160a01b0319166001600160a01b03959095169490941790935560089052912055565b6107e5610e4b565b6001600160a01b03811661084a5760405162461bcd60e51b815260206004820152602660248201527f4f776e61626c653a206e6577206f776e657220697320746865207a65726f206160448201526564647265737360d01b60648201526084016106e1565b6105e98161108e565b61085b6110e0565b6001600160a01b0382166000908152600c602052604090205460ff166108c35760405162461bcd60e51b815260206004820152601e60248201527f5370656e6465723a204761636861206e6f742077686974656c6973746564000060448201526064016106e1565b80600114806108d2575080600a145b61091e5760405162461bcd60e51b815260206004820181905260248201527f5370656e6465723a207370696e2031206f722031302074696d6573206f6e6c7960448201526064016106e1565b600b80546001600160a01b0319166001600160a01b03841690811790915560408051632f4f867560e21b815290516000928492909163bd3e19d491600480820192602092909190829003018186803b15801561097957600080fd5b505afa15801561098d573d6000803e3d6000fd5b505050506040513d601f19601f820116820180604052508101906109b1919061132a565b6109bb91906113ed565b33600090815260208190526040902054909150811115610a1d5760405162461bcd60e51b815260206004820152601c60248201527f5370656e6465723a2075736572206e6f7420656e6f756768204152430000000060448201526064016106e1565b610a268161113a565b60608260011415610a535750604080518082019091526005815264726f6c6c3160d81b6020820152610a7b565b82600a1415610a7b57506040805180820190915260068152650726f6c6c31360d41b60208201525b80604051610a899190611366565b604051908190038120848252906001600160a01b0386169033907f430feaa697905042f9c55228f6f940a40105d3a855096eb06a92cf718e2209659060200160405180910390a450506105b96001600555565b610ae4610e4b565b6001600160a01b03166000908152600c60205260409020805460ff19166001179055565b6001600160a01b038316610b6a5760405162461bcd60e51b8152602060048201526024808201527f45524332303a20617070726f76652066726f6d20746865207a65726f206164646044820152637265737360e01b60648201526084016106e1565b6001600160a01b038216610bcb5760405162461bcd60e51b815260206004820152602260248201527f45524332303a20617070726f766520746f20746865207a65726f206164647265604482015261737360f01b60648201526084016106e1565b6001600160a01b0383811660008181526001602090815260408083209487168084529482529182902085905590518481527f8c5be1e5ebec7d5bd14f71427d1e84f3dd0314c0f7b2291e5b200ac8c7c3b92591015b60405180910390a3505050565b6000610c398484610771565b90506000198114610ca15781811015610c945760405162461bcd60e51b815260206004820152601d60248201527f45524332303a20696e73756666696369656e7420616c6c6f77616e636500000060448201526064016106e1565b610ca18484848403610b08565b50505050565b6001600160a01b038316610d0b5760405162461bcd60e51b815260206004820152602560248201527f45524332303a207472616e736665722066726f6d20746865207a65726f206164604482015264647265737360d81b60648201526084016106e1565b6001600160a01b038216610d6d5760405162461bcd60e51b815260206004820152602360248201527f45524332303a207472616e7366657220746f20746865207a65726f206164647260448201526265737360e81b60648201526084016106e1565b6001600160a01b03831660009081526020819052604090205481811015610de55760405162461bcd60e51b815260206004820152602660248201527f45524332303a207472616e7366657220616d6f756e7420657863656564732062604482015265616c616e636560d01b60648201526084016106e1565b6001600160a01b03848116600081815260208181526040808320878703905593871680835291849020805487019055925185815290927fddf252ad1be2c89b69c2b068fc378daa952ba7f163c4a11628f55a4df523b3ef910160405180910390a3610ca1565b6006546001600160a01b031633146105fe5760405162461bcd60e51b815260206004820181905260248201527f4f776e61626c653a2063616c6c6572206973206e6f7420746865206f776e657260448201526064016106e1565b6001600160a01b038216610efb5760405162461bcd60e51b815260206004820152601f60248201527f45524332303a206d696e7420746f20746865207a65726f20616464726573730060448201526064016106e1565b8060026000828254610f0d91906113b5565b90915550506001600160a01b038216600081815260208181526040808320805486019055518481527fddf252ad1be2c89b69c2b068fc378daa952ba7f163c4a11628f55a4df523b3ef910160405180910390a35050565b6001600160a01b038216610fc45760405162461bcd60e51b815260206004820152602160248201527f45524332303a206275726e2066726f6d20746865207a65726f206164647265736044820152607360f81b60648201526084016106e1565b6001600160a01b038216600090815260208190526040902054818110156110385760405162461bcd60e51b815260206004820152602260248201527f45524332303a206275726e20616d6f756e7420657863656564732062616c616e604482015261636560f01b60648201526084016106e1565b6001600160a01b0383166000818152602081815260408083208686039055600280548790039055518581529192917fddf252ad1be2c89b69c2b068fc378daa952ba7f163c4a11628f55a4df523b3ef9101610c20565b600680546001600160a01b038381166001600160a01b0319831681179093556040519116919082907f8be0079c531659141344cd1fd0a4f28419497f9722a3daafe3b4186f6b6457e090600090a35050565b600260055414156111335760405162461bcd60e51b815260206004820152601f60248201527f5265656e7472616e637947756172643a207265656e7472616e742063616c6c0060448201526064016106e1565b6002600555565b8060005b60095481101561119857600061115484836111a2565b600083815260076020526040902054909150611179906001600160a01b0316826106f7565b50611184818461140c565b925050806111919061148a565b905061113e565b506105b9816105df565b6000818152600860205260408120546064906111be90856113ed565b6111c891906113cd565b9392505050565b80356001600160a01b03811681146111e657600080fd5b919050565b6000602082840312156111fc578081fd5b6111c8826111cf565b60008060408385031215611217578081fd5b611220836111cf565b915061122e602084016111cf565b90509250929050565b600080600080600080600080610100898b031215611253578384fd5b61125c896111cf565b975061126a60208a016111cf565b965061127860408a016111cf565b955061128660608a016111cf565b979a969950949760808101359660a0820135965060c0820135955060e0909101359350915050565b6000806000606084860312156112c2578283fd5b6112cb846111cf565b92506112d9602085016111cf565b9150604084013590509250925092565b600080604083850312156112fb578182fd5b611304836111cf565b946020939093013593505050565b600060208284031215611323578081fd5b5035919050565b60006020828403121561133b578081fd5b5051919050565b600080600060608486031215611356578283fd5b833592506112d9602085016111cf565b60008251611378818460208701611423565b9190910192915050565b60208152600082518060208401526113a1816040850160208701611423565b601f01601f19169190910160400192915050565b600082198211156113c8576113c86114a5565b500190565b6000826113e857634e487b7160e01b81526012600452602481fd5b500490565b6000816000190483118215151615611407576114076114a5565b500290565b60008282101561141e5761141e6114a5565b500390565b60005b8381101561143e578181015183820152602001611426565b83811115610ca15750506000910152565b600181811c9082168061146357607f821691505b6020821081141561148457634e487b7160e01b600052602260045260246000fd5b50919050565b600060001982141561149e5761149e6114a5565b5060010190565b634e487b7160e01b600052601160045260246000fdfea26469706673582212202f7704fb511859f586ad86d389aa9b0737a0f0a78c6ae35b3abe8797fccb68e464736f6c63430008040033",
  "linkReferences": {},
  "deployedLinkReferences": {}
}