{
  "_format": "hh-sol-artifact-1",
  "contractName": "Arc",
  "sourceName": "contracts/ARC/Arc.sol",
  "abi": [
    {
      "inputs": [
        {
          "internalType": "address",
          "name": "_emissions",
          "type": "address"
        }
      ],
      "stateMutability": "nonpayable",
      "type": "constructor"
    },
    {
      "anonymous": false,
      "inputs": [
        {
          "indexed": true,
          "internalType": "address",
          "name": "owner",
          "type": "address"
        },
        {
          "indexed": true,
          "internalType": "address",
          "name": "spender",
          "type": "address"
        },
        {
          "indexed": false,
          "internalType": "uint256",
          "name": "value",
          "type": "uint256"
        }
      ],
      "name": "Approval",
      "type": "event"
    },
    {
      "anonymous": false,
      "inputs": [
        {
          "indexed": false,
          "internalType": "string[]",
          "name": "results",
          "type": "string[]"
        }
      ],
      "name": "GachaResults",
      "type": "event"
    },
    {
      "anonymous": false,
      "inputs": [
        {
          "indexed": true,
          "internalType": "address",
          "name": "previousOwner",
          "type": "address"
        },
        {
          "indexed": true,
          "internalType": "address",
          "name": "newOwner",
          "type": "address"
        }
      ],
      "name": "OwnershipTransferred",
      "type": "event"
    },
    {
      "anonymous": false,
      "inputs": [
        {
          "indexed": true,
          "internalType": "address",
          "name": "from",
          "type": "address"
        },
        {
          "indexed": true,
          "internalType": "address",
          "name": "to",
          "type": "address"
        },
        {
          "indexed": false,
          "internalType": "uint256",
          "name": "value",
          "type": "uint256"
        }
      ],
      "name": "Transfer",
      "type": "event"
    },
    {
      "inputs": [
        {
          "internalType": "address",
          "name": "_a",
          "type": "address"
        }
      ],
      "name": "addWhitelist",
      "outputs": [],
      "stateMutability": "nonpayable",
      "type": "function"
    },
    {
      "inputs": [
        {
          "internalType": "address",
          "name": "owner",
          "type": "address"
        },
        {
          "internalType": "address",
          "name": "spender",
          "type": "address"
        }
      ],
      "name": "allowance",
      "outputs": [
        {
          "internalType": "uint256",
          "name": "",
          "type": "uint256"
        }
      ],
      "stateMutability": "view",
      "type": "function"
    },
    {
      "inputs": [
        {
          "internalType": "address",
          "name": "spender",
          "type": "address"
        },
        {
          "internalType": "uint256",
          "name": "amount",
          "type": "uint256"
        }
      ],
      "name": "approve",
      "outputs": [
        {
          "internalType": "bool",
          "name": "",
          "type": "bool"
        }
      ],
      "stateMutability": "nonpayable",
      "type": "function"
    },
    {
      "inputs": [
        {
          "internalType": "address",
          "name": "account",
          "type": "address"
        }
      ],
      "name": "balanceOf",
      "outputs": [
        {
          "internalType": "uint256",
          "name": "",
          "type": "uint256"
        }
      ],
      "stateMutability": "view",
      "type": "function"
    },
    {
      "inputs": [
        {
          "internalType": "uint256",
          "name": "amount",
          "type": "uint256"
        }
      ],
      "name": "burn",
      "outputs": [],
      "stateMutability": "nonpayable",
      "type": "function"
    },
    {
      "inputs": [
        {
          "internalType": "address",
          "name": "account",
          "type": "address"
        },
        {
          "internalType": "uint256",
          "name": "amount",
          "type": "uint256"
        }
      ],
      "name": "burnFrom",
      "outputs": [],
      "stateMutability": "nonpayable",
      "type": "function"
    },
    {
      "inputs": [
        {
          "internalType": "address",
          "name": "_marketAddress",
          "type": "address"
        },
        {
          "internalType": "uint256",
          "name": "_marketplaceId",
          "type": "uint256"
        }
      ],
      "name": "buyNFTFromMarketplace",
      "outputs": [],
      "stateMutability": "nonpayable",
      "type": "function"
    },
    {
      "inputs": [],
      "name": "decimals",
      "outputs": [
        {
          "internalType": "uint8",
          "name": "",
          "type": "uint8"
        }
      ],
      "stateMutability": "view",
      "type": "function"
    },
    {
      "inputs": [
        {
          "internalType": "address",
          "name": "spender",
          "type": "address"
        },
        {
          "internalType": "uint256",
          "name": "subtractedValue",
          "type": "uint256"
        }
      ],
      "name": "decreaseAllowance",
      "outputs": [
        {
          "internalType": "bool",
          "name": "",
          "type": "bool"
        }
      ],
      "stateMutability": "nonpayable",
      "type": "function"
    },
    {
      "inputs": [],
      "name": "emissions",
      "outputs": [
        {
          "internalType": "address",
          "name": "",
          "type": "address"
        }
      ],
      "stateMutability": "view",
      "type": "function"
    },
    {
      "inputs": [],
      "name": "gacha",
      "outputs": [
        {
          "internalType": "contract IGacha",
          "name": "",
          "type": "address"
        }
      ],
      "stateMutability": "view",
      "type": "function"
    },
    {
      "inputs": [
        {
          "internalType": "address",
          "name": "_a",
          "type": "address"
        }
      ],
      "name": "getIsWhitelisted",
      "outputs": [
        {
          "internalType": "bool",
          "name": "",
          "type": "bool"
        }
      ],
      "stateMutability": "view",
      "type": "function"
    },
    {
      "inputs": [],
      "name": "girls",
      "outputs": [
        {
          "internalType": "contract IERC721",
          "name": "",
          "type": "address"
        }
      ],
      "stateMutability": "view",
      "type": "function"
    },
    {
      "inputs": [
        {
          "internalType": "address",
          "name": "spender",
          "type": "address"
        },
        {
          "internalType": "uint256",
          "name": "addedValue",
          "type": "uint256"
        }
      ],
      "name": "increaseAllowance",
      "outputs": [
        {
          "internalType": "bool",
          "name": "",
          "type": "bool"
        }
      ],
      "stateMutability": "nonpayable",
      "type": "function"
    },
    {
      "inputs": [
        {
          "internalType": "address",
          "name": "",
          "type": "address"
        }
      ],
      "name": "isWhitelisted",
      "outputs": [
        {
          "internalType": "bool",
          "name": "",
          "type": "bool"
        }
      ],
      "stateMutability": "view",
      "type": "function"
    },
    {
      "inputs": [],
      "name": "marketplace",
      "outputs": [
        {
          "internalType": "contract IMarketplace",
          "name": "",
          "type": "address"
        }
      ],
      "stateMutability": "view",
      "type": "function"
    },
    {
      "inputs": [],
      "name": "marketplaceFee",
      "outputs": [
        {
          "internalType": "uint256",
          "name": "",
          "type": "uint256"
        }
      ],
      "stateMutability": "view",
      "type": "function"
    },
    {
      "inputs": [],
      "name": "maxSupply",
      "outputs": [
        {
          "internalType": "uint256",
          "name": "",
          "type": "uint256"
        }
      ],
      "stateMutability": "view",
      "type": "function"
    },
    {
      "inputs": [
        {
          "internalType": "address",
          "name": "_to",
          "type": "address"
        },
        {
          "internalType": "uint256",
          "name": "amount",
          "type": "uint256"
        }
      ],
      "name": "mintDev",
      "outputs": [],
      "stateMutability": "nonpayable",
      "type": "function"
    },
    {
      "inputs": [],
      "name": "name",
      "outputs": [
        {
          "internalType": "string",
          "name": "",
          "type": "string"
        }
      ],
      "stateMutability": "view",
      "type": "function"
    },
    {
      "inputs": [],
      "name": "owner",
      "outputs": [
        {
          "internalType": "address",
          "name": "",
          "type": "address"
        }
      ],
      "stateMutability": "view",
      "type": "function"
    },
    {
      "inputs": [
        {
          "internalType": "uint256",
          "name": "",
          "type": "uint256"
        }
      ],
      "name": "payeeAddress",
      "outputs": [
        {
          "internalType": "address",
          "name": "",
          "type": "address"
        }
      ],
      "stateMutability": "view",
      "type": "function"
    },
    {
      "inputs": [
        {
          "internalType": "uint256",
          "name": "",
          "type": "uint256"
        }
      ],
      "name": "payeePerc",
      "outputs": [
        {
          "internalType": "uint256",
          "name": "",
          "type": "uint256"
        }
      ],
      "stateMutability": "view",
      "type": "function"
    },
    {
      "inputs": [],
      "name": "payees",
      "outputs": [
        {
          "internalType": "uint256",
          "name": "",
          "type": "uint256"
        }
      ],
      "stateMutability": "view",
      "type": "function"
    },
    {
      "inputs": [
        {
          "internalType": "address",
          "name": "_a",
          "type": "address"
        }
      ],
      "name": "removeWhitelist",
      "outputs": [],
      "stateMutability": "nonpayable",
      "type": "function"
    },
    {
      "inputs": [],
      "name": "renounceOwnership",
      "outputs": [],
      "stateMutability": "nonpayable",
      "type": "function"
    },
    {
      "inputs": [
        {
          "internalType": "address",
          "name": "_emissions",
          "type": "address"
        }
      ],
      "name": "setEmissionsContract",
      "outputs": [],
      "stateMutability": "nonpayable",
      "type": "function"
    },
    {
      "inputs": [
        {
          "internalType": "address",
          "name": "_girlContractAddress",
          "type": "address"
        }
      ],
      "name": "setGirlContract",
      "outputs": [],
      "stateMutability": "nonpayable",
      "type": "function"
    },
    {
      "inputs": [
        {
          "internalType": "address",
          "name": "_a",
          "type": "address"
        },
        {
          "internalType": "address",
          "name": "_b",
          "type": "address"
        },
        {
          "internalType": "address",
          "name": "_c",
          "type": "address"
        },
        {
          "internalType": "address",
          "name": "_d",
          "type": "address"
        },
        {
          "internalType": "uint256",
          "name": "_aPerc",
          "type": "uint256"
        },
        {
          "internalType": "uint256",
          "name": "_bPerc",
          "type": "uint256"
        },
        {
          "internalType": "uint256",
          "name": "_cPerc",
          "type": "uint256"
        },
        {
          "internalType": "uint256",
          "name": "_dPerc",
          "type": "uint256"
        }
      ],
      "name": "setInitialPayees",
      "outputs": [],
      "stateMutability": "nonpayable",
      "type": "function"
    },
    {
      "inputs": [
        {
          "internalType": "uint256",
          "name": "_fee",
          "type": "uint256"
        }
      ],
      "name": "setMarketplaceFee",
      "outputs": [],
      "stateMutability": "nonpayable",
      "type": "function"
    },
    {
      "inputs": [
        {
          "internalType": "uint256",
          "name": "_id",
          "type": "uint256"
        },
        {
          "internalType": "address",
          "name": "_addr",
          "type": "address"
        },
        {
          "internalType": "uint256",
          "name": "_perc",
          "type": "uint256"
        }
      ],
      "name": "setPayee",
      "outputs": [],
      "stateMutability": "nonpayable",
      "type": "function"
    },
    {
      "inputs": [
        {
          "internalType": "address",
          "name": "_gachaAddress",
          "type": "address"
        },
        {
          "internalType": "uint256",
          "name": "_amount",
          "type": "uint256"
        }
      ],
      "name": "spinGacha",
      "outputs": [],
      "stateMutability": "nonpayable",
      "type": "function"
    },
    {
      "inputs": [],
      "name": "symbol",
      "outputs": [
        {
          "internalType": "string",
          "name": "",
          "type": "string"
        }
      ],
      "stateMutability": "view",
      "type": "function"
    },
    {
      "inputs": [],
      "name": "totalSupply",
      "outputs": [
        {
          "internalType": "uint256",
          "name": "",
          "type": "uint256"
        }
      ],
      "stateMutability": "view",
      "type": "function"
    },
    {
      "inputs": [
        {
          "internalType": "address",
          "name": "to",
          "type": "address"
        },
        {
          "internalType": "uint256",
          "name": "amount",
          "type": "uint256"
        }
      ],
      "name": "transfer",
      "outputs": [
        {
          "internalType": "bool",
          "name": "",
          "type": "bool"
        }
      ],
      "stateMutability": "nonpayable",
      "type": "function"
    },
    {
      "inputs": [
        {
          "internalType": "address",
          "name": "from",
          "type": "address"
        },
        {
          "internalType": "address",
          "name": "to",
          "type": "address"
        },
        {
          "internalType": "uint256",
          "name": "amount",
          "type": "uint256"
        }
      ],
      "name": "transferFrom",
      "outputs": [
        {
          "internalType": "bool",
          "name": "",
          "type": "bool"
        }
      ],
      "stateMutability": "nonpayable",
      "type": "function"
    },
    {
      "inputs": [
        {
          "internalType": "address",
          "name": "newOwner",
          "type": "address"
        }
      ],
      "name": "transferOwnership",
      "outputs": [],
      "stateMutability": "nonpayable",
      "type": "function"
    }
  ],
  "bytecode": "0x608060405260046009556a295be96e640669720000006010553480156200002557600080fd5b5060405162001f7638038062001f76833981016040819052620000489162000391565b604080518082018252600c81526b1511d1cb505c98cb55195cdd60a21b6020808301918252835180850190945260078452661511d1cb584b5d60ca1b9084015281519192916200009b91600391620002eb565b508051620000b1906004906020840190620002eb565b5050600160055550620000c43362000117565b620000cf8162000169565b620000db600562000195565b600e5462000110906001600160a01b0316620000fa6012600a62000425565b6200010a90630211a1f0620004e6565b620001a4565b506200055b565b600680546001600160a01b038381166001600160a01b0319831681179093556040519116919082907f8be0079c531659141344cd1fd0a4f28419497f9722a3daafe3b4186f6b6457e090600090a35050565b620001736200028d565b600e80546001600160a01b0319166001600160a01b0392909216919091179055565b6200019f6200028d565b600f55565b6001600160a01b038216620002005760405162461bcd60e51b815260206004820152601f60248201527f45524332303a206d696e7420746f20746865207a65726f20616464726573730060448201526064015b60405180910390fd5b8060026000828254620002149190620003c1565b90915550506001600160a01b0382166000908152602081905260408120805483929062000243908490620003c1565b90915550506040518181526001600160a01b038316906000907fddf252ad1be2c89b69c2b068fc378daa952ba7f163c4a11628f55a4df523b3ef9060200160405180910390a35050565b6006546001600160a01b03163314620002e95760405162461bcd60e51b815260206004820181905260248201527f4f776e61626c653a2063616c6c6572206973206e6f7420746865206f776e65726044820152606401620001f7565b565b828054620002f99062000508565b90600052602060002090601f0160209004810192826200031d576000855562000368565b82601f106200033857805160ff191683800117855562000368565b8280016001018555821562000368579182015b82811115620003685782518255916020019190600101906200034b565b50620003769291506200037a565b5090565b5b808211156200037657600081556001016200037b565b600060208284031215620003a3578081fd5b81516001600160a01b0381168114620003ba578182fd5b9392505050565b60008219821115620003d757620003d762000545565b500190565b600181815b808511156200041d57816000190482111562000401576200040162000545565b808516156200040f57918102915b93841c9390800290620003e1565b509250929050565b6000620003ba60ff8416836000826200044157506001620004e0565b816200045057506000620004e0565b8160018114620004695760028114620004745762000494565b6001915050620004e0565b60ff84111562000488576200048862000545565b50506001821b620004e0565b5060208310610133831016604e8410600b8410161715620004b9575081810a620004e0565b620004c58383620003dc565b8060001904821115620004dc57620004dc62000545565b0290505b92915050565b600081600019048311821515161562000503576200050362000545565b500290565b600181811c908216806200051d57607f821691505b602082108114156200053f57634e487b7160e01b600052602260045260246000fd5b50919050565b634e487b7160e01b600052601160045260246000fd5b611a0b806200056b6000396000f3fe608060405234801561001057600080fd5b50600436106102275760003560e01c806379cc679011610130578063a9c35334116100b8578063dd62ed3e1161007c578063dd62ed3e146104e8578063df238800146104fb578063f2fde38b1461050e578063f413143314610521578063f80f5dd51461053457600080fd5b8063a9c3533414610486578063abc8c7af14610499578063d0a723d2146104ac578063d5abeb01146104bf578063d73a5865146104c857600080fd5b80639407ea98116100ff5780639407ea9814610432578063948142bb1461044557806395d89b4114610458578063a457c2d714610460578063a9059cbb1461047357600080fd5b806379cc6790146103cf57806384eda544146103e25780638da5cb5b146103f5578063938f296c1461040657600080fd5b80633af32abf116101b357806354e051901161018257806354e051901461036f5780636a1669641461038257806370a082311461038b578063715018a6146103b457806378c8cda7146103bc57600080fd5b80633af32abf1461031d5780633fdc25901461034057806342966c68146103535780634e8086aa1461036657600080fd5b806323b872dd116101fa57806323b872dd146102aa578063313ce567146102bd578063324c6adc146102cc578063347206f7146102e1578063395093511461030a57600080fd5b806306fdde031461022c578063095ea7b31461024a57806318160ddd1461026d5780632267716c1461027f575b600080fd5b610234610547565b6040516102419190611860565b60405180910390f35b61025d610258366004611663565b6105d9565b6040519015158152602001610241565b6002545b604051908152602001610241565b600e54610292906001600160a01b031681565b6040516001600160a01b039091168152602001610241565b61025d6102b8366004611623565b6105f1565b60405160128152602001610241565b6102df6102da366004611663565b610615565b005b6102926102ef36600461177d565b6007602052600090815260409020546001600160a01b031681565b61025d610318366004611663565b61062b565b61025d61032b366004611550565b600d6020526000908152604090205460ff1681565b600a54610292906001600160a01b031681565b6102df61036136600461177d565b61064d565b61027160095481565b6102df61037d366004611663565b61065a565b610271600f5481565b610271610399366004611550565b6001600160a01b031660009081526020819052604090205490565b6102df61085b565b6102df6103ca366004611550565b61086f565b6102df6103dd366004611663565b610898565b6102df6103f0366004611550565b6108ad565b6006546001600160a01b0316610292565b61025d610414366004611550565b6001600160a01b03166000908152600d602052604090205460ff1690565b6102df61044036600461177d565b6108d7565b600b54610292906001600160a01b031681565b6102346108e4565b61025d61046e366004611663565b6108f3565b61025d610481366004611663565b61096e565b6102df610494366004611550565b61097c565b600c54610292906001600160a01b031681565b6102df6104ba3660046115a4565b6109a6565b61027160105481565b6102716104d636600461177d565b60086020526000908152604090205481565b6102716104f636600461156c565b6109e8565b6102df6105093660046117ad565b610a13565b6102df61051c366004611550565b610a54565b6102df61052f366004611663565b610aca565b6102df610542366004611550565b610dba565b6060600380546105569061193e565b80601f01602080910402602001604051908101604052809291908181526020018280546105829061193e565b80156105cf5780601f106105a4576101008083540402835291602001916105cf565b820191906000526020600020905b8154815290600101906020018083116105b257829003601f168201915b5050505050905090565b6000336105e7818585610de6565b5060019392505050565b6000336105ff858285610f0b565b61060a858585610f85565b506001949350505050565b61061d611153565b61062782826111ad565b5050565b6000336105e781858561063e83836109e8565b61064891906118a4565b610de6565b610657338261128c565b50565b600260055414156106b25760405162461bcd60e51b815260206004820152601f60248201527f5265656e7472616e637947756172643a207265656e7472616e742063616c6c0060448201526064015b60405180910390fd5b60026005556001600160a01b0382166000908152600d602052604090205460ff1661071f5760405162461bcd60e51b815260206004820152601f60248201527f5370656e6465723a204d61726b6574206e6f742077686974656c69737465640060448201526064016106a9565b600c80546001600160a01b0319166001600160a01b03841690811790915560405163a82ba76f60e01b815233600482015260248101839052600091829163a82ba76f906044016040805180830381600087803b15801561077e57600080fd5b505af1158015610792573d6000803e3d6000fd5b505050506040513d601f19601f820116820180604052508101906107b6919061168e565b3360009081526020819052604090205491935091508111156108255760405162461bcd60e51b815260206004820152602260248201527f45534d61726b6574706c6163653a2075736572206e6f7420656e6f7567682041604482015261524360f01b60648201526084016106a9565b6000610830826113d2565b905061083c838261096e565b5061084f61084a82846118fb565b6113ff565b50506001600555505050565b610863611153565b61086d6000611467565b565b610877611153565b6001600160a01b03166000908152600d60205260409020805460ff19169055565b6108a3823383610f0b565b610627828261128c565b6108b5611153565b600a80546001600160a01b0319166001600160a01b0392909216919091179055565b6108df611153565b600f55565b6060600480546105569061193e565b6000338161090182866109e8565b9050838110156109615760405162461bcd60e51b815260206004820152602560248201527f45524332303a2064656372656173656420616c6c6f77616e63652062656c6f77604482015264207a65726f60d81b60648201526084016106a9565b61060a8286868403610de6565b6000336105e7818585610f85565b610984611153565b600e80546001600160a01b0319166001600160a01b0392909216919091179055565b6109ae611153565b6109ba60008986610a13565b6109c660018885610a13565b6109d260028784610a13565b6109de60038683610a13565b5050505050505050565b6001600160a01b03918216600090815260016020908152604080832093909416825291909152205490565b610a1b611153565b600092835260076020908152604080852080546001600160a01b0319166001600160a01b03959095169490941790935560089052912055565b610a5c611153565b6001600160a01b038116610ac15760405162461bcd60e51b815260206004820152602660248201527f4f776e61626c653a206e6577206f776e657220697320746865207a65726f206160448201526564647265737360d01b60648201526084016106a9565b61065781611467565b60026005541415610b1d5760405162461bcd60e51b815260206004820152601f60248201527f5265656e7472616e637947756172643a207265656e7472616e742063616c6c0060448201526064016106a9565b60026005556001600160a01b0382166000908152600d602052604090205460ff16610b8a5760405162461bcd60e51b815260206004820152601e60248201527f5370656e6465723a204761636861206e6f742077686974656c6973746564000060448201526064016106a9565b8060011480610b99575080600a145b610be55760405162461bcd60e51b815260206004820181905260248201527f5370656e6465723a207370696e2031206f722031302074696d6573206f6e6c7960448201526064016106a9565b600b80546001600160a01b0319166001600160a01b03841690811790915560408051632f4f867560e21b815290516000928492909163bd3e19d491600480820192602092909190829003018186803b158015610c4057600080fd5b505afa158015610c54573d6000803e3d6000fd5b505050506040513d601f19601f82011682018060405250810190610c789190611795565b610c8291906118dc565b33600090815260208190526040902054909150811115610ce45760405162461bcd60e51b815260206004820152601c60248201527f5370656e6465723a2075736572206e6f7420656e6f756768204152430000000060448201526064016106a9565b610ced816113ff565b600b5460405163d37d753f60e01b8152336004820152602481018490526000916001600160a01b03169063d37d753f90604401600060405180830381600087803b158015610d3a57600080fd5b505af1158015610d4e573d6000803e3d6000fd5b505050506040513d6000823e601f3d908101601f19168201604052610d7691908101906116bb565b90507f519a41995e277465e15d78dc01a8a1dcc6fa0e3a714980772f44c16e7c7c4b2b81604051610da791906117ff565b60405180910390a1505060016005555050565b610dc2611153565b6001600160a01b03166000908152600d60205260409020805460ff19166001179055565b6001600160a01b038316610e485760405162461bcd60e51b8152602060048201526024808201527f45524332303a20617070726f76652066726f6d20746865207a65726f206164646044820152637265737360e01b60648201526084016106a9565b6001600160a01b038216610ea95760405162461bcd60e51b815260206004820152602260248201527f45524332303a20617070726f766520746f20746865207a65726f206164647265604482015261737360f01b60648201526084016106a9565b6001600160a01b0383811660008181526001602090815260408083209487168084529482529182902085905590518481527f8c5be1e5ebec7d5bd14f71427d1e84f3dd0314c0f7b2291e5b200ac8c7c3b92591015b60405180910390a3505050565b6000610f1784846109e8565b90506000198114610f7f5781811015610f725760405162461bcd60e51b815260206004820152601d60248201527f45524332303a20696e73756666696369656e7420616c6c6f77616e636500000060448201526064016106a9565b610f7f8484848403610de6565b50505050565b6001600160a01b038316610fe95760405162461bcd60e51b815260206004820152602560248201527f45524332303a207472616e736665722066726f6d20746865207a65726f206164604482015264647265737360d81b60648201526084016106a9565b6001600160a01b03821661104b5760405162461bcd60e51b815260206004820152602360248201527f45524332303a207472616e7366657220746f20746865207a65726f206164647260448201526265737360e81b60648201526084016106a9565b6001600160a01b038316600090815260208190526040902054818110156110c35760405162461bcd60e51b815260206004820152602660248201527f45524332303a207472616e7366657220616d6f756e7420657863656564732062604482015265616c616e636560d01b60648201526084016106a9565b6001600160a01b038085166000908152602081905260408082208585039055918516815290812080548492906110fa9084906118a4565b92505081905550826001600160a01b0316846001600160a01b03167fddf252ad1be2c89b69c2b068fc378daa952ba7f163c4a11628f55a4df523b3ef8460405161114691815260200190565b60405180910390a3610f7f565b6006546001600160a01b0316331461086d5760405162461bcd60e51b815260206004820181905260248201527f4f776e61626c653a2063616c6c6572206973206e6f7420746865206f776e657260448201526064016106a9565b6001600160a01b0382166112035760405162461bcd60e51b815260206004820152601f60248201527f45524332303a206d696e7420746f20746865207a65726f20616464726573730060448201526064016106a9565b806002600082825461121591906118a4565b90915550506001600160a01b038216600090815260208190526040812080548392906112429084906118a4565b90915550506040518181526001600160a01b038316906000907fddf252ad1be2c89b69c2b068fc378daa952ba7f163c4a11628f55a4df523b3ef9060200160405180910390a35050565b6001600160a01b0382166112ec5760405162461bcd60e51b815260206004820152602160248201527f45524332303a206275726e2066726f6d20746865207a65726f206164647265736044820152607360f81b60648201526084016106a9565b6001600160a01b038216600090815260208190526040902054818110156113605760405162461bcd60e51b815260206004820152602260248201527f45524332303a206275726e20616d6f756e7420657863656564732062616c616e604482015261636560f01b60648201526084016106a9565b6001600160a01b038316600090815260208190526040812083830390556002805484929061138f9084906118fb565b90915550506040518281526000906001600160a01b038516907fddf252ad1be2c89b69c2b068fc378daa952ba7f163c4a11628f55a4df523b3ef90602001610efe565b60006064600f5460646113e591906118fb565b6113ef90846118dc565b6113f991906118bc565b92915050565b8060005b60095481101561145d57600061141984836114b9565b60008381526007602052604090205490915061143e906001600160a01b03168261096e565b5061144981846118fb565b9250508061145690611979565b9050611403565b506106278161064d565b600680546001600160a01b038381166001600160a01b0319831681179093556040519116919082907f8be0079c531659141344cd1fd0a4f28419497f9722a3daafe3b4186f6b6457e090600090a35050565b6000818152600860205260408120546064906114d590856118dc565b6114df91906118bc565b9392505050565b600082601f8301126114f6578081fd5b815167ffffffffffffffff811115611510576115106119aa565b611523601f8201601f1916602001611873565b818152846020838601011115611537578283fd5b611548826020830160208701611912565b949350505050565b600060208284031215611561578081fd5b81356114df816119c0565b6000806040838503121561157e578081fd5b8235611589816119c0565b91506020830135611599816119c0565b809150509250929050565b600080600080600080600080610100898b0312156115c0578384fd5b88356115cb816119c0565b975060208901356115db816119c0565b965060408901356115eb816119c0565b955060608901356115fb816119c0565b979a969950949760808101359660a0820135965060c0820135955060e0909101359350915050565b600080600060608486031215611637578283fd5b8335611642816119c0565b92506020840135611652816119c0565b929592945050506040919091013590565b60008060408385031215611675578182fd5b8235611680816119c0565b946020939093013593505050565b600080604083850312156116a0578182fd5b82516116ab816119c0565b6020939093015192949293505050565b600060208083850312156116cd578182fd5b825167ffffffffffffffff808211156116e4578384fd5b818501915085601f8301126116f7578384fd5b815181811115611709576117096119aa565b8060051b611718858201611873565b8281528581019085870183870188018b1015611732578889fd5b8893505b8484101561176f5780518681111561174c57898afd5b61175a8c8a838b01016114e6565b84525060019390930192918701918701611736565b509998505050505050505050565b60006020828403121561178e578081fd5b5035919050565b6000602082840312156117a6578081fd5b5051919050565b6000806000606084860312156117c1578283fd5b833592506020840135611652816119c0565b600081518084526117eb816020860160208601611912565b601f01601f19169290920160200192915050565b6000602080830181845280855180835260408601915060408160051b8701019250838701855b8281101561185357603f198886030184526118418583516117d3565b94509285019290850190600101611825565b5092979650505050505050565b6020815260006114df60208301846117d3565b604051601f8201601f1916810167ffffffffffffffff8111828210171561189c5761189c6119aa565b604052919050565b600082198211156118b7576118b7611994565b500190565b6000826118d757634e487b7160e01b81526012600452602481fd5b500490565b60008160001904831182151516156118f6576118f6611994565b500290565b60008282101561190d5761190d611994565b500390565b60005b8381101561192d578181015183820152602001611915565b83811115610f7f5750506000910152565b600181811c9082168061195257607f821691505b6020821081141561197357634e487b7160e01b600052602260045260246000fd5b50919050565b600060001982141561198d5761198d611994565b5060010190565b634e487b7160e01b600052601160045260246000fd5b634e487b7160e01b600052604160045260246000fd5b6001600160a01b038116811461065757600080fdfea2646970667358221220c6db1006856b34479418f6ea9270f88cdf4d135ade746a4ccdd90e9e45580a9c64736f6c63430008040033",
  "linkReferences": {},
  "deployedLinkReferences": {}
}