{
  "_format": "hh-sol-artifact-1",
  "contractName": "Attunement",
  "sourceName": "contracts/Gacha/Attunement.sol",
  "abi": [
    {
      "inputs": [
        {
          "internalType": "address",
          "name": "_elemental",
          "type": "address"
        },
        {
          "internalType": "address",
          "name": "_girl",
          "type": "address"
        }
      ],
      "stateMutability": "nonpayable",
      "type": "constructor"
    },
    {
      "anonymous": false,
      "inputs": [
        {
          "indexed": true,
          "internalType": "address",
          "name": "previousOwner",
          "type": "address"
        },
        {
          "indexed": true,
          "internalType": "address",
          "name": "newOwner",
          "type": "address"
        }
      ],
      "name": "OwnershipTransferred",
      "type": "event"
    },
    {
      "inputs": [
        {
          "internalType": "uint256",
          "name": "depositId",
          "type": "uint256"
        }
      ],
      "name": "attune",
      "outputs": [
        {
          "internalType": "bool",
          "name": "",
          "type": "bool"
        }
      ],
      "stateMutability": "nonpayable",
      "type": "function"
    },
    {
      "inputs": [
        {
          "internalType": "uint256",
          "name": "depositId",
          "type": "uint256"
        }
      ],
      "name": "cancelStake",
      "outputs": [],
      "stateMutability": "nonpayable",
      "type": "function"
    },
    {
      "inputs": [],
      "name": "defaultTimeRequired",
      "outputs": [
        {
          "internalType": "uint256",
          "name": "",
          "type": "uint256"
        }
      ],
      "stateMutability": "view",
      "type": "function"
    },
    {
      "inputs": [
        {
          "internalType": "uint256",
          "name": "",
          "type": "uint256"
        }
      ],
      "name": "depositByGirlID",
      "outputs": [
        {
          "internalType": "uint256",
          "name": "",
          "type": "uint256"
        }
      ],
      "stateMutability": "view",
      "type": "function"
    },
    {
      "inputs": [
        {
          "internalType": "uint256",
          "name": "",
          "type": "uint256"
        }
      ],
      "name": "deposits",
      "outputs": [
        {
          "internalType": "address",
          "name": "owner",
          "type": "address"
        },
        {
          "internalType": "uint256",
          "name": "depositId",
          "type": "uint256"
        },
        {
          "internalType": "uint256",
          "name": "element",
          "type": "uint256"
        },
        {
          "internalType": "uint256",
          "name": "girlId",
          "type": "uint256"
        },
        {
          "internalType": "uint256",
          "name": "timeDeposited",
          "type": "uint256"
        },
        {
          "internalType": "bool",
          "name": "matched",
          "type": "bool"
        },
        {
          "internalType": "uint256",
          "name": "unlockTime",
          "type": "uint256"
        }
      ],
      "stateMutability": "view",
      "type": "function"
    },
    {
      "inputs": [],
      "name": "elementalStone",
      "outputs": [
        {
          "internalType": "contract IElementalStone",
          "name": "",
          "type": "address"
        }
      ],
      "stateMutability": "view",
      "type": "function"
    },
    {
      "inputs": [
        {
          "internalType": "uint256",
          "name": "depositId",
          "type": "uint256"
        }
      ],
      "name": "getUnlockTime",
      "outputs": [
        {
          "internalType": "uint256",
          "name": "unlockTime",
          "type": "uint256"
        }
      ],
      "stateMutability": "view",
      "type": "function"
    },
    {
      "inputs": [
        {
          "internalType": "address",
          "name": "_user",
          "type": "address"
        }
      ],
      "name": "getUserActiveDeposits",
      "outputs": [
        {
          "components": [
            {
              "internalType": "address",
              "name": "owner",
              "type": "address"
            },
            {
              "internalType": "uint256",
              "name": "depositId",
              "type": "uint256"
            },
            {
              "internalType": "uint256",
              "name": "element",
              "type": "uint256"
            },
            {
              "internalType": "uint256",
              "name": "girlId",
              "type": "uint256"
            },
            {
              "internalType": "uint256",
              "name": "timeDeposited",
              "type": "uint256"
            },
            {
              "internalType": "bool",
              "name": "matched",
              "type": "bool"
            },
            {
              "internalType": "uint256",
              "name": "unlockTime",
              "type": "uint256"
            }
          ],
          "internalType": "struct Attunement.Deposit[]",
          "name": "",
          "type": "tuple[]"
        }
      ],
      "stateMutability": "view",
      "type": "function"
    },
    {
      "inputs": [
        {
          "internalType": "address",
          "name": "_user",
          "type": "address"
        }
      ],
      "name": "getUserDepositIds",
      "outputs": [
        {
          "internalType": "uint256[]",
          "name": "",
          "type": "uint256[]"
        }
      ],
      "stateMutability": "view",
      "type": "function"
    },
    {
      "inputs": [],
      "name": "girl",
      "outputs": [
        {
          "internalType": "contract IGirl",
          "name": "",
          "type": "address"
        }
      ],
      "stateMutability": "view",
      "type": "function"
    },
    {
      "inputs": [
        {
          "internalType": "uint256",
          "name": "girlID",
          "type": "uint256"
        }
      ],
      "name": "girlTransferred",
      "outputs": [],
      "stateMutability": "nonpayable",
      "type": "function"
    },
    {
      "inputs": [
        {
          "internalType": "uint256",
          "name": "depositId",
          "type": "uint256"
        }
      ],
      "name": "isComplete",
      "outputs": [
        {
          "internalType": "bool",
          "name": "",
          "type": "bool"
        }
      ],
      "stateMutability": "view",
      "type": "function"
    },
    {
      "inputs": [],
      "name": "matchedTimeRequired",
      "outputs": [
        {
          "internalType": "uint256",
          "name": "",
          "type": "uint256"
        }
      ],
      "stateMutability": "view",
      "type": "function"
    },
    {
      "inputs": [
        {
          "internalType": "address",
          "name": "",
          "type": "address"
        },
        {
          "internalType": "address",
          "name": "",
          "type": "address"
        },
        {
          "internalType": "uint256[]",
          "name": "",
          "type": "uint256[]"
        },
        {
          "internalType": "uint256[]",
          "name": "",
          "type": "uint256[]"
        },
        {
          "internalType": "bytes",
          "name": "",
          "type": "bytes"
        }
      ],
      "name": "onERC1155BatchReceived",
      "outputs": [
        {
          "internalType": "bytes4",
          "name": "",
          "type": "bytes4"
        }
      ],
      "stateMutability": "nonpayable",
      "type": "function"
    },
    {
      "inputs": [
        {
          "internalType": "address",
          "name": "",
          "type": "address"
        },
        {
          "internalType": "address",
          "name": "",
          "type": "address"
        },
        {
          "internalType": "uint256",
          "name": "",
          "type": "uint256"
        },
        {
          "internalType": "uint256",
          "name": "",
          "type": "uint256"
        },
        {
          "internalType": "bytes",
          "name": "",
          "type": "bytes"
        }
      ],
      "name": "onERC1155Received",
      "outputs": [
        {
          "internalType": "bytes4",
          "name": "",
          "type": "bytes4"
        }
      ],
      "stateMutability": "nonpayable",
      "type": "function"
    },
    {
      "inputs": [],
      "name": "owner",
      "outputs": [
        {
          "internalType": "address",
          "name": "",
          "type": "address"
        }
      ],
      "stateMutability": "view",
      "type": "function"
    },
    {
      "inputs": [],
      "name": "renounceOwnership",
      "outputs": [],
      "stateMutability": "nonpayable",
      "type": "function"
    },
    {
      "inputs": [
        {
          "internalType": "address",
          "name": "user",
          "type": "address"
        },
        {
          "internalType": "uint256",
          "name": "id",
          "type": "uint256"
        },
        {
          "internalType": "uint256",
          "name": "girlId",
          "type": "uint256"
        },
        {
          "internalType": "bool",
          "name": "isMatched",
          "type": "bool"
        }
      ],
      "name": "stake",
      "outputs": [],
      "stateMutability": "nonpayable",
      "type": "function"
    },
    {
      "inputs": [
        {
          "internalType": "bytes4",
          "name": "interfaceId",
          "type": "bytes4"
        }
      ],
      "name": "supportsInterface",
      "outputs": [
        {
          "internalType": "bool",
          "name": "",
          "type": "bool"
        }
      ],
      "stateMutability": "view",
      "type": "function"
    },
    {
      "inputs": [
        {
          "internalType": "address",
          "name": "newOwner",
          "type": "address"
        }
      ],
      "name": "transferOwnership",
      "outputs": [],
      "stateMutability": "nonpayable",
      "type": "function"
    },
    {
      "inputs": [
        {
          "internalType": "address",
          "name": "",
          "type": "address"
        },
        {
          "internalType": "uint256",
          "name": "",
          "type": "uint256"
        }
      ],
      "name": "usersDepositIds",
      "outputs": [
        {
          "internalType": "uint256",
          "name": "",
          "type": "uint256"
        }
      ],
      "stateMutability": "view",
      "type": "function"
    }
  ],
  "bytecode": "0x608060405262093a8060045560026004546200001c919062000137565b6005553480156200002c57600080fd5b5060405162001922380380620019228339810160408190526200004f9162000100565b60016000556200005f3362000091565b600280546001600160a01b039384166001600160a01b0319918216179091556003805492909316911617905562000158565b600180546001600160a01b038381166001600160a01b0319831681179093556040519116919082907f8be0079c531659141344cd1fd0a4f28419497f9722a3daafe3b4186f6b6457e090600090a35050565b80516001600160a01b0381168114620000fb57600080fd5b919050565b6000806040838503121562000113578182fd5b6200011e83620000e3565b91506200012e60208401620000e3565b90509250929050565b6000826200015357634e487b7160e01b81526012600452602481fd5b500490565b6117ba80620001686000396000f3fe608060405234801561001057600080fd5b50600436106101375760003560e01c8063b21536e6116100b8578063d4e4487d1161007c578063d4e4487d146102f5578063d8de948014610315578063dd46809614610328578063e2eaf38e1461033b578063f23a6e611461034e578063f2fde38b1461036d57600080fd5b8063b21536e614610257578063bc197c811461026a578063c285c8c9146102a2578063c3b57266146102c2578063d41b0466146102e257600080fd5b80637caa5f7c116100ff5780637caa5f7c146101c35780638da5cb5b146101cc578063ab60a320146101dd578063add058fd146101f0578063b02c43d01461020357600080fd5b806301ffc9a71461013c57806325876724146101645780633318f1a51461017b5780633a0be1a6146101a6578063715018a6146101b9575b600080fd5b61014f61014a3660046115be565b610380565b60405190151581526020015b60405180910390f35b61016d60045481565b60405190815260200161015b565b60035461018e906001600160a01b031681565b6040516001600160a01b03909116815260200161015b565b61014f6101b43660046115e6565b6103b7565b6101c16103c2565b005b61016d60055481565b6001546001600160a01b031661018e565b61014f6101eb3660046115e6565b6103d6565b6101c16101fe3660046115e6565b6105c2565b6102166102113660046115e6565b610759565b604080516001600160a01b03909816885260208801969096529486019390935260608501919091526080840152151560a083015260c082015260e00161015b565b61016d6102653660046115e6565b6107b5565b610289610278366004611429565b63bc197c8160e01b95945050505050565b6040516001600160e01b0319909116815260200161015b565b6102b56102b0366004611408565b6107fb565b60405161015b91906115fe565b61016d6102d03660046115e6565b60096020526000908152604090205481565b60025461018e906001600160a01b031681565b610308610303366004611408565b6109c6565b60405161015b919061168b565b6101c16103233660046115e6565b610b6c565b6101c161033636600461155b565b610c6c565b61016d610349366004611532565b610e73565b61028961035c3660046114cf565b63f23a6e6160e01b95945050505050565b6101c161037b366004611408565b610ea4565b60006001600160e01b03198216630271189760e51b14806103b157506301ffc9a760e01b6001600160e01b03198316145b92915050565b60006103b182610f1a565b6103ca610f65565b6103d46000610fbf565b565b6000806103e4600184611718565b9050336001600160a01b03166007828154811061041157634e487b7160e01b600052603260045260246000fd5b60009182526020909120600790910201546001600160a01b03161461047d5760405162461bcd60e51b815260206004820152601c60248201527f417474756e656d656e743a2063616c6c6572206e6f74206f776e65720000000060448201526064015b60405180910390fd5b61048681610f1a565b6104ca5760405162461bcd60e51b8152602060048201526015602482015274417474756e656d656e743a206e6f7420726561647960581b6044820152606401610474565b600254600780546001600160a01b0390921691631ce57c009133918590811061050357634e487b7160e01b600052603260045260246000fd5b9060005260206000209060070201600201546007858154811061053657634e487b7160e01b600052603260045260246000fd5b60009182526020909120600360079092020101546040516001600160e01b031960e086901b1681526001600160a01b03909316600484015260248301919091526044820152606401600060405180830381600087803b15801561059857600080fd5b505af11580156105ac573d6000803e3d6000fd5b505050506105b983611011565b50600192915050565b6003546001600160a01b0316331461061c5760405162461bcd60e51b815260206004820152601e60248201527f417474756e656d656e743a206f6e6c79206769726c2063616e2063616c6c00006044820152606401610474565b600354604051630b68941760e01b8152600481018390526001600160a01b0390911690630b6894179060240160206040518083038186803b15801561066057600080fd5b505afa158015610674573d6000803e3d6000fd5b505050506040513d601f19601f8201168201806040525081019061069891906115a2565b15610756576000818152600960205260408120549060076106ba600184611718565b815481106106d857634e487b7160e01b600052603260045260246000fd5b600091825260208220600791820201546001600160a01b031692506106fe600185611718565b8154811061071c57634e487b7160e01b600052603260045260246000fd5b9060005260206000209060070201600201549050600061073c8383611270565b90508061074857600080fd5b61075184611011565b505050505b50565b6007818154811061076957600080fd5b600091825260209091206007909102018054600182015460028301546003840154600485015460058601546006909601546001600160a01b0390951696509294919390929160ff169087565b600060076107c4600184611718565b815481106107e257634e487b7160e01b600052603260045260246000fd5b9060005260206000209060070201600601549050919050565b60606000610808836109c6565b90506000815167ffffffffffffffff81111561083457634e487b7160e01b600052604160045260246000fd5b6040519080825280602002602001820160405280156108b057816020015b61089d6040518060e0016040528060006001600160a01b0316815260200160008152602001600081526020016000815260200160008152602001600015158152602001600081525090565b8152602001906001900390816108525790505b50905060005b82518110156109be57600760018483815181106108e357634e487b7160e01b600052603260045260246000fd5b60200260200101516108f59190611718565b8154811061091357634e487b7160e01b600052603260045260246000fd5b60009182526020918290206040805160e081018252600790930290910180546001600160a01b031683526001810154938301939093526002830154908201526003820154606082015260048201546080820152600582015460ff16151560a082015260069091015460c082015282518390839081106109a257634e487b7160e01b600052603260045260246000fd5b6020026020010181905250806109b79061172f565b90506108b6565b509392505050565b60606000805b6001600160a01b038416600090815260086020526040902054811015610a52576001600160a01b0384166000908152600860205260409020805482908110610a2457634e487b7160e01b600052603260045260246000fd5b9060005260206000200154600014610a4257610a3f8261172f565b91505b610a4b8161172f565b90506109cc565b5060008167ffffffffffffffff811115610a7c57634e487b7160e01b600052604160045260246000fd5b604051908082528060200260200182016040528015610aa5578160200160208202803683370190505b5090506000805b6001600160a01b038616600090815260086020526040902054811015610b62576001600160a01b0386166000908152600860205260408120805483908110610b0457634e487b7160e01b600052603260045260246000fd5b9060005260206000200154905080600014610b515780848481518110610b3a57634e487b7160e01b600052603260045260246000fd5b6020908102919091010152610b4e8361172f565b92505b50610b5b8161172f565b9050610aac565b5090949350505050565b60006007610b7b600184611718565b81548110610b9957634e487b7160e01b600052603260045260246000fd5b60009182526020909120600790910201546001600160a01b03169050338114610c045760405162461bcd60e51b815260206004820152601c60248201527f417474756e656d656e743a2063616c6c6572206e6f74206f776e6572000000006044820152606401610474565b60006007610c13600185611718565b81548110610c3157634e487b7160e01b600052603260045260246000fd5b90600052602060002090600702016002015490506000610c518383611270565b905080610c5d57600080fd5b610c6684611011565b50505050565b6002546001600160a01b03163314610cd45760405162461bcd60e51b815260206004820152602560248201527f417474756e656d656e743a206f6e6c7920455320636f6e74726163742063616e6044820152640818d85b1b60da1b6064820152608401610474565b4260008215610cf157600554610cea9083611700565b9050610d01565b600454610cfe9083611700565b90505b600660008154610d109061172f565b9190508190555060076040518060e00160405280886001600160a01b031681526020016006548152602001878152602001868152602001848152602001851515815260200183815250908060018154018082558091505060019003906000526020600020906007020160009091909190915060008201518160000160006101000a8154816001600160a01b0302191690836001600160a01b031602179055506020820151816001015560408201518160020155606082015181600301556080820151816004015560a08201518160050160006101000a81548160ff02191690831515021790555060c08201518160060155505060086000876001600160a01b03166001600160a01b0316815260200190815260200160002060065490806001815401808255809150506001900390600052602060002001600090919091909150556006546009600086815260200190815260200160002081905550505050505050565b60086020528160005260406000208181548110610e8f57600080fd5b90600052602060002001600091509150505481565b610eac610f65565b6001600160a01b038116610f115760405162461bcd60e51b815260206004820152602660248201527f4f776e61626c653a206e6577206f776e657220697320746865207a65726f206160448201526564647265737360d01b6064820152608401610474565b61075681610fbf565b60004260078381548110610f3e57634e487b7160e01b600052603260045260246000fd5b90600052602060002090600702016006015411610f5d57506001919050565b506000919050565b6001546001600160a01b031633146103d45760405162461bcd60e51b815260206004820181905260248201527f4f776e61626c653a2063616c6c6572206973206e6f7420746865206f776e65726044820152606401610474565b600180546001600160a01b038381166001600160a01b0319831681179093556040519116919082907f8be0079c531659141344cd1fd0a4f28419497f9722a3daafe3b4186f6b6457e090600090a35050565b60006007611020600184611718565b8154811061103e57634e487b7160e01b600052603260045260246000fd5b600091825260208083206040805160e081018252600790940290910180546001600160a01b031680855260018201549385019390935260028101549184019190915260038101546060840181905260048201546080850152600582015460ff16151560a085015260069091015460c084015291935090915b6001600160a01b03821660009081526008602052604090205481101561117a576001600160a01b038216600090815260086020526040902080548691908390811061111157634e487b7160e01b600052603260045260246000fd5b9060005260206000200154141561116a576001600160a01b038216600090815260086020526040902080548290811061115a57634e487b7160e01b600052603260045260246000fd5b600091825260208220015561117a565b6111738161172f565b90506110b6565b506007611188600186611718565b815481106111a657634e487b7160e01b600052603260045260246000fd5b6000918252602080832060079290920290910180546001600160a01b031916815560018101839055600281018390556003808201849055600480830185905560058301805460ff1916905560069092018490558584526009909252604080842084905591549151633f1ed70960e01b815290810185905260248101929092526001600160a01b031690633f1ed70990604401600060405180830381600087803b15801561125257600080fd5b505af1158015611266573d6000803e3d6000fd5b5050505050505050565b600254604051637921219560e11b81523060048201526001600160a01b038481166024830152604482018490526001606483015260a06084830152600060a48301819052921690819063f242432a9060c401600060405180830381600087803b1580156112dc57600080fd5b505af11580156112f0573d6000803e3d6000fd5b506001979650505050505050565b80356001600160a01b038116811461131557600080fd5b919050565b600082601f83011261132a578081fd5b8135602067ffffffffffffffff82111561134657611346611760565b8160051b6113558282016116cf565b83815282810190868401838801850189101561136f578687fd5b8693505b85841015611391578035835260019390930192918401918401611373565b50979650505050505050565b600082601f8301126113ad578081fd5b813567ffffffffffffffff8111156113c7576113c7611760565b6113da601f8201601f19166020016116cf565b8181528460208386010111156113ee578283fd5b816020850160208301379081016020019190915292915050565b600060208284031215611419578081fd5b611422826112fe565b9392505050565b600080600080600060a08688031215611440578081fd5b611449866112fe565b9450611457602087016112fe565b9350604086013567ffffffffffffffff80821115611473578283fd5b61147f89838a0161131a565b94506060880135915080821115611494578283fd5b6114a089838a0161131a565b935060808801359150808211156114b5578283fd5b506114c28882890161139d565b9150509295509295909350565b600080600080600060a086880312156114e6578081fd5b6114ef866112fe565b94506114fd602087016112fe565b93506040860135925060608601359150608086013567ffffffffffffffff811115611526578182fd5b6114c28882890161139d565b60008060408385031215611544578182fd5b61154d836112fe565b946020939093013593505050565b60008060008060808587031215611570578384fd5b611579856112fe565b93506020850135925060408501359150606085013561159781611776565b939692955090935050565b6000602082840312156115b3578081fd5b815161142281611776565b6000602082840312156115cf578081fd5b81356001600160e01b031981168114611422578182fd5b6000602082840312156115f7578081fd5b5035919050565b602080825282518282018190526000919060409081850190868401855b8281101561167e57815180516001600160a01b0316855286810151878601528581015186860152606080820151908601526080808201519086015260a08082015115159086015260c0908101519085015260e0909301929085019060010161161b565b5091979650505050505050565b6020808252825182820181905260009190848201906040850190845b818110156116c3578351835292840192918401916001016116a7565b50909695505050505050565b604051601f8201601f1916810167ffffffffffffffff811182821017156116f8576116f8611760565b604052919050565b600082198211156117135761171361174a565b500190565b60008282101561172a5761172a61174a565b500390565b60006000198214156117435761174361174a565b5060010190565b634e487b7160e01b600052601160045260246000fd5b634e487b7160e01b600052604160045260246000fd5b801515811461075657600080fdfea2646970667358221220de2f51d28a4c2986d01c8ddfbbd8a04d394f2db83153fa147177fdf94a1c78d064736f6c63430008040033",
  "linkReferences": {},
  "deployedLinkReferences": {}
}