{
  "_format": "hh-sol-artifact-1",
  "contractName": "Attunement",
  "sourceName": "contracts/Gacha/Attunement.sol",
  "abi": [
    {
      "inputs": [
        {
          "internalType": "address",
          "name": "_elemental",
          "type": "address"
        },
        {
          "internalType": "address",
          "name": "_girl",
          "type": "address"
        }
      ],
      "stateMutability": "nonpayable",
      "type": "constructor"
    },
    {
      "anonymous": false,
      "inputs": [
        {
          "indexed": true,
          "internalType": "address",
          "name": "previousOwner",
          "type": "address"
        },
        {
          "indexed": true,
          "internalType": "address",
          "name": "newOwner",
          "type": "address"
        }
      ],
      "name": "OwnershipTransferred",
      "type": "event"
    },
    {
      "inputs": [
        {
          "internalType": "uint256",
          "name": "depositId",
          "type": "uint256"
        }
      ],
      "name": "attune",
      "outputs": [
        {
          "internalType": "bool",
          "name": "",
          "type": "bool"
        }
      ],
      "stateMutability": "nonpayable",
      "type": "function"
    },
    {
      "inputs": [
        {
          "internalType": "uint256",
          "name": "depositId",
          "type": "uint256"
        }
      ],
      "name": "cancelStake",
      "outputs": [],
      "stateMutability": "nonpayable",
      "type": "function"
    },
    {
      "inputs": [],
      "name": "defaultTimeRequired",
      "outputs": [
        {
          "internalType": "uint256",
          "name": "",
          "type": "uint256"
        }
      ],
      "stateMutability": "view",
      "type": "function"
    },
    {
      "inputs": [
        {
          "internalType": "uint256",
          "name": "",
          "type": "uint256"
        }
      ],
      "name": "depositByGirlID",
      "outputs": [
        {
          "internalType": "uint256",
          "name": "",
          "type": "uint256"
        }
      ],
      "stateMutability": "view",
      "type": "function"
    },
    {
      "inputs": [
        {
          "internalType": "uint256",
          "name": "",
          "type": "uint256"
        }
      ],
      "name": "deposits",
      "outputs": [
        {
          "internalType": "address",
          "name": "owner",
          "type": "address"
        },
        {
          "internalType": "uint256",
          "name": "depositId",
          "type": "uint256"
        },
        {
          "internalType": "uint256",
          "name": "element",
          "type": "uint256"
        },
        {
          "internalType": "uint256",
          "name": "girlId",
          "type": "uint256"
        },
        {
          "internalType": "uint256",
          "name": "timeDeposited",
          "type": "uint256"
        },
        {
          "internalType": "bool",
          "name": "matched",
          "type": "bool"
        },
        {
          "internalType": "uint256",
          "name": "unlockTime",
          "type": "uint256"
        }
      ],
      "stateMutability": "view",
      "type": "function"
    },
    {
      "inputs": [],
      "name": "elementalStone",
      "outputs": [
        {
          "internalType": "contract IElementalStone",
          "name": "",
          "type": "address"
        }
      ],
      "stateMutability": "view",
      "type": "function"
    },
    {
      "inputs": [
        {
          "internalType": "uint256",
          "name": "depositId",
          "type": "uint256"
        }
      ],
      "name": "getUnlockTime",
      "outputs": [
        {
          "internalType": "uint256",
          "name": "unlockTime",
          "type": "uint256"
        }
      ],
      "stateMutability": "view",
      "type": "function"
    },
    {
      "inputs": [
        {
          "internalType": "address",
          "name": "_user",
          "type": "address"
        }
      ],
      "name": "getUserActiveDeposits",
      "outputs": [
        {
          "components": [
            {
              "internalType": "address",
              "name": "owner",
              "type": "address"
            },
            {
              "internalType": "uint256",
              "name": "depositId",
              "type": "uint256"
            },
            {
              "internalType": "uint256",
              "name": "element",
              "type": "uint256"
            },
            {
              "internalType": "uint256",
              "name": "girlId",
              "type": "uint256"
            },
            {
              "internalType": "uint256",
              "name": "timeDeposited",
              "type": "uint256"
            },
            {
              "internalType": "bool",
              "name": "matched",
              "type": "bool"
            },
            {
              "internalType": "uint256",
              "name": "unlockTime",
              "type": "uint256"
            }
          ],
          "internalType": "struct Attunement.Deposit[]",
          "name": "",
          "type": "tuple[]"
        }
      ],
      "stateMutability": "view",
      "type": "function"
    },
    {
      "inputs": [
        {
          "internalType": "address",
          "name": "_user",
          "type": "address"
        }
      ],
      "name": "getUserDepositIds",
      "outputs": [
        {
          "internalType": "uint256[]",
          "name": "",
          "type": "uint256[]"
        }
      ],
      "stateMutability": "view",
      "type": "function"
    },
    {
      "inputs": [],
      "name": "girl",
      "outputs": [
        {
          "internalType": "contract IGirl",
          "name": "",
          "type": "address"
        }
      ],
      "stateMutability": "view",
      "type": "function"
    },
    {
      "inputs": [
        {
          "internalType": "uint256",
          "name": "girlID",
          "type": "uint256"
        }
      ],
      "name": "girlTransferred",
      "outputs": [],
      "stateMutability": "nonpayable",
      "type": "function"
    },
    {
      "inputs": [],
      "name": "matchedTimeRequired",
      "outputs": [
        {
          "internalType": "uint256",
          "name": "",
          "type": "uint256"
        }
      ],
      "stateMutability": "view",
      "type": "function"
    },
    {
      "inputs": [
        {
          "internalType": "address",
          "name": "",
          "type": "address"
        },
        {
          "internalType": "address",
          "name": "",
          "type": "address"
        },
        {
          "internalType": "uint256[]",
          "name": "",
          "type": "uint256[]"
        },
        {
          "internalType": "uint256[]",
          "name": "",
          "type": "uint256[]"
        },
        {
          "internalType": "bytes",
          "name": "",
          "type": "bytes"
        }
      ],
      "name": "onERC1155BatchReceived",
      "outputs": [
        {
          "internalType": "bytes4",
          "name": "",
          "type": "bytes4"
        }
      ],
      "stateMutability": "nonpayable",
      "type": "function"
    },
    {
      "inputs": [
        {
          "internalType": "address",
          "name": "",
          "type": "address"
        },
        {
          "internalType": "address",
          "name": "",
          "type": "address"
        },
        {
          "internalType": "uint256",
          "name": "",
          "type": "uint256"
        },
        {
          "internalType": "uint256",
          "name": "",
          "type": "uint256"
        },
        {
          "internalType": "bytes",
          "name": "",
          "type": "bytes"
        }
      ],
      "name": "onERC1155Received",
      "outputs": [
        {
          "internalType": "bytes4",
          "name": "",
          "type": "bytes4"
        }
      ],
      "stateMutability": "nonpayable",
      "type": "function"
    },
    {
      "inputs": [],
      "name": "owner",
      "outputs": [
        {
          "internalType": "address",
          "name": "",
          "type": "address"
        }
      ],
      "stateMutability": "view",
      "type": "function"
    },
    {
      "inputs": [],
      "name": "renounceOwnership",
      "outputs": [],
      "stateMutability": "nonpayable",
      "type": "function"
    },
    {
      "inputs": [
        {
          "internalType": "address",
          "name": "user",
          "type": "address"
        },
        {
          "internalType": "uint256",
          "name": "id",
          "type": "uint256"
        },
        {
          "internalType": "uint256",
          "name": "girlId",
          "type": "uint256"
        },
        {
          "internalType": "bool",
          "name": "isMatched",
          "type": "bool"
        }
      ],
      "name": "stake",
      "outputs": [],
      "stateMutability": "nonpayable",
      "type": "function"
    },
    {
      "inputs": [
        {
          "internalType": "bytes4",
          "name": "interfaceId",
          "type": "bytes4"
        }
      ],
      "name": "supportsInterface",
      "outputs": [
        {
          "internalType": "bool",
          "name": "",
          "type": "bool"
        }
      ],
      "stateMutability": "view",
      "type": "function"
    },
    {
      "inputs": [
        {
          "internalType": "address",
          "name": "newOwner",
          "type": "address"
        }
      ],
      "name": "transferOwnership",
      "outputs": [],
      "stateMutability": "nonpayable",
      "type": "function"
    },
    {
      "inputs": [
        {
          "internalType": "address",
          "name": "",
          "type": "address"
        },
        {
          "internalType": "uint256",
          "name": "",
          "type": "uint256"
        }
      ],
      "name": "usersDepositIds",
      "outputs": [
        {
          "internalType": "uint256",
          "name": "",
          "type": "uint256"
        }
      ],
      "stateMutability": "view",
      "type": "function"
    }
  ],
  "bytecode": "0x608060405262093a8060045560026004546200001c919062000137565b6005553480156200002c57600080fd5b50604051620018f9380380620018f98339810160408190526200004f9162000100565b60016000556200005f3362000091565b600280546001600160a01b039384166001600160a01b0319918216179091556003805492909316911617905562000158565b600180546001600160a01b038381166001600160a01b0319831681179093556040519116919082907f8be0079c531659141344cd1fd0a4f28419497f9722a3daafe3b4186f6b6457e090600090a35050565b80516001600160a01b0381168114620000fb57600080fd5b919050565b6000806040838503121562000113578182fd5b6200011e83620000e3565b91506200012e60208401620000e3565b90509250929050565b6000826200015357634e487b7160e01b81526012600452602481fd5b500490565b61179180620001686000396000f3fe608060405234801561001057600080fd5b506004361061012c5760003560e01c8063bc197c81116100ad578063d8de948011610071578063d8de9480146102f7578063dd4680961461030a578063e2eaf38e1461031d578063f23a6e6114610330578063f2fde38b1461034f57600080fd5b8063bc197c811461024c578063c285c8c914610284578063c3b57266146102a4578063d41b0466146102c4578063d4e4487d146102d757600080fd5b80638da5cb5b116100f45780638da5cb5b146101ae578063ab60a320146101bf578063add058fd146101d2578063b02c43d0146101e5578063b21536e61461023957600080fd5b806301ffc9a71461013157806325876724146101595780633318f1a514610170578063715018a61461019b5780637caa5f7c146101a5575b600080fd5b61014461013f366004611595565b610362565b60405190151581526020015b60405180910390f35b61016260045481565b604051908152602001610150565b600354610183906001600160a01b031681565b6040516001600160a01b039091168152602001610150565b6101a3610399565b005b61016260055481565b6001546001600160a01b0316610183565b6101446101cd3660046115bd565b6103ad565b6101a36101e03660046115bd565b610599565b6101f86101f33660046115bd565b610730565b604080516001600160a01b03909816885260208801969096529486019390935260608501919091526080840152151560a083015260c082015260e001610150565b6101626102473660046115bd565b61078c565b61026b61025a366004611400565b63bc197c8160e01b95945050505050565b6040516001600160e01b03199091168152602001610150565b6102976102923660046113df565b6107d2565b60405161015091906115d5565b6101626102b23660046115bd565b60096020526000908152604090205481565b600254610183906001600160a01b031681565b6102ea6102e53660046113df565b61099d565b6040516101509190611662565b6101a36103053660046115bd565b610b43565b6101a3610318366004611532565b610c43565b61016261032b366004611509565b610e4a565b61026b61033e3660046114a6565b63f23a6e6160e01b95945050505050565b6101a361035d3660046113df565b610e7b565b60006001600160e01b03198216630271189760e51b148061039357506301ffc9a760e01b6001600160e01b03198316145b92915050565b6103a1610ef1565b6103ab6000610f4b565b565b6000806103bb6001846116ef565b9050336001600160a01b0316600782815481106103e857634e487b7160e01b600052603260045260246000fd5b60009182526020909120600790910201546001600160a01b0316146104545760405162461bcd60e51b815260206004820152601c60248201527f417474756e656d656e743a2063616c6c6572206e6f74206f776e65720000000060448201526064015b60405180910390fd5b61045d81610f9d565b6104a15760405162461bcd60e51b8152602060048201526015602482015274417474756e656d656e743a206e6f7420726561647960581b604482015260640161044b565b600254600780546001600160a01b0390921691631ce57c00913391859081106104da57634e487b7160e01b600052603260045260246000fd5b9060005260206000209060070201600201546007858154811061050d57634e487b7160e01b600052603260045260246000fd5b60009182526020909120600360079092020101546040516001600160e01b031960e086901b1681526001600160a01b03909316600484015260248301919091526044820152606401600060405180830381600087803b15801561056f57600080fd5b505af1158015610583573d6000803e3d6000fd5b5050505061059083610fe8565b50600192915050565b6003546001600160a01b031633146105f35760405162461bcd60e51b815260206004820152601e60248201527f417474756e656d656e743a206f6e6c79206769726c2063616e2063616c6c0000604482015260640161044b565b600354604051630b68941760e01b8152600481018390526001600160a01b0390911690630b6894179060240160206040518083038186803b15801561063757600080fd5b505afa15801561064b573d6000803e3d6000fd5b505050506040513d601f19601f8201168201806040525081019061066f9190611579565b1561072d576000818152600960205260408120549060076106916001846116ef565b815481106106af57634e487b7160e01b600052603260045260246000fd5b600091825260208220600791820201546001600160a01b031692506106d56001856116ef565b815481106106f357634e487b7160e01b600052603260045260246000fd5b906000526020600020906007020160020154905060006107138383611247565b90508061071f57600080fd5b61072884610fe8565b505050505b50565b6007818154811061074057600080fd5b600091825260209091206007909102018054600182015460028301546003840154600485015460058601546006909601546001600160a01b0390951696509294919390929160ff169087565b6000600761079b6001846116ef565b815481106107b957634e487b7160e01b600052603260045260246000fd5b9060005260206000209060070201600601549050919050565b606060006107df8361099d565b90506000815167ffffffffffffffff81111561080b57634e487b7160e01b600052604160045260246000fd5b60405190808252806020026020018201604052801561088757816020015b6108746040518060e0016040528060006001600160a01b0316815260200160008152602001600081526020016000815260200160008152602001600015158152602001600081525090565b8152602001906001900390816108295790505b50905060005b825181101561099557600760018483815181106108ba57634e487b7160e01b600052603260045260246000fd5b60200260200101516108cc91906116ef565b815481106108ea57634e487b7160e01b600052603260045260246000fd5b60009182526020918290206040805160e081018252600790930290910180546001600160a01b031683526001810154938301939093526002830154908201526003820154606082015260048201546080820152600582015460ff16151560a082015260069091015460c0820152825183908390811061097957634e487b7160e01b600052603260045260246000fd5b60200260200101819052508061098e90611706565b905061088d565b509392505050565b60606000805b6001600160a01b038416600090815260086020526040902054811015610a29576001600160a01b03841660009081526008602052604090208054829081106109fb57634e487b7160e01b600052603260045260246000fd5b9060005260206000200154600014610a1957610a1682611706565b91505b610a2281611706565b90506109a3565b5060008167ffffffffffffffff811115610a5357634e487b7160e01b600052604160045260246000fd5b604051908082528060200260200182016040528015610a7c578160200160208202803683370190505b5090506000805b6001600160a01b038616600090815260086020526040902054811015610b39576001600160a01b0386166000908152600860205260408120805483908110610adb57634e487b7160e01b600052603260045260246000fd5b9060005260206000200154905080600014610b285780848481518110610b1157634e487b7160e01b600052603260045260246000fd5b6020908102919091010152610b2583611706565b92505b50610b3281611706565b9050610a83565b5090949350505050565b60006007610b526001846116ef565b81548110610b7057634e487b7160e01b600052603260045260246000fd5b60009182526020909120600790910201546001600160a01b03169050338114610bdb5760405162461bcd60e51b815260206004820152601c60248201527f417474756e656d656e743a2063616c6c6572206e6f74206f776e657200000000604482015260640161044b565b60006007610bea6001856116ef565b81548110610c0857634e487b7160e01b600052603260045260246000fd5b90600052602060002090600702016002015490506000610c288383611247565b905080610c3457600080fd5b610c3d84610fe8565b50505050565b6002546001600160a01b03163314610cab5760405162461bcd60e51b815260206004820152602560248201527f417474756e656d656e743a206f6e6c7920455320636f6e74726163742063616e6044820152640818d85b1b60da1b606482015260840161044b565b4260008215610cc857600554610cc190836116d7565b9050610cd8565b600454610cd590836116d7565b90505b600660008154610ce790611706565b9190508190555060076040518060e00160405280886001600160a01b031681526020016006548152602001878152602001868152602001848152602001851515815260200183815250908060018154018082558091505060019003906000526020600020906007020160009091909190915060008201518160000160006101000a8154816001600160a01b0302191690836001600160a01b031602179055506020820151816001015560408201518160020155606082015181600301556080820151816004015560a08201518160050160006101000a81548160ff02191690831515021790555060c08201518160060155505060086000876001600160a01b03166001600160a01b0316815260200190815260200160002060065490806001815401808255809150506001900390600052602060002001600090919091909150556006546009600086815260200190815260200160002081905550505050505050565b60086020528160005260406000208181548110610e6657600080fd5b90600052602060002001600091509150505481565b610e83610ef1565b6001600160a01b038116610ee85760405162461bcd60e51b815260206004820152602660248201527f4f776e61626c653a206e6577206f776e657220697320746865207a65726f206160448201526564647265737360d01b606482015260840161044b565b61072d81610f4b565b6001546001600160a01b031633146103ab5760405162461bcd60e51b815260206004820181905260248201527f4f776e61626c653a2063616c6c6572206973206e6f7420746865206f776e6572604482015260640161044b565b600180546001600160a01b038381166001600160a01b0319831681179093556040519116919082907f8be0079c531659141344cd1fd0a4f28419497f9722a3daafe3b4186f6b6457e090600090a35050565b60004260078381548110610fc157634e487b7160e01b600052603260045260246000fd5b90600052602060002090600702016006015411610fe057506001919050565b506000919050565b60006007610ff76001846116ef565b8154811061101557634e487b7160e01b600052603260045260246000fd5b600091825260208083206040805160e081018252600790940290910180546001600160a01b031680855260018201549385019390935260028101549184019190915260038101546060840181905260048201546080850152600582015460ff16151560a085015260069091015460c084015291935090915b6001600160a01b038216600090815260086020526040902054811015611151576001600160a01b03821660009081526008602052604090208054869190839081106110e857634e487b7160e01b600052603260045260246000fd5b90600052602060002001541415611141576001600160a01b038216600090815260086020526040902080548290811061113157634e487b7160e01b600052603260045260246000fd5b6000918252602082200155611151565b61114a81611706565b905061108d565b50600761115f6001866116ef565b8154811061117d57634e487b7160e01b600052603260045260246000fd5b6000918252602080832060079290920290910180546001600160a01b031916815560018101839055600281018390556003808201849055600480830185905560058301805460ff1916905560069092018490558584526009909252604080842084905591549151633f1ed70960e01b815290810185905260248101929092526001600160a01b031690633f1ed70990604401600060405180830381600087803b15801561122957600080fd5b505af115801561123d573d6000803e3d6000fd5b5050505050505050565b600254604051637921219560e11b81523060048201526001600160a01b038481166024830152604482018490526001606483015260a06084830152600060a48301819052921690819063f242432a9060c401600060405180830381600087803b1580156112b357600080fd5b505af11580156112c7573d6000803e3d6000fd5b506001979650505050505050565b80356001600160a01b03811681146112ec57600080fd5b919050565b600082601f830112611301578081fd5b8135602067ffffffffffffffff82111561131d5761131d611737565b8160051b61132c8282016116a6565b838152828101908684018388018501891015611346578687fd5b8693505b8584101561136857803583526001939093019291840191840161134a565b50979650505050505050565b600082601f830112611384578081fd5b813567ffffffffffffffff81111561139e5761139e611737565b6113b1601f8201601f19166020016116a6565b8181528460208386010111156113c5578283fd5b816020850160208301379081016020019190915292915050565b6000602082840312156113f0578081fd5b6113f9826112d5565b9392505050565b600080600080600060a08688031215611417578081fd5b611420866112d5565b945061142e602087016112d5565b9350604086013567ffffffffffffffff8082111561144a578283fd5b61145689838a016112f1565b9450606088013591508082111561146b578283fd5b61147789838a016112f1565b9350608088013591508082111561148c578283fd5b5061149988828901611374565b9150509295509295909350565b600080600080600060a086880312156114bd578081fd5b6114c6866112d5565b94506114d4602087016112d5565b93506040860135925060608601359150608086013567ffffffffffffffff8111156114fd578182fd5b61149988828901611374565b6000806040838503121561151b578182fd5b611524836112d5565b946020939093013593505050565b60008060008060808587031215611547578384fd5b611550856112d5565b93506020850135925060408501359150606085013561156e8161174d565b939692955090935050565b60006020828403121561158a578081fd5b81516113f98161174d565b6000602082840312156115a6578081fd5b81356001600160e01b0319811681146113f9578182fd5b6000602082840312156115ce578081fd5b5035919050565b602080825282518282018190526000919060409081850190868401855b8281101561165557815180516001600160a01b0316855286810151878601528581015186860152606080820151908601526080808201519086015260a08082015115159086015260c0908101519085015260e090930192908501906001016115f2565b5091979650505050505050565b6020808252825182820181905260009190848201906040850190845b8181101561169a5783518352928401929184019160010161167e565b50909695505050505050565b604051601f8201601f1916810167ffffffffffffffff811182821017156116cf576116cf611737565b604052919050565b600082198211156116ea576116ea611721565b500190565b60008282101561170157611701611721565b500390565b600060001982141561171a5761171a611721565b5060010190565b634e487b7160e01b600052601160045260246000fd5b634e487b7160e01b600052604160045260246000fd5b801515811461072d57600080fdfea2646970667358221220991f902543e7f2c279c2b20f8196bba6ca31816a3088d6791486d07a3171fd1664736f6c63430008040033",
  "linkReferences": {},
  "deployedLinkReferences": {}
}