{
  "_format": "hh-sol-artifact-1",
  "contractName": "Attunement",
  "sourceName": "contracts/Gacha/Attunement.sol",
  "abi": [
    {
      "inputs": [
        {
          "internalType": "address",
          "name": "_elemental",
          "type": "address"
        },
        {
          "internalType": "address",
          "name": "_girl",
          "type": "address"
        }
      ],
      "stateMutability": "nonpayable",
      "type": "constructor"
    },
    {
      "anonymous": false,
      "inputs": [
        {
          "indexed": true,
          "internalType": "address",
          "name": "previousOwner",
          "type": "address"
        },
        {
          "indexed": true,
          "internalType": "address",
          "name": "newOwner",
          "type": "address"
        }
      ],
      "name": "OwnershipTransferred",
      "type": "event"
    },
    {
      "inputs": [
        {
          "internalType": "uint256",
          "name": "depositId",
          "type": "uint256"
        }
      ],
      "name": "attune",
      "outputs": [
        {
          "internalType": "bool",
          "name": "",
          "type": "bool"
        }
      ],
      "stateMutability": "nonpayable",
      "type": "function"
    },
    {
      "inputs": [
        {
          "internalType": "uint256",
          "name": "depositId",
          "type": "uint256"
        }
      ],
      "name": "cancelStake",
      "outputs": [],
      "stateMutability": "nonpayable",
      "type": "function"
    },
    {
      "inputs": [],
      "name": "defaultTimeRequired",
      "outputs": [
        {
          "internalType": "uint256",
          "name": "",
          "type": "uint256"
        }
      ],
      "stateMutability": "view",
      "type": "function"
    },
    {
      "inputs": [
        {
          "internalType": "uint256",
          "name": "",
          "type": "uint256"
        }
      ],
      "name": "depositByGirlID",
      "outputs": [
        {
          "internalType": "uint256",
          "name": "",
          "type": "uint256"
        }
      ],
      "stateMutability": "view",
      "type": "function"
    },
    {
      "inputs": [
        {
          "internalType": "uint256",
          "name": "",
          "type": "uint256"
        }
      ],
      "name": "deposits",
      "outputs": [
        {
          "internalType": "address",
          "name": "owner",
          "type": "address"
        },
        {
          "internalType": "uint256",
          "name": "depositId",
          "type": "uint256"
        },
        {
          "internalType": "uint256",
          "name": "element",
          "type": "uint256"
        },
        {
          "internalType": "uint256",
          "name": "girlId",
          "type": "uint256"
        },
        {
          "internalType": "uint256",
          "name": "timeDeposited",
          "type": "uint256"
        },
        {
          "internalType": "bool",
          "name": "matched",
          "type": "bool"
        },
        {
          "internalType": "uint256",
          "name": "unlockTime",
          "type": "uint256"
        }
      ],
      "stateMutability": "view",
      "type": "function"
    },
    {
      "inputs": [],
      "name": "elementalStone",
      "outputs": [
        {
          "internalType": "contract IElementalStone",
          "name": "",
          "type": "address"
        }
      ],
      "stateMutability": "view",
      "type": "function"
    },
    {
      "inputs": [
        {
          "internalType": "uint256",
          "name": "depositId",
          "type": "uint256"
        }
      ],
      "name": "getUnlockTime",
      "outputs": [
        {
          "internalType": "uint256",
          "name": "unlockTime",
          "type": "uint256"
        }
      ],
      "stateMutability": "view",
      "type": "function"
    },
    {
      "inputs": [
        {
          "internalType": "address",
          "name": "_user",
          "type": "address"
        }
      ],
      "name": "getUserActiveDeposits",
      "outputs": [
        {
          "components": [
            {
              "internalType": "address",
              "name": "owner",
              "type": "address"
            },
            {
              "internalType": "uint256",
              "name": "depositId",
              "type": "uint256"
            },
            {
              "internalType": "uint256",
              "name": "element",
              "type": "uint256"
            },
            {
              "internalType": "uint256",
              "name": "girlId",
              "type": "uint256"
            },
            {
              "internalType": "uint256",
              "name": "timeDeposited",
              "type": "uint256"
            },
            {
              "internalType": "bool",
              "name": "matched",
              "type": "bool"
            },
            {
              "internalType": "uint256",
              "name": "unlockTime",
              "type": "uint256"
            }
          ],
          "internalType": "struct Attunement.Deposit[]",
          "name": "",
          "type": "tuple[]"
        }
      ],
      "stateMutability": "view",
      "type": "function"
    },
    {
      "inputs": [
        {
          "internalType": "address",
          "name": "_user",
          "type": "address"
        }
      ],
      "name": "getUserDepositIds",
      "outputs": [
        {
          "internalType": "uint256[]",
          "name": "",
          "type": "uint256[]"
        }
      ],
      "stateMutability": "view",
      "type": "function"
    },
    {
      "inputs": [],
      "name": "girl",
      "outputs": [
        {
          "internalType": "contract IGirl",
          "name": "",
          "type": "address"
        }
      ],
      "stateMutability": "view",
      "type": "function"
    },
    {
      "inputs": [
        {
          "internalType": "uint256",
          "name": "girlID",
          "type": "uint256"
        }
      ],
      "name": "girlTransferred",
      "outputs": [],
      "stateMutability": "nonpayable",
      "type": "function"
    },
    {
      "inputs": [],
      "name": "globalDepID",
      "outputs": [
        {
          "internalType": "uint256",
          "name": "",
          "type": "uint256"
        }
      ],
      "stateMutability": "view",
      "type": "function"
    },
    {
      "inputs": [
        {
          "internalType": "uint256",
          "name": "depositId",
          "type": "uint256"
        }
      ],
      "name": "isComplete",
      "outputs": [
        {
          "internalType": "bool",
          "name": "",
          "type": "bool"
        }
      ],
      "stateMutability": "view",
      "type": "function"
    },
    {
      "inputs": [],
      "name": "matchedTimeRequired",
      "outputs": [
        {
          "internalType": "uint256",
          "name": "",
          "type": "uint256"
        }
      ],
      "stateMutability": "view",
      "type": "function"
    },
    {
      "inputs": [
        {
          "internalType": "address",
          "name": "",
          "type": "address"
        },
        {
          "internalType": "address",
          "name": "",
          "type": "address"
        },
        {
          "internalType": "uint256[]",
          "name": "",
          "type": "uint256[]"
        },
        {
          "internalType": "uint256[]",
          "name": "",
          "type": "uint256[]"
        },
        {
          "internalType": "bytes",
          "name": "",
          "type": "bytes"
        }
      ],
      "name": "onERC1155BatchReceived",
      "outputs": [
        {
          "internalType": "bytes4",
          "name": "",
          "type": "bytes4"
        }
      ],
      "stateMutability": "nonpayable",
      "type": "function"
    },
    {
      "inputs": [
        {
          "internalType": "address",
          "name": "",
          "type": "address"
        },
        {
          "internalType": "address",
          "name": "",
          "type": "address"
        },
        {
          "internalType": "uint256",
          "name": "",
          "type": "uint256"
        },
        {
          "internalType": "uint256",
          "name": "",
          "type": "uint256"
        },
        {
          "internalType": "bytes",
          "name": "",
          "type": "bytes"
        }
      ],
      "name": "onERC1155Received",
      "outputs": [
        {
          "internalType": "bytes4",
          "name": "",
          "type": "bytes4"
        }
      ],
      "stateMutability": "nonpayable",
      "type": "function"
    },
    {
      "inputs": [],
      "name": "owner",
      "outputs": [
        {
          "internalType": "address",
          "name": "",
          "type": "address"
        }
      ],
      "stateMutability": "view",
      "type": "function"
    },
    {
      "inputs": [],
      "name": "renounceOwnership",
      "outputs": [],
      "stateMutability": "nonpayable",
      "type": "function"
    },
    {
      "inputs": [
        {
          "internalType": "address",
          "name": "user",
          "type": "address"
        },
        {
          "internalType": "uint256",
          "name": "id",
          "type": "uint256"
        },
        {
          "internalType": "uint256",
          "name": "girlId",
          "type": "uint256"
        },
        {
          "internalType": "bool",
          "name": "isMatched",
          "type": "bool"
        }
      ],
      "name": "stake",
      "outputs": [],
      "stateMutability": "nonpayable",
      "type": "function"
    },
    {
      "inputs": [
        {
          "internalType": "bytes4",
          "name": "interfaceId",
          "type": "bytes4"
        }
      ],
      "name": "supportsInterface",
      "outputs": [
        {
          "internalType": "bool",
          "name": "",
          "type": "bool"
        }
      ],
      "stateMutability": "view",
      "type": "function"
    },
    {
      "inputs": [
        {
          "internalType": "address",
          "name": "newOwner",
          "type": "address"
        }
      ],
      "name": "transferOwnership",
      "outputs": [],
      "stateMutability": "nonpayable",
      "type": "function"
    },
    {
      "inputs": [
        {
          "internalType": "address",
          "name": "",
          "type": "address"
        },
        {
          "internalType": "uint256",
          "name": "",
          "type": "uint256"
        }
      ],
      "name": "usersDepositIds",
      "outputs": [
        {
          "internalType": "uint256",
          "name": "",
          "type": "uint256"
        }
      ],
      "stateMutability": "view",
      "type": "function"
    }
  ],
  "bytecode": "0x608060405262093a8060045560026004546200001c919062000137565b6005553480156200002c57600080fd5b50604051620019ca380380620019ca8339810160408190526200004f9162000100565b60016000556200005f3362000091565b600280546001600160a01b039384166001600160a01b0319918216179091556003805492909316911617905562000158565b600180546001600160a01b038381166001600160a01b0319831681179093556040519116919082907f8be0079c531659141344cd1fd0a4f28419497f9722a3daafe3b4186f6b6457e090600090a35050565b80516001600160a01b0381168114620000fb57600080fd5b919050565b6000806040838503121562000113578182fd5b6200011e83620000e3565b91506200012e60208401620000e3565b90509250929050565b6000826200015357634e487b7160e01b81526012600452602481fd5b500490565b61186280620001686000396000f3fe608060405234801561001057600080fd5b50600436106101425760003560e01c8063b21536e6116100b8578063d4e4487d1161007c578063d4e4487d14610309578063d8de948014610329578063dd4680961461033c578063e2eaf38e1461034f578063f23a6e6114610362578063f2fde38b1461038157600080fd5b8063b21536e61461026b578063bc197c811461027e578063c285c8c9146102b6578063c3b57266146102d6578063d41b0466146102f657600080fd5b8063715018a61161010a578063715018a6146101cd5780637caa5f7c146101d75780638da5cb5b146101e0578063ab60a320146101f1578063add058fd14610204578063b02c43d01461021757600080fd5b806301ffc9a7146101475780630ab48bef1461016f57806325876724146101865780633318f1a51461018f5780633a0be1a6146101ba575b600080fd5b61015a610155366004611666565b610394565b60405190151581526020015b60405180910390f35b61017860065481565b604051908152602001610166565b61017860045481565b6003546101a2906001600160a01b031681565b6040516001600160a01b039091168152602001610166565b61015a6101c836600461168e565b6103cb565b6101d56103e0565b005b61017860055481565b6001546001600160a01b03166101a2565b61015a6101ff36600461168e565b6103f4565b6101d561021236600461168e565b6105f4565b61022a61022536600461168e565b61079d565b604080516001600160a01b03909816885260208801969096529486019390935260608501919091526080840152151560a083015260c082015260e001610166565b61017861027936600461168e565b6107f9565b61029d61028c3660046114d1565b63bc197c8160e01b95945050505050565b6040516001600160e01b03199091168152602001610166565b6102c96102c43660046114b0565b61083f565b60405161016691906116a6565b6101786102e436600461168e565b60096020526000908152604090205481565b6002546101a2906001600160a01b031681565b61031c6103173660046114b0565b610a0a565b6040516101669190611733565b6101d561033736600461168e565b610bb0565b6101d561034a366004611603565b610cbf565b61017861035d3660046115da565b610ec6565b61029d610370366004611577565b63f23a6e6160e01b95945050505050565b6101d561038f3660046114b0565b610ef7565b60006001600160e01b03198216630271189760e51b14806103c557506301ffc9a760e01b6001600160e01b03198316145b92915050565b60006103c56103db6001846117c0565b610f6d565b6103e8610fb8565b6103f26000611012565b565b60006103fe611064565b600061040b6001846117c0565b9050336001600160a01b03166007828154811061043857634e487b7160e01b600052603260045260246000fd5b60009182526020909120600790910201546001600160a01b0316146104a45760405162461bcd60e51b815260206004820152601c60248201527f417474756e656d656e743a2063616c6c6572206e6f74206f776e65720000000060448201526064015b60405180910390fd5b6104ad81610f6d565b6104f15760405162461bcd60e51b8152602060048201526015602482015274417474756e656d656e743a206e6f7420726561647960581b604482015260640161049b565b600254600780546001600160a01b0390921691631ce57c009133918590811061052a57634e487b7160e01b600052603260045260246000fd5b9060005260206000209060070201600201546007858154811061055d57634e487b7160e01b600052603260045260246000fd5b60009182526020909120600360079092020101546040516001600160e01b031960e086901b1681526001600160a01b03909316600484015260248301919091526044820152606401600060405180830381600087803b1580156105bf57600080fd5b505af11580156105d3573d6000803e3d6000fd5b505050506105e0836110be565b60019150506105ef6001600055565b919050565b6003546001600160a01b0316331461064e5760405162461bcd60e51b815260206004820152601e60248201527f417474756e656d656e743a206f6e6c79206769726c2063616e2063616c6c0000604482015260640161049b565b610656611064565b600354604051630b68941760e01b8152600481018390526001600160a01b0390911690630b6894179060240160206040518083038186803b15801561069a57600080fd5b505afa1580156106ae573d6000803e3d6000fd5b505050506040513d601f19601f820116820180604052508101906106d2919061164a565b15610790576000818152600960205260408120549060076106f46001846117c0565b8154811061071257634e487b7160e01b600052603260045260246000fd5b600091825260208220600791820201546001600160a01b031692506107386001856117c0565b8154811061075657634e487b7160e01b600052603260045260246000fd5b90600052602060002090600702016002015490506000610776838361131d565b90508061078257600080fd5b61078b846110be565b505050505b61079a6001600055565b50565b600781815481106107ad57600080fd5b600091825260209091206007909102018054600182015460028301546003840154600485015460058601546006909601546001600160a01b0390951696509294919390929160ff169087565b600060076108086001846117c0565b8154811061082657634e487b7160e01b600052603260045260246000fd5b9060005260206000209060070201600601549050919050565b6060600061084c83610a0a565b90506000815167ffffffffffffffff81111561087857634e487b7160e01b600052604160045260246000fd5b6040519080825280602002602001820160405280156108f457816020015b6108e16040518060e0016040528060006001600160a01b0316815260200160008152602001600081526020016000815260200160008152602001600015158152602001600081525090565b8152602001906001900390816108965790505b50905060005b8251811015610a02576007600184838151811061092757634e487b7160e01b600052603260045260246000fd5b602002602001015161093991906117c0565b8154811061095757634e487b7160e01b600052603260045260246000fd5b60009182526020918290206040805160e081018252600790930290910180546001600160a01b031683526001810154938301939093526002830154908201526003820154606082015260048201546080820152600582015460ff16151560a082015260069091015460c082015282518390839081106109e657634e487b7160e01b600052603260045260246000fd5b6020026020010181905250806109fb906117d7565b90506108fa565b509392505050565b60606000805b6001600160a01b038416600090815260086020526040902054811015610a96576001600160a01b0384166000908152600860205260409020805482908110610a6857634e487b7160e01b600052603260045260246000fd5b9060005260206000200154600014610a8657610a83826117d7565b91505b610a8f816117d7565b9050610a10565b5060008167ffffffffffffffff811115610ac057634e487b7160e01b600052604160045260246000fd5b604051908082528060200260200182016040528015610ae9578160200160208202803683370190505b5090506000805b6001600160a01b038616600090815260086020526040902054811015610ba6576001600160a01b0386166000908152600860205260408120805483908110610b4857634e487b7160e01b600052603260045260246000fd5b9060005260206000200154905080600014610b955780848481518110610b7e57634e487b7160e01b600052603260045260246000fd5b6020908102919091010152610b92836117d7565b92505b50610b9f816117d7565b9050610af0565b5090949350505050565b610bb8611064565b60006007610bc76001846117c0565b81548110610be557634e487b7160e01b600052603260045260246000fd5b60009182526020909120600790910201546001600160a01b03169050338114610c505760405162461bcd60e51b815260206004820152601c60248201527f417474756e656d656e743a2063616c6c6572206e6f74206f776e657200000000604482015260640161049b565b60006007610c5f6001856117c0565b81548110610c7d57634e487b7160e01b600052603260045260246000fd5b90600052602060002090600702016002015490506000610c9d838361131d565b905080610ca957600080fd5b610cb2846110be565b50505061079a6001600055565b6002546001600160a01b03163314610d275760405162461bcd60e51b815260206004820152602560248201527f417474756e656d656e743a206f6e6c7920455320636f6e74726163742063616e6044820152640818d85b1b60da1b606482015260840161049b565b4260008215610d4457600554610d3d90836117a8565b9050610d54565b600454610d5190836117a8565b90505b600660008154610d63906117d7565b9190508190555060076040518060e00160405280886001600160a01b031681526020016006548152602001878152602001868152602001848152602001851515815260200183815250908060018154018082558091505060019003906000526020600020906007020160009091909190915060008201518160000160006101000a8154816001600160a01b0302191690836001600160a01b031602179055506020820151816001015560408201518160020155606082015181600301556080820151816004015560a08201518160050160006101000a81548160ff02191690831515021790555060c08201518160060155505060086000876001600160a01b03166001600160a01b0316815260200190815260200160002060065490806001815401808255809150506001900390600052602060002001600090919091909150556006546009600086815260200190815260200160002081905550505050505050565b60086020528160005260406000208181548110610ee257600080fd5b90600052602060002001600091509150505481565b610eff610fb8565b6001600160a01b038116610f645760405162461bcd60e51b815260206004820152602660248201527f4f776e61626c653a206e6577206f776e657220697320746865207a65726f206160448201526564647265737360d01b606482015260840161049b565b61079a81611012565b60004260078381548110610f9157634e487b7160e01b600052603260045260246000fd5b90600052602060002090600702016006015411610fb057506001919050565b506000919050565b6001546001600160a01b031633146103f25760405162461bcd60e51b815260206004820181905260248201527f4f776e61626c653a2063616c6c6572206973206e6f7420746865206f776e6572604482015260640161049b565b600180546001600160a01b038381166001600160a01b0319831681179093556040519116919082907f8be0079c531659141344cd1fd0a4f28419497f9722a3daafe3b4186f6b6457e090600090a35050565b600260005414156110b75760405162461bcd60e51b815260206004820152601f60248201527f5265656e7472616e637947756172643a207265656e7472616e742063616c6c00604482015260640161049b565b6002600055565b600060076110cd6001846117c0565b815481106110eb57634e487b7160e01b600052603260045260246000fd5b600091825260208083206040805160e081018252600790940290910180546001600160a01b031680855260018201549385019390935260028101549184019190915260038101546060840181905260048201546080850152600582015460ff16151560a085015260069091015460c084015291935090915b6001600160a01b038216600090815260086020526040902054811015611227576001600160a01b03821660009081526008602052604090208054869190839081106111be57634e487b7160e01b600052603260045260246000fd5b90600052602060002001541415611217576001600160a01b038216600090815260086020526040902080548290811061120757634e487b7160e01b600052603260045260246000fd5b6000918252602082200155611227565b611220816117d7565b9050611163565b5060076112356001866117c0565b8154811061125357634e487b7160e01b600052603260045260246000fd5b6000918252602080832060079290920290910180546001600160a01b031916815560018101839055600281018390556003808201849055600480830185905560058301805460ff1916905560069092018490558584526009909252604080842084905591549151633f1ed70960e01b815290810185905260248101929092526001600160a01b031690633f1ed70990604401600060405180830381600087803b1580156112ff57600080fd5b505af1158015611313573d6000803e3d6000fd5b5050505050505050565b600254604051637921219560e11b81523060048201526001600160a01b038481166024830152604482018490526001606483015260a06084830152600060a48301819052921690819063f242432a9060c401600060405180830381600087803b15801561138957600080fd5b505af115801561139d573d6000803e3d6000fd5b506001979650505050505050565b80356001600160a01b03811681146105ef57600080fd5b600082601f8301126113d2578081fd5b8135602067ffffffffffffffff8211156113ee576113ee611808565b8160051b6113fd828201611777565b838152828101908684018388018501891015611417578687fd5b8693505b8584101561143957803583526001939093019291840191840161141b565b50979650505050505050565b600082601f830112611455578081fd5b813567ffffffffffffffff81111561146f5761146f611808565b611482601f8201601f1916602001611777565b818152846020838601011115611496578283fd5b816020850160208301379081016020019190915292915050565b6000602082840312156114c1578081fd5b6114ca826113ab565b9392505050565b600080600080600060a086880312156114e8578081fd5b6114f1866113ab565b94506114ff602087016113ab565b9350604086013567ffffffffffffffff8082111561151b578283fd5b61152789838a016113c2565b9450606088013591508082111561153c578283fd5b61154889838a016113c2565b9350608088013591508082111561155d578283fd5b5061156a88828901611445565b9150509295509295909350565b600080600080600060a0868803121561158e578081fd5b611597866113ab565b94506115a5602087016113ab565b93506040860135925060608601359150608086013567ffffffffffffffff8111156115ce578182fd5b61156a88828901611445565b600080604083850312156115ec578182fd5b6115f5836113ab565b946020939093013593505050565b60008060008060808587031215611618578384fd5b611621856113ab565b93506020850135925060408501359150606085013561163f8161181e565b939692955090935050565b60006020828403121561165b578081fd5b81516114ca8161181e565b600060208284031215611677578081fd5b81356001600160e01b0319811681146114ca578182fd5b60006020828403121561169f578081fd5b5035919050565b602080825282518282018190526000919060409081850190868401855b8281101561172657815180516001600160a01b0316855286810151878601528581015186860152606080820151908601526080808201519086015260a08082015115159086015260c0908101519085015260e090930192908501906001016116c3565b5091979650505050505050565b6020808252825182820181905260009190848201906040850190845b8181101561176b5783518352928401929184019160010161174f565b50909695505050505050565b604051601f8201601f1916810167ffffffffffffffff811182821017156117a0576117a0611808565b604052919050565b600082198211156117bb576117bb6117f2565b500190565b6000828210156117d2576117d26117f2565b500390565b60006000198214156117eb576117eb6117f2565b5060010190565b634e487b7160e01b600052601160045260246000fd5b634e487b7160e01b600052604160045260246000fd5b801515811461079a57600080fdfea2646970667358221220d54804969a7468928bd5ba7be7dc1bdd38e5dc5405638f06a21990e85b1adc5164736f6c63430008040033",
  "linkReferences": {},
  "deployedLinkReferences": {}
}