{
  "_format": "hh-sol-artifact-1",
  "contractName": "Bank",
  "sourceName": "contracts/ARC/Bank.sol",
  "abi": [
    {
      "inputs": [
        {
          "internalType": "address",
          "name": "_arc",
          "type": "address"
        }
      ],
      "stateMutability": "nonpayable",
      "type": "constructor"
    },
    {
      "anonymous": false,
      "inputs": [
        {
          "indexed": true,
          "internalType": "address",
          "name": "owner",
          "type": "address"
        },
        {
          "indexed": true,
          "internalType": "address",
          "name": "spender",
          "type": "address"
        },
        {
          "indexed": false,
          "internalType": "uint256",
          "name": "value",
          "type": "uint256"
        }
      ],
      "name": "Approval",
      "type": "event"
    },
    {
      "anonymous": false,
      "inputs": [
        {
          "indexed": true,
          "internalType": "address",
          "name": "from",
          "type": "address"
        },
        {
          "indexed": true,
          "internalType": "address",
          "name": "to",
          "type": "address"
        },
        {
          "indexed": false,
          "internalType": "uint256",
          "name": "value",
          "type": "uint256"
        }
      ],
      "name": "Transfer",
      "type": "event"
    },
    {
      "inputs": [
        {
          "internalType": "address",
          "name": "owner",
          "type": "address"
        },
        {
          "internalType": "address",
          "name": "spender",
          "type": "address"
        }
      ],
      "name": "allowance",
      "outputs": [
        {
          "internalType": "uint256",
          "name": "",
          "type": "uint256"
        }
      ],
      "stateMutability": "view",
      "type": "function"
    },
    {
      "inputs": [
        {
          "internalType": "address",
          "name": "spender",
          "type": "address"
        },
        {
          "internalType": "uint256",
          "name": "amount",
          "type": "uint256"
        }
      ],
      "name": "approve",
      "outputs": [
        {
          "internalType": "bool",
          "name": "",
          "type": "bool"
        }
      ],
      "stateMutability": "nonpayable",
      "type": "function"
    },
    {
      "inputs": [],
      "name": "arc",
      "outputs": [
        {
          "internalType": "contract IERC20",
          "name": "",
          "type": "address"
        }
      ],
      "stateMutability": "view",
      "type": "function"
    },
    {
      "inputs": [
        {
          "internalType": "address",
          "name": "account",
          "type": "address"
        }
      ],
      "name": "balanceOf",
      "outputs": [
        {
          "internalType": "uint256",
          "name": "",
          "type": "uint256"
        }
      ],
      "stateMutability": "view",
      "type": "function"
    },
    {
      "inputs": [],
      "name": "decimals",
      "outputs": [
        {
          "internalType": "uint8",
          "name": "",
          "type": "uint8"
        }
      ],
      "stateMutability": "view",
      "type": "function"
    },
    {
      "inputs": [
        {
          "internalType": "address",
          "name": "spender",
          "type": "address"
        },
        {
          "internalType": "uint256",
          "name": "subtractedValue",
          "type": "uint256"
        }
      ],
      "name": "decreaseAllowance",
      "outputs": [
        {
          "internalType": "bool",
          "name": "",
          "type": "bool"
        }
      ],
      "stateMutability": "nonpayable",
      "type": "function"
    },
    {
      "inputs": [
        {
          "internalType": "uint256",
          "name": "_amount",
          "type": "uint256"
        }
      ],
      "name": "enter",
      "outputs": [],
      "stateMutability": "nonpayable",
      "type": "function"
    },
    {
      "inputs": [
        {
          "internalType": "address",
          "name": "spender",
          "type": "address"
        },
        {
          "internalType": "uint256",
          "name": "addedValue",
          "type": "uint256"
        }
      ],
      "name": "increaseAllowance",
      "outputs": [
        {
          "internalType": "bool",
          "name": "",
          "type": "bool"
        }
      ],
      "stateMutability": "nonpayable",
      "type": "function"
    },
    {
      "inputs": [
        {
          "internalType": "uint256",
          "name": "_share",
          "type": "uint256"
        }
      ],
      "name": "leave",
      "outputs": [],
      "stateMutability": "nonpayable",
      "type": "function"
    },
    {
      "inputs": [],
      "name": "name",
      "outputs": [
        {
          "internalType": "string",
          "name": "",
          "type": "string"
        }
      ],
      "stateMutability": "view",
      "type": "function"
    },
    {
      "inputs": [],
      "name": "symbol",
      "outputs": [
        {
          "internalType": "string",
          "name": "",
          "type": "string"
        }
      ],
      "stateMutability": "view",
      "type": "function"
    },
    {
      "inputs": [],
      "name": "totalSupply",
      "outputs": [
        {
          "internalType": "uint256",
          "name": "",
          "type": "uint256"
        }
      ],
      "stateMutability": "view",
      "type": "function"
    },
    {
      "inputs": [
        {
          "internalType": "address",
          "name": "to",
          "type": "address"
        },
        {
          "internalType": "uint256",
          "name": "amount",
          "type": "uint256"
        }
      ],
      "name": "transfer",
      "outputs": [
        {
          "internalType": "bool",
          "name": "",
          "type": "bool"
        }
      ],
      "stateMutability": "nonpayable",
      "type": "function"
    },
    {
      "inputs": [
        {
          "internalType": "address",
          "name": "from",
          "type": "address"
        },
        {
          "internalType": "address",
          "name": "to",
          "type": "address"
        },
        {
          "internalType": "uint256",
          "name": "amount",
          "type": "uint256"
        }
      ],
      "name": "transferFrom",
      "outputs": [
        {
          "internalType": "bool",
          "name": "",
          "type": "bool"
        }
      ],
      "stateMutability": "nonpayable",
      "type": "function"
    }
  ],
  "bytecode": "0x60806040523480156200001157600080fd5b5060405162000ffc38038062000ffc833981016040819052620000349162000159565b6040805180820182526004808252637841524360e01b6020808401828152855180870190965292855284015281519192916200007391600391620000b3565b50805162000089906004906020840190620000b3565b5050600580546001600160a01b0319166001600160a01b03939093169290921790915550620001c6565b828054620000c19062000189565b90600052602060002090601f016020900481019282620000e5576000855562000130565b82601f106200010057805160ff191683800117855562000130565b8280016001018555821562000130579182015b828111156200013057825182559160200191906001019062000113565b506200013e92915062000142565b5090565b5b808211156200013e576000815560010162000143565b6000602082840312156200016b578081fd5b81516001600160a01b038116811462000182578182fd5b9392505050565b600181811c908216806200019e57607f821691505b60208210811415620001c057634e487b7160e01b600052602260045260246000fd5b50919050565b610e2680620001d66000396000f3fe608060405234801561001057600080fd5b50600436106100ea5760003560e01c806367dfd4c91161008c578063a457c2d711610066578063a457c2d7146101e8578063a59f3e0c146101fb578063a9059cbb1461020e578063dd62ed3e1461022157600080fd5b806367dfd4c9146101a257806370a08231146101b757806395d89b41146101e057600080fd5b806323b872dd116100c857806323b872dd14610142578063313ce5671461015557806339509351146101645780634b1c6a401461017757600080fd5b806306fdde03146100ef578063095ea7b31461010d57806318160ddd14610130575b600080fd5b6100f7610234565b6040516101049190610cde565b60405180910390f35b61012061011b366004610c65565b6102c6565b6040519015158152602001610104565b6002545b604051908152602001610104565b610120610150366004610c2a565b6102de565b60405160128152602001610104565b610120610172366004610c65565b610302565b60055461018a906001600160a01b031681565b6040516001600160a01b039091168152602001610104565b6101b56101b0366004610cae565b610324565b005b6101346101c5366004610bd7565b6001600160a01b031660009081526020819052604090205490565b6100f761045b565b6101206101f6366004610c65565b61046a565b6101b5610209366004610cae565b6104ea565b61012061021c366004610c65565b6105f6565b61013461022f366004610bf8565b610604565b60606003805461024390610d9f565b80601f016020809104026020016040519081016040528092919081815260200182805461026f90610d9f565b80156102bc5780601f10610291576101008083540402835291602001916102bc565b820191906000526020600020905b81548152906001019060200180831161029f57829003601f168201915b5050505050905090565b6000336102d481858561062f565b5060019392505050565b6000336102ec858285610754565b6102f78585856107c8565b506001949350505050565b6000336102d48185856103158383610604565b61031f9190610d31565b61062f565b600061032f60025490565b6005546040516370a0823160e01b815230600482015291925060009183916001600160a01b0316906370a082319060240160206040518083038186803b15801561037857600080fd5b505afa15801561038c573d6000803e3d6000fd5b505050506040513d601f19601f820116820180604052508101906103b09190610cc6565b6103ba9085610d69565b6103c49190610d49565b90506103d03384610996565b60055460405163a9059cbb60e01b8152336004820152602481018390526001600160a01b039091169063a9059cbb906044015b602060405180830381600087803b15801561041d57600080fd5b505af1158015610431573d6000803e3d6000fd5b505050506040513d601f19601f820116820180604052508101906104559190610c8e565b50505050565b60606004805461024390610d9f565b600033816104788286610604565b9050838110156104dd5760405162461bcd60e51b815260206004820152602560248201527f45524332303a2064656372656173656420616c6c6f77616e63652062656c6f77604482015264207a65726f60d81b60648201526084015b60405180910390fd5b6102f7828686840361062f565b6005546040516370a0823160e01b81523060048201526000916001600160a01b0316906370a082319060240160206040518083038186803b15801561052e57600080fd5b505afa158015610542573d6000803e3d6000fd5b505050506040513d601f19601f820116820180604052508101906105669190610cc6565b9050600061057360025490565b9050801580610580575081155b156105945761058f3384610adc565b6105b9565b6000826105a18386610d69565b6105ab9190610d49565b90506105b73382610adc565b505b6005546040516323b872dd60e01b8152336004820152306024820152604481018590526001600160a01b03909116906323b872dd90606401610403565b6000336102d48185856107c8565b6001600160a01b03918216600090815260016020908152604080832093909416825291909152205490565b6001600160a01b0383166106915760405162461bcd60e51b8152602060048201526024808201527f45524332303a20617070726f76652066726f6d20746865207a65726f206164646044820152637265737360e01b60648201526084016104d4565b6001600160a01b0382166106f25760405162461bcd60e51b815260206004820152602260248201527f45524332303a20617070726f766520746f20746865207a65726f206164647265604482015261737360f01b60648201526084016104d4565b6001600160a01b0383811660008181526001602090815260408083209487168084529482529182902085905590518481527f8c5be1e5ebec7d5bd14f71427d1e84f3dd0314c0f7b2291e5b200ac8c7c3b92591015b60405180910390a3505050565b60006107608484610604565b9050600019811461045557818110156107bb5760405162461bcd60e51b815260206004820152601d60248201527f45524332303a20696e73756666696369656e7420616c6c6f77616e636500000060448201526064016104d4565b610455848484840361062f565b6001600160a01b03831661082c5760405162461bcd60e51b815260206004820152602560248201527f45524332303a207472616e736665722066726f6d20746865207a65726f206164604482015264647265737360d81b60648201526084016104d4565b6001600160a01b03821661088e5760405162461bcd60e51b815260206004820152602360248201527f45524332303a207472616e7366657220746f20746865207a65726f206164647260448201526265737360e81b60648201526084016104d4565b6001600160a01b038316600090815260208190526040902054818110156109065760405162461bcd60e51b815260206004820152602660248201527f45524332303a207472616e7366657220616d6f756e7420657863656564732062604482015265616c616e636560d01b60648201526084016104d4565b6001600160a01b0380851660009081526020819052604080822085850390559185168152908120805484929061093d908490610d31565b92505081905550826001600160a01b0316846001600160a01b03167fddf252ad1be2c89b69c2b068fc378daa952ba7f163c4a11628f55a4df523b3ef8460405161098991815260200190565b60405180910390a3610455565b6001600160a01b0382166109f65760405162461bcd60e51b815260206004820152602160248201527f45524332303a206275726e2066726f6d20746865207a65726f206164647265736044820152607360f81b60648201526084016104d4565b6001600160a01b03821660009081526020819052604090205481811015610a6a5760405162461bcd60e51b815260206004820152602260248201527f45524332303a206275726e20616d6f756e7420657863656564732062616c616e604482015261636560f01b60648201526084016104d4565b6001600160a01b0383166000908152602081905260408120838303905560028054849290610a99908490610d88565b90915550506040518281526000906001600160a01b038516907fddf252ad1be2c89b69c2b068fc378daa952ba7f163c4a11628f55a4df523b3ef90602001610747565b6001600160a01b038216610b325760405162461bcd60e51b815260206004820152601f60248201527f45524332303a206d696e7420746f20746865207a65726f20616464726573730060448201526064016104d4565b8060026000828254610b449190610d31565b90915550506001600160a01b03821660009081526020819052604081208054839290610b71908490610d31565b90915550506040518181526001600160a01b038316906000907fddf252ad1be2c89b69c2b068fc378daa952ba7f163c4a11628f55a4df523b3ef9060200160405180910390a35050565b80356001600160a01b0381168114610bd257600080fd5b919050565b600060208284031215610be8578081fd5b610bf182610bbb565b9392505050565b60008060408385031215610c0a578081fd5b610c1383610bbb565b9150610c2160208401610bbb565b90509250929050565b600080600060608486031215610c3e578081fd5b610c4784610bbb565b9250610c5560208501610bbb565b9150604084013590509250925092565b60008060408385031215610c77578182fd5b610c8083610bbb565b946020939093013593505050565b600060208284031215610c9f578081fd5b81518015158114610bf1578182fd5b600060208284031215610cbf578081fd5b5035919050565b600060208284031215610cd7578081fd5b5051919050565b6000602080835283518082850152825b81811015610d0a57858101830151858201604001528201610cee565b81811115610d1b5783604083870101525b50601f01601f1916929092016040019392505050565b60008219821115610d4457610d44610dda565b500190565b600082610d6457634e487b7160e01b81526012600452602481fd5b500490565b6000816000190483118215151615610d8357610d83610dda565b500290565b600082821015610d9a57610d9a610dda565b500390565b600181811c90821680610db357607f821691505b60208210811415610dd457634e487b7160e01b600052602260045260246000fd5b50919050565b634e487b7160e01b600052601160045260246000fdfea264697066735822122057d266fd525774c8479a9d3ea8998533e0007407f31201cb1eac1dc055175b7264736f6c63430008040033",
  "linkReferences": {},
  "deployedLinkReferences": {}
}