{
  "_format": "hh-sol-artifact-1",
  "contractName": "CosmicDust",
  "sourceName": "contracts/Gacha/CosmicDust.sol",
  "abi": [
    {
      "inputs": [
        {
          "internalType": "address",
          "name": "_gachaMachine",
          "type": "address"
        }
      ],
      "stateMutability": "nonpayable",
      "type": "constructor"
    },
    {
      "anonymous": false,
      "inputs": [
        {
          "indexed": true,
          "internalType": "address",
          "name": "owner",
          "type": "address"
        },
        {
          "indexed": true,
          "internalType": "address",
          "name": "spender",
          "type": "address"
        },
        {
          "indexed": false,
          "internalType": "uint256",
          "name": "value",
          "type": "uint256"
        }
      ],
      "name": "Approval",
      "type": "event"
    },
    {
      "anonymous": false,
      "inputs": [
        {
          "indexed": true,
          "internalType": "address",
          "name": "previousOwner",
          "type": "address"
        },
        {
          "indexed": true,
          "internalType": "address",
          "name": "newOwner",
          "type": "address"
        }
      ],
      "name": "OwnershipTransferred",
      "type": "event"
    },
    {
      "anonymous": false,
      "inputs": [
        {
          "indexed": true,
          "internalType": "address",
          "name": "from",
          "type": "address"
        },
        {
          "indexed": true,
          "internalType": "address",
          "name": "to",
          "type": "address"
        },
        {
          "indexed": false,
          "internalType": "uint256",
          "name": "value",
          "type": "uint256"
        }
      ],
      "name": "Transfer",
      "type": "event"
    },
    {
      "inputs": [
        {
          "internalType": "address",
          "name": "owner",
          "type": "address"
        },
        {
          "internalType": "address",
          "name": "spender",
          "type": "address"
        }
      ],
      "name": "allowance",
      "outputs": [
        {
          "internalType": "uint256",
          "name": "",
          "type": "uint256"
        }
      ],
      "stateMutability": "view",
      "type": "function"
    },
    {
      "inputs": [
        {
          "internalType": "address",
          "name": "spender",
          "type": "address"
        },
        {
          "internalType": "uint256",
          "name": "amount",
          "type": "uint256"
        }
      ],
      "name": "approve",
      "outputs": [
        {
          "internalType": "bool",
          "name": "",
          "type": "bool"
        }
      ],
      "stateMutability": "nonpayable",
      "type": "function"
    },
    {
      "inputs": [
        {
          "internalType": "address",
          "name": "account",
          "type": "address"
        }
      ],
      "name": "balanceOf",
      "outputs": [
        {
          "internalType": "uint256",
          "name": "",
          "type": "uint256"
        }
      ],
      "stateMutability": "view",
      "type": "function"
    },
    {
      "inputs": [
        {
          "internalType": "uint256",
          "name": "amount",
          "type": "uint256"
        }
      ],
      "name": "burn",
      "outputs": [],
      "stateMutability": "nonpayable",
      "type": "function"
    },
    {
      "inputs": [
        {
          "internalType": "address",
          "name": "account",
          "type": "address"
        },
        {
          "internalType": "uint256",
          "name": "amount",
          "type": "uint256"
        }
      ],
      "name": "burnFrom",
      "outputs": [],
      "stateMutability": "nonpayable",
      "type": "function"
    },
    {
      "inputs": [],
      "name": "decimals",
      "outputs": [
        {
          "internalType": "uint8",
          "name": "",
          "type": "uint8"
        }
      ],
      "stateMutability": "view",
      "type": "function"
    },
    {
      "inputs": [
        {
          "internalType": "address",
          "name": "spender",
          "type": "address"
        },
        {
          "internalType": "uint256",
          "name": "subtractedValue",
          "type": "uint256"
        }
      ],
      "name": "decreaseAllowance",
      "outputs": [
        {
          "internalType": "bool",
          "name": "",
          "type": "bool"
        }
      ],
      "stateMutability": "nonpayable",
      "type": "function"
    },
    {
      "inputs": [
        {
          "internalType": "address",
          "name": "spender",
          "type": "address"
        },
        {
          "internalType": "uint256",
          "name": "addedValue",
          "type": "uint256"
        }
      ],
      "name": "increaseAllowance",
      "outputs": [
        {
          "internalType": "bool",
          "name": "",
          "type": "bool"
        }
      ],
      "stateMutability": "nonpayable",
      "type": "function"
    },
    {
      "inputs": [
        {
          "internalType": "address",
          "name": "",
          "type": "address"
        }
      ],
      "name": "isGachaMachine",
      "outputs": [
        {
          "internalType": "bool",
          "name": "",
          "type": "bool"
        }
      ],
      "stateMutability": "view",
      "type": "function"
    },
    {
      "inputs": [
        {
          "internalType": "address",
          "name": "to",
          "type": "address"
        },
        {
          "internalType": "uint256",
          "name": "amount",
          "type": "uint256"
        }
      ],
      "name": "mint",
      "outputs": [],
      "stateMutability": "nonpayable",
      "type": "function"
    },
    {
      "inputs": [
        {
          "internalType": "address",
          "name": "_to",
          "type": "address"
        },
        {
          "internalType": "uint256",
          "name": "amount",
          "type": "uint256"
        }
      ],
      "name": "mintDev",
      "outputs": [],
      "stateMutability": "nonpayable",
      "type": "function"
    },
    {
      "inputs": [],
      "name": "name",
      "outputs": [
        {
          "internalType": "string",
          "name": "",
          "type": "string"
        }
      ],
      "stateMutability": "view",
      "type": "function"
    },
    {
      "inputs": [],
      "name": "owner",
      "outputs": [
        {
          "internalType": "address",
          "name": "",
          "type": "address"
        }
      ],
      "stateMutability": "view",
      "type": "function"
    },
    {
      "inputs": [],
      "name": "renounceOwnership",
      "outputs": [],
      "stateMutability": "nonpayable",
      "type": "function"
    },
    {
      "inputs": [
        {
          "internalType": "address",
          "name": "_g",
          "type": "address"
        },
        {
          "internalType": "bool",
          "name": "_tf",
          "type": "bool"
        }
      ],
      "name": "setGachaMachine",
      "outputs": [],
      "stateMutability": "nonpayable",
      "type": "function"
    },
    {
      "inputs": [],
      "name": "symbol",
      "outputs": [
        {
          "internalType": "string",
          "name": "",
          "type": "string"
        }
      ],
      "stateMutability": "view",
      "type": "function"
    },
    {
      "inputs": [],
      "name": "totalSupply",
      "outputs": [
        {
          "internalType": "uint256",
          "name": "",
          "type": "uint256"
        }
      ],
      "stateMutability": "view",
      "type": "function"
    },
    {
      "inputs": [
        {
          "internalType": "address",
          "name": "to",
          "type": "address"
        },
        {
          "internalType": "uint256",
          "name": "amount",
          "type": "uint256"
        }
      ],
      "name": "transfer",
      "outputs": [
        {
          "internalType": "bool",
          "name": "",
          "type": "bool"
        }
      ],
      "stateMutability": "nonpayable",
      "type": "function"
    },
    {
      "inputs": [
        {
          "internalType": "address",
          "name": "from",
          "type": "address"
        },
        {
          "internalType": "address",
          "name": "to",
          "type": "address"
        },
        {
          "internalType": "uint256",
          "name": "amount",
          "type": "uint256"
        }
      ],
      "name": "transferFrom",
      "outputs": [
        {
          "internalType": "bool",
          "name": "",
          "type": "bool"
        }
      ],
      "stateMutability": "nonpayable",
      "type": "function"
    },
    {
      "inputs": [
        {
          "internalType": "address",
          "name": "newOwner",
          "type": "address"
        }
      ],
      "name": "transferOwnership",
      "outputs": [],
      "stateMutability": "nonpayable",
      "type": "function"
    }
  ],
  "bytecode": "0x60806040523480156200001157600080fd5b506040516200103c3803806200103c8339810160408190526200003491620001e7565b604080518082018252600f81526e1511d1c810dbdcdb5a58c8111d5cdd608a1b60208083019182528351808501909452600d84526c1511d1d0dbdcdb5a58d11d5cdd609a1b908401528151919291620000909160039162000141565b508051620000a690600490602084019062000141565b505050620000c3620000bd620000eb60201b60201c565b620000ef565b6001600160a01b03166000908152600660205260409020805460ff1916600117905562000254565b3390565b600580546001600160a01b038381166001600160a01b0319831681179093556040519116919082907f8be0079c531659141344cd1fd0a4f28419497f9722a3daafe3b4186f6b6457e090600090a35050565b8280546200014f9062000217565b90600052602060002090601f016020900481019282620001735760008555620001be565b82601f106200018e57805160ff1916838001178555620001be565b82800160010185558215620001be579182015b82811115620001be578251825591602001919060010190620001a1565b50620001cc929150620001d0565b5090565b5b80821115620001cc5760008155600101620001d1565b600060208284031215620001f9578081fd5b81516001600160a01b038116811462000210578182fd5b9392505050565b600181811c908216806200022c57607f821691505b602082108114156200024e57634e487b7160e01b600052602260045260246000fd5b50919050565b610dd880620002646000396000f3fe608060405234801561001057600080fd5b506004361061012c5760003560e01c80634d874577116100ad57806395d89b411161007157806395d89b4114610289578063a457c2d714610291578063a9059cbb146102a4578063dd62ed3e146102b7578063f2fde38b146102ca57600080fd5b80634d8745771461021757806370a082311461022a578063715018a61461025357806379cc67901461025b5780638da5cb5b1461026e57600080fd5b8063324c6adc116100f4578063324c6adc146101a657806339509351146101bb5780633c22ae5a146101ce57806340c10f19146101f157806342966c681461020457600080fd5b806306fdde0314610131578063095ea7b31461014f57806318160ddd1461017257806323b872dd14610184578063313ce56714610197575b600080fd5b6101396102dd565b6040516101469190610cf0565b60405180910390f35b61016261015d366004610caf565b61036f565b6040519015158152602001610146565b6002545b604051908152602001610146565b610162610192366004610c3a565b610387565b60405160008152602001610146565b6101b96101b4366004610caf565b6103ab565b005b6101626101c9366004610caf565b6103c1565b6101626101dc366004610be7565b60066020526000908152604090205460ff1681565b6101b96101ff366004610caf565b6103e3565b6101b9610212366004610cd8565b610451565b6101b9610225366004610c75565b61045e565b610176610238366004610be7565b6001600160a01b031660009081526020819052604090205490565b6101b9610491565b6101b9610269366004610caf565b6104a5565b6005546040516001600160a01b039091168152602001610146565b6101396104ba565b61016261029f366004610caf565b6104c9565b6101626102b2366004610caf565b610544565b6101766102c5366004610c08565b610552565b6101b96102d8366004610be7565b61057d565b6060600380546102ec90610d67565b80601f016020809104026020016040519081016040528092919081815260200182805461031890610d67565b80156103655780601f1061033a57610100808354040283529160200191610365565b820191906000526020600020905b81548152906001019060200180831161034857829003601f168201915b5050505050905090565b60003361037d8185856105f3565b5060019392505050565b600033610395858285610718565b6103a0858585610792565b506001949350505050565b6103b3610936565b6103bd8282610990565b5050565b60003361037d8185856103d48383610552565b6103de9190610d43565b6105f3565b3360009081526006602052604090205460ff166103b35760405162461bcd60e51b815260206004820152602160248201527f447573743a204f6e6c79206761636861206d616368696e652063616e206d696e6044820152601d60fa1b60648201526084015b60405180910390fd5b61045b3382610a4f565b50565b610466610936565b6001600160a01b03919091166000908152600660205260409020805460ff1916911515919091179055565b610499610936565b6104a36000610b79565b565b6104b0823383610718565b6103bd8282610a4f565b6060600480546102ec90610d67565b600033816104d78286610552565b9050838110156105375760405162461bcd60e51b815260206004820152602560248201527f45524332303a2064656372656173656420616c6c6f77616e63652062656c6f77604482015264207a65726f60d81b6064820152608401610448565b6103a082868684036105f3565b60003361037d818585610792565b6001600160a01b03918216600090815260016020908152604080832093909416825291909152205490565b610585610936565b6001600160a01b0381166105ea5760405162461bcd60e51b815260206004820152602660248201527f4f776e61626c653a206e6577206f776e657220697320746865207a65726f206160448201526564647265737360d01b6064820152608401610448565b61045b81610b79565b6001600160a01b0383166106555760405162461bcd60e51b8152602060048201526024808201527f45524332303a20617070726f76652066726f6d20746865207a65726f206164646044820152637265737360e01b6064820152608401610448565b6001600160a01b0382166106b65760405162461bcd60e51b815260206004820152602260248201527f45524332303a20617070726f766520746f20746865207a65726f206164647265604482015261737360f01b6064820152608401610448565b6001600160a01b0383811660008181526001602090815260408083209487168084529482529182902085905590518481527f8c5be1e5ebec7d5bd14f71427d1e84f3dd0314c0f7b2291e5b200ac8c7c3b92591015b60405180910390a3505050565b60006107248484610552565b9050600019811461078c578181101561077f5760405162461bcd60e51b815260206004820152601d60248201527f45524332303a20696e73756666696369656e7420616c6c6f77616e63650000006044820152606401610448565b61078c84848484036105f3565b50505050565b6001600160a01b0383166107f65760405162461bcd60e51b815260206004820152602560248201527f45524332303a207472616e736665722066726f6d20746865207a65726f206164604482015264647265737360d81b6064820152608401610448565b6001600160a01b0382166108585760405162461bcd60e51b815260206004820152602360248201527f45524332303a207472616e7366657220746f20746865207a65726f206164647260448201526265737360e81b6064820152608401610448565b6001600160a01b038316600090815260208190526040902054818110156108d05760405162461bcd60e51b815260206004820152602660248201527f45524332303a207472616e7366657220616d6f756e7420657863656564732062604482015265616c616e636560d01b6064820152608401610448565b6001600160a01b03848116600081815260208181526040808320878703905593871680835291849020805487019055925185815290927fddf252ad1be2c89b69c2b068fc378daa952ba7f163c4a11628f55a4df523b3ef910160405180910390a361078c565b6005546001600160a01b031633146104a35760405162461bcd60e51b815260206004820181905260248201527f4f776e61626c653a2063616c6c6572206973206e6f7420746865206f776e65726044820152606401610448565b6001600160a01b0382166109e65760405162461bcd60e51b815260206004820152601f60248201527f45524332303a206d696e7420746f20746865207a65726f2061646472657373006044820152606401610448565b80600260008282546109f89190610d43565b90915550506001600160a01b038216600081815260208181526040808320805486019055518481527fddf252ad1be2c89b69c2b068fc378daa952ba7f163c4a11628f55a4df523b3ef910160405180910390a35050565b6001600160a01b038216610aaf5760405162461bcd60e51b815260206004820152602160248201527f45524332303a206275726e2066726f6d20746865207a65726f206164647265736044820152607360f81b6064820152608401610448565b6001600160a01b03821660009081526020819052604090205481811015610b235760405162461bcd60e51b815260206004820152602260248201527f45524332303a206275726e20616d6f756e7420657863656564732062616c616e604482015261636560f01b6064820152608401610448565b6001600160a01b0383166000818152602081815260408083208686039055600280548790039055518581529192917fddf252ad1be2c89b69c2b068fc378daa952ba7f163c4a11628f55a4df523b3ef910161070b565b600580546001600160a01b038381166001600160a01b0319831681179093556040519116919082907f8be0079c531659141344cd1fd0a4f28419497f9722a3daafe3b4186f6b6457e090600090a35050565b80356001600160a01b0381168114610be257600080fd5b919050565b600060208284031215610bf8578081fd5b610c0182610bcb565b9392505050565b60008060408385031215610c1a578081fd5b610c2383610bcb565b9150610c3160208401610bcb565b90509250929050565b600080600060608486031215610c4e578081fd5b610c5784610bcb565b9250610c6560208501610bcb565b9150604084013590509250925092565b60008060408385031215610c87578182fd5b610c9083610bcb565b915060208301358015158114610ca4578182fd5b809150509250929050565b60008060408385031215610cc1578182fd5b610cca83610bcb565b946020939093013593505050565b600060208284031215610ce9578081fd5b5035919050565b6000602080835283518082850152825b81811015610d1c57858101830151858201604001528201610d00565b81811115610d2d5783604083870101525b50601f01601f1916929092016040019392505050565b60008219821115610d6257634e487b7160e01b81526011600452602481fd5b500190565b600181811c90821680610d7b57607f821691505b60208210811415610d9c57634e487b7160e01b600052602260045260246000fd5b5091905056fea264697066735822122015c8585a9088b24333d52638ae695674c509f582233da51e0aa25c28a5fee89364736f6c63430008040033",
  "linkReferences": {},
  "deployedLinkReferences": {}
}