{
  "_format": "hh-sol-artifact-1",
  "contractName": "CosmicDust",
  "sourceName": "contracts/Gacha/CosmicDust.sol",
  "abi": [
    {
      "inputs": [
        {
          "internalType": "address",
          "name": "_gachaMachine",
          "type": "address"
        }
      ],
      "stateMutability": "nonpayable",
      "type": "constructor"
    },
    {
      "anonymous": false,
      "inputs": [
        {
          "indexed": true,
          "internalType": "address",
          "name": "owner",
          "type": "address"
        },
        {
          "indexed": true,
          "internalType": "address",
          "name": "spender",
          "type": "address"
        },
        {
          "indexed": false,
          "internalType": "uint256",
          "name": "value",
          "type": "uint256"
        }
      ],
      "name": "Approval",
      "type": "event"
    },
    {
      "anonymous": false,
      "inputs": [
        {
          "indexed": true,
          "internalType": "address",
          "name": "previousOwner",
          "type": "address"
        },
        {
          "indexed": true,
          "internalType": "address",
          "name": "newOwner",
          "type": "address"
        }
      ],
      "name": "OwnershipTransferred",
      "type": "event"
    },
    {
      "anonymous": false,
      "inputs": [
        {
          "indexed": true,
          "internalType": "address",
          "name": "from",
          "type": "address"
        },
        {
          "indexed": true,
          "internalType": "address",
          "name": "to",
          "type": "address"
        },
        {
          "indexed": false,
          "internalType": "uint256",
          "name": "value",
          "type": "uint256"
        }
      ],
      "name": "Transfer",
      "type": "event"
    },
    {
      "inputs": [
        {
          "internalType": "address",
          "name": "owner",
          "type": "address"
        },
        {
          "internalType": "address",
          "name": "spender",
          "type": "address"
        }
      ],
      "name": "allowance",
      "outputs": [
        {
          "internalType": "uint256",
          "name": "",
          "type": "uint256"
        }
      ],
      "stateMutability": "view",
      "type": "function"
    },
    {
      "inputs": [
        {
          "internalType": "address",
          "name": "spender",
          "type": "address"
        },
        {
          "internalType": "uint256",
          "name": "amount",
          "type": "uint256"
        }
      ],
      "name": "approve",
      "outputs": [
        {
          "internalType": "bool",
          "name": "",
          "type": "bool"
        }
      ],
      "stateMutability": "nonpayable",
      "type": "function"
    },
    {
      "inputs": [
        {
          "internalType": "address",
          "name": "account",
          "type": "address"
        }
      ],
      "name": "balanceOf",
      "outputs": [
        {
          "internalType": "uint256",
          "name": "",
          "type": "uint256"
        }
      ],
      "stateMutability": "view",
      "type": "function"
    },
    {
      "inputs": [
        {
          "internalType": "uint256",
          "name": "amount",
          "type": "uint256"
        }
      ],
      "name": "burn",
      "outputs": [],
      "stateMutability": "nonpayable",
      "type": "function"
    },
    {
      "inputs": [
        {
          "internalType": "address",
          "name": "account",
          "type": "address"
        },
        {
          "internalType": "uint256",
          "name": "amount",
          "type": "uint256"
        }
      ],
      "name": "burnFrom",
      "outputs": [],
      "stateMutability": "nonpayable",
      "type": "function"
    },
    {
      "inputs": [],
      "name": "decimals",
      "outputs": [
        {
          "internalType": "uint8",
          "name": "",
          "type": "uint8"
        }
      ],
      "stateMutability": "view",
      "type": "function"
    },
    {
      "inputs": [
        {
          "internalType": "address",
          "name": "spender",
          "type": "address"
        },
        {
          "internalType": "uint256",
          "name": "subtractedValue",
          "type": "uint256"
        }
      ],
      "name": "decreaseAllowance",
      "outputs": [
        {
          "internalType": "bool",
          "name": "",
          "type": "bool"
        }
      ],
      "stateMutability": "nonpayable",
      "type": "function"
    },
    {
      "inputs": [
        {
          "internalType": "address",
          "name": "spender",
          "type": "address"
        },
        {
          "internalType": "uint256",
          "name": "addedValue",
          "type": "uint256"
        }
      ],
      "name": "increaseAllowance",
      "outputs": [
        {
          "internalType": "bool",
          "name": "",
          "type": "bool"
        }
      ],
      "stateMutability": "nonpayable",
      "type": "function"
    },
    {
      "inputs": [
        {
          "internalType": "address",
          "name": "",
          "type": "address"
        }
      ],
      "name": "isGachaMachine",
      "outputs": [
        {
          "internalType": "bool",
          "name": "",
          "type": "bool"
        }
      ],
      "stateMutability": "view",
      "type": "function"
    },
    {
      "inputs": [
        {
          "internalType": "address",
          "name": "to",
          "type": "address"
        },
        {
          "internalType": "uint256",
          "name": "amount",
          "type": "uint256"
        }
      ],
      "name": "mint",
      "outputs": [],
      "stateMutability": "nonpayable",
      "type": "function"
    },
    {
      "inputs": [],
      "name": "name",
      "outputs": [
        {
          "internalType": "string",
          "name": "",
          "type": "string"
        }
      ],
      "stateMutability": "view",
      "type": "function"
    },
    {
      "inputs": [],
      "name": "owner",
      "outputs": [
        {
          "internalType": "address",
          "name": "",
          "type": "address"
        }
      ],
      "stateMutability": "view",
      "type": "function"
    },
    {
      "inputs": [],
      "name": "renounceOwnership",
      "outputs": [],
      "stateMutability": "nonpayable",
      "type": "function"
    },
    {
      "inputs": [
        {
          "internalType": "address",
          "name": "_g",
          "type": "address"
        },
        {
          "internalType": "bool",
          "name": "_tf",
          "type": "bool"
        }
      ],
      "name": "setGachaMachine",
      "outputs": [],
      "stateMutability": "nonpayable",
      "type": "function"
    },
    {
      "inputs": [],
      "name": "symbol",
      "outputs": [
        {
          "internalType": "string",
          "name": "",
          "type": "string"
        }
      ],
      "stateMutability": "view",
      "type": "function"
    },
    {
      "inputs": [],
      "name": "totalSupply",
      "outputs": [
        {
          "internalType": "uint256",
          "name": "",
          "type": "uint256"
        }
      ],
      "stateMutability": "view",
      "type": "function"
    },
    {
      "inputs": [
        {
          "internalType": "address",
          "name": "to",
          "type": "address"
        },
        {
          "internalType": "uint256",
          "name": "amount",
          "type": "uint256"
        }
      ],
      "name": "transfer",
      "outputs": [
        {
          "internalType": "bool",
          "name": "",
          "type": "bool"
        }
      ],
      "stateMutability": "nonpayable",
      "type": "function"
    },
    {
      "inputs": [
        {
          "internalType": "address",
          "name": "from",
          "type": "address"
        },
        {
          "internalType": "address",
          "name": "to",
          "type": "address"
        },
        {
          "internalType": "uint256",
          "name": "amount",
          "type": "uint256"
        }
      ],
      "name": "transferFrom",
      "outputs": [
        {
          "internalType": "bool",
          "name": "",
          "type": "bool"
        }
      ],
      "stateMutability": "nonpayable",
      "type": "function"
    },
    {
      "inputs": [
        {
          "internalType": "address",
          "name": "newOwner",
          "type": "address"
        }
      ],
      "name": "transferOwnership",
      "outputs": [],
      "stateMutability": "nonpayable",
      "type": "function"
    }
  ],
  "bytecode": "0x60806040523480156200001157600080fd5b50604051620011ae380380620011ae8339810160408190526200003491620002d3565b604080518082018252600b81526a10dbdcdb5a58c8111d5cdd60aa1b6020808301918252835180850190945260058452641d19d9d0d160da1b90840152815191929162000084916003916200022d565b5080516200009a9060049060208401906200022d565b505050620000b7620000b1620000ef60201b60201c565b620000f3565b6001600160a01b0381166000908152600660205260409020805460ff19166001179055620000e8336103e862000145565b5062000365565b3390565b600580546001600160a01b038381166001600160a01b0319831681179093556040519116919082907f8be0079c531659141344cd1fd0a4f28419497f9722a3daafe3b4186f6b6457e090600090a35050565b6001600160a01b038216620001a05760405162461bcd60e51b815260206004820152601f60248201527f45524332303a206d696e7420746f20746865207a65726f206164647265737300604482015260640160405180910390fd5b8060026000828254620001b4919062000303565b90915550506001600160a01b03821660009081526020819052604081208054839290620001e390849062000303565b90915550506040518181526001600160a01b038316906000907fddf252ad1be2c89b69c2b068fc378daa952ba7f163c4a11628f55a4df523b3ef9060200160405180910390a35050565b8280546200023b9062000328565b90600052602060002090601f0160209004810192826200025f5760008555620002aa565b82601f106200027a57805160ff1916838001178555620002aa565b82800160010185558215620002aa579182015b82811115620002aa5782518255916020019190600101906200028d565b50620002b8929150620002bc565b5090565b5b80821115620002b85760008155600101620002bd565b600060208284031215620002e5578081fd5b81516001600160a01b0381168114620002fc578182fd5b9392505050565b600082198211156200032357634e487b7160e01b81526011600452602481fd5b500190565b600181811c908216806200033d57607f821691505b602082108114156200035f57634e487b7160e01b600052602260045260246000fd5b50919050565b610e3980620003756000396000f3fe608060405234801561001057600080fd5b50600436106101215760003560e01c80634d874577116100ad57806395d89b411161007157806395d89b411461026b578063a457c2d714610273578063a9059cbb14610286578063dd62ed3e14610299578063f2fde38b146102ac57600080fd5b80634d874577146101f957806370a082311461020c578063715018a61461023557806379cc67901461023d5780638da5cb5b1461025057600080fd5b8063313ce567116100f4578063313ce5671461018c578063395093511461019b5780633c22ae5a146101ae57806340c10f19146101d157806342966c68146101e657600080fd5b806306fdde0314610126578063095ea7b31461014457806318160ddd1461016757806323b872dd14610179575b600080fd5b61012e6102bf565b60405161013b9190610d30565b60405180910390f35b610157610152366004610cef565b610351565b604051901515815260200161013b565b6002545b60405190815260200161013b565b610157610187366004610c7a565b610369565b6040516000815260200161013b565b6101576101a9366004610cef565b61038d565b6101576101bc366004610c27565b60066020526000908152604090205460ff1681565b6101e46101df366004610cef565b6103af565b005b6101e46101f4366004610d18565b61042b565b6101e4610207366004610cb5565b610438565b61016b61021a366004610c27565b6001600160a01b031660009081526020819052604090205490565b6101e461046b565b6101e461024b366004610cef565b61047f565b6005546040516001600160a01b03909116815260200161013b565b61012e610494565b610157610281366004610cef565b6104a3565b610157610294366004610cef565b61051e565b61016b6102a7366004610c48565b61052c565b6101e46102ba366004610c27565b610557565b6060600380546102ce90610db2565b80601f01602080910402602001604051908101604052809291908181526020018280546102fa90610db2565b80156103475780601f1061031c57610100808354040283529160200191610347565b820191906000526020600020905b81548152906001019060200180831161032a57829003601f168201915b5050505050905090565b60003361035f8185856105cd565b5060019392505050565b6000336103778582856106f2565b61038285858561076c565b506001949350505050565b60003361035f8185856103a0838361052c565b6103aa9190610d83565b6105cd565b3360009081526006602052604090205460ff1661041d5760405162461bcd60e51b815260206004820152602160248201527f447573743a204f6e6c79206761636861206d616368696e652063616e206d696e6044820152601d60fa1b60648201526084015b60405180910390fd5b610427828261093a565b5050565b6104353382610a19565b50565b610440610b5f565b6001600160a01b03919091166000908152600660205260409020805460ff1916911515919091179055565b610473610b5f565b61047d6000610bb9565b565b61048a8233836106f2565b6104278282610a19565b6060600480546102ce90610db2565b600033816104b1828661052c565b9050838110156105115760405162461bcd60e51b815260206004820152602560248201527f45524332303a2064656372656173656420616c6c6f77616e63652062656c6f77604482015264207a65726f60d81b6064820152608401610414565b61038282868684036105cd565b60003361035f81858561076c565b6001600160a01b03918216600090815260016020908152604080832093909416825291909152205490565b61055f610b5f565b6001600160a01b0381166105c45760405162461bcd60e51b815260206004820152602660248201527f4f776e61626c653a206e6577206f776e657220697320746865207a65726f206160448201526564647265737360d01b6064820152608401610414565b61043581610bb9565b6001600160a01b03831661062f5760405162461bcd60e51b8152602060048201526024808201527f45524332303a20617070726f76652066726f6d20746865207a65726f206164646044820152637265737360e01b6064820152608401610414565b6001600160a01b0382166106905760405162461bcd60e51b815260206004820152602260248201527f45524332303a20617070726f766520746f20746865207a65726f206164647265604482015261737360f01b6064820152608401610414565b6001600160a01b0383811660008181526001602090815260408083209487168084529482529182902085905590518481527f8c5be1e5ebec7d5bd14f71427d1e84f3dd0314c0f7b2291e5b200ac8c7c3b92591015b60405180910390a3505050565b60006106fe848461052c565b9050600019811461076657818110156107595760405162461bcd60e51b815260206004820152601d60248201527f45524332303a20696e73756666696369656e7420616c6c6f77616e63650000006044820152606401610414565b61076684848484036105cd565b50505050565b6001600160a01b0383166107d05760405162461bcd60e51b815260206004820152602560248201527f45524332303a207472616e736665722066726f6d20746865207a65726f206164604482015264647265737360d81b6064820152608401610414565b6001600160a01b0382166108325760405162461bcd60e51b815260206004820152602360248201527f45524332303a207472616e7366657220746f20746865207a65726f206164647260448201526265737360e81b6064820152608401610414565b6001600160a01b038316600090815260208190526040902054818110156108aa5760405162461bcd60e51b815260206004820152602660248201527f45524332303a207472616e7366657220616d6f756e7420657863656564732062604482015265616c616e636560d01b6064820152608401610414565b6001600160a01b038085166000908152602081905260408082208585039055918516815290812080548492906108e1908490610d83565b92505081905550826001600160a01b0316846001600160a01b03167fddf252ad1be2c89b69c2b068fc378daa952ba7f163c4a11628f55a4df523b3ef8460405161092d91815260200190565b60405180910390a3610766565b6001600160a01b0382166109905760405162461bcd60e51b815260206004820152601f60248201527f45524332303a206d696e7420746f20746865207a65726f2061646472657373006044820152606401610414565b80600260008282546109a29190610d83565b90915550506001600160a01b038216600090815260208190526040812080548392906109cf908490610d83565b90915550506040518181526001600160a01b038316906000907fddf252ad1be2c89b69c2b068fc378daa952ba7f163c4a11628f55a4df523b3ef9060200160405180910390a35050565b6001600160a01b038216610a795760405162461bcd60e51b815260206004820152602160248201527f45524332303a206275726e2066726f6d20746865207a65726f206164647265736044820152607360f81b6064820152608401610414565b6001600160a01b03821660009081526020819052604090205481811015610aed5760405162461bcd60e51b815260206004820152602260248201527f45524332303a206275726e20616d6f756e7420657863656564732062616c616e604482015261636560f01b6064820152608401610414565b6001600160a01b0383166000908152602081905260408120838303905560028054849290610b1c908490610d9b565b90915550506040518281526000906001600160a01b038516907fddf252ad1be2c89b69c2b068fc378daa952ba7f163c4a11628f55a4df523b3ef906020016106e5565b6005546001600160a01b0316331461047d5760405162461bcd60e51b815260206004820181905260248201527f4f776e61626c653a2063616c6c6572206973206e6f7420746865206f776e65726044820152606401610414565b600580546001600160a01b038381166001600160a01b0319831681179093556040519116919082907f8be0079c531659141344cd1fd0a4f28419497f9722a3daafe3b4186f6b6457e090600090a35050565b80356001600160a01b0381168114610c2257600080fd5b919050565b600060208284031215610c38578081fd5b610c4182610c0b565b9392505050565b60008060408385031215610c5a578081fd5b610c6383610c0b565b9150610c7160208401610c0b565b90509250929050565b600080600060608486031215610c8e578081fd5b610c9784610c0b565b9250610ca560208501610c0b565b9150604084013590509250925092565b60008060408385031215610cc7578182fd5b610cd083610c0b565b915060208301358015158114610ce4578182fd5b809150509250929050565b60008060408385031215610d01578182fd5b610d0a83610c0b565b946020939093013593505050565b600060208284031215610d29578081fd5b5035919050565b6000602080835283518082850152825b81811015610d5c57858101830151858201604001528201610d40565b81811115610d6d5783604083870101525b50601f01601f1916929092016040019392505050565b60008219821115610d9657610d96610ded565b500190565b600082821015610dad57610dad610ded565b500390565b600181811c90821680610dc657607f821691505b60208210811415610de757634e487b7160e01b600052602260045260246000fd5b50919050565b634e487b7160e01b600052601160045260246000fdfea2646970667358221220b909055e1d8c3e6a46e596480aaee4823eaa85c321c04e3b67c3848e1364622f64736f6c63430008040033",
  "linkReferences": {},
  "deployedLinkReferences": {}
}