{
  "_format": "hh-sol-artifact-1",
  "contractName": "ElementalStone",
  "sourceName": "contracts/Gacha/ElementalStone.sol",
  "abi": [
    {
      "inputs": [
        {
          "internalType": "address",
          "name": "_gachaMachine",
          "type": "address"
        },
        {
          "internalType": "address",
          "name": "_girl",
          "type": "address"
        }
      ],
      "stateMutability": "nonpayable",
      "type": "constructor"
    },
    {
      "anonymous": false,
      "inputs": [
        {
          "indexed": true,
          "internalType": "address",
          "name": "account",
          "type": "address"
        },
        {
          "indexed": true,
          "internalType": "address",
          "name": "operator",
          "type": "address"
        },
        {
          "indexed": false,
          "internalType": "bool",
          "name": "approved",
          "type": "bool"
        }
      ],
      "name": "ApprovalForAll",
      "type": "event"
    },
    {
      "anonymous": false,
      "inputs": [
        {
          "indexed": true,
          "internalType": "address",
          "name": "previousOwner",
          "type": "address"
        },
        {
          "indexed": true,
          "internalType": "address",
          "name": "newOwner",
          "type": "address"
        }
      ],
      "name": "OwnershipTransferred",
      "type": "event"
    },
    {
      "anonymous": false,
      "inputs": [
        {
          "indexed": true,
          "internalType": "address",
          "name": "operator",
          "type": "address"
        },
        {
          "indexed": true,
          "internalType": "address",
          "name": "from",
          "type": "address"
        },
        {
          "indexed": true,
          "internalType": "address",
          "name": "to",
          "type": "address"
        },
        {
          "indexed": false,
          "internalType": "uint256[]",
          "name": "ids",
          "type": "uint256[]"
        },
        {
          "indexed": false,
          "internalType": "uint256[]",
          "name": "values",
          "type": "uint256[]"
        }
      ],
      "name": "TransferBatch",
      "type": "event"
    },
    {
      "anonymous": false,
      "inputs": [
        {
          "indexed": true,
          "internalType": "address",
          "name": "operator",
          "type": "address"
        },
        {
          "indexed": true,
          "internalType": "address",
          "name": "from",
          "type": "address"
        },
        {
          "indexed": true,
          "internalType": "address",
          "name": "to",
          "type": "address"
        },
        {
          "indexed": false,
          "internalType": "uint256",
          "name": "id",
          "type": "uint256"
        },
        {
          "indexed": false,
          "internalType": "uint256",
          "name": "value",
          "type": "uint256"
        }
      ],
      "name": "TransferSingle",
      "type": "event"
    },
    {
      "anonymous": false,
      "inputs": [
        {
          "indexed": false,
          "internalType": "string",
          "name": "value",
          "type": "string"
        },
        {
          "indexed": true,
          "internalType": "uint256",
          "name": "id",
          "type": "uint256"
        }
      ],
      "name": "URI",
      "type": "event"
    },
    {
      "inputs": [
        {
          "internalType": "address",
          "name": "account",
          "type": "address"
        },
        {
          "internalType": "uint256",
          "name": "id",
          "type": "uint256"
        },
        {
          "internalType": "uint256",
          "name": "girlId",
          "type": "uint256"
        }
      ],
      "name": "attune",
      "outputs": [],
      "stateMutability": "nonpayable",
      "type": "function"
    },
    {
      "inputs": [],
      "name": "attunement",
      "outputs": [
        {
          "internalType": "contract IAttunement",
          "name": "",
          "type": "address"
        }
      ],
      "stateMutability": "view",
      "type": "function"
    },
    {
      "inputs": [
        {
          "internalType": "address",
          "name": "account",
          "type": "address"
        },
        {
          "internalType": "uint256",
          "name": "id",
          "type": "uint256"
        }
      ],
      "name": "balanceOf",
      "outputs": [
        {
          "internalType": "uint256",
          "name": "",
          "type": "uint256"
        }
      ],
      "stateMutability": "view",
      "type": "function"
    },
    {
      "inputs": [
        {
          "internalType": "address[]",
          "name": "accounts",
          "type": "address[]"
        },
        {
          "internalType": "uint256[]",
          "name": "ids",
          "type": "uint256[]"
        }
      ],
      "name": "balanceOfBatch",
      "outputs": [
        {
          "internalType": "uint256[]",
          "name": "",
          "type": "uint256[]"
        }
      ],
      "stateMutability": "view",
      "type": "function"
    },
    {
      "inputs": [],
      "name": "baseURI",
      "outputs": [
        {
          "internalType": "string",
          "name": "",
          "type": "string"
        }
      ],
      "stateMutability": "view",
      "type": "function"
    },
    {
      "inputs": [
        {
          "internalType": "address",
          "name": "account",
          "type": "address"
        },
        {
          "internalType": "uint256",
          "name": "id",
          "type": "uint256"
        },
        {
          "internalType": "uint256",
          "name": "value",
          "type": "uint256"
        }
      ],
      "name": "burn",
      "outputs": [],
      "stateMutability": "nonpayable",
      "type": "function"
    },
    {
      "inputs": [
        {
          "internalType": "address",
          "name": "account",
          "type": "address"
        },
        {
          "internalType": "uint256[]",
          "name": "ids",
          "type": "uint256[]"
        },
        {
          "internalType": "uint256[]",
          "name": "values",
          "type": "uint256[]"
        }
      ],
      "name": "burnBatch",
      "outputs": [],
      "stateMutability": "nonpayable",
      "type": "function"
    },
    {
      "inputs": [
        {
          "internalType": "uint256",
          "name": "",
          "type": "uint256"
        }
      ],
      "name": "elementString",
      "outputs": [
        {
          "internalType": "string",
          "name": "",
          "type": "string"
        }
      ],
      "stateMutability": "view",
      "type": "function"
    },
    {
      "inputs": [
        {
          "internalType": "uint256",
          "name": "id",
          "type": "uint256"
        }
      ],
      "name": "exists",
      "outputs": [
        {
          "internalType": "bool",
          "name": "",
          "type": "bool"
        }
      ],
      "stateMutability": "view",
      "type": "function"
    },
    {
      "inputs": [
        {
          "internalType": "address",
          "name": "_user",
          "type": "address"
        }
      ],
      "name": "getWalletBalance",
      "outputs": [
        {
          "internalType": "uint256[]",
          "name": "",
          "type": "uint256[]"
        }
      ],
      "stateMutability": "view",
      "type": "function"
    },
    {
      "inputs": [],
      "name": "girl",
      "outputs": [
        {
          "internalType": "contract IGirl",
          "name": "",
          "type": "address"
        }
      ],
      "stateMutability": "view",
      "type": "function"
    },
    {
      "inputs": [
        {
          "internalType": "address",
          "name": "account",
          "type": "address"
        },
        {
          "internalType": "address",
          "name": "operator",
          "type": "address"
        }
      ],
      "name": "isApprovedForAll",
      "outputs": [
        {
          "internalType": "bool",
          "name": "",
          "type": "bool"
        }
      ],
      "stateMutability": "view",
      "type": "function"
    },
    {
      "inputs": [
        {
          "internalType": "address",
          "name": "",
          "type": "address"
        }
      ],
      "name": "isGachaMachine",
      "outputs": [
        {
          "internalType": "bool",
          "name": "",
          "type": "bool"
        }
      ],
      "stateMutability": "view",
      "type": "function"
    },
    {
      "inputs": [],
      "name": "marketplace",
      "outputs": [
        {
          "internalType": "contract IESMarketplace",
          "name": "",
          "type": "address"
        }
      ],
      "stateMutability": "view",
      "type": "function"
    },
    {
      "inputs": [
        {
          "internalType": "address",
          "name": "account",
          "type": "address"
        }
      ],
      "name": "mint",
      "outputs": [
        {
          "internalType": "string",
          "name": "",
          "type": "string"
        }
      ],
      "stateMutability": "nonpayable",
      "type": "function"
    },
    {
      "inputs": [],
      "name": "owner",
      "outputs": [
        {
          "internalType": "address",
          "name": "",
          "type": "address"
        }
      ],
      "stateMutability": "view",
      "type": "function"
    },
    {
      "inputs": [],
      "name": "renounceOwnership",
      "outputs": [],
      "stateMutability": "nonpayable",
      "type": "function"
    },
    {
      "inputs": [
        {
          "internalType": "address",
          "name": "from",
          "type": "address"
        },
        {
          "internalType": "address",
          "name": "to",
          "type": "address"
        },
        {
          "internalType": "uint256[]",
          "name": "ids",
          "type": "uint256[]"
        },
        {
          "internalType": "uint256[]",
          "name": "amounts",
          "type": "uint256[]"
        },
        {
          "internalType": "bytes",
          "name": "data",
          "type": "bytes"
        }
      ],
      "name": "safeBatchTransferFrom",
      "outputs": [],
      "stateMutability": "nonpayable",
      "type": "function"
    },
    {
      "inputs": [
        {
          "internalType": "address",
          "name": "from",
          "type": "address"
        },
        {
          "internalType": "address",
          "name": "to",
          "type": "address"
        },
        {
          "internalType": "uint256",
          "name": "id",
          "type": "uint256"
        },
        {
          "internalType": "uint256",
          "name": "amount",
          "type": "uint256"
        },
        {
          "internalType": "bytes",
          "name": "data",
          "type": "bytes"
        }
      ],
      "name": "safeTransferFrom",
      "outputs": [],
      "stateMutability": "nonpayable",
      "type": "function"
    },
    {
      "inputs": [
        {
          "internalType": "uint256",
          "name": "id",
          "type": "uint256"
        },
        {
          "internalType": "uint256",
          "name": "price",
          "type": "uint256"
        }
      ],
      "name": "sellNFT",
      "outputs": [],
      "stateMutability": "nonpayable",
      "type": "function"
    },
    {
      "inputs": [
        {
          "internalType": "address",
          "name": "operator",
          "type": "address"
        },
        {
          "internalType": "bool",
          "name": "approved",
          "type": "bool"
        }
      ],
      "name": "setApprovalForAll",
      "outputs": [],
      "stateMutability": "nonpayable",
      "type": "function"
    },
    {
      "inputs": [
        {
          "internalType": "address",
          "name": "_contract",
          "type": "address"
        }
      ],
      "name": "setAttunementContract",
      "outputs": [],
      "stateMutability": "nonpayable",
      "type": "function"
    },
    {
      "inputs": [
        {
          "internalType": "string",
          "name": "newBaseURI",
          "type": "string"
        }
      ],
      "name": "setBaseURI",
      "outputs": [],
      "stateMutability": "nonpayable",
      "type": "function"
    },
    {
      "inputs": [
        {
          "internalType": "address",
          "name": "_contract",
          "type": "address"
        }
      ],
      "name": "setGachaMachineContract",
      "outputs": [],
      "stateMutability": "nonpayable",
      "type": "function"
    },
    {
      "inputs": [
        {
          "internalType": "address",
          "name": "_girl",
          "type": "address"
        }
      ],
      "name": "setGirlContract",
      "outputs": [],
      "stateMutability": "nonpayable",
      "type": "function"
    },
    {
      "inputs": [
        {
          "internalType": "address",
          "name": "_contract",
          "type": "address"
        }
      ],
      "name": "setMarketplaceContract",
      "outputs": [],
      "stateMutability": "nonpayable",
      "type": "function"
    },
    {
      "inputs": [
        {
          "internalType": "uint256",
          "name": "newCount",
          "type": "uint256"
        }
      ],
      "name": "setTokenCount",
      "outputs": [],
      "stateMutability": "nonpayable",
      "type": "function"
    },
    {
      "inputs": [
        {
          "internalType": "uint256",
          "name": "id",
          "type": "uint256"
        },
        {
          "internalType": "uint256",
          "name": "girlId",
          "type": "uint256"
        }
      ],
      "name": "stake",
      "outputs": [],
      "stateMutability": "nonpayable",
      "type": "function"
    },
    {
      "inputs": [
        {
          "internalType": "bytes4",
          "name": "interfaceId",
          "type": "bytes4"
        }
      ],
      "name": "supportsInterface",
      "outputs": [
        {
          "internalType": "bool",
          "name": "",
          "type": "bool"
        }
      ],
      "stateMutability": "view",
      "type": "function"
    },
    {
      "inputs": [
        {
          "internalType": "uint256",
          "name": "id",
          "type": "uint256"
        }
      ],
      "name": "totalSupply",
      "outputs": [
        {
          "internalType": "uint256",
          "name": "",
          "type": "uint256"
        }
      ],
      "stateMutability": "view",
      "type": "function"
    },
    {
      "inputs": [
        {
          "internalType": "address",
          "name": "newOwner",
          "type": "address"
        }
      ],
      "name": "transferOwnership",
      "outputs": [],
      "stateMutability": "nonpayable",
      "type": "function"
    },
    {
      "inputs": [
        {
          "internalType": "uint256",
          "name": "id",
          "type": "uint256"
        },
        {
          "internalType": "uint256",
          "name": "toTier",
          "type": "uint256"
        }
      ],
      "name": "upgradeCosmicLevel",
      "outputs": [],
      "stateMutability": "nonpayable",
      "type": "function"
    },
    {
      "inputs": [
        {
          "internalType": "uint256",
          "name": "",
          "type": "uint256"
        }
      ],
      "name": "upgradeIDs",
      "outputs": [
        {
          "internalType": "uint256",
          "name": "",
          "type": "uint256"
        }
      ],
      "stateMutability": "view",
      "type": "function"
    },
    {
      "inputs": [
        {
          "internalType": "uint256",
          "name": "_tokenID",
          "type": "uint256"
        }
      ],
      "name": "uri",
      "outputs": [
        {
          "internalType": "string",
          "name": "",
          "type": "string"
        }
      ],
      "stateMutability": "view",
      "type": "function"
    }
  ],
  "bytecode": "0x6006600881905560e060405260046080908152600560a05260c0919091526200002d906009906003620009f4565b50604051806080016040528060405180602001604052806000815250815260200160405180604001604052806005815260200164466c616d6560d81b815250815260200160405180604001604052806005815260200164546572726160d81b8152508152602001604051806040016040528060048152602001634171756160e01b815250815250600b906004620000c692919062000a49565b506040805160c08101825260018152600260208201526003918101919091526004606082015260056080820152600660a082018190526200010a91600d91620009f4565b506040805160c081018252600180825260208201819052918101829052606081018290526080810182905260a08101919091526200014d90600e906006620009f4565b503480156200015b57600080fd5b5060405162003ed738038062003ed78339810160408190526200017e9162000bbd565b60408051808201909152600f81526e456c656d656e74616c2053746f6e6560881b6020820152620001af81620002dc565b50620001bb33620002f5565b6001600160a01b0382166000908152600c60205260409020805460ff19166001179055620001e98162000347565b6200020d6040518060600160405280602e815260200162003ea9602e913962000373565b620002d433600d8054806020026020016040519081016040528092919081815260200182805480156200026057602002820191906000526020600020905b8154815260200190600101908083116200024b575b5050505050600e805480602002602001604051908101604052809291908181526020018280548015620002b357602002820191906000526020600020905b8154815260200190600101908083116200029e575b5050505050604051806020016040528060008152506200039260201b60201c565b505062000ec9565b8051620002f190600290602084019062000aa9565b5050565b600480546001600160a01b038381166001600160a01b0319831681179093556040519116919082907f8be0079c531659141344cd1fd0a4f28419497f9722a3daafe3b4186f6b6457e090600090a35050565b62000351620005a0565b600780546001600160a01b0319166001600160a01b0392909216919091179055565b6200037d620005a0565b8051620002f190600a90602084019062000aa9565b6001600160a01b038416620003f85760405162461bcd60e51b815260206004820152602160248201527f455243313135353a206d696e7420746f20746865207a65726f206164647265736044820152607360f81b60648201526084015b60405180910390fd5b81518351146200045c5760405162461bcd60e51b815260206004820152602860248201527f455243313135353a2069647320616e6420616d6f756e7473206c656e677468206044820152670dad2e6dac2e8c6d60c31b6064820152608401620003ef565b336200046e81600087878787620005fe565b60005b84518110156200052d578381815181106200049c57634e487b7160e01b600052603260045260246000fd5b6020026020010151600080878481518110620004c857634e487b7160e01b600052603260045260246000fd5b602002602001015181526020019081526020016000206000886001600160a01b03166001600160a01b03168152602001908152602001600020600082825462000512919062000d5a565b90915550819050620005248162000ded565b91505062000471565b50846001600160a01b031660006001600160a01b0316826001600160a01b03167f4a39dc06d4c0dbc64b70af90fd698a233a518aa5d07e595d983b8c0526c8f7fb87876040516200058092919062000d13565b60405180910390a4620005998160008787878762000621565b5050505050565b6004546001600160a01b03163314620005fc5760405162461bcd60e51b815260206004820181905260248201527f4f776e61626c653a2063616c6c6572206973206e6f7420746865206f776e65726044820152606401620003ef565b565b620006198686868686866200080760201b620014b11760201c565b505050505050565b62000640846001600160a01b0316620009e560201b620016621760201c565b15620006195760405163bc197c8160e01b81526001600160a01b0385169063bc197c81906200067c908990899088908890889060040162000caf565b602060405180830381600087803b1580156200069757600080fd5b505af1925050508015620006ca575060408051601f3d908101601f19168201909252620006c79181019062000bf4565b60015b6200078b57620006d962000e21565b806308c379a014156200071a5750620006f162000e3a565b80620006fe57506200071c565b8060405162461bcd60e51b8152600401620003ef919062000d45565b505b60405162461bcd60e51b815260206004820152603460248201527f455243313135353a207472616e7366657220746f206e6f6e204552433131353560448201527f526563656976657220696d706c656d656e7465720000000000000000000000006064820152608401620003ef565b6001600160e01b0319811663bc197c8160e01b14620007fe5760405162461bcd60e51b815260206004820152602860248201527f455243313135353a204552433131353552656365697665722072656a656374656044820152676420746f6b656e7360c01b6064820152608401620003ef565b50505050505050565b620008228686868686866200061960201b620012bd1760201c565b6001600160a01b038516620008ce5760005b8351811015620008cc578281815181106200085f57634e487b7160e01b600052603260045260246000fd5b6020026020010151600360008684815181106200088c57634e487b7160e01b600052603260045260246000fd5b602002602001015181526020019081526020016000206000828254620008b3919062000d5a565b90915550620008c490508162000ded565b905062000834565b505b6001600160a01b038416620006195760005b8351811015620007fe5760008482815181106200090d57634e487b7160e01b600052603260045260246000fd5b6020026020010151905060008483815181106200093a57634e487b7160e01b600052603260045260246000fd5b6020026020010151905060006003600084815260200190815260200160002054905081811015620009bf5760405162461bcd60e51b815260206004820152602860248201527f455243313135353a206275726e20616d6f756e74206578636565647320746f74604482015267616c537570706c7960c01b6064820152608401620003ef565b60009283526003602052604090922091039055620009dd8162000ded565b9050620008e0565b6001600160a01b03163b151590565b82805482825590600052602060002090810192821562000a37579160200282015b8281111562000a37578251829060ff1690559160200191906001019062000a15565b5062000a4592915062000b26565b5090565b82805482825590600052602060002090810192821562000a9b579160200282015b8281111562000a9b578251805162000a8a91849160209091019062000aa9565b509160200191906001019062000a6a565b5062000a4592915062000b3d565b82805462000ab79062000d75565b90600052602060002090601f01602090048101928262000adb576000855562000a37565b82601f1062000af657805160ff191683800117855562000a37565b8280016001018555821562000a37579182015b8281111562000a3757825182559160200191906001019062000b09565b5b8082111562000a45576000815560010162000b27565b8082111562000a4557600062000b54828262000b5e565b5060010162000b3d565b50805462000b6c9062000d75565b6000825580601f1062000b7d575050565b601f01602090049060005260206000209081019062000b9d919062000b26565b50565b80516001600160a01b038116811462000bb857600080fd5b919050565b6000806040838503121562000bd0578182fd5b62000bdb8362000ba0565b915062000beb6020840162000ba0565b90509250929050565b60006020828403121562000c06578081fd5b81516001600160e01b03198116811462000c1e578182fd5b9392505050565b6000815180845260208085019450808401835b8381101562000c565781518752958201959082019060010162000c38565b509495945050505050565b60008151808452815b8181101562000c885760208185018101518683018201520162000c6a565b8181111562000c9a5782602083870101525b50601f01601f19169290920160200192915050565b6001600160a01b0386811682528516602082015260a06040820181905260009062000cdd9083018662000c25565b828103606084015262000cf1818662000c25565b9050828103608084015262000d07818562000c61565b98975050505050505050565b60408152600062000d28604083018562000c25565b828103602084015262000d3c818562000c25565b95945050505050565b60208152600062000c1e602083018462000c61565b6000821982111562000d705762000d7062000e0b565b500190565b600181811c9082168062000d8a57607f821691505b6020821081141562000dac57634e487b7160e01b600052602260045260246000fd5b50919050565b601f8201601f191681016001600160401b038111828210171562000de657634e487b7160e01b600052604160045260246000fd5b6040525050565b600060001982141562000e045762000e0462000e0b565b5060010190565b634e487b7160e01b600052601160045260246000fd5b600060033d111562000e3757600481823e5160e01c5b90565b600060443d101562000e495790565b6040516003193d81016004833e81513d6001600160401b03808311602484018310171562000e7957505050505090565b828501915081518181111562000e925750505050505090565b843d870101602082850101111562000ead5750505050505090565b62000ebe6020828601018762000db2565b509095945050505050565b612fd08062000ed96000396000f3fe608060405234801561001057600080fd5b50600436106102055760003560e01c80636b20c4541161011a578063a22cb465116100ad578063e985e9c51161007c578063e985e9c51461049c578063ed8ec194146104d8578063f242432a146104eb578063f2fde38b146104fe578063f5298aca1461051157600080fd5b8063a22cb46514610443578063a388237d14610456578063abc8c7af14610469578063bd85b0391461047c57600080fd5b80637b435a65116100e95780637b435a65146103f957806384eda5441461040c5780638da5cb5b1461041f57806391a48a1e1461043057600080fd5b80636b20c454146103c35780636c0360eb146103d6578063715018a6146103de5780637b0472f0146103e657600080fd5b80633318f1a51161019d5780634d683d081161016c5780634d683d08146103485780634e1273f41461035b5780634f558e791461037b57806355f804b31461039d5780636a627842146103b057600080fd5b80633318f1a5146102ec578063348a2c3c146102ff5780633c22ae5a146103125780634c7b7c6f1461033557600080fd5b80631102610e116101d95780631102610e1461029e5780631c253155146102b35780631ce57c00146102c65780632eb2c2d6146102d957600080fd5b8062fdd58e1461020a57806301ffc9a7146102305780630e89341c146102535780630f3b899b14610273575b600080fd5b61021d6102183660046126ce565b610524565b6040519081526020015b60405180910390f35b61024361023e366004612895565b6105ba565b6040519015158152602001610227565b610266610261366004612912565b61060c565b6040516102279190612b4e565b600654610286906001600160a01b031681565b6040516001600160a01b039091168152602001610227565b6102b16102ac36600461246e565b610646565b005b6102b16102c136600461246e565b610670565b6102b16102d43660046126f9565b61069c565b6102b16102e73660046124de565b610787565b600754610286906001600160a01b031681565b61021d61030d366004612912565b6107d3565b61024361032036600461246e565b600c6020526000908152604090205460ff1681565b6102b161034336600461292a565b6107f4565b610266610356366004612912565b610aed565b61036e61036936600461272d565b610b99565b6040516102279190612b16565b610243610389366004612912565b600090815260036020526040902054151590565b6102b16103ab3660046128cd565b610cfa565b6102666103be36600461246e565b610d19565b6102b16103d13660046125ed565b610e5f565b610266610ea7565b6102b1610eb4565b6102b16103f436600461292a565b610ec8565b6102b1610407366004612912565b61117f565b6102b161041a36600461246e565b61118c565b6004546001600160a01b0316610286565b6102b161043e36600461292a565b6111b6565b6102b161045136600461265f565b6112c5565b6102b161046436600461246e565b6112d0565b600554610286906001600160a01b031681565b61021d61048a366004612912565b60009081526003602052604090205490565b6102436104aa3660046124a6565b6001600160a01b03918216600090815260016020908152604080832093909416825291909152205460ff1690565b61036e6104e636600461246e565b6112fa565b6102b16104f9366004612587565b6113b0565b6102b161050c36600461246e565b6113f5565b6102b161051f3660046126f9565b61146e565b60006001600160a01b0383166105945760405162461bcd60e51b815260206004820152602a60248201527f455243313135353a2061646472657373207a65726f206973206e6f742061207660448201526930b634b21037bbb732b960b11b60648201526084015b60405180910390fd5b506000908152602081815260408083206001600160a01b03949094168352929052205490565b60006001600160e01b03198216636cdb3d1360e11b14806105eb57506001600160e01b031982166303a24d0760e21b145b8061060657506301ffc9a760e01b6001600160e01b03198316145b92915050565b6060600061061983611671565b9050600a8160405160200161062f9291906129cd565b604051602081830303815290604052915050919050565b61064e611792565b600580546001600160a01b0319166001600160a01b0392909216919091179055565b610678611792565b6001600160a01b03166000908152600c60205260409020805460ff19166001179055565b6006546001600160a01b031633146106f65760405162461bcd60e51b815260206004820152601a60248201527f4f6e6c7920617474756e656d656e742063616e20617474756e65000000000000604482015260640161058b565b61071c83610705846003612d79565b6001604051806020016040528060008152506117ec565b600754604051633f1ed70960e01b815260048101839052600060248201526001600160a01b0390911690633f1ed709906044015b600060405180830381600087803b15801561076a57600080fd5b505af115801561077e573d6000803e3d6000fd5b50505050505050565b6001600160a01b0385163314806107a357506107a385336104aa565b6107bf5760405162461bcd60e51b815260040161058b90612b61565b6107cc8585858585611906565b5050505050565b600981815481106107e357600080fd5b600091825260209091200154905081565b600754604051631fba62cb60e11b815260048101849052602481018390526000916001600160a01b031690633f74c5969060440160006040518083038186803b15801561084057600080fd5b505afa158015610854573d6000803e3d6000fd5b505050506040513d6000823e601f3d908101601f1916820160405261087c91908101906127f9565b90508060008151811061089f57634e487b7160e01b600052603260045260246000fd5b60200260200101516108b2336004610524565b101580156108f25750806001815181106108dc57634e487b7160e01b600052603260045260246000fd5b60200260200101516108ef336005610524565b10155b801561093057508060028151811061091a57634e487b7160e01b600052603260045260246000fd5b602002602001015161092d336006610524565b10155b61097c5760405162461bcd60e51b815260206004820152601a60248201527f557067726164653a206e6f7420656e6f7567682073746f6e6573000000000000604482015260640161058b565b6007546040516331a9108f60e11b81526004810185905233916001600160a01b031690636352211e9060240160206040518083038186803b1580156109c057600080fd5b505afa1580156109d4573d6000803e3d6000fd5b505050506040513d601f19601f820116820180604052508101906109f8919061248a565b6001600160a01b031614610a5a5760405162461bcd60e51b815260206004820152602360248201527f456c656d656e74616c3a20757067726164652063616c6c6572206e6f74206f776044820152623732b960e91b606482015260840161058b565b610ab5336009805480602002602001604051908101604052809291908181526020018280548015610aaa57602002820191906000526020600020905b815481526020019060010190808311610a96575b505050505083610e5f565b600754604051636aa5dd7160e01b815260048101859052602481018490526001600160a01b0390911690636aa5dd7190604401610750565b600b8181548110610afd57600080fd5b906000526020600020016000915090508054610b1890612de8565b80601f0160208091040260200160405190810160405280929190818152602001828054610b4490612de8565b8015610b915780601f10610b6657610100808354040283529160200191610b91565b820191906000526020600020905b815481529060010190602001808311610b7457829003601f168201915b505050505081565b60608151835114610bfe5760405162461bcd60e51b815260206004820152602960248201527f455243313135353a206163636f756e747320616e6420696473206c656e677468604482015268040dad2e6dac2e8c6d60bb1b606482015260840161058b565b600083516001600160401b03811115610c2757634e487b7160e01b600052604160045260246000fd5b604051908082528060200260200182016040528015610c50578160200160208202803683370190505b50905060005b8451811015610cf257610cb7858281518110610c8257634e487b7160e01b600052603260045260246000fd5b6020026020010151858381518110610caa57634e487b7160e01b600052603260045260246000fd5b6020026020010151610524565b828281518110610cd757634e487b7160e01b600052603260045260246000fd5b6020908102919091010152610ceb81612e4f565b9050610c56565b509392505050565b610d02611792565b8051610d1590600a9060208401906122de565b5050565b336000908152600c602052604090205460609060ff16610d7b5760405162461bcd60e51b815260206004820152601b60248201527f4f6e6c79206761636861206d616368696e652063616e206d696e740000000000604482015260640161058b565b6000610d85611ac4565b9050610da383826001604051806020016040528060008152506117ec565b600b8181548110610dc457634e487b7160e01b600052603260045260246000fd5b906000526020600020018054610dd990612de8565b80601f0160208091040260200160405190810160405280929190818152602001828054610e0590612de8565b8015610e525780601f10610e2757610100808354040283529160200191610e52565b820191906000526020600020905b815481529060010190602001808311610e3557829003601f168201915b5050505050915050919050565b6001600160a01b038316331480610e7b5750610e7b83336104aa565b610e975760405162461bcd60e51b815260040161058b90612b61565b610ea2838383611b10565b505050565b600a8054610b1890612de8565b610ebc611792565b610ec66000611cca565b565b60018210158015610eda575060038211155b610f345760405162461bcd60e51b815260206004820152602560248201527f45533a206f6e6c7920646f726d616e742073746f6e65732063616e20626520736044820152641d185ad95960da1b606482015260840161058b565b600754604051630814786760e31b815260048101839052600091829182916001600160a01b0316906340a3c3389060240160606040518083038186803b158015610f7d57600080fd5b505afa158015610f91573d6000803e3d6000fd5b505050506040513d601f19601f82011682018060405250810190610fb5919061268c565b91945092509050336001600160a01b038416146110205760405162461bcd60e51b815260206004820152602360248201527f45533a2063616e7420706169722077697468206769726c2e2e206e6f74206f776044820152623732b960e91b606482015260840161058b565b811561106e5760405162461bcd60e51b815260206004820152601b60248201527f45533a206769726c20697320616c7265616479207374616b696e670000000000604482015260640161058b565b6110a033600660009054906101000a90046001600160a01b0316876001604051806020016040528060008152506113b0565b600654604051636ea3404b60e11b8152336004820152602481018790526044810186905282871460648201526001600160a01b039091169063dd46809690608401600060405180830381600087803b1580156110fb57600080fd5b505af115801561110f573d6000803e3d6000fd5b5050600754604051633f1ed70960e01b815260048101889052600160248201526001600160a01b039091169250633f1ed7099150604401600060405180830381600087803b15801561116057600080fd5b505af1158015611174573d6000803e3d6000fd5b505050505050505050565b611187611792565b600855565b611194611792565b600780546001600160a01b0319166001600160a01b0392909216919091179055565b670de0b6b3a76400008110156112245760405162461bcd60e51b815260206004820152602d60248201527f456c656d656e74616c2053746f6e653a207072696365206d757374206265206160448201526c74206c6561737420312041524360981b606482015260840161058b565b61125633600560009054906101000a90046001600160a01b0316846001604051806020016040528060008152506113b0565b60055460405163f779a19360e01b815233600482015260248101849052604481018390526001600160a01b039091169063f779a19390606401600060405180830381600087803b1580156112a957600080fd5b505af11580156112bd573d6000803e3d6000fd5b505050505050565b610d15338383611d1c565b6112d8611792565b600680546001600160a01b0319166001600160a01b0392909216919091179055565b606060006008546001600160401b0381111561132657634e487b7160e01b600052604160045260246000fd5b60405190808252806020026020018201604052801561134f578160200160208202803683370190505b50905060005b6008548110156113a95761136e84610218836001612d79565b82828151811061138e57634e487b7160e01b600052603260045260246000fd5b60209081029190910101526113a281612e4f565b9050611355565b5092915050565b6001600160a01b0385163314806113cc57506113cc85336104aa565b6113e85760405162461bcd60e51b815260040161058b90612b61565b6107cc8585858585611dfd565b6113fd611792565b6001600160a01b0381166114625760405162461bcd60e51b815260206004820152602660248201527f4f776e61626c653a206e6577206f776e657220697320746865207a65726f206160448201526564647265737360d01b606482015260840161058b565b61146b81611cca565b50565b6001600160a01b03831633148061148a575061148a83336104aa565b6114a65760405162461bcd60e51b815260040161058b90612b61565b610ea2838383611f2a565b6001600160a01b0385166115545760005b8351811015611552578281815181106114eb57634e487b7160e01b600052603260045260246000fd5b60200260200101516003600086848151811061151757634e487b7160e01b600052603260045260246000fd5b60200260200101518152602001908152602001600020600082825461153c9190612d79565b9091555061154b905081612e4f565b90506114c2565b505b6001600160a01b0384166112bd5760005b835181101561077e57600084828151811061159057634e487b7160e01b600052603260045260246000fd5b6020026020010151905060008483815181106115bc57634e487b7160e01b600052603260045260246000fd5b602002602001015190506000600360008481526020019081526020016000205490508181101561163f5760405162461bcd60e51b815260206004820152602860248201527f455243313135353a206275726e20616d6f756e74206578636565647320746f74604482015267616c537570706c7960c01b606482015260840161058b565b6000928352600360205260409092209103905561165b81612e4f565b9050611565565b6001600160a01b03163b151590565b6060816116955750506040805180820190915260018152600360fc1b602082015290565b8160005b81156116bf57806116a981612e4f565b91506116b89050600a83612d91565b9150611699565b6000816001600160401b038111156116e757634e487b7160e01b600052604160045260246000fd5b6040519080825280601f01601f191660200182016040528015611711576020820181803683370190505b5090505b841561178a57611726600183612da5565b9150611733600a86612e6a565b61173e906030612d79565b60f81b81838151811061176157634e487b7160e01b600052603260045260246000fd5b60200101906001600160f81b031916908160001a905350611783600a86612d91565b9450611715565b949350505050565b6004546001600160a01b03163314610ec65760405162461bcd60e51b815260206004820181905260248201527f4f776e61626c653a2063616c6c6572206973206e6f7420746865206f776e6572604482015260640161058b565b6001600160a01b03841661184c5760405162461bcd60e51b815260206004820152602160248201527f455243313135353a206d696e7420746f20746865207a65726f206164647265736044820152607360f81b606482015260840161058b565b33600061185885612042565b9050600061186585612042565b90506118768360008985858961209b565b6000868152602081815260408083206001600160a01b038b168452909152812080548792906118a6908490612d79565b909155505060408051878152602081018790526001600160a01b03808a1692600092918716917fc3d58168c5ae7397731d063d5bbf3d657854427343f4c083240f7aacaa2d0f62910160405180910390a461077e836000898989896120a9565b81518351146119275760405162461bcd60e51b815260040161058b90612d0e565b6001600160a01b03841661194d5760405162461bcd60e51b815260040161058b90612c3c565b3361195c81878787878761209b565b60005b8451811015611a5e57600085828151811061198a57634e487b7160e01b600052603260045260246000fd5b6020026020010151905060008583815181106119b657634e487b7160e01b600052603260045260246000fd5b602090810291909101810151600084815280835260408082206001600160a01b038e168352909352919091205490915081811015611a065760405162461bcd60e51b815260040161058b90612cc4565b6000838152602081815260408083206001600160a01b038e8116855292528083208585039055908b16825281208054849290611a43908490612d79565b9250508190555050505080611a5790612e4f565b905061195f565b50846001600160a01b0316866001600160a01b0316826001600160a01b03167f4a39dc06d4c0dbc64b70af90fd698a233a518aa5d07e595d983b8c0526c8f7fb8787604051611aae929190612b29565b60405180910390a46112bd818787878787612214565b60008042604051602001611ada91815260200190565b60408051601f1981840301815291905280516020909101209050611aff600382612e6a565b611b0a906001612d79565b91505090565b6001600160a01b038316611b365760405162461bcd60e51b815260040161058b90612c81565b8051825114611b575760405162461bcd60e51b815260040161058b90612d0e565b6000339050611b7a8185600086866040518060200160405280600081525061209b565b60005b8351811015611c5b576000848281518110611ba857634e487b7160e01b600052603260045260246000fd5b602002602001015190506000848381518110611bd457634e487b7160e01b600052603260045260246000fd5b602090810291909101810151600084815280835260408082206001600160a01b038c168352909352919091205490915081811015611c245760405162461bcd60e51b815260040161058b90612bf8565b6000928352602083815260408085206001600160a01b038b1686529091529092209103905580611c5381612e4f565b915050611b7d565b5060006001600160a01b0316846001600160a01b0316826001600160a01b03167f4a39dc06d4c0dbc64b70af90fd698a233a518aa5d07e595d983b8c0526c8f7fb8686604051611cac929190612b29565b60405180910390a46040805160208101909152600090525b50505050565b600480546001600160a01b038381166001600160a01b0319831681179093556040519116919082907f8be0079c531659141344cd1fd0a4f28419497f9722a3daafe3b4186f6b6457e090600090a35050565b816001600160a01b0316836001600160a01b03161415611d905760405162461bcd60e51b815260206004820152602960248201527f455243313135353a2073657474696e6720617070726f76616c20737461747573604482015268103337b91039b2b63360b91b606482015260840161058b565b6001600160a01b03838116600081815260016020908152604080832094871680845294825291829020805460ff191686151590811790915591519182527f17307eab39ab6107e8899845ad3d59bd9653f200f220920489ca2b5937696c31910160405180910390a3505050565b6001600160a01b038416611e235760405162461bcd60e51b815260040161058b90612c3c565b336000611e2f85612042565b90506000611e3c85612042565b9050611e4c83898985858961209b565b6000868152602081815260408083206001600160a01b038c16845290915290205485811015611e8d5760405162461bcd60e51b815260040161058b90612cc4565b6000878152602081815260408083206001600160a01b038d8116855292528083208985039055908a16825281208054889290611eca908490612d79565b909155505060408051888152602081018890526001600160a01b03808b16928c821692918816917fc3d58168c5ae7397731d063d5bbf3d657854427343f4c083240f7aacaa2d0f62910160405180910390a4611174848a8a8a8a8a6120a9565b6001600160a01b038316611f505760405162461bcd60e51b815260040161058b90612c81565b336000611f5c84612042565b90506000611f6984612042565b9050611f898387600085856040518060200160405280600081525061209b565b6000858152602081815260408083206001600160a01b038a16845290915290205484811015611fca5760405162461bcd60e51b815260040161058b90612bf8565b6000868152602081815260408083206001600160a01b038b81168086529184528285208a8703905582518b81529384018a90529092908816917fc3d58168c5ae7397731d063d5bbf3d657854427343f4c083240f7aacaa2d0f62910160405180910390a460408051602081019091526000905261077e565b6040805160018082528183019092526060916000919060208083019080368337019050509050828160008151811061208a57634e487b7160e01b600052603260045260246000fd5b602090810291909101015292915050565b6112bd8686868686866114b1565b6001600160a01b0384163b156112bd5760405163f23a6e6160e01b81526001600160a01b0385169063f23a6e61906120ed9089908990889088908890600401612ad1565b602060405180830381600087803b15801561210757600080fd5b505af1925050508015612137575060408051601f3d908101601f19168201909252612134918101906128b1565b60015b6121e457612143612ec0565b806308c379a0141561217d5750612158612ed8565b80612163575061217f565b8060405162461bcd60e51b815260040161058b9190612b4e565b505b60405162461bcd60e51b815260206004820152603460248201527f455243313135353a207472616e7366657220746f206e6f6e20455243313135356044820152732932b1b2b4bb32b91034b6b83632b6b2b73a32b960611b606482015260840161058b565b6001600160e01b0319811663f23a6e6160e01b1461077e5760405162461bcd60e51b815260040161058b90612bb0565b6001600160a01b0384163b156112bd5760405163bc197c8160e01b81526001600160a01b0385169063bc197c81906122589089908990889088908890600401612a73565b602060405180830381600087803b15801561227257600080fd5b505af19250505080156122a2575060408051601f3d908101601f1916820190925261229f918101906128b1565b60015b6122ae57612143612ec0565b6001600160e01b0319811663bc197c8160e01b1461077e5760405162461bcd60e51b815260040161058b90612bb0565b8280546122ea90612de8565b90600052602060002090601f01602090048101928261230c5760008555612352565b82601f1061232557805160ff1916838001178555612352565b82800160010185558215612352579182015b82811115612352578251825591602001919060010190612337565b5061235e929150612362565b5090565b5b8082111561235e5760008155600101612363565b60006001600160401b0383111561239057612390612eaa565b6040516123a7601f8501601f191660200182612e23565b8091508381528484840111156123bc57600080fd5b83836020830137600060208583010152509392505050565b600082601f8301126123e4578081fd5b813560206123f182612d56565b6040516123fe8282612e23565b8381528281019150858301600585901b8701840188101561241d578586fd5b855b8581101561243b5781358452928401929084019060010161241f565b5090979650505050505050565b600082601f830112612458578081fd5b61246783833560208501612377565b9392505050565b60006020828403121561247f578081fd5b813561246781612f61565b60006020828403121561249b578081fd5b815161246781612f61565b600080604083850312156124b8578081fd5b82356124c381612f61565b915060208301356124d381612f61565b809150509250929050565b600080600080600060a086880312156124f5578081fd5b853561250081612f61565b9450602086013561251081612f61565b935060408601356001600160401b038082111561252b578283fd5b61253789838a016123d4565b9450606088013591508082111561254c578283fd5b61255889838a016123d4565b9350608088013591508082111561256d578283fd5b5061257a88828901612448565b9150509295509295909350565b600080600080600060a0868803121561259e578081fd5b85356125a981612f61565b945060208601356125b981612f61565b9350604086013592506060860135915060808601356001600160401b038111156125e1578182fd5b61257a88828901612448565b600080600060608486031215612601578081fd5b833561260c81612f61565b925060208401356001600160401b0380821115612627578283fd5b612633878388016123d4565b93506040860135915080821115612648578283fd5b50612655868287016123d4565b9150509250925092565b60008060408385031215612671578182fd5b823561267c81612f61565b915060208301356124d381612f76565b6000806000606084860312156126a0578081fd5b83516126ab81612f61565b60208501519093506126bc81612f76565b80925050604084015190509250925092565b600080604083850312156126e0578182fd5b82356126eb81612f61565b946020939093013593505050565b60008060006060848603121561270d578081fd5b833561271881612f61565b95602085013595506040909401359392505050565b6000806040838503121561273f578182fd5b82356001600160401b0380821115612755578384fd5b818501915085601f830112612768578384fd5b8135602061277582612d56565b6040516127828282612e23565b8381528281019150858301600585901b870184018b10156127a1578889fd5b8896505b848710156127cc5780356127b881612f61565b8352600196909601959183019183016127a5565b50965050860135925050808211156127e2578283fd5b506127ef858286016123d4565b9150509250929050565b6000602080838503121561280b578182fd5b82516001600160401b03811115612820578283fd5b8301601f81018513612830578283fd5b805161283b81612d56565b6040516128488282612e23565b8281528481019150838501600584901b85018601891015612867578687fd5b8694505b8385101561288957805183526001949094019391850191850161286b565b50979650505050505050565b6000602082840312156128a6578081fd5b813561246781612f84565b6000602082840312156128c2578081fd5b815161246781612f84565b6000602082840312156128de578081fd5b81356001600160401b038111156128f3578182fd5b8201601f81018413612903578182fd5b61178a84823560208401612377565b600060208284031215612923578081fd5b5035919050565b6000806040838503121561293c578182fd5b50508035926020909101359150565b6000815180845260208085019450808401835b8381101561297a5781518752958201959082019060010161295e565b509495945050505050565b6000815180845261299d816020860160208601612dbc565b601f01601f19169290920160200192915050565b600081516129c3818560208601612dbc565b9290920192915050565b600080845482600182811c9150808316806129e957607f831692505b6020808410821415612a0957634e487b7160e01b87526022600452602487fd5b818015612a1d5760018114612a2e57612a5a565b60ff19861689528489019650612a5a565b60008b815260209020885b86811015612a525781548b820152908501908301612a39565b505084890196505b505050505050612a6a81856129b1565b95945050505050565b6001600160a01b0386811682528516602082015260a060408201819052600090612a9f9083018661294b565b8281036060840152612ab1818661294b565b90508281036080840152612ac58185612985565b98975050505050505050565b6001600160a01b03868116825285166020820152604081018490526060810183905260a060808201819052600090612b0b90830184612985565b979650505050505050565b602081526000612467602083018461294b565b604081526000612b3c604083018561294b565b8281036020840152612a6a818561294b565b6020815260006124676020830184612985565b6020808252602f908201527f455243313135353a2063616c6c6572206973206e6f7420746f6b656e206f776e60408201526e195c881b9bdc88185c1c1c9bdd9959608a1b606082015260800190565b60208082526028908201527f455243313135353a204552433131353552656365697665722072656a656374656040820152676420746f6b656e7360c01b606082015260800190565b60208082526024908201527f455243313135353a206275726e20616d6f756e7420657863656564732062616c604082015263616e636560e01b606082015260800190565b60208082526025908201527f455243313135353a207472616e7366657220746f20746865207a65726f206164604082015264647265737360d81b606082015260800190565b60208082526023908201527f455243313135353a206275726e2066726f6d20746865207a65726f206164647260408201526265737360e81b606082015260800190565b6020808252602a908201527f455243313135353a20696e73756666696369656e742062616c616e636520666f60408201526939103a3930b739b332b960b11b606082015260800190565b60208082526028908201527f455243313135353a2069647320616e6420616d6f756e7473206c656e677468206040820152670dad2e6dac2e8c6d60c31b606082015260800190565b60006001600160401b03821115612d6f57612d6f612eaa565b5060051b60200190565b60008219821115612d8c57612d8c612e7e565b500190565b600082612da057612da0612e94565b500490565b600082821015612db757612db7612e7e565b500390565b60005b83811015612dd7578181015183820152602001612dbf565b83811115611cc45750506000910152565b600181811c90821680612dfc57607f821691505b60208210811415612e1d57634e487b7160e01b600052602260045260246000fd5b50919050565b601f8201601f191681016001600160401b0381118282101715612e4857612e48612eaa565b6040525050565b6000600019821415612e6357612e63612e7e565b5060010190565b600082612e7957612e79612e94565b500690565b634e487b7160e01b600052601160045260246000fd5b634e487b7160e01b600052601260045260246000fd5b634e487b7160e01b600052604160045260246000fd5b600060033d1115612ed557600481823e5160e01c5b90565b600060443d1015612ee65790565b6040516003193d81016004833e81513d6001600160401b038160248401118184111715612f1557505050505090565b8285019150815181811115612f2d5750505050505090565b843d8701016020828501011115612f475750505050505090565b612f5660208286010187612e23565b509095945050505050565b6001600160a01b038116811461146b57600080fd5b801515811461146b57600080fd5b6001600160e01b03198116811461146b57600080fdfea26469706673582212204064b132ef2782531b6e72484e01c770dce443b9d236f42bb92fe57c04c1002964736f6c6343000804003368747470733a2f2f64617461626173652e636f6d2f656c656d656e74616c2d73746f6e652f6d657461646174612f",
  "linkReferences": {},
  "deployedLinkReferences": {}
}