{
  "_format": "hh-sol-artifact-1",
  "contractName": "ElementalStone",
  "sourceName": "contracts/Gacha/ElementalStone.sol",
  "abi": [
    {
      "inputs": [
        {
          "internalType": "address",
          "name": "_gachaMachine",
          "type": "address"
        },
        {
          "internalType": "address",
          "name": "_girl",
          "type": "address"
        },
        {
          "internalType": "string",
          "name": "_baseURI",
          "type": "string"
        },
        {
          "internalType": "address",
          "name": "_royalty",
          "type": "address"
        }
      ],
      "stateMutability": "nonpayable",
      "type": "constructor"
    },
    {
      "anonymous": false,
      "inputs": [
        {
          "indexed": true,
          "internalType": "address",
          "name": "account",
          "type": "address"
        },
        {
          "indexed": true,
          "internalType": "address",
          "name": "operator",
          "type": "address"
        },
        {
          "indexed": false,
          "internalType": "bool",
          "name": "approved",
          "type": "bool"
        }
      ],
      "name": "ApprovalForAll",
      "type": "event"
    },
    {
      "anonymous": false,
      "inputs": [
        {
          "indexed": false,
          "internalType": "uint256",
          "name": "id",
          "type": "uint256"
        },
        {
          "indexed": false,
          "internalType": "uint256",
          "name": "toTier",
          "type": "uint256"
        }
      ],
      "name": "CosmicLevelUpgraded",
      "type": "event"
    },
    {
      "anonymous": false,
      "inputs": [
        {
          "indexed": true,
          "internalType": "address",
          "name": "previousOwner",
          "type": "address"
        },
        {
          "indexed": true,
          "internalType": "address",
          "name": "newOwner",
          "type": "address"
        }
      ],
      "name": "OwnershipTransferred",
      "type": "event"
    },
    {
      "anonymous": false,
      "inputs": [
        {
          "indexed": true,
          "internalType": "address",
          "name": "operator",
          "type": "address"
        },
        {
          "indexed": true,
          "internalType": "address",
          "name": "from",
          "type": "address"
        },
        {
          "indexed": true,
          "internalType": "address",
          "name": "to",
          "type": "address"
        },
        {
          "indexed": false,
          "internalType": "uint256[]",
          "name": "ids",
          "type": "uint256[]"
        },
        {
          "indexed": false,
          "internalType": "uint256[]",
          "name": "values",
          "type": "uint256[]"
        }
      ],
      "name": "TransferBatch",
      "type": "event"
    },
    {
      "anonymous": false,
      "inputs": [
        {
          "indexed": true,
          "internalType": "address",
          "name": "operator",
          "type": "address"
        },
        {
          "indexed": true,
          "internalType": "address",
          "name": "from",
          "type": "address"
        },
        {
          "indexed": true,
          "internalType": "address",
          "name": "to",
          "type": "address"
        },
        {
          "indexed": false,
          "internalType": "uint256",
          "name": "id",
          "type": "uint256"
        },
        {
          "indexed": false,
          "internalType": "uint256",
          "name": "value",
          "type": "uint256"
        }
      ],
      "name": "TransferSingle",
      "type": "event"
    },
    {
      "anonymous": false,
      "inputs": [
        {
          "indexed": false,
          "internalType": "string",
          "name": "value",
          "type": "string"
        },
        {
          "indexed": true,
          "internalType": "uint256",
          "name": "id",
          "type": "uint256"
        }
      ],
      "name": "URI",
      "type": "event"
    },
    {
      "inputs": [],
      "name": "INTERFACE_ID_ERC2981",
      "outputs": [
        {
          "internalType": "bytes4",
          "name": "",
          "type": "bytes4"
        }
      ],
      "stateMutability": "view",
      "type": "function"
    },
    {
      "inputs": [
        {
          "internalType": "address",
          "name": "account",
          "type": "address"
        },
        {
          "internalType": "uint256",
          "name": "id",
          "type": "uint256"
        },
        {
          "internalType": "uint256",
          "name": "girlId",
          "type": "uint256"
        }
      ],
      "name": "attune",
      "outputs": [],
      "stateMutability": "nonpayable",
      "type": "function"
    },
    {
      "inputs": [],
      "name": "attunement",
      "outputs": [
        {
          "internalType": "contract IAttunement",
          "name": "",
          "type": "address"
        }
      ],
      "stateMutability": "view",
      "type": "function"
    },
    {
      "inputs": [
        {
          "internalType": "address",
          "name": "account",
          "type": "address"
        },
        {
          "internalType": "uint256",
          "name": "id",
          "type": "uint256"
        }
      ],
      "name": "balanceOf",
      "outputs": [
        {
          "internalType": "uint256",
          "name": "",
          "type": "uint256"
        }
      ],
      "stateMutability": "view",
      "type": "function"
    },
    {
      "inputs": [
        {
          "internalType": "address[]",
          "name": "accounts",
          "type": "address[]"
        },
        {
          "internalType": "uint256[]",
          "name": "ids",
          "type": "uint256[]"
        }
      ],
      "name": "balanceOfBatch",
      "outputs": [
        {
          "internalType": "uint256[]",
          "name": "",
          "type": "uint256[]"
        }
      ],
      "stateMutability": "view",
      "type": "function"
    },
    {
      "inputs": [],
      "name": "baseURI",
      "outputs": [
        {
          "internalType": "string",
          "name": "",
          "type": "string"
        }
      ],
      "stateMutability": "view",
      "type": "function"
    },
    {
      "inputs": [
        {
          "internalType": "address",
          "name": "account",
          "type": "address"
        },
        {
          "internalType": "uint256",
          "name": "id",
          "type": "uint256"
        },
        {
          "internalType": "uint256",
          "name": "value",
          "type": "uint256"
        }
      ],
      "name": "burn",
      "outputs": [],
      "stateMutability": "nonpayable",
      "type": "function"
    },
    {
      "inputs": [
        {
          "internalType": "address",
          "name": "account",
          "type": "address"
        },
        {
          "internalType": "uint256[]",
          "name": "ids",
          "type": "uint256[]"
        },
        {
          "internalType": "uint256[]",
          "name": "values",
          "type": "uint256[]"
        }
      ],
      "name": "burnBatch",
      "outputs": [],
      "stateMutability": "nonpayable",
      "type": "function"
    },
    {
      "inputs": [
        {
          "internalType": "uint256",
          "name": "",
          "type": "uint256"
        }
      ],
      "name": "elementString",
      "outputs": [
        {
          "internalType": "string",
          "name": "",
          "type": "string"
        }
      ],
      "stateMutability": "view",
      "type": "function"
    },
    {
      "inputs": [
        {
          "internalType": "uint256",
          "name": "id",
          "type": "uint256"
        }
      ],
      "name": "exists",
      "outputs": [
        {
          "internalType": "bool",
          "name": "",
          "type": "bool"
        }
      ],
      "stateMutability": "view",
      "type": "function"
    },
    {
      "inputs": [
        {
          "internalType": "address",
          "name": "_user",
          "type": "address"
        }
      ],
      "name": "getWalletBalance",
      "outputs": [
        {
          "internalType": "uint256[]",
          "name": "",
          "type": "uint256[]"
        }
      ],
      "stateMutability": "view",
      "type": "function"
    },
    {
      "inputs": [],
      "name": "girl",
      "outputs": [
        {
          "internalType": "contract IGirl",
          "name": "",
          "type": "address"
        }
      ],
      "stateMutability": "view",
      "type": "function"
    },
    {
      "inputs": [
        {
          "internalType": "address",
          "name": "account",
          "type": "address"
        },
        {
          "internalType": "address",
          "name": "operator",
          "type": "address"
        }
      ],
      "name": "isApprovedForAll",
      "outputs": [
        {
          "internalType": "bool",
          "name": "",
          "type": "bool"
        }
      ],
      "stateMutability": "view",
      "type": "function"
    },
    {
      "inputs": [
        {
          "internalType": "address",
          "name": "",
          "type": "address"
        }
      ],
      "name": "isGachaMachine",
      "outputs": [
        {
          "internalType": "bool",
          "name": "",
          "type": "bool"
        }
      ],
      "stateMutability": "view",
      "type": "function"
    },
    {
      "inputs": [
        {
          "internalType": "address",
          "name": "account",
          "type": "address"
        },
        {
          "internalType": "uint256",
          "name": "id",
          "type": "uint256"
        },
        {
          "internalType": "uint256",
          "name": "amount",
          "type": "uint256"
        }
      ],
      "name": "mint",
      "outputs": [],
      "stateMutability": "nonpayable",
      "type": "function"
    },
    {
      "inputs": [],
      "name": "owner",
      "outputs": [
        {
          "internalType": "address",
          "name": "",
          "type": "address"
        }
      ],
      "stateMutability": "view",
      "type": "function"
    },
    {
      "inputs": [],
      "name": "renounceOwnership",
      "outputs": [],
      "stateMutability": "nonpayable",
      "type": "function"
    },
    {
      "inputs": [
        {
          "internalType": "uint256",
          "name": "_tokenId",
          "type": "uint256"
        },
        {
          "internalType": "uint256",
          "name": "_salePrice",
          "type": "uint256"
        }
      ],
      "name": "royaltyInfo",
      "outputs": [
        {
          "internalType": "address",
          "name": "receiver",
          "type": "address"
        },
        {
          "internalType": "uint256",
          "name": "royaltyAmount",
          "type": "uint256"
        }
      ],
      "stateMutability": "view",
      "type": "function"
    },
    {
      "inputs": [
        {
          "internalType": "address",
          "name": "from",
          "type": "address"
        },
        {
          "internalType": "address",
          "name": "to",
          "type": "address"
        },
        {
          "internalType": "uint256[]",
          "name": "ids",
          "type": "uint256[]"
        },
        {
          "internalType": "uint256[]",
          "name": "amounts",
          "type": "uint256[]"
        },
        {
          "internalType": "bytes",
          "name": "data",
          "type": "bytes"
        }
      ],
      "name": "safeBatchTransferFrom",
      "outputs": [],
      "stateMutability": "nonpayable",
      "type": "function"
    },
    {
      "inputs": [
        {
          "internalType": "address",
          "name": "from",
          "type": "address"
        },
        {
          "internalType": "address",
          "name": "to",
          "type": "address"
        },
        {
          "internalType": "uint256",
          "name": "id",
          "type": "uint256"
        },
        {
          "internalType": "uint256",
          "name": "amount",
          "type": "uint256"
        },
        {
          "internalType": "bytes",
          "name": "data",
          "type": "bytes"
        }
      ],
      "name": "safeTransferFrom",
      "outputs": [],
      "stateMutability": "nonpayable",
      "type": "function"
    },
    {
      "inputs": [
        {
          "internalType": "address",
          "name": "operator",
          "type": "address"
        },
        {
          "internalType": "bool",
          "name": "approved",
          "type": "bool"
        }
      ],
      "name": "setApprovalForAll",
      "outputs": [],
      "stateMutability": "nonpayable",
      "type": "function"
    },
    {
      "inputs": [
        {
          "internalType": "address",
          "name": "_contract",
          "type": "address"
        }
      ],
      "name": "setAttunementContract",
      "outputs": [],
      "stateMutability": "nonpayable",
      "type": "function"
    },
    {
      "inputs": [
        {
          "internalType": "string",
          "name": "newBaseURI",
          "type": "string"
        }
      ],
      "name": "setBaseURI",
      "outputs": [],
      "stateMutability": "nonpayable",
      "type": "function"
    },
    {
      "inputs": [
        {
          "internalType": "address",
          "name": "_contract",
          "type": "address"
        }
      ],
      "name": "setGachaMachineContract",
      "outputs": [],
      "stateMutability": "nonpayable",
      "type": "function"
    },
    {
      "inputs": [
        {
          "internalType": "address",
          "name": "_girl",
          "type": "address"
        }
      ],
      "name": "setGirlContract",
      "outputs": [],
      "stateMutability": "nonpayable",
      "type": "function"
    },
    {
      "inputs": [
        {
          "internalType": "address",
          "name": "newRecipient",
          "type": "address"
        }
      ],
      "name": "setRoyalties",
      "outputs": [],
      "stateMutability": "nonpayable",
      "type": "function"
    },
    {
      "inputs": [
        {
          "internalType": "uint256",
          "name": "newCount",
          "type": "uint256"
        }
      ],
      "name": "setTokenCount",
      "outputs": [],
      "stateMutability": "nonpayable",
      "type": "function"
    },
    {
      "inputs": [
        {
          "internalType": "uint256",
          "name": "id",
          "type": "uint256"
        },
        {
          "internalType": "uint256",
          "name": "girlId",
          "type": "uint256"
        }
      ],
      "name": "stake",
      "outputs": [],
      "stateMutability": "nonpayable",
      "type": "function"
    },
    {
      "inputs": [
        {
          "internalType": "bytes4",
          "name": "interfaceId",
          "type": "bytes4"
        }
      ],
      "name": "supportsInterface",
      "outputs": [
        {
          "internalType": "bool",
          "name": "",
          "type": "bool"
        }
      ],
      "stateMutability": "view",
      "type": "function"
    },
    {
      "inputs": [],
      "name": "tokenCount",
      "outputs": [
        {
          "internalType": "uint256",
          "name": "",
          "type": "uint256"
        }
      ],
      "stateMutability": "view",
      "type": "function"
    },
    {
      "inputs": [
        {
          "internalType": "uint256",
          "name": "id",
          "type": "uint256"
        }
      ],
      "name": "totalSupply",
      "outputs": [
        {
          "internalType": "uint256",
          "name": "",
          "type": "uint256"
        }
      ],
      "stateMutability": "view",
      "type": "function"
    },
    {
      "inputs": [
        {
          "internalType": "address",
          "name": "newOwner",
          "type": "address"
        }
      ],
      "name": "transferOwnership",
      "outputs": [],
      "stateMutability": "nonpayable",
      "type": "function"
    },
    {
      "inputs": [
        {
          "internalType": "uint256",
          "name": "id",
          "type": "uint256"
        },
        {
          "internalType": "uint256",
          "name": "toTier",
          "type": "uint256"
        }
      ],
      "name": "upgradeCosmicLevel",
      "outputs": [],
      "stateMutability": "nonpayable",
      "type": "function"
    },
    {
      "inputs": [
        {
          "internalType": "uint256",
          "name": "",
          "type": "uint256"
        }
      ],
      "name": "upgradeIDs",
      "outputs": [
        {
          "internalType": "uint256",
          "name": "",
          "type": "uint256"
        }
      ],
      "stateMutability": "view",
      "type": "function"
    },
    {
      "inputs": [
        {
          "internalType": "uint256",
          "name": "_tokenID",
          "type": "uint256"
        }
      ],
      "name": "uri",
      "outputs": [
        {
          "internalType": "string",
          "name": "",
          "type": "string"
        }
      ],
      "stateMutability": "view",
      "type": "function"
    }
  ],
  "bytecode": "0x6006600781905560e060405260046080908152600560a05260c0919091526200002d90600890600362000362565b50604051806080016040528060405180602001604052806000815250815260200160405180604001604052806005815260200164466c616d6560d81b815250815260200160405180604001604052806005815260200164546572726160d81b8152508152602001604051806040016040528060048152602001634171756160e01b815250815250600a906004620000c6929190620003b7565b50348015620000d457600080fd5b506040516200360538038062003605833981016040819052620000f79162000528565b60408051808201909152601381527f54474720456c656d656e74616c2053746f6e650000000000000000000000000060208201526200013681620001a3565b506200014233620001bc565b6001600160a01b0384166000908152600b60205260409020805460ff1916600117905562000170836200020e565b6200017b826200023a565b620001868162000259565b5050600c80546001600160a01b03191633179055506200068c9050565b8051620001b890600290602084019062000417565b5050565b600480546001600160a01b038381166001600160a01b0319831681179093556040519116919082907f8be0079c531659141344cd1fd0a4f28419497f9722a3daafe3b4186f6b6457e090600090a35050565b6200021862000271565b600680546001600160a01b0319166001600160a01b0392909216919091179055565b6200024462000271565b8051620001b890600990602084019062000417565b6200026362000271565b6200026e81620002d3565b50565b6004546001600160a01b03163314620002d15760405162461bcd60e51b815260206004820181905260248201527f4f776e61626c653a2063616c6c6572206973206e6f7420746865206f776e657260448201526064015b60405180910390fd5b565b6001600160a01b038116620003405760405162461bcd60e51b815260206004820152602c60248201527f526f79616c746965733a206e657720726563697069656e74206973207468652060448201526b7a65726f206164647265737360a01b6064820152608401620002c8565b600c80546001600160a01b0319166001600160a01b0392909216919091179055565b828054828255906000526020600020908101928215620003a5579160200282015b82811115620003a5578251829060ff1690559160200191906001019062000383565b50620003b392915062000494565b5090565b82805482825590600052602060002090810192821562000409579160200282015b82811115620004095782518051620003f891849160209091019062000417565b5091602001919060010190620003d8565b50620003b3929150620004ab565b828054620004259062000639565b90600052602060002090601f016020900481019282620004495760008555620003a5565b82601f106200046457805160ff1916838001178555620003a5565b82800160010185558215620003a5579182015b82811115620003a557825182559160200191906001019062000477565b5b80821115620003b3576000815560010162000495565b80821115620003b3576000620004c28282620004cc565b50600101620004ab565b508054620004da9062000639565b6000825580601f10620004eb575050565b601f0160209004906000526020600020908101906200026e919062000494565b80516001600160a01b03811681146200052357600080fd5b919050565b600080600080608085870312156200053e578384fd5b62000549856200050b565b935060206200055a8187016200050b565b60408701519094506001600160401b038082111562000577578485fd5b818801915088601f8301126200058b578485fd5b815181811115620005a057620005a062000676565b604051601f8201601f19908116603f01168101908382118183101715620005cb57620005cb62000676565b816040528281528b86848701011115620005e3578788fd5b8793505b82841015620006065784840186015181850187015292850192620005e7565b828411156200061757878684830101525b8097505050505050506200062e606086016200050b565b905092959194509250565b600181811c908216806200064e57607f821691505b602082108114156200067057634e487b7160e01b600052602260045260246000fd5b50919050565b634e487b7160e01b600052604160045260246000fd5b612f69806200069c6000396000f3fe608060405234801561001057600080fd5b50600436106102105760003560e01c806355f804b311610125578063a22cb465116100ad578063e985e9c51161007c578063e985e9c5146104e3578063ed8ec1941461051f578063f242432a14610532578063f2fde38b14610545578063f5298aca1461055857600080fd5b8063a22cb46514610476578063a388237d14610489578063b060dd861461049c578063bd85b039146104c357600080fd5b80637b0472f0116100f45780637b0472f0146104235780637b435a651461043657806384eda544146104495780638da5cb5b1461045c5780639f181b5e1461046d57600080fd5b806355f804b3146103ed5780636b20c454146104005780636c0360eb14610413578063715018a61461041b57600080fd5b80632a9e63c6116101a85780633c22ae5a116101775780633c22ae5a146103625780634c7b7c6f146103855780634d683d08146103985780634e1273f4146103ab5780634f558e79146103cb57600080fd5b80632a9e63c6146103165780632eb2c2d6146103295780633318f1a51461033c578063348a2c3c1461034f57600080fd5b8063156e29f6116101e4578063156e29f6146102a95780631c253155146102be5780631ce57c00146102d15780632a55205a146102e457600080fd5b8062fdd58e1461021557806301ffc9a71461023b5780630e89341c1461025e5780630f3b899b1461027e575b600080fd5b610228610223366004612676565b61056b565b6040519081526020015b60405180910390f35b61024e61024936600461283d565b610601565b6040519015158152602001610232565b61027161026c3660046128c2565b61062c565b6040516102329190612afe565b600554610291906001600160a01b031681565b6040516001600160a01b039091168152602001610232565b6102bc6102b73660046126a1565b610666565b005b6102bc6102cc366004612416565b6106e5565b6102bc6102df3660046126a1565b610711565b6102f76102f23660046128da565b6107fb565b604080516001600160a01b039093168352602083019190915201610232565b6102bc610324366004612416565b610829565b6102bc610337366004612486565b61083d565b600654610291906001600160a01b031681565b61022861035d3660046128c2565b610889565b61024e610370366004612416565b600b6020526000908152604090205460ff1681565b6102bc6103933660046128da565b6108aa565b6102716103a63660046128c2565b610c0f565b6103be6103b93660046126d5565b610cbb565b6040516102329190612ac6565b61024e6103d93660046128c2565b600090815260036020526040902054151590565b6102bc6103fb366004612875565b610e1c565b6102bc61040e366004612595565b610e3b565b610271610e7e565b6102bc610e8b565b6102bc6104313660046128da565b610e9f565b6102bc6104443660046128c2565b611156565b6102bc610457366004612416565b611163565b6004546001600160a01b0316610291565b61022860075481565b6102bc610484366004612607565b61118d565b6102bc610497366004612416565b611198565b6104aa63152a902d60e11b81565b6040516001600160e01b03199091168152602001610232565b6102286104d13660046128c2565b60009081526003602052604090205490565b61024e6104f136600461244e565b6001600160a01b03918216600090815260016020908152604080832093909416825291909152205460ff1690565b6103be61052d366004612416565b6111c2565b6102bc61054036600461252f565b611278565b6102bc610553366004612416565b6112bd565b6102bc6105663660046126a1565b611333565b60006001600160a01b0383166105db5760405162461bcd60e51b815260206004820152602a60248201527f455243313135353a2061646472657373207a65726f206973206e6f742061207660448201526930b634b21037bbb732b960b11b60648201526084015b60405180910390fd5b506000908152602081815260408083206001600160a01b03949094168352929052205490565b60006001600160e01b0319821663152a902d60e11b1480610626575061062682611376565b92915050565b60606000610639836113c6565b905060098160405160200161064f92919061297d565b604051602081830303815290604052915050919050565b336000908152600b602052604090205460ff166106c55760405162461bcd60e51b815260206004820152601b60248201527f4f6e6c79206761636861206d616368696e652063616e206d696e74000000000060448201526064016105d2565b6106e083838360405180602001604052806000815250611468565b505050565b6106ed611582565b6001600160a01b03166000908152600b60205260409020805460ff19166001179055565b6005546001600160a01b0316331461076b5760405162461bcd60e51b815260206004820152601a60248201527f4f6e6c7920617474756e656d656e742063616e20617474756e6500000000000060448201526064016105d2565b6107918361077a846003612d28565b600160405180602001604052806000815250611468565b600654604051633f1ed70960e01b815260048101839052600060248201526001600160a01b0390911690633f1ed70990604401600060405180830381600087803b1580156107de57600080fd5b505af11580156107f2573d6000803e3d6000fd5b50505050505050565b600c546001600160a01b031660006064610816846006612d60565b6108209190612d40565b90509250929050565b610831611582565b61083a816115dc565b50565b6001600160a01b038516331480610859575061085985336104f1565b6108755760405162461bcd60e51b81526004016105d290612b9d565b6108828585858585611669565b5050505050565b6008818154811061089957600080fd5b600091825260209091200154905081565b600654604051631fba62cb60e11b815260048101849052602481018390526000916001600160a01b031690633f74c5969060440160006040518083038186803b1580156108f657600080fd5b505afa15801561090a573d6000803e3d6000fd5b505050506040513d6000823e601f3d908101601f1916820160405261093291908101906127a1565b90508060008151811061095557634e487b7160e01b600052603260045260246000fd5b602002602001015161096833600461056b565b101580156109a857508060018151811061099257634e487b7160e01b600052603260045260246000fd5b60200260200101516109a533600561056b565b10155b80156109e65750806002815181106109d057634e487b7160e01b600052603260045260246000fd5b60200260200101516109e333600661056b565b10155b610a325760405162461bcd60e51b815260206004820152601a60248201527f557067726164653a206e6f7420656e6f7567682073746f6e657300000000000060448201526064016105d2565b6006546040516331a9108f60e11b81526004810185905233916001600160a01b031690636352211e9060240160206040518083038186803b158015610a7657600080fd5b505afa158015610a8a573d6000803e3d6000fd5b505050506040513d601f19601f82011682018060405250810190610aae9190612432565b6001600160a01b031614610b105760405162461bcd60e51b815260206004820152602360248201527f456c656d656e74616c3a20757067726164652063616c6c6572206e6f74206f776044820152623732b960e91b60648201526084016105d2565b610b6b336008805480602002602001604051908101604052809291908181526020018280548015610b6057602002820191906000526020600020905b815481526020019060010190808311610b4c575b505050505083610e3b565b600654604051636aa5dd7160e01b815260048101859052602481018490526001600160a01b0390911690636aa5dd7190604401600060405180830381600087803b158015610bb857600080fd5b505af1158015610bcc573d6000803e3d6000fd5b505060408051868152602081018690527f549cdf5da15129b72a0feab3af971de93f43bae8c4c308abca039291e66e1afe935001905060405180910390a1505050565b600a8181548110610c1f57600080fd5b906000526020600020016000915090508054610c3a90612dab565b80601f0160208091040260200160405190810160405280929190818152602001828054610c6690612dab565b8015610cb35780601f10610c8857610100808354040283529160200191610cb3565b820191906000526020600020905b815481529060010190602001808311610c9657829003601f168201915b505050505081565b60608151835114610d205760405162461bcd60e51b815260206004820152602960248201527f455243313135353a206163636f756e747320616e6420696473206c656e677468604482015268040dad2e6dac2e8c6d60bb1b60648201526084016105d2565b600083516001600160401b03811115610d4957634e487b7160e01b600052604160045260246000fd5b604051908082528060200260200182016040528015610d72578160200160208202803683370190505b50905060005b8451811015610e1457610dd9858281518110610da457634e487b7160e01b600052603260045260246000fd5b6020026020010151858381518110610dcc57634e487b7160e01b600052603260045260246000fd5b602002602001015161056b565b828281518110610df957634e487b7160e01b600052603260045260246000fd5b6020908102919091010152610e0d81612e12565b9050610d78565b509392505050565b610e24611582565b8051610e37906009906020840190612286565b5050565b6001600160a01b038316331480610e575750610e5783336104f1565b610e735760405162461bcd60e51b81526004016105d290612b9d565b6106e083838361182f565b60098054610c3a90612dab565b610e93611582565b610e9d60006119e9565b565b60018210158015610eb1575060038211155b610f0b5760405162461bcd60e51b815260206004820152602560248201527f45533a206f6e6c7920646f726d616e742073746f6e65732063616e20626520736044820152641d185ad95960da1b60648201526084016105d2565b600654604051630814786760e31b815260048101839052600091829182916001600160a01b0316906340a3c3389060240160606040518083038186803b158015610f5457600080fd5b505afa158015610f68573d6000803e3d6000fd5b505050506040513d601f19601f82011682018060405250810190610f8c9190612634565b91945092509050336001600160a01b03841614610ff75760405162461bcd60e51b815260206004820152602360248201527f45533a2063616e7420706169722077697468206769726c2e2e206e6f74206f776044820152623732b960e91b60648201526084016105d2565b81156110455760405162461bcd60e51b815260206004820152601b60248201527f45533a206769726c20697320616c7265616479207374616b696e67000000000060448201526064016105d2565b61107733600560009054906101000a90046001600160a01b031687600160405180602001604052806000815250611278565b600554604051636ea3404b60e11b8152336004820152602481018790526044810186905282871460648201526001600160a01b039091169063dd46809690608401600060405180830381600087803b1580156110d257600080fd5b505af11580156110e6573d6000803e3d6000fd5b5050600654604051633f1ed70960e01b815260048101889052600160248201526001600160a01b039091169250633f1ed7099150604401600060405180830381600087803b15801561113757600080fd5b505af115801561114b573d6000803e3d6000fd5b505050505050505050565b61115e611582565b600755565b61116b611582565b600680546001600160a01b0319166001600160a01b0392909216919091179055565b610e37338383611a3b565b6111a0611582565b600580546001600160a01b0319166001600160a01b0392909216919091179055565b606060006007546001600160401b038111156111ee57634e487b7160e01b600052604160045260246000fd5b604051908082528060200260200182016040528015611217578160200160208202803683370190505b50905060005b6007548110156112715761123684610223836001612d28565b82828151811061125657634e487b7160e01b600052603260045260246000fd5b602090810291909101015261126a81612e12565b905061121d565b5092915050565b6001600160a01b038516331480611294575061129485336104f1565b6112b05760405162461bcd60e51b81526004016105d290612b9d565b6108828585858585611b1c565b6112c5611582565b6001600160a01b03811661132a5760405162461bcd60e51b815260206004820152602660248201527f4f776e61626c653a206e6577206f776e657220697320746865207a65726f206160448201526564647265737360d01b60648201526084016105d2565b61083a816119e9565b6001600160a01b03831633148061134f575061134f83336104f1565b61136b5760405162461bcd60e51b81526004016105d290612b9d565b6106e0838383611c49565b60006001600160e01b03198216636cdb3d1360e11b14806113a757506001600160e01b031982166303a24d0760e21b145b8061062657506301ffc9a760e01b6001600160e01b0319831614610626565b606060006113d383611d61565b60010190506000816001600160401b0381111561140057634e487b7160e01b600052604160045260246000fd5b6040519080825280601f01601f19166020018201604052801561142a576020820181803683370190505b5090508181016020015b600019016f181899199a1a9b1b9c1cb0b131b232b360811b600a86061a8153600a850494508461146357610e14565b611434565b6001600160a01b0384166114c85760405162461bcd60e51b815260206004820152602160248201527f455243313135353a206d696e7420746f20746865207a65726f206164647265736044820152607360f81b60648201526084016105d2565b3360006114d485611e39565b905060006114e185611e39565b90506114f283600089858589611e92565b6000868152602081815260408083206001600160a01b038b16845290915281208054879290611522908490612d28565b909155505060408051878152602081018790526001600160a01b03808a1692600092918716917fc3d58168c5ae7397731d063d5bbf3d657854427343f4c083240f7aacaa2d0f62910160405180910390a46107f283600089898989611ea0565b6004546001600160a01b03163314610e9d5760405162461bcd60e51b815260206004820181905260248201527f4f776e61626c653a2063616c6c6572206973206e6f7420746865206f776e657260448201526064016105d2565b6001600160a01b0381166116475760405162461bcd60e51b815260206004820152602c60248201527f526f79616c746965733a206e657720726563697069656e74206973207468652060448201526b7a65726f206164647265737360a01b60648201526084016105d2565b600c80546001600160a01b0319166001600160a01b0392909216919091179055565b815183511461168a5760405162461bcd60e51b81526004016105d290612cbd565b6001600160a01b0384166116b05760405162461bcd60e51b81526004016105d290612beb565b336116bf818787878787611e92565b60005b84518110156117c15760008582815181106116ed57634e487b7160e01b600052603260045260246000fd5b60200260200101519050600085838151811061171957634e487b7160e01b600052603260045260246000fd5b602090810291909101810151600084815280835260408082206001600160a01b038e1683529093529190912054909150818110156117695760405162461bcd60e51b81526004016105d290612c73565b6000838152602081815260408083206001600160a01b038e8116855292528083208585039055908b168252812080548492906117a6908490612d28565b92505081905550505050806117ba90612e12565b90506116c2565b50846001600160a01b0316866001600160a01b0316826001600160a01b03167f4a39dc06d4c0dbc64b70af90fd698a233a518aa5d07e595d983b8c0526c8f7fb8787604051611811929190612ad9565b60405180910390a461182781878787878761200b565b505050505050565b6001600160a01b0383166118555760405162461bcd60e51b81526004016105d290612c30565b80518251146118765760405162461bcd60e51b81526004016105d290612cbd565b600033905061189981856000868660405180602001604052806000815250611e92565b60005b835181101561197a5760008482815181106118c757634e487b7160e01b600052603260045260246000fd5b6020026020010151905060008483815181106118f357634e487b7160e01b600052603260045260246000fd5b602090810291909101810151600084815280835260408082206001600160a01b038c1683529093529190912054909150818110156119435760405162461bcd60e51b81526004016105d290612b59565b6000928352602083815260408085206001600160a01b038b168652909152909220910390558061197281612e12565b91505061189c565b5060006001600160a01b0316846001600160a01b0316826001600160a01b03167f4a39dc06d4c0dbc64b70af90fd698a233a518aa5d07e595d983b8c0526c8f7fb86866040516119cb929190612ad9565b60405180910390a46040805160208101909152600090525b50505050565b600480546001600160a01b038381166001600160a01b0319831681179093556040519116919082907f8be0079c531659141344cd1fd0a4f28419497f9722a3daafe3b4186f6b6457e090600090a35050565b816001600160a01b0316836001600160a01b03161415611aaf5760405162461bcd60e51b815260206004820152602960248201527f455243313135353a2073657474696e6720617070726f76616c20737461747573604482015268103337b91039b2b63360b91b60648201526084016105d2565b6001600160a01b03838116600081815260016020908152604080832094871680845294825291829020805460ff191686151590811790915591519182527f17307eab39ab6107e8899845ad3d59bd9653f200f220920489ca2b5937696c31910160405180910390a3505050565b6001600160a01b038416611b425760405162461bcd60e51b81526004016105d290612beb565b336000611b4e85611e39565b90506000611b5b85611e39565b9050611b6b838989858589611e92565b6000868152602081815260408083206001600160a01b038c16845290915290205485811015611bac5760405162461bcd60e51b81526004016105d290612c73565b6000878152602081815260408083206001600160a01b038d8116855292528083208985039055908a16825281208054889290611be9908490612d28565b909155505060408051888152602081018890526001600160a01b03808b16928c821692918816917fc3d58168c5ae7397731d063d5bbf3d657854427343f4c083240f7aacaa2d0f62910160405180910390a461114b848a8a8a8a8a611ea0565b6001600160a01b038316611c6f5760405162461bcd60e51b81526004016105d290612c30565b336000611c7b84611e39565b90506000611c8884611e39565b9050611ca883876000858560405180602001604052806000815250611e92565b6000858152602081815260408083206001600160a01b038a16845290915290205484811015611ce95760405162461bcd60e51b81526004016105d290612b59565b6000868152602081815260408083206001600160a01b038b81168086529184528285208a8703905582518b81529384018a90529092908816917fc3d58168c5ae7397731d063d5bbf3d657854427343f4c083240f7aacaa2d0f62910160405180910390a46040805160208101909152600090526107f2565b60008072184f03e93ff9f4daa797ed6e38ed64bf6a1f0160401b8310611da05772184f03e93ff9f4daa797ed6e38ed64bf6a1f0160401b830492506040015b6d04ee2d6d415b85acef81000000008310611dcc576d04ee2d6d415b85acef8100000000830492506020015b662386f26fc100008310611dea57662386f26fc10000830492506010015b6305f5e1008310611e02576305f5e100830492506008015b6127108310611e1657612710830492506004015b60648310611e28576064830492506002015b600a83106106265760010192915050565b60408051600180825281830190925260609160009190602080830190803683370190505090508281600081518110611e8157634e487b7160e01b600052603260045260246000fd5b602090810291909101015292915050565b6118278686868686866120d5565b6001600160a01b0384163b156118275760405163f23a6e6160e01b81526001600160a01b0385169063f23a6e6190611ee49089908990889088908890600401612a81565b602060405180830381600087803b158015611efe57600080fd5b505af1925050508015611f2e575060408051601f3d908101601f19168201909252611f2b91810190612859565b60015b611fdb57611f3a612e59565b806308c379a01415611f745750611f4f612e71565b80611f5a5750611f76565b8060405162461bcd60e51b81526004016105d29190612afe565b505b60405162461bcd60e51b815260206004820152603460248201527f455243313135353a207472616e7366657220746f206e6f6e2d455243313135356044820152732932b1b2b4bb32b91034b6b83632b6b2b73a32b960611b60648201526084016105d2565b6001600160e01b0319811663f23a6e6160e01b146107f25760405162461bcd60e51b81526004016105d290612b11565b6001600160a01b0384163b156118275760405163bc197c8160e01b81526001600160a01b0385169063bc197c819061204f9089908990889088908890600401612a23565b602060405180830381600087803b15801561206957600080fd5b505af1925050508015612099575060408051601f3d908101601f1916820190925261209691810190612859565b60015b6120a557611f3a612e59565b6001600160e01b0319811663bc197c8160e01b146107f25760405162461bcd60e51b81526004016105d290612b11565b6001600160a01b0385166121785760005b83518110156121765782818151811061210f57634e487b7160e01b600052603260045260246000fd5b60200260200101516003600086848151811061213b57634e487b7160e01b600052603260045260246000fd5b6020026020010151815260200190815260200160002060008282546121609190612d28565b9091555061216f905081612e12565b90506120e6565b505b6001600160a01b0384166118275760005b83518110156107f25760008482815181106121b457634e487b7160e01b600052603260045260246000fd5b6020026020010151905060008483815181106121e057634e487b7160e01b600052603260045260246000fd5b60200260200101519050600060036000848152602001908152602001600020549050818110156122635760405162461bcd60e51b815260206004820152602860248201527f455243313135353a206275726e20616d6f756e74206578636565647320746f74604482015267616c537570706c7960c01b60648201526084016105d2565b6000928352600360205260409092209103905561227f81612e12565b9050612189565b82805461229290612dab565b90600052602060002090601f0160209004810192826122b457600085556122fa565b82601f106122cd57805160ff19168380011785556122fa565b828001600101855582156122fa579182015b828111156122fa5782518255916020019190600101906122df565b5061230692915061230a565b5090565b5b80821115612306576000815560010161230b565b60006001600160401b0383111561233857612338612e43565b60405161234f601f8501601f191660200182612de6565b80915083815284848401111561236457600080fd5b83836020830137600060208583010152509392505050565b600082601f83011261238c578081fd5b8135602061239982612d05565b6040516123a68282612de6565b8381528281019150858301600585901b870184018810156123c5578586fd5b855b858110156123e3578135845292840192908401906001016123c7565b5090979650505050505050565b600082601f830112612400578081fd5b61240f8383356020850161231f565b9392505050565b600060208284031215612427578081fd5b813561240f81612efa565b600060208284031215612443578081fd5b815161240f81612efa565b60008060408385031215612460578081fd5b823561246b81612efa565b9150602083013561247b81612efa565b809150509250929050565b600080600080600060a0868803121561249d578081fd5b85356124a881612efa565b945060208601356124b881612efa565b935060408601356001600160401b03808211156124d3578283fd5b6124df89838a0161237c565b945060608801359150808211156124f4578283fd5b61250089838a0161237c565b93506080880135915080821115612515578283fd5b50612522888289016123f0565b9150509295509295909350565b600080600080600060a08688031215612546578081fd5b853561255181612efa565b9450602086013561256181612efa565b9350604086013592506060860135915060808601356001600160401b03811115612589578182fd5b612522888289016123f0565b6000806000606084860312156125a9578081fd5b83356125b481612efa565b925060208401356001600160401b03808211156125cf578283fd5b6125db8783880161237c565b935060408601359150808211156125f0578283fd5b506125fd8682870161237c565b9150509250925092565b60008060408385031215612619578182fd5b823561262481612efa565b9150602083013561247b81612f0f565b600080600060608486031215612648578081fd5b835161265381612efa565b602085015190935061266481612f0f565b80925050604084015190509250925092565b60008060408385031215612688578182fd5b823561269381612efa565b946020939093013593505050565b6000806000606084860312156126b5578081fd5b83356126c081612efa565b95602085013595506040909401359392505050565b600080604083850312156126e7578182fd5b82356001600160401b03808211156126fd578384fd5b818501915085601f830112612710578384fd5b8135602061271d82612d05565b60405161272a8282612de6565b8381528281019150858301600585901b870184018b1015612749578889fd5b8896505b8487101561277457803561276081612efa565b83526001969096019591830191830161274d565b509650508601359250508082111561278a578283fd5b506127978582860161237c565b9150509250929050565b600060208083850312156127b3578182fd5b82516001600160401b038111156127c8578283fd5b8301601f810185136127d8578283fd5b80516127e381612d05565b6040516127f08282612de6565b8281528481019150838501600584901b8501860189101561280f578687fd5b8694505b83851015612831578051835260019490940193918501918501612813565b50979650505050505050565b60006020828403121561284e578081fd5b813561240f81612f1d565b60006020828403121561286a578081fd5b815161240f81612f1d565b600060208284031215612886578081fd5b81356001600160401b0381111561289b578182fd5b8201601f810184136128ab578182fd5b6128ba8482356020840161231f565b949350505050565b6000602082840312156128d3578081fd5b5035919050565b600080604083850312156128ec578182fd5b50508035926020909101359150565b6000815180845260208085019450808401835b8381101561292a5781518752958201959082019060010161290e565b509495945050505050565b6000815180845261294d816020860160208601612d7f565b601f01601f19169290920160200192915050565b60008151612973818560208601612d7f565b9290920192915050565b600080845482600182811c91508083168061299957607f831692505b60208084108214156129b957634e487b7160e01b87526022600452602487fd5b8180156129cd57600181146129de57612a0a565b60ff19861689528489019650612a0a565b60008b815260209020885b86811015612a025781548b8201529085019083016129e9565b505084890196505b505050505050612a1a8185612961565b95945050505050565b6001600160a01b0386811682528516602082015260a060408201819052600090612a4f908301866128fb565b8281036060840152612a6181866128fb565b90508281036080840152612a758185612935565b98975050505050505050565b6001600160a01b03868116825285166020820152604081018490526060810183905260a060808201819052600090612abb90830184612935565b979650505050505050565b60208152600061240f60208301846128fb565b604081526000612aec60408301856128fb565b8281036020840152612a1a81856128fb565b60208152600061240f6020830184612935565b60208082526028908201527f455243313135353a204552433131353552656365697665722072656a656374656040820152676420746f6b656e7360c01b606082015260800190565b60208082526024908201527f455243313135353a206275726e20616d6f756e7420657863656564732062616c604082015263616e636560e01b606082015260800190565b6020808252602e908201527f455243313135353a2063616c6c6572206973206e6f7420746f6b656e206f776e60408201526d195c881bdc88185c1c1c9bdd995960921b606082015260800190565b60208082526025908201527f455243313135353a207472616e7366657220746f20746865207a65726f206164604082015264647265737360d81b606082015260800190565b60208082526023908201527f455243313135353a206275726e2066726f6d20746865207a65726f206164647260408201526265737360e81b606082015260800190565b6020808252602a908201527f455243313135353a20696e73756666696369656e742062616c616e636520666f60408201526939103a3930b739b332b960b11b606082015260800190565b60208082526028908201527f455243313135353a2069647320616e6420616d6f756e7473206c656e677468206040820152670dad2e6dac2e8c6d60c31b606082015260800190565b60006001600160401b03821115612d1e57612d1e612e43565b5060051b60200190565b60008219821115612d3b57612d3b612e2d565b500190565b600082612d5b57634e487b7160e01b81526012600452602481fd5b500490565b6000816000190483118215151615612d7a57612d7a612e2d565b500290565b60005b83811015612d9a578181015183820152602001612d82565b838111156119e35750506000910152565b600181811c90821680612dbf57607f821691505b60208210811415612de057634e487b7160e01b600052602260045260246000fd5b50919050565b601f8201601f191681016001600160401b0381118282101715612e0b57612e0b612e43565b6040525050565b6000600019821415612e2657612e26612e2d565b5060010190565b634e487b7160e01b600052601160045260246000fd5b634e487b7160e01b600052604160045260246000fd5b600060033d1115612e6e57600481823e5160e01c5b90565b600060443d1015612e7f5790565b6040516003193d81016004833e81513d6001600160401b038160248401118184111715612eae57505050505090565b8285019150815181811115612ec65750505050505090565b843d8701016020828501011115612ee05750505050505090565b612eef60208286010187612de6565b509095945050505050565b6001600160a01b038116811461083a57600080fd5b801515811461083a57600080fd5b6001600160e01b03198116811461083a57600080fdfea2646970667358221220fbee47e057b879ac46c417aff383390dbbbde930473b0afa8658d3a9ea03fa7964736f6c63430008040033",
  "linkReferences": {},
  "deployedLinkReferences": {}
}