{
  "_format": "hh-sol-artifact-1",
  "contractName": "ElementalStone",
  "sourceName": "contracts/Gacha/ElementalStone.sol",
  "abi": [
    {
      "inputs": [
        {
          "internalType": "address",
          "name": "_gachaMachine",
          "type": "address"
        },
        {
          "internalType": "address",
          "name": "_girl",
          "type": "address"
        },
        {
          "internalType": "string",
          "name": "_baseURI",
          "type": "string"
        },
        {
          "internalType": "address",
          "name": "_royalty",
          "type": "address"
        }
      ],
      "stateMutability": "nonpayable",
      "type": "constructor"
    },
    {
      "anonymous": false,
      "inputs": [
        {
          "indexed": true,
          "internalType": "address",
          "name": "account",
          "type": "address"
        },
        {
          "indexed": true,
          "internalType": "address",
          "name": "operator",
          "type": "address"
        },
        {
          "indexed": false,
          "internalType": "bool",
          "name": "approved",
          "type": "bool"
        }
      ],
      "name": "ApprovalForAll",
      "type": "event"
    },
    {
      "anonymous": false,
      "inputs": [
        {
          "indexed": false,
          "internalType": "uint256",
          "name": "id",
          "type": "uint256"
        },
        {
          "indexed": false,
          "internalType": "uint256",
          "name": "toTier",
          "type": "uint256"
        }
      ],
      "name": "CosmicLevelUpgraded",
      "type": "event"
    },
    {
      "anonymous": false,
      "inputs": [
        {
          "indexed": true,
          "internalType": "address",
          "name": "previousOwner",
          "type": "address"
        },
        {
          "indexed": true,
          "internalType": "address",
          "name": "newOwner",
          "type": "address"
        }
      ],
      "name": "OwnershipTransferred",
      "type": "event"
    },
    {
      "anonymous": false,
      "inputs": [
        {
          "indexed": true,
          "internalType": "address",
          "name": "operator",
          "type": "address"
        },
        {
          "indexed": true,
          "internalType": "address",
          "name": "from",
          "type": "address"
        },
        {
          "indexed": true,
          "internalType": "address",
          "name": "to",
          "type": "address"
        },
        {
          "indexed": false,
          "internalType": "uint256[]",
          "name": "ids",
          "type": "uint256[]"
        },
        {
          "indexed": false,
          "internalType": "uint256[]",
          "name": "values",
          "type": "uint256[]"
        }
      ],
      "name": "TransferBatch",
      "type": "event"
    },
    {
      "anonymous": false,
      "inputs": [
        {
          "indexed": true,
          "internalType": "address",
          "name": "operator",
          "type": "address"
        },
        {
          "indexed": true,
          "internalType": "address",
          "name": "from",
          "type": "address"
        },
        {
          "indexed": true,
          "internalType": "address",
          "name": "to",
          "type": "address"
        },
        {
          "indexed": false,
          "internalType": "uint256",
          "name": "id",
          "type": "uint256"
        },
        {
          "indexed": false,
          "internalType": "uint256",
          "name": "value",
          "type": "uint256"
        }
      ],
      "name": "TransferSingle",
      "type": "event"
    },
    {
      "anonymous": false,
      "inputs": [
        {
          "indexed": false,
          "internalType": "string",
          "name": "value",
          "type": "string"
        },
        {
          "indexed": true,
          "internalType": "uint256",
          "name": "id",
          "type": "uint256"
        }
      ],
      "name": "URI",
      "type": "event"
    },
    {
      "inputs": [],
      "name": "INTERFACE_ID_ERC2981",
      "outputs": [
        {
          "internalType": "bytes4",
          "name": "",
          "type": "bytes4"
        }
      ],
      "stateMutability": "view",
      "type": "function"
    },
    {
      "inputs": [
        {
          "internalType": "address",
          "name": "account",
          "type": "address"
        },
        {
          "internalType": "uint256",
          "name": "id",
          "type": "uint256"
        },
        {
          "internalType": "uint256",
          "name": "girlId",
          "type": "uint256"
        }
      ],
      "name": "attune",
      "outputs": [],
      "stateMutability": "nonpayable",
      "type": "function"
    },
    {
      "inputs": [],
      "name": "attunement",
      "outputs": [
        {
          "internalType": "contract IAttunement",
          "name": "",
          "type": "address"
        }
      ],
      "stateMutability": "view",
      "type": "function"
    },
    {
      "inputs": [
        {
          "internalType": "address",
          "name": "account",
          "type": "address"
        },
        {
          "internalType": "uint256",
          "name": "id",
          "type": "uint256"
        }
      ],
      "name": "balanceOf",
      "outputs": [
        {
          "internalType": "uint256",
          "name": "",
          "type": "uint256"
        }
      ],
      "stateMutability": "view",
      "type": "function"
    },
    {
      "inputs": [
        {
          "internalType": "address[]",
          "name": "accounts",
          "type": "address[]"
        },
        {
          "internalType": "uint256[]",
          "name": "ids",
          "type": "uint256[]"
        }
      ],
      "name": "balanceOfBatch",
      "outputs": [
        {
          "internalType": "uint256[]",
          "name": "",
          "type": "uint256[]"
        }
      ],
      "stateMutability": "view",
      "type": "function"
    },
    {
      "inputs": [],
      "name": "baseURI",
      "outputs": [
        {
          "internalType": "string",
          "name": "",
          "type": "string"
        }
      ],
      "stateMutability": "view",
      "type": "function"
    },
    {
      "inputs": [
        {
          "internalType": "address",
          "name": "account",
          "type": "address"
        },
        {
          "internalType": "uint256",
          "name": "id",
          "type": "uint256"
        },
        {
          "internalType": "uint256",
          "name": "value",
          "type": "uint256"
        }
      ],
      "name": "burn",
      "outputs": [],
      "stateMutability": "nonpayable",
      "type": "function"
    },
    {
      "inputs": [
        {
          "internalType": "address",
          "name": "account",
          "type": "address"
        },
        {
          "internalType": "uint256[]",
          "name": "ids",
          "type": "uint256[]"
        },
        {
          "internalType": "uint256[]",
          "name": "values",
          "type": "uint256[]"
        }
      ],
      "name": "burnBatch",
      "outputs": [],
      "stateMutability": "nonpayable",
      "type": "function"
    },
    {
      "inputs": [
        {
          "internalType": "uint256",
          "name": "",
          "type": "uint256"
        }
      ],
      "name": "elementString",
      "outputs": [
        {
          "internalType": "string",
          "name": "",
          "type": "string"
        }
      ],
      "stateMutability": "view",
      "type": "function"
    },
    {
      "inputs": [
        {
          "internalType": "uint256",
          "name": "id",
          "type": "uint256"
        }
      ],
      "name": "exists",
      "outputs": [
        {
          "internalType": "bool",
          "name": "",
          "type": "bool"
        }
      ],
      "stateMutability": "view",
      "type": "function"
    },
    {
      "inputs": [
        {
          "internalType": "address",
          "name": "_user",
          "type": "address"
        }
      ],
      "name": "getWalletBalance",
      "outputs": [
        {
          "internalType": "uint256[]",
          "name": "",
          "type": "uint256[]"
        }
      ],
      "stateMutability": "view",
      "type": "function"
    },
    {
      "inputs": [],
      "name": "girl",
      "outputs": [
        {
          "internalType": "contract IGirl",
          "name": "",
          "type": "address"
        }
      ],
      "stateMutability": "view",
      "type": "function"
    },
    {
      "inputs": [
        {
          "internalType": "address",
          "name": "account",
          "type": "address"
        },
        {
          "internalType": "address",
          "name": "operator",
          "type": "address"
        }
      ],
      "name": "isApprovedForAll",
      "outputs": [
        {
          "internalType": "bool",
          "name": "",
          "type": "bool"
        }
      ],
      "stateMutability": "view",
      "type": "function"
    },
    {
      "inputs": [
        {
          "internalType": "address",
          "name": "",
          "type": "address"
        }
      ],
      "name": "isGachaMachine",
      "outputs": [
        {
          "internalType": "bool",
          "name": "",
          "type": "bool"
        }
      ],
      "stateMutability": "view",
      "type": "function"
    },
    {
      "inputs": [
        {
          "internalType": "address",
          "name": "account",
          "type": "address"
        },
        {
          "internalType": "uint256",
          "name": "id",
          "type": "uint256"
        },
        {
          "internalType": "uint256",
          "name": "amount",
          "type": "uint256"
        }
      ],
      "name": "mint",
      "outputs": [],
      "stateMutability": "nonpayable",
      "type": "function"
    },
    {
      "inputs": [
        {
          "internalType": "address",
          "name": "_to",
          "type": "address"
        }
      ],
      "name": "mintDev",
      "outputs": [],
      "stateMutability": "nonpayable",
      "type": "function"
    },
    {
      "inputs": [],
      "name": "owner",
      "outputs": [
        {
          "internalType": "address",
          "name": "",
          "type": "address"
        }
      ],
      "stateMutability": "view",
      "type": "function"
    },
    {
      "inputs": [],
      "name": "renounceOwnership",
      "outputs": [],
      "stateMutability": "nonpayable",
      "type": "function"
    },
    {
      "inputs": [
        {
          "internalType": "uint256",
          "name": "_tokenId",
          "type": "uint256"
        },
        {
          "internalType": "uint256",
          "name": "_salePrice",
          "type": "uint256"
        }
      ],
      "name": "royaltyInfo",
      "outputs": [
        {
          "internalType": "address",
          "name": "receiver",
          "type": "address"
        },
        {
          "internalType": "uint256",
          "name": "royaltyAmount",
          "type": "uint256"
        }
      ],
      "stateMutability": "view",
      "type": "function"
    },
    {
      "inputs": [
        {
          "internalType": "address",
          "name": "from",
          "type": "address"
        },
        {
          "internalType": "address",
          "name": "to",
          "type": "address"
        },
        {
          "internalType": "uint256[]",
          "name": "ids",
          "type": "uint256[]"
        },
        {
          "internalType": "uint256[]",
          "name": "amounts",
          "type": "uint256[]"
        },
        {
          "internalType": "bytes",
          "name": "data",
          "type": "bytes"
        }
      ],
      "name": "safeBatchTransferFrom",
      "outputs": [],
      "stateMutability": "nonpayable",
      "type": "function"
    },
    {
      "inputs": [
        {
          "internalType": "address",
          "name": "from",
          "type": "address"
        },
        {
          "internalType": "address",
          "name": "to",
          "type": "address"
        },
        {
          "internalType": "uint256",
          "name": "id",
          "type": "uint256"
        },
        {
          "internalType": "uint256",
          "name": "amount",
          "type": "uint256"
        },
        {
          "internalType": "bytes",
          "name": "data",
          "type": "bytes"
        }
      ],
      "name": "safeTransferFrom",
      "outputs": [],
      "stateMutability": "nonpayable",
      "type": "function"
    },
    {
      "inputs": [
        {
          "internalType": "address",
          "name": "operator",
          "type": "address"
        },
        {
          "internalType": "bool",
          "name": "approved",
          "type": "bool"
        }
      ],
      "name": "setApprovalForAll",
      "outputs": [],
      "stateMutability": "nonpayable",
      "type": "function"
    },
    {
      "inputs": [
        {
          "internalType": "address",
          "name": "_contract",
          "type": "address"
        }
      ],
      "name": "setAttunementContract",
      "outputs": [],
      "stateMutability": "nonpayable",
      "type": "function"
    },
    {
      "inputs": [
        {
          "internalType": "string",
          "name": "newBaseURI",
          "type": "string"
        }
      ],
      "name": "setBaseURI",
      "outputs": [],
      "stateMutability": "nonpayable",
      "type": "function"
    },
    {
      "inputs": [
        {
          "internalType": "address",
          "name": "_contract",
          "type": "address"
        }
      ],
      "name": "setGachaMachineContract",
      "outputs": [],
      "stateMutability": "nonpayable",
      "type": "function"
    },
    {
      "inputs": [
        {
          "internalType": "address",
          "name": "_girl",
          "type": "address"
        }
      ],
      "name": "setGirlContract",
      "outputs": [],
      "stateMutability": "nonpayable",
      "type": "function"
    },
    {
      "inputs": [
        {
          "internalType": "address",
          "name": "newRecipient",
          "type": "address"
        }
      ],
      "name": "setRoyalties",
      "outputs": [],
      "stateMutability": "nonpayable",
      "type": "function"
    },
    {
      "inputs": [
        {
          "internalType": "uint256",
          "name": "newCount",
          "type": "uint256"
        }
      ],
      "name": "setTokenCount",
      "outputs": [],
      "stateMutability": "nonpayable",
      "type": "function"
    },
    {
      "inputs": [
        {
          "internalType": "uint256",
          "name": "id",
          "type": "uint256"
        },
        {
          "internalType": "uint256",
          "name": "girlId",
          "type": "uint256"
        }
      ],
      "name": "stake",
      "outputs": [],
      "stateMutability": "nonpayable",
      "type": "function"
    },
    {
      "inputs": [
        {
          "internalType": "bytes4",
          "name": "interfaceId",
          "type": "bytes4"
        }
      ],
      "name": "supportsInterface",
      "outputs": [
        {
          "internalType": "bool",
          "name": "",
          "type": "bool"
        }
      ],
      "stateMutability": "view",
      "type": "function"
    },
    {
      "inputs": [],
      "name": "tokenCount",
      "outputs": [
        {
          "internalType": "uint256",
          "name": "",
          "type": "uint256"
        }
      ],
      "stateMutability": "view",
      "type": "function"
    },
    {
      "inputs": [
        {
          "internalType": "uint256",
          "name": "id",
          "type": "uint256"
        }
      ],
      "name": "totalSupply",
      "outputs": [
        {
          "internalType": "uint256",
          "name": "",
          "type": "uint256"
        }
      ],
      "stateMutability": "view",
      "type": "function"
    },
    {
      "inputs": [
        {
          "internalType": "address",
          "name": "newOwner",
          "type": "address"
        }
      ],
      "name": "transferOwnership",
      "outputs": [],
      "stateMutability": "nonpayable",
      "type": "function"
    },
    {
      "inputs": [
        {
          "internalType": "uint256",
          "name": "id",
          "type": "uint256"
        },
        {
          "internalType": "uint256",
          "name": "toTier",
          "type": "uint256"
        }
      ],
      "name": "upgradeCosmicLevel",
      "outputs": [],
      "stateMutability": "nonpayable",
      "type": "function"
    },
    {
      "inputs": [
        {
          "internalType": "uint256",
          "name": "",
          "type": "uint256"
        }
      ],
      "name": "upgradeIDs",
      "outputs": [
        {
          "internalType": "uint256",
          "name": "",
          "type": "uint256"
        }
      ],
      "stateMutability": "view",
      "type": "function"
    },
    {
      "inputs": [
        {
          "internalType": "uint256",
          "name": "_tokenID",
          "type": "uint256"
        }
      ],
      "name": "uri",
      "outputs": [
        {
          "internalType": "string",
          "name": "",
          "type": "string"
        }
      ],
      "stateMutability": "view",
      "type": "function"
    }
  ],
  "bytecode": "0x6006600781905560e060405260046080908152600560a05260c0919091526200002d906008906003620003e9565b50604051806080016040528060405180602001604052806000815250815260200160405180604001604052806005815260200164466c616d6560d81b815250815260200160405180604001604052806005815260200164546572726160d81b8152508152602001604051806040016040528060048152602001634171756160e01b815250815250600a906004620000c69291906200043e565b506040805160c08101825260018152600260208201526003918101919091526004606082015260056080820152600660a082018190526200010a91600c91620003e9565b506040805160c081018252606480825260208201819052918101829052606081018290526080810182905260a08101919091526200014d90600d906006620003e9565b503480156200015b57600080fd5b50604051620038ea380380620038ea8339810160408190526200017e91620005af565b60408051808201909152601381527f54474720456c656d656e74616c2053746f6e65000000000000000000000000006020820152620001bd816200022a565b50620001c93362000243565b6001600160a01b0384166000908152600b60205260409020805460ff19166001179055620001f78362000295565b6200020282620002c1565b6200020d81620002e0565b5050600e80546001600160a01b0319163317905550620007139050565b80516200023f9060029060208401906200049e565b5050565b600480546001600160a01b038381166001600160a01b0319831681179093556040519116919082907f8be0079c531659141344cd1fd0a4f28419497f9722a3daafe3b4186f6b6457e090600090a35050565b6200029f620002f8565b600680546001600160a01b0319166001600160a01b0392909216919091179055565b620002cb620002f8565b80516200023f9060099060208401906200049e565b620002ea620002f8565b620002f5816200035a565b50565b6004546001600160a01b03163314620003585760405162461bcd60e51b815260206004820181905260248201527f4f776e61626c653a2063616c6c6572206973206e6f7420746865206f776e657260448201526064015b60405180910390fd5b565b6001600160a01b038116620003c75760405162461bcd60e51b815260206004820152602c60248201527f526f79616c746965733a206e657720726563697069656e74206973207468652060448201526b7a65726f206164647265737360a01b60648201526084016200034f565b600e80546001600160a01b0319166001600160a01b0392909216919091179055565b8280548282559060005260206000209081019282156200042c579160200282015b828111156200042c578251829060ff169055916020019190600101906200040a565b506200043a9291506200051b565b5090565b82805482825590600052602060002090810192821562000490579160200282015b828111156200049057825180516200047f9184916020909101906200049e565b50916020019190600101906200045f565b506200043a92915062000532565b828054620004ac90620006c0565b90600052602060002090601f016020900481019282620004d057600085556200042c565b82601f10620004eb57805160ff19168380011785556200042c565b828001600101855582156200042c579182015b828111156200042c578251825591602001919060010190620004fe565b5b808211156200043a57600081556001016200051c565b808211156200043a57600062000549828262000553565b5060010162000532565b5080546200056190620006c0565b6000825580601f1062000572575050565b601f016020900490600052602060002090810190620002f591906200051b565b80516001600160a01b0381168114620005aa57600080fd5b919050565b60008060008060808587031215620005c5578384fd5b620005d08562000592565b93506020620005e181870162000592565b60408701519094506001600160401b0380821115620005fe578485fd5b818801915088601f83011262000612578485fd5b815181811115620006275762000627620006fd565b604051601f8201601f19908116603f01168101908382118183101715620006525762000652620006fd565b816040528281528b868487010111156200066a578788fd5b8793505b828410156200068d57848401860151818501870152928501926200066e565b828411156200069e57878684830101525b809750505050505050620006b56060860162000592565b905092959194509250565b600181811c90821680620006d557607f821691505b60208210811415620006f757634e487b7160e01b600052602260045260246000fd5b50919050565b634e487b7160e01b600052604160045260246000fd5b6131c780620007236000396000f3fe608060405234801561001057600080fd5b506004361061021b5760003560e01c806355f804b311610125578063a22cb465116100ad578063e985e9c51161007c578063e985e9c514610501578063ed8ec1941461053d578063f242432a14610550578063f2fde38b14610563578063f5298aca1461057657600080fd5b8063a22cb46514610494578063a388237d146104a7578063b060dd86146104ba578063bd85b039146104e157600080fd5b80637b0472f0116100f45780637b0472f0146104415780637b435a651461045457806384eda544146104675780638da5cb5b1461047a5780639f181b5e1461048b57600080fd5b806355f804b31461040b5780636b20c4541461041e5780636c0360eb14610431578063715018a61461043957600080fd5b80632c8296f3116101a85780633c22ae5a116101775780633c22ae5a146103805780634c7b7c6f146103a35780634d683d08146103b65780634e1273f4146103c95780634f558e79146103e957600080fd5b80632c8296f3146103345780632eb2c2d6146103475780633318f1a51461035a578063348a2c3c1461036d57600080fd5b8063156e29f6116101ef578063156e29f6146102b45780631c253155146102c95780631ce57c00146102dc5780632a55205a146102ef5780632a9e63c61461032157600080fd5b8062fdd58e1461022057806301ffc9a7146102465780630e89341c146102695780630f3b899b14610289575b600080fd5b61023361022e366004612893565b610589565b6040519081526020015b60405180910390f35b610259610254366004612a5a565b61061f565b604051901515815260200161023d565b61027c610277366004612adf565b61064a565b60405161023d9190612d1b565b60055461029c906001600160a01b031681565b6040516001600160a01b03909116815260200161023d565b6102c76102c23660046128be565b610684565b005b6102c76102d7366004612633565b610703565b6102c76102ea3660046128be565b61072f565b6103026102fd366004612af7565b610819565b604080516001600160a01b03909316835260208301919091520161023d565b6102c761032f366004612633565b610847565b6102c7610342366004612633565b61085b565b6102c76103553660046126a3565b61091e565b60065461029c906001600160a01b031681565b61023361037b366004612adf565b61096a565b61025961038e366004612633565b600b6020526000908152604090205460ff1681565b6102c76103b1366004612af7565b61098b565b61027c6103c4366004612adf565b610cf0565b6103dc6103d73660046128f2565b610d9c565b60405161023d9190612ce3565b6102596103f7366004612adf565b600090815260036020526040902054151590565b6102c7610419366004612a92565b610efd565b6102c761042c3660046127b2565b610f1c565b61027c610f5f565b6102c7610f6c565b6102c761044f366004612af7565b610f80565b6102c7610462366004612adf565b611237565b6102c7610475366004612633565b611244565b6004546001600160a01b031661029c565b61023360075481565b6102c76104a2366004612824565b61126e565b6102c76104b5366004612633565b611279565b6104c863152a902d60e11b81565b6040516001600160e01b0319909116815260200161023d565b6102336104ef366004612adf565b60009081526003602052604090205490565b61025961050f36600461266b565b6001600160a01b03918216600090815260016020908152604080832093909416825291909152205460ff1690565b6103dc61054b366004612633565b6112a3565b6102c761055e36600461274c565b611359565b6102c7610571366004612633565b61139e565b6102c76105843660046128be565b611414565b60006001600160a01b0383166105f95760405162461bcd60e51b815260206004820152602a60248201527f455243313135353a2061646472657373207a65726f206973206e6f742061207660448201526930b634b21037bbb732b960b11b60648201526084015b60405180910390fd5b506000908152602081815260408083206001600160a01b03949094168352929052205490565b60006001600160e01b0319821663152a902d60e11b1480610644575061064482611457565b92915050565b60606000610657836114a7565b905060098160405160200161066d929190612b9a565b604051602081830303815290604052915050919050565b336000908152600b602052604090205460ff166106e35760405162461bcd60e51b815260206004820152601b60248201527f4f6e6c79206761636861206d616368696e652063616e206d696e74000000000060448201526064016105f0565b6106fe83838360405180602001604052806000815250611549565b505050565b61070b611629565b6001600160a01b03166000908152600b60205260409020805460ff19166001179055565b6005546001600160a01b031633146107895760405162461bcd60e51b815260206004820152601a60248201527f4f6e6c7920617474756e656d656e742063616e20617474756e6500000000000060448201526064016105f0565b6107af83610798846003612f86565b600160405180602001604052806000815250611549565b600654604051633f1ed70960e01b815260048101839052600060248201526001600160a01b0390911690633f1ed70990604401600060405180830381600087803b1580156107fc57600080fd5b505af1158015610810573d6000803e3d6000fd5b50505050505050565b600e546001600160a01b031660006064610834846006612fbe565b61083e9190612f9e565b90509250929050565b61084f611629565b61085881611683565b50565b610863611629565b61085881600c8054806020026020016040519081016040528092919081815260200182805480156108b357602002820191906000526020600020905b81548152602001906001019080831161089f575b5050505050600d80548060200260200160405190810160405280929190818152602001828054801561090457602002820191906000526020600020905b8154815260200190600101908083116108f0575b505050505060405180602001604052806000815250611710565b6001600160a01b03851633148061093a575061093a853361050f565b6109565760405162461bcd60e51b81526004016105f090612dba565b6109638585858585611886565b5050505050565b6008818154811061097a57600080fd5b600091825260209091200154905081565b600654604051631fba62cb60e11b815260048101849052602481018390526000916001600160a01b031690633f74c5969060440160006040518083038186803b1580156109d757600080fd5b505afa1580156109eb573d6000803e3d6000fd5b505050506040513d6000823e601f3d908101601f19168201604052610a1391908101906129be565b905080600081518110610a3657634e487b7160e01b600052603260045260246000fd5b6020026020010151610a49336004610589565b10158015610a89575080600181518110610a7357634e487b7160e01b600052603260045260246000fd5b6020026020010151610a86336005610589565b10155b8015610ac7575080600281518110610ab157634e487b7160e01b600052603260045260246000fd5b6020026020010151610ac4336006610589565b10155b610b135760405162461bcd60e51b815260206004820152601a60248201527f557067726164653a206e6f7420656e6f7567682073746f6e657300000000000060448201526064016105f0565b6006546040516331a9108f60e11b81526004810185905233916001600160a01b031690636352211e9060240160206040518083038186803b158015610b5757600080fd5b505afa158015610b6b573d6000803e3d6000fd5b505050506040513d601f19601f82011682018060405250810190610b8f919061264f565b6001600160a01b031614610bf15760405162461bcd60e51b815260206004820152602360248201527f456c656d656e74616c3a20757067726164652063616c6c6572206e6f74206f776044820152623732b960e91b60648201526084016105f0565b610c4c336008805480602002602001604051908101604052809291908181526020018280548015610c4157602002820191906000526020600020905b815481526020019060010190808311610c2d575b505050505083610f1c565b600654604051636aa5dd7160e01b815260048101859052602481018490526001600160a01b0390911690636aa5dd7190604401600060405180830381600087803b158015610c9957600080fd5b505af1158015610cad573d6000803e3d6000fd5b505060408051868152602081018690527f549cdf5da15129b72a0feab3af971de93f43bae8c4c308abca039291e66e1afe935001905060405180910390a1505050565b600a8181548110610d0057600080fd5b906000526020600020016000915090508054610d1b90613009565b80601f0160208091040260200160405190810160405280929190818152602001828054610d4790613009565b8015610d945780601f10610d6957610100808354040283529160200191610d94565b820191906000526020600020905b815481529060010190602001808311610d7757829003601f168201915b505050505081565b60608151835114610e015760405162461bcd60e51b815260206004820152602960248201527f455243313135353a206163636f756e747320616e6420696473206c656e677468604482015268040dad2e6dac2e8c6d60bb1b60648201526084016105f0565b600083516001600160401b03811115610e2a57634e487b7160e01b600052604160045260246000fd5b604051908082528060200260200182016040528015610e53578160200160208202803683370190505b50905060005b8451811015610ef557610eba858281518110610e8557634e487b7160e01b600052603260045260246000fd5b6020026020010151858381518110610ead57634e487b7160e01b600052603260045260246000fd5b6020026020010151610589565b828281518110610eda57634e487b7160e01b600052603260045260246000fd5b6020908102919091010152610eee81613070565b9050610e59565b509392505050565b610f05611629565b8051610f189060099060208401906124a3565b5050565b6001600160a01b038316331480610f385750610f38833361050f565b610f545760405162461bcd60e51b81526004016105f090612dba565b6106fe838383611a4c565b60098054610d1b90613009565b610f74611629565b610f7e6000611c06565b565b60018210158015610f92575060038211155b610fec5760405162461bcd60e51b815260206004820152602560248201527f45533a206f6e6c7920646f726d616e742073746f6e65732063616e20626520736044820152641d185ad95960da1b60648201526084016105f0565b600654604051630814786760e31b815260048101839052600091829182916001600160a01b0316906340a3c3389060240160606040518083038186803b15801561103557600080fd5b505afa158015611049573d6000803e3d6000fd5b505050506040513d601f19601f8201168201806040525081019061106d9190612851565b91945092509050336001600160a01b038416146110d85760405162461bcd60e51b815260206004820152602360248201527f45533a2063616e7420706169722077697468206769726c2e2e206e6f74206f776044820152623732b960e91b60648201526084016105f0565b81156111265760405162461bcd60e51b815260206004820152601b60248201527f45533a206769726c20697320616c7265616479207374616b696e67000000000060448201526064016105f0565b61115833600560009054906101000a90046001600160a01b031687600160405180602001604052806000815250611359565b600554604051636ea3404b60e11b8152336004820152602481018790526044810186905282871460648201526001600160a01b039091169063dd46809690608401600060405180830381600087803b1580156111b357600080fd5b505af11580156111c7573d6000803e3d6000fd5b5050600654604051633f1ed70960e01b815260048101889052600160248201526001600160a01b039091169250633f1ed7099150604401600060405180830381600087803b15801561121857600080fd5b505af115801561122c573d6000803e3d6000fd5b505050505050505050565b61123f611629565b600755565b61124c611629565b600680546001600160a01b0319166001600160a01b0392909216919091179055565b610f18338383611c58565b611281611629565b600580546001600160a01b0319166001600160a01b0392909216919091179055565b606060006007546001600160401b038111156112cf57634e487b7160e01b600052604160045260246000fd5b6040519080825280602002602001820160405280156112f8578160200160208202803683370190505b50905060005b600754811015611352576113178461022e836001612f86565b82828151811061133757634e487b7160e01b600052603260045260246000fd5b602090810291909101015261134b81613070565b90506112fe565b5092915050565b6001600160a01b0385163314806113755750611375853361050f565b6113915760405162461bcd60e51b81526004016105f090612dba565b6109638585858585611d39565b6113a6611629565b6001600160a01b03811661140b5760405162461bcd60e51b815260206004820152602660248201527f4f776e61626c653a206e6577206f776e657220697320746865207a65726f206160448201526564647265737360d01b60648201526084016105f0565b61085881611c06565b6001600160a01b0383163314806114305750611430833361050f565b61144c5760405162461bcd60e51b81526004016105f090612dba565b6106fe838383611e66565b60006001600160e01b03198216636cdb3d1360e11b148061148857506001600160e01b031982166303a24d0760e21b145b8061064457506301ffc9a760e01b6001600160e01b0319831614610644565b606060006114b483611f7e565b60010190506000816001600160401b038111156114e157634e487b7160e01b600052604160045260246000fd5b6040519080825280601f01601f19166020018201604052801561150b576020820181803683370190505b5090508181016020015b600019016f181899199a1a9b1b9c1cb0b131b232b360811b600a86061a8153600a850494508461154457610ef5565b611515565b6001600160a01b03841661156f5760405162461bcd60e51b81526004016105f090612f22565b33600061157b85612056565b9050600061158885612056565b9050611599836000898585896120af565b6000868152602081815260408083206001600160a01b038b168452909152812080548792906115c9908490612f86565b909155505060408051878152602081018790526001600160a01b03808a1692600092918716917fc3d58168c5ae7397731d063d5bbf3d657854427343f4c083240f7aacaa2d0f62910160405180910390a4610810836000898989896120bd565b6004546001600160a01b03163314610f7e5760405162461bcd60e51b815260206004820181905260248201527f4f776e61626c653a2063616c6c6572206973206e6f7420746865206f776e657260448201526064016105f0565b6001600160a01b0381166116ee5760405162461bcd60e51b815260206004820152602c60248201527f526f79616c746965733a206e657720726563697069656e74206973207468652060448201526b7a65726f206164647265737360a01b60648201526084016105f0565b600e80546001600160a01b0319166001600160a01b0392909216919091179055565b6001600160a01b0384166117365760405162461bcd60e51b81526004016105f090612f22565b81518351146117575760405162461bcd60e51b81526004016105f090612eda565b33611767816000878787876120af565b60005b845181101561181e5783818151811061179357634e487b7160e01b600052603260045260246000fd5b60200260200101516000808784815181106117be57634e487b7160e01b600052603260045260246000fd5b602002602001015181526020019081526020016000206000886001600160a01b03166001600160a01b0316815260200190815260200160002060008282546118069190612f86565b9091555081905061181681613070565b91505061176a565b50846001600160a01b031660006001600160a01b0316826001600160a01b03167f4a39dc06d4c0dbc64b70af90fd698a233a518aa5d07e595d983b8c0526c8f7fb878760405161186f929190612cf6565b60405180910390a461096381600087878787612228565b81518351146118a75760405162461bcd60e51b81526004016105f090612eda565b6001600160a01b0384166118cd5760405162461bcd60e51b81526004016105f090612e08565b336118dc8187878787876120af565b60005b84518110156119de57600085828151811061190a57634e487b7160e01b600052603260045260246000fd5b60200260200101519050600085838151811061193657634e487b7160e01b600052603260045260246000fd5b602090810291909101810151600084815280835260408082206001600160a01b038e1683529093529190912054909150818110156119865760405162461bcd60e51b81526004016105f090612e90565b6000838152602081815260408083206001600160a01b038e8116855292528083208585039055908b168252812080548492906119c3908490612f86565b92505081905550505050806119d790613070565b90506118df565b50846001600160a01b0316866001600160a01b0316826001600160a01b03167f4a39dc06d4c0dbc64b70af90fd698a233a518aa5d07e595d983b8c0526c8f7fb8787604051611a2e929190612cf6565b60405180910390a4611a44818787878787612228565b505050505050565b6001600160a01b038316611a725760405162461bcd60e51b81526004016105f090612e4d565b8051825114611a935760405162461bcd60e51b81526004016105f090612eda565b6000339050611ab6818560008686604051806020016040528060008152506120af565b60005b8351811015611b97576000848281518110611ae457634e487b7160e01b600052603260045260246000fd5b602002602001015190506000848381518110611b1057634e487b7160e01b600052603260045260246000fd5b602090810291909101810151600084815280835260408082206001600160a01b038c168352909352919091205490915081811015611b605760405162461bcd60e51b81526004016105f090612d76565b6000928352602083815260408085206001600160a01b038b1686529091529092209103905580611b8f81613070565b915050611ab9565b5060006001600160a01b0316846001600160a01b0316826001600160a01b03167f4a39dc06d4c0dbc64b70af90fd698a233a518aa5d07e595d983b8c0526c8f7fb8686604051611be8929190612cf6565b60405180910390a46040805160208101909152600090525b50505050565b600480546001600160a01b038381166001600160a01b0319831681179093556040519116919082907f8be0079c531659141344cd1fd0a4f28419497f9722a3daafe3b4186f6b6457e090600090a35050565b816001600160a01b0316836001600160a01b03161415611ccc5760405162461bcd60e51b815260206004820152602960248201527f455243313135353a2073657474696e6720617070726f76616c20737461747573604482015268103337b91039b2b63360b91b60648201526084016105f0565b6001600160a01b03838116600081815260016020908152604080832094871680845294825291829020805460ff191686151590811790915591519182527f17307eab39ab6107e8899845ad3d59bd9653f200f220920489ca2b5937696c31910160405180910390a3505050565b6001600160a01b038416611d5f5760405162461bcd60e51b81526004016105f090612e08565b336000611d6b85612056565b90506000611d7885612056565b9050611d888389898585896120af565b6000868152602081815260408083206001600160a01b038c16845290915290205485811015611dc95760405162461bcd60e51b81526004016105f090612e90565b6000878152602081815260408083206001600160a01b038d8116855292528083208985039055908a16825281208054889290611e06908490612f86565b909155505060408051888152602081018890526001600160a01b03808b16928c821692918816917fc3d58168c5ae7397731d063d5bbf3d657854427343f4c083240f7aacaa2d0f62910160405180910390a461122c848a8a8a8a8a6120bd565b6001600160a01b038316611e8c5760405162461bcd60e51b81526004016105f090612e4d565b336000611e9884612056565b90506000611ea584612056565b9050611ec5838760008585604051806020016040528060008152506120af565b6000858152602081815260408083206001600160a01b038a16845290915290205484811015611f065760405162461bcd60e51b81526004016105f090612d76565b6000868152602081815260408083206001600160a01b038b81168086529184528285208a8703905582518b81529384018a90529092908816917fc3d58168c5ae7397731d063d5bbf3d657854427343f4c083240f7aacaa2d0f62910160405180910390a4604080516020810190915260009052610810565b60008072184f03e93ff9f4daa797ed6e38ed64bf6a1f0160401b8310611fbd5772184f03e93ff9f4daa797ed6e38ed64bf6a1f0160401b830492506040015b6d04ee2d6d415b85acef81000000008310611fe9576d04ee2d6d415b85acef8100000000830492506020015b662386f26fc10000831061200757662386f26fc10000830492506010015b6305f5e100831061201f576305f5e100830492506008015b612710831061203357612710830492506004015b60648310612045576064830492506002015b600a83106106445760010192915050565b6040805160018082528183019092526060916000919060208083019080368337019050509050828160008151811061209e57634e487b7160e01b600052603260045260246000fd5b602090810291909101015292915050565b611a448686868686866122f2565b6001600160a01b0384163b15611a445760405163f23a6e6160e01b81526001600160a01b0385169063f23a6e61906121019089908990889088908890600401612c9e565b602060405180830381600087803b15801561211b57600080fd5b505af192505050801561214b575060408051601f3d908101601f1916820190925261214891810190612a76565b60015b6121f8576121576130b7565b806308c379a01415612191575061216c6130cf565b806121775750612193565b8060405162461bcd60e51b81526004016105f09190612d1b565b505b60405162461bcd60e51b815260206004820152603460248201527f455243313135353a207472616e7366657220746f206e6f6e2d455243313135356044820152732932b1b2b4bb32b91034b6b83632b6b2b73a32b960611b60648201526084016105f0565b6001600160e01b0319811663f23a6e6160e01b146108105760405162461bcd60e51b81526004016105f090612d2e565b6001600160a01b0384163b15611a445760405163bc197c8160e01b81526001600160a01b0385169063bc197c819061226c9089908990889088908890600401612c40565b602060405180830381600087803b15801561228657600080fd5b505af19250505080156122b6575060408051601f3d908101601f191682019092526122b391810190612a76565b60015b6122c2576121576130b7565b6001600160e01b0319811663bc197c8160e01b146108105760405162461bcd60e51b81526004016105f090612d2e565b6001600160a01b0385166123955760005b83518110156123935782818151811061232c57634e487b7160e01b600052603260045260246000fd5b60200260200101516003600086848151811061235857634e487b7160e01b600052603260045260246000fd5b60200260200101518152602001908152602001600020600082825461237d9190612f86565b9091555061238c905081613070565b9050612303565b505b6001600160a01b038416611a445760005b83518110156108105760008482815181106123d157634e487b7160e01b600052603260045260246000fd5b6020026020010151905060008483815181106123fd57634e487b7160e01b600052603260045260246000fd5b60200260200101519050600060036000848152602001908152602001600020549050818110156124805760405162461bcd60e51b815260206004820152602860248201527f455243313135353a206275726e20616d6f756e74206578636565647320746f74604482015267616c537570706c7960c01b60648201526084016105f0565b6000928352600360205260409092209103905561249c81613070565b90506123a6565b8280546124af90613009565b90600052602060002090601f0160209004810192826124d15760008555612517565b82601f106124ea57805160ff1916838001178555612517565b82800160010185558215612517579182015b828111156125175782518255916020019190600101906124fc565b50612523929150612527565b5090565b5b808211156125235760008155600101612528565b60006001600160401b03831115612555576125556130a1565b60405161256c601f8501601f191660200182613044565b80915083815284848401111561258157600080fd5b83836020830137600060208583010152509392505050565b600082601f8301126125a9578081fd5b813560206125b682612f63565b6040516125c38282613044565b8381528281019150858301600585901b870184018810156125e2578586fd5b855b85811015612600578135845292840192908401906001016125e4565b5090979650505050505050565b600082601f83011261261d578081fd5b61262c8383356020850161253c565b9392505050565b600060208284031215612644578081fd5b813561262c81613158565b600060208284031215612660578081fd5b815161262c81613158565b6000806040838503121561267d578081fd5b823561268881613158565b9150602083013561269881613158565b809150509250929050565b600080600080600060a086880312156126ba578081fd5b85356126c581613158565b945060208601356126d581613158565b935060408601356001600160401b03808211156126f0578283fd5b6126fc89838a01612599565b94506060880135915080821115612711578283fd5b61271d89838a01612599565b93506080880135915080821115612732578283fd5b5061273f8882890161260d565b9150509295509295909350565b600080600080600060a08688031215612763578081fd5b853561276e81613158565b9450602086013561277e81613158565b9350604086013592506060860135915060808601356001600160401b038111156127a6578182fd5b61273f8882890161260d565b6000806000606084860312156127c6578081fd5b83356127d181613158565b925060208401356001600160401b03808211156127ec578283fd5b6127f887838801612599565b9350604086013591508082111561280d578283fd5b5061281a86828701612599565b9150509250925092565b60008060408385031215612836578182fd5b823561284181613158565b915060208301356126988161316d565b600080600060608486031215612865578081fd5b835161287081613158565b60208501519093506128818161316d565b80925050604084015190509250925092565b600080604083850312156128a5578182fd5b82356128b081613158565b946020939093013593505050565b6000806000606084860312156128d2578081fd5b83356128dd81613158565b95602085013595506040909401359392505050565b60008060408385031215612904578182fd5b82356001600160401b038082111561291a578384fd5b818501915085601f83011261292d578384fd5b8135602061293a82612f63565b6040516129478282613044565b8381528281019150858301600585901b870184018b1015612966578889fd5b8896505b8487101561299157803561297d81613158565b83526001969096019591830191830161296a565b50965050860135925050808211156129a7578283fd5b506129b485828601612599565b9150509250929050565b600060208083850312156129d0578182fd5b82516001600160401b038111156129e5578283fd5b8301601f810185136129f5578283fd5b8051612a0081612f63565b604051612a0d8282613044565b8281528481019150838501600584901b85018601891015612a2c578687fd5b8694505b83851015612a4e578051835260019490940193918501918501612a30565b50979650505050505050565b600060208284031215612a6b578081fd5b813561262c8161317b565b600060208284031215612a87578081fd5b815161262c8161317b565b600060208284031215612aa3578081fd5b81356001600160401b03811115612ab8578182fd5b8201601f81018413612ac8578182fd5b612ad78482356020840161253c565b949350505050565b600060208284031215612af0578081fd5b5035919050565b60008060408385031215612b09578182fd5b50508035926020909101359150565b6000815180845260208085019450808401835b83811015612b4757815187529582019590820190600101612b2b565b509495945050505050565b60008151808452612b6a816020860160208601612fdd565b601f01601f19169290920160200192915050565b60008151612b90818560208601612fdd565b9290920192915050565b600080845482600182811c915080831680612bb657607f831692505b6020808410821415612bd657634e487b7160e01b87526022600452602487fd5b818015612bea5760018114612bfb57612c27565b60ff19861689528489019650612c27565b60008b815260209020885b86811015612c1f5781548b820152908501908301612c06565b505084890196505b505050505050612c378185612b7e565b95945050505050565b6001600160a01b0386811682528516602082015260a060408201819052600090612c6c90830186612b18565b8281036060840152612c7e8186612b18565b90508281036080840152612c928185612b52565b98975050505050505050565b6001600160a01b03868116825285166020820152604081018490526060810183905260a060808201819052600090612cd890830184612b52565b979650505050505050565b60208152600061262c6020830184612b18565b604081526000612d096040830185612b18565b8281036020840152612c378185612b18565b60208152600061262c6020830184612b52565b60208082526028908201527f455243313135353a204552433131353552656365697665722072656a656374656040820152676420746f6b656e7360c01b606082015260800190565b60208082526024908201527f455243313135353a206275726e20616d6f756e7420657863656564732062616c604082015263616e636560e01b606082015260800190565b6020808252602e908201527f455243313135353a2063616c6c6572206973206e6f7420746f6b656e206f776e60408201526d195c881bdc88185c1c1c9bdd995960921b606082015260800190565b60208082526025908201527f455243313135353a207472616e7366657220746f20746865207a65726f206164604082015264647265737360d81b606082015260800190565b60208082526023908201527f455243313135353a206275726e2066726f6d20746865207a65726f206164647260408201526265737360e81b606082015260800190565b6020808252602a908201527f455243313135353a20696e73756666696369656e742062616c616e636520666f60408201526939103a3930b739b332b960b11b606082015260800190565b60208082526028908201527f455243313135353a2069647320616e6420616d6f756e7473206c656e677468206040820152670dad2e6dac2e8c6d60c31b606082015260800190565b60208082526021908201527f455243313135353a206d696e7420746f20746865207a65726f206164647265736040820152607360f81b606082015260800190565b60006001600160401b03821115612f7c57612f7c6130a1565b5060051b60200190565b60008219821115612f9957612f9961308b565b500190565b600082612fb957634e487b7160e01b81526012600452602481fd5b500490565b6000816000190483118215151615612fd857612fd861308b565b500290565b60005b83811015612ff8578181015183820152602001612fe0565b83811115611c005750506000910152565b600181811c9082168061301d57607f821691505b6020821081141561303e57634e487b7160e01b600052602260045260246000fd5b50919050565b601f8201601f191681016001600160401b0381118282101715613069576130696130a1565b6040525050565b60006000198214156130845761308461308b565b5060010190565b634e487b7160e01b600052601160045260246000fd5b634e487b7160e01b600052604160045260246000fd5b600060033d11156130cc57600481823e5160e01c5b90565b600060443d10156130dd5790565b6040516003193d81016004833e81513d6001600160401b03816024840111818411171561310c57505050505090565b82850191508151818111156131245750505050505090565b843d870101602082850101111561313e5750505050505090565b61314d60208286010187613044565b509095945050505050565b6001600160a01b038116811461085857600080fd5b801515811461085857600080fd5b6001600160e01b03198116811461085857600080fdfea2646970667358221220bae40c3e5756e18ccf5674651d148e4f8d4e1a780f4b468fc1f0d44483131c8e64736f6c63430008040033",
  "linkReferences": {},
  "deployedLinkReferences": {}
}