{
  "_format": "hh-sol-artifact-1",
  "contractName": "ElementalStone",
  "sourceName": "contracts/Gacha/ElementalStone.sol",
  "abi": [
    {
      "inputs": [
        {
          "internalType": "address",
          "name": "_gachaMachine",
          "type": "address"
        },
        {
          "internalType": "address",
          "name": "_girl",
          "type": "address"
        }
      ],
      "stateMutability": "nonpayable",
      "type": "constructor"
    },
    {
      "anonymous": false,
      "inputs": [
        {
          "indexed": true,
          "internalType": "address",
          "name": "account",
          "type": "address"
        },
        {
          "indexed": true,
          "internalType": "address",
          "name": "operator",
          "type": "address"
        },
        {
          "indexed": false,
          "internalType": "bool",
          "name": "approved",
          "type": "bool"
        }
      ],
      "name": "ApprovalForAll",
      "type": "event"
    },
    {
      "anonymous": false,
      "inputs": [
        {
          "indexed": true,
          "internalType": "address",
          "name": "previousOwner",
          "type": "address"
        },
        {
          "indexed": true,
          "internalType": "address",
          "name": "newOwner",
          "type": "address"
        }
      ],
      "name": "OwnershipTransferred",
      "type": "event"
    },
    {
      "anonymous": false,
      "inputs": [
        {
          "indexed": true,
          "internalType": "address",
          "name": "operator",
          "type": "address"
        },
        {
          "indexed": true,
          "internalType": "address",
          "name": "from",
          "type": "address"
        },
        {
          "indexed": true,
          "internalType": "address",
          "name": "to",
          "type": "address"
        },
        {
          "indexed": false,
          "internalType": "uint256[]",
          "name": "ids",
          "type": "uint256[]"
        },
        {
          "indexed": false,
          "internalType": "uint256[]",
          "name": "values",
          "type": "uint256[]"
        }
      ],
      "name": "TransferBatch",
      "type": "event"
    },
    {
      "anonymous": false,
      "inputs": [
        {
          "indexed": true,
          "internalType": "address",
          "name": "operator",
          "type": "address"
        },
        {
          "indexed": true,
          "internalType": "address",
          "name": "from",
          "type": "address"
        },
        {
          "indexed": true,
          "internalType": "address",
          "name": "to",
          "type": "address"
        },
        {
          "indexed": false,
          "internalType": "uint256",
          "name": "id",
          "type": "uint256"
        },
        {
          "indexed": false,
          "internalType": "uint256",
          "name": "value",
          "type": "uint256"
        }
      ],
      "name": "TransferSingle",
      "type": "event"
    },
    {
      "anonymous": false,
      "inputs": [
        {
          "indexed": false,
          "internalType": "string",
          "name": "value",
          "type": "string"
        },
        {
          "indexed": true,
          "internalType": "uint256",
          "name": "id",
          "type": "uint256"
        }
      ],
      "name": "URI",
      "type": "event"
    },
    {
      "inputs": [
        {
          "internalType": "address",
          "name": "account",
          "type": "address"
        },
        {
          "internalType": "uint256",
          "name": "id",
          "type": "uint256"
        },
        {
          "internalType": "uint256",
          "name": "girlId",
          "type": "uint256"
        }
      ],
      "name": "attune",
      "outputs": [],
      "stateMutability": "nonpayable",
      "type": "function"
    },
    {
      "inputs": [],
      "name": "attunement",
      "outputs": [
        {
          "internalType": "contract IAttunement",
          "name": "",
          "type": "address"
        }
      ],
      "stateMutability": "view",
      "type": "function"
    },
    {
      "inputs": [
        {
          "internalType": "address",
          "name": "account",
          "type": "address"
        },
        {
          "internalType": "uint256",
          "name": "id",
          "type": "uint256"
        }
      ],
      "name": "balanceOf",
      "outputs": [
        {
          "internalType": "uint256",
          "name": "",
          "type": "uint256"
        }
      ],
      "stateMutability": "view",
      "type": "function"
    },
    {
      "inputs": [
        {
          "internalType": "address[]",
          "name": "accounts",
          "type": "address[]"
        },
        {
          "internalType": "uint256[]",
          "name": "ids",
          "type": "uint256[]"
        }
      ],
      "name": "balanceOfBatch",
      "outputs": [
        {
          "internalType": "uint256[]",
          "name": "",
          "type": "uint256[]"
        }
      ],
      "stateMutability": "view",
      "type": "function"
    },
    {
      "inputs": [],
      "name": "baseURI",
      "outputs": [
        {
          "internalType": "string",
          "name": "",
          "type": "string"
        }
      ],
      "stateMutability": "view",
      "type": "function"
    },
    {
      "inputs": [
        {
          "internalType": "address",
          "name": "account",
          "type": "address"
        },
        {
          "internalType": "uint256",
          "name": "id",
          "type": "uint256"
        },
        {
          "internalType": "uint256",
          "name": "value",
          "type": "uint256"
        }
      ],
      "name": "burn",
      "outputs": [],
      "stateMutability": "nonpayable",
      "type": "function"
    },
    {
      "inputs": [
        {
          "internalType": "address",
          "name": "account",
          "type": "address"
        },
        {
          "internalType": "uint256[]",
          "name": "ids",
          "type": "uint256[]"
        },
        {
          "internalType": "uint256[]",
          "name": "values",
          "type": "uint256[]"
        }
      ],
      "name": "burnBatch",
      "outputs": [],
      "stateMutability": "nonpayable",
      "type": "function"
    },
    {
      "inputs": [
        {
          "internalType": "uint256",
          "name": "",
          "type": "uint256"
        }
      ],
      "name": "elementString",
      "outputs": [
        {
          "internalType": "string",
          "name": "",
          "type": "string"
        }
      ],
      "stateMutability": "view",
      "type": "function"
    },
    {
      "inputs": [
        {
          "internalType": "uint256",
          "name": "id",
          "type": "uint256"
        }
      ],
      "name": "exists",
      "outputs": [
        {
          "internalType": "bool",
          "name": "",
          "type": "bool"
        }
      ],
      "stateMutability": "view",
      "type": "function"
    },
    {
      "inputs": [
        {
          "internalType": "address",
          "name": "_user",
          "type": "address"
        }
      ],
      "name": "getWalletBalance",
      "outputs": [
        {
          "internalType": "uint256[]",
          "name": "",
          "type": "uint256[]"
        }
      ],
      "stateMutability": "view",
      "type": "function"
    },
    {
      "inputs": [],
      "name": "girl",
      "outputs": [
        {
          "internalType": "contract IGirl",
          "name": "",
          "type": "address"
        }
      ],
      "stateMutability": "view",
      "type": "function"
    },
    {
      "inputs": [
        {
          "internalType": "address",
          "name": "account",
          "type": "address"
        },
        {
          "internalType": "address",
          "name": "operator",
          "type": "address"
        }
      ],
      "name": "isApprovedForAll",
      "outputs": [
        {
          "internalType": "bool",
          "name": "",
          "type": "bool"
        }
      ],
      "stateMutability": "view",
      "type": "function"
    },
    {
      "inputs": [
        {
          "internalType": "address",
          "name": "",
          "type": "address"
        }
      ],
      "name": "isGachaMachine",
      "outputs": [
        {
          "internalType": "bool",
          "name": "",
          "type": "bool"
        }
      ],
      "stateMutability": "view",
      "type": "function"
    },
    {
      "inputs": [],
      "name": "marketplace",
      "outputs": [
        {
          "internalType": "contract IESMarketplace",
          "name": "",
          "type": "address"
        }
      ],
      "stateMutability": "view",
      "type": "function"
    },
    {
      "inputs": [
        {
          "internalType": "address",
          "name": "account",
          "type": "address"
        }
      ],
      "name": "mint",
      "outputs": [
        {
          "internalType": "string",
          "name": "",
          "type": "string"
        }
      ],
      "stateMutability": "nonpayable",
      "type": "function"
    },
    {
      "inputs": [],
      "name": "owner",
      "outputs": [
        {
          "internalType": "address",
          "name": "",
          "type": "address"
        }
      ],
      "stateMutability": "view",
      "type": "function"
    },
    {
      "inputs": [],
      "name": "renounceOwnership",
      "outputs": [],
      "stateMutability": "nonpayable",
      "type": "function"
    },
    {
      "inputs": [
        {
          "internalType": "address",
          "name": "from",
          "type": "address"
        },
        {
          "internalType": "address",
          "name": "to",
          "type": "address"
        },
        {
          "internalType": "uint256[]",
          "name": "ids",
          "type": "uint256[]"
        },
        {
          "internalType": "uint256[]",
          "name": "amounts",
          "type": "uint256[]"
        },
        {
          "internalType": "bytes",
          "name": "data",
          "type": "bytes"
        }
      ],
      "name": "safeBatchTransferFrom",
      "outputs": [],
      "stateMutability": "nonpayable",
      "type": "function"
    },
    {
      "inputs": [
        {
          "internalType": "address",
          "name": "from",
          "type": "address"
        },
        {
          "internalType": "address",
          "name": "to",
          "type": "address"
        },
        {
          "internalType": "uint256",
          "name": "id",
          "type": "uint256"
        },
        {
          "internalType": "uint256",
          "name": "amount",
          "type": "uint256"
        },
        {
          "internalType": "bytes",
          "name": "data",
          "type": "bytes"
        }
      ],
      "name": "safeTransferFrom",
      "outputs": [],
      "stateMutability": "nonpayable",
      "type": "function"
    },
    {
      "inputs": [
        {
          "internalType": "uint256",
          "name": "id",
          "type": "uint256"
        },
        {
          "internalType": "uint256",
          "name": "price",
          "type": "uint256"
        }
      ],
      "name": "sellNFT",
      "outputs": [],
      "stateMutability": "nonpayable",
      "type": "function"
    },
    {
      "inputs": [
        {
          "internalType": "address",
          "name": "operator",
          "type": "address"
        },
        {
          "internalType": "bool",
          "name": "approved",
          "type": "bool"
        }
      ],
      "name": "setApprovalForAll",
      "outputs": [],
      "stateMutability": "nonpayable",
      "type": "function"
    },
    {
      "inputs": [
        {
          "internalType": "address",
          "name": "_contract",
          "type": "address"
        }
      ],
      "name": "setAttunementContract",
      "outputs": [],
      "stateMutability": "nonpayable",
      "type": "function"
    },
    {
      "inputs": [
        {
          "internalType": "string",
          "name": "newBaseURI",
          "type": "string"
        }
      ],
      "name": "setBaseURI",
      "outputs": [],
      "stateMutability": "nonpayable",
      "type": "function"
    },
    {
      "inputs": [
        {
          "internalType": "address",
          "name": "_contract",
          "type": "address"
        }
      ],
      "name": "setGachaMachineContract",
      "outputs": [],
      "stateMutability": "nonpayable",
      "type": "function"
    },
    {
      "inputs": [
        {
          "internalType": "address",
          "name": "_girl",
          "type": "address"
        }
      ],
      "name": "setGirlContract",
      "outputs": [],
      "stateMutability": "nonpayable",
      "type": "function"
    },
    {
      "inputs": [
        {
          "internalType": "address",
          "name": "_contract",
          "type": "address"
        }
      ],
      "name": "setMarketplaceContract",
      "outputs": [],
      "stateMutability": "nonpayable",
      "type": "function"
    },
    {
      "inputs": [
        {
          "internalType": "uint256",
          "name": "newCount",
          "type": "uint256"
        }
      ],
      "name": "setTokenCount",
      "outputs": [],
      "stateMutability": "nonpayable",
      "type": "function"
    },
    {
      "inputs": [
        {
          "internalType": "uint256",
          "name": "id",
          "type": "uint256"
        },
        {
          "internalType": "uint256",
          "name": "girlId",
          "type": "uint256"
        }
      ],
      "name": "stake",
      "outputs": [],
      "stateMutability": "nonpayable",
      "type": "function"
    },
    {
      "inputs": [
        {
          "internalType": "bytes4",
          "name": "interfaceId",
          "type": "bytes4"
        }
      ],
      "name": "supportsInterface",
      "outputs": [
        {
          "internalType": "bool",
          "name": "",
          "type": "bool"
        }
      ],
      "stateMutability": "view",
      "type": "function"
    },
    {
      "inputs": [
        {
          "internalType": "uint256",
          "name": "id",
          "type": "uint256"
        }
      ],
      "name": "totalSupply",
      "outputs": [
        {
          "internalType": "uint256",
          "name": "",
          "type": "uint256"
        }
      ],
      "stateMutability": "view",
      "type": "function"
    },
    {
      "inputs": [
        {
          "internalType": "address",
          "name": "newOwner",
          "type": "address"
        }
      ],
      "name": "transferOwnership",
      "outputs": [],
      "stateMutability": "nonpayable",
      "type": "function"
    },
    {
      "inputs": [
        {
          "internalType": "uint256",
          "name": "id",
          "type": "uint256"
        },
        {
          "internalType": "uint256",
          "name": "toTier",
          "type": "uint256"
        }
      ],
      "name": "upgradeCosmicLevel",
      "outputs": [],
      "stateMutability": "nonpayable",
      "type": "function"
    },
    {
      "inputs": [
        {
          "internalType": "uint256",
          "name": "",
          "type": "uint256"
        }
      ],
      "name": "upgradeIDs",
      "outputs": [
        {
          "internalType": "uint256",
          "name": "",
          "type": "uint256"
        }
      ],
      "stateMutability": "view",
      "type": "function"
    },
    {
      "inputs": [
        {
          "internalType": "uint256",
          "name": "_tokenID",
          "type": "uint256"
        }
      ],
      "name": "uri",
      "outputs": [
        {
          "internalType": "string",
          "name": "",
          "type": "string"
        }
      ],
      "stateMutability": "view",
      "type": "function"
    }
  ],
  "bytecode": "0x6006600881905560e060405260046080908152600560a05260c0919091526200002d906009906003620002a5565b50604051806080016040528060405180602001604052806000815250815260200160405180604001604052806005815260200164466c616d6560d81b815250815260200160405180604001604052806005815260200164546572726160d81b8152508152602001604051806040016040528060048152602001634171756160e01b815250815250600b906004620000c6929190620002fa565b50348015620000d457600080fd5b50604051620034e1380380620034e1833981016040819052620000f7916200046e565b60408051808201909152600f81526e456c656d656e74616c2053746f6e6560881b602082015262000128816200018e565b506200013433620001a7565b6001600160a01b0382166000908152600c60205260409020805460ff191660011790556200016281620001f9565b620001866040518060600160405280602e8152602001620034b3602e913962000225565b5050620004e2565b8051620001a39060029060208401906200035a565b5050565b600480546001600160a01b038381166001600160a01b0319831681179093556040519116919082907f8be0079c531659141344cd1fd0a4f28419497f9722a3daafe3b4186f6b6457e090600090a35050565b6200020362000244565b600780546001600160a01b0319166001600160a01b0392909216919091179055565b6200022f62000244565b8051620001a390600a9060208401906200035a565b6004546001600160a01b03163314620002a35760405162461bcd60e51b815260206004820181905260248201527f4f776e61626c653a2063616c6c6572206973206e6f7420746865206f776e6572604482015260640160405180910390fd5b565b828054828255906000526020600020908101928215620002e8579160200282015b82811115620002e8578251829060ff16905591602001919060010190620002c6565b50620002f6929150620003d7565b5090565b8280548282559060005260206000209081019282156200034c579160200282015b828111156200034c57825180516200033b9184916020909101906200035a565b50916020019190600101906200031b565b50620002f6929150620003ee565b8280546200036890620004a5565b90600052602060002090601f0160209004810192826200038c5760008555620002e8565b82601f10620003a757805160ff1916838001178555620002e8565b82800160010185558215620002e8579182015b82811115620002e8578251825591602001919060010190620003ba565b5b80821115620002f65760008155600101620003d8565b80821115620002f65760006200040582826200040f565b50600101620003ee565b5080546200041d90620004a5565b6000825580601f106200042e575050565b601f0160209004906000526020600020908101906200044e9190620003d7565b50565b80516001600160a01b03811681146200046957600080fd5b919050565b6000806040838503121562000481578182fd5b6200048c8362000451565b91506200049c6020840162000451565b90509250929050565b600181811c90821680620004ba57607f821691505b60208210811415620004dc57634e487b7160e01b600052602260045260246000fd5b50919050565b612fc180620004f26000396000f3fe608060405234801561001057600080fd5b50600436106102055760003560e01c80636b20c4541161011a578063a22cb465116100ad578063e985e9c51161007c578063e985e9c51461049c578063ed8ec194146104d8578063f242432a146104eb578063f2fde38b146104fe578063f5298aca1461051157600080fd5b8063a22cb46514610443578063a388237d14610456578063abc8c7af14610469578063bd85b0391461047c57600080fd5b80637b435a65116100e95780637b435a65146103f957806384eda5441461040c5780638da5cb5b1461041f57806391a48a1e1461043057600080fd5b80636b20c454146103c35780636c0360eb146103d6578063715018a6146103de5780637b0472f0146103e657600080fd5b80633318f1a51161019d5780634d683d081161016c5780634d683d08146103485780634e1273f41461035b5780634f558e791461037b57806355f804b31461039d5780636a627842146103b057600080fd5b80633318f1a5146102ec578063348a2c3c146102ff5780633c22ae5a146103125780634c7b7c6f1461033557600080fd5b80631102610e116101d95780631102610e1461029e5780631c253155146102b35780631ce57c00146102c65780632eb2c2d6146102d957600080fd5b8062fdd58e1461020a57806301ffc9a7146102305780630e89341c146102535780630f3b899b14610273575b600080fd5b61021d6102183660046126bf565b610524565b6040519081526020015b60405180910390f35b61024361023e366004612886565b6105ba565b6040519015158152602001610227565b610266610261366004612903565b61060c565b6040516102279190612b3f565b600654610286906001600160a01b031681565b6040516001600160a01b039091168152602001610227565b6102b16102ac36600461245f565b610646565b005b6102b16102c136600461245f565b610670565b6102b16102d43660046126ea565b61069c565b6102b16102e73660046124cf565b610787565b600754610286906001600160a01b031681565b61021d61030d366004612903565b6107d3565b61024361032036600461245f565b600c6020526000908152604090205460ff1681565b6102b161034336600461291b565b6107f4565b610266610356366004612903565b610aed565b61036e61036936600461271e565b610b99565b6040516102279190612b07565b610243610389366004612903565b600090815260036020526040902054151590565b6102b16103ab3660046128be565b610cfa565b6102666103be36600461245f565b610d19565b6102b16103d13660046125de565b610e5f565b610266610ea7565b6102b1610eb4565b6102b16103f436600461291b565b610ec8565b6102b1610407366004612903565b61117f565b6102b161041a36600461245f565b61118c565b6004546001600160a01b0316610286565b6102b161043e36600461291b565b6111b6565b6102b1610451366004612650565b6112c5565b6102b161046436600461245f565b6112d0565b600554610286906001600160a01b031681565b61021d61048a366004612903565b60009081526003602052604090205490565b6102436104aa366004612497565b6001600160a01b03918216600090815260016020908152604080832093909416825291909152205460ff1690565b61036e6104e636600461245f565b6112fa565b6102b16104f9366004612578565b6113b0565b6102b161050c36600461245f565b6113f5565b6102b161051f3660046126ea565b61146e565b60006001600160a01b0383166105945760405162461bcd60e51b815260206004820152602a60248201527f455243313135353a2061646472657373207a65726f206973206e6f742061207660448201526930b634b21037bbb732b960b11b60648201526084015b60405180910390fd5b506000908152602081815260408083206001600160a01b03949094168352929052205490565b60006001600160e01b03198216636cdb3d1360e11b14806105eb57506001600160e01b031982166303a24d0760e21b145b8061060657506301ffc9a760e01b6001600160e01b03198316145b92915050565b60606000610619836114b1565b9050600a8160405160200161062f9291906129be565b604051602081830303815290604052915050919050565b61064e6115d2565b600580546001600160a01b0319166001600160a01b0392909216919091179055565b6106786115d2565b6001600160a01b03166000908152600c60205260409020805460ff19166001179055565b6006546001600160a01b031633146106f65760405162461bcd60e51b815260206004820152601a60248201527f4f6e6c7920617474756e656d656e742063616e20617474756e65000000000000604482015260640161058b565b61071c83610705846003612d6a565b60016040518060200160405280600081525061162c565b600754604051633f1ed70960e01b815260048101839052600060248201526001600160a01b0390911690633f1ed709906044015b600060405180830381600087803b15801561076a57600080fd5b505af115801561077e573d6000803e3d6000fd5b50505050505050565b6001600160a01b0385163314806107a357506107a385336104aa565b6107bf5760405162461bcd60e51b815260040161058b90612b52565b6107cc8585858585611746565b5050505050565b600981815481106107e357600080fd5b600091825260209091200154905081565b600754604051631fba62cb60e11b815260048101849052602481018390526000916001600160a01b031690633f74c5969060440160006040518083038186803b15801561084057600080fd5b505afa158015610854573d6000803e3d6000fd5b505050506040513d6000823e601f3d908101601f1916820160405261087c91908101906127ea565b90508060008151811061089f57634e487b7160e01b600052603260045260246000fd5b60200260200101516108b2336004610524565b101580156108f25750806001815181106108dc57634e487b7160e01b600052603260045260246000fd5b60200260200101516108ef336005610524565b10155b801561093057508060028151811061091a57634e487b7160e01b600052603260045260246000fd5b602002602001015161092d336006610524565b10155b61097c5760405162461bcd60e51b815260206004820152601a60248201527f557067726164653a206e6f7420656e6f7567682073746f6e6573000000000000604482015260640161058b565b6007546040516331a9108f60e11b81526004810185905233916001600160a01b031690636352211e9060240160206040518083038186803b1580156109c057600080fd5b505afa1580156109d4573d6000803e3d6000fd5b505050506040513d601f19601f820116820180604052508101906109f8919061247b565b6001600160a01b031614610a5a5760405162461bcd60e51b815260206004820152602360248201527f456c656d656e74616c3a20757067726164652063616c6c6572206e6f74206f776044820152623732b960e91b606482015260840161058b565b610ab5336009805480602002602001604051908101604052809291908181526020018280548015610aaa57602002820191906000526020600020905b815481526020019060010190808311610a96575b505050505083610e5f565b600754604051636aa5dd7160e01b815260048101859052602481018490526001600160a01b0390911690636aa5dd7190604401610750565b600b8181548110610afd57600080fd5b906000526020600020016000915090508054610b1890612dd9565b80601f0160208091040260200160405190810160405280929190818152602001828054610b4490612dd9565b8015610b915780601f10610b6657610100808354040283529160200191610b91565b820191906000526020600020905b815481529060010190602001808311610b7457829003601f168201915b505050505081565b60608151835114610bfe5760405162461bcd60e51b815260206004820152602960248201527f455243313135353a206163636f756e747320616e6420696473206c656e677468604482015268040dad2e6dac2e8c6d60bb1b606482015260840161058b565b600083516001600160401b03811115610c2757634e487b7160e01b600052604160045260246000fd5b604051908082528060200260200182016040528015610c50578160200160208202803683370190505b50905060005b8451811015610cf257610cb7858281518110610c8257634e487b7160e01b600052603260045260246000fd5b6020026020010151858381518110610caa57634e487b7160e01b600052603260045260246000fd5b6020026020010151610524565b828281518110610cd757634e487b7160e01b600052603260045260246000fd5b6020908102919091010152610ceb81612e40565b9050610c56565b509392505050565b610d026115d2565b8051610d1590600a9060208401906122cf565b5050565b336000908152600c602052604090205460609060ff16610d7b5760405162461bcd60e51b815260206004820152601b60248201527f4f6e6c79206761636861206d616368696e652063616e206d696e740000000000604482015260640161058b565b6000610d85611904565b9050610da3838260016040518060200160405280600081525061162c565b600b8181548110610dc457634e487b7160e01b600052603260045260246000fd5b906000526020600020018054610dd990612dd9565b80601f0160208091040260200160405190810160405280929190818152602001828054610e0590612dd9565b8015610e525780601f10610e2757610100808354040283529160200191610e52565b820191906000526020600020905b815481529060010190602001808311610e3557829003601f168201915b5050505050915050919050565b6001600160a01b038316331480610e7b5750610e7b83336104aa565b610e975760405162461bcd60e51b815260040161058b90612b52565b610ea2838383611950565b505050565b600a8054610b1890612dd9565b610ebc6115d2565b610ec66000611b0a565b565b60018210158015610eda575060038211155b610f345760405162461bcd60e51b815260206004820152602560248201527f45533a206f6e6c7920646f726d616e742073746f6e65732063616e20626520736044820152641d185ad95960da1b606482015260840161058b565b600754604051630814786760e31b815260048101839052600091829182916001600160a01b0316906340a3c3389060240160606040518083038186803b158015610f7d57600080fd5b505afa158015610f91573d6000803e3d6000fd5b505050506040513d601f19601f82011682018060405250810190610fb5919061267d565b91945092509050336001600160a01b038416146110205760405162461bcd60e51b815260206004820152602360248201527f45533a2063616e7420706169722077697468206769726c2e2e206e6f74206f776044820152623732b960e91b606482015260840161058b565b811561106e5760405162461bcd60e51b815260206004820152601b60248201527f45533a206769726c20697320616c7265616479207374616b696e670000000000604482015260640161058b565b6110a033600660009054906101000a90046001600160a01b0316876001604051806020016040528060008152506113b0565b600654604051636ea3404b60e11b8152336004820152602481018790526044810186905282871460648201526001600160a01b039091169063dd46809690608401600060405180830381600087803b1580156110fb57600080fd5b505af115801561110f573d6000803e3d6000fd5b5050600754604051633f1ed70960e01b815260048101889052600160248201526001600160a01b039091169250633f1ed7099150604401600060405180830381600087803b15801561116057600080fd5b505af1158015611174573d6000803e3d6000fd5b505050505050505050565b6111876115d2565b600855565b6111946115d2565b600780546001600160a01b0319166001600160a01b0392909216919091179055565b670de0b6b3a76400008110156112245760405162461bcd60e51b815260206004820152602d60248201527f456c656d656e74616c2053746f6e653a207072696365206d757374206265206160448201526c74206c6561737420312041524360981b606482015260840161058b565b61125633600560009054906101000a90046001600160a01b0316846001604051806020016040528060008152506113b0565b60055460405163f779a19360e01b815233600482015260248101849052604481018390526001600160a01b039091169063f779a19390606401600060405180830381600087803b1580156112a957600080fd5b505af11580156112bd573d6000803e3d6000fd5b505050505050565b610d15338383611b5c565b6112d86115d2565b600680546001600160a01b0319166001600160a01b0392909216919091179055565b606060006008546001600160401b0381111561132657634e487b7160e01b600052604160045260246000fd5b60405190808252806020026020018201604052801561134f578160200160208202803683370190505b50905060005b6008548110156113a95761136e84610218836001612d6a565b82828151811061138e57634e487b7160e01b600052603260045260246000fd5b60209081029190910101526113a281612e40565b9050611355565b5092915050565b6001600160a01b0385163314806113cc57506113cc85336104aa565b6113e85760405162461bcd60e51b815260040161058b90612b52565b6107cc8585858585611c3d565b6113fd6115d2565b6001600160a01b0381166114625760405162461bcd60e51b815260206004820152602660248201527f4f776e61626c653a206e6577206f776e657220697320746865207a65726f206160448201526564647265737360d01b606482015260840161058b565b61146b81611b0a565b50565b6001600160a01b03831633148061148a575061148a83336104aa565b6114a65760405162461bcd60e51b815260040161058b90612b52565b610ea2838383611d6a565b6060816114d55750506040805180820190915260018152600360fc1b602082015290565b8160005b81156114ff57806114e981612e40565b91506114f89050600a83612d82565b91506114d9565b6000816001600160401b0381111561152757634e487b7160e01b600052604160045260246000fd5b6040519080825280601f01601f191660200182016040528015611551576020820181803683370190505b5090505b84156115ca57611566600183612d96565b9150611573600a86612e5b565b61157e906030612d6a565b60f81b8183815181106115a157634e487b7160e01b600052603260045260246000fd5b60200101906001600160f81b031916908160001a9053506115c3600a86612d82565b9450611555565b949350505050565b6004546001600160a01b03163314610ec65760405162461bcd60e51b815260206004820181905260248201527f4f776e61626c653a2063616c6c6572206973206e6f7420746865206f776e6572604482015260640161058b565b6001600160a01b03841661168c5760405162461bcd60e51b815260206004820152602160248201527f455243313135353a206d696e7420746f20746865207a65726f206164647265736044820152607360f81b606482015260840161058b565b33600061169885611e82565b905060006116a585611e82565b90506116b683600089858589611edb565b6000868152602081815260408083206001600160a01b038b168452909152812080548792906116e6908490612d6a565b909155505060408051878152602081018790526001600160a01b03808a1692600092918716917fc3d58168c5ae7397731d063d5bbf3d657854427343f4c083240f7aacaa2d0f62910160405180910390a461077e83600089898989611ee9565b81518351146117675760405162461bcd60e51b815260040161058b90612cff565b6001600160a01b03841661178d5760405162461bcd60e51b815260040161058b90612c2d565b3361179c818787878787611edb565b60005b845181101561189e5760008582815181106117ca57634e487b7160e01b600052603260045260246000fd5b6020026020010151905060008583815181106117f657634e487b7160e01b600052603260045260246000fd5b602090810291909101810151600084815280835260408082206001600160a01b038e1683529093529190912054909150818110156118465760405162461bcd60e51b815260040161058b90612cb5565b6000838152602081815260408083206001600160a01b038e8116855292528083208585039055908b16825281208054849290611883908490612d6a565b925050819055505050508061189790612e40565b905061179f565b50846001600160a01b0316866001600160a01b0316826001600160a01b03167f4a39dc06d4c0dbc64b70af90fd698a233a518aa5d07e595d983b8c0526c8f7fb87876040516118ee929190612b1a565b60405180910390a46112bd818787878787612054565b6000804260405160200161191a91815260200190565b60408051601f198184030181529190528051602090910120905061193f600382612e5b565b61194a906001612d6a565b91505090565b6001600160a01b0383166119765760405162461bcd60e51b815260040161058b90612c72565b80518251146119975760405162461bcd60e51b815260040161058b90612cff565b60003390506119ba81856000868660405180602001604052806000815250611edb565b60005b8351811015611a9b5760008482815181106119e857634e487b7160e01b600052603260045260246000fd5b602002602001015190506000848381518110611a1457634e487b7160e01b600052603260045260246000fd5b602090810291909101810151600084815280835260408082206001600160a01b038c168352909352919091205490915081811015611a645760405162461bcd60e51b815260040161058b90612be9565b6000928352602083815260408085206001600160a01b038b1686529091529092209103905580611a9381612e40565b9150506119bd565b5060006001600160a01b0316846001600160a01b0316826001600160a01b03167f4a39dc06d4c0dbc64b70af90fd698a233a518aa5d07e595d983b8c0526c8f7fb8686604051611aec929190612b1a565b60405180910390a46040805160208101909152600090525b50505050565b600480546001600160a01b038381166001600160a01b0319831681179093556040519116919082907f8be0079c531659141344cd1fd0a4f28419497f9722a3daafe3b4186f6b6457e090600090a35050565b816001600160a01b0316836001600160a01b03161415611bd05760405162461bcd60e51b815260206004820152602960248201527f455243313135353a2073657474696e6720617070726f76616c20737461747573604482015268103337b91039b2b63360b91b606482015260840161058b565b6001600160a01b03838116600081815260016020908152604080832094871680845294825291829020805460ff191686151590811790915591519182527f17307eab39ab6107e8899845ad3d59bd9653f200f220920489ca2b5937696c31910160405180910390a3505050565b6001600160a01b038416611c635760405162461bcd60e51b815260040161058b90612c2d565b336000611c6f85611e82565b90506000611c7c85611e82565b9050611c8c838989858589611edb565b6000868152602081815260408083206001600160a01b038c16845290915290205485811015611ccd5760405162461bcd60e51b815260040161058b90612cb5565b6000878152602081815260408083206001600160a01b038d8116855292528083208985039055908a16825281208054889290611d0a908490612d6a565b909155505060408051888152602081018890526001600160a01b03808b16928c821692918816917fc3d58168c5ae7397731d063d5bbf3d657854427343f4c083240f7aacaa2d0f62910160405180910390a4611174848a8a8a8a8a611ee9565b6001600160a01b038316611d905760405162461bcd60e51b815260040161058b90612c72565b336000611d9c84611e82565b90506000611da984611e82565b9050611dc983876000858560405180602001604052806000815250611edb565b6000858152602081815260408083206001600160a01b038a16845290915290205484811015611e0a5760405162461bcd60e51b815260040161058b90612be9565b6000868152602081815260408083206001600160a01b038b81168086529184528285208a8703905582518b81529384018a90529092908816917fc3d58168c5ae7397731d063d5bbf3d657854427343f4c083240f7aacaa2d0f62910160405180910390a460408051602081019091526000905261077e565b60408051600180825281830190925260609160009190602080830190803683370190505090508281600081518110611eca57634e487b7160e01b600052603260045260246000fd5b602090810291909101015292915050565b6112bd86868686868661211e565b6001600160a01b0384163b156112bd5760405163f23a6e6160e01b81526001600160a01b0385169063f23a6e6190611f2d9089908990889088908890600401612ac2565b602060405180830381600087803b158015611f4757600080fd5b505af1925050508015611f77575060408051601f3d908101601f19168201909252611f74918101906128a2565b60015b61202457611f83612eb1565b806308c379a01415611fbd5750611f98612ec9565b80611fa35750611fbf565b8060405162461bcd60e51b815260040161058b9190612b3f565b505b60405162461bcd60e51b815260206004820152603460248201527f455243313135353a207472616e7366657220746f206e6f6e20455243313135356044820152732932b1b2b4bb32b91034b6b83632b6b2b73a32b960611b606482015260840161058b565b6001600160e01b0319811663f23a6e6160e01b1461077e5760405162461bcd60e51b815260040161058b90612ba1565b6001600160a01b0384163b156112bd5760405163bc197c8160e01b81526001600160a01b0385169063bc197c81906120989089908990889088908890600401612a64565b602060405180830381600087803b1580156120b257600080fd5b505af19250505080156120e2575060408051601f3d908101601f191682019092526120df918101906128a2565b60015b6120ee57611f83612eb1565b6001600160e01b0319811663bc197c8160e01b1461077e5760405162461bcd60e51b815260040161058b90612ba1565b6001600160a01b0385166121c15760005b83518110156121bf5782818151811061215857634e487b7160e01b600052603260045260246000fd5b60200260200101516003600086848151811061218457634e487b7160e01b600052603260045260246000fd5b6020026020010151815260200190815260200160002060008282546121a99190612d6a565b909155506121b8905081612e40565b905061212f565b505b6001600160a01b0384166112bd5760005b835181101561077e5760008482815181106121fd57634e487b7160e01b600052603260045260246000fd5b60200260200101519050600084838151811061222957634e487b7160e01b600052603260045260246000fd5b60200260200101519050600060036000848152602001908152602001600020549050818110156122ac5760405162461bcd60e51b815260206004820152602860248201527f455243313135353a206275726e20616d6f756e74206578636565647320746f74604482015267616c537570706c7960c01b606482015260840161058b565b600092835260036020526040909220910390556122c881612e40565b90506121d2565b8280546122db90612dd9565b90600052602060002090601f0160209004810192826122fd5760008555612343565b82601f1061231657805160ff1916838001178555612343565b82800160010185558215612343579182015b82811115612343578251825591602001919060010190612328565b5061234f929150612353565b5090565b5b8082111561234f5760008155600101612354565b60006001600160401b0383111561238157612381612e9b565b604051612398601f8501601f191660200182612e14565b8091508381528484840111156123ad57600080fd5b83836020830137600060208583010152509392505050565b600082601f8301126123d5578081fd5b813560206123e282612d47565b6040516123ef8282612e14565b8381528281019150858301600585901b8701840188101561240e578586fd5b855b8581101561242c57813584529284019290840190600101612410565b5090979650505050505050565b600082601f830112612449578081fd5b61245883833560208501612368565b9392505050565b600060208284031215612470578081fd5b813561245881612f52565b60006020828403121561248c578081fd5b815161245881612f52565b600080604083850312156124a9578081fd5b82356124b481612f52565b915060208301356124c481612f52565b809150509250929050565b600080600080600060a086880312156124e6578081fd5b85356124f181612f52565b9450602086013561250181612f52565b935060408601356001600160401b038082111561251c578283fd5b61252889838a016123c5565b9450606088013591508082111561253d578283fd5b61254989838a016123c5565b9350608088013591508082111561255e578283fd5b5061256b88828901612439565b9150509295509295909350565b600080600080600060a0868803121561258f578081fd5b853561259a81612f52565b945060208601356125aa81612f52565b9350604086013592506060860135915060808601356001600160401b038111156125d2578182fd5b61256b88828901612439565b6000806000606084860312156125f2578081fd5b83356125fd81612f52565b925060208401356001600160401b0380821115612618578283fd5b612624878388016123c5565b93506040860135915080821115612639578283fd5b50612646868287016123c5565b9150509250925092565b60008060408385031215612662578182fd5b823561266d81612f52565b915060208301356124c481612f67565b600080600060608486031215612691578081fd5b835161269c81612f52565b60208501519093506126ad81612f67565b80925050604084015190509250925092565b600080604083850312156126d1578182fd5b82356126dc81612f52565b946020939093013593505050565b6000806000606084860312156126fe578081fd5b833561270981612f52565b95602085013595506040909401359392505050565b60008060408385031215612730578182fd5b82356001600160401b0380821115612746578384fd5b818501915085601f830112612759578384fd5b8135602061276682612d47565b6040516127738282612e14565b8381528281019150858301600585901b870184018b1015612792578889fd5b8896505b848710156127bd5780356127a981612f52565b835260019690960195918301918301612796565b50965050860135925050808211156127d3578283fd5b506127e0858286016123c5565b9150509250929050565b600060208083850312156127fc578182fd5b82516001600160401b03811115612811578283fd5b8301601f81018513612821578283fd5b805161282c81612d47565b6040516128398282612e14565b8281528481019150838501600584901b85018601891015612858578687fd5b8694505b8385101561287a57805183526001949094019391850191850161285c565b50979650505050505050565b600060208284031215612897578081fd5b813561245881612f75565b6000602082840312156128b3578081fd5b815161245881612f75565b6000602082840312156128cf578081fd5b81356001600160401b038111156128e4578182fd5b8201601f810184136128f4578182fd5b6115ca84823560208401612368565b600060208284031215612914578081fd5b5035919050565b6000806040838503121561292d578182fd5b50508035926020909101359150565b6000815180845260208085019450808401835b8381101561296b5781518752958201959082019060010161294f565b509495945050505050565b6000815180845261298e816020860160208601612dad565b601f01601f19169290920160200192915050565b600081516129b4818560208601612dad565b9290920192915050565b600080845482600182811c9150808316806129da57607f831692505b60208084108214156129fa57634e487b7160e01b87526022600452602487fd5b818015612a0e5760018114612a1f57612a4b565b60ff19861689528489019650612a4b565b60008b815260209020885b86811015612a435781548b820152908501908301612a2a565b505084890196505b505050505050612a5b81856129a2565b95945050505050565b6001600160a01b0386811682528516602082015260a060408201819052600090612a909083018661293c565b8281036060840152612aa2818661293c565b90508281036080840152612ab68185612976565b98975050505050505050565b6001600160a01b03868116825285166020820152604081018490526060810183905260a060808201819052600090612afc90830184612976565b979650505050505050565b602081526000612458602083018461293c565b604081526000612b2d604083018561293c565b8281036020840152612a5b818561293c565b6020815260006124586020830184612976565b6020808252602f908201527f455243313135353a2063616c6c6572206973206e6f7420746f6b656e206f776e60408201526e195c881b9bdc88185c1c1c9bdd9959608a1b606082015260800190565b60208082526028908201527f455243313135353a204552433131353552656365697665722072656a656374656040820152676420746f6b656e7360c01b606082015260800190565b60208082526024908201527f455243313135353a206275726e20616d6f756e7420657863656564732062616c604082015263616e636560e01b606082015260800190565b60208082526025908201527f455243313135353a207472616e7366657220746f20746865207a65726f206164604082015264647265737360d81b606082015260800190565b60208082526023908201527f455243313135353a206275726e2066726f6d20746865207a65726f206164647260408201526265737360e81b606082015260800190565b6020808252602a908201527f455243313135353a20696e73756666696369656e742062616c616e636520666f60408201526939103a3930b739b332b960b11b606082015260800190565b60208082526028908201527f455243313135353a2069647320616e6420616d6f756e7473206c656e677468206040820152670dad2e6dac2e8c6d60c31b606082015260800190565b60006001600160401b03821115612d6057612d60612e9b565b5060051b60200190565b60008219821115612d7d57612d7d612e6f565b500190565b600082612d9157612d91612e85565b500490565b600082821015612da857612da8612e6f565b500390565b60005b83811015612dc8578181015183820152602001612db0565b83811115611b045750506000910152565b600181811c90821680612ded57607f821691505b60208210811415612e0e57634e487b7160e01b600052602260045260246000fd5b50919050565b601f8201601f191681016001600160401b0381118282101715612e3957612e39612e9b565b6040525050565b6000600019821415612e5457612e54612e6f565b5060010190565b600082612e6a57612e6a612e85565b500690565b634e487b7160e01b600052601160045260246000fd5b634e487b7160e01b600052601260045260246000fd5b634e487b7160e01b600052604160045260246000fd5b600060033d1115612ec657600481823e5160e01c5b90565b600060443d1015612ed75790565b6040516003193d81016004833e81513d6001600160401b038160248401118184111715612f0657505050505090565b8285019150815181811115612f1e5750505050505090565b843d8701016020828501011115612f385750505050505090565b612f4760208286010187612e14565b509095945050505050565b6001600160a01b038116811461146b57600080fd5b801515811461146b57600080fd5b6001600160e01b03198116811461146b57600080fdfea26469706673582212200905e643414900c9b4ae0095a95a83826bc9166c8962bd2e46ea8165eb59ff5e64736f6c6343000804003368747470733a2f2f64617461626173652e636f6d2f656c656d656e74616c2d73746f6e652f6d657461646174612f",
  "linkReferences": {},
  "deployedLinkReferences": {}
}