{
  "_format": "hh-sol-artifact-1",
  "contractName": "ElementalStone",
  "sourceName": "contracts/Gacha/ElementalStone.sol",
  "abi": [
    {
      "inputs": [
        {
          "internalType": "address",
          "name": "_gachaMachine",
          "type": "address"
        },
        {
          "internalType": "address",
          "name": "_girl",
          "type": "address"
        }
      ],
      "stateMutability": "nonpayable",
      "type": "constructor"
    },
    {
      "anonymous": false,
      "inputs": [
        {
          "indexed": true,
          "internalType": "address",
          "name": "account",
          "type": "address"
        },
        {
          "indexed": true,
          "internalType": "address",
          "name": "operator",
          "type": "address"
        },
        {
          "indexed": false,
          "internalType": "bool",
          "name": "approved",
          "type": "bool"
        }
      ],
      "name": "ApprovalForAll",
      "type": "event"
    },
    {
      "anonymous": false,
      "inputs": [
        {
          "indexed": false,
          "internalType": "uint256",
          "name": "id",
          "type": "uint256"
        },
        {
          "indexed": false,
          "internalType": "uint256",
          "name": "toTier",
          "type": "uint256"
        }
      ],
      "name": "CosmicLevelUpgraded",
      "type": "event"
    },
    {
      "anonymous": false,
      "inputs": [
        {
          "indexed": true,
          "internalType": "address",
          "name": "previousOwner",
          "type": "address"
        },
        {
          "indexed": true,
          "internalType": "address",
          "name": "newOwner",
          "type": "address"
        }
      ],
      "name": "OwnershipTransferred",
      "type": "event"
    },
    {
      "anonymous": false,
      "inputs": [
        {
          "indexed": true,
          "internalType": "address",
          "name": "operator",
          "type": "address"
        },
        {
          "indexed": true,
          "internalType": "address",
          "name": "from",
          "type": "address"
        },
        {
          "indexed": true,
          "internalType": "address",
          "name": "to",
          "type": "address"
        },
        {
          "indexed": false,
          "internalType": "uint256[]",
          "name": "ids",
          "type": "uint256[]"
        },
        {
          "indexed": false,
          "internalType": "uint256[]",
          "name": "values",
          "type": "uint256[]"
        }
      ],
      "name": "TransferBatch",
      "type": "event"
    },
    {
      "anonymous": false,
      "inputs": [
        {
          "indexed": true,
          "internalType": "address",
          "name": "operator",
          "type": "address"
        },
        {
          "indexed": true,
          "internalType": "address",
          "name": "from",
          "type": "address"
        },
        {
          "indexed": true,
          "internalType": "address",
          "name": "to",
          "type": "address"
        },
        {
          "indexed": false,
          "internalType": "uint256",
          "name": "id",
          "type": "uint256"
        },
        {
          "indexed": false,
          "internalType": "uint256",
          "name": "value",
          "type": "uint256"
        }
      ],
      "name": "TransferSingle",
      "type": "event"
    },
    {
      "anonymous": false,
      "inputs": [
        {
          "indexed": false,
          "internalType": "string",
          "name": "value",
          "type": "string"
        },
        {
          "indexed": true,
          "internalType": "uint256",
          "name": "id",
          "type": "uint256"
        }
      ],
      "name": "URI",
      "type": "event"
    },
    {
      "inputs": [
        {
          "internalType": "address",
          "name": "account",
          "type": "address"
        },
        {
          "internalType": "uint256",
          "name": "id",
          "type": "uint256"
        },
        {
          "internalType": "uint256",
          "name": "girlId",
          "type": "uint256"
        }
      ],
      "name": "attune",
      "outputs": [],
      "stateMutability": "nonpayable",
      "type": "function"
    },
    {
      "inputs": [],
      "name": "attunement",
      "outputs": [
        {
          "internalType": "contract IAttunement",
          "name": "",
          "type": "address"
        }
      ],
      "stateMutability": "view",
      "type": "function"
    },
    {
      "inputs": [
        {
          "internalType": "address",
          "name": "account",
          "type": "address"
        },
        {
          "internalType": "uint256",
          "name": "id",
          "type": "uint256"
        }
      ],
      "name": "balanceOf",
      "outputs": [
        {
          "internalType": "uint256",
          "name": "",
          "type": "uint256"
        }
      ],
      "stateMutability": "view",
      "type": "function"
    },
    {
      "inputs": [
        {
          "internalType": "address[]",
          "name": "accounts",
          "type": "address[]"
        },
        {
          "internalType": "uint256[]",
          "name": "ids",
          "type": "uint256[]"
        }
      ],
      "name": "balanceOfBatch",
      "outputs": [
        {
          "internalType": "uint256[]",
          "name": "",
          "type": "uint256[]"
        }
      ],
      "stateMutability": "view",
      "type": "function"
    },
    {
      "inputs": [],
      "name": "baseURI",
      "outputs": [
        {
          "internalType": "string",
          "name": "",
          "type": "string"
        }
      ],
      "stateMutability": "view",
      "type": "function"
    },
    {
      "inputs": [
        {
          "internalType": "address",
          "name": "account",
          "type": "address"
        },
        {
          "internalType": "uint256",
          "name": "id",
          "type": "uint256"
        },
        {
          "internalType": "uint256",
          "name": "value",
          "type": "uint256"
        }
      ],
      "name": "burn",
      "outputs": [],
      "stateMutability": "nonpayable",
      "type": "function"
    },
    {
      "inputs": [
        {
          "internalType": "address",
          "name": "account",
          "type": "address"
        },
        {
          "internalType": "uint256[]",
          "name": "ids",
          "type": "uint256[]"
        },
        {
          "internalType": "uint256[]",
          "name": "values",
          "type": "uint256[]"
        }
      ],
      "name": "burnBatch",
      "outputs": [],
      "stateMutability": "nonpayable",
      "type": "function"
    },
    {
      "inputs": [
        {
          "internalType": "uint256",
          "name": "",
          "type": "uint256"
        }
      ],
      "name": "elementString",
      "outputs": [
        {
          "internalType": "string",
          "name": "",
          "type": "string"
        }
      ],
      "stateMutability": "view",
      "type": "function"
    },
    {
      "inputs": [
        {
          "internalType": "uint256",
          "name": "id",
          "type": "uint256"
        }
      ],
      "name": "exists",
      "outputs": [
        {
          "internalType": "bool",
          "name": "",
          "type": "bool"
        }
      ],
      "stateMutability": "view",
      "type": "function"
    },
    {
      "inputs": [
        {
          "internalType": "address",
          "name": "_user",
          "type": "address"
        }
      ],
      "name": "getWalletBalance",
      "outputs": [
        {
          "internalType": "uint256[]",
          "name": "",
          "type": "uint256[]"
        }
      ],
      "stateMutability": "view",
      "type": "function"
    },
    {
      "inputs": [],
      "name": "girl",
      "outputs": [
        {
          "internalType": "contract IGirl",
          "name": "",
          "type": "address"
        }
      ],
      "stateMutability": "view",
      "type": "function"
    },
    {
      "inputs": [
        {
          "internalType": "address",
          "name": "account",
          "type": "address"
        },
        {
          "internalType": "address",
          "name": "operator",
          "type": "address"
        }
      ],
      "name": "isApprovedForAll",
      "outputs": [
        {
          "internalType": "bool",
          "name": "",
          "type": "bool"
        }
      ],
      "stateMutability": "view",
      "type": "function"
    },
    {
      "inputs": [
        {
          "internalType": "address",
          "name": "",
          "type": "address"
        }
      ],
      "name": "isGachaMachine",
      "outputs": [
        {
          "internalType": "bool",
          "name": "",
          "type": "bool"
        }
      ],
      "stateMutability": "view",
      "type": "function"
    },
    {
      "inputs": [
        {
          "internalType": "address",
          "name": "account",
          "type": "address"
        },
        {
          "internalType": "uint256",
          "name": "id",
          "type": "uint256"
        },
        {
          "internalType": "uint256",
          "name": "amount",
          "type": "uint256"
        }
      ],
      "name": "mint",
      "outputs": [],
      "stateMutability": "nonpayable",
      "type": "function"
    },
    {
      "inputs": [
        {
          "internalType": "address",
          "name": "_to",
          "type": "address"
        }
      ],
      "name": "mintDev",
      "outputs": [],
      "stateMutability": "nonpayable",
      "type": "function"
    },
    {
      "inputs": [],
      "name": "owner",
      "outputs": [
        {
          "internalType": "address",
          "name": "",
          "type": "address"
        }
      ],
      "stateMutability": "view",
      "type": "function"
    },
    {
      "inputs": [],
      "name": "renounceOwnership",
      "outputs": [],
      "stateMutability": "nonpayable",
      "type": "function"
    },
    {
      "inputs": [
        {
          "internalType": "address",
          "name": "from",
          "type": "address"
        },
        {
          "internalType": "address",
          "name": "to",
          "type": "address"
        },
        {
          "internalType": "uint256[]",
          "name": "ids",
          "type": "uint256[]"
        },
        {
          "internalType": "uint256[]",
          "name": "amounts",
          "type": "uint256[]"
        },
        {
          "internalType": "bytes",
          "name": "data",
          "type": "bytes"
        }
      ],
      "name": "safeBatchTransferFrom",
      "outputs": [],
      "stateMutability": "nonpayable",
      "type": "function"
    },
    {
      "inputs": [
        {
          "internalType": "address",
          "name": "from",
          "type": "address"
        },
        {
          "internalType": "address",
          "name": "to",
          "type": "address"
        },
        {
          "internalType": "uint256",
          "name": "id",
          "type": "uint256"
        },
        {
          "internalType": "uint256",
          "name": "amount",
          "type": "uint256"
        },
        {
          "internalType": "bytes",
          "name": "data",
          "type": "bytes"
        }
      ],
      "name": "safeTransferFrom",
      "outputs": [],
      "stateMutability": "nonpayable",
      "type": "function"
    },
    {
      "inputs": [
        {
          "internalType": "address",
          "name": "operator",
          "type": "address"
        },
        {
          "internalType": "bool",
          "name": "approved",
          "type": "bool"
        }
      ],
      "name": "setApprovalForAll",
      "outputs": [],
      "stateMutability": "nonpayable",
      "type": "function"
    },
    {
      "inputs": [
        {
          "internalType": "address",
          "name": "_contract",
          "type": "address"
        }
      ],
      "name": "setAttunementContract",
      "outputs": [],
      "stateMutability": "nonpayable",
      "type": "function"
    },
    {
      "inputs": [
        {
          "internalType": "string",
          "name": "newBaseURI",
          "type": "string"
        }
      ],
      "name": "setBaseURI",
      "outputs": [],
      "stateMutability": "nonpayable",
      "type": "function"
    },
    {
      "inputs": [
        {
          "internalType": "address",
          "name": "_contract",
          "type": "address"
        }
      ],
      "name": "setGachaMachineContract",
      "outputs": [],
      "stateMutability": "nonpayable",
      "type": "function"
    },
    {
      "inputs": [
        {
          "internalType": "address",
          "name": "_girl",
          "type": "address"
        }
      ],
      "name": "setGirlContract",
      "outputs": [],
      "stateMutability": "nonpayable",
      "type": "function"
    },
    {
      "inputs": [
        {
          "internalType": "uint256",
          "name": "newCount",
          "type": "uint256"
        }
      ],
      "name": "setTokenCount",
      "outputs": [],
      "stateMutability": "nonpayable",
      "type": "function"
    },
    {
      "inputs": [
        {
          "internalType": "uint256",
          "name": "id",
          "type": "uint256"
        },
        {
          "internalType": "uint256",
          "name": "girlId",
          "type": "uint256"
        }
      ],
      "name": "stake",
      "outputs": [],
      "stateMutability": "nonpayable",
      "type": "function"
    },
    {
      "inputs": [
        {
          "internalType": "bytes4",
          "name": "interfaceId",
          "type": "bytes4"
        }
      ],
      "name": "supportsInterface",
      "outputs": [
        {
          "internalType": "bool",
          "name": "",
          "type": "bool"
        }
      ],
      "stateMutability": "view",
      "type": "function"
    },
    {
      "inputs": [
        {
          "internalType": "uint256",
          "name": "id",
          "type": "uint256"
        }
      ],
      "name": "totalSupply",
      "outputs": [
        {
          "internalType": "uint256",
          "name": "",
          "type": "uint256"
        }
      ],
      "stateMutability": "view",
      "type": "function"
    },
    {
      "inputs": [
        {
          "internalType": "address",
          "name": "newOwner",
          "type": "address"
        }
      ],
      "name": "transferOwnership",
      "outputs": [],
      "stateMutability": "nonpayable",
      "type": "function"
    },
    {
      "inputs": [
        {
          "internalType": "uint256",
          "name": "id",
          "type": "uint256"
        },
        {
          "internalType": "uint256",
          "name": "toTier",
          "type": "uint256"
        }
      ],
      "name": "upgradeCosmicLevel",
      "outputs": [],
      "stateMutability": "nonpayable",
      "type": "function"
    },
    {
      "inputs": [
        {
          "internalType": "uint256",
          "name": "",
          "type": "uint256"
        }
      ],
      "name": "upgradeIDs",
      "outputs": [
        {
          "internalType": "uint256",
          "name": "",
          "type": "uint256"
        }
      ],
      "stateMutability": "view",
      "type": "function"
    },
    {
      "inputs": [
        {
          "internalType": "uint256",
          "name": "_tokenID",
          "type": "uint256"
        }
      ],
      "name": "uri",
      "outputs": [
        {
          "internalType": "string",
          "name": "",
          "type": "string"
        }
      ],
      "stateMutability": "view",
      "type": "function"
    }
  ],
  "bytecode": "0x6006600781905560e060405260046080908152600560a05260c0919091526200002d9060089060036200032c565b50604051806080016040528060405180602001604052806000815250815260200160405180604001604052806005815260200164466c616d6560d81b815250815260200160405180604001604052806005815260200164546572726160d81b8152508152602001604051806040016040528060048152602001634171756160e01b815250815250600a906004620000c692919062000381565b506040805160c08101825260018152600260208201526003918101919091526004606082015260056080820152600660a082018190526200010a91600c916200032c565b506040805160c081018252600180825260208201819052918101829052606081018290526080810182905260a08101919091526200014d90600d9060066200032c565b503480156200015b57600080fd5b5060405162003599380380620035998339810160408190526200017e91620004f5565b60408051808201909152600f81526e456c656d656e74616c2053746f6e6560881b6020820152620001af8162000215565b50620001bb336200022e565b6001600160a01b0382166000908152600b60205260409020805460ff19166001179055620001e98162000280565b6200020d6040518060600160405280602e81526020016200356b602e9139620002ac565b505062000569565b80516200022a906002906020840190620003e1565b5050565b600480546001600160a01b038381166001600160a01b0319831681179093556040519116919082907f8be0079c531659141344cd1fd0a4f28419497f9722a3daafe3b4186f6b6457e090600090a35050565b6200028a620002cb565b600680546001600160a01b0319166001600160a01b0392909216919091179055565b620002b6620002cb565b80516200022a906009906020840190620003e1565b6004546001600160a01b031633146200032a5760405162461bcd60e51b815260206004820181905260248201527f4f776e61626c653a2063616c6c6572206973206e6f7420746865206f776e6572604482015260640160405180910390fd5b565b8280548282559060005260206000209081019282156200036f579160200282015b828111156200036f578251829060ff169055916020019190600101906200034d565b506200037d9291506200045e565b5090565b828054828255906000526020600020908101928215620003d3579160200282015b82811115620003d35782518051620003c2918491602090910190620003e1565b5091602001919060010190620003a2565b506200037d92915062000475565b828054620003ef906200052c565b90600052602060002090601f0160209004810192826200041357600085556200036f565b82601f106200042e57805160ff19168380011785556200036f565b828001600101855582156200036f579182015b828111156200036f57825182559160200191906001019062000441565b5b808211156200037d57600081556001016200045f565b808211156200037d5760006200048c828262000496565b5060010162000475565b508054620004a4906200052c565b6000825580601f10620004b5575050565b601f016020900490600052602060002090810190620004d591906200045e565b50565b80516001600160a01b0381168114620004f057600080fd5b919050565b6000806040838503121562000508578182fd5b6200051383620004d8565b91506200052360208401620004d8565b90509250929050565b600181811c908216806200054157607f821691505b602082108114156200056357634e487b7160e01b600052602260045260246000fd5b50919050565b612ff280620005796000396000f3fe608060405234801561001057600080fd5b50600436106101ef5760003560e01c806355f804b31161010f578063a22cb465116100a2578063ed8ec19411610071578063ed8ec1941461049c578063f242432a146104af578063f2fde38b146104c2578063f5298aca146104d557600080fd5b8063a22cb4651461041a578063a388237d1461042d578063bd85b03914610440578063e985e9c51461046057600080fd5b80637b0472f0116100de5780637b0472f0146103d05780637b435a65146103e357806384eda544146103f65780638da5cb5b1461040957600080fd5b806355f804b31461039a5780636b20c454146103ad5780636c0360eb146103c0578063715018a6146103c857600080fd5b80632eb2c2d6116101875780634c7b7c6f116101565780634c7b7c6f146103325780634d683d08146103455780634e1273f4146103585780634f558e791461037857600080fd5b80632eb2c2d6146102d65780633318f1a5146102e9578063348a2c3c146102fc5780633c22ae5a1461030f57600080fd5b8063156e29f6116101c3578063156e29f6146102885780631c2531551461029d5780631ce57c00146102b05780632c8296f3146102c357600080fd5b8062fdd58e146101f457806301ffc9a71461021a5780630e89341c1461023d5780630f3b899b1461025d575b600080fd5b6102076102023660046126fd565b6104e8565b6040519081526020015b60405180910390f35b61022d6102283660046128c4565b61057e565b6040519015158152602001610211565b61025061024b366004612949565b6105d0565b6040516102119190612b85565b600554610270906001600160a01b031681565b6040516001600160a01b039091168152602001610211565b61029b610296366004612728565b61060a565b005b61029b6102ab36600461249d565b610689565b61029b6102be366004612728565b6106b5565b61029b6102d136600461249d565b61079f565b61029b6102e436600461250d565b610865565b600654610270906001600160a01b031681565b61020761030a366004612949565b6108b1565b61022d61031d36600461249d565b600b6020526000908152604090205460ff1681565b61029b610340366004612961565b6108d2565b610250610353366004612949565b610c37565b61036b61036636600461275c565b610ce3565b6040516102119190612b4d565b61022d610386366004612949565b600090815260036020526040902054151590565b61029b6103a83660046128fc565b610e44565b61029b6103bb36600461261c565b610e63565b610250610ea6565b61029b610eb3565b61029b6103de366004612961565b610ec7565b61029b6103f1366004612949565b61117e565b61029b61040436600461249d565b61118b565b6004546001600160a01b0316610270565b61029b61042836600461268e565b6111b5565b61029b61043b36600461249d565b6111c0565b61020761044e366004612949565b60009081526003602052604090205490565b61022d61046e3660046124d5565b6001600160a01b03918216600090815260016020908152604080832093909416825291909152205460ff1690565b61036b6104aa36600461249d565b6111ea565b61029b6104bd3660046125b6565b6112a0565b61029b6104d036600461249d565b6112e5565b61029b6104e3366004612728565b61135b565b60006001600160a01b0383166105585760405162461bcd60e51b815260206004820152602a60248201527f455243313135353a2061646472657373207a65726f206973206e6f742061207660448201526930b634b21037bbb732b960b11b60648201526084015b60405180910390fd5b506000908152602081815260408083206001600160a01b03949094168352929052205490565b60006001600160e01b03198216636cdb3d1360e11b14806105af57506001600160e01b031982166303a24d0760e21b145b806105ca57506301ffc9a760e01b6001600160e01b03198316145b92915050565b606060006105dd8361139e565b90506009816040516020016105f3929190612a04565b604051602081830303815290604052915050919050565b336000908152600b602052604090205460ff166106695760405162461bcd60e51b815260206004820152601b60248201527f4f6e6c79206761636861206d616368696e652063616e206d696e740000000000604482015260640161054f565b61068483838360405180602001604052806000815250611440565b505050565b610691611520565b6001600160a01b03166000908152600b60205260409020805460ff19166001179055565b6005546001600160a01b0316331461070f5760405162461bcd60e51b815260206004820152601a60248201527f4f6e6c7920617474756e656d656e742063616e20617474756e65000000000000604482015260640161054f565b6107358361071e846003612df0565b600160405180602001604052806000815250611440565b600654604051633f1ed70960e01b815260048101839052600060248201526001600160a01b0390911690633f1ed70990604401600060405180830381600087803b15801561078257600080fd5b505af1158015610796573d6000803e3d6000fd5b50505050505050565b6107a7611520565b61086281600c8054806020026020016040519081016040528092919081815260200182805480156107f757602002820191906000526020600020905b8154815260200190600101908083116107e3575b5050505050600d80548060200260200160405190810160405280929190818152602001828054801561084857602002820191906000526020600020905b815481526020019060010190808311610834575b50505050506040518060200160405280600081525061157a565b50565b6001600160a01b0385163314806108815750610881853361046e565b61089d5760405162461bcd60e51b815260040161054f90612c24565b6108aa85858585856116f0565b5050505050565b600881815481106108c157600080fd5b600091825260209091200154905081565b600654604051631fba62cb60e11b815260048101849052602481018390526000916001600160a01b031690633f74c5969060440160006040518083038186803b15801561091e57600080fd5b505afa158015610932573d6000803e3d6000fd5b505050506040513d6000823e601f3d908101601f1916820160405261095a9190810190612828565b90508060008151811061097d57634e487b7160e01b600052603260045260246000fd5b60200260200101516109903360046104e8565b101580156109d05750806001815181106109ba57634e487b7160e01b600052603260045260246000fd5b60200260200101516109cd3360056104e8565b10155b8015610a0e5750806002815181106109f857634e487b7160e01b600052603260045260246000fd5b6020026020010151610a0b3360066104e8565b10155b610a5a5760405162461bcd60e51b815260206004820152601a60248201527f557067726164653a206e6f7420656e6f7567682073746f6e6573000000000000604482015260640161054f565b6006546040516331a9108f60e11b81526004810185905233916001600160a01b031690636352211e9060240160206040518083038186803b158015610a9e57600080fd5b505afa158015610ab2573d6000803e3d6000fd5b505050506040513d601f19601f82011682018060405250810190610ad691906124b9565b6001600160a01b031614610b385760405162461bcd60e51b815260206004820152602360248201527f456c656d656e74616c3a20757067726164652063616c6c6572206e6f74206f776044820152623732b960e91b606482015260840161054f565b610b93336008805480602002602001604051908101604052809291908181526020018280548015610b8857602002820191906000526020600020905b815481526020019060010190808311610b74575b505050505083610e63565b600654604051636aa5dd7160e01b815260048101859052602481018490526001600160a01b0390911690636aa5dd7190604401600060405180830381600087803b158015610be057600080fd5b505af1158015610bf4573d6000803e3d6000fd5b505060408051868152602081018690527f549cdf5da15129b72a0feab3af971de93f43bae8c4c308abca039291e66e1afe935001905060405180910390a1505050565b600a8181548110610c4757600080fd5b906000526020600020016000915090508054610c6290612e34565b80601f0160208091040260200160405190810160405280929190818152602001828054610c8e90612e34565b8015610cdb5780601f10610cb057610100808354040283529160200191610cdb565b820191906000526020600020905b815481529060010190602001808311610cbe57829003601f168201915b505050505081565b60608151835114610d485760405162461bcd60e51b815260206004820152602960248201527f455243313135353a206163636f756e747320616e6420696473206c656e677468604482015268040dad2e6dac2e8c6d60bb1b606482015260840161054f565b600083516001600160401b03811115610d7157634e487b7160e01b600052604160045260246000fd5b604051908082528060200260200182016040528015610d9a578160200160208202803683370190505b50905060005b8451811015610e3c57610e01858281518110610dcc57634e487b7160e01b600052603260045260246000fd5b6020026020010151858381518110610df457634e487b7160e01b600052603260045260246000fd5b60200260200101516104e8565b828281518110610e2157634e487b7160e01b600052603260045260246000fd5b6020908102919091010152610e3581612e9b565b9050610da0565b509392505050565b610e4c611520565b8051610e5f90600990602084019061230d565b5050565b6001600160a01b038316331480610e7f5750610e7f833361046e565b610e9b5760405162461bcd60e51b815260040161054f90612c24565b6106848383836118b6565b60098054610c6290612e34565b610ebb611520565b610ec56000611a70565b565b60018210158015610ed9575060038211155b610f335760405162461bcd60e51b815260206004820152602560248201527f45533a206f6e6c7920646f726d616e742073746f6e65732063616e20626520736044820152641d185ad95960da1b606482015260840161054f565b600654604051630814786760e31b815260048101839052600091829182916001600160a01b0316906340a3c3389060240160606040518083038186803b158015610f7c57600080fd5b505afa158015610f90573d6000803e3d6000fd5b505050506040513d601f19601f82011682018060405250810190610fb491906126bb565b91945092509050336001600160a01b0384161461101f5760405162461bcd60e51b815260206004820152602360248201527f45533a2063616e7420706169722077697468206769726c2e2e206e6f74206f776044820152623732b960e91b606482015260840161054f565b811561106d5760405162461bcd60e51b815260206004820152601b60248201527f45533a206769726c20697320616c7265616479207374616b696e670000000000604482015260640161054f565b61109f33600560009054906101000a90046001600160a01b0316876001604051806020016040528060008152506112a0565b600554604051636ea3404b60e11b8152336004820152602481018790526044810186905282871460648201526001600160a01b039091169063dd46809690608401600060405180830381600087803b1580156110fa57600080fd5b505af115801561110e573d6000803e3d6000fd5b5050600654604051633f1ed70960e01b815260048101889052600160248201526001600160a01b039091169250633f1ed7099150604401600060405180830381600087803b15801561115f57600080fd5b505af1158015611173573d6000803e3d6000fd5b505050505050505050565b611186611520565b600755565b611193611520565b600680546001600160a01b0319166001600160a01b0392909216919091179055565b610e5f338383611ac2565b6111c8611520565b600580546001600160a01b0319166001600160a01b0392909216919091179055565b606060006007546001600160401b0381111561121657634e487b7160e01b600052604160045260246000fd5b60405190808252806020026020018201604052801561123f578160200160208202803683370190505b50905060005b6007548110156112995761125e84610202836001612df0565b82828151811061127e57634e487b7160e01b600052603260045260246000fd5b602090810291909101015261129281612e9b565b9050611245565b5092915050565b6001600160a01b0385163314806112bc57506112bc853361046e565b6112d85760405162461bcd60e51b815260040161054f90612c24565b6108aa8585858585611ba3565b6112ed611520565b6001600160a01b0381166113525760405162461bcd60e51b815260206004820152602660248201527f4f776e61626c653a206e6577206f776e657220697320746865207a65726f206160448201526564647265737360d01b606482015260840161054f565b61086281611a70565b6001600160a01b0383163314806113775750611377833361046e565b6113935760405162461bcd60e51b815260040161054f90612c24565b610684838383611cd0565b606060006113ab83611de8565b60010190506000816001600160401b038111156113d857634e487b7160e01b600052604160045260246000fd5b6040519080825280601f01601f191660200182016040528015611402576020820181803683370190505b5090508181016020015b600019016f181899199a1a9b1b9c1cb0b131b232b360811b600a86061a8153600a850494508461143b57610e3c565b61140c565b6001600160a01b0384166114665760405162461bcd60e51b815260040161054f90612d8c565b33600061147285611ec0565b9050600061147f85611ec0565b905061149083600089858589611f19565b6000868152602081815260408083206001600160a01b038b168452909152812080548792906114c0908490612df0565b909155505060408051878152602081018790526001600160a01b03808a1692600092918716917fc3d58168c5ae7397731d063d5bbf3d657854427343f4c083240f7aacaa2d0f62910160405180910390a461079683600089898989611f27565b6004546001600160a01b03163314610ec55760405162461bcd60e51b815260206004820181905260248201527f4f776e61626c653a2063616c6c6572206973206e6f7420746865206f776e6572604482015260640161054f565b6001600160a01b0384166115a05760405162461bcd60e51b815260040161054f90612d8c565b81518351146115c15760405162461bcd60e51b815260040161054f90612d44565b336115d181600087878787611f19565b60005b8451811015611688578381815181106115fd57634e487b7160e01b600052603260045260246000fd5b602002602001015160008087848151811061162857634e487b7160e01b600052603260045260246000fd5b602002602001015181526020019081526020016000206000886001600160a01b03166001600160a01b0316815260200190815260200160002060008282546116709190612df0565b9091555081905061168081612e9b565b9150506115d4565b50846001600160a01b031660006001600160a01b0316826001600160a01b03167f4a39dc06d4c0dbc64b70af90fd698a233a518aa5d07e595d983b8c0526c8f7fb87876040516116d9929190612b60565b60405180910390a46108aa81600087878787612092565b81518351146117115760405162461bcd60e51b815260040161054f90612d44565b6001600160a01b0384166117375760405162461bcd60e51b815260040161054f90612c72565b33611746818787878787611f19565b60005b845181101561184857600085828151811061177457634e487b7160e01b600052603260045260246000fd5b6020026020010151905060008583815181106117a057634e487b7160e01b600052603260045260246000fd5b602090810291909101810151600084815280835260408082206001600160a01b038e1683529093529190912054909150818110156117f05760405162461bcd60e51b815260040161054f90612cfa565b6000838152602081815260408083206001600160a01b038e8116855292528083208585039055908b1682528120805484929061182d908490612df0565b925050819055505050508061184190612e9b565b9050611749565b50846001600160a01b0316866001600160a01b0316826001600160a01b03167f4a39dc06d4c0dbc64b70af90fd698a233a518aa5d07e595d983b8c0526c8f7fb8787604051611898929190612b60565b60405180910390a46118ae818787878787612092565b505050505050565b6001600160a01b0383166118dc5760405162461bcd60e51b815260040161054f90612cb7565b80518251146118fd5760405162461bcd60e51b815260040161054f90612d44565b600033905061192081856000868660405180602001604052806000815250611f19565b60005b8351811015611a0157600084828151811061194e57634e487b7160e01b600052603260045260246000fd5b60200260200101519050600084838151811061197a57634e487b7160e01b600052603260045260246000fd5b602090810291909101810151600084815280835260408082206001600160a01b038c1683529093529190912054909150818110156119ca5760405162461bcd60e51b815260040161054f90612be0565b6000928352602083815260408085206001600160a01b038b16865290915290922091039055806119f981612e9b565b915050611923565b5060006001600160a01b0316846001600160a01b0316826001600160a01b03167f4a39dc06d4c0dbc64b70af90fd698a233a518aa5d07e595d983b8c0526c8f7fb8686604051611a52929190612b60565b60405180910390a46040805160208101909152600090525b50505050565b600480546001600160a01b038381166001600160a01b0319831681179093556040519116919082907f8be0079c531659141344cd1fd0a4f28419497f9722a3daafe3b4186f6b6457e090600090a35050565b816001600160a01b0316836001600160a01b03161415611b365760405162461bcd60e51b815260206004820152602960248201527f455243313135353a2073657474696e6720617070726f76616c20737461747573604482015268103337b91039b2b63360b91b606482015260840161054f565b6001600160a01b03838116600081815260016020908152604080832094871680845294825291829020805460ff191686151590811790915591519182527f17307eab39ab6107e8899845ad3d59bd9653f200f220920489ca2b5937696c31910160405180910390a3505050565b6001600160a01b038416611bc95760405162461bcd60e51b815260040161054f90612c72565b336000611bd585611ec0565b90506000611be285611ec0565b9050611bf2838989858589611f19565b6000868152602081815260408083206001600160a01b038c16845290915290205485811015611c335760405162461bcd60e51b815260040161054f90612cfa565b6000878152602081815260408083206001600160a01b038d8116855292528083208985039055908a16825281208054889290611c70908490612df0565b909155505060408051888152602081018890526001600160a01b03808b16928c821692918816917fc3d58168c5ae7397731d063d5bbf3d657854427343f4c083240f7aacaa2d0f62910160405180910390a4611173848a8a8a8a8a611f27565b6001600160a01b038316611cf65760405162461bcd60e51b815260040161054f90612cb7565b336000611d0284611ec0565b90506000611d0f84611ec0565b9050611d2f83876000858560405180602001604052806000815250611f19565b6000858152602081815260408083206001600160a01b038a16845290915290205484811015611d705760405162461bcd60e51b815260040161054f90612be0565b6000868152602081815260408083206001600160a01b038b81168086529184528285208a8703905582518b81529384018a90529092908816917fc3d58168c5ae7397731d063d5bbf3d657854427343f4c083240f7aacaa2d0f62910160405180910390a4604080516020810190915260009052610796565b60008072184f03e93ff9f4daa797ed6e38ed64bf6a1f0160401b8310611e275772184f03e93ff9f4daa797ed6e38ed64bf6a1f0160401b830492506040015b6d04ee2d6d415b85acef81000000008310611e53576d04ee2d6d415b85acef8100000000830492506020015b662386f26fc100008310611e7157662386f26fc10000830492506010015b6305f5e1008310611e89576305f5e100830492506008015b6127108310611e9d57612710830492506004015b60648310611eaf576064830492506002015b600a83106105ca5760010192915050565b60408051600180825281830190925260609160009190602080830190803683370190505090508281600081518110611f0857634e487b7160e01b600052603260045260246000fd5b602090810291909101015292915050565b6118ae86868686868661215c565b6001600160a01b0384163b156118ae5760405163f23a6e6160e01b81526001600160a01b0385169063f23a6e6190611f6b9089908990889088908890600401612b08565b602060405180830381600087803b158015611f8557600080fd5b505af1925050508015611fb5575060408051601f3d908101601f19168201909252611fb2918101906128e0565b60015b61206257611fc1612ee2565b806308c379a01415611ffb5750611fd6612efa565b80611fe15750611ffd565b8060405162461bcd60e51b815260040161054f9190612b85565b505b60405162461bcd60e51b815260206004820152603460248201527f455243313135353a207472616e7366657220746f206e6f6e2d455243313135356044820152732932b1b2b4bb32b91034b6b83632b6b2b73a32b960611b606482015260840161054f565b6001600160e01b0319811663f23a6e6160e01b146107965760405162461bcd60e51b815260040161054f90612b98565b6001600160a01b0384163b156118ae5760405163bc197c8160e01b81526001600160a01b0385169063bc197c81906120d69089908990889088908890600401612aaa565b602060405180830381600087803b1580156120f057600080fd5b505af1925050508015612120575060408051601f3d908101601f1916820190925261211d918101906128e0565b60015b61212c57611fc1612ee2565b6001600160e01b0319811663bc197c8160e01b146107965760405162461bcd60e51b815260040161054f90612b98565b6001600160a01b0385166121ff5760005b83518110156121fd5782818151811061219657634e487b7160e01b600052603260045260246000fd5b6020026020010151600360008684815181106121c257634e487b7160e01b600052603260045260246000fd5b6020026020010151815260200190815260200160002060008282546121e79190612df0565b909155506121f6905081612e9b565b905061216d565b505b6001600160a01b0384166118ae5760005b835181101561079657600084828151811061223b57634e487b7160e01b600052603260045260246000fd5b60200260200101519050600084838151811061226757634e487b7160e01b600052603260045260246000fd5b60200260200101519050600060036000848152602001908152602001600020549050818110156122ea5760405162461bcd60e51b815260206004820152602860248201527f455243313135353a206275726e20616d6f756e74206578636565647320746f74604482015267616c537570706c7960c01b606482015260840161054f565b6000928352600360205260409092209103905561230681612e9b565b9050612210565b82805461231990612e34565b90600052602060002090601f01602090048101928261233b5760008555612381565b82601f1061235457805160ff1916838001178555612381565b82800160010185558215612381579182015b82811115612381578251825591602001919060010190612366565b5061238d929150612391565b5090565b5b8082111561238d5760008155600101612392565b60006001600160401b038311156123bf576123bf612ecc565b6040516123d6601f8501601f191660200182612e6f565b8091508381528484840111156123eb57600080fd5b83836020830137600060208583010152509392505050565b600082601f830112612413578081fd5b8135602061242082612dcd565b60405161242d8282612e6f565b8381528281019150858301600585901b8701840188101561244c578586fd5b855b8581101561246a5781358452928401929084019060010161244e565b5090979650505050505050565b600082601f830112612487578081fd5b612496838335602085016123a6565b9392505050565b6000602082840312156124ae578081fd5b813561249681612f83565b6000602082840312156124ca578081fd5b815161249681612f83565b600080604083850312156124e7578081fd5b82356124f281612f83565b9150602083013561250281612f83565b809150509250929050565b600080600080600060a08688031215612524578081fd5b853561252f81612f83565b9450602086013561253f81612f83565b935060408601356001600160401b038082111561255a578283fd5b61256689838a01612403565b9450606088013591508082111561257b578283fd5b61258789838a01612403565b9350608088013591508082111561259c578283fd5b506125a988828901612477565b9150509295509295909350565b600080600080600060a086880312156125cd578081fd5b85356125d881612f83565b945060208601356125e881612f83565b9350604086013592506060860135915060808601356001600160401b03811115612610578182fd5b6125a988828901612477565b600080600060608486031215612630578081fd5b833561263b81612f83565b925060208401356001600160401b0380821115612656578283fd5b61266287838801612403565b93506040860135915080821115612677578283fd5b5061268486828701612403565b9150509250925092565b600080604083850312156126a0578182fd5b82356126ab81612f83565b9150602083013561250281612f98565b6000806000606084860312156126cf578081fd5b83516126da81612f83565b60208501519093506126eb81612f98565b80925050604084015190509250925092565b6000806040838503121561270f578182fd5b823561271a81612f83565b946020939093013593505050565b60008060006060848603121561273c578081fd5b833561274781612f83565b95602085013595506040909401359392505050565b6000806040838503121561276e578182fd5b82356001600160401b0380821115612784578384fd5b818501915085601f830112612797578384fd5b813560206127a482612dcd565b6040516127b18282612e6f565b8381528281019150858301600585901b870184018b10156127d0578889fd5b8896505b848710156127fb5780356127e781612f83565b8352600196909601959183019183016127d4565b5096505086013592505080821115612811578283fd5b5061281e85828601612403565b9150509250929050565b6000602080838503121561283a578182fd5b82516001600160401b0381111561284f578283fd5b8301601f8101851361285f578283fd5b805161286a81612dcd565b6040516128778282612e6f565b8281528481019150838501600584901b85018601891015612896578687fd5b8694505b838510156128b857805183526001949094019391850191850161289a565b50979650505050505050565b6000602082840312156128d5578081fd5b813561249681612fa6565b6000602082840312156128f1578081fd5b815161249681612fa6565b60006020828403121561290d578081fd5b81356001600160401b03811115612922578182fd5b8201601f81018413612932578182fd5b612941848235602084016123a6565b949350505050565b60006020828403121561295a578081fd5b5035919050565b60008060408385031215612973578182fd5b50508035926020909101359150565b6000815180845260208085019450808401835b838110156129b157815187529582019590820190600101612995565b509495945050505050565b600081518084526129d4816020860160208601612e08565b601f01601f19169290920160200192915050565b600081516129fa818560208601612e08565b9290920192915050565b600080845482600182811c915080831680612a2057607f831692505b6020808410821415612a4057634e487b7160e01b87526022600452602487fd5b818015612a545760018114612a6557612a91565b60ff19861689528489019650612a91565b60008b815260209020885b86811015612a895781548b820152908501908301612a70565b505084890196505b505050505050612aa181856129e8565b95945050505050565b6001600160a01b0386811682528516602082015260a060408201819052600090612ad690830186612982565b8281036060840152612ae88186612982565b90508281036080840152612afc81856129bc565b98975050505050505050565b6001600160a01b03868116825285166020820152604081018490526060810183905260a060808201819052600090612b42908301846129bc565b979650505050505050565b6020815260006124966020830184612982565b604081526000612b736040830185612982565b8281036020840152612aa18185612982565b60208152600061249660208301846129bc565b60208082526028908201527f455243313135353a204552433131353552656365697665722072656a656374656040820152676420746f6b656e7360c01b606082015260800190565b60208082526024908201527f455243313135353a206275726e20616d6f756e7420657863656564732062616c604082015263616e636560e01b606082015260800190565b6020808252602e908201527f455243313135353a2063616c6c6572206973206e6f7420746f6b656e206f776e60408201526d195c881bdc88185c1c1c9bdd995960921b606082015260800190565b60208082526025908201527f455243313135353a207472616e7366657220746f20746865207a65726f206164604082015264647265737360d81b606082015260800190565b60208082526023908201527f455243313135353a206275726e2066726f6d20746865207a65726f206164647260408201526265737360e81b606082015260800190565b6020808252602a908201527f455243313135353a20696e73756666696369656e742062616c616e636520666f60408201526939103a3930b739b332b960b11b606082015260800190565b60208082526028908201527f455243313135353a2069647320616e6420616d6f756e7473206c656e677468206040820152670dad2e6dac2e8c6d60c31b606082015260800190565b60208082526021908201527f455243313135353a206d696e7420746f20746865207a65726f206164647265736040820152607360f81b606082015260800190565b60006001600160401b03821115612de657612de6612ecc565b5060051b60200190565b60008219821115612e0357612e03612eb6565b500190565b60005b83811015612e23578181015183820152602001612e0b565b83811115611a6a5750506000910152565b600181811c90821680612e4857607f821691505b60208210811415612e6957634e487b7160e01b600052602260045260246000fd5b50919050565b601f8201601f191681016001600160401b0381118282101715612e9457612e94612ecc565b6040525050565b6000600019821415612eaf57612eaf612eb6565b5060010190565b634e487b7160e01b600052601160045260246000fd5b634e487b7160e01b600052604160045260246000fd5b600060033d1115612ef757600481823e5160e01c5b90565b600060443d1015612f085790565b6040516003193d81016004833e81513d6001600160401b038160248401118184111715612f3757505050505090565b8285019150815181811115612f4f5750505050505090565b843d8701016020828501011115612f695750505050505090565b612f7860208286010187612e6f565b509095945050505050565b6001600160a01b038116811461086257600080fd5b801515811461086257600080fd5b6001600160e01b03198116811461086257600080fdfea26469706673582212204e3aed10e3e7676f472e56c004503d79bad8f647763ee9c1e5ec6aa95be8a7b864736f6c6343000804003368747470733a2f2f64617461626173652e636f6d2f656c656d656e74616c2d73746f6e652f6d657461646174612f",
  "linkReferences": {},
  "deployedLinkReferences": {}
}