{
  "_format": "hh-sol-artifact-1",
  "contractName": "ElementalStone",
  "sourceName": "contracts/Gacha/ElementalStone.sol",
  "abi": [
    {
      "inputs": [
        {
          "internalType": "address",
          "name": "_gachaMachine",
          "type": "address"
        },
        {
          "internalType": "address",
          "name": "_girl",
          "type": "address"
        },
        {
          "internalType": "string",
          "name": "_baseURI",
          "type": "string"
        },
        {
          "internalType": "address",
          "name": "_royalty",
          "type": "address"
        }
      ],
      "stateMutability": "nonpayable",
      "type": "constructor"
    },
    {
      "anonymous": false,
      "inputs": [
        {
          "indexed": true,
          "internalType": "address",
          "name": "account",
          "type": "address"
        },
        {
          "indexed": true,
          "internalType": "address",
          "name": "operator",
          "type": "address"
        },
        {
          "indexed": false,
          "internalType": "bool",
          "name": "approved",
          "type": "bool"
        }
      ],
      "name": "ApprovalForAll",
      "type": "event"
    },
    {
      "anonymous": false,
      "inputs": [
        {
          "indexed": false,
          "internalType": "uint256",
          "name": "id",
          "type": "uint256"
        },
        {
          "indexed": false,
          "internalType": "uint256",
          "name": "toTier",
          "type": "uint256"
        }
      ],
      "name": "CosmicLevelUpgraded",
      "type": "event"
    },
    {
      "anonymous": false,
      "inputs": [
        {
          "indexed": true,
          "internalType": "address",
          "name": "previousOwner",
          "type": "address"
        },
        {
          "indexed": true,
          "internalType": "address",
          "name": "newOwner",
          "type": "address"
        }
      ],
      "name": "OwnershipTransferred",
      "type": "event"
    },
    {
      "anonymous": false,
      "inputs": [
        {
          "indexed": true,
          "internalType": "address",
          "name": "operator",
          "type": "address"
        },
        {
          "indexed": true,
          "internalType": "address",
          "name": "from",
          "type": "address"
        },
        {
          "indexed": true,
          "internalType": "address",
          "name": "to",
          "type": "address"
        },
        {
          "indexed": false,
          "internalType": "uint256[]",
          "name": "ids",
          "type": "uint256[]"
        },
        {
          "indexed": false,
          "internalType": "uint256[]",
          "name": "values",
          "type": "uint256[]"
        }
      ],
      "name": "TransferBatch",
      "type": "event"
    },
    {
      "anonymous": false,
      "inputs": [
        {
          "indexed": true,
          "internalType": "address",
          "name": "operator",
          "type": "address"
        },
        {
          "indexed": true,
          "internalType": "address",
          "name": "from",
          "type": "address"
        },
        {
          "indexed": true,
          "internalType": "address",
          "name": "to",
          "type": "address"
        },
        {
          "indexed": false,
          "internalType": "uint256",
          "name": "id",
          "type": "uint256"
        },
        {
          "indexed": false,
          "internalType": "uint256",
          "name": "value",
          "type": "uint256"
        }
      ],
      "name": "TransferSingle",
      "type": "event"
    },
    {
      "anonymous": false,
      "inputs": [
        {
          "indexed": false,
          "internalType": "string",
          "name": "value",
          "type": "string"
        },
        {
          "indexed": true,
          "internalType": "uint256",
          "name": "id",
          "type": "uint256"
        }
      ],
      "name": "URI",
      "type": "event"
    },
    {
      "inputs": [],
      "name": "INTERFACE_ID_ERC2981",
      "outputs": [
        {
          "internalType": "bytes4",
          "name": "",
          "type": "bytes4"
        }
      ],
      "stateMutability": "view",
      "type": "function"
    },
    {
      "inputs": [
        {
          "internalType": "address",
          "name": "account",
          "type": "address"
        },
        {
          "internalType": "uint256",
          "name": "id",
          "type": "uint256"
        },
        {
          "internalType": "uint256",
          "name": "girlId",
          "type": "uint256"
        }
      ],
      "name": "attune",
      "outputs": [],
      "stateMutability": "nonpayable",
      "type": "function"
    },
    {
      "inputs": [],
      "name": "attunement",
      "outputs": [
        {
          "internalType": "contract IAttunement",
          "name": "",
          "type": "address"
        }
      ],
      "stateMutability": "view",
      "type": "function"
    },
    {
      "inputs": [
        {
          "internalType": "address",
          "name": "account",
          "type": "address"
        },
        {
          "internalType": "uint256",
          "name": "id",
          "type": "uint256"
        }
      ],
      "name": "balanceOf",
      "outputs": [
        {
          "internalType": "uint256",
          "name": "",
          "type": "uint256"
        }
      ],
      "stateMutability": "view",
      "type": "function"
    },
    {
      "inputs": [
        {
          "internalType": "address[]",
          "name": "accounts",
          "type": "address[]"
        },
        {
          "internalType": "uint256[]",
          "name": "ids",
          "type": "uint256[]"
        }
      ],
      "name": "balanceOfBatch",
      "outputs": [
        {
          "internalType": "uint256[]",
          "name": "",
          "type": "uint256[]"
        }
      ],
      "stateMutability": "view",
      "type": "function"
    },
    {
      "inputs": [],
      "name": "baseURI",
      "outputs": [
        {
          "internalType": "string",
          "name": "",
          "type": "string"
        }
      ],
      "stateMutability": "view",
      "type": "function"
    },
    {
      "inputs": [
        {
          "internalType": "address",
          "name": "account",
          "type": "address"
        },
        {
          "internalType": "uint256",
          "name": "id",
          "type": "uint256"
        },
        {
          "internalType": "uint256",
          "name": "value",
          "type": "uint256"
        }
      ],
      "name": "burn",
      "outputs": [],
      "stateMutability": "nonpayable",
      "type": "function"
    },
    {
      "inputs": [
        {
          "internalType": "address",
          "name": "account",
          "type": "address"
        },
        {
          "internalType": "uint256[]",
          "name": "ids",
          "type": "uint256[]"
        },
        {
          "internalType": "uint256[]",
          "name": "values",
          "type": "uint256[]"
        }
      ],
      "name": "burnBatch",
      "outputs": [],
      "stateMutability": "nonpayable",
      "type": "function"
    },
    {
      "inputs": [
        {
          "internalType": "uint256",
          "name": "",
          "type": "uint256"
        }
      ],
      "name": "elementString",
      "outputs": [
        {
          "internalType": "string",
          "name": "",
          "type": "string"
        }
      ],
      "stateMutability": "view",
      "type": "function"
    },
    {
      "inputs": [
        {
          "internalType": "uint256",
          "name": "id",
          "type": "uint256"
        }
      ],
      "name": "exists",
      "outputs": [
        {
          "internalType": "bool",
          "name": "",
          "type": "bool"
        }
      ],
      "stateMutability": "view",
      "type": "function"
    },
    {
      "inputs": [
        {
          "internalType": "address",
          "name": "_user",
          "type": "address"
        }
      ],
      "name": "getWalletBalance",
      "outputs": [
        {
          "internalType": "uint256[]",
          "name": "",
          "type": "uint256[]"
        }
      ],
      "stateMutability": "view",
      "type": "function"
    },
    {
      "inputs": [],
      "name": "girl",
      "outputs": [
        {
          "internalType": "contract IGirl",
          "name": "",
          "type": "address"
        }
      ],
      "stateMutability": "view",
      "type": "function"
    },
    {
      "inputs": [
        {
          "internalType": "address",
          "name": "account",
          "type": "address"
        },
        {
          "internalType": "address",
          "name": "operator",
          "type": "address"
        }
      ],
      "name": "isApprovedForAll",
      "outputs": [
        {
          "internalType": "bool",
          "name": "",
          "type": "bool"
        }
      ],
      "stateMutability": "view",
      "type": "function"
    },
    {
      "inputs": [
        {
          "internalType": "address",
          "name": "",
          "type": "address"
        }
      ],
      "name": "isGachaMachine",
      "outputs": [
        {
          "internalType": "bool",
          "name": "",
          "type": "bool"
        }
      ],
      "stateMutability": "view",
      "type": "function"
    },
    {
      "inputs": [
        {
          "internalType": "address",
          "name": "account",
          "type": "address"
        },
        {
          "internalType": "uint256",
          "name": "id",
          "type": "uint256"
        },
        {
          "internalType": "uint256",
          "name": "amount",
          "type": "uint256"
        }
      ],
      "name": "mint",
      "outputs": [],
      "stateMutability": "nonpayable",
      "type": "function"
    },
    {
      "inputs": [
        {
          "internalType": "address",
          "name": "_to",
          "type": "address"
        }
      ],
      "name": "mintDev",
      "outputs": [],
      "stateMutability": "nonpayable",
      "type": "function"
    },
    {
      "inputs": [],
      "name": "owner",
      "outputs": [
        {
          "internalType": "address",
          "name": "",
          "type": "address"
        }
      ],
      "stateMutability": "view",
      "type": "function"
    },
    {
      "inputs": [],
      "name": "renounceOwnership",
      "outputs": [],
      "stateMutability": "nonpayable",
      "type": "function"
    },
    {
      "inputs": [
        {
          "internalType": "uint256",
          "name": "_tokenId",
          "type": "uint256"
        },
        {
          "internalType": "uint256",
          "name": "_salePrice",
          "type": "uint256"
        }
      ],
      "name": "royaltyInfo",
      "outputs": [
        {
          "internalType": "address",
          "name": "receiver",
          "type": "address"
        },
        {
          "internalType": "uint256",
          "name": "royaltyAmount",
          "type": "uint256"
        }
      ],
      "stateMutability": "view",
      "type": "function"
    },
    {
      "inputs": [
        {
          "internalType": "address",
          "name": "from",
          "type": "address"
        },
        {
          "internalType": "address",
          "name": "to",
          "type": "address"
        },
        {
          "internalType": "uint256[]",
          "name": "ids",
          "type": "uint256[]"
        },
        {
          "internalType": "uint256[]",
          "name": "amounts",
          "type": "uint256[]"
        },
        {
          "internalType": "bytes",
          "name": "data",
          "type": "bytes"
        }
      ],
      "name": "safeBatchTransferFrom",
      "outputs": [],
      "stateMutability": "nonpayable",
      "type": "function"
    },
    {
      "inputs": [
        {
          "internalType": "address",
          "name": "from",
          "type": "address"
        },
        {
          "internalType": "address",
          "name": "to",
          "type": "address"
        },
        {
          "internalType": "uint256",
          "name": "id",
          "type": "uint256"
        },
        {
          "internalType": "uint256",
          "name": "amount",
          "type": "uint256"
        },
        {
          "internalType": "bytes",
          "name": "data",
          "type": "bytes"
        }
      ],
      "name": "safeTransferFrom",
      "outputs": [],
      "stateMutability": "nonpayable",
      "type": "function"
    },
    {
      "inputs": [
        {
          "internalType": "address",
          "name": "operator",
          "type": "address"
        },
        {
          "internalType": "bool",
          "name": "approved",
          "type": "bool"
        }
      ],
      "name": "setApprovalForAll",
      "outputs": [],
      "stateMutability": "nonpayable",
      "type": "function"
    },
    {
      "inputs": [
        {
          "internalType": "address",
          "name": "_contract",
          "type": "address"
        }
      ],
      "name": "setAttunementContract",
      "outputs": [],
      "stateMutability": "nonpayable",
      "type": "function"
    },
    {
      "inputs": [
        {
          "internalType": "string",
          "name": "newBaseURI",
          "type": "string"
        }
      ],
      "name": "setBaseURI",
      "outputs": [],
      "stateMutability": "nonpayable",
      "type": "function"
    },
    {
      "inputs": [
        {
          "internalType": "address",
          "name": "_contract",
          "type": "address"
        }
      ],
      "name": "setGachaMachineContract",
      "outputs": [],
      "stateMutability": "nonpayable",
      "type": "function"
    },
    {
      "inputs": [
        {
          "internalType": "address",
          "name": "_girl",
          "type": "address"
        }
      ],
      "name": "setGirlContract",
      "outputs": [],
      "stateMutability": "nonpayable",
      "type": "function"
    },
    {
      "inputs": [
        {
          "internalType": "address",
          "name": "newRecipient",
          "type": "address"
        }
      ],
      "name": "setRoyalties",
      "outputs": [],
      "stateMutability": "nonpayable",
      "type": "function"
    },
    {
      "inputs": [
        {
          "internalType": "uint256",
          "name": "newCount",
          "type": "uint256"
        }
      ],
      "name": "setTokenCount",
      "outputs": [],
      "stateMutability": "nonpayable",
      "type": "function"
    },
    {
      "inputs": [
        {
          "internalType": "uint256",
          "name": "id",
          "type": "uint256"
        },
        {
          "internalType": "uint256",
          "name": "girlId",
          "type": "uint256"
        }
      ],
      "name": "stake",
      "outputs": [],
      "stateMutability": "nonpayable",
      "type": "function"
    },
    {
      "inputs": [
        {
          "internalType": "bytes4",
          "name": "interfaceId",
          "type": "bytes4"
        }
      ],
      "name": "supportsInterface",
      "outputs": [
        {
          "internalType": "bool",
          "name": "",
          "type": "bool"
        }
      ],
      "stateMutability": "view",
      "type": "function"
    },
    {
      "inputs": [
        {
          "internalType": "uint256",
          "name": "id",
          "type": "uint256"
        }
      ],
      "name": "totalSupply",
      "outputs": [
        {
          "internalType": "uint256",
          "name": "",
          "type": "uint256"
        }
      ],
      "stateMutability": "view",
      "type": "function"
    },
    {
      "inputs": [
        {
          "internalType": "address",
          "name": "newOwner",
          "type": "address"
        }
      ],
      "name": "transferOwnership",
      "outputs": [],
      "stateMutability": "nonpayable",
      "type": "function"
    },
    {
      "inputs": [
        {
          "internalType": "uint256",
          "name": "id",
          "type": "uint256"
        },
        {
          "internalType": "uint256",
          "name": "toTier",
          "type": "uint256"
        }
      ],
      "name": "upgradeCosmicLevel",
      "outputs": [],
      "stateMutability": "nonpayable",
      "type": "function"
    },
    {
      "inputs": [
        {
          "internalType": "uint256",
          "name": "",
          "type": "uint256"
        }
      ],
      "name": "upgradeIDs",
      "outputs": [
        {
          "internalType": "uint256",
          "name": "",
          "type": "uint256"
        }
      ],
      "stateMutability": "view",
      "type": "function"
    },
    {
      "inputs": [
        {
          "internalType": "uint256",
          "name": "_tokenID",
          "type": "uint256"
        }
      ],
      "name": "uri",
      "outputs": [
        {
          "internalType": "string",
          "name": "",
          "type": "string"
        }
      ],
      "stateMutability": "view",
      "type": "function"
    }
  ],
  "bytecode": "0x6006600781905560e060405260046080908152600560a05260c0919091526200002d906008906003620003c8565b50604051806080016040528060405180602001604052806000815250815260200160405180604001604052806005815260200164466c616d6560d81b815250815260200160405180604001604052806005815260200164546572726160d81b8152508152602001604051806040016040528060048152602001634171756160e01b815250815250600a906004620000c69291906200041d565b506040805160c08101825260018152600260208201526003918101919091526004606082015260056080820152600660a082018190526200010a91600c91620003c8565b506040805160c081018252606480825260208201819052918101829052606081018290526080810182905260a08101919091526200014d90600d906006620003c8565b503480156200015b57600080fd5b506040516200388a3803806200388a8339810160408190526200017e916200058e565b60408051808201909152600f81526e456c656d656e74616c2053746f6e6560881b6020820152620001af8162000209565b50620001bb3362000222565b6001600160a01b0384166000908152600b60205260409020805460ff19166001179055620001e98362000274565b620001f482620002a0565b620001ff81620002bf565b50505050620006f2565b80516200021e9060029060208401906200047d565b5050565b600480546001600160a01b038381166001600160a01b0319831681179093556040519116919082907f8be0079c531659141344cd1fd0a4f28419497f9722a3daafe3b4186f6b6457e090600090a35050565b6200027e620002d7565b600680546001600160a01b0319166001600160a01b0392909216919091179055565b620002aa620002d7565b80516200021e9060099060208401906200047d565b620002c9620002d7565b620002d48162000339565b50565b6004546001600160a01b03163314620003375760405162461bcd60e51b815260206004820181905260248201527f4f776e61626c653a2063616c6c6572206973206e6f7420746865206f776e657260448201526064015b60405180910390fd5b565b6001600160a01b038116620003a65760405162461bcd60e51b815260206004820152602c60248201527f526f79616c746965733a206e657720726563697069656e74206973207468652060448201526b7a65726f206164647265737360a01b60648201526084016200032e565b600e80546001600160a01b0319166001600160a01b0392909216919091179055565b8280548282559060005260206000209081019282156200040b579160200282015b828111156200040b578251829060ff16905591602001919060010190620003e9565b5062000419929150620004fa565b5090565b8280548282559060005260206000209081019282156200046f579160200282015b828111156200046f57825180516200045e9184916020909101906200047d565b50916020019190600101906200043e565b506200041992915062000511565b8280546200048b906200069f565b90600052602060002090601f016020900481019282620004af57600085556200040b565b82601f10620004ca57805160ff19168380011785556200040b565b828001600101855582156200040b579182015b828111156200040b578251825591602001919060010190620004dd565b5b80821115620004195760008155600101620004fb565b808211156200041957600062000528828262000532565b5060010162000511565b50805462000540906200069f565b6000825580601f1062000551575050565b601f016020900490600052602060002090810190620002d49190620004fa565b80516001600160a01b03811681146200058957600080fd5b919050565b60008060008060808587031215620005a4578384fd5b620005af8562000571565b93506020620005c081870162000571565b60408701519094506001600160401b0380821115620005dd578485fd5b818801915088601f830112620005f1578485fd5b815181811115620006065762000606620006dc565b604051601f8201601f19908116603f01168101908382118183101715620006315762000631620006dc565b816040528281528b8684870101111562000649578788fd5b8793505b828410156200066c57848401860151818501870152928501926200064d565b828411156200067d57878684830101525b809750505050505050620006946060860162000571565b905092959194509250565b600181811c90821680620006b457607f821691505b60208210811415620006d657634e487b7160e01b600052602260045260246000fd5b50919050565b634e487b7160e01b600052604160045260246000fd5b61318880620007026000396000f3fe608060405234801561001057600080fd5b50600436106102105760003560e01c80634f558e7911610125578063a22cb465116100ad578063e985e9c51161007c578063e985e9c5146104ed578063ed8ec19414610529578063f242432a1461053c578063f2fde38b1461054f578063f5298aca1461056257600080fd5b8063a22cb46514610480578063a388237d14610493578063b060dd86146104a6578063bd85b039146104cd57600080fd5b8063715018a6116100f4578063715018a61461042e5780637b0472f0146104365780637b435a651461044957806384eda5441461045c5780638da5cb5b1461046f57600080fd5b80634f558e79146103de57806355f804b3146104005780636b20c454146104135780636c0360eb1461042657600080fd5b80632a9e63c6116101a8578063348a2c3c11610177578063348a2c3c146103625780633c22ae5a146103755780634c7b7c6f146103985780634d683d08146103ab5780634e1273f4146103be57600080fd5b80632a9e63c6146103165780632c8296f3146103295780632eb2c2d61461033c5780633318f1a51461034f57600080fd5b8063156e29f6116101e4578063156e29f6146102a95780631c253155146102be5780631ce57c00146102d15780632a55205a146102e457600080fd5b8062fdd58e1461021557806301ffc9a71461023b5780630e89341c1461025e5780630f3b899b1461027e575b600080fd5b610228610223366004612873565b610575565b6040519081526020015b60405180910390f35b61024e610249366004612a3a565b61060b565b6040519015158152602001610232565b61027161026c366004612abf565b610636565b6040516102329190612cfb565b600554610291906001600160a01b031681565b6040516001600160a01b039091168152602001610232565b6102bc6102b736600461289e565b610670565b005b6102bc6102cc366004612613565b6106ef565b6102bc6102df36600461289e565b61071b565b6102f76102f2366004612ad7565b610805565b604080516001600160a01b039093168352602083019190915201610232565b6102bc610324366004612613565b610827565b6102bc610337366004612613565b61083b565b6102bc61034a366004612683565b6108fe565b600654610291906001600160a01b031681565b610228610370366004612abf565b61094a565b61024e610383366004612613565b600b6020526000908152604090205460ff1681565b6102bc6103a6366004612ad7565b61096b565b6102716103b9366004612abf565b610cd0565b6103d16103cc3660046128d2565b610d7c565b6040516102329190612cc3565b61024e6103ec366004612abf565b600090815260036020526040902054151590565b6102bc61040e366004612a72565b610edd565b6102bc610421366004612792565b610efc565b610271610f3f565b6102bc610f4c565b6102bc610444366004612ad7565b610f60565b6102bc610457366004612abf565b611217565b6102bc61046a366004612613565b611224565b6004546001600160a01b0316610291565b6102bc61048e366004612804565b61124e565b6102bc6104a1366004612613565b611259565b6104b463152a902d60e11b81565b6040516001600160e01b03199091168152602001610232565b6102286104db366004612abf565b60009081526003602052604090205490565b61024e6104fb36600461264b565b6001600160a01b03918216600090815260016020908152604080832093909416825291909152205460ff1690565b6103d1610537366004612613565b611283565b6102bc61054a36600461272c565b611339565b6102bc61055d366004612613565b61137e565b6102bc61057036600461289e565b6113f4565b60006001600160a01b0383166105e55760405162461bcd60e51b815260206004820152602a60248201527f455243313135353a2061646472657373207a65726f206973206e6f742061207660448201526930b634b21037bbb732b960b11b60648201526084015b60405180910390fd5b506000908152602081815260408083206001600160a01b03949094168352929052205490565b60006001600160e01b0319821663152a902d60e11b1480610630575061063082611437565b92915050565b6060600061064383611487565b9050600981604051602001610659929190612b7a565b604051602081830303815290604052915050919050565b336000908152600b602052604090205460ff166106cf5760405162461bcd60e51b815260206004820152601b60248201527f4f6e6c79206761636861206d616368696e652063616e206d696e74000000000060448201526064016105dc565b6106ea83838360405180602001604052806000815250611529565b505050565b6106f7611609565b6001600160a01b03166000908152600b60205260409020805460ff19166001179055565b6005546001600160a01b031633146107755760405162461bcd60e51b815260206004820152601a60248201527f4f6e6c7920617474756e656d656e742063616e20617474756e6500000000000060448201526064016105dc565b61079b83610784846003612f66565b600160405180602001604052806000815250611529565b600654604051633f1ed70960e01b815260048101839052600060248201526001600160a01b0390911690633f1ed70990604401600060405180830381600087803b1580156107e857600080fd5b505af11580156107fc573d6000803e3d6000fd5b50505050505050565b600e546001600160a01b0316600061081e600a84612f7e565b90509250929050565b61082f611609565b61083881611663565b50565b610843611609565b61083881600c80548060200260200160405190810160405280929190818152602001828054801561089357602002820191906000526020600020905b81548152602001906001019080831161087f575b5050505050600d8054806020026020016040519081016040528092919081815260200182805480156108e457602002820191906000526020600020905b8154815260200190600101908083116108d0575b5050505050604051806020016040528060008152506116f0565b6001600160a01b03851633148061091a575061091a85336104fb565b6109365760405162461bcd60e51b81526004016105dc90612d9a565b6109438585858585611866565b5050505050565b6008818154811061095a57600080fd5b600091825260209091200154905081565b600654604051631fba62cb60e11b815260048101849052602481018390526000916001600160a01b031690633f74c5969060440160006040518083038186803b1580156109b757600080fd5b505afa1580156109cb573d6000803e3d6000fd5b505050506040513d6000823e601f3d908101601f191682016040526109f3919081019061299e565b905080600081518110610a1657634e487b7160e01b600052603260045260246000fd5b6020026020010151610a29336004610575565b10158015610a69575080600181518110610a5357634e487b7160e01b600052603260045260246000fd5b6020026020010151610a66336005610575565b10155b8015610aa7575080600281518110610a9157634e487b7160e01b600052603260045260246000fd5b6020026020010151610aa4336006610575565b10155b610af35760405162461bcd60e51b815260206004820152601a60248201527f557067726164653a206e6f7420656e6f7567682073746f6e657300000000000060448201526064016105dc565b6006546040516331a9108f60e11b81526004810185905233916001600160a01b031690636352211e9060240160206040518083038186803b158015610b3757600080fd5b505afa158015610b4b573d6000803e3d6000fd5b505050506040513d601f19601f82011682018060405250810190610b6f919061262f565b6001600160a01b031614610bd15760405162461bcd60e51b815260206004820152602360248201527f456c656d656e74616c3a20757067726164652063616c6c6572206e6f74206f776044820152623732b960e91b60648201526084016105dc565b610c2c336008805480602002602001604051908101604052809291908181526020018280548015610c2157602002820191906000526020600020905b815481526020019060010190808311610c0d575b505050505083610efc565b600654604051636aa5dd7160e01b815260048101859052602481018490526001600160a01b0390911690636aa5dd7190604401600060405180830381600087803b158015610c7957600080fd5b505af1158015610c8d573d6000803e3d6000fd5b505060408051868152602081018690527f549cdf5da15129b72a0feab3af971de93f43bae8c4c308abca039291e66e1afe935001905060405180910390a1505050565b600a8181548110610ce057600080fd5b906000526020600020016000915090508054610cfb90612fca565b80601f0160208091040260200160405190810160405280929190818152602001828054610d2790612fca565b8015610d745780601f10610d4957610100808354040283529160200191610d74565b820191906000526020600020905b815481529060010190602001808311610d5757829003601f168201915b505050505081565b60608151835114610de15760405162461bcd60e51b815260206004820152602960248201527f455243313135353a206163636f756e747320616e6420696473206c656e677468604482015268040dad2e6dac2e8c6d60bb1b60648201526084016105dc565b600083516001600160401b03811115610e0a57634e487b7160e01b600052604160045260246000fd5b604051908082528060200260200182016040528015610e33578160200160208202803683370190505b50905060005b8451811015610ed557610e9a858281518110610e6557634e487b7160e01b600052603260045260246000fd5b6020026020010151858381518110610e8d57634e487b7160e01b600052603260045260246000fd5b6020026020010151610575565b828281518110610eba57634e487b7160e01b600052603260045260246000fd5b6020908102919091010152610ece81613031565b9050610e39565b509392505050565b610ee5611609565b8051610ef8906009906020840190612483565b5050565b6001600160a01b038316331480610f185750610f1883336104fb565b610f345760405162461bcd60e51b81526004016105dc90612d9a565b6106ea838383611a2c565b60098054610cfb90612fca565b610f54611609565b610f5e6000611be6565b565b60018210158015610f72575060038211155b610fcc5760405162461bcd60e51b815260206004820152602560248201527f45533a206f6e6c7920646f726d616e742073746f6e65732063616e20626520736044820152641d185ad95960da1b60648201526084016105dc565b600654604051630814786760e31b815260048101839052600091829182916001600160a01b0316906340a3c3389060240160606040518083038186803b15801561101557600080fd5b505afa158015611029573d6000803e3d6000fd5b505050506040513d601f19601f8201168201806040525081019061104d9190612831565b91945092509050336001600160a01b038416146110b85760405162461bcd60e51b815260206004820152602360248201527f45533a2063616e7420706169722077697468206769726c2e2e206e6f74206f776044820152623732b960e91b60648201526084016105dc565b81156111065760405162461bcd60e51b815260206004820152601b60248201527f45533a206769726c20697320616c7265616479207374616b696e67000000000060448201526064016105dc565b61113833600560009054906101000a90046001600160a01b031687600160405180602001604052806000815250611339565b600554604051636ea3404b60e11b8152336004820152602481018790526044810186905282871460648201526001600160a01b039091169063dd46809690608401600060405180830381600087803b15801561119357600080fd5b505af11580156111a7573d6000803e3d6000fd5b5050600654604051633f1ed70960e01b815260048101889052600160248201526001600160a01b039091169250633f1ed7099150604401600060405180830381600087803b1580156111f857600080fd5b505af115801561120c573d6000803e3d6000fd5b505050505050505050565b61121f611609565b600755565b61122c611609565b600680546001600160a01b0319166001600160a01b0392909216919091179055565b610ef8338383611c38565b611261611609565b600580546001600160a01b0319166001600160a01b0392909216919091179055565b606060006007546001600160401b038111156112af57634e487b7160e01b600052604160045260246000fd5b6040519080825280602002602001820160405280156112d8578160200160208202803683370190505b50905060005b600754811015611332576112f784610223836001612f66565b82828151811061131757634e487b7160e01b600052603260045260246000fd5b602090810291909101015261132b81613031565b90506112de565b5092915050565b6001600160a01b038516331480611355575061135585336104fb565b6113715760405162461bcd60e51b81526004016105dc90612d9a565b6109438585858585611d19565b611386611609565b6001600160a01b0381166113eb5760405162461bcd60e51b815260206004820152602660248201527f4f776e61626c653a206e6577206f776e657220697320746865207a65726f206160448201526564647265737360d01b60648201526084016105dc565b61083881611be6565b6001600160a01b038316331480611410575061141083336104fb565b61142c5760405162461bcd60e51b81526004016105dc90612d9a565b6106ea838383611e46565b60006001600160e01b03198216636cdb3d1360e11b148061146857506001600160e01b031982166303a24d0760e21b145b8061063057506301ffc9a760e01b6001600160e01b0319831614610630565b6060600061149483611f5e565b60010190506000816001600160401b038111156114c157634e487b7160e01b600052604160045260246000fd5b6040519080825280601f01601f1916602001820160405280156114eb576020820181803683370190505b5090508181016020015b600019016f181899199a1a9b1b9c1cb0b131b232b360811b600a86061a8153600a850494508461152457610ed5565b6114f5565b6001600160a01b03841661154f5760405162461bcd60e51b81526004016105dc90612f02565b33600061155b85612036565b9050600061156885612036565b90506115798360008985858961208f565b6000868152602081815260408083206001600160a01b038b168452909152812080548792906115a9908490612f66565b909155505060408051878152602081018790526001600160a01b03808a1692600092918716917fc3d58168c5ae7397731d063d5bbf3d657854427343f4c083240f7aacaa2d0f62910160405180910390a46107fc8360008989898961209d565b6004546001600160a01b03163314610f5e5760405162461bcd60e51b815260206004820181905260248201527f4f776e61626c653a2063616c6c6572206973206e6f7420746865206f776e657260448201526064016105dc565b6001600160a01b0381166116ce5760405162461bcd60e51b815260206004820152602c60248201527f526f79616c746965733a206e657720726563697069656e74206973207468652060448201526b7a65726f206164647265737360a01b60648201526084016105dc565b600e80546001600160a01b0319166001600160a01b0392909216919091179055565b6001600160a01b0384166117165760405162461bcd60e51b81526004016105dc90612f02565b81518351146117375760405162461bcd60e51b81526004016105dc90612eba565b336117478160008787878761208f565b60005b84518110156117fe5783818151811061177357634e487b7160e01b600052603260045260246000fd5b602002602001015160008087848151811061179e57634e487b7160e01b600052603260045260246000fd5b602002602001015181526020019081526020016000206000886001600160a01b03166001600160a01b0316815260200190815260200160002060008282546117e69190612f66565b909155508190506117f681613031565b91505061174a565b50846001600160a01b031660006001600160a01b0316826001600160a01b03167f4a39dc06d4c0dbc64b70af90fd698a233a518aa5d07e595d983b8c0526c8f7fb878760405161184f929190612cd6565b60405180910390a461094381600087878787612208565b81518351146118875760405162461bcd60e51b81526004016105dc90612eba565b6001600160a01b0384166118ad5760405162461bcd60e51b81526004016105dc90612de8565b336118bc81878787878761208f565b60005b84518110156119be5760008582815181106118ea57634e487b7160e01b600052603260045260246000fd5b60200260200101519050600085838151811061191657634e487b7160e01b600052603260045260246000fd5b602090810291909101810151600084815280835260408082206001600160a01b038e1683529093529190912054909150818110156119665760405162461bcd60e51b81526004016105dc90612e70565b6000838152602081815260408083206001600160a01b038e8116855292528083208585039055908b168252812080548492906119a3908490612f66565b92505081905550505050806119b790613031565b90506118bf565b50846001600160a01b0316866001600160a01b0316826001600160a01b03167f4a39dc06d4c0dbc64b70af90fd698a233a518aa5d07e595d983b8c0526c8f7fb8787604051611a0e929190612cd6565b60405180910390a4611a24818787878787612208565b505050505050565b6001600160a01b038316611a525760405162461bcd60e51b81526004016105dc90612e2d565b8051825114611a735760405162461bcd60e51b81526004016105dc90612eba565b6000339050611a968185600086866040518060200160405280600081525061208f565b60005b8351811015611b77576000848281518110611ac457634e487b7160e01b600052603260045260246000fd5b602002602001015190506000848381518110611af057634e487b7160e01b600052603260045260246000fd5b602090810291909101810151600084815280835260408082206001600160a01b038c168352909352919091205490915081811015611b405760405162461bcd60e51b81526004016105dc90612d56565b6000928352602083815260408085206001600160a01b038b1686529091529092209103905580611b6f81613031565b915050611a99565b5060006001600160a01b0316846001600160a01b0316826001600160a01b03167f4a39dc06d4c0dbc64b70af90fd698a233a518aa5d07e595d983b8c0526c8f7fb8686604051611bc8929190612cd6565b60405180910390a46040805160208101909152600090525b50505050565b600480546001600160a01b038381166001600160a01b0319831681179093556040519116919082907f8be0079c531659141344cd1fd0a4f28419497f9722a3daafe3b4186f6b6457e090600090a35050565b816001600160a01b0316836001600160a01b03161415611cac5760405162461bcd60e51b815260206004820152602960248201527f455243313135353a2073657474696e6720617070726f76616c20737461747573604482015268103337b91039b2b63360b91b60648201526084016105dc565b6001600160a01b03838116600081815260016020908152604080832094871680845294825291829020805460ff191686151590811790915591519182527f17307eab39ab6107e8899845ad3d59bd9653f200f220920489ca2b5937696c31910160405180910390a3505050565b6001600160a01b038416611d3f5760405162461bcd60e51b81526004016105dc90612de8565b336000611d4b85612036565b90506000611d5885612036565b9050611d6883898985858961208f565b6000868152602081815260408083206001600160a01b038c16845290915290205485811015611da95760405162461bcd60e51b81526004016105dc90612e70565b6000878152602081815260408083206001600160a01b038d8116855292528083208985039055908a16825281208054889290611de6908490612f66565b909155505060408051888152602081018890526001600160a01b03808b16928c821692918816917fc3d58168c5ae7397731d063d5bbf3d657854427343f4c083240f7aacaa2d0f62910160405180910390a461120c848a8a8a8a8a61209d565b6001600160a01b038316611e6c5760405162461bcd60e51b81526004016105dc90612e2d565b336000611e7884612036565b90506000611e8584612036565b9050611ea58387600085856040518060200160405280600081525061208f565b6000858152602081815260408083206001600160a01b038a16845290915290205484811015611ee65760405162461bcd60e51b81526004016105dc90612d56565b6000868152602081815260408083206001600160a01b038b81168086529184528285208a8703905582518b81529384018a90529092908816917fc3d58168c5ae7397731d063d5bbf3d657854427343f4c083240f7aacaa2d0f62910160405180910390a46040805160208101909152600090526107fc565b60008072184f03e93ff9f4daa797ed6e38ed64bf6a1f0160401b8310611f9d5772184f03e93ff9f4daa797ed6e38ed64bf6a1f0160401b830492506040015b6d04ee2d6d415b85acef81000000008310611fc9576d04ee2d6d415b85acef8100000000830492506020015b662386f26fc100008310611fe757662386f26fc10000830492506010015b6305f5e1008310611fff576305f5e100830492506008015b612710831061201357612710830492506004015b60648310612025576064830492506002015b600a83106106305760010192915050565b6040805160018082528183019092526060916000919060208083019080368337019050509050828160008151811061207e57634e487b7160e01b600052603260045260246000fd5b602090810291909101015292915050565b611a248686868686866122d2565b6001600160a01b0384163b15611a245760405163f23a6e6160e01b81526001600160a01b0385169063f23a6e61906120e19089908990889088908890600401612c7e565b602060405180830381600087803b1580156120fb57600080fd5b505af192505050801561212b575060408051601f3d908101601f1916820190925261212891810190612a56565b60015b6121d857612137613078565b806308c379a01415612171575061214c613090565b806121575750612173565b8060405162461bcd60e51b81526004016105dc9190612cfb565b505b60405162461bcd60e51b815260206004820152603460248201527f455243313135353a207472616e7366657220746f206e6f6e2d455243313135356044820152732932b1b2b4bb32b91034b6b83632b6b2b73a32b960611b60648201526084016105dc565b6001600160e01b0319811663f23a6e6160e01b146107fc5760405162461bcd60e51b81526004016105dc90612d0e565b6001600160a01b0384163b15611a245760405163bc197c8160e01b81526001600160a01b0385169063bc197c819061224c9089908990889088908890600401612c20565b602060405180830381600087803b15801561226657600080fd5b505af1925050508015612296575060408051601f3d908101601f1916820190925261229391810190612a56565b60015b6122a257612137613078565b6001600160e01b0319811663bc197c8160e01b146107fc5760405162461bcd60e51b81526004016105dc90612d0e565b6001600160a01b0385166123755760005b83518110156123735782818151811061230c57634e487b7160e01b600052603260045260246000fd5b60200260200101516003600086848151811061233857634e487b7160e01b600052603260045260246000fd5b60200260200101518152602001908152602001600020600082825461235d9190612f66565b9091555061236c905081613031565b90506122e3565b505b6001600160a01b038416611a245760005b83518110156107fc5760008482815181106123b157634e487b7160e01b600052603260045260246000fd5b6020026020010151905060008483815181106123dd57634e487b7160e01b600052603260045260246000fd5b60200260200101519050600060036000848152602001908152602001600020549050818110156124605760405162461bcd60e51b815260206004820152602860248201527f455243313135353a206275726e20616d6f756e74206578636565647320746f74604482015267616c537570706c7960c01b60648201526084016105dc565b6000928352600360205260409092209103905561247c81613031565b9050612386565b82805461248f90612fca565b90600052602060002090601f0160209004810192826124b157600085556124f7565b82601f106124ca57805160ff19168380011785556124f7565b828001600101855582156124f7579182015b828111156124f75782518255916020019190600101906124dc565b50612503929150612507565b5090565b5b808211156125035760008155600101612508565b60006001600160401b0383111561253557612535613062565b60405161254c601f8501601f191660200182613005565b80915083815284848401111561256157600080fd5b83836020830137600060208583010152509392505050565b600082601f830112612589578081fd5b8135602061259682612f43565b6040516125a38282613005565b8381528281019150858301600585901b870184018810156125c2578586fd5b855b858110156125e0578135845292840192908401906001016125c4565b5090979650505050505050565b600082601f8301126125fd578081fd5b61260c8383356020850161251c565b9392505050565b600060208284031215612624578081fd5b813561260c81613119565b600060208284031215612640578081fd5b815161260c81613119565b6000806040838503121561265d578081fd5b823561266881613119565b9150602083013561267881613119565b809150509250929050565b600080600080600060a0868803121561269a578081fd5b85356126a581613119565b945060208601356126b581613119565b935060408601356001600160401b03808211156126d0578283fd5b6126dc89838a01612579565b945060608801359150808211156126f1578283fd5b6126fd89838a01612579565b93506080880135915080821115612712578283fd5b5061271f888289016125ed565b9150509295509295909350565b600080600080600060a08688031215612743578081fd5b853561274e81613119565b9450602086013561275e81613119565b9350604086013592506060860135915060808601356001600160401b03811115612786578182fd5b61271f888289016125ed565b6000806000606084860312156127a6578081fd5b83356127b181613119565b925060208401356001600160401b03808211156127cc578283fd5b6127d887838801612579565b935060408601359150808211156127ed578283fd5b506127fa86828701612579565b9150509250925092565b60008060408385031215612816578182fd5b823561282181613119565b915060208301356126788161312e565b600080600060608486031215612845578081fd5b835161285081613119565b60208501519093506128618161312e565b80925050604084015190509250925092565b60008060408385031215612885578182fd5b823561289081613119565b946020939093013593505050565b6000806000606084860312156128b2578081fd5b83356128bd81613119565b95602085013595506040909401359392505050565b600080604083850312156128e4578182fd5b82356001600160401b03808211156128fa578384fd5b818501915085601f83011261290d578384fd5b8135602061291a82612f43565b6040516129278282613005565b8381528281019150858301600585901b870184018b1015612946578889fd5b8896505b8487101561297157803561295d81613119565b83526001969096019591830191830161294a565b5096505086013592505080821115612987578283fd5b5061299485828601612579565b9150509250929050565b600060208083850312156129b0578182fd5b82516001600160401b038111156129c5578283fd5b8301601f810185136129d5578283fd5b80516129e081612f43565b6040516129ed8282613005565b8281528481019150838501600584901b85018601891015612a0c578687fd5b8694505b83851015612a2e578051835260019490940193918501918501612a10565b50979650505050505050565b600060208284031215612a4b578081fd5b813561260c8161313c565b600060208284031215612a67578081fd5b815161260c8161313c565b600060208284031215612a83578081fd5b81356001600160401b03811115612a98578182fd5b8201601f81018413612aa8578182fd5b612ab78482356020840161251c565b949350505050565b600060208284031215612ad0578081fd5b5035919050565b60008060408385031215612ae9578182fd5b50508035926020909101359150565b6000815180845260208085019450808401835b83811015612b2757815187529582019590820190600101612b0b565b509495945050505050565b60008151808452612b4a816020860160208601612f9e565b601f01601f19169290920160200192915050565b60008151612b70818560208601612f9e565b9290920192915050565b600080845482600182811c915080831680612b9657607f831692505b6020808410821415612bb657634e487b7160e01b87526022600452602487fd5b818015612bca5760018114612bdb57612c07565b60ff19861689528489019650612c07565b60008b815260209020885b86811015612bff5781548b820152908501908301612be6565b505084890196505b505050505050612c178185612b5e565b95945050505050565b6001600160a01b0386811682528516602082015260a060408201819052600090612c4c90830186612af8565b8281036060840152612c5e8186612af8565b90508281036080840152612c728185612b32565b98975050505050505050565b6001600160a01b03868116825285166020820152604081018490526060810183905260a060808201819052600090612cb890830184612b32565b979650505050505050565b60208152600061260c6020830184612af8565b604081526000612ce96040830185612af8565b8281036020840152612c178185612af8565b60208152600061260c6020830184612b32565b60208082526028908201527f455243313135353a204552433131353552656365697665722072656a656374656040820152676420746f6b656e7360c01b606082015260800190565b60208082526024908201527f455243313135353a206275726e20616d6f756e7420657863656564732062616c604082015263616e636560e01b606082015260800190565b6020808252602e908201527f455243313135353a2063616c6c6572206973206e6f7420746f6b656e206f776e60408201526d195c881bdc88185c1c1c9bdd995960921b606082015260800190565b60208082526025908201527f455243313135353a207472616e7366657220746f20746865207a65726f206164604082015264647265737360d81b606082015260800190565b60208082526023908201527f455243313135353a206275726e2066726f6d20746865207a65726f206164647260408201526265737360e81b606082015260800190565b6020808252602a908201527f455243313135353a20696e73756666696369656e742062616c616e636520666f60408201526939103a3930b739b332b960b11b606082015260800190565b60208082526028908201527f455243313135353a2069647320616e6420616d6f756e7473206c656e677468206040820152670dad2e6dac2e8c6d60c31b606082015260800190565b60208082526021908201527f455243313135353a206d696e7420746f20746865207a65726f206164647265736040820152607360f81b606082015260800190565b60006001600160401b03821115612f5c57612f5c613062565b5060051b60200190565b60008219821115612f7957612f7961304c565b500190565b600082612f9957634e487b7160e01b81526012600452602481fd5b500490565b60005b83811015612fb9578181015183820152602001612fa1565b83811115611be05750506000910152565b600181811c90821680612fde57607f821691505b60208210811415612fff57634e487b7160e01b600052602260045260246000fd5b50919050565b601f8201601f191681016001600160401b038111828210171561302a5761302a613062565b6040525050565b60006000198214156130455761304561304c565b5060010190565b634e487b7160e01b600052601160045260246000fd5b634e487b7160e01b600052604160045260246000fd5b600060033d111561308d57600481823e5160e01c5b90565b600060443d101561309e5790565b6040516003193d81016004833e81513d6001600160401b0381602484011181841117156130cd57505050505090565b82850191508151818111156130e55750505050505090565b843d87010160208285010111156130ff5750505050505090565b61310e60208286010187613005565b509095945050505050565b6001600160a01b038116811461083857600080fd5b801515811461083857600080fd5b6001600160e01b03198116811461083857600080fdfea2646970667358221220988f57de95f053ae7b66dc1a6b1579f4fd5cb30e429f54253f2b95e0e05cd33264736f6c63430008040033",
  "linkReferences": {},
  "deployedLinkReferences": {}
}