{
  "_format": "hh-sol-artifact-1",
  "contractName": "ElementalStone",
  "sourceName": "contracts/Gacha/ElementalStone.sol",
  "abi": [
    {
      "inputs": [
        {
          "internalType": "address",
          "name": "_gachaMachine",
          "type": "address"
        },
        {
          "internalType": "address",
          "name": "_girl",
          "type": "address"
        }
      ],
      "stateMutability": "nonpayable",
      "type": "constructor"
    },
    {
      "anonymous": false,
      "inputs": [
        {
          "indexed": true,
          "internalType": "address",
          "name": "account",
          "type": "address"
        },
        {
          "indexed": true,
          "internalType": "address",
          "name": "operator",
          "type": "address"
        },
        {
          "indexed": false,
          "internalType": "bool",
          "name": "approved",
          "type": "bool"
        }
      ],
      "name": "ApprovalForAll",
      "type": "event"
    },
    {
      "anonymous": false,
      "inputs": [
        {
          "indexed": true,
          "internalType": "address",
          "name": "previousOwner",
          "type": "address"
        },
        {
          "indexed": true,
          "internalType": "address",
          "name": "newOwner",
          "type": "address"
        }
      ],
      "name": "OwnershipTransferred",
      "type": "event"
    },
    {
      "anonymous": false,
      "inputs": [
        {
          "indexed": true,
          "internalType": "address",
          "name": "operator",
          "type": "address"
        },
        {
          "indexed": true,
          "internalType": "address",
          "name": "from",
          "type": "address"
        },
        {
          "indexed": true,
          "internalType": "address",
          "name": "to",
          "type": "address"
        },
        {
          "indexed": false,
          "internalType": "uint256[]",
          "name": "ids",
          "type": "uint256[]"
        },
        {
          "indexed": false,
          "internalType": "uint256[]",
          "name": "values",
          "type": "uint256[]"
        }
      ],
      "name": "TransferBatch",
      "type": "event"
    },
    {
      "anonymous": false,
      "inputs": [
        {
          "indexed": true,
          "internalType": "address",
          "name": "operator",
          "type": "address"
        },
        {
          "indexed": true,
          "internalType": "address",
          "name": "from",
          "type": "address"
        },
        {
          "indexed": true,
          "internalType": "address",
          "name": "to",
          "type": "address"
        },
        {
          "indexed": false,
          "internalType": "uint256",
          "name": "id",
          "type": "uint256"
        },
        {
          "indexed": false,
          "internalType": "uint256",
          "name": "value",
          "type": "uint256"
        }
      ],
      "name": "TransferSingle",
      "type": "event"
    },
    {
      "anonymous": false,
      "inputs": [
        {
          "indexed": false,
          "internalType": "string",
          "name": "value",
          "type": "string"
        },
        {
          "indexed": true,
          "internalType": "uint256",
          "name": "id",
          "type": "uint256"
        }
      ],
      "name": "URI",
      "type": "event"
    },
    {
      "inputs": [
        {
          "internalType": "address",
          "name": "account",
          "type": "address"
        },
        {
          "internalType": "uint256",
          "name": "id",
          "type": "uint256"
        },
        {
          "internalType": "uint256",
          "name": "girlId",
          "type": "uint256"
        }
      ],
      "name": "attune",
      "outputs": [],
      "stateMutability": "nonpayable",
      "type": "function"
    },
    {
      "inputs": [],
      "name": "attunement",
      "outputs": [
        {
          "internalType": "contract IAttunement",
          "name": "",
          "type": "address"
        }
      ],
      "stateMutability": "view",
      "type": "function"
    },
    {
      "inputs": [
        {
          "internalType": "address",
          "name": "account",
          "type": "address"
        },
        {
          "internalType": "uint256",
          "name": "id",
          "type": "uint256"
        }
      ],
      "name": "balanceOf",
      "outputs": [
        {
          "internalType": "uint256",
          "name": "",
          "type": "uint256"
        }
      ],
      "stateMutability": "view",
      "type": "function"
    },
    {
      "inputs": [
        {
          "internalType": "address[]",
          "name": "accounts",
          "type": "address[]"
        },
        {
          "internalType": "uint256[]",
          "name": "ids",
          "type": "uint256[]"
        }
      ],
      "name": "balanceOfBatch",
      "outputs": [
        {
          "internalType": "uint256[]",
          "name": "",
          "type": "uint256[]"
        }
      ],
      "stateMutability": "view",
      "type": "function"
    },
    {
      "inputs": [],
      "name": "baseURI",
      "outputs": [
        {
          "internalType": "string",
          "name": "",
          "type": "string"
        }
      ],
      "stateMutability": "view",
      "type": "function"
    },
    {
      "inputs": [
        {
          "internalType": "address",
          "name": "account",
          "type": "address"
        },
        {
          "internalType": "uint256",
          "name": "id",
          "type": "uint256"
        },
        {
          "internalType": "uint256",
          "name": "value",
          "type": "uint256"
        }
      ],
      "name": "burn",
      "outputs": [],
      "stateMutability": "nonpayable",
      "type": "function"
    },
    {
      "inputs": [
        {
          "internalType": "address",
          "name": "account",
          "type": "address"
        },
        {
          "internalType": "uint256[]",
          "name": "ids",
          "type": "uint256[]"
        },
        {
          "internalType": "uint256[]",
          "name": "values",
          "type": "uint256[]"
        }
      ],
      "name": "burnBatch",
      "outputs": [],
      "stateMutability": "nonpayable",
      "type": "function"
    },
    {
      "inputs": [
        {
          "internalType": "uint256",
          "name": "",
          "type": "uint256"
        }
      ],
      "name": "elementString",
      "outputs": [
        {
          "internalType": "string",
          "name": "",
          "type": "string"
        }
      ],
      "stateMutability": "view",
      "type": "function"
    },
    {
      "inputs": [
        {
          "internalType": "uint256",
          "name": "id",
          "type": "uint256"
        }
      ],
      "name": "exists",
      "outputs": [
        {
          "internalType": "bool",
          "name": "",
          "type": "bool"
        }
      ],
      "stateMutability": "view",
      "type": "function"
    },
    {
      "inputs": [
        {
          "internalType": "address",
          "name": "_user",
          "type": "address"
        }
      ],
      "name": "getWalletBalance",
      "outputs": [
        {
          "internalType": "uint256[]",
          "name": "",
          "type": "uint256[]"
        }
      ],
      "stateMutability": "view",
      "type": "function"
    },
    {
      "inputs": [],
      "name": "girl",
      "outputs": [
        {
          "internalType": "contract IGirl",
          "name": "",
          "type": "address"
        }
      ],
      "stateMutability": "view",
      "type": "function"
    },
    {
      "inputs": [
        {
          "internalType": "address",
          "name": "account",
          "type": "address"
        },
        {
          "internalType": "address",
          "name": "operator",
          "type": "address"
        }
      ],
      "name": "isApprovedForAll",
      "outputs": [
        {
          "internalType": "bool",
          "name": "",
          "type": "bool"
        }
      ],
      "stateMutability": "view",
      "type": "function"
    },
    {
      "inputs": [
        {
          "internalType": "address",
          "name": "",
          "type": "address"
        }
      ],
      "name": "isGachaMachine",
      "outputs": [
        {
          "internalType": "bool",
          "name": "",
          "type": "bool"
        }
      ],
      "stateMutability": "view",
      "type": "function"
    },
    {
      "inputs": [],
      "name": "marketplace",
      "outputs": [
        {
          "internalType": "contract IESMarketplace",
          "name": "",
          "type": "address"
        }
      ],
      "stateMutability": "view",
      "type": "function"
    },
    {
      "inputs": [
        {
          "internalType": "address",
          "name": "account",
          "type": "address"
        }
      ],
      "name": "mint",
      "outputs": [
        {
          "internalType": "string",
          "name": "",
          "type": "string"
        }
      ],
      "stateMutability": "nonpayable",
      "type": "function"
    },
    {
      "inputs": [
        {
          "internalType": "address",
          "name": "_to",
          "type": "address"
        }
      ],
      "name": "mintDev",
      "outputs": [],
      "stateMutability": "nonpayable",
      "type": "function"
    },
    {
      "inputs": [],
      "name": "owner",
      "outputs": [
        {
          "internalType": "address",
          "name": "",
          "type": "address"
        }
      ],
      "stateMutability": "view",
      "type": "function"
    },
    {
      "inputs": [],
      "name": "renounceOwnership",
      "outputs": [],
      "stateMutability": "nonpayable",
      "type": "function"
    },
    {
      "inputs": [
        {
          "internalType": "address",
          "name": "from",
          "type": "address"
        },
        {
          "internalType": "address",
          "name": "to",
          "type": "address"
        },
        {
          "internalType": "uint256[]",
          "name": "ids",
          "type": "uint256[]"
        },
        {
          "internalType": "uint256[]",
          "name": "amounts",
          "type": "uint256[]"
        },
        {
          "internalType": "bytes",
          "name": "data",
          "type": "bytes"
        }
      ],
      "name": "safeBatchTransferFrom",
      "outputs": [],
      "stateMutability": "nonpayable",
      "type": "function"
    },
    {
      "inputs": [
        {
          "internalType": "address",
          "name": "from",
          "type": "address"
        },
        {
          "internalType": "address",
          "name": "to",
          "type": "address"
        },
        {
          "internalType": "uint256",
          "name": "id",
          "type": "uint256"
        },
        {
          "internalType": "uint256",
          "name": "amount",
          "type": "uint256"
        },
        {
          "internalType": "bytes",
          "name": "data",
          "type": "bytes"
        }
      ],
      "name": "safeTransferFrom",
      "outputs": [],
      "stateMutability": "nonpayable",
      "type": "function"
    },
    {
      "inputs": [
        {
          "internalType": "uint256",
          "name": "id",
          "type": "uint256"
        },
        {
          "internalType": "uint256",
          "name": "price",
          "type": "uint256"
        }
      ],
      "name": "sellNFT",
      "outputs": [],
      "stateMutability": "nonpayable",
      "type": "function"
    },
    {
      "inputs": [
        {
          "internalType": "address",
          "name": "operator",
          "type": "address"
        },
        {
          "internalType": "bool",
          "name": "approved",
          "type": "bool"
        }
      ],
      "name": "setApprovalForAll",
      "outputs": [],
      "stateMutability": "nonpayable",
      "type": "function"
    },
    {
      "inputs": [
        {
          "internalType": "address",
          "name": "_contract",
          "type": "address"
        }
      ],
      "name": "setAttunementContract",
      "outputs": [],
      "stateMutability": "nonpayable",
      "type": "function"
    },
    {
      "inputs": [
        {
          "internalType": "string",
          "name": "newBaseURI",
          "type": "string"
        }
      ],
      "name": "setBaseURI",
      "outputs": [],
      "stateMutability": "nonpayable",
      "type": "function"
    },
    {
      "inputs": [
        {
          "internalType": "address",
          "name": "_contract",
          "type": "address"
        }
      ],
      "name": "setGachaMachineContract",
      "outputs": [],
      "stateMutability": "nonpayable",
      "type": "function"
    },
    {
      "inputs": [
        {
          "internalType": "address",
          "name": "_girl",
          "type": "address"
        }
      ],
      "name": "setGirlContract",
      "outputs": [],
      "stateMutability": "nonpayable",
      "type": "function"
    },
    {
      "inputs": [
        {
          "internalType": "address",
          "name": "_contract",
          "type": "address"
        }
      ],
      "name": "setMarketplaceContract",
      "outputs": [],
      "stateMutability": "nonpayable",
      "type": "function"
    },
    {
      "inputs": [
        {
          "internalType": "uint256",
          "name": "newCount",
          "type": "uint256"
        }
      ],
      "name": "setTokenCount",
      "outputs": [],
      "stateMutability": "nonpayable",
      "type": "function"
    },
    {
      "inputs": [
        {
          "internalType": "uint256",
          "name": "id",
          "type": "uint256"
        },
        {
          "internalType": "uint256",
          "name": "girlId",
          "type": "uint256"
        }
      ],
      "name": "stake",
      "outputs": [],
      "stateMutability": "nonpayable",
      "type": "function"
    },
    {
      "inputs": [
        {
          "internalType": "bytes4",
          "name": "interfaceId",
          "type": "bytes4"
        }
      ],
      "name": "supportsInterface",
      "outputs": [
        {
          "internalType": "bool",
          "name": "",
          "type": "bool"
        }
      ],
      "stateMutability": "view",
      "type": "function"
    },
    {
      "inputs": [
        {
          "internalType": "uint256",
          "name": "id",
          "type": "uint256"
        }
      ],
      "name": "totalSupply",
      "outputs": [
        {
          "internalType": "uint256",
          "name": "",
          "type": "uint256"
        }
      ],
      "stateMutability": "view",
      "type": "function"
    },
    {
      "inputs": [
        {
          "internalType": "address",
          "name": "newOwner",
          "type": "address"
        }
      ],
      "name": "transferOwnership",
      "outputs": [],
      "stateMutability": "nonpayable",
      "type": "function"
    },
    {
      "inputs": [
        {
          "internalType": "uint256",
          "name": "id",
          "type": "uint256"
        },
        {
          "internalType": "uint256",
          "name": "toTier",
          "type": "uint256"
        }
      ],
      "name": "upgradeCosmicLevel",
      "outputs": [],
      "stateMutability": "nonpayable",
      "type": "function"
    },
    {
      "inputs": [
        {
          "internalType": "uint256",
          "name": "",
          "type": "uint256"
        }
      ],
      "name": "upgradeIDs",
      "outputs": [
        {
          "internalType": "uint256",
          "name": "",
          "type": "uint256"
        }
      ],
      "stateMutability": "view",
      "type": "function"
    },
    {
      "inputs": [
        {
          "internalType": "uint256",
          "name": "_tokenID",
          "type": "uint256"
        }
      ],
      "name": "uri",
      "outputs": [
        {
          "internalType": "string",
          "name": "",
          "type": "string"
        }
      ],
      "stateMutability": "view",
      "type": "function"
    }
  ],
  "bytecode": "0x6006600881905560e060405260046080908152600560a05260c0919091526200002d9060099060036200032c565b50604051806080016040528060405180602001604052806000815250815260200160405180604001604052806005815260200164466c616d6560d81b815250815260200160405180604001604052806005815260200164546572726160d81b8152508152602001604051806040016040528060048152602001634171756160e01b815250815250600b906004620000c692919062000381565b506040805160c08101825260018152600260208201526003918101919091526004606082015260056080820152600660a082018190526200010a91600d916200032c565b506040805160c081018252600180825260208201819052918101829052606081018290526080810182905260a08101919091526200014d90600e9060066200032c565b503480156200015b57600080fd5b50604051620037c6380380620037c68339810160408190526200017e91620004f5565b60408051808201909152600f81526e456c656d656e74616c2053746f6e6560881b6020820152620001af8162000215565b50620001bb336200022e565b6001600160a01b0382166000908152600c60205260409020805460ff19166001179055620001e98162000280565b6200020d6040518060600160405280602e815260200162003798602e9139620002ac565b505062000569565b80516200022a906002906020840190620003e1565b5050565b600480546001600160a01b038381166001600160a01b0319831681179093556040519116919082907f8be0079c531659141344cd1fd0a4f28419497f9722a3daafe3b4186f6b6457e090600090a35050565b6200028a620002cb565b600780546001600160a01b0319166001600160a01b0392909216919091179055565b620002b6620002cb565b80516200022a90600a906020840190620003e1565b6004546001600160a01b031633146200032a5760405162461bcd60e51b815260206004820181905260248201527f4f776e61626c653a2063616c6c6572206973206e6f7420746865206f776e6572604482015260640160405180910390fd5b565b8280548282559060005260206000209081019282156200036f579160200282015b828111156200036f578251829060ff169055916020019190600101906200034d565b506200037d9291506200045e565b5090565b828054828255906000526020600020908101928215620003d3579160200282015b82811115620003d35782518051620003c2918491602090910190620003e1565b5091602001919060010190620003a2565b506200037d92915062000475565b828054620003ef906200052c565b90600052602060002090601f0160209004810192826200041357600085556200036f565b82601f106200042e57805160ff19168380011785556200036f565b828001600101855582156200036f579182015b828111156200036f57825182559160200191906001019062000441565b5b808211156200037d57600081556001016200045f565b808211156200037d5760006200048c828262000496565b5060010162000475565b508054620004a4906200052c565b6000825580601f10620004b5575050565b601f016020900490600052602060002090810190620004d591906200045e565b50565b80516001600160a01b0381168114620004f057600080fd5b919050565b6000806040838503121562000508578182fd5b6200051383620004d8565b91506200052360208401620004d8565b90509250929050565b600181811c908216806200054157607f821691505b602082108114156200056357634e487b7160e01b600052602260045260246000fd5b50919050565b61321f80620005796000396000f3fe608060405234801561001057600080fd5b50600436106102105760003560e01c80636a62784211610125578063a22cb465116100ad578063e985e9c51161007c578063e985e9c5146104ba578063ed8ec194146104f6578063f242432a14610509578063f2fde38b1461051c578063f5298aca1461052f57600080fd5b8063a22cb46514610461578063a388237d14610474578063abc8c7af14610487578063bd85b0391461049a57600080fd5b80637b0472f0116100f45780637b0472f0146104045780637b435a651461041757806384eda5441461042a5780638da5cb5b1461043d57806391a48a1e1461044e57600080fd5b80636a627842146103ce5780636b20c454146103e15780636c0360eb146103f4578063715018a6146103fc57600080fd5b80632eb2c2d6116101a85780634c7b7c6f116101775780634c7b7c6f146103535780634d683d08146103665780634e1273f4146103795780634f558e791461039957806355f804b3146103bb57600080fd5b80632eb2c2d6146102f75780633318f1a51461030a578063348a2c3c1461031d5780633c22ae5a1461033057600080fd5b80631102610e116101e45780631102610e146102a95780631c253155146102be5780631ce57c00146102d15780632c8296f3146102e457600080fd5b8062fdd58e1461021557806301ffc9a71461023b5780630e89341c1461025e5780630f3b899b1461027e575b600080fd5b6102286102233660046128dc565b610542565b6040519081526020015b60405180910390f35b61024e610249366004612aa3565b6105d8565b6040519015158152602001610232565b61027161026c366004612b20565b61062a565b6040516102329190612d5c565b600654610291906001600160a01b031681565b6040516001600160a01b039091168152602001610232565b6102bc6102b736600461267c565b610664565b005b6102bc6102cc36600461267c565b61068e565b6102bc6102df366004612907565b6106ba565b6102bc6102f236600461267c565b6107a5565b6102bc6103053660046126ec565b61086b565b600754610291906001600160a01b031681565b61022861032b366004612b20565b6108b7565b61024e61033e36600461267c565b600c6020526000908152604090205460ff1681565b6102bc610361366004612b38565b6108d8565b610271610374366004612b20565b610bd1565b61038c61038736600461293b565b610c7d565b6040516102329190612d24565b61024e6103a7366004612b20565b600090815260036020526040902054151590565b6102bc6103c9366004612adb565b610dde565b6102716103dc36600461267c565b610dfd565b6102bc6103ef3660046127fb565b610f43565b610271610f8b565b6102bc610f98565b6102bc610412366004612b38565b610fac565b6102bc610425366004612b20565b611263565b6102bc61043836600461267c565b611270565b6004546001600160a01b0316610291565b6102bc61045c366004612b38565b61129a565b6102bc61046f36600461286d565b6113a9565b6102bc61048236600461267c565b6113b4565b600554610291906001600160a01b031681565b6102286104a8366004612b20565b60009081526003602052604090205490565b61024e6104c83660046126b4565b6001600160a01b03918216600090815260016020908152604080832093909416825291909152205460ff1690565b61038c61050436600461267c565b6113de565b6102bc610517366004612795565b611494565b6102bc61052a36600461267c565b6114d9565b6102bc61053d366004612907565b61154f565b60006001600160a01b0383166105b25760405162461bcd60e51b815260206004820152602a60248201527f455243313135353a2061646472657373207a65726f206973206e6f742061207660448201526930b634b21037bbb732b960b11b60648201526084015b60405180910390fd5b506000908152602081815260408083206001600160a01b03949094168352929052205490565b60006001600160e01b03198216636cdb3d1360e11b148061060957506001600160e01b031982166303a24d0760e21b145b8061062457506301ffc9a760e01b6001600160e01b03198316145b92915050565b6060600061063783611592565b9050600a8160405160200161064d929190612bdb565b604051602081830303815290604052915050919050565b61066c6116b3565b600580546001600160a01b0319166001600160a01b0392909216919091179055565b6106966116b3565b6001600160a01b03166000908152600c60205260409020805460ff19166001179055565b6006546001600160a01b031633146107145760405162461bcd60e51b815260206004820152601a60248201527f4f6e6c7920617474756e656d656e742063616e20617474756e6500000000000060448201526064016105a9565b61073a83610723846003612fc8565b60016040518060200160405280600081525061170d565b600754604051633f1ed70960e01b815260048101839052600060248201526001600160a01b0390911690633f1ed709906044015b600060405180830381600087803b15801561078857600080fd5b505af115801561079c573d6000803e3d6000fd5b50505050505050565b6107ad6116b3565b61086881600d8054806020026020016040519081016040528092919081815260200182805480156107fd57602002820191906000526020600020905b8154815260200190600101908083116107e9575b5050505050600e80548060200260200160405190810160405280929190818152602001828054801561084e57602002820191906000526020600020905b81548152602001906001019080831161083a575b5050505050604051806020016040528060008152506117ed565b50565b6001600160a01b038516331480610887575061088785336104c8565b6108a35760405162461bcd60e51b81526004016105a990612d6f565b6108b08585858585611963565b5050505050565b600981815481106108c757600080fd5b600091825260209091200154905081565b600754604051631fba62cb60e11b815260048101849052602481018390526000916001600160a01b031690633f74c5969060440160006040518083038186803b15801561092457600080fd5b505afa158015610938573d6000803e3d6000fd5b505050506040513d6000823e601f3d908101601f191682016040526109609190810190612a07565b90508060008151811061098357634e487b7160e01b600052603260045260246000fd5b6020026020010151610996336004610542565b101580156109d65750806001815181106109c057634e487b7160e01b600052603260045260246000fd5b60200260200101516109d3336005610542565b10155b8015610a145750806002815181106109fe57634e487b7160e01b600052603260045260246000fd5b6020026020010151610a11336006610542565b10155b610a605760405162461bcd60e51b815260206004820152601a60248201527f557067726164653a206e6f7420656e6f7567682073746f6e657300000000000060448201526064016105a9565b6007546040516331a9108f60e11b81526004810185905233916001600160a01b031690636352211e9060240160206040518083038186803b158015610aa457600080fd5b505afa158015610ab8573d6000803e3d6000fd5b505050506040513d601f19601f82011682018060405250810190610adc9190612698565b6001600160a01b031614610b3e5760405162461bcd60e51b815260206004820152602360248201527f456c656d656e74616c3a20757067726164652063616c6c6572206e6f74206f776044820152623732b960e91b60648201526084016105a9565b610b99336009805480602002602001604051908101604052809291908181526020018280548015610b8e57602002820191906000526020600020905b815481526020019060010190808311610b7a575b505050505083610f43565b600754604051636aa5dd7160e01b815260048101859052602481018490526001600160a01b0390911690636aa5dd719060440161076e565b600b8181548110610be157600080fd5b906000526020600020016000915090508054610bfc90613037565b80601f0160208091040260200160405190810160405280929190818152602001828054610c2890613037565b8015610c755780601f10610c4a57610100808354040283529160200191610c75565b820191906000526020600020905b815481529060010190602001808311610c5857829003601f168201915b505050505081565b60608151835114610ce25760405162461bcd60e51b815260206004820152602960248201527f455243313135353a206163636f756e747320616e6420696473206c656e677468604482015268040dad2e6dac2e8c6d60bb1b60648201526084016105a9565b600083516001600160401b03811115610d0b57634e487b7160e01b600052604160045260246000fd5b604051908082528060200260200182016040528015610d34578160200160208202803683370190505b50905060005b8451811015610dd657610d9b858281518110610d6657634e487b7160e01b600052603260045260246000fd5b6020026020010151858381518110610d8e57634e487b7160e01b600052603260045260246000fd5b6020026020010151610542565b828281518110610dbb57634e487b7160e01b600052603260045260246000fd5b6020908102919091010152610dcf8161309e565b9050610d3a565b509392505050565b610de66116b3565b8051610df990600a9060208401906124ec565b5050565b336000908152600c602052604090205460609060ff16610e5f5760405162461bcd60e51b815260206004820152601b60248201527f4f6e6c79206761636861206d616368696e652063616e206d696e74000000000060448201526064016105a9565b6000610e69611b21565b9050610e87838260016040518060200160405280600081525061170d565b600b8181548110610ea857634e487b7160e01b600052603260045260246000fd5b906000526020600020018054610ebd90613037565b80601f0160208091040260200160405190810160405280929190818152602001828054610ee990613037565b8015610f365780601f10610f0b57610100808354040283529160200191610f36565b820191906000526020600020905b815481529060010190602001808311610f1957829003601f168201915b5050505050915050919050565b6001600160a01b038316331480610f5f5750610f5f83336104c8565b610f7b5760405162461bcd60e51b81526004016105a990612d6f565b610f86838383611b6d565b505050565b600a8054610bfc90613037565b610fa06116b3565b610faa6000611d27565b565b60018210158015610fbe575060038211155b6110185760405162461bcd60e51b815260206004820152602560248201527f45533a206f6e6c7920646f726d616e742073746f6e65732063616e20626520736044820152641d185ad95960da1b60648201526084016105a9565b600754604051630814786760e31b815260048101839052600091829182916001600160a01b0316906340a3c3389060240160606040518083038186803b15801561106157600080fd5b505afa158015611075573d6000803e3d6000fd5b505050506040513d601f19601f82011682018060405250810190611099919061289a565b91945092509050336001600160a01b038416146111045760405162461bcd60e51b815260206004820152602360248201527f45533a2063616e7420706169722077697468206769726c2e2e206e6f74206f776044820152623732b960e91b60648201526084016105a9565b81156111525760405162461bcd60e51b815260206004820152601b60248201527f45533a206769726c20697320616c7265616479207374616b696e67000000000060448201526064016105a9565b61118433600660009054906101000a90046001600160a01b031687600160405180602001604052806000815250611494565b600654604051636ea3404b60e11b8152336004820152602481018790526044810186905282871460648201526001600160a01b039091169063dd46809690608401600060405180830381600087803b1580156111df57600080fd5b505af11580156111f3573d6000803e3d6000fd5b5050600754604051633f1ed70960e01b815260048101889052600160248201526001600160a01b039091169250633f1ed7099150604401600060405180830381600087803b15801561124457600080fd5b505af1158015611258573d6000803e3d6000fd5b505050505050505050565b61126b6116b3565b600855565b6112786116b3565b600780546001600160a01b0319166001600160a01b0392909216919091179055565b670de0b6b3a76400008110156113085760405162461bcd60e51b815260206004820152602d60248201527f456c656d656e74616c2053746f6e653a207072696365206d757374206265206160448201526c74206c6561737420312041524360981b60648201526084016105a9565b61133a33600560009054906101000a90046001600160a01b031684600160405180602001604052806000815250611494565b60055460405163f779a19360e01b815233600482015260248101849052604481018390526001600160a01b039091169063f779a19390606401600060405180830381600087803b15801561138d57600080fd5b505af11580156113a1573d6000803e3d6000fd5b505050505050565b610df9338383611d79565b6113bc6116b3565b600680546001600160a01b0319166001600160a01b0392909216919091179055565b606060006008546001600160401b0381111561140a57634e487b7160e01b600052604160045260246000fd5b604051908082528060200260200182016040528015611433578160200160208202803683370190505b50905060005b60085481101561148d5761145284610223836001612fc8565b82828151811061147257634e487b7160e01b600052603260045260246000fd5b60209081029190910101526114868161309e565b9050611439565b5092915050565b6001600160a01b0385163314806114b057506114b085336104c8565b6114cc5760405162461bcd60e51b81526004016105a990612d6f565b6108b08585858585611e5a565b6114e16116b3565b6001600160a01b0381166115465760405162461bcd60e51b815260206004820152602660248201527f4f776e61626c653a206e6577206f776e657220697320746865207a65726f206160448201526564647265737360d01b60648201526084016105a9565b61086881611d27565b6001600160a01b03831633148061156b575061156b83336104c8565b6115875760405162461bcd60e51b81526004016105a990612d6f565b610f86838383611f87565b6060816115b65750506040805180820190915260018152600360fc1b602082015290565b8160005b81156115e057806115ca8161309e565b91506115d99050600a83612fe0565b91506115ba565b6000816001600160401b0381111561160857634e487b7160e01b600052604160045260246000fd5b6040519080825280601f01601f191660200182016040528015611632576020820181803683370190505b5090505b84156116ab57611647600183612ff4565b9150611654600a866130b9565b61165f906030612fc8565b60f81b81838151811061168257634e487b7160e01b600052603260045260246000fd5b60200101906001600160f81b031916908160001a9053506116a4600a86612fe0565b9450611636565b949350505050565b6004546001600160a01b03163314610faa5760405162461bcd60e51b815260206004820181905260248201527f4f776e61626c653a2063616c6c6572206973206e6f7420746865206f776e657260448201526064016105a9565b6001600160a01b0384166117335760405162461bcd60e51b81526004016105a990612f64565b33600061173f8561209f565b9050600061174c8561209f565b905061175d836000898585896120f8565b6000868152602081815260408083206001600160a01b038b1684529091528120805487929061178d908490612fc8565b909155505060408051878152602081018790526001600160a01b03808a1692600092918716917fc3d58168c5ae7397731d063d5bbf3d657854427343f4c083240f7aacaa2d0f62910160405180910390a461079c83600089898989612106565b6001600160a01b0384166118135760405162461bcd60e51b81526004016105a990612f64565b81518351146118345760405162461bcd60e51b81526004016105a990612f1c565b33611844816000878787876120f8565b60005b84518110156118fb5783818151811061187057634e487b7160e01b600052603260045260246000fd5b602002602001015160008087848151811061189b57634e487b7160e01b600052603260045260246000fd5b602002602001015181526020019081526020016000206000886001600160a01b03166001600160a01b0316815260200190815260200160002060008282546118e39190612fc8565b909155508190506118f38161309e565b915050611847565b50846001600160a01b031660006001600160a01b0316826001600160a01b03167f4a39dc06d4c0dbc64b70af90fd698a233a518aa5d07e595d983b8c0526c8f7fb878760405161194c929190612d37565b60405180910390a46108b081600087878787612271565b81518351146119845760405162461bcd60e51b81526004016105a990612f1c565b6001600160a01b0384166119aa5760405162461bcd60e51b81526004016105a990612e4a565b336119b98187878787876120f8565b60005b8451811015611abb5760008582815181106119e757634e487b7160e01b600052603260045260246000fd5b602002602001015190506000858381518110611a1357634e487b7160e01b600052603260045260246000fd5b602090810291909101810151600084815280835260408082206001600160a01b038e168352909352919091205490915081811015611a635760405162461bcd60e51b81526004016105a990612ed2565b6000838152602081815260408083206001600160a01b038e8116855292528083208585039055908b16825281208054849290611aa0908490612fc8565b9250508190555050505080611ab49061309e565b90506119bc565b50846001600160a01b0316866001600160a01b0316826001600160a01b03167f4a39dc06d4c0dbc64b70af90fd698a233a518aa5d07e595d983b8c0526c8f7fb8787604051611b0b929190612d37565b60405180910390a46113a1818787878787612271565b60008042604051602001611b3791815260200190565b60408051601f1981840301815291905280516020909101209050611b5c6003826130b9565b611b67906001612fc8565b91505090565b6001600160a01b038316611b935760405162461bcd60e51b81526004016105a990612e8f565b8051825114611bb45760405162461bcd60e51b81526004016105a990612f1c565b6000339050611bd7818560008686604051806020016040528060008152506120f8565b60005b8351811015611cb8576000848281518110611c0557634e487b7160e01b600052603260045260246000fd5b602002602001015190506000848381518110611c3157634e487b7160e01b600052603260045260246000fd5b602090810291909101810151600084815280835260408082206001600160a01b038c168352909352919091205490915081811015611c815760405162461bcd60e51b81526004016105a990612e06565b6000928352602083815260408085206001600160a01b038b1686529091529092209103905580611cb08161309e565b915050611bda565b5060006001600160a01b0316846001600160a01b0316826001600160a01b03167f4a39dc06d4c0dbc64b70af90fd698a233a518aa5d07e595d983b8c0526c8f7fb8686604051611d09929190612d37565b60405180910390a46040805160208101909152600090525b50505050565b600480546001600160a01b038381166001600160a01b0319831681179093556040519116919082907f8be0079c531659141344cd1fd0a4f28419497f9722a3daafe3b4186f6b6457e090600090a35050565b816001600160a01b0316836001600160a01b03161415611ded5760405162461bcd60e51b815260206004820152602960248201527f455243313135353a2073657474696e6720617070726f76616c20737461747573604482015268103337b91039b2b63360b91b60648201526084016105a9565b6001600160a01b03838116600081815260016020908152604080832094871680845294825291829020805460ff191686151590811790915591519182527f17307eab39ab6107e8899845ad3d59bd9653f200f220920489ca2b5937696c31910160405180910390a3505050565b6001600160a01b038416611e805760405162461bcd60e51b81526004016105a990612e4a565b336000611e8c8561209f565b90506000611e998561209f565b9050611ea98389898585896120f8565b6000868152602081815260408083206001600160a01b038c16845290915290205485811015611eea5760405162461bcd60e51b81526004016105a990612ed2565b6000878152602081815260408083206001600160a01b038d8116855292528083208985039055908a16825281208054889290611f27908490612fc8565b909155505060408051888152602081018890526001600160a01b03808b16928c821692918816917fc3d58168c5ae7397731d063d5bbf3d657854427343f4c083240f7aacaa2d0f62910160405180910390a4611258848a8a8a8a8a612106565b6001600160a01b038316611fad5760405162461bcd60e51b81526004016105a990612e8f565b336000611fb98461209f565b90506000611fc68461209f565b9050611fe6838760008585604051806020016040528060008152506120f8565b6000858152602081815260408083206001600160a01b038a168452909152902054848110156120275760405162461bcd60e51b81526004016105a990612e06565b6000868152602081815260408083206001600160a01b038b81168086529184528285208a8703905582518b81529384018a90529092908816917fc3d58168c5ae7397731d063d5bbf3d657854427343f4c083240f7aacaa2d0f62910160405180910390a460408051602081019091526000905261079c565b604080516001808252818301909252606091600091906020808301908036833701905050905082816000815181106120e757634e487b7160e01b600052603260045260246000fd5b602090810291909101015292915050565b6113a186868686868661233b565b6001600160a01b0384163b156113a15760405163f23a6e6160e01b81526001600160a01b0385169063f23a6e619061214a9089908990889088908890600401612cdf565b602060405180830381600087803b15801561216457600080fd5b505af1925050508015612194575060408051601f3d908101601f1916820190925261219191810190612abf565b60015b612241576121a061310f565b806308c379a014156121da57506121b5613127565b806121c057506121dc565b8060405162461bcd60e51b81526004016105a99190612d5c565b505b60405162461bcd60e51b815260206004820152603460248201527f455243313135353a207472616e7366657220746f206e6f6e20455243313135356044820152732932b1b2b4bb32b91034b6b83632b6b2b73a32b960611b60648201526084016105a9565b6001600160e01b0319811663f23a6e6160e01b1461079c5760405162461bcd60e51b81526004016105a990612dbe565b6001600160a01b0384163b156113a15760405163bc197c8160e01b81526001600160a01b0385169063bc197c81906122b59089908990889088908890600401612c81565b602060405180830381600087803b1580156122cf57600080fd5b505af19250505080156122ff575060408051601f3d908101601f191682019092526122fc91810190612abf565b60015b61230b576121a061310f565b6001600160e01b0319811663bc197c8160e01b1461079c5760405162461bcd60e51b81526004016105a990612dbe565b6001600160a01b0385166123de5760005b83518110156123dc5782818151811061237557634e487b7160e01b600052603260045260246000fd5b6020026020010151600360008684815181106123a157634e487b7160e01b600052603260045260246000fd5b6020026020010151815260200190815260200160002060008282546123c69190612fc8565b909155506123d590508161309e565b905061234c565b505b6001600160a01b0384166113a15760005b835181101561079c57600084828151811061241a57634e487b7160e01b600052603260045260246000fd5b60200260200101519050600084838151811061244657634e487b7160e01b600052603260045260246000fd5b60200260200101519050600060036000848152602001908152602001600020549050818110156124c95760405162461bcd60e51b815260206004820152602860248201527f455243313135353a206275726e20616d6f756e74206578636565647320746f74604482015267616c537570706c7960c01b60648201526084016105a9565b600092835260036020526040909220910390556124e58161309e565b90506123ef565b8280546124f890613037565b90600052602060002090601f01602090048101928261251a5760008555612560565b82601f1061253357805160ff1916838001178555612560565b82800160010185558215612560579182015b82811115612560578251825591602001919060010190612545565b5061256c929150612570565b5090565b5b8082111561256c5760008155600101612571565b60006001600160401b0383111561259e5761259e6130f9565b6040516125b5601f8501601f191660200182613072565b8091508381528484840111156125ca57600080fd5b83836020830137600060208583010152509392505050565b600082601f8301126125f2578081fd5b813560206125ff82612fa5565b60405161260c8282613072565b8381528281019150858301600585901b8701840188101561262b578586fd5b855b858110156126495781358452928401929084019060010161262d565b5090979650505050505050565b600082601f830112612666578081fd5b61267583833560208501612585565b9392505050565b60006020828403121561268d578081fd5b8135612675816131b0565b6000602082840312156126a9578081fd5b8151612675816131b0565b600080604083850312156126c6578081fd5b82356126d1816131b0565b915060208301356126e1816131b0565b809150509250929050565b600080600080600060a08688031215612703578081fd5b853561270e816131b0565b9450602086013561271e816131b0565b935060408601356001600160401b0380821115612739578283fd5b61274589838a016125e2565b9450606088013591508082111561275a578283fd5b61276689838a016125e2565b9350608088013591508082111561277b578283fd5b5061278888828901612656565b9150509295509295909350565b600080600080600060a086880312156127ac578081fd5b85356127b7816131b0565b945060208601356127c7816131b0565b9350604086013592506060860135915060808601356001600160401b038111156127ef578182fd5b61278888828901612656565b60008060006060848603121561280f578081fd5b833561281a816131b0565b925060208401356001600160401b0380821115612835578283fd5b612841878388016125e2565b93506040860135915080821115612856578283fd5b50612863868287016125e2565b9150509250925092565b6000806040838503121561287f578182fd5b823561288a816131b0565b915060208301356126e1816131c5565b6000806000606084860312156128ae578081fd5b83516128b9816131b0565b60208501519093506128ca816131c5565b80925050604084015190509250925092565b600080604083850312156128ee578182fd5b82356128f9816131b0565b946020939093013593505050565b60008060006060848603121561291b578081fd5b8335612926816131b0565b95602085013595506040909401359392505050565b6000806040838503121561294d578182fd5b82356001600160401b0380821115612963578384fd5b818501915085601f830112612976578384fd5b8135602061298382612fa5565b6040516129908282613072565b8381528281019150858301600585901b870184018b10156129af578889fd5b8896505b848710156129da5780356129c6816131b0565b8352600196909601959183019183016129b3565b50965050860135925050808211156129f0578283fd5b506129fd858286016125e2565b9150509250929050565b60006020808385031215612a19578182fd5b82516001600160401b03811115612a2e578283fd5b8301601f81018513612a3e578283fd5b8051612a4981612fa5565b604051612a568282613072565b8281528481019150838501600584901b85018601891015612a75578687fd5b8694505b83851015612a97578051835260019490940193918501918501612a79565b50979650505050505050565b600060208284031215612ab4578081fd5b8135612675816131d3565b600060208284031215612ad0578081fd5b8151612675816131d3565b600060208284031215612aec578081fd5b81356001600160401b03811115612b01578182fd5b8201601f81018413612b11578182fd5b6116ab84823560208401612585565b600060208284031215612b31578081fd5b5035919050565b60008060408385031215612b4a578182fd5b50508035926020909101359150565b6000815180845260208085019450808401835b83811015612b8857815187529582019590820190600101612b6c565b509495945050505050565b60008151808452612bab81602086016020860161300b565b601f01601f19169290920160200192915050565b60008151612bd181856020860161300b565b9290920192915050565b600080845482600182811c915080831680612bf757607f831692505b6020808410821415612c1757634e487b7160e01b87526022600452602487fd5b818015612c2b5760018114612c3c57612c68565b60ff19861689528489019650612c68565b60008b815260209020885b86811015612c605781548b820152908501908301612c47565b505084890196505b505050505050612c788185612bbf565b95945050505050565b6001600160a01b0386811682528516602082015260a060408201819052600090612cad90830186612b59565b8281036060840152612cbf8186612b59565b90508281036080840152612cd38185612b93565b98975050505050505050565b6001600160a01b03868116825285166020820152604081018490526060810183905260a060808201819052600090612d1990830184612b93565b979650505050505050565b6020815260006126756020830184612b59565b604081526000612d4a6040830185612b59565b8281036020840152612c788185612b59565b6020815260006126756020830184612b93565b6020808252602f908201527f455243313135353a2063616c6c6572206973206e6f7420746f6b656e206f776e60408201526e195c881b9bdc88185c1c1c9bdd9959608a1b606082015260800190565b60208082526028908201527f455243313135353a204552433131353552656365697665722072656a656374656040820152676420746f6b656e7360c01b606082015260800190565b60208082526024908201527f455243313135353a206275726e20616d6f756e7420657863656564732062616c604082015263616e636560e01b606082015260800190565b60208082526025908201527f455243313135353a207472616e7366657220746f20746865207a65726f206164604082015264647265737360d81b606082015260800190565b60208082526023908201527f455243313135353a206275726e2066726f6d20746865207a65726f206164647260408201526265737360e81b606082015260800190565b6020808252602a908201527f455243313135353a20696e73756666696369656e742062616c616e636520666f60408201526939103a3930b739b332b960b11b606082015260800190565b60208082526028908201527f455243313135353a2069647320616e6420616d6f756e7473206c656e677468206040820152670dad2e6dac2e8c6d60c31b606082015260800190565b60208082526021908201527f455243313135353a206d696e7420746f20746865207a65726f206164647265736040820152607360f81b606082015260800190565b60006001600160401b03821115612fbe57612fbe6130f9565b5060051b60200190565b60008219821115612fdb57612fdb6130cd565b500190565b600082612fef57612fef6130e3565b500490565b600082821015613006576130066130cd565b500390565b60005b8381101561302657818101518382015260200161300e565b83811115611d215750506000910152565b600181811c9082168061304b57607f821691505b6020821081141561306c57634e487b7160e01b600052602260045260246000fd5b50919050565b601f8201601f191681016001600160401b0381118282101715613097576130976130f9565b6040525050565b60006000198214156130b2576130b26130cd565b5060010190565b6000826130c8576130c86130e3565b500690565b634e487b7160e01b600052601160045260246000fd5b634e487b7160e01b600052601260045260246000fd5b634e487b7160e01b600052604160045260246000fd5b600060033d111561312457600481823e5160e01c5b90565b600060443d10156131355790565b6040516003193d81016004833e81513d6001600160401b03816024840111818411171561316457505050505090565b828501915081518181111561317c5750505050505090565b843d87010160208285010111156131965750505050505090565b6131a560208286010187613072565b509095945050505050565b6001600160a01b038116811461086857600080fd5b801515811461086857600080fd5b6001600160e01b03198116811461086857600080fdfea26469706673582212202ad0dc518191efbc8ec9ad52d435bc2a7042930853abaa796283209b5aa1056e64736f6c6343000804003368747470733a2f2f64617461626173652e636f6d2f656c656d656e74616c2d73746f6e652f6d657461646174612f",
  "linkReferences": {},
  "deployedLinkReferences": {}
}