{
  "_format": "hh-sol-artifact-1",
  "contractName": "Emissions",
  "sourceName": "contracts/ARC/Emissions.sol",
  "abi": [
    {
      "anonymous": false,
      "inputs": [
        {
          "indexed": true,
          "internalType": "address",
          "name": "previousOwner",
          "type": "address"
        },
        {
          "indexed": true,
          "internalType": "address",
          "name": "newOwner",
          "type": "address"
        }
      ],
      "name": "OwnershipTransferred",
      "type": "event"
    },
    {
      "inputs": [],
      "name": "arc",
      "outputs": [
        {
          "internalType": "contract IERC20",
          "name": "",
          "type": "address"
        }
      ],
      "stateMutability": "view",
      "type": "function"
    },
    {
      "inputs": [],
      "name": "base",
      "outputs": [
        {
          "internalType": "uint256",
          "name": "",
          "type": "uint256"
        }
      ],
      "stateMutability": "view",
      "type": "function"
    },
    {
      "inputs": [
        {
          "internalType": "uint256",
          "name": "girlId",
          "type": "uint256"
        }
      ],
      "name": "claim",
      "outputs": [],
      "stateMutability": "nonpayable",
      "type": "function"
    },
    {
      "inputs": [
        {
          "internalType": "uint256",
          "name": "girlId",
          "type": "uint256"
        }
      ],
      "name": "claimBeforeUpgrade",
      "outputs": [],
      "stateMutability": "nonpayable",
      "type": "function"
    },
    {
      "inputs": [],
      "name": "getCurrentStep",
      "outputs": [
        {
          "internalType": "uint256",
          "name": "step",
          "type": "uint256"
        }
      ],
      "stateMutability": "view",
      "type": "function"
    },
    {
      "inputs": [],
      "name": "getCurrentTime",
      "outputs": [
        {
          "internalType": "uint256",
          "name": "",
          "type": "uint256"
        }
      ],
      "stateMutability": "view",
      "type": "function"
    },
    {
      "inputs": [
        {
          "internalType": "uint256",
          "name": "girlId",
          "type": "uint256"
        }
      ],
      "name": "getDailyWithRatio",
      "outputs": [
        {
          "internalType": "uint256",
          "name": "daily",
          "type": "uint256"
        }
      ],
      "stateMutability": "view",
      "type": "function"
    },
    {
      "inputs": [
        {
          "internalType": "uint256",
          "name": "index",
          "type": "uint256"
        }
      ],
      "name": "getPredictedTimeStamps",
      "outputs": [
        {
          "internalType": "uint256",
          "name": "time",
          "type": "uint256"
        }
      ],
      "stateMutability": "view",
      "type": "function"
    },
    {
      "inputs": [
        {
          "internalType": "uint256",
          "name": "girlId",
          "type": "uint256"
        }
      ],
      "name": "getSumOwed",
      "outputs": [
        {
          "internalType": "uint256",
          "name": "sum",
          "type": "uint256"
        }
      ],
      "stateMutability": "view",
      "type": "function"
    },
    {
      "inputs": [],
      "name": "girl",
      "outputs": [
        {
          "internalType": "contract IGirl",
          "name": "",
          "type": "address"
        }
      ],
      "stateMutability": "view",
      "type": "function"
    },
    {
      "inputs": [],
      "name": "inc",
      "outputs": [
        {
          "internalType": "uint256",
          "name": "",
          "type": "uint256"
        }
      ],
      "stateMutability": "view",
      "type": "function"
    },
    {
      "inputs": [],
      "name": "lastTimeStepUpdated",
      "outputs": [
        {
          "internalType": "uint256",
          "name": "",
          "type": "uint256"
        }
      ],
      "stateMutability": "view",
      "type": "function"
    },
    {
      "inputs": [
        {
          "internalType": "uint256",
          "name": "",
          "type": "uint256"
        }
      ],
      "name": "multiplier",
      "outputs": [
        {
          "internalType": "uint256",
          "name": "",
          "type": "uint256"
        }
      ],
      "stateMutability": "view",
      "type": "function"
    },
    {
      "inputs": [
        {
          "internalType": "uint256",
          "name": "id",
          "type": "uint256"
        }
      ],
      "name": "newGirl",
      "outputs": [],
      "stateMutability": "nonpayable",
      "type": "function"
    },
    {
      "inputs": [],
      "name": "owner",
      "outputs": [
        {
          "internalType": "address",
          "name": "",
          "type": "address"
        }
      ],
      "stateMutability": "view",
      "type": "function"
    },
    {
      "inputs": [
        {
          "internalType": "uint256",
          "name": "",
          "type": "uint256"
        }
      ],
      "name": "receipt",
      "outputs": [
        {
          "internalType": "uint256",
          "name": "timeLastClaimed",
          "type": "uint256"
        },
        {
          "internalType": "uint256",
          "name": "stepLastClaimed",
          "type": "uint256"
        }
      ],
      "stateMutability": "view",
      "type": "function"
    },
    {
      "inputs": [],
      "name": "renounceOwnership",
      "outputs": [],
      "stateMutability": "nonpayable",
      "type": "function"
    },
    {
      "inputs": [
        {
          "internalType": "address",
          "name": "_a",
          "type": "address"
        }
      ],
      "name": "setArcContract",
      "outputs": [],
      "stateMutability": "nonpayable",
      "type": "function"
    },
    {
      "inputs": [
        {
          "internalType": "address",
          "name": "_girl",
          "type": "address"
        }
      ],
      "name": "setGirlContract",
      "outputs": [],
      "stateMutability": "nonpayable",
      "type": "function"
    },
    {
      "inputs": [],
      "name": "startTime",
      "outputs": [
        {
          "internalType": "uint256",
          "name": "",
          "type": "uint256"
        }
      ],
      "stateMutability": "view",
      "type": "function"
    },
    {
      "inputs": [],
      "name": "stepSupply",
      "outputs": [
        {
          "internalType": "uint256",
          "name": "",
          "type": "uint256"
        }
      ],
      "stateMutability": "view",
      "type": "function"
    },
    {
      "inputs": [
        {
          "internalType": "uint256",
          "name": "",
          "type": "uint256"
        }
      ],
      "name": "stepTimeStamps",
      "outputs": [
        {
          "internalType": "uint256",
          "name": "",
          "type": "uint256"
        }
      ],
      "stateMutability": "view",
      "type": "function"
    },
    {
      "inputs": [],
      "name": "totalRewardsPerDay",
      "outputs": [
        {
          "internalType": "uint256",
          "name": "",
          "type": "uint256"
        }
      ],
      "stateMutability": "view",
      "type": "function"
    },
    {
      "inputs": [
        {
          "internalType": "address",
          "name": "newOwner",
          "type": "address"
        }
      ],
      "name": "transferOwnership",
      "outputs": [],
      "stateMutability": "nonpayable",
      "type": "function"
    },
    {
      "inputs": [
        {
          "internalType": "uint256",
          "name": "girlId",
          "type": "uint256"
        },
        {
          "internalType": "uint256",
          "name": "oldGs",
          "type": "uint256"
        },
        {
          "internalType": "uint256",
          "name": "oldCl",
          "type": "uint256"
        }
      ],
      "name": "updateTotalRewardsPerDay",
      "outputs": [],
      "stateMutability": "nonpayable",
      "type": "function"
    }
  ],
  "bytecode": "0x6080604052670de0b6b3a76400006003556706f05b59d3b200006004556200002b426201518062000232565b600581905560069081556a02df03497b1dd57b60000060075562989680600855600a6009556040805160c0810182526000815260646020820152607d918101919091526096606082015260af608082015260c860a08201526200009291600d919062000181565b50604080516101608101825260008152629896806020820152627d42fe9181019190915262659c62606082015262504a7e6080820152623d5b2660a0820152622cdec260c0820152621ee95c60e082015262139462610100820152620b0266610120820152620568246101408201526200011190600e90600b620001d6565b503480156200011f57600080fd5b506200012b3362000131565b62000257565b600080546001600160a01b038381166001600160a01b0319831681178455604051919092169283917f8be0079c531659141344cd1fd0a4f28419497f9722a3daafe3b4186f6b6457e09190a35050565b828054828255906000526020600020908101928215620001c4579160200282015b82811115620001c4578251829060ff16905591602001919060010190620001a2565b50620001d29291506200021b565b5090565b828054828255906000526020600020908101928215620001c4579160200282015b82811115620001c4578251829062ffffff16905591602001919060010190620001f7565b5b80821115620001d257600081556001016200021c565b600082198211156200025257634e487b7160e01b81526011600452602481fd5b500190565b61139080620002676000396000f3fe608060405234801561001057600080fd5b50600436106101735760003560e01c806372fcb59c116100de578063a2aa433711610097578063b890928111610071578063b89092811461031d578063c4ee802214610326578063f2fde38b14610346578063fe8f889e1461035957600080fd5b8063a2aa4337146102bb578063a4470fb3146102f7578063b3c9524b1461030a57600080fd5b806372fcb59c1461025f57806378e97925146102725780637db1a1111461027b57806384eda5441461028e5780638da5cb5b146102a157806396050dbc146102b257600080fd5b8063379607f511610130578063379607f5146101f557806342e0ea17146102085780634b1c6a40146102285780635001f3b51461023b5780635aff0d7614610244578063715018a61461025757600080fd5b806305e30f51146101785780631d3824ea1461019e57806329cb924d146101a65780632b017cb7146101ac5780633318f1a5146101c1578063371303c0146101ec575b600080fd5b61018b6101863660046111b9565b610362565b6040519081526020015b60405180910390f35b61018b610383565b4261018b565b6101bf6101ba3660046111b9565b610393565b005b6002546101d4906001600160a01b031681565b6040516001600160a01b039091168152602001610195565b61018b60045481565b6101bf6102033660046111b9565b610533565b61018b6102163660046111b9565b600c6020526000908152604090205481565b6001546101d4906001600160a01b031681565b61018b60035481565b6101bf6102523660046111e9565b610676565b6101bf6106f3565b61018b61026d3660046111b9565b610707565b61018b60055481565b6101bf61028936600461115a565b610719565b6101bf61029c36600461115a565b610743565b6000546001600160a01b03166101d4565b61018b600a5481565b6102e26102c93660046111b9565b600b602052600090815260409020805460019091015482565b60408051928352602083019190915201610195565b61018b6103053660046111b9565b61076d565b6101bf6103183660046111b9565b6107c3565b61018b60065481565b61018b6103343660046111b9565b6000908152600c602052604090205490565b6101bf61035436600461115a565b6107ed565b61018b60075481565b600d818154811061037257600080fd5b600091825260209091200154905081565b600061038e42610863565b905090565b6002546001600160a01b031633146103c65760405162461bcd60e51b81526004016103bd9061126f565b60405180910390fd5b600254604051636833080360e11b8152600481018390524291606491600d916001600160a01b03169063d06610069060240160206040518083038186803b15801561041057600080fd5b505afa158015610424573d6000803e3d6000fd5b505050506040513d601f19601f8201168201806040525081019061044891906111d1565b8154811061046657634e487b7160e01b600052603260045260246000fd5b9060005260206000200154670de0b6b3a764000061048491906112de565b61048e91906112be565b600a600082825461049f91906112a6565b90915550600090506104b082610863565b905060055482106104f75760408051808201825283815260208082018481526000878152600b9092529290209051815590516001909101556104f28183610912565b505050565b60408051808201825260058054825260208083018581526000888152600b909252939020915182559151600190910155546104f2908290610912565b60055442116105845760405162461bcd60e51b815260206004820152601a60248201527f456d697373696f6e733a206e6f7420737461727465642079657400000000000060448201526064016103bd565b6002546040516331a9108f60e11b8152600481018390526001600160a01b0390911690636352211e9060240160206040518083038186803b1580156105c857600080fd5b505afa1580156105dc573d6000803e3d6000fd5b505050506040513d601f19601f82011682018060405250810190610600919061117d565b6001600160a01b0316336001600160a01b03161461066a5760405162461bcd60e51b815260206004820152602160248201527f456d697373696f6e733a2063616c6c6572206e6f74206f776e6572206f6620496044820152601160fa1b60648201526084016103bd565b610673816109d1565b50565b6002546001600160a01b031633146106a05760405162461bcd60e51b81526004016103bd9061126f565b60006106ac8383610c21565b6106b585610ccf565b6106bf91906112fd565b905080600a60008282546106d391906112a6565b909155504290506106ec6106e682610863565b82610912565b5050505050565b6106fb610e81565b6107056000610edb565b565b60006107138242610f2b565b92915050565b610721610e81565b600180546001600160a01b0319166001600160a01b0392909216919091179055565b61074b610e81565b600280546001600160a01b0319166001600160a01b0392909216919091179055565b6000600854600e61077d42610863565b8154811061079b57634e487b7160e01b600052603260045260246000fd5b90600052602060002001546107af84610ccf565b6107b991906112de565b61071391906112be565b6002546001600160a01b0316331461066a5760405162461bcd60e51b81526004016103bd9061126f565b6107f5610e81565b6001600160a01b03811661085a5760405162461bcd60e51b815260206004820152602660248201527f4f776e61626c653a206e6577206f776e657220697320746865207a65726f206160448201526564647265737360d01b60648201526084016103bd565b61067381610edb565b60006005544211158061089f57506001600052600c6020527fd421a5181c571bba3f01190c922c3b2a896fc1d84e86c9f17ac10e67ebef8b5c54155b156108ac57506001919050565b60015b600954811161090c576000818152600c6020526040902054831080156108f15750600c60006108df6001846112fd565b81526020019081526020016000205483115b156108fc5792915050565b61090581611314565b90506108af565b50919050565b60006005548211156109335760065461092b90836112fd565b600683905590505b825b60095481116109cb57806001141561097c576005548261095483611058565b61095e91906112a6565b61096891906112a6565b6000828152600c60205260409020556109bb565b60018111801561098b57508381145b1561099a578161095e82611058565b838111156109bb576109ab81611058565b6000828152600c60205260409020555b6109c481611314565b9050610935565b50505050565b4260006109dd82610863565b905060006109eb8484610f2b565b9050610a196040518060400160405280600a8152602001697265776172643a20257360b01b815250826110e1565b6001546040516370a0823160e01b815230600482015282916001600160a01b0316906370a082319060240160206040518083038186803b158015610a5c57600080fd5b505afa158015610a70573d6000803e3d6000fd5b505050506040513d601f19601f82011682018060405250810190610a9491906111d1565b1015610af05760405162461bcd60e51b815260206004820152602560248201527f456d697373696f6e733a206e6f7420656e6f7567682061726320696e20636f6e6044820152641d1c9858dd60da1b60648201526084016103bd565b60408051808201825284815260208082018581526000888152600b9092529083902091518255516001918201555460025491516331a9108f60e11b8152600481018790526001600160a01b039182169263a9059cbb921690636352211e9060240160206040518083038186803b158015610b6957600080fd5b505afa158015610b7d573d6000803e3d6000fd5b505050506040513d601f19601f82011682018060405250810190610ba1919061117d565b6040516001600160e01b031960e084901b1681526001600160a01b03909116600482015260248101849052604401602060405180830381600087803b158015610be957600080fd5b505af1158015610bfd573d6000803e3d6000fd5b505050506040513d601f19601f820116820180604052508101906106ec9190611199565b600080600060045485610c3491906112de565b905060058410610c7257600d600581548110610c6057634e487b7160e01b600052603260045260246000fd5b90600052602060002001549150610ca1565b600d8481548110610c9357634e487b7160e01b600052603260045260246000fd5b906000526020600020015491505b60648282600354610cb291906112a6565b610cbc91906112de565b610cc691906112be565b95945050505050565b600254604051636833080360e11b81526004810183905260009182916001600160a01b039091169063d06610069060240160206040518083038186803b158015610d1857600080fd5b505afa158015610d2c573d6000803e3d6000fd5b505050506040513d601f19601f82011682018060405250810190610d5091906111d1565b60025460405163a22b36ef60e01b8152600481018690529192506000916001600160a01b039091169063a22b36ef9060240160206040518083038186803b158015610d9a57600080fd5b505afa158015610dae573d6000803e3d6000fd5b505050506040513d601f19601f82011682018060405250810190610dd291906111d1565b905060008060045483610de591906112de565b905060058410610e2357600d600581548110610e1157634e487b7160e01b600052603260045260246000fd5b90600052602060002001549150610e52565b600d8481548110610e4457634e487b7160e01b600052603260045260246000fd5b906000526020600020015491505b60648282600354610e6391906112a6565b610e6d91906112de565b610e7791906112be565b9695505050505050565b6000546001600160a01b031633146107055760405162461bcd60e51b815260206004820181905260248201527f4f776e61626c653a2063616c6c6572206973206e6f7420746865206f776e657260448201526064016103bd565b600080546001600160a01b038381166001600160a01b0319831681178455604051919092169283917f8be0079c531659141344cd1fd0a4f28419497f9722a3daafe3b4186f6b6457e09190a35050565b60055460009042908111610f43576000915050610713565b6000610f4e82610863565b6000868152600b6020526040812054919250610f698761112a565b6000888152600b60205260409020600101549091505b83811161104d57600080600854600e8481548110610fad57634e487b7160e01b600052603260045260246000fd5b906000526020600020015485610fc391906112de565b610fcd91906112be565b6000848152600c60205260409020549091508910611017576000838152600c6020526040902054610fff9086906112fd565b6000848152600c602052604090205495509150611024565b611021858a6112fd565b91505b61102e82826112de565b61103890896112a6565b975050508061104690611314565b9050610f7f565b505050505092915050565b6000600c816110686001856112fd565b815260200190815260200160002054600854600e848154811061109b57634e487b7160e01b600052603260045260246000fd5b9060005260206000200154600a546110b391906112de565b6110bd91906112be565b6007546110ca91906112be565b6110d790620151806112de565b61071391906112a6565b61112682826040516024016110f7929190611214565b60408051601f198184030181529190526020810180516001600160e01b0316632d839cb360e21b179052611139565b5050565b6000620151806107b983610ccf565b80516a636f6e736f6c652e6c6f67602083016000808483855afa5050505050565b60006020828403121561116b578081fd5b813561117681611345565b9392505050565b60006020828403121561118e578081fd5b815161117681611345565b6000602082840312156111aa578081fd5b81518015158114611176578182fd5b6000602082840312156111ca578081fd5b5035919050565b6000602082840312156111e2578081fd5b5051919050565b6000806000606084860312156111fd578182fd5b505081359360208301359350604090920135919050565b6040815260008351806040840152815b818110156112415760208187018101516060868401015201611224565b818111156112525782606083860101525b50602083019390935250601f91909101601f191601606001919050565b6020808252601d908201527f456d697373696f6e733a206f6e6c79206769726c2063616e2063616c6c000000604082015260600190565b600082198211156112b9576112b961132f565b500190565b6000826112d957634e487b7160e01b81526012600452602481fd5b500490565b60008160001904831182151516156112f8576112f861132f565b500290565b60008282101561130f5761130f61132f565b500390565b60006000198214156113285761132861132f565b5060010190565b634e487b7160e01b600052601160045260246000fd5b6001600160a01b038116811461067357600080fdfea264697066735822122019458440b0b5de699c057977327032e66f306098e0ed6f3c3dbc17541302b7d164736f6c63430008040033",
  "linkReferences": {},
  "deployedLinkReferences": {}
}