{
  "_format": "hh-sol-artifact-1",
  "contractName": "Emissions",
  "sourceName": "contracts/ARC/Emissions.sol",
  "abi": [
    {
      "anonymous": false,
      "inputs": [
        {
          "indexed": true,
          "internalType": "address",
          "name": "previousOwner",
          "type": "address"
        },
        {
          "indexed": true,
          "internalType": "address",
          "name": "newOwner",
          "type": "address"
        }
      ],
      "name": "OwnershipTransferred",
      "type": "event"
    },
    {
      "inputs": [],
      "name": "arc",
      "outputs": [
        {
          "internalType": "contract IERC20",
          "name": "",
          "type": "address"
        }
      ],
      "stateMutability": "view",
      "type": "function"
    },
    {
      "inputs": [],
      "name": "base",
      "outputs": [
        {
          "internalType": "uint256",
          "name": "",
          "type": "uint256"
        }
      ],
      "stateMutability": "view",
      "type": "function"
    },
    {
      "inputs": [
        {
          "internalType": "uint256",
          "name": "girlId",
          "type": "uint256"
        }
      ],
      "name": "claim",
      "outputs": [],
      "stateMutability": "nonpayable",
      "type": "function"
    },
    {
      "inputs": [
        {
          "internalType": "uint256[]",
          "name": "ids",
          "type": "uint256[]"
        }
      ],
      "name": "claimAll",
      "outputs": [],
      "stateMutability": "nonpayable",
      "type": "function"
    },
    {
      "inputs": [
        {
          "internalType": "uint256",
          "name": "girlId",
          "type": "uint256"
        }
      ],
      "name": "claimBeforeUpgrade",
      "outputs": [],
      "stateMutability": "nonpayable",
      "type": "function"
    },
    {
      "inputs": [],
      "name": "getCurrentStep",
      "outputs": [
        {
          "internalType": "uint256",
          "name": "step",
          "type": "uint256"
        }
      ],
      "stateMutability": "view",
      "type": "function"
    },
    {
      "inputs": [],
      "name": "getCurrentTime",
      "outputs": [
        {
          "internalType": "uint256",
          "name": "",
          "type": "uint256"
        }
      ],
      "stateMutability": "view",
      "type": "function"
    },
    {
      "inputs": [
        {
          "internalType": "uint256",
          "name": "girlId",
          "type": "uint256"
        }
      ],
      "name": "getDailyWithRatio",
      "outputs": [
        {
          "internalType": "uint256",
          "name": "daily",
          "type": "uint256"
        }
      ],
      "stateMutability": "view",
      "type": "function"
    },
    {
      "inputs": [
        {
          "internalType": "uint256",
          "name": "index",
          "type": "uint256"
        }
      ],
      "name": "getPredictedTimeStamps",
      "outputs": [
        {
          "internalType": "uint256",
          "name": "time",
          "type": "uint256"
        }
      ],
      "stateMutability": "view",
      "type": "function"
    },
    {
      "inputs": [
        {
          "internalType": "uint256",
          "name": "girlId",
          "type": "uint256"
        }
      ],
      "name": "getSumOwed",
      "outputs": [
        {
          "internalType": "uint256",
          "name": "sum",
          "type": "uint256"
        }
      ],
      "stateMutability": "view",
      "type": "function"
    },
    {
      "inputs": [],
      "name": "girl",
      "outputs": [
        {
          "internalType": "contract IGirl",
          "name": "",
          "type": "address"
        }
      ],
      "stateMutability": "view",
      "type": "function"
    },
    {
      "inputs": [],
      "name": "inc",
      "outputs": [
        {
          "internalType": "uint256",
          "name": "",
          "type": "uint256"
        }
      ],
      "stateMutability": "view",
      "type": "function"
    },
    {
      "inputs": [],
      "name": "lastTimeStepUpdated",
      "outputs": [
        {
          "internalType": "uint256",
          "name": "",
          "type": "uint256"
        }
      ],
      "stateMutability": "view",
      "type": "function"
    },
    {
      "inputs": [
        {
          "internalType": "uint256",
          "name": "",
          "type": "uint256"
        }
      ],
      "name": "multiplier",
      "outputs": [
        {
          "internalType": "uint256",
          "name": "",
          "type": "uint256"
        }
      ],
      "stateMutability": "view",
      "type": "function"
    },
    {
      "inputs": [
        {
          "internalType": "uint256",
          "name": "id",
          "type": "uint256"
        }
      ],
      "name": "newGirl",
      "outputs": [],
      "stateMutability": "nonpayable",
      "type": "function"
    },
    {
      "inputs": [],
      "name": "owner",
      "outputs": [
        {
          "internalType": "address",
          "name": "",
          "type": "address"
        }
      ],
      "stateMutability": "view",
      "type": "function"
    },
    {
      "inputs": [
        {
          "internalType": "uint256",
          "name": "",
          "type": "uint256"
        }
      ],
      "name": "receipt",
      "outputs": [
        {
          "internalType": "uint256",
          "name": "timeLastClaimed",
          "type": "uint256"
        },
        {
          "internalType": "uint256",
          "name": "stepLastClaimed",
          "type": "uint256"
        }
      ],
      "stateMutability": "view",
      "type": "function"
    },
    {
      "inputs": [],
      "name": "renounceOwnership",
      "outputs": [],
      "stateMutability": "nonpayable",
      "type": "function"
    },
    {
      "inputs": [
        {
          "internalType": "address",
          "name": "_a",
          "type": "address"
        }
      ],
      "name": "setArcContract",
      "outputs": [],
      "stateMutability": "nonpayable",
      "type": "function"
    },
    {
      "inputs": [
        {
          "internalType": "address",
          "name": "_girl",
          "type": "address"
        }
      ],
      "name": "setGirlContract",
      "outputs": [],
      "stateMutability": "nonpayable",
      "type": "function"
    },
    {
      "inputs": [],
      "name": "startTime",
      "outputs": [
        {
          "internalType": "uint256",
          "name": "",
          "type": "uint256"
        }
      ],
      "stateMutability": "view",
      "type": "function"
    },
    {
      "inputs": [],
      "name": "stepSupply",
      "outputs": [
        {
          "internalType": "uint256",
          "name": "",
          "type": "uint256"
        }
      ],
      "stateMutability": "view",
      "type": "function"
    },
    {
      "inputs": [
        {
          "internalType": "uint256",
          "name": "",
          "type": "uint256"
        }
      ],
      "name": "stepTimeStamps",
      "outputs": [
        {
          "internalType": "uint256",
          "name": "",
          "type": "uint256"
        }
      ],
      "stateMutability": "view",
      "type": "function"
    },
    {
      "inputs": [],
      "name": "totalRewardsPerDay",
      "outputs": [
        {
          "internalType": "uint256",
          "name": "",
          "type": "uint256"
        }
      ],
      "stateMutability": "view",
      "type": "function"
    },
    {
      "inputs": [
        {
          "internalType": "address",
          "name": "newOwner",
          "type": "address"
        }
      ],
      "name": "transferOwnership",
      "outputs": [],
      "stateMutability": "nonpayable",
      "type": "function"
    },
    {
      "inputs": [
        {
          "internalType": "uint256",
          "name": "girlId",
          "type": "uint256"
        },
        {
          "internalType": "uint256",
          "name": "oldGs",
          "type": "uint256"
        },
        {
          "internalType": "uint256",
          "name": "oldCl",
          "type": "uint256"
        }
      ],
      "name": "updateTotalRewardsPerDay",
      "outputs": [],
      "stateMutability": "nonpayable",
      "type": "function"
    }
  ],
  "bytecode": "0x6080604052670de0b6b3a76400006003556706f05b59d3b200006004556200002b426201518062000232565b600581905560069081556a02df03497b1dd57b60000060075562989680600855600a6009556040805160c0810182526000815260646020820152607d918101919091526096606082015260af608082015260c860a08201526200009291600d919062000181565b50604080516101608101825260008152629896806020820152627d42fe9181019190915262659c62606082015262504a7e6080820152623d5b2660a0820152622cdec260c0820152621ee95c60e082015262139462610100820152620b0266610120820152620568246101408201526200011190600e90600b620001d6565b503480156200011f57600080fd5b506200012b3362000131565b62000257565b600080546001600160a01b038381166001600160a01b0319831681178455604051919092169283917f8be0079c531659141344cd1fd0a4f28419497f9722a3daafe3b4186f6b6457e09190a35050565b828054828255906000526020600020908101928215620001c4579160200282015b82811115620001c4578251829060ff16905591602001919060010190620001a2565b50620001d29291506200021b565b5090565b828054828255906000526020600020908101928215620001c4579160200282015b82811115620001c4578251829062ffffff16905591602001919060010190620001f7565b5b80821115620001d257600081556001016200021c565b600082198211156200025257634e487b7160e01b81526011600452602481fd5b500190565b61147a80620002676000396000f3fe608060405234801561001057600080fd5b506004361061018e5760003560e01c806372fcb59c116100de578063a2aa433711610097578063b890928111610071578063b89092811461034b578063c4ee802214610354578063f2fde38b14610374578063fe8f889e1461038757600080fd5b8063a2aa4337146102e9578063a4470fb314610325578063b3c9524b1461033857600080fd5b806372fcb59c1461028d57806378e97925146102a05780637db1a111146102a957806384eda544146102bc5780638da5cb5b146102cf57806396050dbc146102e057600080fd5b8063371303c01161014b5780634b1c6a40116101255780634b1c6a40146102565780635001f3b5146102695780635aff0d7614610272578063715018a61461028557600080fd5b8063371303c01461021a578063379607f51461022357806342e0ea171461023657600080fd5b806305e30f51146101935780631d3824ea146101b957806328c77820146101c157806329cb924d146101d65780632b017cb7146101dc5780633318f1a5146101ef575b600080fd5b6101a66101a13660046112a3565b610390565b6040519081526020015b60405180910390f35b6101a66103b1565b6101d46101cf366004611213565b6103c1565b005b426101a6565b6101d46101ea3660046112a3565b610412565b600254610202906001600160a01b031681565b6040516001600160a01b0390911681526020016101b0565b6101a660045481565b6101d46102313660046112a3565b6105ad565b6101a66102443660046112a3565b600c6020526000908152604090205481565b600154610202906001600160a01b031681565b6101a660035481565b6101d46102803660046112d3565b6106f0565b6101d461076d565b6101a661029b3660046112a3565b610781565b6101a660055481565b6101d46102b73660046111d4565b610793565b6101d46102ca3660046111d4565b6107bd565b6000546001600160a01b0316610202565b6101a6600a5481565b6103106102f73660046112a3565b600b602052600090815260409020805460019091015482565b604080519283526020830191909152016101b0565b6101a66103333660046112a3565b6107e7565b6101d46103463660046112a3565b61083d565b6101a660065481565b6101a66103623660046112a3565b6000908152600c602052604090205490565b6101d46103823660046111d4565b610867565b6101a660075481565b600d81815481106103a057600080fd5b600091825260209091200154905081565b60006103bc426108dd565b905090565b60005b8181101561040d576103fb8383838181106103ef57634e487b7160e01b600052603260045260246000fd5b905060200201356105ad565b80610405816113fe565b9150506103c4565b505050565b6002546001600160a01b031633146104455760405162461bcd60e51b815260040161043c90611359565b60405180910390fd5b600254604051636833080360e11b8152600481018390524291606491600d916001600160a01b03169063d06610069060240160206040518083038186803b15801561048f57600080fd5b505afa1580156104a3573d6000803e3d6000fd5b505050506040513d601f19601f820116820180604052508101906104c791906112bb565b815481106104e557634e487b7160e01b600052603260045260246000fd5b9060005260206000200154670de0b6b3a764000061050391906113c8565b61050d91906113a8565b600a600082825461051e9190611390565b909155506000905061052f826108dd565b905060055482106105715760408051808201825283815260208082018481526000878152600b90925292902090518155905160019091015561040d818361098c565b60408051808201825260058054825260208083018581526000888152600b9092529390209151825591516001909101555461040d90829061098c565b60055442116105fe5760405162461bcd60e51b815260206004820152601a60248201527f456d697373696f6e733a206e6f74207374617274656420796574000000000000604482015260640161043c565b6002546040516331a9108f60e11b8152600481018390526001600160a01b0390911690636352211e9060240160206040518083038186803b15801561064257600080fd5b505afa158015610656573d6000803e3d6000fd5b505050506040513d601f19601f8201168201806040525081019061067a91906111f7565b6001600160a01b0316336001600160a01b0316146106e45760405162461bcd60e51b815260206004820152602160248201527f456d697373696f6e733a2063616c6c6572206e6f74206f776e6572206f6620496044820152601160fa1b606482015260840161043c565b6106ed81610a4b565b50565b6002546001600160a01b0316331461071a5760405162461bcd60e51b815260040161043c90611359565b60006107268383610c9b565b61072f85610d49565b61073991906113e7565b905080600a600082825461074d9190611390565b90915550429050610766610760826108dd565b8261098c565b5050505050565b610775610efb565b61077f6000610f55565b565b600061078d8242610fa5565b92915050565b61079b610efb565b600180546001600160a01b0319166001600160a01b0392909216919091179055565b6107c5610efb565b600280546001600160a01b0319166001600160a01b0392909216919091179055565b6000600854600e6107f7426108dd565b8154811061081557634e487b7160e01b600052603260045260246000fd5b906000526020600020015461082984610d49565b61083391906113c8565b61078d91906113a8565b6002546001600160a01b031633146106e45760405162461bcd60e51b815260040161043c90611359565b61086f610efb565b6001600160a01b0381166108d45760405162461bcd60e51b815260206004820152602660248201527f4f776e61626c653a206e6577206f776e657220697320746865207a65726f206160448201526564647265737360d01b606482015260840161043c565b6106ed81610f55565b60006005544211158061091957506001600052600c6020527fd421a5181c571bba3f01190c922c3b2a896fc1d84e86c9f17ac10e67ebef8b5c54155b1561092657506001919050565b60015b6009548111610986576000818152600c60205260409020548310801561096b5750600c60006109596001846113e7565b81526020019081526020016000205483115b156109765792915050565b61097f816113fe565b9050610929565b50919050565b60006005548211156109ad576006546109a590836113e7565b600683905590505b825b6009548111610a455780600114156109f657600554826109ce836110d2565b6109d89190611390565b6109e29190611390565b6000828152600c6020526040902055610a35565b600181118015610a0557508381145b15610a1457816109d8826110d2565b83811115610a3557610a25816110d2565b6000828152600c60205260409020555b610a3e816113fe565b90506109af565b50505050565b426000610a57826108dd565b90506000610a658484610fa5565b9050610a936040518060400160405280600a8152602001697265776172643a20257360b01b8152508261115b565b6001546040516370a0823160e01b815230600482015282916001600160a01b0316906370a082319060240160206040518083038186803b158015610ad657600080fd5b505afa158015610aea573d6000803e3d6000fd5b505050506040513d601f19601f82011682018060405250810190610b0e91906112bb565b1015610b6a5760405162461bcd60e51b815260206004820152602560248201527f456d697373696f6e733a206e6f7420656e6f7567682061726320696e20636f6e6044820152641d1c9858dd60da1b606482015260840161043c565b60408051808201825284815260208082018581526000888152600b9092529083902091518255516001918201555460025491516331a9108f60e11b8152600481018790526001600160a01b039182169263a9059cbb921690636352211e9060240160206040518083038186803b158015610be357600080fd5b505afa158015610bf7573d6000803e3d6000fd5b505050506040513d601f19601f82011682018060405250810190610c1b91906111f7565b6040516001600160e01b031960e084901b1681526001600160a01b03909116600482015260248101849052604401602060405180830381600087803b158015610c6357600080fd5b505af1158015610c77573d6000803e3d6000fd5b505050506040513d601f19601f820116820180604052508101906107669190611283565b600080600060045485610cae91906113c8565b905060058410610cec57600d600581548110610cda57634e487b7160e01b600052603260045260246000fd5b90600052602060002001549150610d1b565b600d8481548110610d0d57634e487b7160e01b600052603260045260246000fd5b906000526020600020015491505b60648282600354610d2c9190611390565b610d3691906113c8565b610d4091906113a8565b95945050505050565b600254604051636833080360e11b81526004810183905260009182916001600160a01b039091169063d06610069060240160206040518083038186803b158015610d9257600080fd5b505afa158015610da6573d6000803e3d6000fd5b505050506040513d601f19601f82011682018060405250810190610dca91906112bb565b60025460405163a22b36ef60e01b8152600481018690529192506000916001600160a01b039091169063a22b36ef9060240160206040518083038186803b158015610e1457600080fd5b505afa158015610e28573d6000803e3d6000fd5b505050506040513d601f19601f82011682018060405250810190610e4c91906112bb565b905060008060045483610e5f91906113c8565b905060058410610e9d57600d600581548110610e8b57634e487b7160e01b600052603260045260246000fd5b90600052602060002001549150610ecc565b600d8481548110610ebe57634e487b7160e01b600052603260045260246000fd5b906000526020600020015491505b60648282600354610edd9190611390565b610ee791906113c8565b610ef191906113a8565b9695505050505050565b6000546001600160a01b0316331461077f5760405162461bcd60e51b815260206004820181905260248201527f4f776e61626c653a2063616c6c6572206973206e6f7420746865206f776e6572604482015260640161043c565b600080546001600160a01b038381166001600160a01b0319831681178455604051919092169283917f8be0079c531659141344cd1fd0a4f28419497f9722a3daafe3b4186f6b6457e09190a35050565b60055460009042908111610fbd57600091505061078d565b6000610fc8826108dd565b6000868152600b6020526040812054919250610fe3876111a4565b6000888152600b60205260409020600101549091505b8381116110c757600080600854600e848154811061102757634e487b7160e01b600052603260045260246000fd5b90600052602060002001548561103d91906113c8565b61104791906113a8565b6000848152600c60205260409020549091508910611091576000838152600c60205260409020546110799086906113e7565b6000848152600c60205260409020549550915061109e565b61109b858a6113e7565b91505b6110a882826113c8565b6110b29089611390565b97505050806110c0906113fe565b9050610ff9565b505050505092915050565b6000600c816110e26001856113e7565b815260200190815260200160002054600854600e848154811061111557634e487b7160e01b600052603260045260246000fd5b9060005260206000200154600a5461112d91906113c8565b61113791906113a8565b60075461114491906113a8565b61115190620151806113c8565b61078d9190611390565b6111a082826040516024016111719291906112fe565b60408051601f198184030181529190526020810180516001600160e01b0316632d839cb360e21b1790526111b3565b5050565b60006201518061083383610d49565b80516a636f6e736f6c652e6c6f67602083016000808483855afa5050505050565b6000602082840312156111e5578081fd5b81356111f08161142f565b9392505050565b600060208284031215611208578081fd5b81516111f08161142f565b60008060208385031215611225578081fd5b823567ffffffffffffffff8082111561123c578283fd5b818501915085601f83011261124f578283fd5b81358181111561125d578384fd5b8660208260051b8501011115611271578384fd5b60209290920196919550909350505050565b600060208284031215611294578081fd5b815180151581146111f0578182fd5b6000602082840312156112b4578081fd5b5035919050565b6000602082840312156112cc578081fd5b5051919050565b6000806000606084860312156112e7578081fd5b505081359360208301359350604090920135919050565b6040815260008351806040840152815b8181101561132b576020818701810151606086840101520161130e565b8181111561133c5782606083860101525b50602083019390935250601f91909101601f191601606001919050565b6020808252601d908201527f456d697373696f6e733a206f6e6c79206769726c2063616e2063616c6c000000604082015260600190565b600082198211156113a3576113a3611419565b500190565b6000826113c357634e487b7160e01b81526012600452602481fd5b500490565b60008160001904831182151516156113e2576113e2611419565b500290565b6000828210156113f9576113f9611419565b500390565b600060001982141561141257611412611419565b5060010190565b634e487b7160e01b600052601160045260246000fd5b6001600160a01b03811681146106ed57600080fdfea2646970667358221220c9dce6f5978d9d388f5d4047cee7dcd987550d7f60e65abf100cd7b405afc61464736f6c63430008040033",
  "linkReferences": {},
  "deployedLinkReferences": {}
}