{
  "_format": "hh-sol-artifact-1",
  "contractName": "Emissions",
  "sourceName": "contracts/ARC/Emissions.sol",
  "abi": [
    {
      "anonymous": false,
      "inputs": [
        {
          "indexed": true,
          "internalType": "address",
          "name": "previousOwner",
          "type": "address"
        },
        {
          "indexed": true,
          "internalType": "address",
          "name": "newOwner",
          "type": "address"
        }
      ],
      "name": "OwnershipTransferred",
      "type": "event"
    },
    {
      "inputs": [],
      "name": "arc",
      "outputs": [
        {
          "internalType": "contract IERC20",
          "name": "",
          "type": "address"
        }
      ],
      "stateMutability": "view",
      "type": "function"
    },
    {
      "inputs": [],
      "name": "base",
      "outputs": [
        {
          "internalType": "uint256",
          "name": "",
          "type": "uint256"
        }
      ],
      "stateMutability": "view",
      "type": "function"
    },
    {
      "inputs": [
        {
          "internalType": "uint256",
          "name": "girlId",
          "type": "uint256"
        }
      ],
      "name": "claim",
      "outputs": [],
      "stateMutability": "nonpayable",
      "type": "function"
    },
    {
      "inputs": [
        {
          "internalType": "uint256[]",
          "name": "ids",
          "type": "uint256[]"
        }
      ],
      "name": "claimAll",
      "outputs": [],
      "stateMutability": "nonpayable",
      "type": "function"
    },
    {
      "inputs": [
        {
          "internalType": "uint256",
          "name": "girlId",
          "type": "uint256"
        }
      ],
      "name": "claimBeforeUpgrade",
      "outputs": [],
      "stateMutability": "nonpayable",
      "type": "function"
    },
    {
      "inputs": [],
      "name": "getCurrentStep",
      "outputs": [
        {
          "internalType": "uint256",
          "name": "step",
          "type": "uint256"
        }
      ],
      "stateMutability": "view",
      "type": "function"
    },
    {
      "inputs": [],
      "name": "getCurrentTime",
      "outputs": [
        {
          "internalType": "uint256",
          "name": "",
          "type": "uint256"
        }
      ],
      "stateMutability": "view",
      "type": "function"
    },
    {
      "inputs": [
        {
          "internalType": "uint256",
          "name": "girlId",
          "type": "uint256"
        }
      ],
      "name": "getDailyWithRatio",
      "outputs": [
        {
          "internalType": "uint256",
          "name": "daily",
          "type": "uint256"
        }
      ],
      "stateMutability": "view",
      "type": "function"
    },
    {
      "inputs": [
        {
          "internalType": "uint256",
          "name": "index",
          "type": "uint256"
        }
      ],
      "name": "getPredictedTimeStamps",
      "outputs": [
        {
          "internalType": "uint256",
          "name": "time",
          "type": "uint256"
        }
      ],
      "stateMutability": "view",
      "type": "function"
    },
    {
      "inputs": [
        {
          "internalType": "uint256",
          "name": "girlId",
          "type": "uint256"
        }
      ],
      "name": "getSumOwed",
      "outputs": [
        {
          "internalType": "uint256",
          "name": "sum",
          "type": "uint256"
        }
      ],
      "stateMutability": "view",
      "type": "function"
    },
    {
      "inputs": [
        {
          "internalType": "uint256[]",
          "name": "ids",
          "type": "uint256[]"
        }
      ],
      "name": "getTotalSumOwed",
      "outputs": [
        {
          "internalType": "uint256",
          "name": "sum",
          "type": "uint256"
        }
      ],
      "stateMutability": "view",
      "type": "function"
    },
    {
      "inputs": [],
      "name": "girl",
      "outputs": [
        {
          "internalType": "contract IGirl",
          "name": "",
          "type": "address"
        }
      ],
      "stateMutability": "view",
      "type": "function"
    },
    {
      "inputs": [],
      "name": "inc",
      "outputs": [
        {
          "internalType": "uint256",
          "name": "",
          "type": "uint256"
        }
      ],
      "stateMutability": "view",
      "type": "function"
    },
    {
      "inputs": [],
      "name": "lastTimeStepUpdated",
      "outputs": [
        {
          "internalType": "uint256",
          "name": "",
          "type": "uint256"
        }
      ],
      "stateMutability": "view",
      "type": "function"
    },
    {
      "inputs": [
        {
          "internalType": "uint256",
          "name": "",
          "type": "uint256"
        }
      ],
      "name": "multiplier",
      "outputs": [
        {
          "internalType": "uint256",
          "name": "",
          "type": "uint256"
        }
      ],
      "stateMutability": "view",
      "type": "function"
    },
    {
      "inputs": [
        {
          "internalType": "uint256",
          "name": "id",
          "type": "uint256"
        }
      ],
      "name": "newGirl",
      "outputs": [],
      "stateMutability": "nonpayable",
      "type": "function"
    },
    {
      "inputs": [],
      "name": "owner",
      "outputs": [
        {
          "internalType": "address",
          "name": "",
          "type": "address"
        }
      ],
      "stateMutability": "view",
      "type": "function"
    },
    {
      "inputs": [
        {
          "internalType": "uint256",
          "name": "",
          "type": "uint256"
        }
      ],
      "name": "receipt",
      "outputs": [
        {
          "internalType": "uint256",
          "name": "timeLastClaimed",
          "type": "uint256"
        },
        {
          "internalType": "uint256",
          "name": "stepLastClaimed",
          "type": "uint256"
        }
      ],
      "stateMutability": "view",
      "type": "function"
    },
    {
      "inputs": [],
      "name": "renounceOwnership",
      "outputs": [],
      "stateMutability": "nonpayable",
      "type": "function"
    },
    {
      "inputs": [
        {
          "internalType": "address",
          "name": "_a",
          "type": "address"
        }
      ],
      "name": "setArcContract",
      "outputs": [],
      "stateMutability": "nonpayable",
      "type": "function"
    },
    {
      "inputs": [
        {
          "internalType": "address",
          "name": "_girl",
          "type": "address"
        }
      ],
      "name": "setGirlContract",
      "outputs": [],
      "stateMutability": "nonpayable",
      "type": "function"
    },
    {
      "inputs": [],
      "name": "startTime",
      "outputs": [
        {
          "internalType": "uint256",
          "name": "",
          "type": "uint256"
        }
      ],
      "stateMutability": "view",
      "type": "function"
    },
    {
      "inputs": [],
      "name": "stepSupply",
      "outputs": [
        {
          "internalType": "uint256",
          "name": "",
          "type": "uint256"
        }
      ],
      "stateMutability": "view",
      "type": "function"
    },
    {
      "inputs": [
        {
          "internalType": "uint256",
          "name": "",
          "type": "uint256"
        }
      ],
      "name": "stepTimeStamps",
      "outputs": [
        {
          "internalType": "uint256",
          "name": "",
          "type": "uint256"
        }
      ],
      "stateMutability": "view",
      "type": "function"
    },
    {
      "inputs": [],
      "name": "totalRewardsPerDay",
      "outputs": [
        {
          "internalType": "uint256",
          "name": "",
          "type": "uint256"
        }
      ],
      "stateMutability": "view",
      "type": "function"
    },
    {
      "inputs": [
        {
          "internalType": "address",
          "name": "newOwner",
          "type": "address"
        }
      ],
      "name": "transferOwnership",
      "outputs": [],
      "stateMutability": "nonpayable",
      "type": "function"
    },
    {
      "inputs": [
        {
          "internalType": "uint256",
          "name": "girlId",
          "type": "uint256"
        },
        {
          "internalType": "uint256",
          "name": "oldGs",
          "type": "uint256"
        },
        {
          "internalType": "uint256",
          "name": "oldCl",
          "type": "uint256"
        }
      ],
      "name": "updateTotalRewardsPerDay",
      "outputs": [],
      "stateMutability": "nonpayable",
      "type": "function"
    }
  ],
  "bytecode": "0x670de0b6b3a76400006003556706f05b59d3b2000060045542600581905560069081556a02df03497b1dd57b60000060075562989680600855600a60095561014060405260006080908152606460a052607d60c052609660e05260af6101005260c8610120526200007491600d919062000163565b50604080516101608101825260008152629896806020820152627d42fe9181019190915262659c62606082015262504a7e6080820152623d5b2660a0820152622cdec260c0820152621ee95c60e082015262139462610100820152620b026661012082015262056824610140820152620000f390600e90600b620001b8565b503480156200010157600080fd5b506200010d3362000113565b62000214565b600080546001600160a01b038381166001600160a01b0319831681178455604051919092169283917f8be0079c531659141344cd1fd0a4f28419497f9722a3daafe3b4186f6b6457e09190a35050565b828054828255906000526020600020908101928215620001a6579160200282015b82811115620001a6578251829060ff1690559160200191906001019062000184565b50620001b4929150620001fd565b5090565b828054828255906000526020600020908101928215620001a6579160200282015b82811115620001a6578251829062ffffff16905591602001919060010190620001d9565b5b80821115620001b45760008155600101620001fe565b61132f80620002246000396000f3fe608060405234801561001057600080fd5b50600436106101a95760003560e01c806372fcb59c116100f9578063a4470fb311610097578063c4ee802211610071578063c4ee80221461036f578063dbda1c931461038f578063f2fde38b146103a2578063fe8f889e146103b557600080fd5b8063a4470fb314610340578063b3c9524b14610353578063b89092811461036657600080fd5b806384eda544116100d357806384eda544146102d75780638da5cb5b146102ea57806396050dbc146102fb578063a2aa43371461030457600080fd5b806372fcb59c146102a857806378e97925146102bb5780637db1a111146102c457600080fd5b8063371303c0116101665780634b1c6a40116101405780634b1c6a40146102715780635001f3b5146102845780635aff0d761461028d578063715018a6146102a057600080fd5b8063371303c014610235578063379607f51461023e57806342e0ea171461025157600080fd5b806305e30f51146101ae5780631d3824ea146101d457806328c77820146101dc57806329cb924d146101f15780632b017cb7146101f75780633318f1a51461020a575b600080fd5b6101c16101bc3660046111b3565b6103be565b6040519081526020015b60405180910390f35b6101c16103df565b6101ef6101ea366004611123565b6103ef565b005b426101c1565b6101ef6102053660046111b3565b610440565b60025461021d906001600160a01b031681565b6040516001600160a01b0390911681526020016101cb565b6101c160045481565b6101ef61024c3660046111b3565b6105e0565b6101c161025f3660046111b3565b600c6020526000908152604090205481565b60015461021d906001600160a01b031681565b6101c160035481565b6101ef61029b3660046111e3565b6106d2565b6101ef61074f565b6101c16102b63660046111b3565b610763565b6101c160055481565b6101ef6102d23660046110e4565b610775565b6101ef6102e53660046110e4565b61079f565b6000546001600160a01b031661021d565b6101c1600a5481565b61032b6103123660046111b3565b600b602052600090815260409020805460019091015482565b604080519283526020830191909152016101cb565b6101c161034e3660046111b3565b6107c9565b6101ef6103613660046111b3565b61081f565b6101c160065481565b6101c161037d3660046111b3565b6000908152600c602052604090205490565b6101c161039d366004611123565b610849565b6101ef6103b03660046110e4565b6108ac565b6101c160075481565b600d81815481106103ce57600080fd5b600091825260209091200154905081565b60006103ea42610922565b905090565b8060005b8181101561043a5761042a84848381811061041e57634e487b7160e01b600052603260045260246000fd5b905060200201356105e0565b610433816112b3565b90506103f3565b50505050565b6002546001600160a01b031633146104735760405162461bcd60e51b815260040161046a9061120e565b60405180910390fd5b600254604051636833080360e11b8152600481018390524291606491600d916001600160a01b03169063d06610069060240160206040518083038186803b1580156104bd57600080fd5b505afa1580156104d1573d6000803e3d6000fd5b505050506040513d601f19601f820116820180604052508101906104f591906111cb565b8154811061051357634e487b7160e01b600052603260045260246000fd5b9060005260206000200154670de0b6b3a7640000610531919061127d565b61053b919061125d565b600a600082825461054c9190611245565b909155506000905061055d82610922565b905060055482106105a45760408051808201825283815260208082018481526000878152600b90925292902090518155905160019091015561059f81836109d1565b505050565b60408051808201825260058054825260208083018581526000888152600b9092529390209151825591516001909101555461059f9082906109d1565b6002546040516331a9108f60e11b8152600481018390526001600160a01b0390911690636352211e9060240160206040518083038186803b15801561062457600080fd5b505afa158015610638573d6000803e3d6000fd5b505050506040513d601f19601f8201168201806040525081019061065c9190611107565b6001600160a01b0316336001600160a01b0316146106c65760405162461bcd60e51b815260206004820152602160248201527f456d697373696f6e733a2063616c6c6572206e6f74206f776e6572206f6620496044820152601160fa1b606482015260840161046a565b6106cf81610a8a565b50565b6002546001600160a01b031633146106fc5760405162461bcd60e51b815260040161046a9061120e565b60006107088383610c1b565b61071185610cc9565b61071b919061129c565b905080600a600082825461072f9190611245565b9091555042905061074861074282610922565b826109d1565b5050505050565b610757610e7b565b6107616000610ed5565b565b600061076f8242610f25565b92915050565b61077d610e7b565b600180546001600160a01b0319166001600160a01b0392909216919091179055565b6107a7610e7b565b600280546001600160a01b0319166001600160a01b0392909216919091179055565b6000600854600e6107d942610922565b815481106107f757634e487b7160e01b600052603260045260246000fd5b906000526020600020015461080b84610cc9565b610815919061127d565b61076f919061125d565b6002546001600160a01b031633146106c65760405162461bcd60e51b815260040161046a9061120e565b60008142825b828110156108a35761088786868381811061087a57634e487b7160e01b600052603260045260246000fd5b9050602002013583610f25565b6108919085611245565b935061089c816112b3565b905061084f565b50505092915050565b6108b4610e7b565b6001600160a01b0381166109195760405162461bcd60e51b815260206004820152602660248201527f4f776e61626c653a206e6577206f776e657220697320746865207a65726f206160448201526564647265737360d01b606482015260840161046a565b6106cf81610ed5565b60006005544211158061095e57506001600052600c6020527fd421a5181c571bba3f01190c922c3b2a896fc1d84e86c9f17ac10e67ebef8b5c54155b1561096b57506001919050565b60015b60095481116109cb576000818152600c6020526040902054831080156109b05750600c600061099e60018461129c565b81526020019081526020016000205483115b156109bb5792915050565b6109c4816112b3565b905061096e565b50919050565b60006005548211156109f2576006546109ea908361129c565b600683905590505b825b600954811161043a578060011415610a3b5760055482610a138361104c565b610a1d9190611245565b610a279190611245565b6000828152600c6020526040902055610a7a565b600181118015610a4a57508381145b15610a595781610a1d8261104c565b83811115610a7a57610a6a8161104c565b6000828152600c60205260409020555b610a83816112b3565b90506109f4565b426000610a9682610922565b90506000610aa48484610f25565b60408051808201825285815260208082018681526000898152600b9092528382209251835551600192830155905460025492516331a9108f60e11b81526004810189905293945090926001600160a01b039182169263a9059cbb921690636352211e9060240160206040518083038186803b158015610b2257600080fd5b505afa158015610b36573d6000803e3d6000fd5b505050506040513d601f19601f82011682018060405250810190610b5a9190611107565b6040516001600160e01b031960e084901b1681526001600160a01b03909116600482015260248101859052604401602060405180830381600087803b158015610ba257600080fd5b505af1158015610bb6573d6000803e3d6000fd5b505050506040513d601f19601f82011682018060405250810190610bda9190611193565b9050806107485760405162461bcd60e51b815260206004820152600f60248201526e1d1c985b9cd9995c8819985a5b1959608a1b604482015260640161046a565b600080600060045485610c2e919061127d565b905060058410610c6c57600d600581548110610c5a57634e487b7160e01b600052603260045260246000fd5b90600052602060002001549150610c9b565b600d8481548110610c8d57634e487b7160e01b600052603260045260246000fd5b906000526020600020015491505b60648282600354610cac9190611245565b610cb6919061127d565b610cc0919061125d565b95945050505050565b600254604051636833080360e11b81526004810183905260009182916001600160a01b039091169063d06610069060240160206040518083038186803b158015610d1257600080fd5b505afa158015610d26573d6000803e3d6000fd5b505050506040513d601f19601f82011682018060405250810190610d4a91906111cb565b60025460405163a22b36ef60e01b8152600481018690529192506000916001600160a01b039091169063a22b36ef9060240160206040518083038186803b158015610d9457600080fd5b505afa158015610da8573d6000803e3d6000fd5b505050506040513d601f19601f82011682018060405250810190610dcc91906111cb565b905060008060045483610ddf919061127d565b905060058410610e1d57600d600581548110610e0b57634e487b7160e01b600052603260045260246000fd5b90600052602060002001549150610e4c565b600d8481548110610e3e57634e487b7160e01b600052603260045260246000fd5b906000526020600020015491505b60648282600354610e5d9190611245565b610e67919061127d565b610e71919061125d565b9695505050505050565b6000546001600160a01b031633146107615760405162461bcd60e51b815260206004820181905260248201527f4f776e61626c653a2063616c6c6572206973206e6f7420746865206f776e6572604482015260640161046a565b600080546001600160a01b038381166001600160a01b0319831681178455604051919092169283917f8be0079c531659141344cd1fd0a4f28419497f9722a3daafe3b4186f6b6457e09190a35050565b60055460009042908111610f3d57600091505061076f565b6000610f4882610922565b6000868152600b6020526040812054919250610f63876110d5565b6000888152600b60205260409020600101549091505b838111611041576000818152600c60205260408120548810610fc7576000828152600c6020526040902054610faf90859061129c565b6000838152600c602052604090205494509050610fd4565b610fd1848961129c565b90505b60085481600e8481548110610ff957634e487b7160e01b600052603260045260246000fd5b90600052602060002001548561100f919061127d565b611019919061127d565b611023919061125d565b61102d9088611245565b9650508061103a906112b3565b9050610f79565b505050505092915050565b6000600c8161105c60018561129c565b815260200190815260200160002054600e838154811061108c57634e487b7160e01b600052603260045260246000fd5b9060005260206000200154600a546110a4919061127d565b6008546007546110b4919061127d565b6110c1906201518061127d565b6110cb919061125d565b61076f9190611245565b60006201518061081583610cc9565b6000602082840312156110f5578081fd5b8135611100816112e4565b9392505050565b600060208284031215611118578081fd5b8151611100816112e4565b60008060208385031215611135578081fd5b823567ffffffffffffffff8082111561114c578283fd5b818501915085601f83011261115f578283fd5b81358181111561116d578384fd5b8660208260051b8501011115611181578384fd5b60209290920196919550909350505050565b6000602082840312156111a4578081fd5b81518015158114611100578182fd5b6000602082840312156111c4578081fd5b5035919050565b6000602082840312156111dc578081fd5b5051919050565b6000806000606084860312156111f7578081fd5b505081359360208301359350604090920135919050565b6020808252601d908201527f456d697373696f6e733a206f6e6c79206769726c2063616e2063616c6c000000604082015260600190565b60008219821115611258576112586112ce565b500190565b60008261127857634e487b7160e01b81526012600452602481fd5b500490565b6000816000190483118215151615611297576112976112ce565b500290565b6000828210156112ae576112ae6112ce565b500390565b60006000198214156112c7576112c76112ce565b5060010190565b634e487b7160e01b600052601160045260246000fd5b6001600160a01b03811681146106cf57600080fdfea26469706673582212204e0da8a326f8a6b7af935a8d2c691bcbf13bdfa1b482d3f61d9b7f860d8fe4dd64736f6c63430008040033",
  "linkReferences": {},
  "deployedLinkReferences": {}
}