{
  "_format": "hh-sol-artifact-1",
  "contractName": "Emissions",
  "sourceName": "contracts/ARC/Emissions.sol",
  "abi": [
    {
      "anonymous": false,
      "inputs": [
        {
          "indexed": true,
          "internalType": "address",
          "name": "previousOwner",
          "type": "address"
        },
        {
          "indexed": true,
          "internalType": "address",
          "name": "newOwner",
          "type": "address"
        }
      ],
      "name": "OwnershipTransferred",
      "type": "event"
    },
    {
      "inputs": [],
      "name": "arc",
      "outputs": [
        {
          "internalType": "contract IERC20",
          "name": "",
          "type": "address"
        }
      ],
      "stateMutability": "view",
      "type": "function"
    },
    {
      "inputs": [],
      "name": "base",
      "outputs": [
        {
          "internalType": "uint256",
          "name": "",
          "type": "uint256"
        }
      ],
      "stateMutability": "view",
      "type": "function"
    },
    {
      "inputs": [
        {
          "internalType": "uint256",
          "name": "girlId",
          "type": "uint256"
        }
      ],
      "name": "claim",
      "outputs": [],
      "stateMutability": "nonpayable",
      "type": "function"
    },
    {
      "inputs": [
        {
          "internalType": "uint256[]",
          "name": "ids",
          "type": "uint256[]"
        }
      ],
      "name": "claimAll",
      "outputs": [],
      "stateMutability": "nonpayable",
      "type": "function"
    },
    {
      "inputs": [
        {
          "internalType": "uint256",
          "name": "girlId",
          "type": "uint256"
        }
      ],
      "name": "claimBeforeUpgrade",
      "outputs": [],
      "stateMutability": "nonpayable",
      "type": "function"
    },
    {
      "inputs": [],
      "name": "getCurrentStep",
      "outputs": [
        {
          "internalType": "uint256",
          "name": "step",
          "type": "uint256"
        }
      ],
      "stateMutability": "view",
      "type": "function"
    },
    {
      "inputs": [],
      "name": "getCurrentTime",
      "outputs": [
        {
          "internalType": "uint256",
          "name": "",
          "type": "uint256"
        }
      ],
      "stateMutability": "view",
      "type": "function"
    },
    {
      "inputs": [
        {
          "internalType": "uint256",
          "name": "girlId",
          "type": "uint256"
        }
      ],
      "name": "getDailyWithRatio",
      "outputs": [
        {
          "internalType": "uint256",
          "name": "daily",
          "type": "uint256"
        }
      ],
      "stateMutability": "view",
      "type": "function"
    },
    {
      "inputs": [
        {
          "internalType": "uint256",
          "name": "index",
          "type": "uint256"
        }
      ],
      "name": "getPredictedTimeStamps",
      "outputs": [
        {
          "internalType": "uint256",
          "name": "time",
          "type": "uint256"
        }
      ],
      "stateMutability": "view",
      "type": "function"
    },
    {
      "inputs": [
        {
          "internalType": "uint256",
          "name": "girlId",
          "type": "uint256"
        }
      ],
      "name": "getSumOwed",
      "outputs": [
        {
          "internalType": "uint256",
          "name": "sum",
          "type": "uint256"
        }
      ],
      "stateMutability": "view",
      "type": "function"
    },
    {
      "inputs": [
        {
          "internalType": "uint256[]",
          "name": "ids",
          "type": "uint256[]"
        }
      ],
      "name": "getTotalSumOwed",
      "outputs": [
        {
          "internalType": "uint256",
          "name": "sum",
          "type": "uint256"
        }
      ],
      "stateMutability": "view",
      "type": "function"
    },
    {
      "inputs": [],
      "name": "girl",
      "outputs": [
        {
          "internalType": "contract IGirl",
          "name": "",
          "type": "address"
        }
      ],
      "stateMutability": "view",
      "type": "function"
    },
    {
      "inputs": [],
      "name": "inc",
      "outputs": [
        {
          "internalType": "uint256",
          "name": "",
          "type": "uint256"
        }
      ],
      "stateMutability": "view",
      "type": "function"
    },
    {
      "inputs": [],
      "name": "lastTimeStepUpdated",
      "outputs": [
        {
          "internalType": "uint256",
          "name": "",
          "type": "uint256"
        }
      ],
      "stateMutability": "view",
      "type": "function"
    },
    {
      "inputs": [
        {
          "internalType": "uint256",
          "name": "",
          "type": "uint256"
        }
      ],
      "name": "multiplier",
      "outputs": [
        {
          "internalType": "uint256",
          "name": "",
          "type": "uint256"
        }
      ],
      "stateMutability": "view",
      "type": "function"
    },
    {
      "inputs": [
        {
          "internalType": "uint256",
          "name": "id",
          "type": "uint256"
        }
      ],
      "name": "newGirl",
      "outputs": [],
      "stateMutability": "nonpayable",
      "type": "function"
    },
    {
      "inputs": [],
      "name": "owner",
      "outputs": [
        {
          "internalType": "address",
          "name": "",
          "type": "address"
        }
      ],
      "stateMutability": "view",
      "type": "function"
    },
    {
      "inputs": [
        {
          "internalType": "uint256",
          "name": "",
          "type": "uint256"
        }
      ],
      "name": "receipt",
      "outputs": [
        {
          "internalType": "uint256",
          "name": "timeLastClaimed",
          "type": "uint256"
        },
        {
          "internalType": "uint256",
          "name": "stepLastClaimed",
          "type": "uint256"
        }
      ],
      "stateMutability": "view",
      "type": "function"
    },
    {
      "inputs": [],
      "name": "renounceOwnership",
      "outputs": [],
      "stateMutability": "nonpayable",
      "type": "function"
    },
    {
      "inputs": [
        {
          "internalType": "address",
          "name": "_a",
          "type": "address"
        }
      ],
      "name": "setArcContract",
      "outputs": [],
      "stateMutability": "nonpayable",
      "type": "function"
    },
    {
      "inputs": [
        {
          "internalType": "address",
          "name": "_girl",
          "type": "address"
        }
      ],
      "name": "setGirlContract",
      "outputs": [],
      "stateMutability": "nonpayable",
      "type": "function"
    },
    {
      "inputs": [],
      "name": "startTime",
      "outputs": [
        {
          "internalType": "uint256",
          "name": "",
          "type": "uint256"
        }
      ],
      "stateMutability": "view",
      "type": "function"
    },
    {
      "inputs": [],
      "name": "stepSupply",
      "outputs": [
        {
          "internalType": "uint256",
          "name": "",
          "type": "uint256"
        }
      ],
      "stateMutability": "view",
      "type": "function"
    },
    {
      "inputs": [
        {
          "internalType": "uint256",
          "name": "",
          "type": "uint256"
        }
      ],
      "name": "stepTimeStamps",
      "outputs": [
        {
          "internalType": "uint256",
          "name": "",
          "type": "uint256"
        }
      ],
      "stateMutability": "view",
      "type": "function"
    },
    {
      "inputs": [],
      "name": "totalRewardsPerDay",
      "outputs": [
        {
          "internalType": "uint256",
          "name": "",
          "type": "uint256"
        }
      ],
      "stateMutability": "view",
      "type": "function"
    },
    {
      "inputs": [
        {
          "internalType": "address",
          "name": "newOwner",
          "type": "address"
        }
      ],
      "name": "transferOwnership",
      "outputs": [],
      "stateMutability": "nonpayable",
      "type": "function"
    },
    {
      "inputs": [
        {
          "internalType": "uint256",
          "name": "girlId",
          "type": "uint256"
        },
        {
          "internalType": "uint256",
          "name": "oldGs",
          "type": "uint256"
        },
        {
          "internalType": "uint256",
          "name": "oldCl",
          "type": "uint256"
        }
      ],
      "name": "updateTotalRewardsPerDay",
      "outputs": [],
      "stateMutability": "nonpayable",
      "type": "function"
    }
  ],
  "bytecode": "0x670de0b6b3a76400006003556706f05b59d3b2000060045542600581905560069081556a02df03497b1dd57b60000060075562989680600855600a60095561014060405260006080908152606460a052607d60c052609660e05260af6101005260c8610120526200007491600d919062000163565b50604080516101608101825260008152629896806020820152627d42fe9181019190915262659c62606082015262504a7e6080820152623d5b2660a0820152622cdec260c0820152621ee95c60e082015262139462610100820152620b026661012082015262056824610140820152620000f390600e90600b620001b8565b503480156200010157600080fd5b506200010d3362000113565b62000214565b600080546001600160a01b038381166001600160a01b0319831681178455604051919092169283917f8be0079c531659141344cd1fd0a4f28419497f9722a3daafe3b4186f6b6457e09190a35050565b828054828255906000526020600020908101928215620001a6579160200282015b82811115620001a6578251829060ff1690559160200191906001019062000184565b50620001b4929150620001fd565b5090565b828054828255906000526020600020908101928215620001a6579160200282015b82811115620001a6578251829062ffffff16905591602001919060010190620001d9565b5b80821115620001b45760008155600101620001fe565b61134680620002246000396000f3fe608060405234801561001057600080fd5b50600436106101a95760003560e01c806372fcb59c116100f9578063a4470fb311610097578063c4ee802211610071578063c4ee80221461036f578063dbda1c931461038f578063f2fde38b146103a2578063fe8f889e146103b557600080fd5b8063a4470fb314610340578063b3c9524b14610353578063b89092811461036657600080fd5b806384eda544116100d357806384eda544146102d75780638da5cb5b146102ea57806396050dbc146102fb578063a2aa43371461030457600080fd5b806372fcb59c146102a857806378e97925146102bb5780637db1a111146102c457600080fd5b8063371303c0116101665780634b1c6a40116101405780634b1c6a40146102715780635001f3b5146102845780635aff0d761461028d578063715018a6146102a057600080fd5b8063371303c014610235578063379607f51461023e57806342e0ea171461025157600080fd5b806305e30f51146101ae5780631d3824ea146101d457806328c77820146101dc57806329cb924d146101f15780632b017cb7146101f75780633318f1a51461020a575b600080fd5b6101c16101bc3660046111ca565b6103be565b6040519081526020015b60405180910390f35b6101c16103df565b6101ef6101ea36600461113a565b6103ef565b005b426101c1565b6101ef6102053660046111ca565b610440565b60025461021d906001600160a01b031681565b6040516001600160a01b0390911681526020016101cb565b6101c160045481565b6101ef61024c3660046111ca565b6105e0565b6101c161025f3660046111ca565b600c6020526000908152604090205481565b60015461021d906001600160a01b031681565b6101c160035481565b6101ef61029b3660046111fa565b610723565b6101ef6107a0565b6101c16102b63660046111ca565b6107b4565b6101c160055481565b6101ef6102d23660046110fb565b6107c6565b6101ef6102e53660046110fb565b6107f0565b6000546001600160a01b031661021d565b6101c1600a5481565b61032b6103123660046111ca565b600b602052600090815260409020805460019091015482565b604080519283526020830191909152016101cb565b6101c161034e3660046111ca565b61081a565b6101ef6103613660046111ca565b610870565b6101c160065481565b6101c161037d3660046111ca565b6000908152600c602052604090205490565b6101c161039d36600461113a565b61089a565b6101ef6103b03660046110fb565b6108fd565b6101c160075481565b600d81815481106103ce57600080fd5b600091825260209091200154905081565b60006103ea42610973565b905090565b8060005b8181101561043a5761042a84848381811061041e57634e487b7160e01b600052603260045260246000fd5b905060200201356105e0565b610433816112ca565b90506103f3565b50505050565b6002546001600160a01b031633146104735760405162461bcd60e51b815260040161046a90611225565b60405180910390fd5b600254604051636833080360e11b8152600481018390524291606491600d916001600160a01b03169063d06610069060240160206040518083038186803b1580156104bd57600080fd5b505afa1580156104d1573d6000803e3d6000fd5b505050506040513d601f19601f820116820180604052508101906104f591906111e2565b8154811061051357634e487b7160e01b600052603260045260246000fd5b9060005260206000200154670de0b6b3a76400006105319190611294565b61053b9190611274565b600a600082825461054c919061125c565b909155506000905061055d82610973565b905060055482106105a45760408051808201825283815260208082018481526000878152600b90925292902090518155905160019091015561059f8183610a22565b505050565b60408051808201825260058054825260208083018581526000888152600b9092529390209151825591516001909101555461059f908290610a22565b60055442116106315760405162461bcd60e51b815260206004820152601a60248201527f456d697373696f6e733a206e6f74207374617274656420796574000000000000604482015260640161046a565b6002546040516331a9108f60e11b8152600481018390526001600160a01b0390911690636352211e9060240160206040518083038186803b15801561067557600080fd5b505afa158015610689573d6000803e3d6000fd5b505050506040513d601f19601f820116820180604052508101906106ad919061111e565b6001600160a01b0316336001600160a01b0316146107175760405162461bcd60e51b815260206004820152602160248201527f456d697373696f6e733a2063616c6c6572206e6f74206f776e6572206f6620496044820152601160fa1b606482015260840161046a565b61072081610adb565b50565b6002546001600160a01b0316331461074d5760405162461bcd60e51b815260040161046a90611225565b60006107598383610c2c565b61076285610cda565b61076c91906112b3565b905080600a6000828254610780919061125c565b9091555042905061079961079382610973565b82610a22565b5050505050565b6107a8610e8c565b6107b26000610ee6565b565b60006107c08242610f36565b92915050565b6107ce610e8c565b600180546001600160a01b0319166001600160a01b0392909216919091179055565b6107f8610e8c565b600280546001600160a01b0319166001600160a01b0392909216919091179055565b6000600854600e61082a42610973565b8154811061084857634e487b7160e01b600052603260045260246000fd5b906000526020600020015461085c84610cda565b6108669190611294565b6107c09190611274565b6002546001600160a01b031633146107175760405162461bcd60e51b815260040161046a90611225565b60008142825b828110156108f4576108d88686838181106108cb57634e487b7160e01b600052603260045260246000fd5b9050602002013583610f36565b6108e2908561125c565b93506108ed816112ca565b90506108a0565b50505092915050565b610905610e8c565b6001600160a01b03811661096a5760405162461bcd60e51b815260206004820152602660248201527f4f776e61626c653a206e6577206f776e657220697320746865207a65726f206160448201526564647265737360d01b606482015260840161046a565b61072081610ee6565b6000600554421115806109af57506001600052600c6020527fd421a5181c571bba3f01190c922c3b2a896fc1d84e86c9f17ac10e67ebef8b5c54155b156109bc57506001919050565b60015b6009548111610a1c576000818152600c602052604090205483108015610a015750600c60006109ef6001846112b3565b81526020019081526020016000205483115b15610a0c5792915050565b610a15816112ca565b90506109bf565b50919050565b6000600554821115610a4357600654610a3b90836112b3565b600683905590505b825b600954811161043a578060011415610a8c5760055482610a6483611063565b610a6e919061125c565b610a78919061125c565b6000828152600c6020526040902055610acb565b600181118015610a9b57508381145b15610aaa5781610a6e82611063565b83811115610acb57610abb81611063565b6000828152600c60205260409020555b610ad4816112ca565b9050610a45565b426000610ae782610973565b90506000610af58484610f36565b60408051808201825285815260208082018681526000898152600b9092529083902091518255516001918201555460025491516331a9108f60e11b8152600481018890529293506001600160a01b039081169263a9059cbb929190911690636352211e9060240160206040518083038186803b158015610b7457600080fd5b505afa158015610b88573d6000803e3d6000fd5b505050506040513d601f19601f82011682018060405250810190610bac919061111e565b6040516001600160e01b031960e084901b1681526001600160a01b03909116600482015260248101849052604401602060405180830381600087803b158015610bf457600080fd5b505af1158015610c08573d6000803e3d6000fd5b505050506040513d601f19601f8201168201806040525081019061079991906111aa565b600080600060045485610c3f9190611294565b905060058410610c7d57600d600581548110610c6b57634e487b7160e01b600052603260045260246000fd5b90600052602060002001549150610cac565b600d8481548110610c9e57634e487b7160e01b600052603260045260246000fd5b906000526020600020015491505b60648282600354610cbd919061125c565b610cc79190611294565b610cd19190611274565b95945050505050565b600254604051636833080360e11b81526004810183905260009182916001600160a01b039091169063d06610069060240160206040518083038186803b158015610d2357600080fd5b505afa158015610d37573d6000803e3d6000fd5b505050506040513d601f19601f82011682018060405250810190610d5b91906111e2565b60025460405163a22b36ef60e01b8152600481018690529192506000916001600160a01b039091169063a22b36ef9060240160206040518083038186803b158015610da557600080fd5b505afa158015610db9573d6000803e3d6000fd5b505050506040513d601f19601f82011682018060405250810190610ddd91906111e2565b905060008060045483610df09190611294565b905060058410610e2e57600d600581548110610e1c57634e487b7160e01b600052603260045260246000fd5b90600052602060002001549150610e5d565b600d8481548110610e4f57634e487b7160e01b600052603260045260246000fd5b906000526020600020015491505b60648282600354610e6e919061125c565b610e789190611294565b610e829190611274565b9695505050505050565b6000546001600160a01b031633146107b25760405162461bcd60e51b815260206004820181905260248201527f4f776e61626c653a2063616c6c6572206973206e6f7420746865206f776e6572604482015260640161046a565b600080546001600160a01b038381166001600160a01b0319831681178455604051919092169283917f8be0079c531659141344cd1fd0a4f28419497f9722a3daafe3b4186f6b6457e09190a35050565b60055460009042908111610f4e5760009150506107c0565b6000610f5982610973565b6000868152600b6020526040812054919250610f74876110ec565b6000888152600b60205260409020600101549091505b83811161105857600080600854600e8481548110610fb857634e487b7160e01b600052603260045260246000fd5b906000526020600020015485610fce9190611294565b610fd89190611274565b6000848152600c60205260409020549091508910611022576000838152600c602052604090205461100a9086906112b3565b6000848152600c60205260409020549550915061102f565b61102c858a6112b3565b91505b6110398282611294565b611043908961125c565b9750505080611051906112ca565b9050610f8a565b505050505092915050565b6000600c816110736001856112b3565b815260200190815260200160002054600854600e84815481106110a657634e487b7160e01b600052603260045260246000fd5b9060005260206000200154600a546110be9190611294565b6110c89190611274565b6007546110d59190611274565b6110e29062015180611294565b6107c0919061125c565b60006201518061086683610cda565b60006020828403121561110c578081fd5b8135611117816112fb565b9392505050565b60006020828403121561112f578081fd5b8151611117816112fb565b6000806020838503121561114c578081fd5b823567ffffffffffffffff80821115611163578283fd5b818501915085601f830112611176578283fd5b813581811115611184578384fd5b8660208260051b8501011115611198578384fd5b60209290920196919550909350505050565b6000602082840312156111bb578081fd5b81518015158114611117578182fd5b6000602082840312156111db578081fd5b5035919050565b6000602082840312156111f3578081fd5b5051919050565b60008060006060848603121561120e578081fd5b505081359360208301359350604090920135919050565b6020808252601d908201527f456d697373696f6e733a206f6e6c79206769726c2063616e2063616c6c000000604082015260600190565b6000821982111561126f5761126f6112e5565b500190565b60008261128f57634e487b7160e01b81526012600452602481fd5b500490565b60008160001904831182151516156112ae576112ae6112e5565b500290565b6000828210156112c5576112c56112e5565b500390565b60006000198214156112de576112de6112e5565b5060010190565b634e487b7160e01b600052601160045260246000fd5b6001600160a01b038116811461072057600080fdfea2646970667358221220acff3ae253cf28c09e7b6d9dc2655e6635e70fc1e7bbfcc8dfb90f88f420467464736f6c63430008040033",
  "linkReferences": {},
  "deployedLinkReferences": {}
}