{
  "_format": "hh-sol-artifact-1",
  "contractName": "ESMarketplace",
  "sourceName": "contracts/Marketplace/ESMarketplace.sol",
  "abi": [
    {
      "inputs": [
        {
          "internalType": "address",
          "name": "_arcToken",
          "type": "address"
        },
        {
          "internalType": "address",
          "name": "_elemental",
          "type": "address"
        }
      ],
      "stateMutability": "nonpayable",
      "type": "constructor"
    },
    {
      "anonymous": false,
      "inputs": [
        {
          "indexed": true,
          "internalType": "address",
          "name": "previousOwner",
          "type": "address"
        },
        {
          "indexed": true,
          "internalType": "address",
          "name": "newOwner",
          "type": "address"
        }
      ],
      "name": "OwnershipTransferred",
      "type": "event"
    },
    {
      "inputs": [],
      "name": "_listingID",
      "outputs": [
        {
          "internalType": "uint256",
          "name": "",
          "type": "uint256"
        }
      ],
      "stateMutability": "view",
      "type": "function"
    },
    {
      "inputs": [],
      "name": "allTokensSoldCount",
      "outputs": [
        {
          "internalType": "uint256",
          "name": "",
          "type": "uint256"
        }
      ],
      "stateMutability": "view",
      "type": "function"
    },
    {
      "inputs": [],
      "name": "arcToken",
      "outputs": [
        {
          "internalType": "contract IERC20",
          "name": "",
          "type": "address"
        }
      ],
      "stateMutability": "view",
      "type": "function"
    },
    {
      "inputs": [
        {
          "internalType": "address",
          "name": "_buyer",
          "type": "address"
        },
        {
          "internalType": "uint256",
          "name": "_marketplaceID",
          "type": "uint256"
        }
      ],
      "name": "buyNFT",
      "outputs": [
        {
          "internalType": "address",
          "name": "",
          "type": "address"
        },
        {
          "internalType": "uint256",
          "name": "",
          "type": "uint256"
        }
      ],
      "stateMutability": "nonpayable",
      "type": "function"
    },
    {
      "inputs": [
        {
          "internalType": "uint256",
          "name": "_marketplaceID",
          "type": "uint256"
        }
      ],
      "name": "cancelSale",
      "outputs": [],
      "stateMutability": "nonpayable",
      "type": "function"
    },
    {
      "inputs": [
        {
          "internalType": "uint256",
          "name": "",
          "type": "uint256"
        }
      ],
      "name": "elementString",
      "outputs": [
        {
          "internalType": "string",
          "name": "",
          "type": "string"
        }
      ],
      "stateMutability": "view",
      "type": "function"
    },
    {
      "inputs": [],
      "name": "elementalStoneContract",
      "outputs": [
        {
          "internalType": "contract IERC1155",
          "name": "",
          "type": "address"
        }
      ],
      "stateMutability": "view",
      "type": "function"
    },
    {
      "inputs": [],
      "name": "getAllActiveListings",
      "outputs": [
        {
          "components": [
            {
              "internalType": "uint256",
              "name": "marketplaceID",
              "type": "uint256"
            },
            {
              "internalType": "address",
              "name": "seller",
              "type": "address"
            },
            {
              "internalType": "uint256",
              "name": "price",
              "type": "uint256"
            },
            {
              "internalType": "uint256",
              "name": "elementID",
              "type": "uint256"
            },
            {
              "internalType": "string",
              "name": "elementString",
              "type": "string"
            }
          ],
          "internalType": "struct ESMarketplace.Token[]",
          "name": "",
          "type": "tuple[]"
        }
      ],
      "stateMutability": "view",
      "type": "function"
    },
    {
      "inputs": [
        {
          "internalType": "address",
          "name": "_user",
          "type": "address"
        }
      ],
      "name": "getSaleHistory",
      "outputs": [
        {
          "components": [
            {
              "internalType": "uint256",
              "name": "marketplaceID",
              "type": "uint256"
            },
            {
              "internalType": "address",
              "name": "seller",
              "type": "address"
            },
            {
              "internalType": "uint256",
              "name": "price",
              "type": "uint256"
            },
            {
              "internalType": "uint256",
              "name": "elementID",
              "type": "uint256"
            },
            {
              "internalType": "string",
              "name": "elementString",
              "type": "string"
            }
          ],
          "internalType": "struct ESMarketplace.Token[]",
          "name": "",
          "type": "tuple[]"
        }
      ],
      "stateMutability": "view",
      "type": "function"
    },
    {
      "inputs": [
        {
          "internalType": "address",
          "name": "_user",
          "type": "address"
        }
      ],
      "name": "getUsersActiveListings",
      "outputs": [
        {
          "components": [
            {
              "internalType": "uint256",
              "name": "marketplaceID",
              "type": "uint256"
            },
            {
              "internalType": "address",
              "name": "seller",
              "type": "address"
            },
            {
              "internalType": "uint256",
              "name": "price",
              "type": "uint256"
            },
            {
              "internalType": "uint256",
              "name": "elementID",
              "type": "uint256"
            },
            {
              "internalType": "string",
              "name": "elementString",
              "type": "string"
            }
          ],
          "internalType": "struct ESMarketplace.Token[]",
          "name": "",
          "type": "tuple[]"
        }
      ],
      "stateMutability": "view",
      "type": "function"
    },
    {
      "inputs": [
        {
          "internalType": "address",
          "name": "",
          "type": "address"
        },
        {
          "internalType": "address",
          "name": "",
          "type": "address"
        },
        {
          "internalType": "uint256[]",
          "name": "",
          "type": "uint256[]"
        },
        {
          "internalType": "uint256[]",
          "name": "",
          "type": "uint256[]"
        },
        {
          "internalType": "bytes",
          "name": "",
          "type": "bytes"
        }
      ],
      "name": "onERC1155BatchReceived",
      "outputs": [
        {
          "internalType": "bytes4",
          "name": "",
          "type": "bytes4"
        }
      ],
      "stateMutability": "nonpayable",
      "type": "function"
    },
    {
      "inputs": [
        {
          "internalType": "address",
          "name": "",
          "type": "address"
        },
        {
          "internalType": "address",
          "name": "",
          "type": "address"
        },
        {
          "internalType": "uint256",
          "name": "",
          "type": "uint256"
        },
        {
          "internalType": "uint256",
          "name": "",
          "type": "uint256"
        },
        {
          "internalType": "bytes",
          "name": "",
          "type": "bytes"
        }
      ],
      "name": "onERC1155Received",
      "outputs": [
        {
          "internalType": "bytes4",
          "name": "",
          "type": "bytes4"
        }
      ],
      "stateMutability": "nonpayable",
      "type": "function"
    },
    {
      "inputs": [],
      "name": "owner",
      "outputs": [
        {
          "internalType": "address",
          "name": "",
          "type": "address"
        }
      ],
      "stateMutability": "view",
      "type": "function"
    },
    {
      "inputs": [],
      "name": "renounceOwnership",
      "outputs": [],
      "stateMutability": "nonpayable",
      "type": "function"
    },
    {
      "inputs": [
        {
          "internalType": "address",
          "name": "_seller",
          "type": "address"
        },
        {
          "internalType": "uint256",
          "name": "_id",
          "type": "uint256"
        },
        {
          "internalType": "uint256",
          "name": "_price",
          "type": "uint256"
        }
      ],
      "name": "sellNFT",
      "outputs": [],
      "stateMutability": "nonpayable",
      "type": "function"
    },
    {
      "inputs": [
        {
          "internalType": "bytes4",
          "name": "interfaceId",
          "type": "bytes4"
        }
      ],
      "name": "supportsInterface",
      "outputs": [
        {
          "internalType": "bool",
          "name": "",
          "type": "bool"
        }
      ],
      "stateMutability": "view",
      "type": "function"
    },
    {
      "inputs": [
        {
          "internalType": "address",
          "name": "",
          "type": "address"
        }
      ],
      "name": "tokenSoldCount",
      "outputs": [
        {
          "internalType": "uint256",
          "name": "",
          "type": "uint256"
        }
      ],
      "stateMutability": "view",
      "type": "function"
    },
    {
      "inputs": [
        {
          "internalType": "uint256",
          "name": "",
          "type": "uint256"
        }
      ],
      "name": "tokensForSale",
      "outputs": [
        {
          "internalType": "uint256",
          "name": "marketplaceID",
          "type": "uint256"
        },
        {
          "internalType": "address",
          "name": "seller",
          "type": "address"
        },
        {
          "internalType": "uint256",
          "name": "price",
          "type": "uint256"
        },
        {
          "internalType": "uint256",
          "name": "elementID",
          "type": "uint256"
        },
        {
          "internalType": "string",
          "name": "elementString",
          "type": "string"
        }
      ],
      "stateMutability": "view",
      "type": "function"
    },
    {
      "inputs": [],
      "name": "tokensForSaleCount",
      "outputs": [
        {
          "internalType": "uint256",
          "name": "",
          "type": "uint256"
        }
      ],
      "stateMutability": "view",
      "type": "function"
    },
    {
      "inputs": [
        {
          "internalType": "address",
          "name": "",
          "type": "address"
        },
        {
          "internalType": "uint256",
          "name": "",
          "type": "uint256"
        }
      ],
      "name": "tokensSold",
      "outputs": [
        {
          "internalType": "uint256",
          "name": "marketplaceID",
          "type": "uint256"
        },
        {
          "internalType": "address",
          "name": "seller",
          "type": "address"
        },
        {
          "internalType": "uint256",
          "name": "price",
          "type": "uint256"
        },
        {
          "internalType": "uint256",
          "name": "elementID",
          "type": "uint256"
        },
        {
          "internalType": "string",
          "name": "elementString",
          "type": "string"
        }
      ],
      "stateMutability": "view",
      "type": "function"
    },
    {
      "inputs": [
        {
          "internalType": "address",
          "name": "newOwner",
          "type": "address"
        }
      ],
      "name": "transferOwnership",
      "outputs": [],
      "stateMutability": "nonpayable",
      "type": "function"
    },
    {
      "inputs": [
        {
          "internalType": "address",
          "name": "",
          "type": "address"
        },
        {
          "internalType": "uint256",
          "name": "",
          "type": "uint256"
        }
      ],
      "name": "usersAuctions",
      "outputs": [
        {
          "internalType": "uint256",
          "name": "",
          "type": "uint256"
        }
      ],
      "stateMutability": "view",
      "type": "function"
    }
  ],
  "bytecode": "0x60006101609081526080908152600d6101808181526c446f726d616e7420466c616d6560981b6101a05260a0526101c08181526c446f726d616e7420546572726160981b6101e05260c052600c6102008181526b446f726d616e74204171756160a01b6102205260e0526102408281526c417474756e656420466c616d6560981b61026052610100526102809182526c417474756e656420546572726160981b6102a052610120919091526103006040526102c09081526b417474756e6564204171756160a01b6102e05261014052620000de906002906007620001ed565b506040805160e081018252600080825260208201819052918101829052606081018290526080810182905260a0810182905260c08101919091526200012890600c90600762000251565b503480156200013657600080fd5b506040516200252b3803806200252b8339810160408190526200015991620003b6565b600160005562000169336200019b565b600380546001600160a01b039384166001600160a01b031991821617909155600480549290931691161790556200042a565b600180546001600160a01b038381166001600160a01b0319831681179093556040519116919082907f8be0079c531659141344cd1fd0a4f28419497f9722a3daafe3b4186f6b6457e090600090a35050565b8280548282559060005260206000209081019282156200023f579160200282015b828111156200023f57825180516200022e918491602090910190620002a2565b50916020019190600101906200020e565b506200024d9291506200031f565b5090565b82805482825590600052602060002090810192821562000294579160200282015b8281111562000294578251829060ff1690559160200191906001019062000272565b506200024d92915062000340565b828054620002b090620003ed565b90600052602060002090601f016020900481019282620002d4576000855562000294565b82601f10620002ef57805160ff191683800117855562000294565b8280016001018555821562000294579182015b828111156200029457825182559160200191906001019062000302565b808211156200024d57600062000336828262000357565b506001016200031f565b5b808211156200024d576000815560010162000341565b5080546200036590620003ed565b6000825580601f1062000376575050565b601f01602090049060005260206000209081019062000396919062000340565b50565b80516001600160a01b0381168114620003b157600080fd5b919050565b60008060408385031215620003c9578182fd5b620003d48362000399565b9150620003e46020840162000399565b90509250929050565b600181811c908216806200040257607f821691505b602082108114156200042457634e487b7160e01b600052602260045260246000fd5b50919050565b6120f1806200043a6000396000f3fe608060405234801561001057600080fd5b50600436106101425760003560e01c80638da5cb5b116100b8578063c01126781161007c578063c0112678146102fa578063e2ad54c11461030d578063e368aacf14610320578063f23a6e6114610333578063f2fde38b14610352578063f779a1931461036557600080fd5b80638da5cb5b1461024c578063a82ba76f1461025d578063ab3aefd51461028f578063bc197c81146102af578063bd94b005146102e757600080fd5b80634d683d081161010a5780634d683d08146101de5780634d69cac2146101fe5780635f1f144d14610207578063701e508414610227578063715018a61461022f57806387b374681461023957600080fd5b806301ffc9a71461014757806305d33ff81461016f57806323d3a1db1461019a57806326c1465c146101be5780633fe77f41146101d5575b600080fd5b61015a610155366004611e10565b610378565b60405190151581526020015b60405180910390f35b600454610182906001600160a01b031681565b6040516001600160a01b039091168152602001610166565b6101ad6101a8366004611db5565b6103af565b604051610166959493929190611f9b565b6101c760065481565b604051908152602001610166565b6101c760055481565b6101f16101ec366004611e38565b610495565b6040516101669190611f88565b6101c760075481565b61021a610215366004611c8b565b610541565b6040516101669190611eeb565b61021a6108e0565b610237610abc565b005b6101ad610247366004611e38565b610ad0565b6001546001600160a01b0316610182565b61027061026b366004611db5565b610b10565b604080516001600160a01b039093168352602083019190915201610166565b6101c761029d366004611c8b565b600b6020526000908152604090205481565b6102ce6102bd366004611cac565b63bc197c8160e01b95945050505050565b6040516001600160e01b03199091168152602001610166565b6102376102f5366004611e38565b611027565b600354610182906001600160a01b031681565b6101c761031b366004611db5565b61120b565b61021a61032e366004611c8b565b61123c565b6102ce610341366004611d52565b63f23a6e6160e01b95945050505050565b610237610360366004611c8b565b611378565b610237610373366004611dde565b6113f1565b60006001600160e01b03198216630271189760e51b14806103a957506301ffc9a760e01b6001600160e01b03198316145b92915050565b600a60205281600052604060002081815481106103cb57600080fd5b6000918252602090912060059091020180546001820154600283015460038401546004850180549497506001600160a01b0390931695509093909290919061041290612039565b80601f016020809104026020016040519081016040528092919081815260200182805461043e90612039565b801561048b5780601f106104605761010080835404028352916020019161048b565b820191906000526020600020905b81548152906001019060200180831161046e57829003601f168201915b5050505050905085565b600281815481106104a557600080fd5b9060005260206000200160009150905080546104c090612039565b80601f01602080910402602001604051908101604052809291908181526020018280546104ec90612039565b80156105395780601f1061050e57610100808354040283529160200191610539565b820191906000526020600020905b81548152906001019060200180831161051c57829003601f168201915b505050505081565b6001600160a01b03811660009081526009602090815260408083208054825181850281018501909352808352606094938301828280156105a057602002820191906000526020600020905b81548152602001906001019080831161058c575b50505050509050600080600090505b8251811015610603578281815181106105d857634e487b7160e01b600052603260045260246000fd5b60200260200101516000146105f3576105f082612074565b91505b6105fc81612074565b90506105af565b5060008167ffffffffffffffff81111561062d57634e487b7160e01b600052604160045260246000fd5b604051908082528060200260200182016040528015610656578160200160208202803683370190505b5090506000805b84518110156107045784818151811061068657634e487b7160e01b600052603260045260246000fd5b60200260200101516000146106f4578481815181106106b557634e487b7160e01b600052603260045260246000fd5b60200260200101518383815181106106dd57634e487b7160e01b600052603260045260246000fd5b60209081029190910101526106f182612074565b91505b6106fd81612074565b905061065d565b5060008367ffffffffffffffff81111561072e57634e487b7160e01b600052604160045260246000fd5b60405190808252806020026020018201604052801561076757816020015b6107546119ff565b81526020019060019003908161074c5790505b50905060005b848110156108d5576008600085838151811061079957634e487b7160e01b600052603260045260246000fd5b602002602001015181526020019081526020016000206040518060a0016040529081600082015481526020016001820160009054906101000a90046001600160a01b03166001600160a01b03166001600160a01b03168152602001600282015481526020016003820154815260200160048201805461081790612039565b80601f016020809104026020016040519081016040528092919081815260200182805461084390612039565b80156108905780601f1061086557610100808354040283529160200191610890565b820191906000526020600020905b81548152906001019060200180831161087357829003601f168201915b5050505050815250508282815181106108b957634e487b7160e01b600052603260045260246000fd5b6020026020010181905250806108ce90612074565b905061076d565b509695505050505050565b606060008060065467ffffffffffffffff81111561090e57634e487b7160e01b600052604160045260246000fd5b60405190808252806020026020018201604052801561094757816020015b6109346119ff565b81526020019060019003908161092c5790505b509050600060075460065461095c919061200a565b905060015b818111610ab3576000818152600860205260409020600101546001600160a01b031615610aa357600081815260086020908152604091829020825160a0810184528154815260018201546001600160a01b031692810192909252600281015492820192909252600382015460608201526004820180549192916080840191906109e990612039565b80601f0160208091040260200160405190810160405280929190818152602001828054610a1590612039565b8015610a625780601f10610a3757610100808354040283529160200191610a62565b820191906000526020600020905b815481529060010190602001808311610a4557829003601f168201915b505050505081525050838581518110610a8b57634e487b7160e01b600052603260045260246000fd5b602002602001018190525083610aa090612074565b93505b610aac81612074565b9050610961565b50909392505050565b610ac4611756565b610ace60006117b0565b565b6008602052600090815260409020805460018201546002830154600384015460048501805494956001600160a01b03909416949293919261041290612039565b60008060026000541415610b6b5760405162461bcd60e51b815260206004820152601f60248201527f5265656e7472616e637947756172643a207265656e7472616e742063616c6c0060448201526064015b60405180910390fd5b60026000556003546001600160a01b03163314610bca5760405162461bcd60e51b815260206004820181905260248201527f45534d61726b6574706c6163653a204f6e6c79204152432063616e2063616c6c6044820152606401610b62565b6000838152600860209081526040808320815160a0810183528154815260018201546001600160a01b03169381019390935260028101549183019190915260038101546060830152600481018054608084019190610c2790612039565b80601f0160208091040260200160405190810160405280929190818152602001828054610c5390612039565b8015610ca05780601f10610c7557610100808354040283529160200191610ca0565b820191906000526020600020905b815481529060010190602001808311610c8357829003601f168201915b5050509190925250505060208101519091506001600160a01b0316610d075760405162461bcd60e51b815260206004820152601e60248201527f45534d61726b6574706c6163653a204944206e6f7420666f722073616c6500006044820152606401610b62565b846001600160a01b031681602001516001600160a01b03161415610d7e5760405162461bcd60e51b815260206004820152602860248201527f45534d61726b6574706c6163653a2063616e742062757920796f7572206f776e604482015267206c697374696e6760c01b6064820152608401610b62565b6040810151610dcf5760405162461bcd60e51b815260206004820181905260248201527f45534d61726b6574706c6163653a20427579206661696c6564204020636f73746044820152606401610b62565b600480546060830151604051627eeac760e11b8152309381019390935260248301526000916001600160a01b039091169062fdd58e9060440160206040518083038186803b158015610e2057600080fd5b505afa158015610e34573d6000803e3d6000fd5b505050506040513d601f19601f82011682018060405250810190610e589190611e50565b11610eb45760405162461bcd60e51b815260206004820152602660248201527f45534d61726b6574706c6163653a20636f6e747261637420646f65736e742068604482015265185d9948125160d21b6064820152608401610b62565b6020808201516001600160a01b039081166000908152600a83526040808220888352600885529082208154600181810184559284529490922082546005909502019384558082015490840180546001600160a01b031916919093161790915560028082015490830155600380820154908301556004808201805492939291830191610f3e90612039565b610f49929190611a37565b5050600480546060840151604051637921219560e11b81526001600160a01b03909216935063f242432a92610f879230928b92909160019101611eb3565b600060405180830381600087803b158015610fa157600080fd5b505af1158015610fb5573d6000803e3d6000fd5b50505050610fc1611802565b6020808201516001600160a01b03166000908152600b909152604081208054909190610fec90612074565b90915550610ff9846118cd565b60076000815461100890612074565b9091555060208101516040909101516001600055909590945092505050565b6000818152600860209081526040808320815160a0810183528154815260018201546001600160a01b0316938101939093526002810154918301919091526003810154606083015260048101805460808401919061108490612039565b80601f01602080910402602001604051908101604052809291908181526020018280546110b090612039565b80156110fd5780601f106110d2576101008083540402835291602001916110fd565b820191906000526020600020905b8154815290600101906020018083116110e057829003601f168201915b505050505081525050905080602001516001600160a01b0316336001600160a01b0316146111845760405162461bcd60e51b815260206004820152602e60248201527f45534d61726b6574706c6163653a2063616e742063616e63656c206c6973746960448201526d37339016903737ba1037bbb732b960911b6064820152608401610b62565b61118d826118cd565b6004805460208301516060840151604051637921219560e11b81526001600160a01b039093169363f242432a936111cd9330939092909160019101611eb3565b600060405180830381600087803b1580156111e757600080fd5b505af11580156111fb573d6000803e3d6000fd5b50505050611207611802565b5050565b6009602052816000526040600020818154811061122757600080fd5b90600052602060002001600091509150505481565b6001600160a01b0381166000908152600a60209081526040808320805482518185028101850190935280835260609492939192909184015b8282101561136d5760008481526020908190206040805160a081018252600586029092018054835260018101546001600160a01b031693830193909352600283015490820152600382015460608201526004820180549192916080840191906112dc90612039565b80601f016020809104026020016040519081016040528092919081815260200182805461130890612039565b80156113555780601f1061132a57610100808354040283529160200191611355565b820191906000526020600020905b81548152906001019060200180831161133857829003601f168201915b50505050508152505081526020019060010190611274565b505050509050919050565b611380611756565b6001600160a01b0381166113e55760405162461bcd60e51b815260206004820152602660248201527f4f776e61626c653a206e6577206f776e657220697320746865207a65726f206160448201526564647265737360d01b6064820152608401610b62565b6113ee816117b0565b50565b600260005414156114445760405162461bcd60e51b815260206004820152601f60248201527f5265656e7472616e637947756172643a207265656e7472616e742063616c6c006044820152606401610b62565b60026000556004546001600160a01b031633146114a35760405162461bcd60e51b815260206004820152601f60248201527f45534d61726b6574706c6163653a204f6e6c792045532063616e2063616c6c006044820152606401610b62565b600c82815481106114c457634e487b7160e01b600052603260045260246000fd5b600091825260209091200154604051627eeac760e11b815230600482015260248101849052339062fdd58e9060440160206040518083038186803b15801561150b57600080fd5b505afa15801561151f573d6000803e3d6000fd5b505050506040513d601f19601f820116820180604052508101906115439190611e50565b1161159c5760405162461bcd60e51b8152602060048201526024808201527f45534d61726b6574706c6163653a20746f6b656e207472616e736665722066616044820152631a5b195960e21b6064820152608401610b62565b6005600081546115ab90612074565b919050819055506040518060a001604052806005548152602001846001600160a01b031681526020018281526020018381526020016002848154811061160157634e487b7160e01b600052603260045260246000fd5b90600052602060002001805461161690612039565b80601f016020809104026020016040519081016040528092919081815260200182805461164290612039565b801561168f5780601f106116645761010080835404028352916020019161168f565b820191906000526020600020905b81548152906001019060200180831161167257829003601f168201915b50505091909252505060055460009081526008602090815260409182902083518155838201516001820180546001600160a01b0319166001600160a01b0390921691909117905591830151600283015560608301516003830155608083015180516117009260048501920190611ac2565b5050506001600160a01b03831660009081526009602090815260408220600554815460018101835591845291832001556006805490919061174090612074565b9091555061174c611802565b5050600160005550565b6001546001600160a01b03163314610ace5760405162461bcd60e51b815260206004820181905260248201527f4f776e61626c653a2063616c6c6572206973206e6f7420746865206f776e65726044820152606401610b62565b600180546001600160a01b038381166001600160a01b0319831681179093556040519116919082907f8be0079c531659141344cd1fd0a4f28419497f9722a3daafe3b4186f6b6457e090600090a35050565b60015b600c548110156113ee5760048054604051627eeac760e11b81523092810192909252602482018390526001600160a01b03169062fdd58e9060440160206040518083038186803b15801561185857600080fd5b505afa15801561186c573d6000803e3d6000fd5b505050506040513d601f19601f820116820180604052508101906118909190611e50565b600c82815481106118b157634e487b7160e01b600052603260045260246000fd5b6000918252602090912001556118c681612074565b9050611805565b6000818152600860209081526040808320600101546001600160a01b0316808452600990925282205490915b818110156119a5576001600160a01b038316600090815260096020526040902080548591908390811061193c57634e487b7160e01b600052603260045260246000fd5b90600052602060002001541415611995576001600160a01b038316600090815260096020526040902080548290811061198557634e487b7160e01b600052603260045260246000fd5b60009182526020822001556119a5565b61199e81612074565b90506118f9565b5060008381526008602052604081208181556001810180546001600160a01b03191690556002810182905560038101829055906119e56004830182611b36565b50506006600081546119f690612022565b90915550505050565b6040518060a001604052806000815260200160006001600160a01b031681526020016000815260200160008152602001606081525090565b828054611a4390612039565b90600052602060002090601f016020900481019282611a655760008555611ab2565b82601f10611a765780548555611ab2565b82800160010185558215611ab257600052602060002091601f016020900482015b82811115611ab2578254825591600101919060010190611a97565b50611abe929150611b6c565b5090565b828054611ace90612039565b90600052602060002090601f016020900481019282611af05760008555611ab2565b82601f10611b0957805160ff1916838001178555611ab2565b82800160010185558215611ab2579182015b82811115611ab2578251825591602001919060010190611b1b565b508054611b4290612039565b6000825580601f10611b52575050565b601f0160209004906000526020600020908101906113ee91905b5b80821115611abe5760008155600101611b6d565b80356001600160a01b0381168114611b9857600080fd5b919050565b600082601f830112611bad578081fd5b8135602067ffffffffffffffff821115611bc957611bc96120a5565b8160051b611bd8828201611fd9565b838152828101908684018388018501891015611bf2578687fd5b8693505b85841015611c14578035835260019390930192918401918401611bf6565b50979650505050505050565b600082601f830112611c30578081fd5b813567ffffffffffffffff811115611c4a57611c4a6120a5565b611c5d601f8201601f1916602001611fd9565b818152846020838601011115611c71578283fd5b816020850160208301379081016020019190915292915050565b600060208284031215611c9c578081fd5b611ca582611b81565b9392505050565b600080600080600060a08688031215611cc3578081fd5b611ccc86611b81565b9450611cda60208701611b81565b9350604086013567ffffffffffffffff80821115611cf6578283fd5b611d0289838a01611b9d565b94506060880135915080821115611d17578283fd5b611d2389838a01611b9d565b93506080880135915080821115611d38578283fd5b50611d4588828901611c20565b9150509295509295909350565b600080600080600060a08688031215611d69578081fd5b611d7286611b81565b9450611d8060208701611b81565b93506040860135925060608601359150608086013567ffffffffffffffff811115611da9578182fd5b611d4588828901611c20565b60008060408385031215611dc7578182fd5b611dd083611b81565b946020939093013593505050565b600080600060608486031215611df2578283fd5b611dfb84611b81565b95602085013595506040909401359392505050565b600060208284031215611e21578081fd5b81356001600160e01b031981168114611ca5578182fd5b600060208284031215611e49578081fd5b5035919050565b600060208284031215611e61578081fd5b5051919050565b60008151808452815b81811015611e8d57602081850181015186830182015201611e71565b81811115611e9e5782602083870101525b50601f01601f19169290920160200192915050565b6001600160a01b0394851681529290931660208301526040820152606081019190915260a06080820181905260009082015260c00190565b60006020808301818452808551808352604092508286019150828160051b870101848801865b83811015611f7a57888303603f19018552815180518452878101516001600160a01b03168885015286810151878501526060808201519085015260809081015160a091850182905290611f6681860183611e68565b968901969450505090860190600101611f11565b509098975050505050505050565b602081526000611ca56020830184611e68565b85815260018060a01b038516602082015283604082015282606082015260a060808201526000611fce60a0830184611e68565b979650505050505050565b604051601f8201601f1916810167ffffffffffffffff81118282101715612002576120026120a5565b604052919050565b6000821982111561201d5761201d61208f565b500190565b6000816120315761203161208f565b506000190190565b600181811c9082168061204d57607f821691505b6020821081141561206e57634e487b7160e01b600052602260045260246000fd5b50919050565b60006000198214156120885761208861208f565b5060010190565b634e487b7160e01b600052601160045260246000fd5b634e487b7160e01b600052604160045260246000fdfea264697066735822122017b054be9b9712758052c5b3e0c309301b70a3f044ad798090f512a5f7459a3764736f6c63430008040033",
  "linkReferences": {},
  "deployedLinkReferences": {}
}