{
  "_format": "hh-sol-artifact-1",
  "contractName": "GachaMachine",
  "sourceName": "contracts/Gacha/GachaMachine.sol",
  "abi": [
    {
      "inputs": [
        {
          "internalType": "address",
          "name": "_arc",
          "type": "address"
        }
      ],
      "stateMutability": "nonpayable",
      "type": "constructor"
    },
    {
      "anonymous": false,
      "inputs": [
        {
          "indexed": true,
          "internalType": "address",
          "name": "previousOwner",
          "type": "address"
        },
        {
          "indexed": true,
          "internalType": "address",
          "name": "newOwner",
          "type": "address"
        }
      ],
      "name": "OwnershipTransferred",
      "type": "event"
    },
    {
      "inputs": [],
      "name": "cosmicDust",
      "outputs": [
        {
          "internalType": "contract ICosmicDust",
          "name": "",
          "type": "address"
        }
      ],
      "stateMutability": "view",
      "type": "function"
    },
    {
      "inputs": [],
      "name": "costPerSpin",
      "outputs": [
        {
          "internalType": "uint256",
          "name": "",
          "type": "uint256"
        }
      ],
      "stateMutability": "view",
      "type": "function"
    },
    {
      "inputs": [],
      "name": "elementalStone",
      "outputs": [
        {
          "internalType": "contract IElementalStone",
          "name": "",
          "type": "address"
        }
      ],
      "stateMutability": "view",
      "type": "function"
    },
    {
      "inputs": [],
      "name": "getCost",
      "outputs": [
        {
          "internalType": "uint256",
          "name": "",
          "type": "uint256"
        }
      ],
      "stateMutability": "view",
      "type": "function"
    },
    {
      "inputs": [
        {
          "internalType": "address",
          "name": "",
          "type": "address"
        }
      ],
      "name": "isArc",
      "outputs": [
        {
          "internalType": "bool",
          "name": "",
          "type": "bool"
        }
      ],
      "stateMutability": "view",
      "type": "function"
    },
    {
      "inputs": [],
      "name": "moonstone",
      "outputs": [
        {
          "internalType": "contract IMoonstone",
          "name": "",
          "type": "address"
        }
      ],
      "stateMutability": "view",
      "type": "function"
    },
    {
      "inputs": [],
      "name": "owner",
      "outputs": [
        {
          "internalType": "address",
          "name": "",
          "type": "address"
        }
      ],
      "stateMutability": "view",
      "type": "function"
    },
    {
      "inputs": [],
      "name": "renounceOwnership",
      "outputs": [],
      "stateMutability": "nonpayable",
      "type": "function"
    },
    {
      "inputs": [
        {
          "internalType": "address",
          "name": "_a",
          "type": "address"
        }
      ],
      "name": "setCosmicDust",
      "outputs": [],
      "stateMutability": "nonpayable",
      "type": "function"
    },
    {
      "inputs": [
        {
          "internalType": "uint256",
          "name": "_c",
          "type": "uint256"
        }
      ],
      "name": "setCost",
      "outputs": [],
      "stateMutability": "nonpayable",
      "type": "function"
    },
    {
      "inputs": [
        {
          "internalType": "address",
          "name": "_a",
          "type": "address"
        }
      ],
      "name": "setElementalStone",
      "outputs": [],
      "stateMutability": "nonpayable",
      "type": "function"
    },
    {
      "inputs": [
        {
          "internalType": "address",
          "name": "_a",
          "type": "address"
        }
      ],
      "name": "setMoonstone",
      "outputs": [],
      "stateMutability": "nonpayable",
      "type": "function"
    },
    {
      "inputs": [
        {
          "internalType": "address",
          "name": "user",
          "type": "address"
        },
        {
          "internalType": "uint256",
          "name": "amount",
          "type": "uint256"
        }
      ],
      "name": "spin",
      "outputs": [
        {
          "internalType": "string[]",
          "name": "success",
          "type": "string[]"
        }
      ],
      "stateMutability": "nonpayable",
      "type": "function"
    },
    {
      "inputs": [
        {
          "internalType": "address",
          "name": "newOwner",
          "type": "address"
        }
      ],
      "name": "transferOwnership",
      "outputs": [],
      "stateMutability": "nonpayable",
      "type": "function"
    }
  ],
  "bytecode": "0x6080604052678ac7230489e8000060065534801561001c57600080fd5b50604051610dc4380380610dc483398101604081905261003b916100bb565b6100443361006b565b6001600160a01b03166000908152600460205260409020805460ff191660011790556100e9565b600080546001600160a01b038381166001600160a01b0319831681178455604051919092169283917f8be0079c531659141344cd1fd0a4f28419497f9722a3daafe3b4186f6b6457e09190a35050565b6000602082840312156100cc578081fd5b81516001600160a01b03811681146100e2578182fd5b9392505050565b610ccc806100f86000396000f3fe608060405234801561001057600080fd5b50600436106100ea5760003560e01c8063cbcf47471161008c578063e21f644b11610066578063e21f644b146101e1578063e7531943146101f4578063f2fde38b14610207578063fff95c051461021a57600080fd5b8063cbcf4747146101a5578063d37d753f146101ae578063d41b0466146101ce57600080fd5b80638da5cb5b116100c85780638da5cb5b1461013c578063b6f285841461014d578063b938be2b14610180578063bd3e19d41461019357600080fd5b806344a0d68a146100ef57806358d70d7414610104578063715018a614610134575b600080fd5b6101026100fd366004610b56565b61022d565b005b600154610117906001600160a01b031681565b6040516001600160a01b0390911681526020015b60405180910390f35b61010261023a565b6000546001600160a01b0316610117565b61017061015b366004610a6a565b60046020526000908152604090205460ff1681565b604051901515815260200161012b565b61010261018e366004610a6a565b61024e565b6006545b60405190815260200161012b565b61019760065481565b6101c16101bc366004610a84565b610278565b60405161012b9190610b6e565b600354610117906001600160a01b031681565b6101026101ef366004610a6a565b61030a565b610102610202366004610a6a565b610334565b610102610215366004610a6a565b61035e565b600254610117906001600160a01b031681565b6102356103d7565b600655565b6102426103d7565b61024c6000610431565b565b6102566103d7565b600280546001600160a01b0319166001600160a01b0392909216919091179055565b3360009081526004602052604090205460609060ff166102d65760405162461bcd60e51b815260206004820152601460248201527311d858da184e88105490c81b5d5cdd0818d85b1b60621b60448201526064015b60405180910390fd5b81600114156102ef576102e883610481565b9050610304565b81600a141561030457610301836106a6565b90505b92915050565b6103126103d7565b600180546001600160a01b0319166001600160a01b0392909216919091179055565b61033c6103d7565b600380546001600160a01b0319166001600160a01b0392909216919091179055565b6103666103d7565b6001600160a01b0381166103cb5760405162461bcd60e51b815260206004820152602660248201527f4f776e61626c653a206e6577206f776e657220697320746865207a65726f206160448201526564647265737360d01b60648201526084016102cd565b6103d481610431565b50565b6000546001600160a01b0316331461024c5760405162461bcd60e51b815260206004820181905260248201527f4f776e61626c653a2063616c6c6572206973206e6f7420746865206f776e657260448201526064016102cd565b600080546001600160a01b038381166001600160a01b0319831681178455604051919092169283917f8be0079c531659141344cd1fd0a4f28419497f9722a3daafe3b4186f6b6457e09190a35050565b6002546040516340c10f1960e01b81526001600160a01b0383811660048301526001602483015260609216906340c10f1990604401600060405180830381600087803b1580156104d057600080fd5b505af11580156104e4573d6000803e3d6000fd5b5050505060006104f2610965565b60408051600180825281830190925291925060009190816020015b606081526020019060019003908161050d57905050905060b582116105e657600180546040516340c10f1960e01b81526001600160a01b03878116600483015260248201939093529116906340c10f1990604401600060405180830381600087803b15801561057b57600080fd5b505af115801561058f573d6000803e3d6000fd5b50505050604051806040016040528060098152602001684d6f6f6e73746f6e6560b81b815250816000815181106105d657634e487b7160e01b600052603260045260246000fd5b602002602001018190525061069f565b60b582111561069f576003546040516335313c2160e11b81526001600160a01b03868116600483015290911690636a62784290602401600060405180830381600087803b15801561063657600080fd5b505af115801561064a573d6000803e3d6000fd5b505050506040513d6000823e601f3d908101601f191682016040526106729190810190610aad565b8160008151811061069357634e487b7160e01b600052603260045260246000fd5b60200260200101819052505b9392505050565b6002546040516340c10f1960e01b81526001600160a01b038381166004830152600a602483015260609216906340c10f1990604401600060405180830381600087803b1580156106f557600080fd5b505af1158015610709573d6000803e3d6000fd5b5050505060006107176109d0565b60408051600a808252610160820190925291925060009190816020015b606081526020019060019003908161073457905050905060008060005b84518110156108ed5760b585828151811061077c57634e487b7160e01b600052603260045260246000fd5b6020026020010151116107f25761079282610c2f565b9150604051806040016040528060098152602001684d6f6f6e73746f6e6560b81b8152508484815181106107d657634e487b7160e01b600052603260045260246000fd5b6020026020010181905250826107eb90610c2f565b92506108dd565b60b585828151811061081457634e487b7160e01b600052603260045260246000fd5b602002602001015111156108dd576003546040516335313c2160e11b81526001600160a01b03898116600483015290911690636a62784290602401600060405180830381600087803b15801561086957600080fd5b505af115801561087d573d6000803e3d6000fd5b505050506040513d6000823e601f3d908101601f191682016040526108a59190810190610aad565b8484815181106108c557634e487b7160e01b600052603260045260246000fd5b6020026020010181905250826108da90610c2f565b92505b6108e681610c2f565b9050610751565b50801561095b576001546040516340c10f1960e01b81526001600160a01b03888116600483015260248201849052909116906340c10f1990604401600060405180830381600087803b15801561094257600080fd5b505af1158015610956573d6000803e3d6000fd5b505050505b5090949350505050565b60008042600554604051602001610986929190918252602082015260400190565b6040516020818303038152906040528051906020012060001c90506005600081546109b090610c2f565b909155506109bf60c882610c4a565b6109ca906001610be7565b91505090565b60408051600a808252610160820190925260609160009190602082016101408036833701905050905060005b600a811015610a4857610a0d610965565b828281518110610a2d57634e487b7160e01b600052603260045260246000fd5b6020908102919091010152610a4181610c2f565b90506109fc565b50919050565b80356001600160a01b0381168114610a6557600080fd5b919050565b600060208284031215610a7b578081fd5b61030182610a4e565b60008060408385031215610a96578081fd5b610a9f83610a4e565b946020939093013593505050565b600060208284031215610abe578081fd5b815167ffffffffffffffff80821115610ad5578283fd5b818401915084601f830112610ae8578283fd5b815181811115610afa57610afa610c80565b604051601f8201601f19908116603f01168101908382118183101715610b2257610b22610c80565b81604052828152876020848701011115610b3a578586fd5b610b4b836020830160208801610bff565b979650505050505050565b600060208284031215610b67578081fd5b5035919050565b6000602080830181845280855180835260408601915060408160051b8701019250838701855b82811015610bda57878503603f1901845281518051808752610bbb818989018a8501610bff565b601f01601f191695909501860194509285019290850190600101610b94565b5092979650505050505050565b60008219821115610bfa57610bfa610c6a565b500190565b60005b83811015610c1a578181015183820152602001610c02565b83811115610c29576000848401525b50505050565b6000600019821415610c4357610c43610c6a565b5060010190565b600082610c6557634e487b7160e01b81526012600452602481fd5b500690565b634e487b7160e01b600052601160045260246000fd5b634e487b7160e01b600052604160045260246000fdfea2646970667358221220b65cf4210b82104da1ab522d734486f081500dccf1beac2eeb7feff581c82d0964736f6c63430008040033",
  "linkReferences": {},
  "deployedLinkReferences": {}
}