{
  "_format": "hh-sol-artifact-1",
  "contractName": "GachaMachine",
  "sourceName": "contracts/Gacha/GachaMachine.sol",
  "abi": [
    {
      "inputs": [
        {
          "internalType": "address",
          "name": "_arc",
          "type": "address"
        }
      ],
      "stateMutability": "nonpayable",
      "type": "constructor"
    },
    {
      "anonymous": false,
      "inputs": [
        {
          "indexed": false,
          "internalType": "bool",
          "name": "complete",
          "type": "bool"
        }
      ],
      "name": "DealerSent",
      "type": "event"
    },
    {
      "anonymous": false,
      "inputs": [
        {
          "indexed": true,
          "internalType": "address",
          "name": "previousOwner",
          "type": "address"
        },
        {
          "indexed": true,
          "internalType": "address",
          "name": "newOwner",
          "type": "address"
        }
      ],
      "name": "OwnershipTransferred",
      "type": "event"
    },
    {
      "inputs": [],
      "name": "cosmicDust",
      "outputs": [
        {
          "internalType": "contract ICosmicDust",
          "name": "",
          "type": "address"
        }
      ],
      "stateMutability": "view",
      "type": "function"
    },
    {
      "inputs": [],
      "name": "costPerSpin",
      "outputs": [
        {
          "internalType": "uint256",
          "name": "",
          "type": "uint256"
        }
      ],
      "stateMutability": "view",
      "type": "function"
    },
    {
      "inputs": [
        {
          "internalType": "address",
          "name": "user",
          "type": "address"
        },
        {
          "internalType": "uint256",
          "name": "cosmicDustAmount",
          "type": "uint256"
        },
        {
          "internalType": "uint256",
          "name": "moonstoneAmount",
          "type": "uint256"
        },
        {
          "internalType": "uint256",
          "name": "flameAmount",
          "type": "uint256"
        },
        {
          "internalType": "uint256",
          "name": "terraAmount",
          "type": "uint256"
        },
        {
          "internalType": "uint256",
          "name": "aquaAmount",
          "type": "uint256"
        }
      ],
      "name": "dealerSend",
      "outputs": [],
      "stateMutability": "nonpayable",
      "type": "function"
    },
    {
      "inputs": [],
      "name": "elementalStone",
      "outputs": [
        {
          "internalType": "contract IElementalStone",
          "name": "",
          "type": "address"
        }
      ],
      "stateMutability": "view",
      "type": "function"
    },
    {
      "inputs": [],
      "name": "getCost",
      "outputs": [
        {
          "internalType": "uint256",
          "name": "",
          "type": "uint256"
        }
      ],
      "stateMutability": "view",
      "type": "function"
    },
    {
      "inputs": [
        {
          "internalType": "address",
          "name": "",
          "type": "address"
        }
      ],
      "name": "isArc",
      "outputs": [
        {
          "internalType": "bool",
          "name": "",
          "type": "bool"
        }
      ],
      "stateMutability": "view",
      "type": "function"
    },
    {
      "inputs": [
        {
          "internalType": "address",
          "name": "",
          "type": "address"
        }
      ],
      "name": "isWorker",
      "outputs": [
        {
          "internalType": "bool",
          "name": "",
          "type": "bool"
        }
      ],
      "stateMutability": "view",
      "type": "function"
    },
    {
      "inputs": [],
      "name": "moonstone",
      "outputs": [
        {
          "internalType": "contract IMoonstone",
          "name": "",
          "type": "address"
        }
      ],
      "stateMutability": "view",
      "type": "function"
    },
    {
      "inputs": [],
      "name": "owner",
      "outputs": [
        {
          "internalType": "address",
          "name": "",
          "type": "address"
        }
      ],
      "stateMutability": "view",
      "type": "function"
    },
    {
      "inputs": [],
      "name": "renounceOwnership",
      "outputs": [],
      "stateMutability": "nonpayable",
      "type": "function"
    },
    {
      "inputs": [
        {
          "internalType": "address",
          "name": "_a",
          "type": "address"
        }
      ],
      "name": "setCosmicDust",
      "outputs": [],
      "stateMutability": "nonpayable",
      "type": "function"
    },
    {
      "inputs": [
        {
          "internalType": "uint256",
          "name": "_c",
          "type": "uint256"
        }
      ],
      "name": "setCost",
      "outputs": [],
      "stateMutability": "nonpayable",
      "type": "function"
    },
    {
      "inputs": [
        {
          "internalType": "address",
          "name": "_a",
          "type": "address"
        }
      ],
      "name": "setElementalStone",
      "outputs": [],
      "stateMutability": "nonpayable",
      "type": "function"
    },
    {
      "inputs": [
        {
          "internalType": "address",
          "name": "_a",
          "type": "address"
        }
      ],
      "name": "setMoonstone",
      "outputs": [],
      "stateMutability": "nonpayable",
      "type": "function"
    },
    {
      "inputs": [
        {
          "internalType": "address",
          "name": "_worker",
          "type": "address"
        },
        {
          "internalType": "bool",
          "name": "_isWorker",
          "type": "bool"
        }
      ],
      "name": "setWorker",
      "outputs": [],
      "stateMutability": "nonpayable",
      "type": "function"
    },
    {
      "inputs": [
        {
          "internalType": "address",
          "name": "newOwner",
          "type": "address"
        }
      ],
      "name": "transferOwnership",
      "outputs": [],
      "stateMutability": "nonpayable",
      "type": "function"
    }
  ],
  "bytecode": "0x6080604052678ac7230489e8000060075534801561001c57600080fd5b5060405161098638038061098683398101604081905261003b9161015e565b6100443361007b565b6001600160a01b0381166000908152600460205260409020805460ff191660019081179091556100759033906100cb565b5061018c565b600080546001600160a01b038381166001600160a01b0319831681178455604051919092169283917f8be0079c531659141344cd1fd0a4f28419497f9722a3daafe3b4186f6b6457e09190a35050565b6100d36100fe565b6001600160a01b03919091166000908152600560205260409020805460ff1916911515919091179055565b6000546001600160a01b0316331461015c5760405162461bcd60e51b815260206004820181905260248201527f4f776e61626c653a2063616c6c6572206973206e6f7420746865206f776e6572604482015260640160405180910390fd5b565b60006020828403121561016f578081fd5b81516001600160a01b0381168114610185578182fd5b9392505050565b6107eb8061019b6000396000f3fe608060405234801561001057600080fd5b50600436106101005760003560e01c8063c373d7f311610097578063e753194311610066578063e753194314610220578063ed36e0ef14610233578063f2fde38b14610246578063fff95c051461025957600080fd5b8063c373d7f3146101de578063cbcf4747146101f1578063d41b0466146101fa578063e21f644b1461020d57600080fd5b8063aa156645116100d3578063aa15664514610163578063b6f2858414610196578063b938be2b146101b9578063bd3e19d4146101cc57600080fd5b806344a0d68a1461010557806358d70d741461011a578063715018a61461014a5780638da5cb5b14610152575b600080fd5b61011861011336600461079d565b61026c565b005b60015461012d906001600160a01b031681565b6040516001600160a01b0390911681526020015b60405180910390f35b610118610279565b6000546001600160a01b031661012d565b6101866101713660046106f9565b60056020526000908152604090205460ff1681565b6040519015158152602001610141565b6101866101a43660046106f9565b60046020526000908152604090205460ff1681565b6101186101c73660046106f9565b61028d565b6007545b604051908152602001610141565b6101186101ec36600461071a565b6102b7565b6101d060075481565b60035461012d906001600160a01b031681565b61011861021b3660046106f9565b6102ea565b61011861022e3660046106f9565b610314565b610118610241366004610754565b61033e565b6101186102543660046106f9565b6105b5565b60025461012d906001600160a01b031681565b610274610633565b600755565b610281610633565b61028b600061068d565b565b610295610633565b600280546001600160a01b0319166001600160a01b0392909216919091179055565b6102bf610633565b6001600160a01b03919091166000908152600560205260409020805460ff1916911515919091179055565b6102f2610633565b600180546001600160a01b0319166001600160a01b0392909216919091179055565b61031c610633565b600380546001600160a01b0319166001600160a01b0392909216919091179055565b610346610633565b6002546040516340c10f1960e01b81526001600160a01b03888116600483015260248201889052909116906340c10f1990604401600060405180830381600087803b15801561039457600080fd5b505af11580156103a8573d6000803e3d6000fd5b50505050600084111561041c576001546040516340c10f1960e01b81526001600160a01b03888116600483015260248201879052909116906340c10f1990604401600060405180830381600087803b15801561040357600080fd5b505af1158015610417573d6000803e3d6000fd5b505050505b821561049057600354604051630ab714fb60e11b81526001600160a01b03888116600483015260016024830152604482018690529091169063156e29f690606401600060405180830381600087803b15801561047757600080fd5b505af115801561048b573d6000803e3d6000fd5b505050505b811561050457600354604051630ab714fb60e11b81526001600160a01b03888116600483015260026024830152604482018590529091169063156e29f690606401600060405180830381600087803b1580156104eb57600080fd5b505af11580156104ff573d6000803e3d6000fd5b505050505b80156105795760038054604051630ab714fb60e11b81526001600160a01b03898116600483015260248201939093526044810184905291169063156e29f690606401600060405180830381600087803b15801561056057600080fd5b505af1158015610574573d6000803e3d6000fd5b505050505b604051600181527f407812534099faa04b859eadd79b83a19e774bf8b3e07fbe4194e008e35c08fc9060200160405180910390a1505050505050565b6105bd610633565b6001600160a01b0381166106275760405162461bcd60e51b815260206004820152602660248201527f4f776e61626c653a206e6577206f776e657220697320746865207a65726f206160448201526564647265737360d01b60648201526084015b60405180910390fd5b6106308161068d565b50565b6000546001600160a01b0316331461028b5760405162461bcd60e51b815260206004820181905260248201527f4f776e61626c653a2063616c6c6572206973206e6f7420746865206f776e6572604482015260640161061e565b600080546001600160a01b038381166001600160a01b0319831681178455604051919092169283917f8be0079c531659141344cd1fd0a4f28419497f9722a3daafe3b4186f6b6457e09190a35050565b80356001600160a01b03811681146106f457600080fd5b919050565b60006020828403121561070a578081fd5b610713826106dd565b9392505050565b6000806040838503121561072c578081fd5b610735836106dd565b915060208301358015158114610749578182fd5b809150509250929050565b60008060008060008060c0878903121561076c578182fd5b610775876106dd565b9860208801359850604088013597606081013597506080810135965060a00135945092505050565b6000602082840312156107ae578081fd5b503591905056fea2646970667358221220efe11ef99e31dd61c111bfda05a968b16adef06d6e22f30e4d6d272727566b1464736f6c63430008040033",
  "linkReferences": {},
  "deployedLinkReferences": {}
}