{
  "_format": "hh-sol-artifact-1",
  "contractName": "GachaMachine",
  "sourceName": "contracts/Gacha/GachaMachine.sol",
  "abi": [
    {
      "inputs": [
        {
          "internalType": "address",
          "name": "_arc",
          "type": "address"
        },
        {
          "internalType": "address",
          "name": "_dealer",
          "type": "address"
        }
      ],
      "stateMutability": "nonpayable",
      "type": "constructor"
    },
    {
      "anonymous": false,
      "inputs": [
        {
          "indexed": false,
          "internalType": "bool",
          "name": "complete",
          "type": "bool"
        }
      ],
      "name": "DealerSent",
      "type": "event"
    },
    {
      "anonymous": false,
      "inputs": [
        {
          "indexed": true,
          "internalType": "address",
          "name": "previousOwner",
          "type": "address"
        },
        {
          "indexed": true,
          "internalType": "address",
          "name": "newOwner",
          "type": "address"
        }
      ],
      "name": "OwnershipTransferred",
      "type": "event"
    },
    {
      "inputs": [],
      "name": "cosmicDust",
      "outputs": [
        {
          "internalType": "contract ICosmicDust",
          "name": "",
          "type": "address"
        }
      ],
      "stateMutability": "view",
      "type": "function"
    },
    {
      "inputs": [],
      "name": "costPerSpin",
      "outputs": [
        {
          "internalType": "uint256",
          "name": "",
          "type": "uint256"
        }
      ],
      "stateMutability": "view",
      "type": "function"
    },
    {
      "inputs": [
        {
          "internalType": "address",
          "name": "user",
          "type": "address"
        },
        {
          "internalType": "uint256",
          "name": "cosmicDustAmount",
          "type": "uint256"
        },
        {
          "internalType": "uint256",
          "name": "moonstoneAmount",
          "type": "uint256"
        },
        {
          "internalType": "uint256",
          "name": "flameAmount",
          "type": "uint256"
        },
        {
          "internalType": "uint256",
          "name": "terraAmount",
          "type": "uint256"
        },
        {
          "internalType": "uint256",
          "name": "aquaAmount",
          "type": "uint256"
        }
      ],
      "name": "dealerSend",
      "outputs": [],
      "stateMutability": "nonpayable",
      "type": "function"
    },
    {
      "inputs": [],
      "name": "elementalStone",
      "outputs": [
        {
          "internalType": "contract IElementalStone",
          "name": "",
          "type": "address"
        }
      ],
      "stateMutability": "view",
      "type": "function"
    },
    {
      "inputs": [],
      "name": "getCost",
      "outputs": [
        {
          "internalType": "uint256",
          "name": "",
          "type": "uint256"
        }
      ],
      "stateMutability": "view",
      "type": "function"
    },
    {
      "inputs": [
        {
          "internalType": "address",
          "name": "",
          "type": "address"
        }
      ],
      "name": "isArc",
      "outputs": [
        {
          "internalType": "bool",
          "name": "",
          "type": "bool"
        }
      ],
      "stateMutability": "view",
      "type": "function"
    },
    {
      "inputs": [
        {
          "internalType": "address",
          "name": "",
          "type": "address"
        }
      ],
      "name": "isDealer",
      "outputs": [
        {
          "internalType": "bool",
          "name": "",
          "type": "bool"
        }
      ],
      "stateMutability": "view",
      "type": "function"
    },
    {
      "inputs": [],
      "name": "moonstone",
      "outputs": [
        {
          "internalType": "contract IMoonstone",
          "name": "",
          "type": "address"
        }
      ],
      "stateMutability": "view",
      "type": "function"
    },
    {
      "inputs": [],
      "name": "owner",
      "outputs": [
        {
          "internalType": "address",
          "name": "",
          "type": "address"
        }
      ],
      "stateMutability": "view",
      "type": "function"
    },
    {
      "inputs": [
        {
          "internalType": "address",
          "name": "_d",
          "type": "address"
        }
      ],
      "name": "removeDealer",
      "outputs": [],
      "stateMutability": "nonpayable",
      "type": "function"
    },
    {
      "inputs": [],
      "name": "renounceOwnership",
      "outputs": [],
      "stateMutability": "nonpayable",
      "type": "function"
    },
    {
      "inputs": [
        {
          "internalType": "address",
          "name": "_a",
          "type": "address"
        }
      ],
      "name": "setCosmicDust",
      "outputs": [],
      "stateMutability": "nonpayable",
      "type": "function"
    },
    {
      "inputs": [
        {
          "internalType": "uint256",
          "name": "_c",
          "type": "uint256"
        }
      ],
      "name": "setCost",
      "outputs": [],
      "stateMutability": "nonpayable",
      "type": "function"
    },
    {
      "inputs": [
        {
          "internalType": "address",
          "name": "_d",
          "type": "address"
        }
      ],
      "name": "setDealer",
      "outputs": [],
      "stateMutability": "nonpayable",
      "type": "function"
    },
    {
      "inputs": [
        {
          "internalType": "address",
          "name": "_a",
          "type": "address"
        }
      ],
      "name": "setElementalStone",
      "outputs": [],
      "stateMutability": "nonpayable",
      "type": "function"
    },
    {
      "inputs": [
        {
          "internalType": "address",
          "name": "_a",
          "type": "address"
        }
      ],
      "name": "setMoonstone",
      "outputs": [],
      "stateMutability": "nonpayable",
      "type": "function"
    },
    {
      "inputs": [
        {
          "internalType": "address",
          "name": "newOwner",
          "type": "address"
        }
      ],
      "name": "transferOwnership",
      "outputs": [],
      "stateMutability": "nonpayable",
      "type": "function"
    }
  ],
  "bytecode": "0x6080604052678ac7230489e8000060075534801561001c57600080fd5b5060405161092938038061092983398101604081905261003b916100f7565b6100443361008b565b6001600160a01b0391821660009081526004602090815260408083208054600160ff1991821681179092559490951683526005909152902080549091169091179055610129565b600080546001600160a01b038381166001600160a01b0319831681178455604051919092169283917f8be0079c531659141344cd1fd0a4f28419497f9722a3daafe3b4186f6b6457e09190a35050565b80516001600160a01b03811681146100f257600080fd5b919050565b60008060408385031215610109578182fd5b610112836100db565b9150610120602084016100db565b90509250929050565b6107f1806101386000396000f3fe608060405234801561001057600080fd5b506004361061010b5760003560e01c8063bd3e19d4116100a2578063e753194311610071578063e75319431461021b578063ed36e0ef1461022e578063f2fde38b14610241578063fe2e81d414610254578063fff95c051461027757600080fd5b8063bd3e19d4146101da578063cbcf4747146101ec578063d41b0466146101f5578063e21f644b1461020857600080fd5b80638da5cb5b116100de5780638da5cb5b14610170578063a2483a9314610181578063b6f2858414610194578063b938be2b146101c757600080fd5b80631e665f321461011057806344a0d68a1461012557806358d70d7414610138578063715018a614610168575b600080fd5b61012361011e366004610739565b61028a565b005b6101236101333660046107a3565b6102b6565b60015461014b906001600160a01b031681565b6040516001600160a01b0390911681526020015b60405180910390f35b6101236102c3565b6000546001600160a01b031661014b565b61012361018f366004610739565b6102d7565b6101b76101a2366004610739565b60046020526000908152604090205460ff1681565b604051901515815260200161015f565b6101236101d5366004610739565b610300565b6007545b60405190815260200161015f565b6101de60075481565b60035461014b906001600160a01b031681565b610123610216366004610739565b61032a565b610123610229366004610739565b610354565b61012361023c36600461075a565b61037e565b61012361024f366004610739565b6105f5565b6101b7610262366004610739565b60056020526000908152604090205460ff1681565b60025461014b906001600160a01b031681565b610292610673565b6001600160a01b03166000908152600560205260409020805460ff19166001179055565b6102be610673565b600755565b6102cb610673565b6102d560006106cd565b565b6102df610673565b6001600160a01b03166000908152600560205260409020805460ff19169055565b610308610673565b600280546001600160a01b0319166001600160a01b0392909216919091179055565b610332610673565b600180546001600160a01b0319166001600160a01b0392909216919091179055565b61035c610673565b600380546001600160a01b0319166001600160a01b0392909216919091179055565b610386610673565b6002546040516340c10f1960e01b81526001600160a01b03888116600483015260248201889052909116906340c10f1990604401600060405180830381600087803b1580156103d457600080fd5b505af11580156103e8573d6000803e3d6000fd5b50505050600084111561045c576001546040516340c10f1960e01b81526001600160a01b03888116600483015260248201879052909116906340c10f1990604401600060405180830381600087803b15801561044357600080fd5b505af1158015610457573d6000803e3d6000fd5b505050505b82156104d057600354604051630ab714fb60e11b81526001600160a01b03888116600483015260016024830152604482018690529091169063156e29f690606401600060405180830381600087803b1580156104b757600080fd5b505af11580156104cb573d6000803e3d6000fd5b505050505b811561054457600354604051630ab714fb60e11b81526001600160a01b03888116600483015260026024830152604482018590529091169063156e29f690606401600060405180830381600087803b15801561052b57600080fd5b505af115801561053f573d6000803e3d6000fd5b505050505b80156105b95760038054604051630ab714fb60e11b81526001600160a01b03898116600483015260248201939093526044810184905291169063156e29f690606401600060405180830381600087803b1580156105a057600080fd5b505af11580156105b4573d6000803e3d6000fd5b505050505b604051600181527f407812534099faa04b859eadd79b83a19e774bf8b3e07fbe4194e008e35c08fc9060200160405180910390a1505050505050565b6105fd610673565b6001600160a01b0381166106675760405162461bcd60e51b815260206004820152602660248201527f4f776e61626c653a206e6577206f776e657220697320746865207a65726f206160448201526564647265737360d01b60648201526084015b60405180910390fd5b610670816106cd565b50565b6000546001600160a01b031633146102d55760405162461bcd60e51b815260206004820181905260248201527f4f776e61626c653a2063616c6c6572206973206e6f7420746865206f776e6572604482015260640161065e565b600080546001600160a01b038381166001600160a01b0319831681178455604051919092169283917f8be0079c531659141344cd1fd0a4f28419497f9722a3daafe3b4186f6b6457e09190a35050565b80356001600160a01b038116811461073457600080fd5b919050565b60006020828403121561074a578081fd5b6107538261071d565b9392505050565b60008060008060008060c08789031215610772578182fd5b61077b8761071d565b9860208801359850604088013597606081013597506080810135965060a00135945092505050565b6000602082840312156107b4578081fd5b503591905056fea26469706673582212205a75efa6c8a876532e6d960adceaa80b1963ccb39ec74f96229bcb63be09794b64736f6c63430008040033",
  "linkReferences": {},
  "deployedLinkReferences": {}
}