{
  "_format": "hh-sol-artifact-1",
  "contractName": "GachaMachine",
  "sourceName": "contracts/Gacha/GachaMachine.sol",
  "abi": [
    {
      "inputs": [
        {
          "internalType": "address",
          "name": "_arc",
          "type": "address"
        }
      ],
      "stateMutability": "nonpayable",
      "type": "constructor"
    },
    {
      "anonymous": false,
      "inputs": [
        {
          "indexed": true,
          "internalType": "address",
          "name": "user",
          "type": "address"
        },
        {
          "indexed": true,
          "internalType": "uint256",
          "name": "spinId",
          "type": "uint256"
        }
      ],
      "name": "DealerSent",
      "type": "event"
    },
    {
      "anonymous": false,
      "inputs": [
        {
          "indexed": true,
          "internalType": "address",
          "name": "previousOwner",
          "type": "address"
        },
        {
          "indexed": true,
          "internalType": "address",
          "name": "newOwner",
          "type": "address"
        }
      ],
      "name": "OwnershipTransferred",
      "type": "event"
    },
    {
      "inputs": [],
      "name": "cosmicDust",
      "outputs": [
        {
          "internalType": "contract ICosmicDust",
          "name": "",
          "type": "address"
        }
      ],
      "stateMutability": "view",
      "type": "function"
    },
    {
      "inputs": [],
      "name": "costPerSpin",
      "outputs": [
        {
          "internalType": "uint256",
          "name": "",
          "type": "uint256"
        }
      ],
      "stateMutability": "view",
      "type": "function"
    },
    {
      "inputs": [
        {
          "internalType": "address",
          "name": "user",
          "type": "address"
        },
        {
          "internalType": "uint256",
          "name": "spinId",
          "type": "uint256"
        },
        {
          "internalType": "uint256",
          "name": "cosmicDustAmount",
          "type": "uint256"
        },
        {
          "internalType": "uint256",
          "name": "moonstoneAmount",
          "type": "uint256"
        },
        {
          "internalType": "uint256",
          "name": "flameAmount",
          "type": "uint256"
        },
        {
          "internalType": "uint256",
          "name": "terraAmount",
          "type": "uint256"
        },
        {
          "internalType": "uint256",
          "name": "aquaAmount",
          "type": "uint256"
        }
      ],
      "name": "dealerSend",
      "outputs": [],
      "stateMutability": "nonpayable",
      "type": "function"
    },
    {
      "inputs": [],
      "name": "elementalStone",
      "outputs": [
        {
          "internalType": "contract IElementalStone",
          "name": "",
          "type": "address"
        }
      ],
      "stateMutability": "view",
      "type": "function"
    },
    {
      "inputs": [],
      "name": "getCost",
      "outputs": [
        {
          "internalType": "uint256",
          "name": "",
          "type": "uint256"
        }
      ],
      "stateMutability": "view",
      "type": "function"
    },
    {
      "inputs": [
        {
          "internalType": "address",
          "name": "",
          "type": "address"
        }
      ],
      "name": "isArc",
      "outputs": [
        {
          "internalType": "bool",
          "name": "",
          "type": "bool"
        }
      ],
      "stateMutability": "view",
      "type": "function"
    },
    {
      "inputs": [
        {
          "internalType": "address",
          "name": "",
          "type": "address"
        }
      ],
      "name": "isWorker",
      "outputs": [
        {
          "internalType": "bool",
          "name": "",
          "type": "bool"
        }
      ],
      "stateMutability": "view",
      "type": "function"
    },
    {
      "inputs": [],
      "name": "moonstone",
      "outputs": [
        {
          "internalType": "contract IMoonstone",
          "name": "",
          "type": "address"
        }
      ],
      "stateMutability": "view",
      "type": "function"
    },
    {
      "inputs": [],
      "name": "owner",
      "outputs": [
        {
          "internalType": "address",
          "name": "",
          "type": "address"
        }
      ],
      "stateMutability": "view",
      "type": "function"
    },
    {
      "inputs": [],
      "name": "renounceOwnership",
      "outputs": [],
      "stateMutability": "nonpayable",
      "type": "function"
    },
    {
      "inputs": [
        {
          "internalType": "address",
          "name": "_a",
          "type": "address"
        }
      ],
      "name": "setCosmicDust",
      "outputs": [],
      "stateMutability": "nonpayable",
      "type": "function"
    },
    {
      "inputs": [
        {
          "internalType": "uint256",
          "name": "_c",
          "type": "uint256"
        }
      ],
      "name": "setCost",
      "outputs": [],
      "stateMutability": "nonpayable",
      "type": "function"
    },
    {
      "inputs": [
        {
          "internalType": "address",
          "name": "_a",
          "type": "address"
        }
      ],
      "name": "setElementalStone",
      "outputs": [],
      "stateMutability": "nonpayable",
      "type": "function"
    },
    {
      "inputs": [
        {
          "internalType": "address",
          "name": "_a",
          "type": "address"
        }
      ],
      "name": "setMoonstone",
      "outputs": [],
      "stateMutability": "nonpayable",
      "type": "function"
    },
    {
      "inputs": [
        {
          "internalType": "address",
          "name": "_worker",
          "type": "address"
        },
        {
          "internalType": "bool",
          "name": "_isWorker",
          "type": "bool"
        }
      ],
      "name": "setWorker",
      "outputs": [],
      "stateMutability": "nonpayable",
      "type": "function"
    },
    {
      "inputs": [
        {
          "internalType": "address",
          "name": "newOwner",
          "type": "address"
        }
      ],
      "name": "transferOwnership",
      "outputs": [],
      "stateMutability": "nonpayable",
      "type": "function"
    }
  ],
  "bytecode": "0x6080604052678ac7230489e8000060065534801561001c57600080fd5b506040516109e93803806109e983398101604081905261003b9161015e565b6100443361007b565b6001600160a01b0381166000908152600460205260409020805460ff191660019081179091556100759033906100cb565b5061018c565b600080546001600160a01b038381166001600160a01b0319831681178455604051919092169283917f8be0079c531659141344cd1fd0a4f28419497f9722a3daafe3b4186f6b6457e09190a35050565b6100d36100fe565b6001600160a01b03919091166000908152600560205260409020805460ff1916911515919091179055565b6000546001600160a01b0316331461015c5760405162461bcd60e51b815260206004820181905260248201527f4f776e61626c653a2063616c6c6572206973206e6f7420746865206f776e6572604482015260640160405180910390fd5b565b60006020828403121561016f578081fd5b81516001600160a01b0381168114610185578182fd5b9392505050565b61084e8061019b6000396000f3fe608060405234801561001057600080fd5b50600436106101005760003560e01c8063bd3e19d411610097578063e21f644b11610066578063e21f644b14610220578063e753194314610233578063f2fde38b14610246578063fff95c051461025957600080fd5b8063bd3e19d4146101df578063c373d7f3146101f1578063cbcf474714610204578063d41b04661461020d57600080fd5b8063aa156645116100d3578063aa15664514610163578063b6f2858414610196578063b938be2b146101b9578063ba45e1c2146101cc57600080fd5b806344a0d68a1461010557806358d70d741461011a578063715018a61461014a5780638da5cb5b14610152575b600080fd5b610118610113366004610800565b61026c565b005b60015461012d906001600160a01b031681565b6040516001600160a01b0390911681526020015b60405180910390f35b610118610279565b6000546001600160a01b031661012d565b610186610171366004610753565b60056020526000908152604090205460ff1681565b6040519015158152602001610141565b6101866101a4366004610753565b60046020526000908152604090205460ff1681565b6101186101c7366004610753565b61028d565b6101186101da3660046107ae565b6102b7565b6006545b604051908152602001610141565b6101186101ff366004610774565b61058d565b6101e360065481565b60035461012d906001600160a01b031681565b61011861022e366004610753565b6105c0565b610118610241366004610753565b6105ea565b610118610254366004610753565b610614565b60025461012d906001600160a01b031681565b61027461068d565b600655565b61028161068d565b61028b60006106e7565b565b61029561068d565b600280546001600160a01b0319166001600160a01b0392909216919091179055565b3360009081526005602052604090205460ff1661031b5760405162461bcd60e51b815260206004820152601b60248201527f47616368613a206f6e6c7920776f726b65722063616e2063616c6c000000000060448201526064015b60405180910390fd5b6002546040516340c10f1960e01b81526001600160a01b03898116600483015260248201889052909116906340c10f1990604401600060405180830381600087803b15801561036957600080fd5b505af115801561037d573d6000803e3d6000fd5b5050505060008411156103f1576001546040516340c10f1960e01b81526001600160a01b03898116600483015260248201879052909116906340c10f1990604401600060405180830381600087803b1580156103d857600080fd5b505af11580156103ec573d6000803e3d6000fd5b505050505b821561046557600354604051630ab714fb60e11b81526001600160a01b03898116600483015260016024830152604482018690529091169063156e29f690606401600060405180830381600087803b15801561044c57600080fd5b505af1158015610460573d6000803e3d6000fd5b505050505b81156104d957600354604051630ab714fb60e11b81526001600160a01b03898116600483015260026024830152604482018590529091169063156e29f690606401600060405180830381600087803b1580156104c057600080fd5b505af11580156104d4573d6000803e3d6000fd5b505050505b801561054e5760038054604051630ab714fb60e11b81526001600160a01b038a8116600483015260248201939093526044810184905291169063156e29f690606401600060405180830381600087803b15801561053557600080fd5b505af1158015610549573d6000803e3d6000fd5b505050505b60405186906001600160a01b038916907f67581de98fe19a6f32b18ac4c0eb6fa6d01a3d7bd30d37571f7913ccd006bd9f90600090a350505050505050565b61059561068d565b6001600160a01b03919091166000908152600560205260409020805460ff1916911515919091179055565b6105c861068d565b600180546001600160a01b0319166001600160a01b0392909216919091179055565b6105f261068d565b600380546001600160a01b0319166001600160a01b0392909216919091179055565b61061c61068d565b6001600160a01b0381166106815760405162461bcd60e51b815260206004820152602660248201527f4f776e61626c653a206e6577206f776e657220697320746865207a65726f206160448201526564647265737360d01b6064820152608401610312565b61068a816106e7565b50565b6000546001600160a01b0316331461028b5760405162461bcd60e51b815260206004820181905260248201527f4f776e61626c653a2063616c6c6572206973206e6f7420746865206f776e65726044820152606401610312565b600080546001600160a01b038381166001600160a01b0319831681178455604051919092169283917f8be0079c531659141344cd1fd0a4f28419497f9722a3daafe3b4186f6b6457e09190a35050565b80356001600160a01b038116811461074e57600080fd5b919050565b600060208284031215610764578081fd5b61076d82610737565b9392505050565b60008060408385031215610786578081fd5b61078f83610737565b9150602083013580151581146107a3578182fd5b809150509250929050565b600080600080600080600060e0888a0312156107c8578283fd5b6107d188610737565b9960208901359950604089013598606081013598506080810135975060a0810135965060c00135945092505050565b600060208284031215610811578081fd5b503591905056fea264697066735822122022b6396bb46195a2fe2a139e58f1cf570ff6f60fd4d48d2924a77c707d6019a064736f6c63430008040033",
  "linkReferences": {},
  "deployedLinkReferences": {}
}