{
  "_format": "hh-sol-artifact-1",
  "contractName": "Girl",
  "sourceName": "contracts/Girl/Girl.sol",
  "abi": [
    {
      "inputs": [
        {
          "internalType": "string",
          "name": "_initBaseURI",
          "type": "string"
        },
        {
          "internalType": "address",
          "name": "_orb",
          "type": "address"
        },
        {
          "internalType": "address",
          "name": "_emissions",
          "type": "address"
        },
        {
          "internalType": "address payable",
          "name": "_dev",
          "type": "address"
        },
        {
          "internalType": "address",
          "name": "_rewards",
          "type": "address"
        },
        {
          "internalType": "address",
          "name": "_royalty",
          "type": "address"
        }
      ],
      "stateMutability": "nonpayable",
      "type": "constructor"
    },
    {
      "anonymous": false,
      "inputs": [
        {
          "indexed": true,
          "internalType": "address",
          "name": "owner",
          "type": "address"
        },
        {
          "indexed": true,
          "internalType": "address",
          "name": "approved",
          "type": "address"
        },
        {
          "indexed": true,
          "internalType": "uint256",
          "name": "tokenId",
          "type": "uint256"
        }
      ],
      "name": "Approval",
      "type": "event"
    },
    {
      "anonymous": false,
      "inputs": [
        {
          "indexed": true,
          "internalType": "address",
          "name": "owner",
          "type": "address"
        },
        {
          "indexed": true,
          "internalType": "address",
          "name": "operator",
          "type": "address"
        },
        {
          "indexed": false,
          "internalType": "bool",
          "name": "approved",
          "type": "bool"
        }
      ],
      "name": "ApprovalForAll",
      "type": "event"
    },
    {
      "anonymous": false,
      "inputs": [
        {
          "indexed": false,
          "internalType": "uint256",
          "name": "id",
          "type": "uint256"
        },
        {
          "indexed": false,
          "internalType": "uint256",
          "name": "newLevel",
          "type": "uint256"
        }
      ],
      "name": "CosmicLevelChanged",
      "type": "event"
    },
    {
      "anonymous": false,
      "inputs": [
        {
          "indexed": false,
          "internalType": "uint256",
          "name": "id",
          "type": "uint256"
        },
        {
          "indexed": false,
          "internalType": "uint256",
          "name": "element",
          "type": "uint256"
        }
      ],
      "name": "ElementChanged",
      "type": "event"
    },
    {
      "anonymous": false,
      "inputs": [
        {
          "indexed": false,
          "internalType": "uint256",
          "name": "id",
          "type": "uint256"
        },
        {
          "indexed": false,
          "internalType": "uint256",
          "name": "newScore",
          "type": "uint256"
        }
      ],
      "name": "GamerScoreChanged",
      "type": "event"
    },
    {
      "anonymous": false,
      "inputs": [
        {
          "indexed": false,
          "internalType": "address",
          "name": "minter",
          "type": "address"
        },
        {
          "indexed": true,
          "internalType": "uint256",
          "name": "id",
          "type": "uint256"
        },
        {
          "indexed": true,
          "internalType": "bool",
          "name": "usingOrb",
          "type": "bool"
        },
        {
          "indexed": true,
          "internalType": "uint256",
          "name": "rarity",
          "type": "uint256"
        }
      ],
      "name": "GirlMinted",
      "type": "event"
    },
    {
      "anonymous": false,
      "inputs": [
        {
          "indexed": true,
          "internalType": "address",
          "name": "previousOwner",
          "type": "address"
        },
        {
          "indexed": true,
          "internalType": "address",
          "name": "newOwner",
          "type": "address"
        }
      ],
      "name": "OwnershipTransferred",
      "type": "event"
    },
    {
      "anonymous": false,
      "inputs": [
        {
          "indexed": false,
          "internalType": "uint256",
          "name": "id",
          "type": "uint256"
        },
        {
          "indexed": false,
          "internalType": "uint256",
          "name": "cl",
          "type": "uint256"
        },
        {
          "indexed": false,
          "internalType": "uint256",
          "name": "el",
          "type": "uint256"
        }
      ],
      "name": "StatsInitialized",
      "type": "event"
    },
    {
      "anonymous": false,
      "inputs": [
        {
          "indexed": true,
          "internalType": "address",
          "name": "from",
          "type": "address"
        },
        {
          "indexed": true,
          "internalType": "address",
          "name": "to",
          "type": "address"
        },
        {
          "indexed": true,
          "internalType": "uint256",
          "name": "tokenId",
          "type": "uint256"
        }
      ],
      "name": "Transfer",
      "type": "event"
    },
    {
      "inputs": [],
      "name": "INTERFACE_ID_ERC2981",
      "outputs": [
        {
          "internalType": "bytes4",
          "name": "",
          "type": "bytes4"
        }
      ],
      "stateMutability": "view",
      "type": "function"
    },
    {
      "inputs": [
        {
          "internalType": "address",
          "name": "to",
          "type": "address"
        },
        {
          "internalType": "uint256",
          "name": "tokenId",
          "type": "uint256"
        }
      ],
      "name": "approve",
      "outputs": [],
      "stateMutability": "nonpayable",
      "type": "function"
    },
    {
      "inputs": [],
      "name": "attunement",
      "outputs": [
        {
          "internalType": "contract IAttunement",
          "name": "",
          "type": "address"
        }
      ],
      "stateMutability": "view",
      "type": "function"
    },
    {
      "inputs": [
        {
          "internalType": "address",
          "name": "owner",
          "type": "address"
        }
      ],
      "name": "balanceOf",
      "outputs": [
        {
          "internalType": "uint256",
          "name": "",
          "type": "uint256"
        }
      ],
      "stateMutability": "view",
      "type": "function"
    },
    {
      "inputs": [
        {
          "internalType": "uint256",
          "name": "id",
          "type": "uint256"
        },
        {
          "internalType": "uint256",
          "name": "toTier",
          "type": "uint256"
        }
      ],
      "name": "calcCosmicLevelUpgradeCost",
      "outputs": [
        {
          "internalType": "uint256[]",
          "name": "",
          "type": "uint256[]"
        }
      ],
      "stateMutability": "view",
      "type": "function"
    },
    {
      "inputs": [
        {
          "internalType": "uint256",
          "name": "id",
          "type": "uint256"
        },
        {
          "internalType": "uint256",
          "name": "toTier",
          "type": "uint256"
        }
      ],
      "name": "calcGamerScoreUpgradeCost",
      "outputs": [
        {
          "internalType": "uint256",
          "name": "",
          "type": "uint256"
        }
      ],
      "stateMutability": "view",
      "type": "function"
    },
    {
      "inputs": [],
      "name": "charges",
      "outputs": [
        {
          "internalType": "uint256",
          "name": "",
          "type": "uint256"
        }
      ],
      "stateMutability": "view",
      "type": "function"
    },
    {
      "inputs": [
        {
          "internalType": "uint256",
          "name": "",
          "type": "uint256"
        }
      ],
      "name": "chargesUsed",
      "outputs": [
        {
          "internalType": "uint256",
          "name": "",
          "type": "uint256"
        }
      ],
      "stateMutability": "view",
      "type": "function"
    },
    {
      "inputs": [
        {
          "internalType": "uint256",
          "name": "girlId",
          "type": "uint256"
        }
      ],
      "name": "checkStake",
      "outputs": [
        {
          "internalType": "address",
          "name": "",
          "type": "address"
        },
        {
          "internalType": "bool",
          "name": "",
          "type": "bool"
        },
        {
          "internalType": "uint256",
          "name": "",
          "type": "uint256"
        }
      ],
      "stateMutability": "view",
      "type": "function"
    },
    {
      "inputs": [
        {
          "internalType": "uint256",
          "name": "",
          "type": "uint256"
        }
      ],
      "name": "cosmicLevel",
      "outputs": [
        {
          "internalType": "uint256",
          "name": "",
          "type": "uint256"
        }
      ],
      "stateMutability": "view",
      "type": "function"
    },
    {
      "inputs": [
        {
          "internalType": "uint256",
          "name": "",
          "type": "uint256"
        }
      ],
      "name": "element",
      "outputs": [
        {
          "internalType": "uint256",
          "name": "",
          "type": "uint256"
        }
      ],
      "stateMutability": "view",
      "type": "function"
    },
    {
      "inputs": [],
      "name": "emissions",
      "outputs": [
        {
          "internalType": "contract IEmissions",
          "name": "",
          "type": "address"
        }
      ],
      "stateMutability": "view",
      "type": "function"
    },
    {
      "inputs": [
        {
          "internalType": "uint256",
          "name": "",
          "type": "uint256"
        }
      ],
      "name": "gamerScore",
      "outputs": [
        {
          "internalType": "uint256",
          "name": "",
          "type": "uint256"
        }
      ],
      "stateMutability": "view",
      "type": "function"
    },
    {
      "inputs": [
        {
          "internalType": "uint256",
          "name": "tokenId",
          "type": "uint256"
        }
      ],
      "name": "getApproved",
      "outputs": [
        {
          "internalType": "address",
          "name": "",
          "type": "address"
        }
      ],
      "stateMutability": "view",
      "type": "function"
    },
    {
      "inputs": [
        {
          "internalType": "uint256",
          "name": "id",
          "type": "uint256"
        }
      ],
      "name": "getChargesRemaining",
      "outputs": [
        {
          "internalType": "uint256",
          "name": "",
          "type": "uint256"
        }
      ],
      "stateMutability": "view",
      "type": "function"
    },
    {
      "inputs": [
        {
          "internalType": "uint256",
          "name": "_id",
          "type": "uint256"
        }
      ],
      "name": "getCosmicLevel",
      "outputs": [
        {
          "internalType": "uint256",
          "name": "",
          "type": "uint256"
        }
      ],
      "stateMutability": "view",
      "type": "function"
    },
    {
      "inputs": [
        {
          "internalType": "uint256",
          "name": "id",
          "type": "uint256"
        },
        {
          "internalType": "uint256",
          "name": "toTier",
          "type": "uint256"
        }
      ],
      "name": "getCosmicLevelUpgradeCost",
      "outputs": [
        {
          "internalType": "uint256[]",
          "name": "",
          "type": "uint256[]"
        }
      ],
      "stateMutability": "view",
      "type": "function"
    },
    {
      "inputs": [],
      "name": "getCost",
      "outputs": [
        {
          "internalType": "uint256",
          "name": "",
          "type": "uint256"
        }
      ],
      "stateMutability": "view",
      "type": "function"
    },
    {
      "inputs": [],
      "name": "getDiscountCost",
      "outputs": [
        {
          "internalType": "uint256",
          "name": "",
          "type": "uint256"
        }
      ],
      "stateMutability": "view",
      "type": "function"
    },
    {
      "inputs": [
        {
          "internalType": "uint256",
          "name": "_id",
          "type": "uint256"
        }
      ],
      "name": "getElement",
      "outputs": [
        {
          "internalType": "uint256",
          "name": "",
          "type": "uint256"
        }
      ],
      "stateMutability": "view",
      "type": "function"
    },
    {
      "inputs": [
        {
          "internalType": "uint256",
          "name": "_id",
          "type": "uint256"
        }
      ],
      "name": "getGamerScore",
      "outputs": [
        {
          "internalType": "uint256",
          "name": "",
          "type": "uint256"
        }
      ],
      "stateMutability": "view",
      "type": "function"
    },
    {
      "inputs": [
        {
          "internalType": "uint256",
          "name": "id",
          "type": "uint256"
        },
        {
          "internalType": "uint256",
          "name": "toTier",
          "type": "uint256"
        }
      ],
      "name": "getGamerScoreUpgradeCost",
      "outputs": [
        {
          "internalType": "uint256",
          "name": "cost",
          "type": "uint256"
        }
      ],
      "stateMutability": "view",
      "type": "function"
    },
    {
      "inputs": [
        {
          "internalType": "uint256",
          "name": "",
          "type": "uint256"
        }
      ],
      "name": "gsUpgradeCosts",
      "outputs": [
        {
          "internalType": "uint256",
          "name": "",
          "type": "uint256"
        }
      ],
      "stateMutability": "view",
      "type": "function"
    },
    {
      "inputs": [
        {
          "internalType": "uint256",
          "name": "id",
          "type": "uint256"
        },
        {
          "internalType": "uint256",
          "name": "toTier",
          "type": "uint256"
        }
      ],
      "name": "handleUpgradeCosmicLevel",
      "outputs": [],
      "stateMutability": "nonpayable",
      "type": "function"
    },
    {
      "inputs": [
        {
          "internalType": "uint256",
          "name": "id",
          "type": "uint256"
        },
        {
          "internalType": "uint256",
          "name": "toTier",
          "type": "uint256"
        }
      ],
      "name": "handleUpgradeGamerScore",
      "outputs": [],
      "stateMutability": "nonpayable",
      "type": "function"
    },
    {
      "inputs": [
        {
          "internalType": "uint256",
          "name": "id",
          "type": "uint256"
        },
        {
          "internalType": "uint256",
          "name": "cl",
          "type": "uint256"
        },
        {
          "internalType": "uint256",
          "name": "el",
          "type": "uint256"
        }
      ],
      "name": "initStats",
      "outputs": [],
      "stateMutability": "nonpayable",
      "type": "function"
    },
    {
      "inputs": [
        {
          "internalType": "address",
          "name": "owner",
          "type": "address"
        },
        {
          "internalType": "address",
          "name": "operator",
          "type": "address"
        }
      ],
      "name": "isApprovedForAll",
      "outputs": [
        {
          "internalType": "bool",
          "name": "",
          "type": "bool"
        }
      ],
      "stateMutability": "view",
      "type": "function"
    },
    {
      "inputs": [
        {
          "internalType": "address",
          "name": "",
          "type": "address"
        }
      ],
      "name": "isElementalStone",
      "outputs": [
        {
          "internalType": "bool",
          "name": "",
          "type": "bool"
        }
      ],
      "stateMutability": "view",
      "type": "function"
    },
    {
      "inputs": [
        {
          "internalType": "uint256",
          "name": "girlId",
          "type": "uint256"
        }
      ],
      "name": "isPaired",
      "outputs": [
        {
          "internalType": "bool",
          "name": "",
          "type": "bool"
        }
      ],
      "stateMutability": "view",
      "type": "function"
    },
    {
      "inputs": [
        {
          "internalType": "address",
          "name": "",
          "type": "address"
        }
      ],
      "name": "isWorker",
      "outputs": [
        {
          "internalType": "bool",
          "name": "",
          "type": "bool"
        }
      ],
      "stateMutability": "view",
      "type": "function"
    },
    {
      "inputs": [
        {
          "internalType": "uint256",
          "name": "",
          "type": "uint256"
        }
      ],
      "name": "matchedElementCosts",
      "outputs": [
        {
          "internalType": "uint256",
          "name": "",
          "type": "uint256"
        }
      ],
      "stateMutability": "view",
      "type": "function"
    },
    {
      "inputs": [
        {
          "internalType": "bool",
          "name": "usingOrb",
          "type": "bool"
        },
        {
          "internalType": "uint256",
          "name": "orbId",
          "type": "uint256"
        },
        {
          "internalType": "uint256",
          "name": "amount",
          "type": "uint256"
        }
      ],
      "name": "mint",
      "outputs": [],
      "stateMutability": "payable",
      "type": "function"
    },
    {
      "inputs": [],
      "name": "moonstone",
      "outputs": [
        {
          "internalType": "contract IERC20",
          "name": "",
          "type": "address"
        }
      ],
      "stateMutability": "view",
      "type": "function"
    },
    {
      "inputs": [],
      "name": "name",
      "outputs": [
        {
          "internalType": "string",
          "name": "",
          "type": "string"
        }
      ],
      "stateMutability": "view",
      "type": "function"
    },
    {
      "inputs": [
        {
          "internalType": "address",
          "name": "",
          "type": "address"
        },
        {
          "internalType": "address",
          "name": "",
          "type": "address"
        },
        {
          "internalType": "uint256",
          "name": "",
          "type": "uint256"
        },
        {
          "internalType": "bytes",
          "name": "",
          "type": "bytes"
        }
      ],
      "name": "onERC721Received",
      "outputs": [
        {
          "internalType": "bytes4",
          "name": "",
          "type": "bytes4"
        }
      ],
      "stateMutability": "nonpayable",
      "type": "function"
    },
    {
      "inputs": [],
      "name": "orb",
      "outputs": [
        {
          "internalType": "contract IERC721",
          "name": "",
          "type": "address"
        }
      ],
      "stateMutability": "view",
      "type": "function"
    },
    {
      "inputs": [],
      "name": "orbRarity",
      "outputs": [
        {
          "internalType": "contract IOrbRarity",
          "name": "",
          "type": "address"
        }
      ],
      "stateMutability": "view",
      "type": "function"
    },
    {
      "inputs": [],
      "name": "owner",
      "outputs": [
        {
          "internalType": "address",
          "name": "",
          "type": "address"
        }
      ],
      "stateMutability": "view",
      "type": "function"
    },
    {
      "inputs": [
        {
          "internalType": "uint256",
          "name": "tokenId",
          "type": "uint256"
        }
      ],
      "name": "ownerOf",
      "outputs": [
        {
          "internalType": "address",
          "name": "",
          "type": "address"
        }
      ],
      "stateMutability": "view",
      "type": "function"
    },
    {
      "inputs": [
        {
          "internalType": "uint256",
          "name": "",
          "type": "uint256"
        }
      ],
      "name": "paired",
      "outputs": [
        {
          "internalType": "bool",
          "name": "",
          "type": "bool"
        }
      ],
      "stateMutability": "view",
      "type": "function"
    },
    {
      "inputs": [],
      "name": "renounceOwnership",
      "outputs": [],
      "stateMutability": "nonpayable",
      "type": "function"
    },
    {
      "inputs": [],
      "name": "rewards",
      "outputs": [
        {
          "internalType": "contract IRewards",
          "name": "",
          "type": "address"
        }
      ],
      "stateMutability": "view",
      "type": "function"
    },
    {
      "inputs": [
        {
          "internalType": "uint256",
          "name": "_tokenId",
          "type": "uint256"
        },
        {
          "internalType": "uint256",
          "name": "_salePrice",
          "type": "uint256"
        }
      ],
      "name": "royaltyInfo",
      "outputs": [
        {
          "internalType": "address",
          "name": "receiver",
          "type": "address"
        },
        {
          "internalType": "uint256",
          "name": "royaltyAmount",
          "type": "uint256"
        }
      ],
      "stateMutability": "view",
      "type": "function"
    },
    {
      "inputs": [
        {
          "internalType": "address",
          "name": "from",
          "type": "address"
        },
        {
          "internalType": "address",
          "name": "to",
          "type": "address"
        },
        {
          "internalType": "uint256",
          "name": "tokenId",
          "type": "uint256"
        }
      ],
      "name": "safeTransferFrom",
      "outputs": [],
      "stateMutability": "nonpayable",
      "type": "function"
    },
    {
      "inputs": [
        {
          "internalType": "address",
          "name": "from",
          "type": "address"
        },
        {
          "internalType": "address",
          "name": "to",
          "type": "address"
        },
        {
          "internalType": "uint256",
          "name": "tokenId",
          "type": "uint256"
        },
        {
          "internalType": "bytes",
          "name": "_data",
          "type": "bytes"
        }
      ],
      "name": "safeTransferFrom",
      "outputs": [],
      "stateMutability": "nonpayable",
      "type": "function"
    },
    {
      "inputs": [
        {
          "internalType": "address",
          "name": "operator",
          "type": "address"
        },
        {
          "internalType": "bool",
          "name": "approved",
          "type": "bool"
        }
      ],
      "name": "setApprovalForAll",
      "outputs": [],
      "stateMutability": "nonpayable",
      "type": "function"
    },
    {
      "inputs": [
        {
          "internalType": "address",
          "name": "_a",
          "type": "address"
        }
      ],
      "name": "setAttunementContract",
      "outputs": [],
      "stateMutability": "nonpayable",
      "type": "function"
    },
    {
      "inputs": [
        {
          "internalType": "address",
          "name": "_rewards",
          "type": "address"
        }
      ],
      "name": "setBankRewardsContract",
      "outputs": [],
      "stateMutability": "nonpayable",
      "type": "function"
    },
    {
      "inputs": [
        {
          "internalType": "string",
          "name": "_newBaseURI",
          "type": "string"
        }
      ],
      "name": "setBaseURI",
      "outputs": [],
      "stateMutability": "nonpayable",
      "type": "function"
    },
    {
      "inputs": [
        {
          "internalType": "uint256",
          "name": "_newCost",
          "type": "uint256"
        }
      ],
      "name": "setCost",
      "outputs": [],
      "stateMutability": "nonpayable",
      "type": "function"
    },
    {
      "inputs": [
        {
          "internalType": "uint256",
          "name": "_id",
          "type": "uint256"
        },
        {
          "internalType": "uint256",
          "name": "_newElement",
          "type": "uint256"
        }
      ],
      "name": "setElement",
      "outputs": [],
      "stateMutability": "nonpayable",
      "type": "function"
    },
    {
      "inputs": [
        {
          "internalType": "address",
          "name": "_es",
          "type": "address"
        }
      ],
      "name": "setElementalStoneContract",
      "outputs": [],
      "stateMutability": "nonpayable",
      "type": "function"
    },
    {
      "inputs": [
        {
          "internalType": "address",
          "name": "_e",
          "type": "address"
        }
      ],
      "name": "setEmissions",
      "outputs": [],
      "stateMutability": "nonpayable",
      "type": "function"
    },
    {
      "inputs": [
        {
          "internalType": "address",
          "name": "_moonstone",
          "type": "address"
        }
      ],
      "name": "setMoonstoneContract",
      "outputs": [],
      "stateMutability": "nonpayable",
      "type": "function"
    },
    {
      "inputs": [
        {
          "internalType": "address",
          "name": "_orbRarity",
          "type": "address"
        }
      ],
      "name": "setOrbRarity",
      "outputs": [],
      "stateMutability": "nonpayable",
      "type": "function"
    },
    {
      "inputs": [
        {
          "internalType": "uint256",
          "name": "_id",
          "type": "uint256"
        },
        {
          "internalType": "bool",
          "name": "_paired",
          "type": "bool"
        }
      ],
      "name": "setPaired",
      "outputs": [],
      "stateMutability": "nonpayable",
      "type": "function"
    },
    {
      "inputs": [
        {
          "internalType": "address",
          "name": "newRecipient",
          "type": "address"
        }
      ],
      "name": "setRoyalties",
      "outputs": [],
      "stateMutability": "nonpayable",
      "type": "function"
    },
    {
      "inputs": [
        {
          "internalType": "address",
          "name": "_worker",
          "type": "address"
        },
        {
          "internalType": "bool",
          "name": "_isWorker",
          "type": "bool"
        }
      ],
      "name": "setWorker",
      "outputs": [],
      "stateMutability": "nonpayable",
      "type": "function"
    },
    {
      "inputs": [
        {
          "internalType": "bytes4",
          "name": "interfaceId",
          "type": "bytes4"
        }
      ],
      "name": "supportsInterface",
      "outputs": [
        {
          "internalType": "bool",
          "name": "",
          "type": "bool"
        }
      ],
      "stateMutability": "view",
      "type": "function"
    },
    {
      "inputs": [],
      "name": "symbol",
      "outputs": [
        {
          "internalType": "string",
          "name": "",
          "type": "string"
        }
      ],
      "stateMutability": "view",
      "type": "function"
    },
    {
      "inputs": [
        {
          "internalType": "uint256",
          "name": "index",
          "type": "uint256"
        }
      ],
      "name": "tokenByIndex",
      "outputs": [
        {
          "internalType": "uint256",
          "name": "",
          "type": "uint256"
        }
      ],
      "stateMutability": "view",
      "type": "function"
    },
    {
      "inputs": [
        {
          "internalType": "address",
          "name": "owner",
          "type": "address"
        },
        {
          "internalType": "uint256",
          "name": "index",
          "type": "uint256"
        }
      ],
      "name": "tokenOfOwnerByIndex",
      "outputs": [
        {
          "internalType": "uint256",
          "name": "",
          "type": "uint256"
        }
      ],
      "stateMutability": "view",
      "type": "function"
    },
    {
      "inputs": [
        {
          "internalType": "uint256",
          "name": "tokenId",
          "type": "uint256"
        }
      ],
      "name": "tokenURI",
      "outputs": [
        {
          "internalType": "string",
          "name": "",
          "type": "string"
        }
      ],
      "stateMutability": "view",
      "type": "function"
    },
    {
      "inputs": [],
      "name": "totalSupply",
      "outputs": [
        {
          "internalType": "uint256",
          "name": "",
          "type": "uint256"
        }
      ],
      "stateMutability": "view",
      "type": "function"
    },
    {
      "inputs": [
        {
          "internalType": "address",
          "name": "from",
          "type": "address"
        },
        {
          "internalType": "address",
          "name": "to",
          "type": "address"
        },
        {
          "internalType": "uint256",
          "name": "tokenId",
          "type": "uint256"
        }
      ],
      "name": "transferFrom",
      "outputs": [],
      "stateMutability": "nonpayable",
      "type": "function"
    },
    {
      "inputs": [
        {
          "internalType": "address",
          "name": "newOwner",
          "type": "address"
        }
      ],
      "name": "transferOwnership",
      "outputs": [],
      "stateMutability": "nonpayable",
      "type": "function"
    },
    {
      "inputs": [
        {
          "internalType": "uint256",
          "name": "",
          "type": "uint256"
        }
      ],
      "name": "unmatchedElementCosts",
      "outputs": [
        {
          "internalType": "uint256",
          "name": "",
          "type": "uint256"
        }
      ],
      "stateMutability": "view",
      "type": "function"
    },
    {
      "inputs": [
        {
          "internalType": "address",
          "name": "_owner",
          "type": "address"
        }
      ],
      "name": "walletOfOwner",
      "outputs": [
        {
          "internalType": "uint256[]",
          "name": "",
          "type": "uint256[]"
        }
      ],
      "stateMutability": "view",
      "type": "function"
    },
    {
      "inputs": [
        {
          "internalType": "address payable",
          "name": "_rest",
          "type": "address"
        }
      ],
      "name": "withdraw",
      "outputs": [],
      "stateMutability": "nonpayable",
      "type": "function"
    }
  ],
  "bytecode": "0x6019600e55600a600f9081556103c060405260006080908152600460a081905260c081905260e05260056101008190526101208190526101408190526101608190526101805260066101a08190526101c05260076101e052600861020081905261022081905261024081905261026052600b6102808190526102a08190526102c052600c6102e08190526103005261032091909152601061034081905261036081905260116103808190526103a052620000bb91601a6200050a565b50604080516101408101825260008152600260208201526003918101829052606081019190915260046080820152600660a0820152600860c0820152600b60e0820152600e61010082015260126101208201526200011e90602a90600a62000552565b506040805161014081018252600080825260208201819052918101919091526001606082015260026080820152600360a0820152600460c0820152600560e0820152600761010082015260096101208201526200018090603490600a62000552565b50605a6041556005604255600f604355611388604a55348015620001a357600080fd5b50604051620044cc380380620044cc833981016040819052620001c69162000638565b604080518082018252600f81526e151bdade5bc815195cdd0811da5c9b608a1b60208083019182528351808501909452600384526254544760e81b908401528151919291620002189160009162000587565b5080516200022e90600190602084019062000587565b5050506200024b62000245620002de60201b60201c565b620002e2565b603e80546001600160a01b0319166001600160a01b038716179055620002718662000334565b6200027c8462000357565b620002878262000383565b6200029281620003af565b6200029f336001620003c7565b620002b2674563918244f40000620003fc565b5050604b80546001600160a01b0319166001600160a01b039290921691909117905550620007bf915050565b3390565b600a80546001600160a01b038381166001600160a01b0319831681179093556040519116919082907f8be0079c531659141344cd1fd0a4f28419497f9722a3daafe3b4186f6b6457e090600090a35050565b6200033e62000419565b80516200035390604990602084019062000587565b5050565b6200036162000419565b604880546001600160a01b0319166001600160a01b0392909216919091179055565b6200038d62000419565b604680546001600160a01b0319166001600160a01b0392909216919091179055565b620003b962000419565b620003c4816200047b565b50565b620003d162000419565b6001600160a01b03919091166000908152604f60205260409020805460ff1916911515919091179055565b6200040662000419565b600081116200041457600080fd5b604055565b600a546001600160a01b03163314620004795760405162461bcd60e51b815260206004820181905260248201527f4f776e61626c653a2063616c6c6572206973206e6f7420746865206f776e657260448201526064015b60405180910390fd5b565b6001600160a01b038116620004e85760405162461bcd60e51b815260206004820152602c60248201527f526f79616c746965733a206e657720726563697069656e74206973207468652060448201526b7a65726f206164647265737360a01b606482015260840162000470565b604c80546001600160a01b0319166001600160a01b0392909216919091179055565b82601a810192821562000540579160200282015b8281111562000540578251829060ff169055916020019190600101906200051e565b506200054e92915062000604565b5090565b82600a810192821562000540579160200282018281111562000540578251829060ff169055916020019190600101906200051e565b82805462000595906200076c565b90600052602060002090601f016020900481019282620005b9576000855562000540565b82601f10620005d457805160ff191683800117855562000540565b8280016001018555821562000540579182015b8281111562000540578251825591602001919060010190620005e7565b5b808211156200054e576000815560010162000605565b80516001600160a01b03811681146200063357600080fd5b919050565b60008060008060008060c0878903121562000651578182fd5b86516001600160401b038082111562000668578384fd5b818901915089601f8301126200067c578384fd5b815181811115620006915762000691620007a9565b604051601f8201601f19908116603f01168101908382118183101715620006bc57620006bc620007a9565b81604052828152602093508c84848701011115620006d8578687fd5b8691505b82821015620006fb5784820184015181830185015290830190620006dc565b828211156200070c57868484830101525b99506200071e9150508982016200061b565b9650505062000730604088016200061b565b935062000740606088016200061b565b925062000750608088016200061b565b91506200076060a088016200061b565b90509295509295509295565b600181811c908216806200078157607f821691505b60208210811415620007a357634e487b7160e01b600052602260045260246000fd5b50919050565b634e487b7160e01b600052604160045260246000fd5b613cfd80620007cf6000396000f3fe6080604052600436106103fa5760003560e01c8063690d1ca211610213578063aa15664511610123578063e00cda26116100ab578063f2fde38b1161007a578063f2fde38b14610d06578063f909a9cf14610d26578063fd79e7ac14610d53578063ff23d7d314610d73578063ff91078314610d9357600080fd5b8063e00cda2614610c67578063e985e9c514610c7d578063f090e00414610cc6578063f2731f4a14610cf357600080fd5b8063c373d7f3116100f2578063c373d7f314610bba578063c3ca39f814610bda578063c4e2676714610bfa578063c87b56dd14610c1a578063d066100614610c3a57600080fd5b8063aa15664514610b3a578063b060dd8614610b6a578063b88d4fde14610b85578063bd3e19d414610ba557600080fd5b8063878792d5116101a65780639ec5a894116101755780639ec5a89414610a8d578063a16e721514610aad578063a22b36ef14610acd578063a22cb46514610afa578063a388237d14610b1a57600080fd5b8063878792d514610a0a5780638da5cb5b14610a2a5780638efab2d514610a4857806395d89b4114610a7857600080fd5b8063715018a6116101e2578063715018a61461099557806373ae2d78146109aa5780637a6832a5146109ca578063814e1bb8146109ea57600080fd5b8063690d1ca21461091557806369250220146109355780636aa5dd711461095557806370a082311461097557600080fd5b80632f745c591161030e57806344a0d68a116102a157806355f804b31161027057806355f804b314610868578063562d412f1461088857806358d70d74146108b55780635c5ac79a146108d55780636352211e146108f557600080fd5b806344a0d68a146107db57806349af0b94146107fb5780634f6ccce71461082857806351cff8d91461084857600080fd5b80633f74c596116102dd5780633f74c5961461072957806340a3c3381461075657806342842e0e1461079b578063438b6300146107bb57600080fd5b80632f745c591461069c5780633a7d22bc146106bc5780633c010930146106e95780633f1ed7091461070957600080fd5b806312cbd705116103915780631eeb2f4f116103605780631eeb2f4f146105dd5780632267716c146105fd57806323b872dd1461061d5780632a55205a1461063d5780632a9e63c61461067c57600080fd5b806312cbd70514610540578063150b7a021461057057806318160ddd146105a95780631c8a76c5146105c857600080fd5b806308e6981e116103cd57806308e6981e146104b0578063095ea7b3146104d05780630b689417146104f05780630f3b899b1461052057600080fd5b806301ffc9a7146103ff57806306fdde0314610434578063081812fc1461045657806308834ee71461048e575b600080fd5b34801561040b57600080fd5b5061041f61041a36600461387d565b610db3565b60405190151581526020015b60405180910390f35b34801561044057600080fd5b50610449610dde565b60405161042b9190613a77565b34801561046257600080fd5b506104766104713660046138fb565b610e70565b6040516001600160a01b03909116815260200161042b565b34801561049a57600080fd5b506104ae6104a93660046136a8565b610e97565b005b3480156104bc57600080fd5b506104ae6104cb366004613970565b610ec1565b3480156104dc57600080fd5b506104ae6104eb366004613802565b610f8c565b3480156104fc57600080fd5b5061041f61050b3660046138fb565b6000908152604e602052604090205460ff1690565b34801561052c57600080fd5b50604754610476906001600160a01b031681565b34801561054c57600080fd5b5061041f61055b3660046136a8565b604d6020526000908152604090205460ff1681565b34801561057c57600080fd5b5061059061058b366004613758565b6110a7565b6040516001600160e01b0319909116815260200161042b565b3480156105b557600080fd5b506008545b60405190815260200161042b565b3480156105d457600080fd5b506105ba6110b8565b3480156105e957600080fd5b506104ae6105f83660046136a8565b6110db565b34801561060957600080fd5b50604854610476906001600160a01b031681565b34801561062957600080fd5b506104ae610638366004613718565b611105565b34801561064957600080fd5b5061065d61065836600461394f565b611199565b604080516001600160a01b03909316835260208301919091520161042b565b34801561068857600080fd5b506104ae6106973660046136a8565b6111bb565b3480156106a857600080fd5b506105ba6106b7366004613802565b6111cf565b3480156106c857600080fd5b506105ba6106d73660046138fb565b6000908152600d602052604090205490565b3480156106f557600080fd5b506105ba61070436600461394f565b611265565b34801561071557600080fd5b506104ae61072436600461392b565b611360565b34801561073557600080fd5b5061074961074436600461394f565b6113f4565b60405161042b9190613a33565b34801561076257600080fd5b506107766107713660046138fb565b611486565b604080516001600160a01b03909416845291151560208401529082015260600161042b565b3480156107a757600080fd5b506104ae6107b6366004613718565b6114bf565b3480156107c757600080fd5b506107496107d63660046136a8565b6114da565b3480156107e757600080fd5b506104ae6107f63660046138fb565b611598565b34801561080757600080fd5b506105ba6108163660046138fb565b60446020526000908152604090205481565b34801561083457600080fd5b506105ba6108433660046138fb565b6115b2565b34801561085457600080fd5b506104ae6108633660046136a8565b611653565b34801561087457600080fd5b506104ae6108833660046138b5565b6116d3565b34801561089457600080fd5b506105ba6108a33660046138fb565b600c6020526000908152604090205481565b3480156108c157600080fd5b50604554610476906001600160a01b031681565b3480156108e157600080fd5b50603f54610476906001600160a01b031681565b34801561090157600080fd5b506104766109103660046138fb565b6116f2565b34801561092157600080fd5b506104ae6109303660046136a8565b611752565b34801561094157600080fd5b506104ae61095036600461394f565b61177e565b34801561096157600080fd5b506104ae61097036600461394f565b61196e565b34801561098157600080fd5b506105ba6109903660046136a8565b611a4d565b3480156109a157600080fd5b506104ae611ad3565b3480156109b657600080fd5b506107496109c536600461394f565b611ae7565b3480156109d657600080fd5b506104ae6109e53660046136a8565b611d32565b3480156109f657600080fd5b506105ba610a053660046138fb565b611d5c565b348015610a1657600080fd5b506104ae610a253660046136a8565b611d73565b348015610a3657600080fd5b50600a546001600160a01b0316610476565b348015610a5457600080fd5b5061041f610a633660046138fb565b604e6020526000908152604090205460ff1681565b348015610a8457600080fd5b50610449611d9d565b348015610a9957600080fd5b50604654610476906001600160a01b031681565b348015610ab957600080fd5b506104ae610ac836600461394f565b611dac565b348015610ad957600080fd5b506105ba610ae83660046138fb565b6000908152600c602052604090205490565b348015610b0657600080fd5b506104ae610b153660046137d5565b611e04565b348015610b2657600080fd5b506104ae610b353660046136a8565b611e0f565b348015610b4657600080fd5b5061041f610b553660046136a8565b604f6020526000908152604090205460ff1681565b348015610b7657600080fd5b5061059063152a902d60e11b81565b348015610b9157600080fd5b506104ae610ba0366004613758565b611e39565b348015610bb157600080fd5b506040546105ba565b348015610bc657600080fd5b506104ae610bd53660046137d5565b611ecf565b348015610be657600080fd5b506105ba610bf536600461394f565b611f02565b348015610c0657600080fd5b506105ba610c153660046138fb565b61200b565b348015610c2657600080fd5b50610449610c353660046138fb565b61201b565b348015610c4657600080fd5b506105ba610c553660046138fb565b6000908152600b602052604090205490565b348015610c7357600080fd5b506105ba60425481565b348015610c8957600080fd5b5061041f610c983660046136e0565b6001600160a01b03918216600090815260056020908152604080832093909416825291909152205460ff1690565b348015610cd257600080fd5b506105ba610ce13660046138fb565b600d6020526000908152604090205481565b6104ae610d01366004613849565b6120f5565b348015610d1257600080fd5b506104ae610d213660046136a8565b6125d9565b348015610d3257600080fd5b506105ba610d413660046138fb565b600b6020526000908152604090205481565b348015610d5f57600080fd5b506105ba610d6e3660046138fb565b61264f565b348015610d7f57600080fd5b506105ba610d8e3660046138fb565b61265f565b348015610d9f57600080fd5b50603e54610476906001600160a01b031681565b60006001600160e01b0319821663152a902d60e11b1480610dd85750610dd88261267b565b92915050565b606060008054610ded90613c0c565b80601f0160208091040260200160405190810160405280929190818152602001828054610e1990613c0c565b8015610e665780601f10610e3b57610100808354040283529160200191610e66565b820191906000526020600020905b815481529060010190602001808311610e4957829003601f168201915b5050505050905090565b6000610e7b826126a0565b506000908152600460205260409020546001600160a01b031690565b610e9f6126ff565b604880546001600160a01b0319166001600160a01b0392909216919091179055565b610ec96126ff565b6000838152600b60209081526040808320859055600d9091529020819055604854604051632b017cb760e01b8152600481018590526001600160a01b0390911690632b017cb790602401600060405180830381600087803b158015610f2d57600080fd5b505af1158015610f41573d6000803e3d6000fd5b505060408051868152602081018690529081018490527fd61e1c6078dbe8c00ff44edafbf29b5084c488aadbbf8d84f3b95c1ea3c1438c9250606001905060405180910390a1505050565b6000610f97826116f2565b9050806001600160a01b0316836001600160a01b0316141561100a5760405162461bcd60e51b815260206004820152602160248201527f4552433732313a20617070726f76616c20746f2063757272656e74206f776e656044820152603960f91b60648201526084015b60405180910390fd5b336001600160a01b038216148061102657506110268133610c98565b6110985760405162461bcd60e51b815260206004820152603d60248201527f4552433732313a20617070726f76652063616c6c6572206973206e6f7420746f60448201527f6b656e206f776e6572206f7220617070726f76656420666f7220616c6c0000006064820152608401611001565b6110a28383612759565b505050565b630a85bd0160e11b5b949350505050565b600060646041546040546110cc9190613baa565b6110d69190613b8a565b905090565b6110e36126ff565b603f80546001600160a01b0319166001600160a01b0392909216919091179055565b61110f33826127c7565b61112b5760405162461bcd60e51b815260040161100190613b21565b611136838383612845565b60475460405163add058fd60e01b8152600481018390526001600160a01b039091169063add058fd90602401600060405180830381600087803b15801561117c57600080fd5b505af1158015611190573d6000803e3d6000fd5b50505050505050565b604c546001600160a01b031660006111b2601484613b8a565b90509250929050565b6111c36126ff565b6111cc816129b6565b50565b60006111da83611a4d565b821061123c5760405162461bcd60e51b815260206004820152602b60248201527f455243373231456e756d657261626c653a206f776e657220696e646578206f7560448201526a74206f6620626f756e647360a81b6064820152608401611001565b506001600160a01b03919091166000908152600660209081526040808320938352929052205490565b60006001821015801561127a5750600e548211155b6112d75760405162461bcd60e51b815260206004820152602860248201527f557067726164653a20746f54696572206d757374206265206265747765656e206044820152673120616e6420323560c01b6064820152608401611001565b6000838152600c6020526040902054821161134f5760405162461bcd60e51b815260206004820152603260248201527f557067726164653a20746f54696572206d7573742062652067726561746572206044820152711d1a185b8818dd5c9c995b9d081b195d995b60721b6064820152608401611001565b6113598383611f02565b9392505050565b336000908152604d602052604090205460ff168061138857506047546001600160a01b031633145b6113d45760405162461bcd60e51b815260206004820152601d60248201527f4769726c3a206f6e6c79204553206f72204174742063616e2063616c6c0000006044820152606401611001565b6000918252604e6020526040909120805460ff1916911515919091179055565b6000828152600b6020526040902054606090821180156114155750600a8211155b61147c5760405162461bcd60e51b815260206004820152603260248201527f557067726164653a2074696572206d757374206265206265747765656e20637560448201527107272656e74206c6576656c20616e642031360741b6064820152608401611001565b6113598383611ae7565b6000806000611494846116f2565b6000948552604e6020908152604080872054600d90925290952054909560ff90951694909350915050565b61113683838360405180602001604052806000815250611e39565b606060006114e783611a4d565b905060008167ffffffffffffffff81111561151257634e487b7160e01b600052604160045260246000fd5b60405190808252806020026020018201604052801561153b578160200160208202803683370190505b50905060005b828110156115905761155385826111cf565b82828151811061157357634e487b7160e01b600052603260045260246000fd5b60209081029190910101528061158881613c47565b915050611541565b509392505050565b6115a06126ff565b600081116115ad57600080fd5b604055565b60006115bd60085490565b82106116205760405162461bcd60e51b815260206004820152602c60248201527f455243373231456e756d657261626c653a20676c6f62616c20696e646578206f60448201526b7574206f6620626f756e647360a01b6064820152608401611001565b6008828154811061164157634e487b7160e01b600052603260045260246000fd5b90600052602060002001549050919050565b61165b6126ff565b604b5447906001600160a01b03166108fc61167583612a43565b6040518115909202916000818181858888f1935050505015801561169d573d6000803e3d6000fd5b506040516001600160a01b038316904780156108fc02916000818181858888f193505050501580156110a2573d6000803e3d6000fd5b6116db6126ff565b80516116ee906049906020840190613599565b5050565b6000818152600260205260408120546001600160a01b031680610dd85760405162461bcd60e51b8152602060048201526018602482015277115490cdcc8c4e881a5b9d985b1a59081d1bdad95b88125160421b6044820152606401611001565b61175a6126ff565b6001600160a01b03166000908152604d60205260409020805460ff19166001179055565b6045546001600160a01b031633146117ec5760405162461bcd60e51b815260206004820152602b60248201527f4769726c3a206f6e6c79206d6f6f6e73746f6e652063616e207570677261646560448201526a2067616d657273636f726560a81b6064820152608401611001565b6000828152600c6020908152604080832054600b9092529182902054604854925163b3c9524b60e01b815260048101869052919290916001600160a01b039091169063b3c9524b90602401600060405180830381600087803b15801561185157600080fd5b505af1158015611865573d6000803e3d6000fd5b505050506118738484612a5f565b604854604051632d7f86bb60e11b81526004810186905260248101849052604481018390526001600160a01b0390911690635aff0d7690606401600060405180830381600087803b1580156118c757600080fd5b505af11580156118db573d6000803e3d6000fd5b50505050604660009054906101000a90046001600160a01b03166001600160a01b03166355f72b7b6040518163ffffffff1660e01b8152600401602060405180830381600087803b15801561192f57600080fd5b505af1158015611943573d6000803e3d6000fd5b505050506040513d601f19601f82011682018060405250810190611967919061382d565b5050505050565b336000908152604d602052604090205460ff166119c65760405162461bcd60e51b815260206004820152601660248201527511da5c9b0e881bdb9b1e481154c818d85b8818d85b1b60521b6044820152606401611001565b6000828152600c6020908152604080832054600b9092529182902054604854925163b3c9524b60e01b815260048101869052919290916001600160a01b039091169063b3c9524b90602401600060405180830381600087803b158015611a2b57600080fd5b505af1158015611a3f573d6000803e3d6000fd5b505050506118738484612aa7565b60006001600160a01b038216611ab75760405162461bcd60e51b815260206004820152602960248201527f4552433732313a2061646472657373207a65726f206973206e6f7420612076616044820152683634b21037bbb732b960b91b6064820152608401611001565b506001600160a01b031660009081526003602052604090205490565b611adb6126ff565b611ae56000612aef565b565b6060600f54821115611b3b5760405162461bcd60e51b815260206004820152601f60248201527f557067726164653a204d617820636f736d6963206c6576656c206973203130006044820152606401611001565b6000838152600b6020526040902054600f548110611ba55760405162461bcd60e51b815260206004820152602160248201527f557067726164653a20636f736d6963206c6576656c20616c7265616479206d616044820152600f60fb1b6064820152608401611001565b6000848152600d602052604080822054815160038082526080820190935290929181602001602082028036833701905050905060008080611be7866001613b72565b90505b878111611c7357602a611bfe600183613bc9565b600a8110611c1c57634e487b7160e01b600052603260045260246000fd5b0154611c289084613b72565b92506034611c37600183613bc9565b600a8110611c5557634e487b7160e01b600052603260045260246000fd5b0154611c619083613b72565b9150611c6c81613c47565b9050611bea565b508183611c81600187613bc9565b81518110611c9f57634e487b7160e01b600052603260045260246000fd5b60200260200101818152505060005b8351811015611d2557838181518110611cd757634e487b7160e01b600052603260045260246000fd5b602002602001015160001415611d155781848281518110611d0857634e487b7160e01b600052603260045260246000fd5b6020026020010181815250505b611d1e81613c47565b9050611cae565b5091979650505050505050565b611d3a6126ff565b604580546001600160a01b0319166001600160a01b0392909216919091179055565b601081601a8110611d6c57600080fd5b0154905081565b611d7b6126ff565b604680546001600160a01b0319166001600160a01b0392909216919091179055565b606060018054610ded90613c0c565b611db46126ff565b6000828152600d602090815260409182902083905581518481529081018390527fe9d2aa95a8bcda1481b0316470d5993a8d561039f5db3f8222f8d526e03c0a1b91015b60405180910390a15050565b6116ee338383612b41565b611e176126ff565b604780546001600160a01b0319166001600160a01b0392909216919091179055565b611e4333836127c7565b611e5f5760405162461bcd60e51b815260040161100190613b21565b611e6b84848484612c10565b60475460405163add058fd60e01b8152600481018490526001600160a01b039091169063add058fd90602401600060405180830381600087803b158015611eb157600080fd5b505af1158015611ec5573d6000803e3d6000fd5b5050505050505050565b611ed76126ff565b6001600160a01b03919091166000908152604f60205260409020805460ff1916911515919091179055565b6000600e54821115611f565760405162461bcd60e51b815260206004820152601e60248201527f557067726164653a204d61782073636f7265206973206c6576656c20323500006044820152606401611001565b6000838152600c6020526040902054600e548110611fb65760405162461bcd60e51b815260206004820152601f60248201527f557067726164653a204769726c20616c7265616479206d6178206c6576656c006044820152606401611001565b6000815b84811161200257601081601a8110611fe257634e487b7160e01b600052603260045260246000fd5b0154611fee9083613b72565b915080611ffa81613c47565b915050611fba565b50949350505050565b603481600a8110611d6c57600080fd5b6000818152600260205260409020546060906001600160a01b031661209a5760405162461bcd60e51b815260206004820152602f60248201527f4552433732314d657461646174613a2055524920717565727920666f72206e6f60448201526e3732bc34b9ba32b73a103a37b5b2b760891b6064820152608401611001565b60006120a4612c49565b905060008151116120c45760405180602001604052806000815250611359565b806120ce84612c58565b6040516020016120df9291906139c7565b6040516020818303038152906040529392505050565b33600061210160085490565b90506000612110826001613b72565b9050600060018510158015612126575060058511155b6121725760405162461bcd60e51b815260206004820152601860248201527f4769726c3a20616d6f756e74203120746f2035206f6e6c7900000000000000006044820152606401611001565b604a5461217f8685613b72565b11156121be5760405162461bcd60e51b815260206004820152600e60248201526d11da5c9b0e881cdbdb19081bdd5d60921b6044820152606401611001565b861561250d57603e546040516331a9108f60e11b8152600481018890526001600160a01b03868116921690636352211e9060240160206040518083038186803b15801561220a57600080fd5b505afa15801561221e573d6000803e3d6000fd5b505050506040513d601f19601f8201168201806040525081019061224291906136c4565b6001600160a01b03161461228e5760405162461bcd60e51b815260206004820152601360248201527223b4b9361d103737ba1037b9311037bbb732b960691b6044820152606401611001565b6122978661265f565b8511156122e65760405162461bcd60e51b815260206004820152601f60248201527f4769726c3a20616d6f756e74206d757374206265203c3d2063686172676573006044820152606401611001565b846122ef6110b8565b6122f99190613baa565b3410156123435760405162461bcd60e51b81526020600482015260186024820152774769726c3a2073656e6420636f727265637420707269636560401b6044820152606401611001565b60005b858110156125075761235787612cfb565b91508160061461249a57603e546040516323b872dd60e01b81526001600160a01b038781166004830152306024830152604482018a9052909116906323b872dd90606401600060405180830381600087803b1580156123b557600080fd5b505af11580156123c9573d6000803e3d6000fd5b5050603e546040516331a9108f60e11b8152600481018b90523093506001600160a01b039091169150636352211e9060240160206040518083038186803b15801561241357600080fd5b505afa158015612427573d6000803e3d6000fd5b505050506040513d601f19601f8201168201806040525081019061244b91906136c4565b6001600160a01b03161461249a5760405162461bcd60e51b815260206004820152601660248201527511da5c9b0e881bdc98881b9bdd081c9958da595d995960521b6044820152606401611001565b6124ad856124a88386613b72565b612e06565b818815156124bb8386613b72565b6040516001600160a01b03891681527f1f1fc7f871c5573b0f1fde9f6e1f67d93527049f30fde62e53af0333b35839229060200160405180910390a461250081613c47565b9050612346565b50611190565b8460405461251b9190613baa565b3410156125655760405162461bcd60e51b81526020600482015260186024820152774769726c3a2073656e6420636f727265637420707269636560401b6044820152606401611001565b60005b85811015611ec55761257e856124a88386613b72565b600688151561258d8386613b72565b6040516001600160a01b03891681527f1f1fc7f871c5573b0f1fde9f6e1f67d93527049f30fde62e53af0333b35839229060200160405180910390a46125d281613c47565b9050612568565b6125e16126ff565b6001600160a01b0381166126465760405162461bcd60e51b815260206004820152602660248201527f4f776e61626c653a206e6577206f776e657220697320746865207a65726f206160448201526564647265737360d01b6064820152608401611001565b6111cc81612aef565b602a81600a8110611d6c57600080fd5b600081815260446020526040812054604254610dd89190613bc9565b60006001600160e01b0319821663780e9d6360e01b1480610dd85750610dd882612e20565b6000818152600260205260409020546001600160a01b03166111cc5760405162461bcd60e51b8152602060048201526018602482015277115490cdcc8c4e881a5b9d985b1a59081d1bdad95b88125160421b6044820152606401611001565b600a546001600160a01b03163314611ae55760405162461bcd60e51b815260206004820181905260248201527f4f776e61626c653a2063616c6c6572206973206e6f7420746865206f776e65726044820152606401611001565b600081815260046020526040902080546001600160a01b0319166001600160a01b038416908117909155819061278e826116f2565b6001600160a01b03167f8c5be1e5ebec7d5bd14f71427d1e84f3dd0314c0f7b2291e5b200ac8c7c3b92560405160405180910390a45050565b6000806127d3836116f2565b9050806001600160a01b0316846001600160a01b0316148061281a57506001600160a01b0380821660009081526005602090815260408083209388168352929052205460ff165b806110b05750836001600160a01b031661283384610e70565b6001600160a01b031614949350505050565b826001600160a01b0316612858826116f2565b6001600160a01b03161461287e5760405162461bcd60e51b815260040161100190613adc565b6001600160a01b0382166128e05760405162461bcd60e51b8152602060048201526024808201527f4552433732313a207472616e7366657220746f20746865207a65726f206164646044820152637265737360e01b6064820152608401611001565b6128ed8383836001612e70565b826001600160a01b0316612900826116f2565b6001600160a01b0316146129265760405162461bcd60e51b815260040161100190613adc565b600081815260046020908152604080832080546001600160a01b03199081169091556001600160a01b0387811680865260038552838620805460001901905590871680865283862080546001019055868652600290945282852080549092168417909155905184937fddf252ad1be2c89b69c2b068fc378daa952ba7f163c4a11628f55a4df523b3ef91a4505050565b6001600160a01b038116612a215760405162461bcd60e51b815260206004820152602c60248201527f526f79616c746965733a206e657720726563697069656e74206973207468652060448201526b7a65726f206164647265737360a01b6064820152608401611001565b604c80546001600160a01b0319166001600160a01b0392909216919091179055565b6000606460435483612a559190613baa565b610dd89190613b8a565b6000828152600c602090815260409182902083905581518481529081018390527f866cfb7bcf22266717dccfb6e13d4a8aaf393c0bc2c147cf9df1b747e00370029101611df8565b6000828152600b602090815260409182902083905581518481529081018390527f56bd88bf537c8134d681abc094b975697025d38f1a7e20c408f3b5e6b4df40b79101611df8565b600a80546001600160a01b038381166001600160a01b0319831681179093556040519116919082907f8be0079c531659141344cd1fd0a4f28419497f9722a3daafe3b4186f6b6457e090600090a35050565b816001600160a01b0316836001600160a01b03161415612ba35760405162461bcd60e51b815260206004820152601960248201527f4552433732313a20617070726f766520746f2063616c6c6572000000000000006044820152606401611001565b6001600160a01b03838116600081815260056020908152604080832094871680845294825291829020805460ff191686151590811790915591519182527f17307eab39ab6107e8899845ad3d59bd9653f200f220920489ca2b5937696c31910160405180910390a3505050565b612c1b848484612845565b612c2784848484612fa9565b612c435760405162461bcd60e51b815260040161100190613a8a565b50505050565b606060498054610ded90613c0c565b60606000612c65836130b3565b600101905060008167ffffffffffffffff811115612c9357634e487b7160e01b600052604160045260246000fd5b6040519080825280601f01601f191660200182016040528015612cbd576020820181803683370190505b5090508181016020015b600019016f181899199a1a9b1b9c1cb0b131b232b360811b600a86061a8153600a8504945084612cf657611590565b612cc7565b600081815260446020526040812054600511612d505760405162461bcd60e51b81526020600482015260146024820152734769726c3a206f7574206f66206368617267657360601b6044820152606401611001565b60008281526044602052604081208054909190612d6c90613c47565b9091555060008281526044602052604090205460069060051415610dd857603f54604051634875869760e01b8152600481018590526001600160a01b039091169063487586979060240160206040518083038186803b158015612dce57600080fd5b505afa158015612de2573d6000803e3d6000fd5b505050506040513d601f19601f820116820180604052508101906113599190613913565b6116ee82826040518060200160405280600081525061318b565b60006001600160e01b031982166380ac58cd60e01b1480612e5157506001600160e01b03198216635b5e139f60e01b145b80610dd857506301ffc9a760e01b6001600160e01b0319831614610dd8565b612e7c848484846131be565b6001811115612eeb5760405162461bcd60e51b815260206004820152603560248201527f455243373231456e756d657261626c653a20636f6e7365637574697665207472604482015274185b9cd9995c9cc81b9bdd081cdd5c1c1bdc9d1959605a1b6064820152608401611001565b816001600160a01b038516612f4757612f4281600880546000838152600960205260408120829055600182018355919091527ff3f7a9fe364faab93b216da50a3214154f22a0a2b415b23a84c8169e8b636ee30155565b612f6a565b836001600160a01b0316856001600160a01b031614612f6a57612f6a8582613246565b6001600160a01b038416612f8657612f81816132e3565b611967565b846001600160a01b0316846001600160a01b0316146119675761196784826133bc565b60006001600160a01b0384163b156130ab57604051630a85bd0160e11b81526001600160a01b0385169063150b7a0290612fed9033908990889088906004016139f6565b602060405180830381600087803b15801561300757600080fd5b505af1925050508015613037575060408051601f3d908101601f1916820190925261303491810190613899565b60015b613091573d808015613065576040519150601f19603f3d011682016040523d82523d6000602084013e61306a565b606091505b5080516130895760405162461bcd60e51b815260040161100190613a8a565b805181602001fd5b6001600160e01b031916630a85bd0160e11b1490506110b0565b5060016110b0565b60008072184f03e93ff9f4daa797ed6e38ed64bf6a1f0160401b83106130f25772184f03e93ff9f4daa797ed6e38ed64bf6a1f0160401b830492506040015b6d04ee2d6d415b85acef8100000000831061311e576d04ee2d6d415b85acef8100000000830492506020015b662386f26fc10000831061313c57662386f26fc10000830492506010015b6305f5e1008310613154576305f5e100830492506008015b612710831061316857612710830492506004015b6064831061317a576064830492506002015b600a8310610dd85760010192915050565b6131958383613400565b6131a26000848484612fa9565b6110a25760405162461bcd60e51b815260040161100190613a8a565b6001811115612c43576001600160a01b03841615613204576001600160a01b038416600090815260036020526040812080548392906131fe908490613bc9565b90915550505b6001600160a01b03831615612c43576001600160a01b0383166000908152600360205260408120805483929061323b908490613b72565b909155505050505050565b6000600161325384611a4d565b61325d9190613bc9565b6000838152600760205260409020549091508082146132b0576001600160a01b03841660009081526006602090815260408083208584528252808320548484528184208190558352600790915290208190555b5060009182526007602090815260408084208490556001600160a01b039094168352600681528383209183525290812055565b6008546000906132f590600190613bc9565b6000838152600960205260408120546008805493945090928490811061332b57634e487b7160e01b600052603260045260246000fd5b90600052602060002001549050806008838154811061335a57634e487b7160e01b600052603260045260246000fd5b60009182526020808320909101929092558281526009909152604080822084905585825281205560088054806133a057634e487b7160e01b600052603160045260246000fd5b6001900381819060005260206000200160009055905550505050565b60006133c783611a4d565b6001600160a01b039093166000908152600660209081526040808320868452825280832085905593825260079052919091209190915550565b6001600160a01b0382166134565760405162461bcd60e51b815260206004820181905260248201527f4552433732313a206d696e7420746f20746865207a65726f20616464726573736044820152606401611001565b6000818152600260205260409020546001600160a01b0316156134bb5760405162461bcd60e51b815260206004820152601c60248201527f4552433732313a20746f6b656e20616c7265616479206d696e746564000000006044820152606401611001565b6134c9600083836001612e70565b6000818152600260205260409020546001600160a01b03161561352e5760405162461bcd60e51b815260206004820152601c60248201527f4552433732313a20746f6b656e20616c7265616479206d696e746564000000006044820152606401611001565b6001600160a01b038216600081815260036020908152604080832080546001019055848352600290915280822080546001600160a01b0319168417905551839291907fddf252ad1be2c89b69c2b068fc378daa952ba7f163c4a11628f55a4df523b3ef908290a45050565b8280546135a590613c0c565b90600052602060002090601f0160209004810192826135c7576000855561360d565b82601f106135e057805160ff191683800117855561360d565b8280016001018555821561360d579182015b8281111561360d5782518255916020019190600101906135f2565b5061361992915061361d565b5090565b5b80821115613619576000815560010161361e565b600067ffffffffffffffff8084111561364d5761364d613c78565b604051601f8501601f19908116603f0116810190828211818310171561367557613675613c78565b8160405280935085815286868601111561368e57600080fd5b858560208301376000602087830101525050509392505050565b6000602082840312156136b9578081fd5b813561135981613c8e565b6000602082840312156136d5578081fd5b815161135981613c8e565b600080604083850312156136f2578081fd5b82356136fd81613c8e565b9150602083013561370d81613c8e565b809150509250929050565b60008060006060848603121561372c578081fd5b833561373781613c8e565b9250602084013561374781613c8e565b929592945050506040919091013590565b6000806000806080858703121561376d578081fd5b843561377881613c8e565b9350602085013561378881613c8e565b925060408501359150606085013567ffffffffffffffff8111156137aa578182fd5b8501601f810187136137ba578182fd5b6137c987823560208401613632565b91505092959194509250565b600080604083850312156137e7578182fd5b82356137f281613c8e565b9150602083013561370d81613ca3565b60008060408385031215613814578182fd5b823561381f81613c8e565b946020939093013593505050565b60006020828403121561383e578081fd5b815161135981613ca3565b60008060006060848603121561385d578283fd5b833561386881613ca3565b95602085013595506040909401359392505050565b60006020828403121561388e578081fd5b813561135981613cb1565b6000602082840312156138aa578081fd5b815161135981613cb1565b6000602082840312156138c6578081fd5b813567ffffffffffffffff8111156138dc578182fd5b8201601f810184136138ec578182fd5b6110b084823560208401613632565b60006020828403121561390c578081fd5b5035919050565b600060208284031215613924578081fd5b5051919050565b6000806040838503121561393d578182fd5b82359150602083013561370d81613ca3565b60008060408385031215613961578182fd5b50508035926020909101359150565b600080600060608486031215613984578081fd5b505081359360208301359350604090920135919050565b600081518084526139b3816020860160208601613be0565b601f01601f19169290920160200192915050565b600083516139d9818460208801613be0565b8351908301906139ed818360208801613be0565b01949350505050565b6001600160a01b0385811682528416602082015260408101839052608060608201819052600090613a299083018461399b565b9695505050505050565b6020808252825182820181905260009190848201906040850190845b81811015613a6b57835183529284019291840191600101613a4f565b50909695505050505050565b602081526000611359602083018461399b565b60208082526032908201527f4552433732313a207472616e7366657220746f206e6f6e20455243373231526560408201527131b2b4bb32b91034b6b83632b6b2b73a32b960711b606082015260800190565b60208082526025908201527f4552433732313a207472616e736665722066726f6d20696e636f72726563742060408201526437bbb732b960d91b606082015260800190565b60208082526031908201527f4552433732313a207472616e736665722063616c6c6572206973206e6f74206f6040820152701ddb995c881b9bdc88185c1c1c9bdd9959607a1b606082015260800190565b60008219821115613b8557613b85613c62565b500190565b600082613ba557634e487b7160e01b81526012600452602481fd5b500490565b6000816000190483118215151615613bc457613bc4613c62565b500290565b600082821015613bdb57613bdb613c62565b500390565b60005b83811015613bfb578181015183820152602001613be3565b83811115612c435750506000910152565b600181811c90821680613c2057607f821691505b60208210811415613c4157634e487b7160e01b600052602260045260246000fd5b50919050565b6000600019821415613c5b57613c5b613c62565b5060010190565b634e487b7160e01b600052601160045260246000fd5b634e487b7160e01b600052604160045260246000fd5b6001600160a01b03811681146111cc57600080fd5b80151581146111cc57600080fd5b6001600160e01b0319811681146111cc57600080fdfea2646970667358221220c9d12187e862958ff8f2f558892d88ba29577ea3e3a3ef87a831894d2e7357e564736f6c63430008040033",
  "linkReferences": {},
  "deployedLinkReferences": {}
}