{
  "_format": "hh-sol-artifact-1",
  "contractName": "Girl",
  "sourceName": "contracts/Girl/Girl.sol",
  "abi": [
    {
      "inputs": [
        {
          "internalType": "string",
          "name": "_initBaseURI",
          "type": "string"
        },
        {
          "internalType": "address",
          "name": "_orb",
          "type": "address"
        },
        {
          "internalType": "address",
          "name": "_orbRarity",
          "type": "address"
        },
        {
          "internalType": "address",
          "name": "_emissions",
          "type": "address"
        },
        {
          "internalType": "address payable",
          "name": "_dev",
          "type": "address"
        }
      ],
      "stateMutability": "nonpayable",
      "type": "constructor"
    },
    {
      "anonymous": false,
      "inputs": [
        {
          "indexed": true,
          "internalType": "address",
          "name": "owner",
          "type": "address"
        },
        {
          "indexed": true,
          "internalType": "address",
          "name": "approved",
          "type": "address"
        },
        {
          "indexed": true,
          "internalType": "uint256",
          "name": "tokenId",
          "type": "uint256"
        }
      ],
      "name": "Approval",
      "type": "event"
    },
    {
      "anonymous": false,
      "inputs": [
        {
          "indexed": true,
          "internalType": "address",
          "name": "owner",
          "type": "address"
        },
        {
          "indexed": true,
          "internalType": "address",
          "name": "operator",
          "type": "address"
        },
        {
          "indexed": false,
          "internalType": "bool",
          "name": "approved",
          "type": "bool"
        }
      ],
      "name": "ApprovalForAll",
      "type": "event"
    },
    {
      "anonymous": false,
      "inputs": [
        {
          "indexed": false,
          "internalType": "uint256",
          "name": "id",
          "type": "uint256"
        },
        {
          "indexed": false,
          "internalType": "uint256",
          "name": "newLevel",
          "type": "uint256"
        }
      ],
      "name": "CosmicLevelChanged",
      "type": "event"
    },
    {
      "anonymous": false,
      "inputs": [
        {
          "indexed": false,
          "internalType": "uint256",
          "name": "id",
          "type": "uint256"
        },
        {
          "indexed": false,
          "internalType": "uint256",
          "name": "element",
          "type": "uint256"
        }
      ],
      "name": "ElementChanged",
      "type": "event"
    },
    {
      "anonymous": false,
      "inputs": [
        {
          "indexed": false,
          "internalType": "uint256",
          "name": "id",
          "type": "uint256"
        },
        {
          "indexed": false,
          "internalType": "uint256",
          "name": "newScore",
          "type": "uint256"
        }
      ],
      "name": "GamerScoreChanged",
      "type": "event"
    },
    {
      "anonymous": false,
      "inputs": [
        {
          "indexed": false,
          "internalType": "address",
          "name": "minter",
          "type": "address"
        },
        {
          "indexed": true,
          "internalType": "uint256",
          "name": "id",
          "type": "uint256"
        },
        {
          "indexed": true,
          "internalType": "bool",
          "name": "usingOrb",
          "type": "bool"
        },
        {
          "indexed": true,
          "internalType": "uint256",
          "name": "rarity",
          "type": "uint256"
        }
      ],
      "name": "GirlMinted",
      "type": "event"
    },
    {
      "anonymous": false,
      "inputs": [
        {
          "indexed": true,
          "internalType": "address",
          "name": "previousOwner",
          "type": "address"
        },
        {
          "indexed": true,
          "internalType": "address",
          "name": "newOwner",
          "type": "address"
        }
      ],
      "name": "OwnershipTransferred",
      "type": "event"
    },
    {
      "anonymous": false,
      "inputs": [
        {
          "indexed": false,
          "internalType": "uint256",
          "name": "id",
          "type": "uint256"
        },
        {
          "indexed": false,
          "internalType": "uint256",
          "name": "cl",
          "type": "uint256"
        },
        {
          "indexed": false,
          "internalType": "uint256",
          "name": "el",
          "type": "uint256"
        }
      ],
      "name": "StatsInitialized",
      "type": "event"
    },
    {
      "anonymous": false,
      "inputs": [
        {
          "indexed": true,
          "internalType": "address",
          "name": "from",
          "type": "address"
        },
        {
          "indexed": true,
          "internalType": "address",
          "name": "to",
          "type": "address"
        },
        {
          "indexed": true,
          "internalType": "uint256",
          "name": "tokenId",
          "type": "uint256"
        }
      ],
      "name": "Transfer",
      "type": "event"
    },
    {
      "inputs": [],
      "name": "INTERFACE_ID_ERC2981",
      "outputs": [
        {
          "internalType": "bytes4",
          "name": "",
          "type": "bytes4"
        }
      ],
      "stateMutability": "view",
      "type": "function"
    },
    {
      "inputs": [
        {
          "internalType": "address",
          "name": "to",
          "type": "address"
        },
        {
          "internalType": "uint256",
          "name": "tokenId",
          "type": "uint256"
        }
      ],
      "name": "approve",
      "outputs": [],
      "stateMutability": "nonpayable",
      "type": "function"
    },
    {
      "inputs": [],
      "name": "attunement",
      "outputs": [
        {
          "internalType": "contract IAttunement",
          "name": "",
          "type": "address"
        }
      ],
      "stateMutability": "view",
      "type": "function"
    },
    {
      "inputs": [
        {
          "internalType": "address",
          "name": "owner",
          "type": "address"
        }
      ],
      "name": "balanceOf",
      "outputs": [
        {
          "internalType": "uint256",
          "name": "",
          "type": "uint256"
        }
      ],
      "stateMutability": "view",
      "type": "function"
    },
    {
      "inputs": [
        {
          "internalType": "uint256",
          "name": "id",
          "type": "uint256"
        },
        {
          "internalType": "uint256",
          "name": "toTier",
          "type": "uint256"
        }
      ],
      "name": "calcCosmicLevelUpgradeCost",
      "outputs": [
        {
          "internalType": "uint256[]",
          "name": "",
          "type": "uint256[]"
        }
      ],
      "stateMutability": "view",
      "type": "function"
    },
    {
      "inputs": [
        {
          "internalType": "uint256",
          "name": "id",
          "type": "uint256"
        },
        {
          "internalType": "uint256",
          "name": "toTier",
          "type": "uint256"
        }
      ],
      "name": "calcGamerScoreUpgradeCost",
      "outputs": [
        {
          "internalType": "uint256",
          "name": "",
          "type": "uint256"
        }
      ],
      "stateMutability": "view",
      "type": "function"
    },
    {
      "inputs": [],
      "name": "charges",
      "outputs": [
        {
          "internalType": "uint256",
          "name": "",
          "type": "uint256"
        }
      ],
      "stateMutability": "view",
      "type": "function"
    },
    {
      "inputs": [
        {
          "internalType": "uint256",
          "name": "",
          "type": "uint256"
        }
      ],
      "name": "chargesUsed",
      "outputs": [
        {
          "internalType": "uint256",
          "name": "",
          "type": "uint256"
        }
      ],
      "stateMutability": "view",
      "type": "function"
    },
    {
      "inputs": [
        {
          "internalType": "uint256",
          "name": "girlId",
          "type": "uint256"
        }
      ],
      "name": "checkStake",
      "outputs": [
        {
          "internalType": "address",
          "name": "",
          "type": "address"
        },
        {
          "internalType": "bool",
          "name": "",
          "type": "bool"
        },
        {
          "internalType": "uint256",
          "name": "",
          "type": "uint256"
        }
      ],
      "stateMutability": "view",
      "type": "function"
    },
    {
      "inputs": [
        {
          "internalType": "uint256",
          "name": "",
          "type": "uint256"
        }
      ],
      "name": "cosmicLevel",
      "outputs": [
        {
          "internalType": "uint256",
          "name": "",
          "type": "uint256"
        }
      ],
      "stateMutability": "view",
      "type": "function"
    },
    {
      "inputs": [
        {
          "internalType": "uint256",
          "name": "",
          "type": "uint256"
        }
      ],
      "name": "element",
      "outputs": [
        {
          "internalType": "uint256",
          "name": "",
          "type": "uint256"
        }
      ],
      "stateMutability": "view",
      "type": "function"
    },
    {
      "inputs": [],
      "name": "emissions",
      "outputs": [
        {
          "internalType": "contract IEmissions",
          "name": "",
          "type": "address"
        }
      ],
      "stateMutability": "view",
      "type": "function"
    },
    {
      "inputs": [
        {
          "internalType": "uint256",
          "name": "",
          "type": "uint256"
        }
      ],
      "name": "gamerScore",
      "outputs": [
        {
          "internalType": "uint256",
          "name": "",
          "type": "uint256"
        }
      ],
      "stateMutability": "view",
      "type": "function"
    },
    {
      "inputs": [
        {
          "internalType": "uint256",
          "name": "tokenId",
          "type": "uint256"
        }
      ],
      "name": "getApproved",
      "outputs": [
        {
          "internalType": "address",
          "name": "",
          "type": "address"
        }
      ],
      "stateMutability": "view",
      "type": "function"
    },
    {
      "inputs": [
        {
          "internalType": "uint256",
          "name": "id",
          "type": "uint256"
        }
      ],
      "name": "getChargesRemaining",
      "outputs": [
        {
          "internalType": "uint256",
          "name": "",
          "type": "uint256"
        }
      ],
      "stateMutability": "view",
      "type": "function"
    },
    {
      "inputs": [
        {
          "internalType": "uint256",
          "name": "_id",
          "type": "uint256"
        }
      ],
      "name": "getCosmicLevel",
      "outputs": [
        {
          "internalType": "uint256",
          "name": "",
          "type": "uint256"
        }
      ],
      "stateMutability": "view",
      "type": "function"
    },
    {
      "inputs": [
        {
          "internalType": "uint256",
          "name": "id",
          "type": "uint256"
        },
        {
          "internalType": "uint256",
          "name": "toTier",
          "type": "uint256"
        }
      ],
      "name": "getCosmicLevelUpgradeCost",
      "outputs": [
        {
          "internalType": "uint256[]",
          "name": "",
          "type": "uint256[]"
        }
      ],
      "stateMutability": "view",
      "type": "function"
    },
    {
      "inputs": [],
      "name": "getCost",
      "outputs": [
        {
          "internalType": "uint256",
          "name": "",
          "type": "uint256"
        }
      ],
      "stateMutability": "view",
      "type": "function"
    },
    {
      "inputs": [],
      "name": "getDiscountCost",
      "outputs": [
        {
          "internalType": "uint256",
          "name": "",
          "type": "uint256"
        }
      ],
      "stateMutability": "view",
      "type": "function"
    },
    {
      "inputs": [
        {
          "internalType": "uint256",
          "name": "_id",
          "type": "uint256"
        }
      ],
      "name": "getElement",
      "outputs": [
        {
          "internalType": "uint256",
          "name": "",
          "type": "uint256"
        }
      ],
      "stateMutability": "view",
      "type": "function"
    },
    {
      "inputs": [
        {
          "internalType": "uint256",
          "name": "_id",
          "type": "uint256"
        }
      ],
      "name": "getGamerScore",
      "outputs": [
        {
          "internalType": "uint256",
          "name": "",
          "type": "uint256"
        }
      ],
      "stateMutability": "view",
      "type": "function"
    },
    {
      "inputs": [
        {
          "internalType": "uint256",
          "name": "id",
          "type": "uint256"
        },
        {
          "internalType": "uint256",
          "name": "toTier",
          "type": "uint256"
        }
      ],
      "name": "getGamerScoreUpgradeCost",
      "outputs": [
        {
          "internalType": "uint256",
          "name": "cost",
          "type": "uint256"
        }
      ],
      "stateMutability": "view",
      "type": "function"
    },
    {
      "inputs": [
        {
          "internalType": "uint256",
          "name": "",
          "type": "uint256"
        }
      ],
      "name": "gsUpgradeCosts",
      "outputs": [
        {
          "internalType": "uint256",
          "name": "",
          "type": "uint256"
        }
      ],
      "stateMutability": "view",
      "type": "function"
    },
    {
      "inputs": [
        {
          "internalType": "uint256",
          "name": "id",
          "type": "uint256"
        },
        {
          "internalType": "uint256",
          "name": "toTier",
          "type": "uint256"
        }
      ],
      "name": "handleUpgradeCosmicLevel",
      "outputs": [],
      "stateMutability": "nonpayable",
      "type": "function"
    },
    {
      "inputs": [
        {
          "internalType": "uint256",
          "name": "id",
          "type": "uint256"
        },
        {
          "internalType": "uint256",
          "name": "toTier",
          "type": "uint256"
        }
      ],
      "name": "handleUpgradeGamerScore",
      "outputs": [],
      "stateMutability": "nonpayable",
      "type": "function"
    },
    {
      "inputs": [
        {
          "internalType": "uint256",
          "name": "id",
          "type": "uint256"
        },
        {
          "internalType": "uint256",
          "name": "cl",
          "type": "uint256"
        },
        {
          "internalType": "uint256",
          "name": "el",
          "type": "uint256"
        }
      ],
      "name": "initStats",
      "outputs": [],
      "stateMutability": "nonpayable",
      "type": "function"
    },
    {
      "inputs": [
        {
          "internalType": "address",
          "name": "owner",
          "type": "address"
        },
        {
          "internalType": "address",
          "name": "operator",
          "type": "address"
        }
      ],
      "name": "isApprovedForAll",
      "outputs": [
        {
          "internalType": "bool",
          "name": "",
          "type": "bool"
        }
      ],
      "stateMutability": "view",
      "type": "function"
    },
    {
      "inputs": [
        {
          "internalType": "address",
          "name": "",
          "type": "address"
        }
      ],
      "name": "isElementalStone",
      "outputs": [
        {
          "internalType": "bool",
          "name": "",
          "type": "bool"
        }
      ],
      "stateMutability": "view",
      "type": "function"
    },
    {
      "inputs": [
        {
          "internalType": "uint256",
          "name": "girlId",
          "type": "uint256"
        }
      ],
      "name": "isPaired",
      "outputs": [
        {
          "internalType": "bool",
          "name": "",
          "type": "bool"
        }
      ],
      "stateMutability": "view",
      "type": "function"
    },
    {
      "inputs": [
        {
          "internalType": "uint256",
          "name": "",
          "type": "uint256"
        }
      ],
      "name": "matchedElementCosts",
      "outputs": [
        {
          "internalType": "uint256",
          "name": "",
          "type": "uint256"
        }
      ],
      "stateMutability": "view",
      "type": "function"
    },
    {
      "inputs": [
        {
          "internalType": "bool",
          "name": "usingOrb",
          "type": "bool"
        },
        {
          "internalType": "uint256",
          "name": "orbId",
          "type": "uint256"
        }
      ],
      "name": "mint",
      "outputs": [],
      "stateMutability": "payable",
      "type": "function"
    },
    {
      "inputs": [],
      "name": "moonstone",
      "outputs": [
        {
          "internalType": "contract IERC20",
          "name": "",
          "type": "address"
        }
      ],
      "stateMutability": "view",
      "type": "function"
    },
    {
      "inputs": [],
      "name": "name",
      "outputs": [
        {
          "internalType": "string",
          "name": "",
          "type": "string"
        }
      ],
      "stateMutability": "view",
      "type": "function"
    },
    {
      "inputs": [
        {
          "internalType": "address",
          "name": "",
          "type": "address"
        },
        {
          "internalType": "address",
          "name": "",
          "type": "address"
        },
        {
          "internalType": "uint256",
          "name": "",
          "type": "uint256"
        },
        {
          "internalType": "bytes",
          "name": "",
          "type": "bytes"
        }
      ],
      "name": "onERC721Received",
      "outputs": [
        {
          "internalType": "bytes4",
          "name": "",
          "type": "bytes4"
        }
      ],
      "stateMutability": "nonpayable",
      "type": "function"
    },
    {
      "inputs": [],
      "name": "orb",
      "outputs": [
        {
          "internalType": "contract IERC721",
          "name": "",
          "type": "address"
        }
      ],
      "stateMutability": "view",
      "type": "function"
    },
    {
      "inputs": [],
      "name": "orbRarity",
      "outputs": [
        {
          "internalType": "contract IOrbRarity",
          "name": "",
          "type": "address"
        }
      ],
      "stateMutability": "view",
      "type": "function"
    },
    {
      "inputs": [],
      "name": "owner",
      "outputs": [
        {
          "internalType": "address",
          "name": "",
          "type": "address"
        }
      ],
      "stateMutability": "view",
      "type": "function"
    },
    {
      "inputs": [
        {
          "internalType": "uint256",
          "name": "tokenId",
          "type": "uint256"
        }
      ],
      "name": "ownerOf",
      "outputs": [
        {
          "internalType": "address",
          "name": "",
          "type": "address"
        }
      ],
      "stateMutability": "view",
      "type": "function"
    },
    {
      "inputs": [
        {
          "internalType": "uint256",
          "name": "",
          "type": "uint256"
        }
      ],
      "name": "paired",
      "outputs": [
        {
          "internalType": "bool",
          "name": "",
          "type": "bool"
        }
      ],
      "stateMutability": "view",
      "type": "function"
    },
    {
      "inputs": [],
      "name": "renounceOwnership",
      "outputs": [],
      "stateMutability": "nonpayable",
      "type": "function"
    },
    {
      "inputs": [
        {
          "internalType": "uint256",
          "name": "_tokenId",
          "type": "uint256"
        },
        {
          "internalType": "uint256",
          "name": "_salePrice",
          "type": "uint256"
        }
      ],
      "name": "royaltyInfo",
      "outputs": [
        {
          "internalType": "address",
          "name": "receiver",
          "type": "address"
        },
        {
          "internalType": "uint256",
          "name": "royaltyAmount",
          "type": "uint256"
        }
      ],
      "stateMutability": "view",
      "type": "function"
    },
    {
      "inputs": [
        {
          "internalType": "address",
          "name": "from",
          "type": "address"
        },
        {
          "internalType": "address",
          "name": "to",
          "type": "address"
        },
        {
          "internalType": "uint256",
          "name": "tokenId",
          "type": "uint256"
        }
      ],
      "name": "safeTransferFrom",
      "outputs": [],
      "stateMutability": "nonpayable",
      "type": "function"
    },
    {
      "inputs": [
        {
          "internalType": "address",
          "name": "from",
          "type": "address"
        },
        {
          "internalType": "address",
          "name": "to",
          "type": "address"
        },
        {
          "internalType": "uint256",
          "name": "tokenId",
          "type": "uint256"
        },
        {
          "internalType": "bytes",
          "name": "_data",
          "type": "bytes"
        }
      ],
      "name": "safeTransferFrom",
      "outputs": [],
      "stateMutability": "nonpayable",
      "type": "function"
    },
    {
      "inputs": [
        {
          "internalType": "address",
          "name": "operator",
          "type": "address"
        },
        {
          "internalType": "bool",
          "name": "approved",
          "type": "bool"
        }
      ],
      "name": "setApprovalForAll",
      "outputs": [],
      "stateMutability": "nonpayable",
      "type": "function"
    },
    {
      "inputs": [
        {
          "internalType": "address",
          "name": "_a",
          "type": "address"
        }
      ],
      "name": "setAttunementContract",
      "outputs": [],
      "stateMutability": "nonpayable",
      "type": "function"
    },
    {
      "inputs": [
        {
          "internalType": "string",
          "name": "_newBaseURI",
          "type": "string"
        }
      ],
      "name": "setBaseURI",
      "outputs": [],
      "stateMutability": "nonpayable",
      "type": "function"
    },
    {
      "inputs": [
        {
          "internalType": "uint256",
          "name": "_newCost",
          "type": "uint256"
        }
      ],
      "name": "setCost",
      "outputs": [],
      "stateMutability": "nonpayable",
      "type": "function"
    },
    {
      "inputs": [
        {
          "internalType": "uint256",
          "name": "_id",
          "type": "uint256"
        },
        {
          "internalType": "uint256",
          "name": "_newElement",
          "type": "uint256"
        }
      ],
      "name": "setElement",
      "outputs": [],
      "stateMutability": "nonpayable",
      "type": "function"
    },
    {
      "inputs": [
        {
          "internalType": "address",
          "name": "_es",
          "type": "address"
        }
      ],
      "name": "setElementalStoneContract",
      "outputs": [],
      "stateMutability": "nonpayable",
      "type": "function"
    },
    {
      "inputs": [
        {
          "internalType": "address",
          "name": "_e",
          "type": "address"
        }
      ],
      "name": "setEmissions",
      "outputs": [],
      "stateMutability": "nonpayable",
      "type": "function"
    },
    {
      "inputs": [
        {
          "internalType": "address",
          "name": "_moonstone",
          "type": "address"
        }
      ],
      "name": "setMoonstoneContract",
      "outputs": [],
      "stateMutability": "nonpayable",
      "type": "function"
    },
    {
      "inputs": [
        {
          "internalType": "uint256",
          "name": "_id",
          "type": "uint256"
        },
        {
          "internalType": "bool",
          "name": "_paired",
          "type": "bool"
        }
      ],
      "name": "setPaired",
      "outputs": [],
      "stateMutability": "nonpayable",
      "type": "function"
    },
    {
      "inputs": [
        {
          "internalType": "address",
          "name": "newRecipient",
          "type": "address"
        }
      ],
      "name": "setRoyalties",
      "outputs": [],
      "stateMutability": "nonpayable",
      "type": "function"
    },
    {
      "inputs": [
        {
          "internalType": "bool",
          "name": "_isWhitelistPeriod",
          "type": "bool"
        }
      ],
      "name": "setWhitelistPeriod",
      "outputs": [],
      "stateMutability": "nonpayable",
      "type": "function"
    },
    {
      "inputs": [
        {
          "internalType": "bytes4",
          "name": "interfaceId",
          "type": "bytes4"
        }
      ],
      "name": "supportsInterface",
      "outputs": [
        {
          "internalType": "bool",
          "name": "",
          "type": "bool"
        }
      ],
      "stateMutability": "view",
      "type": "function"
    },
    {
      "inputs": [],
      "name": "symbol",
      "outputs": [
        {
          "internalType": "string",
          "name": "",
          "type": "string"
        }
      ],
      "stateMutability": "view",
      "type": "function"
    },
    {
      "inputs": [
        {
          "internalType": "uint256",
          "name": "index",
          "type": "uint256"
        }
      ],
      "name": "tokenByIndex",
      "outputs": [
        {
          "internalType": "uint256",
          "name": "",
          "type": "uint256"
        }
      ],
      "stateMutability": "view",
      "type": "function"
    },
    {
      "inputs": [
        {
          "internalType": "address",
          "name": "owner",
          "type": "address"
        },
        {
          "internalType": "uint256",
          "name": "index",
          "type": "uint256"
        }
      ],
      "name": "tokenOfOwnerByIndex",
      "outputs": [
        {
          "internalType": "uint256",
          "name": "",
          "type": "uint256"
        }
      ],
      "stateMutability": "view",
      "type": "function"
    },
    {
      "inputs": [
        {
          "internalType": "uint256",
          "name": "tokenId",
          "type": "uint256"
        }
      ],
      "name": "tokenURI",
      "outputs": [
        {
          "internalType": "string",
          "name": "",
          "type": "string"
        }
      ],
      "stateMutability": "view",
      "type": "function"
    },
    {
      "inputs": [],
      "name": "totalSupply",
      "outputs": [
        {
          "internalType": "uint256",
          "name": "",
          "type": "uint256"
        }
      ],
      "stateMutability": "view",
      "type": "function"
    },
    {
      "inputs": [
        {
          "internalType": "address",
          "name": "from",
          "type": "address"
        },
        {
          "internalType": "address",
          "name": "to",
          "type": "address"
        },
        {
          "internalType": "uint256",
          "name": "tokenId",
          "type": "uint256"
        }
      ],
      "name": "transferFrom",
      "outputs": [],
      "stateMutability": "nonpayable",
      "type": "function"
    },
    {
      "inputs": [
        {
          "internalType": "address",
          "name": "newOwner",
          "type": "address"
        }
      ],
      "name": "transferOwnership",
      "outputs": [],
      "stateMutability": "nonpayable",
      "type": "function"
    },
    {
      "inputs": [
        {
          "internalType": "uint256",
          "name": "",
          "type": "uint256"
        }
      ],
      "name": "unmatchedElementCosts",
      "outputs": [
        {
          "internalType": "uint256",
          "name": "",
          "type": "uint256"
        }
      ],
      "stateMutability": "view",
      "type": "function"
    },
    {
      "inputs": [
        {
          "internalType": "address",
          "name": "_owner",
          "type": "address"
        }
      ],
      "name": "walletOfOwner",
      "outputs": [
        {
          "internalType": "uint256[]",
          "name": "",
          "type": "uint256[]"
        }
      ],
      "stateMutability": "view",
      "type": "function"
    },
    {
      "inputs": [],
      "name": "whitelistPeriod",
      "outputs": [
        {
          "internalType": "bool",
          "name": "",
          "type": "bool"
        }
      ],
      "stateMutability": "view",
      "type": "function"
    },
    {
      "inputs": [
        {
          "internalType": "address payable",
          "name": "_rest",
          "type": "address"
        }
      ],
      "name": "withdraw",
      "outputs": [],
      "stateMutability": "nonpayable",
      "type": "function"
    }
  ],
  "bytecode": "0x6019600e55600a600f9081556103c060405260006080908152600460a081905260c081905260e05260056101008190526101208190526101408190526101608190526101805260066101a08190526101c05260076101e052600861020081905261022081905261024081905261026052600b6102808190526102a08190526102c052600c6102e08190526103005261032091909152601061034081905261036081905260116103808190526103a052620000bb91601a620003ff565b50604080516101408101825260008152600260208201526003918101829052606081019190915260046080820152600660a0820152600860c0820152600b60e0820152600e61010082015260126101208201526200011e90602a90600a62000447565b506040805161014081018252600080825260208201819052918101919091526001606082015260026080820152600360a0820152600460c0820152600560e0820152600761010082015260096101208201526200018090603490600a62000447565b50605a604155600560425560036043556044805460ff19166001179055611388604a55348015620001b057600080fd5b506040516200403e3803806200403e833981016040819052620001d3916200052d565b604080518082018252600f81526e151bdade5bc815195cdd0811da5c9b608a1b60208083019182528351808501909452600384526254544760e81b90840152815191929162000225916000916200047c565b5080516200023b9060019060208401906200047c565b5050506200025862000252620002dc60201b60201c565b620002e0565b620002638562000332565b603e80546001600160a01b038087166001600160a01b031992831617909255603f8054928616929091169190911790556200029e8262000355565b620002b1674563918244f4000062000381565b604b80546001600160a01b0319166001600160a01b039290921691909117905550620006a392505050565b3390565b600a80546001600160a01b038381166001600160a01b0319831681179093556040519116919082907f8be0079c531659141344cd1fd0a4f28419497f9722a3daafe3b4186f6b6457e090600090a35050565b6200033c6200039e565b8051620003519060499060208401906200047c565b5050565b6200035f6200039e565b604880546001600160a01b0319166001600160a01b0392909216919091179055565b6200038b6200039e565b600081116200039957600080fd5b604055565b600a546001600160a01b03163314620003fd5760405162461bcd60e51b815260206004820181905260248201527f4f776e61626c653a2063616c6c6572206973206e6f7420746865206f776e6572604482015260640160405180910390fd5b565b82601a810192821562000435579160200282015b8281111562000435578251829060ff1690559160200191906001019062000413565b5062000443929150620004f9565b5090565b82600a810192821562000435579160200282018281111562000435578251829060ff1690559160200191906001019062000413565b8280546200048a9062000650565b90600052602060002090601f016020900481019282620004ae576000855562000435565b82601f10620004c957805160ff191683800117855562000435565b8280016001018555821562000435579182015b8281111562000435578251825591602001919060010190620004dc565b5b80821115620004435760008155600101620004fa565b80516001600160a01b03811681146200052857600080fd5b919050565b600080600080600060a0868803121562000545578081fd5b85516001600160401b03808211156200055c578283fd5b818801915088601f83011262000570578283fd5b8151818111156200058557620005856200068d565b604051601f8201601f19908116603f01168101908382118183101715620005b057620005b06200068d565b81604052828152602093508b84848701011115620005cc578586fd5b8591505b82821015620005ef5784820184015181830185015290830190620005d0565b828211156200060057858484830101525b98506200061291505088820162000510565b95505050620006246040870162000510565b9250620006346060870162000510565b9150620006446080870162000510565b90509295509295909350565b600181811c908216806200066557607f821691505b602082108114156200068757634e487b7160e01b600052602260045260246000fd5b50919050565b634e487b7160e01b600052604160045260246000fd5b61398b80620006b36000396000f3fe6080604052600436106103d95760003560e01c8063690d1ca2116101fd578063b060dd8611610118578063dfefc776116100ab578063f2fde38b1161007a578063f2fde38b14610c6f578063f909a9cf14610c8f578063fd79e7ac14610cbc578063ff23d7d314610cdc578063ff91078314610cfc57600080fd5b8063dfefc77614610bd0578063e00cda2614610be3578063e985e9c514610bf9578063f090e00414610c4257600080fd5b8063c3ca39f8116100e7578063c3ca39f814610b43578063c4e2676714610b63578063c87b56dd14610b83578063d066100614610ba357600080fd5b8063b060dd8614610ad9578063b48e665e14610af4578063b88d4fde14610b0e578063bd3e19d414610b2e57600080fd5b8063814e1bb811610190578063a16e72151161015f578063a16e721514610a4c578063a22b36ef14610a6c578063a22cb46514610a99578063a388237d14610ab957600080fd5b8063814e1bb8146109c95780638da5cb5b146109e95780638efab2d514610a0757806395d89b4114610a3757600080fd5b8063715018a6116101cc578063715018a614610954578063733495711461096957806373ae2d78146109895780637a6832a5146109a957600080fd5b8063690d1ca2146108d457806369250220146108f45780636aa5dd711461091457806370a082311461093457600080fd5b80632f745c59116102f857806344a0d68a1161028b57806355f804b31161025a57806355f804b314610827578063562d412f1461084757806358d70d74146108745780635c5ac79a146108945780636352211e146108b457600080fd5b806344a0d68a1461079a57806349af0b94146107ba5780634f6ccce7146107e757806351cff8d91461080757600080fd5b80633f74c596116102c75780633f74c596146106e857806340a3c3381461071557806342842e0e1461075a578063438b63001461077a57600080fd5b80632f745c591461065b5780633a7d22bc1461067b5780633c010930146106a85780633f1ed709146106c857600080fd5b806312cbd705116103705780632267716c1161033f5780632267716c146105bc57806323b872dd146105dc5780632a55205a146105fc5780632a9e63c61461063b57600080fd5b806312cbd7051461051f578063150b7a021461054f57806318160ddd146105885780631c8a76c5146105a757600080fd5b806308e6981e116103ac57806308e6981e1461048f578063095ea7b3146104af5780630b689417146104cf5780630f3b899b146104ff57600080fd5b806301ffc9a7146103de57806306fdde0314610413578063081812fc1461043557806308834ee71461046d575b600080fd5b3480156103ea57600080fd5b506103fe6103f936600461351b565b610d1c565b60405190151581526020015b60405180910390f35b34801561041f57600080fd5b50610428610d47565b60405161040a9190613713565b34801561044157600080fd5b50610455610450366004613599565b610dd9565b6040516001600160a01b03909116815260200161040a565b34801561047957600080fd5b5061048d610488366004613363565b610e00565b005b34801561049b57600080fd5b5061048d6104aa36600461360c565b610e2a565b3480156104bb57600080fd5b5061048d6104ca3660046134bb565b610ef5565b3480156104db57600080fd5b506103fe6104ea366004613599565b6000908152604e602052604090205460ff1690565b34801561050b57600080fd5b50604754610455906001600160a01b031681565b34801561052b57600080fd5b506103fe61053a366004613363565b604d6020526000908152604090205460ff1681565b34801561055b57600080fd5b5061056f61056a366004613413565b611010565b6040516001600160e01b0319909116815260200161040a565b34801561059457600080fd5b506008545b60405190815260200161040a565b3480156105b357600080fd5b50610599611021565b3480156105c857600080fd5b50604854610455906001600160a01b031681565b3480156105e857600080fd5b5061048d6105f73660046133d3565b611044565b34801561060857600080fd5b5061061c6106173660046135eb565b6110d8565b604080516001600160a01b03909316835260208301919091520161040a565b34801561064757600080fd5b5061048d610656366004613363565b6110fa565b34801561066757600080fd5b506105996106763660046134bb565b61110e565b34801561068757600080fd5b50610599610696366004613599565b6000908152600d602052604090205490565b3480156106b457600080fd5b506105996106c33660046135eb565b6111a4565b3480156106d457600080fd5b5061048d6106e33660046135c9565b61129f565b3480156106f457600080fd5b506107086107033660046135eb565b611333565b60405161040a91906136cf565b34801561072157600080fd5b50610735610730366004613599565b6113c5565b604080516001600160a01b03909416845291151560208401529082015260600161040a565b34801561076657600080fd5b5061048d6107753660046133d3565b6113fe565b34801561078657600080fd5b50610708610795366004613363565b611419565b3480156107a657600080fd5b5061048d6107b5366004613599565b6114d7565b3480156107c657600080fd5b506105996107d5366004613599565b60456020526000908152604090205481565b3480156107f357600080fd5b50610599610802366004613599565b6114f1565b34801561081357600080fd5b5061048d610822366004613363565b611592565b34801561083357600080fd5b5061048d610842366004613553565b611612565b34801561085357600080fd5b50610599610862366004613599565b600c6020526000908152604090205481565b34801561088057600080fd5b50604654610455906001600160a01b031681565b3480156108a057600080fd5b50603f54610455906001600160a01b031681565b3480156108c057600080fd5b506104556108cf366004613599565b611631565b3480156108e057600080fd5b5061048d6108ef366004613363565b611691565b34801561090057600080fd5b5061048d61090f3660046135eb565b6116bd565b34801561092057600080fd5b5061048d61092f3660046135eb565b611825565b34801561094057600080fd5b5061059961094f366004613363565b611904565b34801561096057600080fd5b5061048d61198a565b34801561097557600080fd5b5061048d6109843660046134e6565b61199e565b34801561099557600080fd5b506107086109a43660046135eb565b6119b9565b3480156109b557600080fd5b5061048d6109c4366004613363565b611c04565b3480156109d557600080fd5b506105996109e4366004613599565b611c2e565b3480156109f557600080fd5b50600a546001600160a01b0316610455565b348015610a1357600080fd5b506103fe610a22366004613599565b604e6020526000908152604090205460ff1681565b348015610a4357600080fd5b50610428611c45565b348015610a5857600080fd5b5061048d610a673660046135eb565b611c54565b348015610a7857600080fd5b50610599610a87366004613599565b6000908152600c602052604090205490565b348015610aa557600080fd5b5061048d610ab4366004613490565b611cac565b348015610ac557600080fd5b5061048d610ad4366004613363565b611cb7565b348015610ae557600080fd5b5061056f63152a902d60e11b81565b348015610b0057600080fd5b506044546103fe9060ff1681565b348015610b1a57600080fd5b5061048d610b29366004613413565b611ce1565b348015610b3a57600080fd5b50604054610599565b348015610b4f57600080fd5b50610599610b5e3660046135eb565b611d44565b348015610b6f57600080fd5b50610599610b7e366004613599565b611e4d565b348015610b8f57600080fd5b50610428610b9e366004613599565b611e5d565b348015610baf57600080fd5b50610599610bbe366004613599565b6000908152600b602052604090205490565b61048d610bde366004613500565b611f37565b348015610bef57600080fd5b5061059960425481565b348015610c0557600080fd5b506103fe610c1436600461339b565b6001600160a01b03918216600090815260056020908152604080832093909416825291909152205460ff1690565b348015610c4e57600080fd5b50610599610c5d366004613599565b600d6020526000908152604090205481565b348015610c7b57600080fd5b5061048d610c8a366004613363565b6122b2565b348015610c9b57600080fd5b50610599610caa366004613599565b600b6020526000908152604090205481565b348015610cc857600080fd5b50610599610cd7366004613599565b612328565b348015610ce857600080fd5b50610599610cf7366004613599565b612338565b348015610d0857600080fd5b50603e54610455906001600160a01b031681565b60006001600160e01b0319821663152a902d60e11b1480610d415750610d4182612354565b92915050565b606060008054610d56906138a8565b80601f0160208091040260200160405190810160405280929190818152602001828054610d82906138a8565b8015610dcf5780601f10610da457610100808354040283529160200191610dcf565b820191906000526020600020905b815481529060010190602001808311610db257829003601f168201915b5050505050905090565b6000610de482612379565b506000908152600460205260409020546001600160a01b031690565b610e086123d8565b604880546001600160a01b0319166001600160a01b0392909216919091179055565b610e326123d8565b6000838152600b60209081526040808320859055600d9091529020819055604854604051632b017cb760e01b8152600481018590526001600160a01b0390911690632b017cb790602401600060405180830381600087803b158015610e9657600080fd5b505af1158015610eaa573d6000803e3d6000fd5b505060408051868152602081018690529081018490527fd61e1c6078dbe8c00ff44edafbf29b5084c488aadbbf8d84f3b95c1ea3c1438c9250606001905060405180910390a1505050565b6000610f0082611631565b9050806001600160a01b0316836001600160a01b03161415610f735760405162461bcd60e51b815260206004820152602160248201527f4552433732313a20617070726f76616c20746f2063757272656e74206f776e656044820152603960f91b60648201526084015b60405180910390fd5b336001600160a01b0382161480610f8f5750610f8f8133610c14565b6110015760405162461bcd60e51b815260206004820152603d60248201527f4552433732313a20617070726f76652063616c6c6572206973206e6f7420746f60448201527f6b656e206f776e6572206f7220617070726f76656420666f7220616c6c0000006064820152608401610f6a565b61100b8383612432565b505050565b630a85bd0160e11b5b949350505050565b600060646041546040546110359190613846565b61103f9190613826565b905090565b61104e33826124a0565b61106a5760405162461bcd60e51b8152600401610f6a906137bd565b61107583838361251e565b60475460405163add058fd60e01b8152600481018390526001600160a01b039091169063add058fd90602401600060405180830381600087803b1580156110bb57600080fd5b505af11580156110cf573d6000803e3d6000fd5b50505050505050565b604c546001600160a01b031660006110f1601484613826565b90509250929050565b6111026123d8565b61110b8161268f565b50565b600061111983611904565b821061117b5760405162461bcd60e51b815260206004820152602b60248201527f455243373231456e756d657261626c653a206f776e657220696e646578206f7560448201526a74206f6620626f756e647360a81b6064820152608401610f6a565b506001600160a01b03919091166000908152600660209081526040808320938352929052205490565b6000600182101580156111b95750600e548211155b6112165760405162461bcd60e51b815260206004820152602860248201527f557067726164653a20746f54696572206d757374206265206265747765656e206044820152673120616e6420323560c01b6064820152608401610f6a565b6000838152600c6020526040902054821161128e5760405162461bcd60e51b815260206004820152603260248201527f557067726164653a20746f54696572206d7573742062652067726561746572206044820152711d1a185b8818dd5c9c995b9d081b195d995b60721b6064820152608401610f6a565b6112988383611d44565b9392505050565b336000908152604d602052604090205460ff16806112c757506047546001600160a01b031633145b6113135760405162461bcd60e51b815260206004820152601d60248201527f4769726c3a206f6e6c79204553206f72204174742063616e2063616c6c0000006044820152606401610f6a565b6000918252604e6020526040909120805460ff1916911515919091179055565b6000828152600b6020526040902054606090821180156113545750600a8211155b6113bb5760405162461bcd60e51b815260206004820152603260248201527f557067726164653a2074696572206d757374206265206265747765656e20637560448201527107272656e74206c6576656c20616e642031360741b6064820152608401610f6a565b61129883836119b9565b60008060006113d384611631565b6000948552604e6020908152604080872054600d90925290952054909560ff90951694909350915050565b61107583838360405180602001604052806000815250611ce1565b6060600061142683611904565b905060008167ffffffffffffffff81111561145157634e487b7160e01b600052604160045260246000fd5b60405190808252806020026020018201604052801561147a578160200160208202803683370190505b50905060005b828110156114cf57611492858261110e565b8282815181106114b257634e487b7160e01b600052603260045260246000fd5b6020908102919091010152806114c7816138e3565b915050611480565b509392505050565b6114df6123d8565b600081116114ec57600080fd5b604055565b60006114fc60085490565b821061155f5760405162461bcd60e51b815260206004820152602c60248201527f455243373231456e756d657261626c653a20676c6f62616c20696e646578206f60448201526b7574206f6620626f756e647360a01b6064820152608401610f6a565b6008828154811061158057634e487b7160e01b600052603260045260246000fd5b90600052602060002001549050919050565b61159a6123d8565b604b5447906001600160a01b03166108fc6115b48361271c565b6040518115909202916000818181858888f193505050501580156115dc573d6000803e3d6000fd5b506040516001600160a01b038316904780156108fc02916000818181858888f1935050505015801561100b573d6000803e3d6000fd5b61161a6123d8565b805161162d90604990602084019061323f565b5050565b6000818152600260205260408120546001600160a01b031680610d415760405162461bcd60e51b8152602060048201526018602482015277115490cdcc8c4e881a5b9d985b1a59081d1bdad95b88125160421b6044820152606401610f6a565b6116996123d8565b6001600160a01b03166000908152604d60205260409020805460ff19166001179055565b6046546001600160a01b0316331461172b5760405162461bcd60e51b815260206004820152602b60248201527f4769726c3a206f6e6c79206d6f6f6e73746f6e652063616e207570677261646560448201526a2067616d657273636f726560a81b6064820152608401610f6a565b6000828152600c6020908152604080832054600b9092529182902054604854925163b3c9524b60e01b815260048101869052919290916001600160a01b039091169063b3c9524b90602401600060405180830381600087803b15801561179057600080fd5b505af11580156117a4573d6000803e3d6000fd5b505050506117b28484612738565b604854604051632d7f86bb60e11b81526004810186905260248101849052604481018390526001600160a01b0390911690635aff0d76906064015b600060405180830381600087803b15801561180757600080fd5b505af115801561181b573d6000803e3d6000fd5b5050505050505050565b336000908152604d602052604090205460ff1661187d5760405162461bcd60e51b815260206004820152601660248201527511da5c9b0e881bdb9b1e481154c818d85b8818d85b1b60521b6044820152606401610f6a565b6000828152600c6020908152604080832054600b9092529182902054604854925163b3c9524b60e01b815260048101869052919290916001600160a01b039091169063b3c9524b90602401600060405180830381600087803b1580156118e257600080fd5b505af11580156118f6573d6000803e3d6000fd5b505050506117b28484612780565b60006001600160a01b03821661196e5760405162461bcd60e51b815260206004820152602960248201527f4552433732313a2061646472657373207a65726f206973206e6f7420612076616044820152683634b21037bbb732b960b91b6064820152608401610f6a565b506001600160a01b031660009081526003602052604090205490565b6119926123d8565b61199c60006127c8565b565b6119a66123d8565b6044805460ff1916911515919091179055565b6060600f54821115611a0d5760405162461bcd60e51b815260206004820152601f60248201527f557067726164653a204d617820636f736d6963206c6576656c206973203130006044820152606401610f6a565b6000838152600b6020526040902054600f548110611a775760405162461bcd60e51b815260206004820152602160248201527f557067726164653a20636f736d6963206c6576656c20616c7265616479206d616044820152600f60fb1b6064820152608401610f6a565b6000848152600d602052604080822054815160038082526080820190935290929181602001602082028036833701905050905060008080611ab986600161380e565b90505b878111611b4557602a611ad0600183613865565b600a8110611aee57634e487b7160e01b600052603260045260246000fd5b0154611afa908461380e565b92506034611b09600183613865565b600a8110611b2757634e487b7160e01b600052603260045260246000fd5b0154611b33908361380e565b9150611b3e816138e3565b9050611abc565b508183611b53600187613865565b81518110611b7157634e487b7160e01b600052603260045260246000fd5b60200260200101818152505060005b8351811015611bf757838181518110611ba957634e487b7160e01b600052603260045260246000fd5b602002602001015160001415611be75781848281518110611bda57634e487b7160e01b600052603260045260246000fd5b6020026020010181815250505b611bf0816138e3565b9050611b80565b5091979650505050505050565b611c0c6123d8565b604680546001600160a01b0319166001600160a01b0392909216919091179055565b601081601a8110611c3e57600080fd5b0154905081565b606060018054610d56906138a8565b611c5c6123d8565b6000828152600d602090815260409182902083905581518481529081018390527fe9d2aa95a8bcda1481b0316470d5993a8d561039f5db3f8222f8d526e03c0a1b91015b60405180910390a15050565b61162d33838361281a565b611cbf6123d8565b604780546001600160a01b0319166001600160a01b0392909216919091179055565b611ceb33836124a0565b611d075760405162461bcd60e51b8152600401610f6a906137bd565b611d13848484846128e9565b60475460405163add058fd60e01b8152600481018490526001600160a01b039091169063add058fd906024016117ed565b6000600e54821115611d985760405162461bcd60e51b815260206004820152601e60248201527f557067726164653a204d61782073636f7265206973206c6576656c20323500006044820152606401610f6a565b6000838152600c6020526040902054600e548110611df85760405162461bcd60e51b815260206004820152601f60248201527f557067726164653a204769726c20616c7265616479206d6178206c6576656c006044820152606401610f6a565b6000815b848111611e4457601081601a8110611e2457634e487b7160e01b600052603260045260246000fd5b0154611e30908361380e565b915080611e3c816138e3565b915050611dfc565b50949350505050565b603481600a8110611c3e57600080fd5b6000818152600260205260409020546060906001600160a01b0316611edc5760405162461bcd60e51b815260206004820152602f60248201527f4552433732314d657461646174613a2055524920717565727920666f72206e6f60448201526e3732bc34b9ba32b73a103a37b5b2b760891b6064820152608401610f6a565b6000611ee6612922565b90506000815111611f065760405180602001604052806000815250611298565b80611f1084612931565b604051602001611f21929190613663565b6040516020818303038152906040529392505050565b33600080611f4460085490565b9050604a548110611f885760405162461bcd60e51b815260206004820152600e60248201526d11da5c9b0e8814dbdb19081bdd5d60921b6044820152606401610f6a565b84156121fb57603e546040516331a9108f60e11b8152600481018690526001600160a01b03858116921690636352211e9060240160206040518083038186803b158015611fd457600080fd5b505afa158015611fe8573d6000803e3d6000fd5b505050506040513d601f19601f8201168201806040525081019061200c919061337f565b6001600160a01b0316146120585760405162461bcd60e51b815260206004820152601360248201527223b4b9361d103737ba1037b9311037bbb732b960691b6044820152606401610f6a565b612060611021565b3410156120aa5760405162461bcd60e51b81526020600482015260186024820152774769726c3a2073656e6420636f727265637420707269636560401b6044820152606401610f6a565b6120b3846129d4565b9150816006146121f657603e546040516323b872dd60e01b81526001600160a01b03858116600483015230602483015260448201879052909116906323b872dd90606401600060405180830381600087803b15801561211157600080fd5b505af1158015612125573d6000803e3d6000fd5b5050603e546040516331a9108f60e11b8152600481018890523093506001600160a01b039091169150636352211e9060240160206040518083038186803b15801561216f57600080fd5b505afa158015612183573d6000803e3d6000fd5b505050506040513d601f19601f820116820180604052508101906121a7919061337f565b6001600160a01b0316146121f65760405162461bcd60e51b815260206004820152601660248201527511da5c9b0e881bdc98881b9bdd081c9958da595d995960521b6044820152606401610f6a565b61224d565b6040543410156122485760405162461bcd60e51b81526020600482015260186024820152774769726c3a2073656e6420636f727265637420707269636560401b6044820152606401610f6a565b600691505b600061225a82600161380e565b90506122668482612aa5565b6040516001600160a01b038516815283908715159083907f1f1fc7f871c5573b0f1fde9f6e1f67d93527049f30fde62e53af0333b35839229060200160405180910390a4505050505050565b6122ba6123d8565b6001600160a01b03811661231f5760405162461bcd60e51b815260206004820152602660248201527f4f776e61626c653a206e6577206f776e657220697320746865207a65726f206160448201526564647265737360d01b6064820152608401610f6a565b61110b816127c8565b602a81600a8110611c3e57600080fd5b600081815260456020526040812054604254610d419190613865565b60006001600160e01b0319821663780e9d6360e01b1480610d415750610d4182612abf565b6000818152600260205260409020546001600160a01b031661110b5760405162461bcd60e51b8152602060048201526018602482015277115490cdcc8c4e881a5b9d985b1a59081d1bdad95b88125160421b6044820152606401610f6a565b600a546001600160a01b0316331461199c5760405162461bcd60e51b815260206004820181905260248201527f4f776e61626c653a2063616c6c6572206973206e6f7420746865206f776e65726044820152606401610f6a565b600081815260046020526040902080546001600160a01b0319166001600160a01b038416908117909155819061246782611631565b6001600160a01b03167f8c5be1e5ebec7d5bd14f71427d1e84f3dd0314c0f7b2291e5b200ac8c7c3b92560405160405180910390a45050565b6000806124ac83611631565b9050806001600160a01b0316846001600160a01b031614806124f357506001600160a01b0380821660009081526005602090815260408083209388168352929052205460ff165b806110195750836001600160a01b031661250c84610dd9565b6001600160a01b031614949350505050565b826001600160a01b031661253182611631565b6001600160a01b0316146125575760405162461bcd60e51b8152600401610f6a90613778565b6001600160a01b0382166125b95760405162461bcd60e51b8152602060048201526024808201527f4552433732313a207472616e7366657220746f20746865207a65726f206164646044820152637265737360e01b6064820152608401610f6a565b6125c68383836001612b0f565b826001600160a01b03166125d982611631565b6001600160a01b0316146125ff5760405162461bcd60e51b8152600401610f6a90613778565b600081815260046020908152604080832080546001600160a01b03199081169091556001600160a01b0387811680865260038552838620805460001901905590871680865283862080546001019055868652600290945282852080549092168417909155905184937fddf252ad1be2c89b69c2b068fc378daa952ba7f163c4a11628f55a4df523b3ef91a4505050565b6001600160a01b0381166126fa5760405162461bcd60e51b815260206004820152602c60248201527f526f79616c746965733a206e657720726563697069656e74206973207468652060448201526b7a65726f206164647265737360a01b6064820152608401610f6a565b604c80546001600160a01b0319166001600160a01b0392909216919091179055565b600060646043548361272e9190613846565b610d419190613826565b6000828152600c602090815260409182902083905581518481529081018390527f866cfb7bcf22266717dccfb6e13d4a8aaf393c0bc2c147cf9df1b747e00370029101611ca0565b6000828152600b602090815260409182902083905581518481529081018390527f56bd88bf537c8134d681abc094b975697025d38f1a7e20c408f3b5e6b4df40b79101611ca0565b600a80546001600160a01b038381166001600160a01b0319831681179093556040519116919082907f8be0079c531659141344cd1fd0a4f28419497f9722a3daafe3b4186f6b6457e090600090a35050565b816001600160a01b0316836001600160a01b0316141561287c5760405162461bcd60e51b815260206004820152601960248201527f4552433732313a20617070726f766520746f2063616c6c6572000000000000006044820152606401610f6a565b6001600160a01b03838116600081815260056020908152604080832094871680845294825291829020805460ff191686151590811790915591519182527f17307eab39ab6107e8899845ad3d59bd9653f200f220920489ca2b5937696c31910160405180910390a3505050565b6128f484848461251e565b61290084848484612c4f565b61291c5760405162461bcd60e51b8152600401610f6a90613726565b50505050565b606060498054610d56906138a8565b6060600061293e83612d59565b600101905060008167ffffffffffffffff81111561296c57634e487b7160e01b600052604160045260246000fd5b6040519080825280601f01601f191660200182016040528015612996576020820181803683370190505b5090508181016020015b600019016f181899199a1a9b1b9c1cb0b131b232b360811b600a86061a8153600a85049450846129cf576114cf565b6129a0565b6000818152604560205260408120546005116129ef57600080fd5b60008281526045602052604081208054909190612a0b906138e3565b9091555060008281526045602052604090205460069060051415610d4157603f54604051634875869760e01b8152600481018590526001600160a01b039091169063487586979060240160206040518083038186803b158015612a6d57600080fd5b505afa158015612a81573d6000803e3d6000fd5b505050506040513d601f19601f8201168201806040525081019061129891906135b1565b61162d828260405180602001604052806000815250612e31565b60006001600160e01b031982166380ac58cd60e01b1480612af057506001600160e01b03198216635b5e139f60e01b145b80610d4157506301ffc9a760e01b6001600160e01b0319831614610d41565b612b1b84848484612e64565b6001811115612b8a5760405162461bcd60e51b815260206004820152603560248201527f455243373231456e756d657261626c653a20636f6e7365637574697665207472604482015274185b9cd9995c9cc81b9bdd081cdd5c1c1bdc9d1959605a1b6064820152608401610f6a565b816001600160a01b038516612be657612be181600880546000838152600960205260408120829055600182018355919091527ff3f7a9fe364faab93b216da50a3214154f22a0a2b415b23a84c8169e8b636ee30155565b612c09565b836001600160a01b0316856001600160a01b031614612c0957612c098582612eec565b6001600160a01b038416612c2557612c2081612f89565b612c48565b846001600160a01b0316846001600160a01b031614612c4857612c488482613062565b5050505050565b60006001600160a01b0384163b15612d5157604051630a85bd0160e11b81526001600160a01b0385169063150b7a0290612c93903390899088908890600401613692565b602060405180830381600087803b158015612cad57600080fd5b505af1925050508015612cdd575060408051601f3d908101601f19168201909252612cda91810190613537565b60015b612d37573d808015612d0b576040519150601f19603f3d011682016040523d82523d6000602084013e612d10565b606091505b508051612d2f5760405162461bcd60e51b8152600401610f6a90613726565b805181602001fd5b6001600160e01b031916630a85bd0160e11b149050611019565b506001611019565b60008072184f03e93ff9f4daa797ed6e38ed64bf6a1f0160401b8310612d985772184f03e93ff9f4daa797ed6e38ed64bf6a1f0160401b830492506040015b6d04ee2d6d415b85acef81000000008310612dc4576d04ee2d6d415b85acef8100000000830492506020015b662386f26fc100008310612de257662386f26fc10000830492506010015b6305f5e1008310612dfa576305f5e100830492506008015b6127108310612e0e57612710830492506004015b60648310612e20576064830492506002015b600a8310610d415760010192915050565b612e3b83836130a6565b612e486000848484612c4f565b61100b5760405162461bcd60e51b8152600401610f6a90613726565b600181111561291c576001600160a01b03841615612eaa576001600160a01b03841660009081526003602052604081208054839290612ea4908490613865565b90915550505b6001600160a01b0383161561291c576001600160a01b03831660009081526003602052604081208054839290612ee190849061380e565b909155505050505050565b60006001612ef984611904565b612f039190613865565b600083815260076020526040902054909150808214612f56576001600160a01b03841660009081526006602090815260408083208584528252808320548484528184208190558352600790915290208190555b5060009182526007602090815260408084208490556001600160a01b039094168352600681528383209183525290812055565b600854600090612f9b90600190613865565b60008381526009602052604081205460088054939450909284908110612fd157634e487b7160e01b600052603260045260246000fd5b90600052602060002001549050806008838154811061300057634e487b7160e01b600052603260045260246000fd5b600091825260208083209091019290925582815260099091526040808220849055858252812055600880548061304657634e487b7160e01b600052603160045260246000fd5b6001900381819060005260206000200160009055905550505050565b600061306d83611904565b6001600160a01b039093166000908152600660209081526040808320868452825280832085905593825260079052919091209190915550565b6001600160a01b0382166130fc5760405162461bcd60e51b815260206004820181905260248201527f4552433732313a206d696e7420746f20746865207a65726f20616464726573736044820152606401610f6a565b6000818152600260205260409020546001600160a01b0316156131615760405162461bcd60e51b815260206004820152601c60248201527f4552433732313a20746f6b656e20616c7265616479206d696e746564000000006044820152606401610f6a565b61316f600083836001612b0f565b6000818152600260205260409020546001600160a01b0316156131d45760405162461bcd60e51b815260206004820152601c60248201527f4552433732313a20746f6b656e20616c7265616479206d696e746564000000006044820152606401610f6a565b6001600160a01b038216600081815260036020908152604080832080546001019055848352600290915280822080546001600160a01b0319168417905551839291907fddf252ad1be2c89b69c2b068fc378daa952ba7f163c4a11628f55a4df523b3ef908290a45050565b82805461324b906138a8565b90600052602060002090601f01602090048101928261326d57600085556132b3565b82601f1061328657805160ff19168380011785556132b3565b828001600101855582156132b3579182015b828111156132b3578251825591602001919060010190613298565b506132bf9291506132c3565b5090565b5b808211156132bf57600081556001016132c4565b600067ffffffffffffffff808411156132f3576132f3613914565b604051601f8501601f19908116603f0116810190828211818310171561331b5761331b613914565b8160405280935085815286868601111561333457600080fd5b858560208301376000602087830101525050509392505050565b8035801515811461335e57600080fd5b919050565b600060208284031215613374578081fd5b81356112988161392a565b600060208284031215613390578081fd5b81516112988161392a565b600080604083850312156133ad578081fd5b82356133b88161392a565b915060208301356133c88161392a565b809150509250929050565b6000806000606084860312156133e7578081fd5b83356133f28161392a565b925060208401356134028161392a565b929592945050506040919091013590565b60008060008060808587031215613428578081fd5b84356134338161392a565b935060208501356134438161392a565b925060408501359150606085013567ffffffffffffffff811115613465578182fd5b8501601f81018713613475578182fd5b613484878235602084016132d8565b91505092959194509250565b600080604083850312156134a2578182fd5b82356134ad8161392a565b91506110f16020840161334e565b600080604083850312156134cd578182fd5b82356134d88161392a565b946020939093013593505050565b6000602082840312156134f7578081fd5b6112988261334e565b60008060408385031215613512578182fd5b6134d88361334e565b60006020828403121561352c578081fd5b81356112988161393f565b600060208284031215613548578081fd5b81516112988161393f565b600060208284031215613564578081fd5b813567ffffffffffffffff81111561357a578182fd5b8201601f8101841361358a578182fd5b611019848235602084016132d8565b6000602082840312156135aa578081fd5b5035919050565b6000602082840312156135c2578081fd5b5051919050565b600080604083850312156135db578182fd5b823591506110f16020840161334e565b600080604083850312156135fd578182fd5b50508035926020909101359150565b600080600060608486031215613620578081fd5b505081359360208301359350604090920135919050565b6000815180845261364f81602086016020860161387c565b601f01601f19169290920160200192915050565b6000835161367581846020880161387c565b83519083019061368981836020880161387c565b01949350505050565b6001600160a01b03858116825284166020820152604081018390526080606082018190526000906136c590830184613637565b9695505050505050565b6020808252825182820181905260009190848201906040850190845b81811015613707578351835292840192918401916001016136eb565b50909695505050505050565b6020815260006112986020830184613637565b60208082526032908201527f4552433732313a207472616e7366657220746f206e6f6e20455243373231526560408201527131b2b4bb32b91034b6b83632b6b2b73a32b960711b606082015260800190565b60208082526025908201527f4552433732313a207472616e736665722066726f6d20696e636f72726563742060408201526437bbb732b960d91b606082015260800190565b60208082526031908201527f4552433732313a207472616e736665722063616c6c6572206973206e6f74206f6040820152701ddb995c881b9bdc88185c1c1c9bdd9959607a1b606082015260800190565b60008219821115613821576138216138fe565b500190565b60008261384157634e487b7160e01b81526012600452602481fd5b500490565b6000816000190483118215151615613860576138606138fe565b500290565b600082821015613877576138776138fe565b500390565b60005b8381101561389757818101518382015260200161387f565b8381111561291c5750506000910152565b600181811c908216806138bc57607f821691505b602082108114156138dd57634e487b7160e01b600052602260045260246000fd5b50919050565b60006000198214156138f7576138f76138fe565b5060010190565b634e487b7160e01b600052601160045260246000fd5b634e487b7160e01b600052604160045260246000fd5b6001600160a01b038116811461110b57600080fd5b6001600160e01b03198116811461110b57600080fdfea26469706673582212200cd65119c5ea02e0812b03141c0cbf36be492d06d054e2d5ecff395ed7ddc23a64736f6c63430008040033",
  "linkReferences": {},
  "deployedLinkReferences": {}
}