{
  "_format": "hh-sol-artifact-1",
  "contractName": "Girl",
  "sourceName": "contracts/Girl/Girl.sol",
  "abi": [
    {
      "inputs": [
        {
          "internalType": "string",
          "name": "_initBaseURI",
          "type": "string"
        },
        {
          "internalType": "address",
          "name": "_orb",
          "type": "address"
        },
        {
          "internalType": "address",
          "name": "_orbRarity",
          "type": "address"
        },
        {
          "internalType": "address",
          "name": "_emissions",
          "type": "address"
        },
        {
          "internalType": "address payable",
          "name": "_dev",
          "type": "address"
        },
        {
          "internalType": "address",
          "name": "_rewards",
          "type": "address"
        },
        {
          "internalType": "address",
          "name": "_royalty",
          "type": "address"
        }
      ],
      "stateMutability": "nonpayable",
      "type": "constructor"
    },
    {
      "anonymous": false,
      "inputs": [
        {
          "indexed": true,
          "internalType": "address",
          "name": "owner",
          "type": "address"
        },
        {
          "indexed": true,
          "internalType": "address",
          "name": "approved",
          "type": "address"
        },
        {
          "indexed": true,
          "internalType": "uint256",
          "name": "tokenId",
          "type": "uint256"
        }
      ],
      "name": "Approval",
      "type": "event"
    },
    {
      "anonymous": false,
      "inputs": [
        {
          "indexed": true,
          "internalType": "address",
          "name": "owner",
          "type": "address"
        },
        {
          "indexed": true,
          "internalType": "address",
          "name": "operator",
          "type": "address"
        },
        {
          "indexed": false,
          "internalType": "bool",
          "name": "approved",
          "type": "bool"
        }
      ],
      "name": "ApprovalForAll",
      "type": "event"
    },
    {
      "anonymous": false,
      "inputs": [
        {
          "indexed": false,
          "internalType": "uint256",
          "name": "id",
          "type": "uint256"
        },
        {
          "indexed": false,
          "internalType": "uint256",
          "name": "newLevel",
          "type": "uint256"
        }
      ],
      "name": "CosmicLevelChanged",
      "type": "event"
    },
    {
      "anonymous": false,
      "inputs": [
        {
          "indexed": false,
          "internalType": "uint256",
          "name": "id",
          "type": "uint256"
        },
        {
          "indexed": false,
          "internalType": "uint256",
          "name": "element",
          "type": "uint256"
        }
      ],
      "name": "ElementChanged",
      "type": "event"
    },
    {
      "anonymous": false,
      "inputs": [
        {
          "indexed": false,
          "internalType": "uint256",
          "name": "id",
          "type": "uint256"
        },
        {
          "indexed": false,
          "internalType": "uint256",
          "name": "newScore",
          "type": "uint256"
        }
      ],
      "name": "GamerScoreChanged",
      "type": "event"
    },
    {
      "anonymous": false,
      "inputs": [
        {
          "indexed": false,
          "internalType": "address",
          "name": "minter",
          "type": "address"
        },
        {
          "indexed": true,
          "internalType": "uint256",
          "name": "id",
          "type": "uint256"
        },
        {
          "indexed": true,
          "internalType": "bool",
          "name": "usingOrb",
          "type": "bool"
        },
        {
          "indexed": true,
          "internalType": "uint256",
          "name": "rarity",
          "type": "uint256"
        }
      ],
      "name": "GirlMinted",
      "type": "event"
    },
    {
      "anonymous": false,
      "inputs": [
        {
          "indexed": true,
          "internalType": "address",
          "name": "previousOwner",
          "type": "address"
        },
        {
          "indexed": true,
          "internalType": "address",
          "name": "newOwner",
          "type": "address"
        }
      ],
      "name": "OwnershipTransferred",
      "type": "event"
    },
    {
      "anonymous": false,
      "inputs": [
        {
          "indexed": false,
          "internalType": "uint256",
          "name": "id",
          "type": "uint256"
        },
        {
          "indexed": false,
          "internalType": "uint256",
          "name": "cl",
          "type": "uint256"
        },
        {
          "indexed": false,
          "internalType": "uint256",
          "name": "el",
          "type": "uint256"
        }
      ],
      "name": "StatsInitialized",
      "type": "event"
    },
    {
      "anonymous": false,
      "inputs": [
        {
          "indexed": true,
          "internalType": "address",
          "name": "from",
          "type": "address"
        },
        {
          "indexed": true,
          "internalType": "address",
          "name": "to",
          "type": "address"
        },
        {
          "indexed": true,
          "internalType": "uint256",
          "name": "tokenId",
          "type": "uint256"
        }
      ],
      "name": "Transfer",
      "type": "event"
    },
    {
      "inputs": [],
      "name": "INTERFACE_ID_ERC2981",
      "outputs": [
        {
          "internalType": "bytes4",
          "name": "",
          "type": "bytes4"
        }
      ],
      "stateMutability": "view",
      "type": "function"
    },
    {
      "inputs": [
        {
          "internalType": "address",
          "name": "to",
          "type": "address"
        },
        {
          "internalType": "uint256",
          "name": "tokenId",
          "type": "uint256"
        }
      ],
      "name": "approve",
      "outputs": [],
      "stateMutability": "nonpayable",
      "type": "function"
    },
    {
      "inputs": [],
      "name": "attunement",
      "outputs": [
        {
          "internalType": "contract IAttunement",
          "name": "",
          "type": "address"
        }
      ],
      "stateMutability": "view",
      "type": "function"
    },
    {
      "inputs": [
        {
          "internalType": "address",
          "name": "owner",
          "type": "address"
        }
      ],
      "name": "balanceOf",
      "outputs": [
        {
          "internalType": "uint256",
          "name": "",
          "type": "uint256"
        }
      ],
      "stateMutability": "view",
      "type": "function"
    },
    {
      "inputs": [
        {
          "internalType": "uint256",
          "name": "id",
          "type": "uint256"
        },
        {
          "internalType": "uint256",
          "name": "toTier",
          "type": "uint256"
        }
      ],
      "name": "calcCosmicLevelUpgradeCost",
      "outputs": [
        {
          "internalType": "uint256[]",
          "name": "",
          "type": "uint256[]"
        }
      ],
      "stateMutability": "view",
      "type": "function"
    },
    {
      "inputs": [
        {
          "internalType": "uint256",
          "name": "id",
          "type": "uint256"
        },
        {
          "internalType": "uint256",
          "name": "toTier",
          "type": "uint256"
        }
      ],
      "name": "calcGamerScoreUpgradeCost",
      "outputs": [
        {
          "internalType": "uint256",
          "name": "",
          "type": "uint256"
        }
      ],
      "stateMutability": "view",
      "type": "function"
    },
    {
      "inputs": [],
      "name": "charges",
      "outputs": [
        {
          "internalType": "uint256",
          "name": "",
          "type": "uint256"
        }
      ],
      "stateMutability": "view",
      "type": "function"
    },
    {
      "inputs": [
        {
          "internalType": "uint256",
          "name": "",
          "type": "uint256"
        }
      ],
      "name": "chargesUsed",
      "outputs": [
        {
          "internalType": "uint256",
          "name": "",
          "type": "uint256"
        }
      ],
      "stateMutability": "view",
      "type": "function"
    },
    {
      "inputs": [
        {
          "internalType": "uint256",
          "name": "girlId",
          "type": "uint256"
        }
      ],
      "name": "checkStake",
      "outputs": [
        {
          "internalType": "address",
          "name": "",
          "type": "address"
        },
        {
          "internalType": "bool",
          "name": "",
          "type": "bool"
        },
        {
          "internalType": "uint256",
          "name": "",
          "type": "uint256"
        }
      ],
      "stateMutability": "view",
      "type": "function"
    },
    {
      "inputs": [
        {
          "internalType": "uint256",
          "name": "",
          "type": "uint256"
        }
      ],
      "name": "cosmicLevel",
      "outputs": [
        {
          "internalType": "uint256",
          "name": "",
          "type": "uint256"
        }
      ],
      "stateMutability": "view",
      "type": "function"
    },
    {
      "inputs": [
        {
          "internalType": "uint256",
          "name": "",
          "type": "uint256"
        }
      ],
      "name": "element",
      "outputs": [
        {
          "internalType": "uint256",
          "name": "",
          "type": "uint256"
        }
      ],
      "stateMutability": "view",
      "type": "function"
    },
    {
      "inputs": [],
      "name": "emissions",
      "outputs": [
        {
          "internalType": "contract IEmissions",
          "name": "",
          "type": "address"
        }
      ],
      "stateMutability": "view",
      "type": "function"
    },
    {
      "inputs": [
        {
          "internalType": "uint256",
          "name": "",
          "type": "uint256"
        }
      ],
      "name": "gamerScore",
      "outputs": [
        {
          "internalType": "uint256",
          "name": "",
          "type": "uint256"
        }
      ],
      "stateMutability": "view",
      "type": "function"
    },
    {
      "inputs": [
        {
          "internalType": "uint256",
          "name": "tokenId",
          "type": "uint256"
        }
      ],
      "name": "getApproved",
      "outputs": [
        {
          "internalType": "address",
          "name": "",
          "type": "address"
        }
      ],
      "stateMutability": "view",
      "type": "function"
    },
    {
      "inputs": [
        {
          "internalType": "uint256",
          "name": "id",
          "type": "uint256"
        }
      ],
      "name": "getChargesRemaining",
      "outputs": [
        {
          "internalType": "uint256",
          "name": "",
          "type": "uint256"
        }
      ],
      "stateMutability": "view",
      "type": "function"
    },
    {
      "inputs": [
        {
          "internalType": "uint256",
          "name": "_id",
          "type": "uint256"
        }
      ],
      "name": "getCosmicLevel",
      "outputs": [
        {
          "internalType": "uint256",
          "name": "",
          "type": "uint256"
        }
      ],
      "stateMutability": "view",
      "type": "function"
    },
    {
      "inputs": [
        {
          "internalType": "uint256",
          "name": "id",
          "type": "uint256"
        },
        {
          "internalType": "uint256",
          "name": "toTier",
          "type": "uint256"
        }
      ],
      "name": "getCosmicLevelUpgradeCost",
      "outputs": [
        {
          "internalType": "uint256[]",
          "name": "",
          "type": "uint256[]"
        }
      ],
      "stateMutability": "view",
      "type": "function"
    },
    {
      "inputs": [],
      "name": "getCost",
      "outputs": [
        {
          "internalType": "uint256",
          "name": "",
          "type": "uint256"
        }
      ],
      "stateMutability": "view",
      "type": "function"
    },
    {
      "inputs": [],
      "name": "getDiscountCost",
      "outputs": [
        {
          "internalType": "uint256",
          "name": "",
          "type": "uint256"
        }
      ],
      "stateMutability": "view",
      "type": "function"
    },
    {
      "inputs": [
        {
          "internalType": "uint256",
          "name": "_id",
          "type": "uint256"
        }
      ],
      "name": "getElement",
      "outputs": [
        {
          "internalType": "uint256",
          "name": "",
          "type": "uint256"
        }
      ],
      "stateMutability": "view",
      "type": "function"
    },
    {
      "inputs": [
        {
          "internalType": "uint256",
          "name": "_id",
          "type": "uint256"
        }
      ],
      "name": "getGamerScore",
      "outputs": [
        {
          "internalType": "uint256",
          "name": "",
          "type": "uint256"
        }
      ],
      "stateMutability": "view",
      "type": "function"
    },
    {
      "inputs": [
        {
          "internalType": "uint256",
          "name": "id",
          "type": "uint256"
        },
        {
          "internalType": "uint256",
          "name": "toTier",
          "type": "uint256"
        }
      ],
      "name": "getGamerScoreUpgradeCost",
      "outputs": [
        {
          "internalType": "uint256",
          "name": "cost",
          "type": "uint256"
        }
      ],
      "stateMutability": "view",
      "type": "function"
    },
    {
      "inputs": [
        {
          "internalType": "uint256",
          "name": "",
          "type": "uint256"
        }
      ],
      "name": "gsUpgradeCosts",
      "outputs": [
        {
          "internalType": "uint256",
          "name": "",
          "type": "uint256"
        }
      ],
      "stateMutability": "view",
      "type": "function"
    },
    {
      "inputs": [
        {
          "internalType": "uint256",
          "name": "id",
          "type": "uint256"
        },
        {
          "internalType": "uint256",
          "name": "toTier",
          "type": "uint256"
        }
      ],
      "name": "handleUpgradeCosmicLevel",
      "outputs": [],
      "stateMutability": "nonpayable",
      "type": "function"
    },
    {
      "inputs": [
        {
          "internalType": "uint256",
          "name": "id",
          "type": "uint256"
        },
        {
          "internalType": "uint256",
          "name": "toTier",
          "type": "uint256"
        }
      ],
      "name": "handleUpgradeGamerScore",
      "outputs": [],
      "stateMutability": "nonpayable",
      "type": "function"
    },
    {
      "inputs": [
        {
          "internalType": "uint256",
          "name": "id",
          "type": "uint256"
        },
        {
          "internalType": "uint256",
          "name": "cl",
          "type": "uint256"
        },
        {
          "internalType": "uint256",
          "name": "el",
          "type": "uint256"
        }
      ],
      "name": "initStats",
      "outputs": [],
      "stateMutability": "nonpayable",
      "type": "function"
    },
    {
      "inputs": [
        {
          "internalType": "address",
          "name": "owner",
          "type": "address"
        },
        {
          "internalType": "address",
          "name": "operator",
          "type": "address"
        }
      ],
      "name": "isApprovedForAll",
      "outputs": [
        {
          "internalType": "bool",
          "name": "",
          "type": "bool"
        }
      ],
      "stateMutability": "view",
      "type": "function"
    },
    {
      "inputs": [
        {
          "internalType": "address",
          "name": "",
          "type": "address"
        }
      ],
      "name": "isElementalStone",
      "outputs": [
        {
          "internalType": "bool",
          "name": "",
          "type": "bool"
        }
      ],
      "stateMutability": "view",
      "type": "function"
    },
    {
      "inputs": [
        {
          "internalType": "uint256",
          "name": "girlId",
          "type": "uint256"
        }
      ],
      "name": "isPaired",
      "outputs": [
        {
          "internalType": "bool",
          "name": "",
          "type": "bool"
        }
      ],
      "stateMutability": "view",
      "type": "function"
    },
    {
      "inputs": [
        {
          "internalType": "address",
          "name": "",
          "type": "address"
        }
      ],
      "name": "isWorker",
      "outputs": [
        {
          "internalType": "bool",
          "name": "",
          "type": "bool"
        }
      ],
      "stateMutability": "view",
      "type": "function"
    },
    {
      "inputs": [
        {
          "internalType": "uint256",
          "name": "",
          "type": "uint256"
        }
      ],
      "name": "matchedElementCosts",
      "outputs": [
        {
          "internalType": "uint256",
          "name": "",
          "type": "uint256"
        }
      ],
      "stateMutability": "view",
      "type": "function"
    },
    {
      "inputs": [
        {
          "internalType": "bool",
          "name": "usingOrb",
          "type": "bool"
        },
        {
          "internalType": "uint256",
          "name": "orbId",
          "type": "uint256"
        },
        {
          "internalType": "uint256",
          "name": "amount",
          "type": "uint256"
        }
      ],
      "name": "mint",
      "outputs": [],
      "stateMutability": "payable",
      "type": "function"
    },
    {
      "inputs": [],
      "name": "moonstone",
      "outputs": [
        {
          "internalType": "contract IERC20",
          "name": "",
          "type": "address"
        }
      ],
      "stateMutability": "view",
      "type": "function"
    },
    {
      "inputs": [],
      "name": "name",
      "outputs": [
        {
          "internalType": "string",
          "name": "",
          "type": "string"
        }
      ],
      "stateMutability": "view",
      "type": "function"
    },
    {
      "inputs": [
        {
          "internalType": "address",
          "name": "",
          "type": "address"
        },
        {
          "internalType": "address",
          "name": "",
          "type": "address"
        },
        {
          "internalType": "uint256",
          "name": "",
          "type": "uint256"
        },
        {
          "internalType": "bytes",
          "name": "",
          "type": "bytes"
        }
      ],
      "name": "onERC721Received",
      "outputs": [
        {
          "internalType": "bytes4",
          "name": "",
          "type": "bytes4"
        }
      ],
      "stateMutability": "nonpayable",
      "type": "function"
    },
    {
      "inputs": [],
      "name": "orb",
      "outputs": [
        {
          "internalType": "contract IERC721",
          "name": "",
          "type": "address"
        }
      ],
      "stateMutability": "view",
      "type": "function"
    },
    {
      "inputs": [],
      "name": "orbRarity",
      "outputs": [
        {
          "internalType": "contract IOrbRarity",
          "name": "",
          "type": "address"
        }
      ],
      "stateMutability": "view",
      "type": "function"
    },
    {
      "inputs": [],
      "name": "owner",
      "outputs": [
        {
          "internalType": "address",
          "name": "",
          "type": "address"
        }
      ],
      "stateMutability": "view",
      "type": "function"
    },
    {
      "inputs": [
        {
          "internalType": "uint256",
          "name": "tokenId",
          "type": "uint256"
        }
      ],
      "name": "ownerOf",
      "outputs": [
        {
          "internalType": "address",
          "name": "",
          "type": "address"
        }
      ],
      "stateMutability": "view",
      "type": "function"
    },
    {
      "inputs": [
        {
          "internalType": "uint256",
          "name": "",
          "type": "uint256"
        }
      ],
      "name": "paired",
      "outputs": [
        {
          "internalType": "bool",
          "name": "",
          "type": "bool"
        }
      ],
      "stateMutability": "view",
      "type": "function"
    },
    {
      "inputs": [],
      "name": "renounceOwnership",
      "outputs": [],
      "stateMutability": "nonpayable",
      "type": "function"
    },
    {
      "inputs": [],
      "name": "rewards",
      "outputs": [
        {
          "internalType": "contract IRewards",
          "name": "",
          "type": "address"
        }
      ],
      "stateMutability": "view",
      "type": "function"
    },
    {
      "inputs": [
        {
          "internalType": "uint256",
          "name": "_tokenId",
          "type": "uint256"
        },
        {
          "internalType": "uint256",
          "name": "_salePrice",
          "type": "uint256"
        }
      ],
      "name": "royaltyInfo",
      "outputs": [
        {
          "internalType": "address",
          "name": "receiver",
          "type": "address"
        },
        {
          "internalType": "uint256",
          "name": "royaltyAmount",
          "type": "uint256"
        }
      ],
      "stateMutability": "view",
      "type": "function"
    },
    {
      "inputs": [
        {
          "internalType": "address",
          "name": "from",
          "type": "address"
        },
        {
          "internalType": "address",
          "name": "to",
          "type": "address"
        },
        {
          "internalType": "uint256",
          "name": "tokenId",
          "type": "uint256"
        }
      ],
      "name": "safeTransferFrom",
      "outputs": [],
      "stateMutability": "nonpayable",
      "type": "function"
    },
    {
      "inputs": [
        {
          "internalType": "address",
          "name": "from",
          "type": "address"
        },
        {
          "internalType": "address",
          "name": "to",
          "type": "address"
        },
        {
          "internalType": "uint256",
          "name": "tokenId",
          "type": "uint256"
        },
        {
          "internalType": "bytes",
          "name": "_data",
          "type": "bytes"
        }
      ],
      "name": "safeTransferFrom",
      "outputs": [],
      "stateMutability": "nonpayable",
      "type": "function"
    },
    {
      "inputs": [
        {
          "internalType": "address",
          "name": "operator",
          "type": "address"
        },
        {
          "internalType": "bool",
          "name": "approved",
          "type": "bool"
        }
      ],
      "name": "setApprovalForAll",
      "outputs": [],
      "stateMutability": "nonpayable",
      "type": "function"
    },
    {
      "inputs": [
        {
          "internalType": "address",
          "name": "_a",
          "type": "address"
        }
      ],
      "name": "setAttunementContract",
      "outputs": [],
      "stateMutability": "nonpayable",
      "type": "function"
    },
    {
      "inputs": [
        {
          "internalType": "address",
          "name": "_rewards",
          "type": "address"
        }
      ],
      "name": "setBankRewardsContract",
      "outputs": [],
      "stateMutability": "nonpayable",
      "type": "function"
    },
    {
      "inputs": [
        {
          "internalType": "string",
          "name": "_newBaseURI",
          "type": "string"
        }
      ],
      "name": "setBaseURI",
      "outputs": [],
      "stateMutability": "nonpayable",
      "type": "function"
    },
    {
      "inputs": [
        {
          "internalType": "uint256",
          "name": "_newCost",
          "type": "uint256"
        }
      ],
      "name": "setCost",
      "outputs": [],
      "stateMutability": "nonpayable",
      "type": "function"
    },
    {
      "inputs": [
        {
          "internalType": "uint256",
          "name": "_id",
          "type": "uint256"
        },
        {
          "internalType": "uint256",
          "name": "_newElement",
          "type": "uint256"
        }
      ],
      "name": "setElement",
      "outputs": [],
      "stateMutability": "nonpayable",
      "type": "function"
    },
    {
      "inputs": [
        {
          "internalType": "address",
          "name": "_es",
          "type": "address"
        }
      ],
      "name": "setElementalStoneContract",
      "outputs": [],
      "stateMutability": "nonpayable",
      "type": "function"
    },
    {
      "inputs": [
        {
          "internalType": "address",
          "name": "_e",
          "type": "address"
        }
      ],
      "name": "setEmissions",
      "outputs": [],
      "stateMutability": "nonpayable",
      "type": "function"
    },
    {
      "inputs": [
        {
          "internalType": "address",
          "name": "_moonstone",
          "type": "address"
        }
      ],
      "name": "setMoonstoneContract",
      "outputs": [],
      "stateMutability": "nonpayable",
      "type": "function"
    },
    {
      "inputs": [
        {
          "internalType": "uint256",
          "name": "_id",
          "type": "uint256"
        },
        {
          "internalType": "bool",
          "name": "_paired",
          "type": "bool"
        }
      ],
      "name": "setPaired",
      "outputs": [],
      "stateMutability": "nonpayable",
      "type": "function"
    },
    {
      "inputs": [
        {
          "internalType": "address",
          "name": "newRecipient",
          "type": "address"
        }
      ],
      "name": "setRoyalties",
      "outputs": [],
      "stateMutability": "nonpayable",
      "type": "function"
    },
    {
      "inputs": [
        {
          "internalType": "address",
          "name": "_worker",
          "type": "address"
        },
        {
          "internalType": "bool",
          "name": "_isWorker",
          "type": "bool"
        }
      ],
      "name": "setWorker",
      "outputs": [],
      "stateMutability": "nonpayable",
      "type": "function"
    },
    {
      "inputs": [
        {
          "internalType": "bytes4",
          "name": "interfaceId",
          "type": "bytes4"
        }
      ],
      "name": "supportsInterface",
      "outputs": [
        {
          "internalType": "bool",
          "name": "",
          "type": "bool"
        }
      ],
      "stateMutability": "view",
      "type": "function"
    },
    {
      "inputs": [],
      "name": "symbol",
      "outputs": [
        {
          "internalType": "string",
          "name": "",
          "type": "string"
        }
      ],
      "stateMutability": "view",
      "type": "function"
    },
    {
      "inputs": [
        {
          "internalType": "uint256",
          "name": "index",
          "type": "uint256"
        }
      ],
      "name": "tokenByIndex",
      "outputs": [
        {
          "internalType": "uint256",
          "name": "",
          "type": "uint256"
        }
      ],
      "stateMutability": "view",
      "type": "function"
    },
    {
      "inputs": [
        {
          "internalType": "address",
          "name": "owner",
          "type": "address"
        },
        {
          "internalType": "uint256",
          "name": "index",
          "type": "uint256"
        }
      ],
      "name": "tokenOfOwnerByIndex",
      "outputs": [
        {
          "internalType": "uint256",
          "name": "",
          "type": "uint256"
        }
      ],
      "stateMutability": "view",
      "type": "function"
    },
    {
      "inputs": [
        {
          "internalType": "uint256",
          "name": "tokenId",
          "type": "uint256"
        }
      ],
      "name": "tokenURI",
      "outputs": [
        {
          "internalType": "string",
          "name": "",
          "type": "string"
        }
      ],
      "stateMutability": "view",
      "type": "function"
    },
    {
      "inputs": [],
      "name": "totalSupply",
      "outputs": [
        {
          "internalType": "uint256",
          "name": "",
          "type": "uint256"
        }
      ],
      "stateMutability": "view",
      "type": "function"
    },
    {
      "inputs": [
        {
          "internalType": "address",
          "name": "from",
          "type": "address"
        },
        {
          "internalType": "address",
          "name": "to",
          "type": "address"
        },
        {
          "internalType": "uint256",
          "name": "tokenId",
          "type": "uint256"
        }
      ],
      "name": "transferFrom",
      "outputs": [],
      "stateMutability": "nonpayable",
      "type": "function"
    },
    {
      "inputs": [
        {
          "internalType": "address",
          "name": "newOwner",
          "type": "address"
        }
      ],
      "name": "transferOwnership",
      "outputs": [],
      "stateMutability": "nonpayable",
      "type": "function"
    },
    {
      "inputs": [
        {
          "internalType": "uint256",
          "name": "",
          "type": "uint256"
        }
      ],
      "name": "unmatchedElementCosts",
      "outputs": [
        {
          "internalType": "uint256",
          "name": "",
          "type": "uint256"
        }
      ],
      "stateMutability": "view",
      "type": "function"
    },
    {
      "inputs": [
        {
          "internalType": "address",
          "name": "_owner",
          "type": "address"
        }
      ],
      "name": "walletOfOwner",
      "outputs": [
        {
          "internalType": "uint256[]",
          "name": "",
          "type": "uint256[]"
        }
      ],
      "stateMutability": "view",
      "type": "function"
    },
    {
      "inputs": [
        {
          "internalType": "address payable",
          "name": "_rest",
          "type": "address"
        }
      ],
      "name": "withdraw",
      "outputs": [],
      "stateMutability": "nonpayable",
      "type": "function"
    }
  ],
  "bytecode": "0x6019600e55600a600f9081556103c060405260006080908152600460a081905260c081905260e05260056101008190526101208190526101408190526101608190526101805260066101a08190526101c05260076101e052600861020081905261022081905261024081905261026052600b6102808190526102a08190526102c052600c6102e08190526103005261032091909152601061034081905261036081905260116103808190526103a052620000bb91601a62000520565b50604080516101408101825260008152600260208201526003918101829052606081019190915260046080820152600660a0820152600860c0820152600b60e0820152600e61010082015260126101208201526200011e90602a90600a62000568565b506040805161014081018252600080825260208201819052918101919091526001606082015260026080820152600360a0820152600460c0820152600560e0820152600761010082015260096101208201526200018090603490600a62000568565b50605a6041556005604255600f604355611388604a55348015620001a357600080fd5b506040516200446738038062004467833981016040819052620001c6916200064e565b604080518082018252600f81526e151bdade5bc815195cdd0811da5c9b608a1b60208083019182528351808501909452600384526254544760e81b90840152815191929162000218916000916200059d565b5080516200022e9060019060208401906200059d565b5050506200024b62000245620002f460201b60201c565b620002f8565b603e80546001600160a01b038089166001600160a01b031992831617909255603f80549288169290911691909117905562000286876200034a565b62000291846200036d565b6200029c8262000399565b620002a781620003c5565b620002b4336001620003dd565b620002c7674563918244f4000062000412565b5050604b80546001600160a01b0319166001600160a01b039290921691909117905550620007e992505050565b3390565b600a80546001600160a01b038381166001600160a01b0319831681179093556040519116919082907f8be0079c531659141344cd1fd0a4f28419497f9722a3daafe3b4186f6b6457e090600090a35050565b620003546200042f565b8051620003699060499060208401906200059d565b5050565b620003776200042f565b604880546001600160a01b0319166001600160a01b0392909216919091179055565b620003a36200042f565b604680546001600160a01b0319166001600160a01b0392909216919091179055565b620003cf6200042f565b620003da8162000491565b50565b620003e76200042f565b6001600160a01b03919091166000908152604f60205260409020805460ff1916911515919091179055565b6200041c6200042f565b600081116200042a57600080fd5b604055565b600a546001600160a01b031633146200048f5760405162461bcd60e51b815260206004820181905260248201527f4f776e61626c653a2063616c6c6572206973206e6f7420746865206f776e657260448201526064015b60405180910390fd5b565b6001600160a01b038116620004fe5760405162461bcd60e51b815260206004820152602c60248201527f526f79616c746965733a206e657720726563697069656e74206973207468652060448201526b7a65726f206164647265737360a01b606482015260840162000486565b604c80546001600160a01b0319166001600160a01b0392909216919091179055565b82601a810192821562000556579160200282015b8281111562000556578251829060ff1690559160200191906001019062000534565b50620005649291506200061a565b5090565b82600a810192821562000556579160200282018281111562000556578251829060ff1690559160200191906001019062000534565b828054620005ab9062000796565b90600052602060002090601f016020900481019282620005cf576000855562000556565b82601f10620005ea57805160ff191683800117855562000556565b8280016001018555821562000556579182015b8281111562000556578251825591602001919060010190620005fd565b5b808211156200056457600081556001016200061b565b80516001600160a01b03811681146200064957600080fd5b919050565b600080600080600080600060e0888a03121562000669578283fd5b87516001600160401b038082111562000680578485fd5b818a0191508a601f83011262000694578485fd5b815181811115620006a957620006a9620007d3565b604051601f8201601f19908116603f01168101908382118183101715620006d457620006d4620007d3565b81604052828152602093508d84848701011115620006f0578788fd5b8791505b82821015620007135784820184015181830185015290830190620006f4565b828211156200072457878484830101525b9a50620007369150508a820162000631565b97505050620007486040890162000631565b9450620007586060890162000631565b9350620007686080890162000631565b92506200077860a0890162000631565b91506200078860c0890162000631565b905092959891949750929550565b600181811c90821680620007ab57607f821691505b60208210811415620007cd57634e487b7160e01b600052602260045260246000fd5b50919050565b634e487b7160e01b600052604160045260246000fd5b613c6e80620007f96000396000f3fe6080604052600436106103ef5760003560e01c80636925022011610208578063b060dd8611610118578063e00cda26116100ab578063f2fde38b1161007a578063f2fde38b14610cdb578063f909a9cf14610cfb578063fd79e7ac14610d28578063ff23d7d314610d48578063ff91078314610d6857600080fd5b8063e00cda2614610c3c578063e985e9c514610c52578063f090e00414610c9b578063f2731f4a14610cc857600080fd5b8063c3ca39f8116100e7578063c3ca39f814610baf578063c4e2676714610bcf578063c87b56dd14610bef578063d066100614610c0f57600080fd5b8063b060dd8614610b3f578063b88d4fde14610b5a578063bd3e19d414610b7a578063c373d7f314610b8f57600080fd5b80638da5cb5b1161019b578063a16e72151161016a578063a16e721514610a82578063a22b36ef14610aa2578063a22cb46514610acf578063a388237d14610aef578063aa15664514610b0f57600080fd5b80638da5cb5b146109ff5780638efab2d514610a1d57806395d89b4114610a4d5780639ec5a89414610a6257600080fd5b806373ae2d78116101d757806373ae2d781461097f5780637a6832a51461099f578063814e1bb8146109bf578063878792d5146109df57600080fd5b8063692502201461090a5780636aa5dd711461092a57806370a082311461094a578063715018a61461096a57600080fd5b80633a7d22bc1161030357806349af0b9411610296578063562d412f11610265578063562d412f1461085d57806358d70d741461088a5780635c5ac79a146108aa5780636352211e146108ca578063690d1ca2146108ea57600080fd5b806349af0b94146107d05780634f6ccce7146107fd57806351cff8d91461081d57806355f804b31461083d57600080fd5b806340a3c338116102d257806340a3c3381461072b57806342842e0e14610770578063438b63001461079057806344a0d68a146107b057600080fd5b80633a7d22bc146106915780633c010930146106be5780633f1ed709146106de5780633f74c596146106fe57600080fd5b806312cbd705116103865780632267716c116103555780632267716c146105d257806323b872dd146105f25780632a55205a146106125780632a9e63c6146106515780632f745c591461067157600080fd5b806312cbd70514610535578063150b7a021461056557806318160ddd1461059e5780631c8a76c5146105bd57600080fd5b806308e6981e116103c257806308e6981e146104a5578063095ea7b3146104c55780630b689417146104e55780630f3b899b1461051557600080fd5b806301ffc9a7146103f457806306fdde0314610429578063081812fc1461044b57806308834ee714610483575b600080fd5b34801561040057600080fd5b5061041461040f3660046137ee565b610d88565b60405190151581526020015b60405180910390f35b34801561043557600080fd5b5061043e610db3565b60405161042091906139e8565b34801561045757600080fd5b5061046b61046636600461386c565b610e45565b6040516001600160a01b039091168152602001610420565b34801561048f57600080fd5b506104a361049e366004613619565b610e6c565b005b3480156104b157600080fd5b506104a36104c03660046138e1565b610e96565b3480156104d157600080fd5b506104a36104e0366004613773565b610f61565b3480156104f157600080fd5b5061041461050036600461386c565b6000908152604e602052604090205460ff1690565b34801561052157600080fd5b5060475461046b906001600160a01b031681565b34801561054157600080fd5b50610414610550366004613619565b604d6020526000908152604090205460ff1681565b34801561057157600080fd5b506105856105803660046136c9565b61107c565b6040516001600160e01b03199091168152602001610420565b3480156105aa57600080fd5b506008545b604051908152602001610420565b3480156105c957600080fd5b506105af61108d565b3480156105de57600080fd5b5060485461046b906001600160a01b031681565b3480156105fe57600080fd5b506104a361060d366004613689565b6110b0565b34801561061e57600080fd5b5061063261062d3660046138c0565b611144565b604080516001600160a01b039093168352602083019190915201610420565b34801561065d57600080fd5b506104a361066c366004613619565b611166565b34801561067d57600080fd5b506105af61068c366004613773565b61117a565b34801561069d57600080fd5b506105af6106ac36600461386c565b6000908152600d602052604090205490565b3480156106ca57600080fd5b506105af6106d93660046138c0565b611210565b3480156106ea57600080fd5b506104a36106f936600461389c565b61130b565b34801561070a57600080fd5b5061071e6107193660046138c0565b61139f565b60405161042091906139a4565b34801561073757600080fd5b5061074b61074636600461386c565b611431565b604080516001600160a01b039094168452911515602084015290820152606001610420565b34801561077c57600080fd5b506104a361078b366004613689565b61146a565b34801561079c57600080fd5b5061071e6107ab366004613619565b611485565b3480156107bc57600080fd5b506104a36107cb36600461386c565b611543565b3480156107dc57600080fd5b506105af6107eb36600461386c565b60446020526000908152604090205481565b34801561080957600080fd5b506105af61081836600461386c565b61155d565b34801561082957600080fd5b506104a3610838366004613619565b6115fe565b34801561084957600080fd5b506104a3610858366004613826565b61167e565b34801561086957600080fd5b506105af61087836600461386c565b600c6020526000908152604090205481565b34801561089657600080fd5b5060455461046b906001600160a01b031681565b3480156108b657600080fd5b50603f5461046b906001600160a01b031681565b3480156108d657600080fd5b5061046b6108e536600461386c565b61169d565b3480156108f657600080fd5b506104a3610905366004613619565b6116fd565b34801561091657600080fd5b506104a36109253660046138c0565b611729565b34801561093657600080fd5b506104a36109453660046138c0565b611919565b34801561095657600080fd5b506105af610965366004613619565b6119f8565b34801561097657600080fd5b506104a3611a7e565b34801561098b57600080fd5b5061071e61099a3660046138c0565b611a92565b3480156109ab57600080fd5b506104a36109ba366004613619565b611cdd565b3480156109cb57600080fd5b506105af6109da36600461386c565b611d07565b3480156109eb57600080fd5b506104a36109fa366004613619565b611d1e565b348015610a0b57600080fd5b50600a546001600160a01b031661046b565b348015610a2957600080fd5b50610414610a3836600461386c565b604e6020526000908152604090205460ff1681565b348015610a5957600080fd5b5061043e611d48565b348015610a6e57600080fd5b5060465461046b906001600160a01b031681565b348015610a8e57600080fd5b506104a3610a9d3660046138c0565b611d57565b348015610aae57600080fd5b506105af610abd36600461386c565b6000908152600c602052604090205490565b348015610adb57600080fd5b506104a3610aea366004613746565b611daf565b348015610afb57600080fd5b506104a3610b0a366004613619565b611dba565b348015610b1b57600080fd5b50610414610b2a366004613619565b604f6020526000908152604090205460ff1681565b348015610b4b57600080fd5b5061058563152a902d60e11b81565b348015610b6657600080fd5b506104a3610b753660046136c9565b611de4565b348015610b8657600080fd5b506040546105af565b348015610b9b57600080fd5b506104a3610baa366004613746565b611e7a565b348015610bbb57600080fd5b506105af610bca3660046138c0565b611ead565b348015610bdb57600080fd5b506105af610bea36600461386c565b611fb6565b348015610bfb57600080fd5b5061043e610c0a36600461386c565b611fc6565b348015610c1b57600080fd5b506105af610c2a36600461386c565b6000908152600b602052604090205490565b348015610c4857600080fd5b506105af60425481565b348015610c5e57600080fd5b50610414610c6d366004613651565b6001600160a01b03918216600090815260056020908152604080832093909416825291909152205460ff1690565b348015610ca757600080fd5b506105af610cb636600461386c565b600d6020526000908152604090205481565b6104a3610cd63660046137ba565b6120a0565b348015610ce757600080fd5b506104a3610cf6366004613619565b612584565b348015610d0757600080fd5b506105af610d1636600461386c565b600b6020526000908152604090205481565b348015610d3457600080fd5b506105af610d4336600461386c565b6125fa565b348015610d5457600080fd5b506105af610d6336600461386c565b61260a565b348015610d7457600080fd5b50603e5461046b906001600160a01b031681565b60006001600160e01b0319821663152a902d60e11b1480610dad5750610dad82612626565b92915050565b606060008054610dc290613b7d565b80601f0160208091040260200160405190810160405280929190818152602001828054610dee90613b7d565b8015610e3b5780601f10610e1057610100808354040283529160200191610e3b565b820191906000526020600020905b815481529060010190602001808311610e1e57829003601f168201915b5050505050905090565b6000610e508261264b565b506000908152600460205260409020546001600160a01b031690565b610e746126aa565b604880546001600160a01b0319166001600160a01b0392909216919091179055565b610e9e6126aa565b6000838152600b60209081526040808320859055600d9091529020819055604854604051632b017cb760e01b8152600481018590526001600160a01b0390911690632b017cb790602401600060405180830381600087803b158015610f0257600080fd5b505af1158015610f16573d6000803e3d6000fd5b505060408051868152602081018690529081018490527fd61e1c6078dbe8c00ff44edafbf29b5084c488aadbbf8d84f3b95c1ea3c1438c9250606001905060405180910390a1505050565b6000610f6c8261169d565b9050806001600160a01b0316836001600160a01b03161415610fdf5760405162461bcd60e51b815260206004820152602160248201527f4552433732313a20617070726f76616c20746f2063757272656e74206f776e656044820152603960f91b60648201526084015b60405180910390fd5b336001600160a01b0382161480610ffb5750610ffb8133610c6d565b61106d5760405162461bcd60e51b815260206004820152603d60248201527f4552433732313a20617070726f76652063616c6c6572206973206e6f7420746f60448201527f6b656e206f776e6572206f7220617070726f76656420666f7220616c6c0000006064820152608401610fd6565b6110778383612704565b505050565b630a85bd0160e11b5b949350505050565b600060646041546040546110a19190613b1b565b6110ab9190613afb565b905090565b6110ba3382612772565b6110d65760405162461bcd60e51b8152600401610fd690613a92565b6110e18383836127f0565b60475460405163add058fd60e01b8152600481018390526001600160a01b039091169063add058fd90602401600060405180830381600087803b15801561112757600080fd5b505af115801561113b573d6000803e3d6000fd5b50505050505050565b604c546001600160a01b0316600061115d601484613afb565b90509250929050565b61116e6126aa565b61117781612961565b50565b6000611185836119f8565b82106111e75760405162461bcd60e51b815260206004820152602b60248201527f455243373231456e756d657261626c653a206f776e657220696e646578206f7560448201526a74206f6620626f756e647360a81b6064820152608401610fd6565b506001600160a01b03919091166000908152600660209081526040808320938352929052205490565b6000600182101580156112255750600e548211155b6112825760405162461bcd60e51b815260206004820152602860248201527f557067726164653a20746f54696572206d757374206265206265747765656e206044820152673120616e6420323560c01b6064820152608401610fd6565b6000838152600c602052604090205482116112fa5760405162461bcd60e51b815260206004820152603260248201527f557067726164653a20746f54696572206d7573742062652067726561746572206044820152711d1a185b8818dd5c9c995b9d081b195d995b60721b6064820152608401610fd6565b6113048383611ead565b9392505050565b336000908152604d602052604090205460ff168061133357506047546001600160a01b031633145b61137f5760405162461bcd60e51b815260206004820152601d60248201527f4769726c3a206f6e6c79204553206f72204174742063616e2063616c6c0000006044820152606401610fd6565b6000918252604e6020526040909120805460ff1916911515919091179055565b6000828152600b6020526040902054606090821180156113c05750600a8211155b6114275760405162461bcd60e51b815260206004820152603260248201527f557067726164653a2074696572206d757374206265206265747765656e20637560448201527107272656e74206c6576656c20616e642031360741b6064820152608401610fd6565b6113048383611a92565b600080600061143f8461169d565b6000948552604e6020908152604080872054600d90925290952054909560ff90951694909350915050565b6110e183838360405180602001604052806000815250611de4565b60606000611492836119f8565b905060008167ffffffffffffffff8111156114bd57634e487b7160e01b600052604160045260246000fd5b6040519080825280602002602001820160405280156114e6578160200160208202803683370190505b50905060005b8281101561153b576114fe858261117a565b82828151811061151e57634e487b7160e01b600052603260045260246000fd5b60209081029190910101528061153381613bb8565b9150506114ec565b509392505050565b61154b6126aa565b6000811161155857600080fd5b604055565b600061156860085490565b82106115cb5760405162461bcd60e51b815260206004820152602c60248201527f455243373231456e756d657261626c653a20676c6f62616c20696e646578206f60448201526b7574206f6620626f756e647360a01b6064820152608401610fd6565b600882815481106115ec57634e487b7160e01b600052603260045260246000fd5b90600052602060002001549050919050565b6116066126aa565b604b5447906001600160a01b03166108fc611620836129ee565b6040518115909202916000818181858888f19350505050158015611648573d6000803e3d6000fd5b506040516001600160a01b038316904780156108fc02916000818181858888f19350505050158015611077573d6000803e3d6000fd5b6116866126aa565b805161169990604990602084019061350a565b5050565b6000818152600260205260408120546001600160a01b031680610dad5760405162461bcd60e51b8152602060048201526018602482015277115490cdcc8c4e881a5b9d985b1a59081d1bdad95b88125160421b6044820152606401610fd6565b6117056126aa565b6001600160a01b03166000908152604d60205260409020805460ff19166001179055565b6045546001600160a01b031633146117975760405162461bcd60e51b815260206004820152602b60248201527f4769726c3a206f6e6c79206d6f6f6e73746f6e652063616e207570677261646560448201526a2067616d657273636f726560a81b6064820152608401610fd6565b6000828152600c6020908152604080832054600b9092529182902054604854925163b3c9524b60e01b815260048101869052919290916001600160a01b039091169063b3c9524b90602401600060405180830381600087803b1580156117fc57600080fd5b505af1158015611810573d6000803e3d6000fd5b5050505061181e8484612a0a565b604854604051632d7f86bb60e11b81526004810186905260248101849052604481018390526001600160a01b0390911690635aff0d7690606401600060405180830381600087803b15801561187257600080fd5b505af1158015611886573d6000803e3d6000fd5b50505050604660009054906101000a90046001600160a01b03166001600160a01b03166355f72b7b6040518163ffffffff1660e01b8152600401602060405180830381600087803b1580156118da57600080fd5b505af11580156118ee573d6000803e3d6000fd5b505050506040513d601f19601f82011682018060405250810190611912919061379e565b5050505050565b336000908152604d602052604090205460ff166119715760405162461bcd60e51b815260206004820152601660248201527511da5c9b0e881bdb9b1e481154c818d85b8818d85b1b60521b6044820152606401610fd6565b6000828152600c6020908152604080832054600b9092529182902054604854925163b3c9524b60e01b815260048101869052919290916001600160a01b039091169063b3c9524b90602401600060405180830381600087803b1580156119d657600080fd5b505af11580156119ea573d6000803e3d6000fd5b5050505061181e8484612a52565b60006001600160a01b038216611a625760405162461bcd60e51b815260206004820152602960248201527f4552433732313a2061646472657373207a65726f206973206e6f7420612076616044820152683634b21037bbb732b960b91b6064820152608401610fd6565b506001600160a01b031660009081526003602052604090205490565b611a866126aa565b611a906000612a9a565b565b6060600f54821115611ae65760405162461bcd60e51b815260206004820152601f60248201527f557067726164653a204d617820636f736d6963206c6576656c206973203130006044820152606401610fd6565b6000838152600b6020526040902054600f548110611b505760405162461bcd60e51b815260206004820152602160248201527f557067726164653a20636f736d6963206c6576656c20616c7265616479206d616044820152600f60fb1b6064820152608401610fd6565b6000848152600d602052604080822054815160038082526080820190935290929181602001602082028036833701905050905060008080611b92866001613ae3565b90505b878111611c1e57602a611ba9600183613b3a565b600a8110611bc757634e487b7160e01b600052603260045260246000fd5b0154611bd39084613ae3565b92506034611be2600183613b3a565b600a8110611c0057634e487b7160e01b600052603260045260246000fd5b0154611c0c9083613ae3565b9150611c1781613bb8565b9050611b95565b508183611c2c600187613b3a565b81518110611c4a57634e487b7160e01b600052603260045260246000fd5b60200260200101818152505060005b8351811015611cd057838181518110611c8257634e487b7160e01b600052603260045260246000fd5b602002602001015160001415611cc05781848281518110611cb357634e487b7160e01b600052603260045260246000fd5b6020026020010181815250505b611cc981613bb8565b9050611c59565b5091979650505050505050565b611ce56126aa565b604580546001600160a01b0319166001600160a01b0392909216919091179055565b601081601a8110611d1757600080fd5b0154905081565b611d266126aa565b604680546001600160a01b0319166001600160a01b0392909216919091179055565b606060018054610dc290613b7d565b611d5f6126aa565b6000828152600d602090815260409182902083905581518481529081018390527fe9d2aa95a8bcda1481b0316470d5993a8d561039f5db3f8222f8d526e03c0a1b91015b60405180910390a15050565b611699338383612aec565b611dc26126aa565b604780546001600160a01b0319166001600160a01b0392909216919091179055565b611dee3383612772565b611e0a5760405162461bcd60e51b8152600401610fd690613a92565b611e1684848484612bbb565b60475460405163add058fd60e01b8152600481018490526001600160a01b039091169063add058fd90602401600060405180830381600087803b158015611e5c57600080fd5b505af1158015611e70573d6000803e3d6000fd5b5050505050505050565b611e826126aa565b6001600160a01b03919091166000908152604f60205260409020805460ff1916911515919091179055565b6000600e54821115611f015760405162461bcd60e51b815260206004820152601e60248201527f557067726164653a204d61782073636f7265206973206c6576656c20323500006044820152606401610fd6565b6000838152600c6020526040902054600e548110611f615760405162461bcd60e51b815260206004820152601f60248201527f557067726164653a204769726c20616c7265616479206d6178206c6576656c006044820152606401610fd6565b6000815b848111611fad57601081601a8110611f8d57634e487b7160e01b600052603260045260246000fd5b0154611f999083613ae3565b915080611fa581613bb8565b915050611f65565b50949350505050565b603481600a8110611d1757600080fd5b6000818152600260205260409020546060906001600160a01b03166120455760405162461bcd60e51b815260206004820152602f60248201527f4552433732314d657461646174613a2055524920717565727920666f72206e6f60448201526e3732bc34b9ba32b73a103a37b5b2b760891b6064820152608401610fd6565b600061204f612bf4565b9050600081511161206f5760405180602001604052806000815250611304565b8061207984612c03565b60405160200161208a929190613938565b6040516020818303038152906040529392505050565b3360006120ac60085490565b905060006120bb826001613ae3565b90506000600185101580156120d1575060058511155b61211d5760405162461bcd60e51b815260206004820152601860248201527f4769726c3a20616d6f756e74203120746f2035206f6e6c7900000000000000006044820152606401610fd6565b604a5461212a8685613ae3565b11156121695760405162461bcd60e51b815260206004820152600e60248201526d11da5c9b0e881cdbdb19081bdd5d60921b6044820152606401610fd6565b86156124b857603e546040516331a9108f60e11b8152600481018890526001600160a01b03868116921690636352211e9060240160206040518083038186803b1580156121b557600080fd5b505afa1580156121c9573d6000803e3d6000fd5b505050506040513d601f19601f820116820180604052508101906121ed9190613635565b6001600160a01b0316146122395760405162461bcd60e51b815260206004820152601360248201527223b4b9361d103737ba1037b9311037bbb732b960691b6044820152606401610fd6565b6122428661260a565b8511156122915760405162461bcd60e51b815260206004820152601f60248201527f4769726c3a20616d6f756e74206d757374206265203c3d2063686172676573006044820152606401610fd6565b8461229a61108d565b6122a49190613b1b565b3410156122ee5760405162461bcd60e51b81526020600482015260186024820152774769726c3a2073656e6420636f727265637420707269636560401b6044820152606401610fd6565b60005b858110156124b25761230287612ca6565b91508160061461244557603e546040516323b872dd60e01b81526001600160a01b038781166004830152306024830152604482018a9052909116906323b872dd90606401600060405180830381600087803b15801561236057600080fd5b505af1158015612374573d6000803e3d6000fd5b5050603e546040516331a9108f60e11b8152600481018b90523093506001600160a01b039091169150636352211e9060240160206040518083038186803b1580156123be57600080fd5b505afa1580156123d2573d6000803e3d6000fd5b505050506040513d601f19601f820116820180604052508101906123f69190613635565b6001600160a01b0316146124455760405162461bcd60e51b815260206004820152601660248201527511da5c9b0e881bdc98881b9bdd081c9958da595d995960521b6044820152606401610fd6565b612458856124538386613ae3565b612d77565b818815156124668386613ae3565b6040516001600160a01b03891681527f1f1fc7f871c5573b0f1fde9f6e1f67d93527049f30fde62e53af0333b35839229060200160405180910390a46124ab81613bb8565b90506122f1565b5061113b565b846040546124c69190613b1b565b3410156125105760405162461bcd60e51b81526020600482015260186024820152774769726c3a2073656e6420636f727265637420707269636560401b6044820152606401610fd6565b60005b85811015611e7057612529856124538386613ae3565b60068815156125388386613ae3565b6040516001600160a01b03891681527f1f1fc7f871c5573b0f1fde9f6e1f67d93527049f30fde62e53af0333b35839229060200160405180910390a461257d81613bb8565b9050612513565b61258c6126aa565b6001600160a01b0381166125f15760405162461bcd60e51b815260206004820152602660248201527f4f776e61626c653a206e6577206f776e657220697320746865207a65726f206160448201526564647265737360d01b6064820152608401610fd6565b61117781612a9a565b602a81600a8110611d1757600080fd5b600081815260446020526040812054604254610dad9190613b3a565b60006001600160e01b0319821663780e9d6360e01b1480610dad5750610dad82612d91565b6000818152600260205260409020546001600160a01b03166111775760405162461bcd60e51b8152602060048201526018602482015277115490cdcc8c4e881a5b9d985b1a59081d1bdad95b88125160421b6044820152606401610fd6565b600a546001600160a01b03163314611a905760405162461bcd60e51b815260206004820181905260248201527f4f776e61626c653a2063616c6c6572206973206e6f7420746865206f776e65726044820152606401610fd6565b600081815260046020526040902080546001600160a01b0319166001600160a01b03841690811790915581906127398261169d565b6001600160a01b03167f8c5be1e5ebec7d5bd14f71427d1e84f3dd0314c0f7b2291e5b200ac8c7c3b92560405160405180910390a45050565b60008061277e8361169d565b9050806001600160a01b0316846001600160a01b031614806127c557506001600160a01b0380821660009081526005602090815260408083209388168352929052205460ff165b806110855750836001600160a01b03166127de84610e45565b6001600160a01b031614949350505050565b826001600160a01b03166128038261169d565b6001600160a01b0316146128295760405162461bcd60e51b8152600401610fd690613a4d565b6001600160a01b03821661288b5760405162461bcd60e51b8152602060048201526024808201527f4552433732313a207472616e7366657220746f20746865207a65726f206164646044820152637265737360e01b6064820152608401610fd6565b6128988383836001612de1565b826001600160a01b03166128ab8261169d565b6001600160a01b0316146128d15760405162461bcd60e51b8152600401610fd690613a4d565b600081815260046020908152604080832080546001600160a01b03199081169091556001600160a01b0387811680865260038552838620805460001901905590871680865283862080546001019055868652600290945282852080549092168417909155905184937fddf252ad1be2c89b69c2b068fc378daa952ba7f163c4a11628f55a4df523b3ef91a4505050565b6001600160a01b0381166129cc5760405162461bcd60e51b815260206004820152602c60248201527f526f79616c746965733a206e657720726563697069656e74206973207468652060448201526b7a65726f206164647265737360a01b6064820152608401610fd6565b604c80546001600160a01b0319166001600160a01b0392909216919091179055565b6000606460435483612a009190613b1b565b610dad9190613afb565b6000828152600c602090815260409182902083905581518481529081018390527f866cfb7bcf22266717dccfb6e13d4a8aaf393c0bc2c147cf9df1b747e00370029101611da3565b6000828152600b602090815260409182902083905581518481529081018390527f56bd88bf537c8134d681abc094b975697025d38f1a7e20c408f3b5e6b4df40b79101611da3565b600a80546001600160a01b038381166001600160a01b0319831681179093556040519116919082907f8be0079c531659141344cd1fd0a4f28419497f9722a3daafe3b4186f6b6457e090600090a35050565b816001600160a01b0316836001600160a01b03161415612b4e5760405162461bcd60e51b815260206004820152601960248201527f4552433732313a20617070726f766520746f2063616c6c6572000000000000006044820152606401610fd6565b6001600160a01b03838116600081815260056020908152604080832094871680845294825291829020805460ff191686151590811790915591519182527f17307eab39ab6107e8899845ad3d59bd9653f200f220920489ca2b5937696c31910160405180910390a3505050565b612bc68484846127f0565b612bd284848484612f1a565b612bee5760405162461bcd60e51b8152600401610fd6906139fb565b50505050565b606060498054610dc290613b7d565b60606000612c1083613024565b600101905060008167ffffffffffffffff811115612c3e57634e487b7160e01b600052604160045260246000fd5b6040519080825280601f01601f191660200182016040528015612c68576020820181803683370190505b5090508181016020015b600019016f181899199a1a9b1b9c1cb0b131b232b360811b600a86061a8153600a8504945084612ca15761153b565b612c72565b600081815260446020526040812054600511612cc157600080fd5b60008281526044602052604081208054909190612cdd90613bb8565b9091555060008281526044602052604090205460069060051415610dad57603f54604051634875869760e01b8152600481018590526001600160a01b039091169063487586979060240160206040518083038186803b158015612d3f57600080fd5b505afa158015612d53573d6000803e3d6000fd5b505050506040513d601f19601f820116820180604052508101906113049190613884565b6116998282604051806020016040528060008152506130fc565b60006001600160e01b031982166380ac58cd60e01b1480612dc257506001600160e01b03198216635b5e139f60e01b145b80610dad57506301ffc9a760e01b6001600160e01b0319831614610dad565b612ded8484848461312f565b6001811115612e5c5760405162461bcd60e51b815260206004820152603560248201527f455243373231456e756d657261626c653a20636f6e7365637574697665207472604482015274185b9cd9995c9cc81b9bdd081cdd5c1c1bdc9d1959605a1b6064820152608401610fd6565b816001600160a01b038516612eb857612eb381600880546000838152600960205260408120829055600182018355919091527ff3f7a9fe364faab93b216da50a3214154f22a0a2b415b23a84c8169e8b636ee30155565b612edb565b836001600160a01b0316856001600160a01b031614612edb57612edb85826131b7565b6001600160a01b038416612ef757612ef281613254565b611912565b846001600160a01b0316846001600160a01b03161461191257611912848261332d565b60006001600160a01b0384163b1561301c57604051630a85bd0160e11b81526001600160a01b0385169063150b7a0290612f5e903390899088908890600401613967565b602060405180830381600087803b158015612f7857600080fd5b505af1925050508015612fa8575060408051601f3d908101601f19168201909252612fa59181019061380a565b60015b613002573d808015612fd6576040519150601f19603f3d011682016040523d82523d6000602084013e612fdb565b606091505b508051612ffa5760405162461bcd60e51b8152600401610fd6906139fb565b805181602001fd5b6001600160e01b031916630a85bd0160e11b149050611085565b506001611085565b60008072184f03e93ff9f4daa797ed6e38ed64bf6a1f0160401b83106130635772184f03e93ff9f4daa797ed6e38ed64bf6a1f0160401b830492506040015b6d04ee2d6d415b85acef8100000000831061308f576d04ee2d6d415b85acef8100000000830492506020015b662386f26fc1000083106130ad57662386f26fc10000830492506010015b6305f5e10083106130c5576305f5e100830492506008015b61271083106130d957612710830492506004015b606483106130eb576064830492506002015b600a8310610dad5760010192915050565b6131068383613371565b6131136000848484612f1a565b6110775760405162461bcd60e51b8152600401610fd6906139fb565b6001811115612bee576001600160a01b03841615613175576001600160a01b0384166000908152600360205260408120805483929061316f908490613b3a565b90915550505b6001600160a01b03831615612bee576001600160a01b038316600090815260036020526040812080548392906131ac908490613ae3565b909155505050505050565b600060016131c4846119f8565b6131ce9190613b3a565b600083815260076020526040902054909150808214613221576001600160a01b03841660009081526006602090815260408083208584528252808320548484528184208190558352600790915290208190555b5060009182526007602090815260408084208490556001600160a01b039094168352600681528383209183525290812055565b60085460009061326690600190613b3a565b6000838152600960205260408120546008805493945090928490811061329c57634e487b7160e01b600052603260045260246000fd5b9060005260206000200154905080600883815481106132cb57634e487b7160e01b600052603260045260246000fd5b600091825260208083209091019290925582815260099091526040808220849055858252812055600880548061331157634e487b7160e01b600052603160045260246000fd5b6001900381819060005260206000200160009055905550505050565b6000613338836119f8565b6001600160a01b039093166000908152600660209081526040808320868452825280832085905593825260079052919091209190915550565b6001600160a01b0382166133c75760405162461bcd60e51b815260206004820181905260248201527f4552433732313a206d696e7420746f20746865207a65726f20616464726573736044820152606401610fd6565b6000818152600260205260409020546001600160a01b03161561342c5760405162461bcd60e51b815260206004820152601c60248201527f4552433732313a20746f6b656e20616c7265616479206d696e746564000000006044820152606401610fd6565b61343a600083836001612de1565b6000818152600260205260409020546001600160a01b03161561349f5760405162461bcd60e51b815260206004820152601c60248201527f4552433732313a20746f6b656e20616c7265616479206d696e746564000000006044820152606401610fd6565b6001600160a01b038216600081815260036020908152604080832080546001019055848352600290915280822080546001600160a01b0319168417905551839291907fddf252ad1be2c89b69c2b068fc378daa952ba7f163c4a11628f55a4df523b3ef908290a45050565b82805461351690613b7d565b90600052602060002090601f016020900481019282613538576000855561357e565b82601f1061355157805160ff191683800117855561357e565b8280016001018555821561357e579182015b8281111561357e578251825591602001919060010190613563565b5061358a92915061358e565b5090565b5b8082111561358a576000815560010161358f565b600067ffffffffffffffff808411156135be576135be613be9565b604051601f8501601f19908116603f011681019082821181831017156135e6576135e6613be9565b816040528093508581528686860111156135ff57600080fd5b858560208301376000602087830101525050509392505050565b60006020828403121561362a578081fd5b813561130481613bff565b600060208284031215613646578081fd5b815161130481613bff565b60008060408385031215613663578081fd5b823561366e81613bff565b9150602083013561367e81613bff565b809150509250929050565b60008060006060848603121561369d578081fd5b83356136a881613bff565b925060208401356136b881613bff565b929592945050506040919091013590565b600080600080608085870312156136de578081fd5b84356136e981613bff565b935060208501356136f981613bff565b925060408501359150606085013567ffffffffffffffff81111561371b578182fd5b8501601f8101871361372b578182fd5b61373a878235602084016135a3565b91505092959194509250565b60008060408385031215613758578182fd5b823561376381613bff565b9150602083013561367e81613c14565b60008060408385031215613785578182fd5b823561379081613bff565b946020939093013593505050565b6000602082840312156137af578081fd5b815161130481613c14565b6000806000606084860312156137ce578283fd5b83356137d981613c14565b95602085013595506040909401359392505050565b6000602082840312156137ff578081fd5b813561130481613c22565b60006020828403121561381b578081fd5b815161130481613c22565b600060208284031215613837578081fd5b813567ffffffffffffffff81111561384d578182fd5b8201601f8101841361385d578182fd5b611085848235602084016135a3565b60006020828403121561387d578081fd5b5035919050565b600060208284031215613895578081fd5b5051919050565b600080604083850312156138ae578182fd5b82359150602083013561367e81613c14565b600080604083850312156138d2578182fd5b50508035926020909101359150565b6000806000606084860312156138f5578081fd5b505081359360208301359350604090920135919050565b60008151808452613924816020860160208601613b51565b601f01601f19169290920160200192915050565b6000835161394a818460208801613b51565b83519083019061395e818360208801613b51565b01949350505050565b6001600160a01b038581168252841660208201526040810183905260806060820181905260009061399a9083018461390c565b9695505050505050565b6020808252825182820181905260009190848201906040850190845b818110156139dc578351835292840192918401916001016139c0565b50909695505050505050565b602081526000611304602083018461390c565b60208082526032908201527f4552433732313a207472616e7366657220746f206e6f6e20455243373231526560408201527131b2b4bb32b91034b6b83632b6b2b73a32b960711b606082015260800190565b60208082526025908201527f4552433732313a207472616e736665722066726f6d20696e636f72726563742060408201526437bbb732b960d91b606082015260800190565b60208082526031908201527f4552433732313a207472616e736665722063616c6c6572206973206e6f74206f6040820152701ddb995c881b9bdc88185c1c1c9bdd9959607a1b606082015260800190565b60008219821115613af657613af6613bd3565b500190565b600082613b1657634e487b7160e01b81526012600452602481fd5b500490565b6000816000190483118215151615613b3557613b35613bd3565b500290565b600082821015613b4c57613b4c613bd3565b500390565b60005b83811015613b6c578181015183820152602001613b54565b83811115612bee5750506000910152565b600181811c90821680613b9157607f821691505b60208210811415613bb257634e487b7160e01b600052602260045260246000fd5b50919050565b6000600019821415613bcc57613bcc613bd3565b5060010190565b634e487b7160e01b600052601160045260246000fd5b634e487b7160e01b600052604160045260246000fd5b6001600160a01b038116811461117757600080fd5b801515811461117757600080fd5b6001600160e01b03198116811461117757600080fdfea264697066735822122001941e26aa8a701a4d0a055fe938b58904dcfa444d28a82b7a209ea66216b94264736f6c63430008040033",
  "linkReferences": {},
  "deployedLinkReferences": {}
}