{
  "_format": "hh-sol-artifact-1",
  "contractName": "Girl",
  "sourceName": "contracts/Girl/Girl.sol",
  "abi": [
    {
      "inputs": [
        {
          "internalType": "string",
          "name": "_initBaseURI",
          "type": "string"
        },
        {
          "internalType": "address",
          "name": "_orb",
          "type": "address"
        },
        {
          "internalType": "address",
          "name": "_orbRarity",
          "type": "address"
        },
        {
          "internalType": "address",
          "name": "_emissions",
          "type": "address"
        },
        {
          "internalType": "address payable",
          "name": "_dev",
          "type": "address"
        }
      ],
      "stateMutability": "nonpayable",
      "type": "constructor"
    },
    {
      "anonymous": false,
      "inputs": [
        {
          "indexed": true,
          "internalType": "address",
          "name": "owner",
          "type": "address"
        },
        {
          "indexed": true,
          "internalType": "address",
          "name": "approved",
          "type": "address"
        },
        {
          "indexed": true,
          "internalType": "uint256",
          "name": "tokenId",
          "type": "uint256"
        }
      ],
      "name": "Approval",
      "type": "event"
    },
    {
      "anonymous": false,
      "inputs": [
        {
          "indexed": true,
          "internalType": "address",
          "name": "owner",
          "type": "address"
        },
        {
          "indexed": true,
          "internalType": "address",
          "name": "operator",
          "type": "address"
        },
        {
          "indexed": false,
          "internalType": "bool",
          "name": "approved",
          "type": "bool"
        }
      ],
      "name": "ApprovalForAll",
      "type": "event"
    },
    {
      "anonymous": false,
      "inputs": [
        {
          "indexed": false,
          "internalType": "uint256",
          "name": "id",
          "type": "uint256"
        },
        {
          "indexed": false,
          "internalType": "uint256",
          "name": "newLevel",
          "type": "uint256"
        }
      ],
      "name": "CosmicLevelChanged",
      "type": "event"
    },
    {
      "anonymous": false,
      "inputs": [
        {
          "indexed": false,
          "internalType": "uint256",
          "name": "id",
          "type": "uint256"
        },
        {
          "indexed": false,
          "internalType": "uint256",
          "name": "element",
          "type": "uint256"
        }
      ],
      "name": "ElementChanged",
      "type": "event"
    },
    {
      "anonymous": false,
      "inputs": [
        {
          "indexed": false,
          "internalType": "uint256",
          "name": "id",
          "type": "uint256"
        },
        {
          "indexed": false,
          "internalType": "uint256",
          "name": "newScore",
          "type": "uint256"
        }
      ],
      "name": "GamerScoreChanged",
      "type": "event"
    },
    {
      "anonymous": false,
      "inputs": [
        {
          "indexed": false,
          "internalType": "address",
          "name": "minter",
          "type": "address"
        },
        {
          "indexed": false,
          "internalType": "uint256",
          "name": "id",
          "type": "uint256"
        },
        {
          "indexed": false,
          "internalType": "uint256",
          "name": "cl",
          "type": "uint256"
        },
        {
          "indexed": false,
          "internalType": "uint256",
          "name": "el",
          "type": "uint256"
        }
      ],
      "name": "Minted",
      "type": "event"
    },
    {
      "anonymous": false,
      "inputs": [
        {
          "indexed": true,
          "internalType": "address",
          "name": "previousOwner",
          "type": "address"
        },
        {
          "indexed": true,
          "internalType": "address",
          "name": "newOwner",
          "type": "address"
        }
      ],
      "name": "OwnershipTransferred",
      "type": "event"
    },
    {
      "anonymous": false,
      "inputs": [
        {
          "indexed": true,
          "internalType": "address",
          "name": "from",
          "type": "address"
        },
        {
          "indexed": true,
          "internalType": "address",
          "name": "to",
          "type": "address"
        },
        {
          "indexed": true,
          "internalType": "uint256",
          "name": "tokenId",
          "type": "uint256"
        }
      ],
      "name": "Transfer",
      "type": "event"
    },
    {
      "inputs": [],
      "name": "INTERFACE_ID_ERC2981",
      "outputs": [
        {
          "internalType": "bytes4",
          "name": "",
          "type": "bytes4"
        }
      ],
      "stateMutability": "view",
      "type": "function"
    },
    {
      "inputs": [
        {
          "internalType": "address",
          "name": "to",
          "type": "address"
        },
        {
          "internalType": "uint256",
          "name": "tokenId",
          "type": "uint256"
        }
      ],
      "name": "approve",
      "outputs": [],
      "stateMutability": "nonpayable",
      "type": "function"
    },
    {
      "inputs": [],
      "name": "attunement",
      "outputs": [
        {
          "internalType": "contract IAttunement",
          "name": "",
          "type": "address"
        }
      ],
      "stateMutability": "view",
      "type": "function"
    },
    {
      "inputs": [
        {
          "internalType": "address",
          "name": "owner",
          "type": "address"
        }
      ],
      "name": "balanceOf",
      "outputs": [
        {
          "internalType": "uint256",
          "name": "",
          "type": "uint256"
        }
      ],
      "stateMutability": "view",
      "type": "function"
    },
    {
      "inputs": [
        {
          "internalType": "uint256",
          "name": "id",
          "type": "uint256"
        },
        {
          "internalType": "uint256",
          "name": "toTier",
          "type": "uint256"
        }
      ],
      "name": "calcCosmicLevelUpgradeCost",
      "outputs": [
        {
          "internalType": "uint256[]",
          "name": "",
          "type": "uint256[]"
        }
      ],
      "stateMutability": "view",
      "type": "function"
    },
    {
      "inputs": [
        {
          "internalType": "uint256",
          "name": "id",
          "type": "uint256"
        },
        {
          "internalType": "uint256",
          "name": "toTier",
          "type": "uint256"
        }
      ],
      "name": "calcGamerScoreUpgradeCost",
      "outputs": [
        {
          "internalType": "uint256",
          "name": "",
          "type": "uint256"
        }
      ],
      "stateMutability": "view",
      "type": "function"
    },
    {
      "inputs": [],
      "name": "charges",
      "outputs": [
        {
          "internalType": "uint256",
          "name": "",
          "type": "uint256"
        }
      ],
      "stateMutability": "view",
      "type": "function"
    },
    {
      "inputs": [
        {
          "internalType": "uint256",
          "name": "",
          "type": "uint256"
        }
      ],
      "name": "chargesUsed",
      "outputs": [
        {
          "internalType": "uint256",
          "name": "",
          "type": "uint256"
        }
      ],
      "stateMutability": "view",
      "type": "function"
    },
    {
      "inputs": [
        {
          "internalType": "uint256",
          "name": "girlId",
          "type": "uint256"
        }
      ],
      "name": "checkStake",
      "outputs": [
        {
          "internalType": "address",
          "name": "",
          "type": "address"
        },
        {
          "internalType": "bool",
          "name": "",
          "type": "bool"
        },
        {
          "internalType": "uint256",
          "name": "",
          "type": "uint256"
        }
      ],
      "stateMutability": "view",
      "type": "function"
    },
    {
      "inputs": [
        {
          "internalType": "uint256",
          "name": "",
          "type": "uint256"
        }
      ],
      "name": "cosmicLevel",
      "outputs": [
        {
          "internalType": "uint256",
          "name": "",
          "type": "uint256"
        }
      ],
      "stateMutability": "view",
      "type": "function"
    },
    {
      "inputs": [
        {
          "internalType": "uint256",
          "name": "",
          "type": "uint256"
        }
      ],
      "name": "element",
      "outputs": [
        {
          "internalType": "uint256",
          "name": "",
          "type": "uint256"
        }
      ],
      "stateMutability": "view",
      "type": "function"
    },
    {
      "inputs": [],
      "name": "emissions",
      "outputs": [
        {
          "internalType": "contract IEmissions",
          "name": "",
          "type": "address"
        }
      ],
      "stateMutability": "view",
      "type": "function"
    },
    {
      "inputs": [
        {
          "internalType": "uint256",
          "name": "",
          "type": "uint256"
        }
      ],
      "name": "gamerScore",
      "outputs": [
        {
          "internalType": "uint256",
          "name": "",
          "type": "uint256"
        }
      ],
      "stateMutability": "view",
      "type": "function"
    },
    {
      "inputs": [
        {
          "internalType": "uint256",
          "name": "tokenId",
          "type": "uint256"
        }
      ],
      "name": "getApproved",
      "outputs": [
        {
          "internalType": "address",
          "name": "",
          "type": "address"
        }
      ],
      "stateMutability": "view",
      "type": "function"
    },
    {
      "inputs": [
        {
          "internalType": "uint256",
          "name": "id",
          "type": "uint256"
        }
      ],
      "name": "getChargesRemaining",
      "outputs": [
        {
          "internalType": "uint256",
          "name": "",
          "type": "uint256"
        }
      ],
      "stateMutability": "view",
      "type": "function"
    },
    {
      "inputs": [
        {
          "internalType": "uint256",
          "name": "_id",
          "type": "uint256"
        }
      ],
      "name": "getCosmicLevel",
      "outputs": [
        {
          "internalType": "uint256",
          "name": "",
          "type": "uint256"
        }
      ],
      "stateMutability": "view",
      "type": "function"
    },
    {
      "inputs": [
        {
          "internalType": "uint256",
          "name": "id",
          "type": "uint256"
        },
        {
          "internalType": "uint256",
          "name": "toTier",
          "type": "uint256"
        }
      ],
      "name": "getCosmicLevelUpgradeCost",
      "outputs": [
        {
          "internalType": "uint256[]",
          "name": "",
          "type": "uint256[]"
        }
      ],
      "stateMutability": "view",
      "type": "function"
    },
    {
      "inputs": [],
      "name": "getCost",
      "outputs": [
        {
          "internalType": "uint256",
          "name": "",
          "type": "uint256"
        }
      ],
      "stateMutability": "view",
      "type": "function"
    },
    {
      "inputs": [],
      "name": "getDiscountCost",
      "outputs": [
        {
          "internalType": "uint256",
          "name": "",
          "type": "uint256"
        }
      ],
      "stateMutability": "view",
      "type": "function"
    },
    {
      "inputs": [
        {
          "internalType": "uint256",
          "name": "_id",
          "type": "uint256"
        }
      ],
      "name": "getElement",
      "outputs": [
        {
          "internalType": "uint256",
          "name": "",
          "type": "uint256"
        }
      ],
      "stateMutability": "view",
      "type": "function"
    },
    {
      "inputs": [
        {
          "internalType": "uint256",
          "name": "_id",
          "type": "uint256"
        }
      ],
      "name": "getGamerScore",
      "outputs": [
        {
          "internalType": "uint256",
          "name": "",
          "type": "uint256"
        }
      ],
      "stateMutability": "view",
      "type": "function"
    },
    {
      "inputs": [
        {
          "internalType": "uint256",
          "name": "id",
          "type": "uint256"
        },
        {
          "internalType": "uint256",
          "name": "toTier",
          "type": "uint256"
        }
      ],
      "name": "getGamerScoreUpgradeCost",
      "outputs": [
        {
          "internalType": "uint256",
          "name": "cost",
          "type": "uint256"
        }
      ],
      "stateMutability": "view",
      "type": "function"
    },
    {
      "inputs": [
        {
          "internalType": "uint256",
          "name": "",
          "type": "uint256"
        }
      ],
      "name": "gsUpgradeCosts",
      "outputs": [
        {
          "internalType": "uint256",
          "name": "",
          "type": "uint256"
        }
      ],
      "stateMutability": "view",
      "type": "function"
    },
    {
      "inputs": [
        {
          "internalType": "uint256",
          "name": "id",
          "type": "uint256"
        },
        {
          "internalType": "uint256",
          "name": "toTier",
          "type": "uint256"
        }
      ],
      "name": "handleUpgradeCosmicLevel",
      "outputs": [],
      "stateMutability": "nonpayable",
      "type": "function"
    },
    {
      "inputs": [
        {
          "internalType": "uint256",
          "name": "id",
          "type": "uint256"
        },
        {
          "internalType": "uint256",
          "name": "toTier",
          "type": "uint256"
        }
      ],
      "name": "handleUpgradeGamerScore",
      "outputs": [],
      "stateMutability": "nonpayable",
      "type": "function"
    },
    {
      "inputs": [
        {
          "internalType": "address",
          "name": "owner",
          "type": "address"
        },
        {
          "internalType": "address",
          "name": "operator",
          "type": "address"
        }
      ],
      "name": "isApprovedForAll",
      "outputs": [
        {
          "internalType": "bool",
          "name": "",
          "type": "bool"
        }
      ],
      "stateMutability": "view",
      "type": "function"
    },
    {
      "inputs": [
        {
          "internalType": "address",
          "name": "",
          "type": "address"
        }
      ],
      "name": "isElementalStone",
      "outputs": [
        {
          "internalType": "bool",
          "name": "",
          "type": "bool"
        }
      ],
      "stateMutability": "view",
      "type": "function"
    },
    {
      "inputs": [
        {
          "internalType": "uint256",
          "name": "girlId",
          "type": "uint256"
        }
      ],
      "name": "isPaired",
      "outputs": [
        {
          "internalType": "bool",
          "name": "",
          "type": "bool"
        }
      ],
      "stateMutability": "view",
      "type": "function"
    },
    {
      "inputs": [
        {
          "internalType": "uint256",
          "name": "",
          "type": "uint256"
        }
      ],
      "name": "matchedElementCosts",
      "outputs": [
        {
          "internalType": "uint256",
          "name": "",
          "type": "uint256"
        }
      ],
      "stateMutability": "view",
      "type": "function"
    },
    {
      "inputs": [
        {
          "internalType": "bool",
          "name": "usingOrb",
          "type": "bool"
        },
        {
          "internalType": "uint256",
          "name": "orbId",
          "type": "uint256"
        }
      ],
      "name": "mint",
      "outputs": [],
      "stateMutability": "payable",
      "type": "function"
    },
    {
      "inputs": [
        {
          "internalType": "address",
          "name": "_to",
          "type": "address"
        }
      ],
      "name": "mintDev",
      "outputs": [],
      "stateMutability": "nonpayable",
      "type": "function"
    },
    {
      "inputs": [],
      "name": "moonstone",
      "outputs": [
        {
          "internalType": "contract IERC20",
          "name": "",
          "type": "address"
        }
      ],
      "stateMutability": "view",
      "type": "function"
    },
    {
      "inputs": [],
      "name": "name",
      "outputs": [
        {
          "internalType": "string",
          "name": "",
          "type": "string"
        }
      ],
      "stateMutability": "view",
      "type": "function"
    },
    {
      "inputs": [
        {
          "internalType": "address",
          "name": "",
          "type": "address"
        },
        {
          "internalType": "address",
          "name": "",
          "type": "address"
        },
        {
          "internalType": "uint256",
          "name": "",
          "type": "uint256"
        },
        {
          "internalType": "bytes",
          "name": "",
          "type": "bytes"
        }
      ],
      "name": "onERC721Received",
      "outputs": [
        {
          "internalType": "bytes4",
          "name": "",
          "type": "bytes4"
        }
      ],
      "stateMutability": "nonpayable",
      "type": "function"
    },
    {
      "inputs": [],
      "name": "orb",
      "outputs": [
        {
          "internalType": "contract IERC721",
          "name": "",
          "type": "address"
        }
      ],
      "stateMutability": "view",
      "type": "function"
    },
    {
      "inputs": [],
      "name": "orbRarity",
      "outputs": [
        {
          "internalType": "contract IOrbRarity",
          "name": "",
          "type": "address"
        }
      ],
      "stateMutability": "view",
      "type": "function"
    },
    {
      "inputs": [],
      "name": "owner",
      "outputs": [
        {
          "internalType": "address",
          "name": "",
          "type": "address"
        }
      ],
      "stateMutability": "view",
      "type": "function"
    },
    {
      "inputs": [
        {
          "internalType": "uint256",
          "name": "tokenId",
          "type": "uint256"
        }
      ],
      "name": "ownerOf",
      "outputs": [
        {
          "internalType": "address",
          "name": "",
          "type": "address"
        }
      ],
      "stateMutability": "view",
      "type": "function"
    },
    {
      "inputs": [
        {
          "internalType": "uint256",
          "name": "",
          "type": "uint256"
        }
      ],
      "name": "paired",
      "outputs": [
        {
          "internalType": "bool",
          "name": "",
          "type": "bool"
        }
      ],
      "stateMutability": "view",
      "type": "function"
    },
    {
      "inputs": [],
      "name": "renounceOwnership",
      "outputs": [],
      "stateMutability": "nonpayable",
      "type": "function"
    },
    {
      "inputs": [
        {
          "internalType": "uint256",
          "name": "_tokenId",
          "type": "uint256"
        },
        {
          "internalType": "uint256",
          "name": "_salePrice",
          "type": "uint256"
        }
      ],
      "name": "royaltyInfo",
      "outputs": [
        {
          "internalType": "address",
          "name": "receiver",
          "type": "address"
        },
        {
          "internalType": "uint256",
          "name": "royaltyAmount",
          "type": "uint256"
        }
      ],
      "stateMutability": "view",
      "type": "function"
    },
    {
      "inputs": [
        {
          "internalType": "address",
          "name": "from",
          "type": "address"
        },
        {
          "internalType": "address",
          "name": "to",
          "type": "address"
        },
        {
          "internalType": "uint256",
          "name": "tokenId",
          "type": "uint256"
        }
      ],
      "name": "safeTransferFrom",
      "outputs": [],
      "stateMutability": "nonpayable",
      "type": "function"
    },
    {
      "inputs": [
        {
          "internalType": "address",
          "name": "from",
          "type": "address"
        },
        {
          "internalType": "address",
          "name": "to",
          "type": "address"
        },
        {
          "internalType": "uint256",
          "name": "tokenId",
          "type": "uint256"
        },
        {
          "internalType": "bytes",
          "name": "_data",
          "type": "bytes"
        }
      ],
      "name": "safeTransferFrom",
      "outputs": [],
      "stateMutability": "nonpayable",
      "type": "function"
    },
    {
      "inputs": [
        {
          "internalType": "address",
          "name": "operator",
          "type": "address"
        },
        {
          "internalType": "bool",
          "name": "approved",
          "type": "bool"
        }
      ],
      "name": "setApprovalForAll",
      "outputs": [],
      "stateMutability": "nonpayable",
      "type": "function"
    },
    {
      "inputs": [
        {
          "internalType": "address",
          "name": "_a",
          "type": "address"
        }
      ],
      "name": "setAttunementContract",
      "outputs": [],
      "stateMutability": "nonpayable",
      "type": "function"
    },
    {
      "inputs": [
        {
          "internalType": "string",
          "name": "_newBaseURI",
          "type": "string"
        }
      ],
      "name": "setBaseURI",
      "outputs": [],
      "stateMutability": "nonpayable",
      "type": "function"
    },
    {
      "inputs": [
        {
          "internalType": "uint256",
          "name": "_newCost",
          "type": "uint256"
        }
      ],
      "name": "setCost",
      "outputs": [],
      "stateMutability": "nonpayable",
      "type": "function"
    },
    {
      "inputs": [
        {
          "internalType": "uint256",
          "name": "_id",
          "type": "uint256"
        },
        {
          "internalType": "uint256",
          "name": "_newElement",
          "type": "uint256"
        }
      ],
      "name": "setElement",
      "outputs": [],
      "stateMutability": "nonpayable",
      "type": "function"
    },
    {
      "inputs": [
        {
          "internalType": "address",
          "name": "_es",
          "type": "address"
        }
      ],
      "name": "setElementalStoneContract",
      "outputs": [],
      "stateMutability": "nonpayable",
      "type": "function"
    },
    {
      "inputs": [
        {
          "internalType": "address",
          "name": "_e",
          "type": "address"
        }
      ],
      "name": "setEmissions",
      "outputs": [],
      "stateMutability": "nonpayable",
      "type": "function"
    },
    {
      "inputs": [
        {
          "internalType": "address",
          "name": "_moonstone",
          "type": "address"
        }
      ],
      "name": "setMoonstoneContract",
      "outputs": [],
      "stateMutability": "nonpayable",
      "type": "function"
    },
    {
      "inputs": [
        {
          "internalType": "uint256",
          "name": "_id",
          "type": "uint256"
        },
        {
          "internalType": "bool",
          "name": "_paired",
          "type": "bool"
        }
      ],
      "name": "setPaired",
      "outputs": [],
      "stateMutability": "nonpayable",
      "type": "function"
    },
    {
      "inputs": [
        {
          "internalType": "address",
          "name": "newRecipient",
          "type": "address"
        }
      ],
      "name": "setRoyalties",
      "outputs": [],
      "stateMutability": "nonpayable",
      "type": "function"
    },
    {
      "inputs": [
        {
          "internalType": "bool",
          "name": "_isWhitelistPeriod",
          "type": "bool"
        }
      ],
      "name": "setWhitelistPeriod",
      "outputs": [],
      "stateMutability": "nonpayable",
      "type": "function"
    },
    {
      "inputs": [
        {
          "internalType": "bytes4",
          "name": "interfaceId",
          "type": "bytes4"
        }
      ],
      "name": "supportsInterface",
      "outputs": [
        {
          "internalType": "bool",
          "name": "",
          "type": "bool"
        }
      ],
      "stateMutability": "view",
      "type": "function"
    },
    {
      "inputs": [],
      "name": "symbol",
      "outputs": [
        {
          "internalType": "string",
          "name": "",
          "type": "string"
        }
      ],
      "stateMutability": "view",
      "type": "function"
    },
    {
      "inputs": [
        {
          "internalType": "uint256",
          "name": "index",
          "type": "uint256"
        }
      ],
      "name": "tokenByIndex",
      "outputs": [
        {
          "internalType": "uint256",
          "name": "",
          "type": "uint256"
        }
      ],
      "stateMutability": "view",
      "type": "function"
    },
    {
      "inputs": [
        {
          "internalType": "address",
          "name": "owner",
          "type": "address"
        },
        {
          "internalType": "uint256",
          "name": "index",
          "type": "uint256"
        }
      ],
      "name": "tokenOfOwnerByIndex",
      "outputs": [
        {
          "internalType": "uint256",
          "name": "",
          "type": "uint256"
        }
      ],
      "stateMutability": "view",
      "type": "function"
    },
    {
      "inputs": [
        {
          "internalType": "uint256",
          "name": "tokenId",
          "type": "uint256"
        }
      ],
      "name": "tokenURI",
      "outputs": [
        {
          "internalType": "string",
          "name": "",
          "type": "string"
        }
      ],
      "stateMutability": "view",
      "type": "function"
    },
    {
      "inputs": [],
      "name": "totalSupply",
      "outputs": [
        {
          "internalType": "uint256",
          "name": "",
          "type": "uint256"
        }
      ],
      "stateMutability": "view",
      "type": "function"
    },
    {
      "inputs": [
        {
          "internalType": "address",
          "name": "from",
          "type": "address"
        },
        {
          "internalType": "address",
          "name": "to",
          "type": "address"
        },
        {
          "internalType": "uint256",
          "name": "tokenId",
          "type": "uint256"
        }
      ],
      "name": "transferFrom",
      "outputs": [],
      "stateMutability": "nonpayable",
      "type": "function"
    },
    {
      "inputs": [
        {
          "internalType": "address",
          "name": "newOwner",
          "type": "address"
        }
      ],
      "name": "transferOwnership",
      "outputs": [],
      "stateMutability": "nonpayable",
      "type": "function"
    },
    {
      "inputs": [
        {
          "internalType": "uint256",
          "name": "",
          "type": "uint256"
        }
      ],
      "name": "unmatchedElementCosts",
      "outputs": [
        {
          "internalType": "uint256",
          "name": "",
          "type": "uint256"
        }
      ],
      "stateMutability": "view",
      "type": "function"
    },
    {
      "inputs": [
        {
          "internalType": "address",
          "name": "_owner",
          "type": "address"
        }
      ],
      "name": "walletOfOwner",
      "outputs": [
        {
          "internalType": "uint256[]",
          "name": "",
          "type": "uint256[]"
        }
      ],
      "stateMutability": "view",
      "type": "function"
    },
    {
      "inputs": [],
      "name": "whitelistPeriod",
      "outputs": [
        {
          "internalType": "bool",
          "name": "",
          "type": "bool"
        }
      ],
      "stateMutability": "view",
      "type": "function"
    },
    {
      "inputs": [
        {
          "internalType": "address payable",
          "name": "_rest",
          "type": "address"
        }
      ],
      "name": "withdraw",
      "outputs": [],
      "stateMutability": "nonpayable",
      "type": "function"
    }
  ],
  "bytecode": "0x6005600b8181556003600c90815560c8600d556019601355600a6014556103c060405260006080908152600460a081905260c081905260e0526101008490526101208490526101408490526101608490526101809390935260066101a08190526101c05260076101e0526008610200819052610220819052610240819052610260526102808290526102a08290526102c0919091526102e081905261030052600f6103205260106103408190526103605260116103808190526103a052620000cc90601590601a62000682565b50604080516101408101825260008152600260208201526003918101829052606081019190915260046080820152600660a0820152600860c0820152600b60e0820152600e61010082015260126101208201526200012f90602f90600a620006ca565b506040805161014081018252600080825260208201819052918101919091526001606082015260026080820152600360a0820152600460c0820152600560e0820152600761010082015260096101208201526200019190603990600a620006ca565b50605a604655600560475560036048556049805460ff19166001179055611388604f55348015620001c157600080fd5b506040516200460b3803806200460b833981016040819052620001e491620007b0565b610683806106826078602a601a600960036040518060400160405280600f81526020016e151bdade5bc815195cdd0811da5c9b608a1b8152506040518060400160405280600381526020016254544760e81b815250816000908051906020019062000251929190620006ff565b50805162000267906001906020840190620006ff565b505050620002846200027e6200033260201b60201c565b62000336565b6200029188888862000388565b620002a085858585856200044c565b5050505050505050620002b9856200055360201b60201c565b604380546001600160a01b038087166001600160a01b0319928316179092556044805492861692909116919091179055620002f482620005b7565b62000307674563918244f4000062000624565b605080546001600160a01b0319166001600160a01b0392909216919091179055506200092692505050565b3390565b600a80546001600160a01b038381166001600160a01b0319831681179093556040519116919082907f8be0079c531659141344cd1fd0a4f28419497f9722a3daafe3b4186f6b6457e090600090a35050565b600a546001600160a01b03163314620003d75760405162461bcd60e51b81526020600482018190526024820152600080516020620045eb83398151915260448201526064015b60405180910390fd5b60116020527f17bc176d2408558f6e4111feebc3cab4e16b63e967be91cde721f4c8a488b552929092557f08037d7b151cc412d25674a4e66b334d9ae9d2e5517a7feaae5cdb828bf1c6285560036000527f9bfbaa59f8e10e7868f8b402de9d605a390c45ddaebd8c9de3c6f31e733c87ff55565b600a546001600160a01b03163314620004975760405162461bcd60e51b81526020600482018190526024820152600080516020620045eb8339815191526044820152606401620003ce565b60126020527f71a67924699a20698523213e55fe499d539379d7769cd5567e2c45d583f815a3949094557f8e1fee8c88a9e04123b21e90cae2727a7715bf522a1e46eb5934ccd05203a6b2929092557f0f36ad39aee03e7108cc48f54934702a5f0d4066f10344cebf8198978d86976a557fb4fcd034df3d20faa1c133b66d862ce92732727d40916b48ffb4020cb00fe0535560056000527f45429b9195d4ec5c0cf6c69e9c21a4ca0ea773b702c2de5735f85d2631f2674655565b600a546001600160a01b031633146200059e5760405162461bcd60e51b81526020600482018190526024820152600080516020620045eb8339815191526044820152606401620003ce565b8051620005b390604e906020840190620006ff565b5050565b600a546001600160a01b03163314620006025760405162461bcd60e51b81526020600482018190526024820152600080516020620045eb8339815191526044820152606401620003ce565b604d80546001600160a01b0319166001600160a01b0392909216919091179055565b600a546001600160a01b031633146200066f5760405162461bcd60e51b81526020600482018190526024820152600080516020620045eb8339815191526044820152606401620003ce565b600081116200067d57600080fd5b604555565b82601a8101928215620006b8579160200282015b82811115620006b8578251829060ff1690559160200191906001019062000696565b50620006c69291506200077c565b5090565b82600a8101928215620006b85791602002820182811115620006b8578251829060ff1690559160200191906001019062000696565b8280546200070d90620008d3565b90600052602060002090601f016020900481019282620007315760008555620006b8565b82601f106200074c57805160ff1916838001178555620006b8565b82800160010185558215620006b8579182015b82811115620006b85782518255916020019190600101906200075f565b5b80821115620006c657600081556001016200077d565b80516001600160a01b0381168114620007ab57600080fd5b919050565b600080600080600060a08688031215620007c8578081fd5b85516001600160401b0380821115620007df578283fd5b818801915088601f830112620007f3578283fd5b81518181111562000808576200080862000910565b604051601f8201601f19908116603f0116810190838211818310171562000833576200083362000910565b81604052828152602093508b848487010111156200084f578586fd5b8591505b8282101562000872578482018401518183018501529083019062000853565b828211156200088357858484830101525b98506200089591505088820162000793565b95505050620008a76040870162000793565b9250620008b76060870162000793565b9150620008c76080870162000793565b90509295509295909350565b600181811c90821680620008e857607f821691505b602082108114156200090a57634e487b7160e01b600052602260045260246000fd5b50919050565b634e487b7160e01b600052604160045260246000fd5b613cb580620009366000396000f3fe6080604052600436106103d95760003560e01c8063690d1ca2116101fd578063b060dd8611610118578063dfefc776116100ab578063f2fde38b1161007a578063f2fde38b14610c6f578063f909a9cf14610c8f578063fd79e7ac14610cbc578063ff23d7d314610cdc578063ff91078314610cfc57600080fd5b8063dfefc77614610bd0578063e00cda2614610be3578063e985e9c514610bf9578063f090e00414610c4257600080fd5b8063c3ca39f8116100e7578063c3ca39f814610b43578063c4e2676714610b63578063c87b56dd14610b83578063d066100614610ba357600080fd5b8063b060dd8614610ad9578063b48e665e14610af4578063b88d4fde14610b0e578063bd3e19d414610b2e57600080fd5b8063814e1bb811610190578063a16e72151161015f578063a16e721514610a4c578063a22b36ef14610a6c578063a22cb46514610a99578063a388237d14610ab957600080fd5b8063814e1bb8146109c95780638da5cb5b146109e95780638efab2d514610a0757806395d89b4114610a3757600080fd5b8063715018a6116101cc578063715018a614610954578063733495711461096957806373ae2d78146109895780637a6832a5146109a957600080fd5b8063690d1ca2146108d457806369250220146108f45780636aa5dd711461091457806370a082311461093457600080fd5b80632f745c59116102f857806344a0d68a1161028b57806355f804b31161025a57806355f804b314610827578063562d412f1461084757806358d70d74146108745780635c5ac79a146108945780636352211e146108b457600080fd5b806344a0d68a1461079a57806349af0b94146107ba5780634f6ccce7146107e757806351cff8d91461080757600080fd5b80633f74c596116102c75780633f74c596146106e857806340a3c3381461071557806342842e0e1461075a578063438b63001461077a57600080fd5b80632f745c591461065b5780633a7d22bc1461067b5780633c010930146106a85780633f1ed709146106c857600080fd5b8063150b7a021161037057806323b872dd1161033f57806323b872dd146105bc5780632a55205a146105dc5780632a9e63c61461061b5780632c8296f31461063b57600080fd5b8063150b7a021461052f57806318160ddd146105685780631c8a76c5146105875780632267716c1461059c57600080fd5b8063095ea7b3116103ac578063095ea7b31461048f5780630b689417146104af5780630f3b899b146104df57806312cbd705146104ff57600080fd5b806301ffc9a7146103de57806306fdde0314610413578063081812fc1461043557806308834ee71461046d575b600080fd5b3480156103ea57600080fd5b506103fe6103f936600461384b565b610d1c565b60405190151581526020015b60405180910390f35b34801561041f57600080fd5b50610428610d47565b60405161040a9190613a18565b34801561044157600080fd5b506104556104503660046138c9565b610dd9565b6040516001600160a01b03909116815260200161040a565b34801561047957600080fd5b5061048d610488366004613693565b610e73565b005b34801561049b57600080fd5b5061048d6104aa3660046137eb565b610ebf565b3480156104bb57600080fd5b506103fe6104ca3660046138c9565b60009081526053602052604090205460ff1690565b3480156104eb57600080fd5b50604c54610455906001600160a01b031681565b34801561050b57600080fd5b506103fe61051a366004613693565b60526020526000908152604090205460ff1681565b34801561053b57600080fd5b5061054f61054a366004613743565b610fd5565b6040516001600160e01b0319909116815260200161040a565b34801561057457600080fd5b506008545b60405190815260200161040a565b34801561059357600080fd5b50610579610fe6565b3480156105a857600080fd5b50604d54610455906001600160a01b031681565b3480156105c857600080fd5b5061048d6105d7366004613703565b611009565b3480156105e857600080fd5b506105fc6105f736600461391b565b61109d565b604080516001600160a01b03909316835260208301919091520161040a565b34801561062757600080fd5b5061048d610636366004613693565b6110bf565b34801561064757600080fd5b5061048d610656366004613693565b6110f5565b34801561066757600080fd5b506105796106763660046137eb565b61120c565b34801561068757600080fd5b506105796106963660046138c9565b60009081526010602052604090205490565b3480156106b457600080fd5b506105796106c336600461391b565b6112a2565b3480156106d457600080fd5b5061048d6106e33660046138f9565b61139d565b3480156106f457600080fd5b5061070861070336600461391b565b611431565b60405161040a91906139d4565b34801561072157600080fd5b506107356107303660046138c9565b6114c3565b604080516001600160a01b03909416845291151560208401529082015260600161040a565b34801561076657600080fd5b5061048d610775366004613703565b6114fc565b34801561078657600080fd5b50610708610795366004613693565b611517565b3480156107a657600080fd5b5061048d6107b53660046138c9565b6115d5565b3480156107c657600080fd5b506105796107d53660046138c9565b604a6020526000908152604090205481565b3480156107f357600080fd5b506105796108023660046138c9565b611611565b34801561081357600080fd5b5061048d610822366004613693565b6116b2565b34801561083357600080fd5b5061048d610842366004613883565b611754565b34801561085357600080fd5b506105796108623660046138c9565b600f6020526000908152604090205481565b34801561088057600080fd5b50604b54610455906001600160a01b031681565b3480156108a057600080fd5b50604454610455906001600160a01b031681565b3480156108c057600080fd5b506104556108cf3660046138c9565b611795565b3480156108e057600080fd5b5061048d6108ef366004613693565b61180c565b34801561090057600080fd5b5061048d61090f36600461391b565b61185a565b34801561092057600080fd5b5061048d61092f36600461391b565b6119c2565b34801561094057600080fd5b5061057961094f366004613693565b611aa1565b34801561096057600080fd5b5061048d611b28565b34801561097557600080fd5b5061048d610984366004613816565b611b5e565b34801561099557600080fd5b506107086109a436600461391b565b611b9b565b3480156109b557600080fd5b5061048d6109c4366004613693565b611de6565b3480156109d557600080fd5b506105796109e43660046138c9565b611e32565b3480156109f557600080fd5b50600a546001600160a01b0316610455565b348015610a1357600080fd5b506103fe610a223660046138c9565b60536020526000908152604090205460ff1681565b348015610a4357600080fd5b50610428611e49565b348015610a5857600080fd5b5061048d610a6736600461391b565b611e58565b348015610a7857600080fd5b50610579610a873660046138c9565b6000908152600f602052604090205490565b348015610aa557600080fd5b5061048d610ab43660046137c0565b611ed2565b348015610ac557600080fd5b5061048d610ad4366004613693565b611edd565b348015610ae557600080fd5b5061054f63152a902d60e11b81565b348015610b0057600080fd5b506049546103fe9060ff1681565b348015610b1a57600080fd5b5061048d610b29366004613743565b611f29565b348015610b3a57600080fd5b50604554610579565b348015610b4f57600080fd5b50610579610b5e36600461391b565b611f8c565b348015610b6f57600080fd5b50610579610b7e3660046138c9565b612095565b348015610b8f57600080fd5b50610428610b9e3660046138c9565b6120a5565b348015610baf57600080fd5b50610579610bbe3660046138c9565b6000908152600e602052604090205490565b61048d610bde366004613830565b61217f565b348015610bef57600080fd5b5061057960475481565b348015610c0557600080fd5b506103fe610c143660046136cb565b6001600160a01b03918216600090815260056020908152604080832093909416825291909152205460ff1690565b348015610c4e57600080fd5b50610579610c5d3660046138c9565b60106020526000908152604090205481565b348015610c7b57600080fd5b5061048d610c8a366004613693565b612597565b348015610c9b57600080fd5b50610579610caa3660046138c9565b600e6020526000908152604090205481565b348015610cc857600080fd5b50610579610cd73660046138c9565b61262f565b348015610ce857600080fd5b50610579610cf73660046138c9565b61263f565b348015610d0857600080fd5b50604354610455906001600160a01b031681565b60006001600160e01b0319821663152a902d60e11b1480610d415750610d418261265b565b92915050565b606060008054610d5690613ba8565b80601f0160208091040260200160405190810160405280929190818152602001828054610d8290613ba8565b8015610dcf5780601f10610da457610100808354040283529160200191610dcf565b820191906000526020600020905b815481529060010190602001808311610db257829003601f168201915b5050505050905090565b6000818152600260205260408120546001600160a01b0316610e575760405162461bcd60e51b815260206004820152602c60248201527f4552433732313a20617070726f76656420717565727920666f72206e6f6e657860448201526b34b9ba32b73a103a37b5b2b760a11b60648201526084015b60405180910390fd5b506000908152600460205260409020546001600160a01b031690565b600a546001600160a01b03163314610e9d5760405162461bcd60e51b8152600401610e4e90613a7d565b604d80546001600160a01b0319166001600160a01b0392909216919091179055565b6000610eca82611795565b9050806001600160a01b0316836001600160a01b03161415610f385760405162461bcd60e51b815260206004820152602160248201527f4552433732313a20617070726f76616c20746f2063757272656e74206f776e656044820152603960f91b6064820152608401610e4e565b336001600160a01b0382161480610f545750610f548133610c14565b610fc65760405162461bcd60e51b815260206004820152603860248201527f4552433732313a20617070726f76652063616c6c6572206973206e6f74206f7760448201527f6e6572206e6f7220617070726f76656420666f7220616c6c00000000000000006064820152608401610e4e565b610fd08383612680565b505050565b630a85bd0160e11b5b949350505050565b60006064604654604554610ffa9190613b2f565b6110049190613b1b565b905090565b61101333826126ee565b61102f5760405162461bcd60e51b8152600401610e4e90613ab2565b61103a8383836127e4565b604c5460405163add058fd60e01b8152600481018390526001600160a01b039091169063add058fd90602401600060405180830381600087803b15801561108057600080fd5b505af1158015611094573d6000803e3d6000fd5b50505050505050565b6051546001600160a01b031660006110b6601484613b1b565b90509250929050565b600a546001600160a01b031633146110e95760405162461bcd60e51b8152600401610e4e90613a7d565b6110f28161298b565b50565b600a546001600160a01b0316331461111f5760405162461bcd60e51b8152600401610e4e90613a7d565b600061112a60085490565b90506000611139826001613b03565b90506111458382612a18565b60008061115183612a32565b604d54604051632b017cb760e01b8152600481018790529294509092506001600160a01b031690632b017cb790602401600060405180830381600087803b15801561119b57600080fd5b505af11580156111af573d6000803e3d6000fd5b5050604080516001600160a01b038916815260208101879052908101859052606081018490527f5a3358a3d27a5373c0df2604662088d37894d56b7cfd27f315770440f4e0d9199250608001905060405180910390a15050505050565b600061121783611aa1565b82106112795760405162461bcd60e51b815260206004820152602b60248201527f455243373231456e756d657261626c653a206f776e657220696e646578206f7560448201526a74206f6620626f756e647360a81b6064820152608401610e4e565b506001600160a01b03919091166000908152600660209081526040808320938352929052205490565b6000600182101580156112b757506013548211155b6113145760405162461bcd60e51b815260206004820152602860248201527f557067726164653a20746f54696572206d757374206265206265747765656e206044820152673120616e6420323560c01b6064820152608401610e4e565b6000838152600f6020526040902054821161138c5760405162461bcd60e51b815260206004820152603260248201527f557067726164653a20746f54696572206d7573742062652067726561746572206044820152711d1a185b8818dd5c9c995b9d081b195d995b60721b6064820152608401610e4e565b6113968383611f8c565b9392505050565b3360009081526052602052604090205460ff16806113c55750604c546001600160a01b031633145b6114115760405162461bcd60e51b815260206004820152601d60248201527f4769726c3a206f6e6c79204553206f72204174742063616e2063616c6c0000006044820152606401610e4e565b600091825260536020526040909120805460ff1916911515919091179055565b6000828152600e6020526040902054606090821180156114525750600a8211155b6114b95760405162461bcd60e51b815260206004820152603260248201527f557067726164653a2074696572206d757374206265206265747765656e20637560448201527107272656e74206c6576656c20616e642031360741b6064820152608401610e4e565b6113968383611b9b565b60008060006114d184611795565b600094855260536020908152604080872054601090925290952054909560ff90951694909350915050565b61103a83838360405180602001604052806000815250611f29565b6060600061152483611aa1565b905060008167ffffffffffffffff81111561154f57634e487b7160e01b600052604160045260246000fd5b604051908082528060200260200182016040528015611578578160200160208202803683370190505b50905060005b828110156115cd57611590858261120c565b8282815181106115b057634e487b7160e01b600052603260045260246000fd5b6020908102919091010152806115c581613be3565b91505061157e565b509392505050565b600a546001600160a01b031633146115ff5760405162461bcd60e51b8152600401610e4e90613a7d565b6000811161160c57600080fd5b604555565b600061161c60085490565b821061167f5760405162461bcd60e51b815260206004820152602c60248201527f455243373231456e756d657261626c653a20676c6f62616c20696e646578206f60448201526b7574206f6620626f756e647360a01b6064820152608401610e4e565b600882815481106116a057634e487b7160e01b600052603260045260246000fd5b90600052602060002001549050919050565b600a546001600160a01b031633146116dc5760405162461bcd60e51b8152600401610e4e90613a7d565b60505447906001600160a01b03166108fc6116f683612a59565b6040518115909202916000818181858888f1935050505015801561171e573d6000803e3d6000fd5b506040516001600160a01b038316904780156108fc02916000818181858888f19350505050158015610fd0573d6000803e3d6000fd5b600a546001600160a01b0316331461177e5760405162461bcd60e51b8152600401610e4e90613a7d565b805161179190604e90602084019061356f565b5050565b6000818152600260205260408120546001600160a01b031680610d415760405162461bcd60e51b815260206004820152602960248201527f4552433732313a206f776e657220717565727920666f72206e6f6e657869737460448201526832b73a103a37b5b2b760b91b6064820152608401610e4e565b600a546001600160a01b031633146118365760405162461bcd60e51b8152600401610e4e90613a7d565b6001600160a01b03166000908152605260205260409020805460ff19166001179055565b604b546001600160a01b031633146118c85760405162461bcd60e51b815260206004820152602b60248201527f4769726c3a206f6e6c79206d6f6f6e73746f6e652063616e207570677261646560448201526a2067616d657273636f726560a81b6064820152608401610e4e565b6000828152600f6020908152604080832054600e9092529182902054604d54925163b3c9524b60e01b815260048101869052919290916001600160a01b039091169063b3c9524b90602401600060405180830381600087803b15801561192d57600080fd5b505af1158015611941573d6000803e3d6000fd5b5050505061194f8484612a75565b604d54604051632d7f86bb60e11b81526004810186905260248101849052604481018390526001600160a01b0390911690635aff0d76906064015b600060405180830381600087803b1580156119a457600080fd5b505af11580156119b8573d6000803e3d6000fd5b5050505050505050565b3360009081526052602052604090205460ff16611a1a5760405162461bcd60e51b815260206004820152601660248201527511da5c9b0e881bdb9b1e481154c818d85b8818d85b1b60521b6044820152606401610e4e565b6000828152600f6020908152604080832054600e9092529182902054604d54925163b3c9524b60e01b815260048101869052919290916001600160a01b039091169063b3c9524b90602401600060405180830381600087803b158015611a7f57600080fd5b505af1158015611a93573d6000803e3d6000fd5b5050505061194f8484612abd565b60006001600160a01b038216611b0c5760405162461bcd60e51b815260206004820152602a60248201527f4552433732313a2062616c616e636520717565727920666f7220746865207a65604482015269726f206164647265737360b01b6064820152608401610e4e565b506001600160a01b031660009081526003602052604090205490565b600a546001600160a01b03163314611b525760405162461bcd60e51b8152600401610e4e90613a7d565b611b5c6000612b05565b565b600a546001600160a01b03163314611b885760405162461bcd60e51b8152600401610e4e90613a7d565b6049805460ff1916911515919091179055565b6060601454821115611bef5760405162461bcd60e51b815260206004820152601f60248201527f557067726164653a204d617820636f736d6963206c6576656c206973203130006044820152606401610e4e565b6000838152600e60205260409020546014548110611c595760405162461bcd60e51b815260206004820152602160248201527f557067726164653a20636f736d6963206c6576656c20616c7265616479206d616044820152600f60fb1b6064820152608401610e4e565b60008481526010602052604080822054815160038082526080820190935290929181602001602082028036833701905050905060008080611c9b866001613b03565b90505b878111611d2757602f611cb2600183613b4e565b600a8110611cd057634e487b7160e01b600052603260045260246000fd5b0154611cdc9084613b03565b92506039611ceb600183613b4e565b600a8110611d0957634e487b7160e01b600052603260045260246000fd5b0154611d159083613b03565b9150611d2081613be3565b9050611c9e565b508183611d35600187613b4e565b81518110611d5357634e487b7160e01b600052603260045260246000fd5b60200260200101818152505060005b8351811015611dd957838181518110611d8b57634e487b7160e01b600052603260045260246000fd5b602002602001015160001415611dc95781848281518110611dbc57634e487b7160e01b600052603260045260246000fd5b6020026020010181815250505b611dd281613be3565b9050611d62565b5091979650505050505050565b600a546001600160a01b03163314611e105760405162461bcd60e51b8152600401610e4e90613a7d565b604b80546001600160a01b0319166001600160a01b0392909216919091179055565b601581601a8110611e4257600080fd5b0154905081565b606060018054610d5690613ba8565b600a546001600160a01b03163314611e825760405162461bcd60e51b8152600401610e4e90613a7d565b60008281526010602090815260409182902083905581518481529081018390527fe9d2aa95a8bcda1481b0316470d5993a8d561039f5db3f8222f8d526e03c0a1b91015b60405180910390a15050565b611791338383612b57565b600a546001600160a01b03163314611f075760405162461bcd60e51b8152600401610e4e90613a7d565b604c80546001600160a01b0319166001600160a01b0392909216919091179055565b611f3333836126ee565b611f4f5760405162461bcd60e51b8152600401610e4e90613ab2565b611f5b84848484612c26565b604c5460405163add058fd60e01b8152600481018490526001600160a01b039091169063add058fd9060240161198a565b6000601354821115611fe05760405162461bcd60e51b815260206004820152601e60248201527f557067726164653a204d61782073636f7265206973206c6576656c20323500006044820152606401610e4e565b6000838152600f602052604090205460135481106120405760405162461bcd60e51b815260206004820152601f60248201527f557067726164653a204769726c20616c7265616479206d6178206c6576656c006044820152606401610e4e565b6000815b84811161208c57601581601a811061206c57634e487b7160e01b600052603260045260246000fd5b01546120789083613b03565b91508061208481613be3565b915050612044565b50949350505050565b603981600a8110611e4257600080fd5b6000818152600260205260409020546060906001600160a01b03166121245760405162461bcd60e51b815260206004820152602f60248201527f4552433732314d657461646174613a2055524920717565727920666f72206e6f60448201526e3732bc34b9ba32b73a103a37b5b2b760891b6064820152608401610e4e565b600061212e612c5f565b9050600081511161214e5760405180602001604052806000815250611396565b8061215884612c6e565b604051602001612169929190613968565b6040516020818303038152906040529392505050565b3360008061218c60085490565b9050604f5481106121d05760405162461bcd60e51b815260206004820152600e60248201526d11da5c9b0e8814dbdb19081bdd5d60921b6044820152606401610e4e565b8415612443576043546040516331a9108f60e11b8152600481018690526001600160a01b03858116921690636352211e9060240160206040518083038186803b15801561221c57600080fd5b505afa158015612230573d6000803e3d6000fd5b505050506040513d601f19601f8201168201806040525081019061225491906136af565b6001600160a01b0316146122a05760405162461bcd60e51b815260206004820152601360248201527223b4b9361d103737ba1037b9311037bbb732b960691b6044820152606401610e4e565b6122a8610fe6565b3410156122f25760405162461bcd60e51b81526020600482015260186024820152774769726c3a2073656e6420636f727265637420707269636560401b6044820152606401610e4e565b6122fb84612d88565b91508160061461243e576043546040516323b872dd60e01b81526001600160a01b03858116600483015230602483015260448201879052909116906323b872dd90606401600060405180830381600087803b15801561235957600080fd5b505af115801561236d573d6000803e3d6000fd5b50506043546040516331a9108f60e11b8152600481018890523093506001600160a01b039091169150636352211e9060240160206040518083038186803b1580156123b757600080fd5b505afa1580156123cb573d6000803e3d6000fd5b505050506040513d601f19601f820116820180604052508101906123ef91906136af565b6001600160a01b03161461243e5760405162461bcd60e51b815260206004820152601660248201527511da5c9b0e881bdc98881b9bdd081c9958da595d995960521b6044820152606401610e4e565b612495565b6045543410156124905760405162461bcd60e51b81526020600482015260186024820152774769726c3a2073656e6420636f727265637420707269636560401b6044820152606401610e4e565b600691505b60006124a2826001613b03565b90506124ae8482612a18565b60008084600614156124cd576124c383612a32565b90925090506124dd565b8491506124da8383612e59565b90505b604d54604051632b017cb760e01b8152600481018590526001600160a01b0390911690632b017cb790602401600060405180830381600087803b15801561252357600080fd5b505af1158015612537573d6000803e3d6000fd5b5050604080516001600160a01b038a16815260208101879052908101859052606081018490527f5a3358a3d27a5373c0df2604662088d37894d56b7cfd27f315770440f4e0d9199250608001905060405180910390a15050505050505050565b600a546001600160a01b031633146125c15760405162461bcd60e51b8152600401610e4e90613a7d565b6001600160a01b0381166126265760405162461bcd60e51b815260206004820152602660248201527f4f776e61626c653a206e6577206f776e657220697320746865207a65726f206160448201526564647265737360d01b6064820152608401610e4e565b6110f281612b05565b602f81600a8110611e4257600080fd5b6000818152604a6020526040812054604754610d419190613b4e565b60006001600160e01b0319821663780e9d6360e01b1480610d415750610d4182612e8f565b600081815260046020526040902080546001600160a01b0319166001600160a01b03841690811790915581906126b582611795565b6001600160a01b03167f8c5be1e5ebec7d5bd14f71427d1e84f3dd0314c0f7b2291e5b200ac8c7c3b92560405160405180910390a45050565b6000818152600260205260408120546001600160a01b03166127675760405162461bcd60e51b815260206004820152602c60248201527f4552433732313a206f70657261746f7220717565727920666f72206e6f6e657860448201526b34b9ba32b73a103a37b5b2b760a11b6064820152608401610e4e565b600061277283611795565b9050806001600160a01b0316846001600160a01b031614806127b957506001600160a01b0380821660009081526005602090815260408083209388168352929052205460ff165b80610fde5750836001600160a01b03166127d284610dd9565b6001600160a01b031614949350505050565b826001600160a01b03166127f782611795565b6001600160a01b03161461285b5760405162461bcd60e51b815260206004820152602560248201527f4552433732313a207472616e736665722066726f6d20696e636f72726563742060448201526437bbb732b960d91b6064820152608401610e4e565b6001600160a01b0382166128bd5760405162461bcd60e51b8152602060048201526024808201527f4552433732313a207472616e7366657220746f20746865207a65726f206164646044820152637265737360e01b6064820152608401610e4e565b6128c8838383612edf565b6128d3600082612680565b6001600160a01b03831660009081526003602052604081208054600192906128fc908490613b4e565b90915550506001600160a01b038216600090815260036020526040812080546001929061292a908490613b03565b909155505060008181526002602052604080822080546001600160a01b0319166001600160a01b0386811691821790925591518493918716917fddf252ad1be2c89b69c2b068fc378daa952ba7f163c4a11628f55a4df523b3ef91a4505050565b6001600160a01b0381166129f65760405162461bcd60e51b815260206004820152602c60248201527f526f79616c746965733a206e657720726563697069656e74206973207468652060448201526b7a65726f206164647265737360a01b6064820152608401610e4e565b605180546001600160a01b0319166001600160a01b0392909216919091179055565b611791828260405180602001604052806000815250612f97565b6000806000612a4084612fca565b90506000612a4d85613087565b91959194509092505050565b6000606460485483612a6b9190613b2f565b610d419190613b1b565b6000828152600f602090815260409182902083905581518481529081018390527f866cfb7bcf22266717dccfb6e13d4a8aaf393c0bc2c147cf9df1b747e00370029101611ec6565b6000828152600e602090815260409182902083905581518481529081018390527f56bd88bf537c8134d681abc094b975697025d38f1a7e20c408f3b5e6b4df40b79101611ec6565b600a80546001600160a01b038381166001600160a01b0319831681179093556040519116919082907f8be0079c531659141344cd1fd0a4f28419497f9722a3daafe3b4186f6b6457e090600090a35050565b816001600160a01b0316836001600160a01b03161415612bb95760405162461bcd60e51b815260206004820152601960248201527f4552433732313a20617070726f766520746f2063616c6c6572000000000000006044820152606401610e4e565b6001600160a01b03838116600081815260056020908152604080832094871680845294825291829020805460ff191686151590811790915591519182527f17307eab39ab6107e8899845ad3d59bd9653f200f220920489ca2b5937696c31910160405180910390a3505050565b612c318484846127e4565b612c3d8484848461310f565b612c595760405162461bcd60e51b8152600401610e4e90613a2b565b50505050565b6060604e8054610d5690613ba8565b606081612c925750506040805180820190915260018152600360fc1b602082015290565b8160005b8115612cbc5780612ca681613be3565b9150612cb59050600a83613b1b565b9150612c96565b60008167ffffffffffffffff811115612ce557634e487b7160e01b600052604160045260246000fd5b6040519080825280601f01601f191660200182016040528015612d0f576020820181803683370190505b5090505b8415610fde57612d24600183613b4e565b9150612d31600a86613bfe565b612d3c906030613b03565b60f81b818381518110612d5f57634e487b7160e01b600052603260045260246000fd5b60200101906001600160f81b031916908160001a905350612d81600a86613b1b565b9450612d13565b6000818152604a6020526040812054600511612da357600080fd5b6000828152604a602052604081208054909190612dbf90613be3565b909155506000828152604a602052604090205460069060051415610d4157604454604051634875869760e01b8152600481018590526001600160a01b039091169063487586979060240160206040518083038186803b158015612e2157600080fd5b505afa158015612e35573d6000803e3d6000fd5b505050506040513d601f19601f8201168201806040525081019061139691906138e1565b600080612e68600c5485613219565b6000858152601060209081526040808320849055600e909152902084905591505092915050565b60006001600160e01b031982166380ac58cd60e01b1480612ec057506001600160e01b03198216635b5e139f60e01b145b80610d4157506301ffc9a760e01b6001600160e01b0319831614610d41565b6001600160a01b038316612f3a57612f3581600880546000838152600960205260408120829055600182018355919091527ff3f7a9fe364faab93b216da50a3214154f22a0a2b415b23a84c8169e8b636ee30155565b612f5d565b816001600160a01b0316836001600160a01b031614612f5d57612f5d8382613267565b6001600160a01b038216612f7457610fd081613304565b826001600160a01b0316826001600160a01b031614610fd057610fd082826133dd565b612fa18383613421565b612fae600084848461310f565b610fd05760405162461bcd60e51b8152600401610e4e90613a2b565b600080612fd9600d5484613219565b905060008082118015612fed575060788211155b15612ffa5750600161306e565b60788211801561300b575060a28211155b156130185750600261306e565b60a282118015613029575060bc8211155b156130365750600361306e565b60bc82118015613047575060c58211155b156130545750600461306e565b60c582118015613065575060c88211155b1561306e575060055b6000938452600e60205260409093208390555090919050565b600080613096600c5484613219565b90505b600081815260116020526040902054600111156130d957806130ba81613be3565b91505060038111156130d4576130d1600382613b4e565b90505b613099565b60008381526010602090815260408083208490558383526011909152812080549161310383613b91565b90915550909392505050565b60006001600160a01b0384163b1561321157604051630a85bd0160e11b81526001600160a01b0385169063150b7a0290613153903390899088908890600401613997565b602060405180830381600087803b15801561316d57600080fd5b505af192505050801561319d575060408051601f3d908101601f1916820190925261319a91810190613867565b60015b6131f7573d8080156131cb576040519150601f19603f3d011682016040523d82523d6000602084013e6131d0565b606091505b5080516131ef5760405162461bcd60e51b8152600401610e4e90613a2b565b805181602001fd5b6001600160e01b031916630a85bd0160e11b149050610fde565b506001610fde565b6040805142602082015290810183905260608101829052600090819060800160408051601f198184030181529190528051602090910120905061325c8482613bfe565b610fde906001613b03565b6000600161327484611aa1565b61327e9190613b4e565b6000838152600760205260409020549091508082146132d1576001600160a01b03841660009081526006602090815260408083208584528252808320548484528184208190558352600790915290208190555b5060009182526007602090815260408084208490556001600160a01b039094168352600681528383209183525290812055565b60085460009061331690600190613b4e565b6000838152600960205260408120546008805493945090928490811061334c57634e487b7160e01b600052603260045260246000fd5b90600052602060002001549050806008838154811061337b57634e487b7160e01b600052603260045260246000fd5b60009182526020808320909101929092558281526009909152604080822084905585825281205560088054806133c157634e487b7160e01b600052603160045260246000fd5b6001900381819060005260206000200160009055905550505050565b60006133e883611aa1565b6001600160a01b039093166000908152600660209081526040808320868452825280832085905593825260079052919091209190915550565b6001600160a01b0382166134775760405162461bcd60e51b815260206004820181905260248201527f4552433732313a206d696e7420746f20746865207a65726f20616464726573736044820152606401610e4e565b6000818152600260205260409020546001600160a01b0316156134dc5760405162461bcd60e51b815260206004820152601c60248201527f4552433732313a20746f6b656e20616c7265616479206d696e746564000000006044820152606401610e4e565b6134e860008383612edf565b6001600160a01b0382166000908152600360205260408120805460019290613511908490613b03565b909155505060008181526002602052604080822080546001600160a01b0319166001600160a01b03861690811790915590518392907fddf252ad1be2c89b69c2b068fc378daa952ba7f163c4a11628f55a4df523b3ef908290a45050565b82805461357b90613ba8565b90600052602060002090601f01602090048101928261359d57600085556135e3565b82601f106135b657805160ff19168380011785556135e3565b828001600101855582156135e3579182015b828111156135e35782518255916020019190600101906135c8565b506135ef9291506135f3565b5090565b5b808211156135ef57600081556001016135f4565b600067ffffffffffffffff8084111561362357613623613c3e565b604051601f8501601f19908116603f0116810190828211818310171561364b5761364b613c3e565b8160405280935085815286868601111561366457600080fd5b858560208301376000602087830101525050509392505050565b8035801515811461368e57600080fd5b919050565b6000602082840312156136a4578081fd5b813561139681613c54565b6000602082840312156136c0578081fd5b815161139681613c54565b600080604083850312156136dd578081fd5b82356136e881613c54565b915060208301356136f881613c54565b809150509250929050565b600080600060608486031215613717578081fd5b833561372281613c54565b9250602084013561373281613c54565b929592945050506040919091013590565b60008060008060808587031215613758578081fd5b843561376381613c54565b9350602085013561377381613c54565b925060408501359150606085013567ffffffffffffffff811115613795578182fd5b8501601f810187136137a5578182fd5b6137b487823560208401613608565b91505092959194509250565b600080604083850312156137d2578182fd5b82356137dd81613c54565b91506110b66020840161367e565b600080604083850312156137fd578182fd5b823561380881613c54565b946020939093013593505050565b600060208284031215613827578081fd5b6113968261367e565b60008060408385031215613842578182fd5b6138088361367e565b60006020828403121561385c578081fd5b813561139681613c69565b600060208284031215613878578081fd5b815161139681613c69565b600060208284031215613894578081fd5b813567ffffffffffffffff8111156138aa578182fd5b8201601f810184136138ba578182fd5b610fde84823560208401613608565b6000602082840312156138da578081fd5b5035919050565b6000602082840312156138f2578081fd5b5051919050565b6000806040838503121561390b578182fd5b823591506110b66020840161367e565b6000806040838503121561392d578182fd5b50508035926020909101359150565b60008151808452613954816020860160208601613b65565b601f01601f19169290920160200192915050565b6000835161397a818460208801613b65565b83519083019061398e818360208801613b65565b01949350505050565b6001600160a01b03858116825284166020820152604081018390526080606082018190526000906139ca9083018461393c565b9695505050505050565b6020808252825182820181905260009190848201906040850190845b81811015613a0c578351835292840192918401916001016139f0565b50909695505050505050565b602081526000611396602083018461393c565b60208082526032908201527f4552433732313a207472616e7366657220746f206e6f6e20455243373231526560408201527131b2b4bb32b91034b6b83632b6b2b73a32b960711b606082015260800190565b6020808252818101527f4f776e61626c653a2063616c6c6572206973206e6f7420746865206f776e6572604082015260600190565b60208082526031908201527f4552433732313a207472616e736665722063616c6c6572206973206e6f74206f6040820152701ddb995c881b9bdc88185c1c1c9bdd9959607a1b606082015260800190565b60008219821115613b1657613b16613c12565b500190565b600082613b2a57613b2a613c28565b500490565b6000816000190483118215151615613b4957613b49613c12565b500290565b600082821015613b6057613b60613c12565b500390565b60005b83811015613b80578181015183820152602001613b68565b83811115612c595750506000910152565b600081613ba057613ba0613c12565b506000190190565b600181811c90821680613bbc57607f821691505b60208210811415613bdd57634e487b7160e01b600052602260045260246000fd5b50919050565b6000600019821415613bf757613bf7613c12565b5060010190565b600082613c0d57613c0d613c28565b500690565b634e487b7160e01b600052601160045260246000fd5b634e487b7160e01b600052601260045260246000fd5b634e487b7160e01b600052604160045260246000fd5b6001600160a01b03811681146110f257600080fd5b6001600160e01b0319811681146110f257600080fdfea264697066735822122087375fa5b849d7fe49a278b5651d8f6284d1921907c938c4f4ad21882610f9c864736f6c634300080400334f776e61626c653a2063616c6c6572206973206e6f7420746865206f776e6572",
  "linkReferences": {},
  "deployedLinkReferences": {}
}