{
  "_format": "hh-sol-artifact-1",
  "contractName": "Girl",
  "sourceName": "contracts/Girl/Girl.sol",
  "abi": [
    {
      "inputs": [
        {
          "internalType": "string",
          "name": "_initBaseURI",
          "type": "string"
        },
        {
          "internalType": "address",
          "name": "_orb",
          "type": "address"
        },
        {
          "internalType": "address",
          "name": "_orbRarity",
          "type": "address"
        },
        {
          "internalType": "address",
          "name": "_emissions",
          "type": "address"
        },
        {
          "internalType": "address payable",
          "name": "_dev",
          "type": "address"
        }
      ],
      "stateMutability": "nonpayable",
      "type": "constructor"
    },
    {
      "anonymous": false,
      "inputs": [
        {
          "indexed": true,
          "internalType": "address",
          "name": "owner",
          "type": "address"
        },
        {
          "indexed": true,
          "internalType": "address",
          "name": "approved",
          "type": "address"
        },
        {
          "indexed": true,
          "internalType": "uint256",
          "name": "tokenId",
          "type": "uint256"
        }
      ],
      "name": "Approval",
      "type": "event"
    },
    {
      "anonymous": false,
      "inputs": [
        {
          "indexed": true,
          "internalType": "address",
          "name": "owner",
          "type": "address"
        },
        {
          "indexed": true,
          "internalType": "address",
          "name": "operator",
          "type": "address"
        },
        {
          "indexed": false,
          "internalType": "bool",
          "name": "approved",
          "type": "bool"
        }
      ],
      "name": "ApprovalForAll",
      "type": "event"
    },
    {
      "anonymous": false,
      "inputs": [
        {
          "indexed": false,
          "internalType": "uint256",
          "name": "id",
          "type": "uint256"
        },
        {
          "indexed": false,
          "internalType": "uint256",
          "name": "newLevel",
          "type": "uint256"
        }
      ],
      "name": "CosmicLevelChanged",
      "type": "event"
    },
    {
      "anonymous": false,
      "inputs": [
        {
          "indexed": false,
          "internalType": "uint256",
          "name": "id",
          "type": "uint256"
        },
        {
          "indexed": false,
          "internalType": "uint256",
          "name": "element",
          "type": "uint256"
        }
      ],
      "name": "ElementChanged",
      "type": "event"
    },
    {
      "anonymous": false,
      "inputs": [
        {
          "indexed": false,
          "internalType": "uint256",
          "name": "id",
          "type": "uint256"
        },
        {
          "indexed": false,
          "internalType": "uint256",
          "name": "newScore",
          "type": "uint256"
        }
      ],
      "name": "GamerScoreChanged",
      "type": "event"
    },
    {
      "anonymous": false,
      "inputs": [
        {
          "indexed": false,
          "internalType": "address",
          "name": "user",
          "type": "address"
        },
        {
          "indexed": false,
          "internalType": "bool",
          "name": "usingOrb",
          "type": "bool"
        },
        {
          "indexed": false,
          "internalType": "uint256",
          "name": "orbRarity",
          "type": "uint256"
        },
        {
          "indexed": false,
          "internalType": "uint256",
          "name": "girlId",
          "type": "uint256"
        }
      ],
      "name": "MintStarted",
      "type": "event"
    },
    {
      "anonymous": false,
      "inputs": [
        {
          "indexed": false,
          "internalType": "address",
          "name": "minter",
          "type": "address"
        },
        {
          "indexed": false,
          "internalType": "uint256",
          "name": "id",
          "type": "uint256"
        },
        {
          "indexed": false,
          "internalType": "uint256",
          "name": "cl",
          "type": "uint256"
        },
        {
          "indexed": false,
          "internalType": "uint256",
          "name": "el",
          "type": "uint256"
        }
      ],
      "name": "Minted",
      "type": "event"
    },
    {
      "anonymous": false,
      "inputs": [
        {
          "indexed": true,
          "internalType": "address",
          "name": "previousOwner",
          "type": "address"
        },
        {
          "indexed": true,
          "internalType": "address",
          "name": "newOwner",
          "type": "address"
        }
      ],
      "name": "OwnershipTransferred",
      "type": "event"
    },
    {
      "anonymous": false,
      "inputs": [
        {
          "indexed": true,
          "internalType": "address",
          "name": "from",
          "type": "address"
        },
        {
          "indexed": true,
          "internalType": "address",
          "name": "to",
          "type": "address"
        },
        {
          "indexed": true,
          "internalType": "uint256",
          "name": "tokenId",
          "type": "uint256"
        }
      ],
      "name": "Transfer",
      "type": "event"
    },
    {
      "inputs": [],
      "name": "INTERFACE_ID_ERC2981",
      "outputs": [
        {
          "internalType": "bytes4",
          "name": "",
          "type": "bytes4"
        }
      ],
      "stateMutability": "view",
      "type": "function"
    },
    {
      "inputs": [
        {
          "internalType": "address",
          "name": "to",
          "type": "address"
        },
        {
          "internalType": "uint256",
          "name": "tokenId",
          "type": "uint256"
        }
      ],
      "name": "approve",
      "outputs": [],
      "stateMutability": "nonpayable",
      "type": "function"
    },
    {
      "inputs": [],
      "name": "attunement",
      "outputs": [
        {
          "internalType": "contract IAttunement",
          "name": "",
          "type": "address"
        }
      ],
      "stateMutability": "view",
      "type": "function"
    },
    {
      "inputs": [
        {
          "internalType": "address",
          "name": "owner",
          "type": "address"
        }
      ],
      "name": "balanceOf",
      "outputs": [
        {
          "internalType": "uint256",
          "name": "",
          "type": "uint256"
        }
      ],
      "stateMutability": "view",
      "type": "function"
    },
    {
      "inputs": [
        {
          "internalType": "uint256",
          "name": "id",
          "type": "uint256"
        },
        {
          "internalType": "uint256",
          "name": "toTier",
          "type": "uint256"
        }
      ],
      "name": "calcCosmicLevelUpgradeCost",
      "outputs": [
        {
          "internalType": "uint256[]",
          "name": "",
          "type": "uint256[]"
        }
      ],
      "stateMutability": "view",
      "type": "function"
    },
    {
      "inputs": [
        {
          "internalType": "uint256",
          "name": "id",
          "type": "uint256"
        },
        {
          "internalType": "uint256",
          "name": "toTier",
          "type": "uint256"
        }
      ],
      "name": "calcGamerScoreUpgradeCost",
      "outputs": [
        {
          "internalType": "uint256",
          "name": "",
          "type": "uint256"
        }
      ],
      "stateMutability": "view",
      "type": "function"
    },
    {
      "inputs": [],
      "name": "charges",
      "outputs": [
        {
          "internalType": "uint256",
          "name": "",
          "type": "uint256"
        }
      ],
      "stateMutability": "view",
      "type": "function"
    },
    {
      "inputs": [
        {
          "internalType": "uint256",
          "name": "",
          "type": "uint256"
        }
      ],
      "name": "chargesUsed",
      "outputs": [
        {
          "internalType": "uint256",
          "name": "",
          "type": "uint256"
        }
      ],
      "stateMutability": "view",
      "type": "function"
    },
    {
      "inputs": [
        {
          "internalType": "uint256",
          "name": "girlId",
          "type": "uint256"
        }
      ],
      "name": "checkStake",
      "outputs": [
        {
          "internalType": "address",
          "name": "",
          "type": "address"
        },
        {
          "internalType": "bool",
          "name": "",
          "type": "bool"
        },
        {
          "internalType": "uint256",
          "name": "",
          "type": "uint256"
        }
      ],
      "stateMutability": "view",
      "type": "function"
    },
    {
      "inputs": [
        {
          "internalType": "uint256",
          "name": "",
          "type": "uint256"
        }
      ],
      "name": "cosmicLevel",
      "outputs": [
        {
          "internalType": "uint256",
          "name": "",
          "type": "uint256"
        }
      ],
      "stateMutability": "view",
      "type": "function"
    },
    {
      "inputs": [
        {
          "internalType": "uint256",
          "name": "",
          "type": "uint256"
        }
      ],
      "name": "element",
      "outputs": [
        {
          "internalType": "uint256",
          "name": "",
          "type": "uint256"
        }
      ],
      "stateMutability": "view",
      "type": "function"
    },
    {
      "inputs": [],
      "name": "emissions",
      "outputs": [
        {
          "internalType": "contract IEmissions",
          "name": "",
          "type": "address"
        }
      ],
      "stateMutability": "view",
      "type": "function"
    },
    {
      "inputs": [
        {
          "internalType": "uint256",
          "name": "",
          "type": "uint256"
        }
      ],
      "name": "gamerScore",
      "outputs": [
        {
          "internalType": "uint256",
          "name": "",
          "type": "uint256"
        }
      ],
      "stateMutability": "view",
      "type": "function"
    },
    {
      "inputs": [
        {
          "internalType": "uint256",
          "name": "tokenId",
          "type": "uint256"
        }
      ],
      "name": "getApproved",
      "outputs": [
        {
          "internalType": "address",
          "name": "",
          "type": "address"
        }
      ],
      "stateMutability": "view",
      "type": "function"
    },
    {
      "inputs": [
        {
          "internalType": "uint256",
          "name": "id",
          "type": "uint256"
        }
      ],
      "name": "getChargesRemaining",
      "outputs": [
        {
          "internalType": "uint256",
          "name": "",
          "type": "uint256"
        }
      ],
      "stateMutability": "view",
      "type": "function"
    },
    {
      "inputs": [
        {
          "internalType": "uint256",
          "name": "_id",
          "type": "uint256"
        }
      ],
      "name": "getCosmicLevel",
      "outputs": [
        {
          "internalType": "uint256",
          "name": "",
          "type": "uint256"
        }
      ],
      "stateMutability": "view",
      "type": "function"
    },
    {
      "inputs": [
        {
          "internalType": "uint256",
          "name": "id",
          "type": "uint256"
        },
        {
          "internalType": "uint256",
          "name": "toTier",
          "type": "uint256"
        }
      ],
      "name": "getCosmicLevelUpgradeCost",
      "outputs": [
        {
          "internalType": "uint256[]",
          "name": "",
          "type": "uint256[]"
        }
      ],
      "stateMutability": "view",
      "type": "function"
    },
    {
      "inputs": [],
      "name": "getCost",
      "outputs": [
        {
          "internalType": "uint256",
          "name": "",
          "type": "uint256"
        }
      ],
      "stateMutability": "view",
      "type": "function"
    },
    {
      "inputs": [],
      "name": "getDiscountCost",
      "outputs": [
        {
          "internalType": "uint256",
          "name": "",
          "type": "uint256"
        }
      ],
      "stateMutability": "view",
      "type": "function"
    },
    {
      "inputs": [
        {
          "internalType": "uint256",
          "name": "_id",
          "type": "uint256"
        }
      ],
      "name": "getElement",
      "outputs": [
        {
          "internalType": "uint256",
          "name": "",
          "type": "uint256"
        }
      ],
      "stateMutability": "view",
      "type": "function"
    },
    {
      "inputs": [
        {
          "internalType": "uint256",
          "name": "_id",
          "type": "uint256"
        }
      ],
      "name": "getGamerScore",
      "outputs": [
        {
          "internalType": "uint256",
          "name": "",
          "type": "uint256"
        }
      ],
      "stateMutability": "view",
      "type": "function"
    },
    {
      "inputs": [
        {
          "internalType": "uint256",
          "name": "id",
          "type": "uint256"
        },
        {
          "internalType": "uint256",
          "name": "toTier",
          "type": "uint256"
        }
      ],
      "name": "getGamerScoreUpgradeCost",
      "outputs": [
        {
          "internalType": "uint256",
          "name": "cost",
          "type": "uint256"
        }
      ],
      "stateMutability": "view",
      "type": "function"
    },
    {
      "inputs": [
        {
          "internalType": "uint256",
          "name": "",
          "type": "uint256"
        }
      ],
      "name": "gsUpgradeCosts",
      "outputs": [
        {
          "internalType": "uint256",
          "name": "",
          "type": "uint256"
        }
      ],
      "stateMutability": "view",
      "type": "function"
    },
    {
      "inputs": [
        {
          "internalType": "uint256",
          "name": "id",
          "type": "uint256"
        },
        {
          "internalType": "uint256",
          "name": "toTier",
          "type": "uint256"
        }
      ],
      "name": "handleUpgradeCosmicLevel",
      "outputs": [],
      "stateMutability": "nonpayable",
      "type": "function"
    },
    {
      "inputs": [
        {
          "internalType": "uint256",
          "name": "id",
          "type": "uint256"
        },
        {
          "internalType": "uint256",
          "name": "toTier",
          "type": "uint256"
        }
      ],
      "name": "handleUpgradeGamerScore",
      "outputs": [],
      "stateMutability": "nonpayable",
      "type": "function"
    },
    {
      "inputs": [
        {
          "internalType": "address",
          "name": "owner",
          "type": "address"
        },
        {
          "internalType": "address",
          "name": "operator",
          "type": "address"
        }
      ],
      "name": "isApprovedForAll",
      "outputs": [
        {
          "internalType": "bool",
          "name": "",
          "type": "bool"
        }
      ],
      "stateMutability": "view",
      "type": "function"
    },
    {
      "inputs": [
        {
          "internalType": "address",
          "name": "",
          "type": "address"
        }
      ],
      "name": "isElementalStone",
      "outputs": [
        {
          "internalType": "bool",
          "name": "",
          "type": "bool"
        }
      ],
      "stateMutability": "view",
      "type": "function"
    },
    {
      "inputs": [
        {
          "internalType": "uint256",
          "name": "girlId",
          "type": "uint256"
        }
      ],
      "name": "isPaired",
      "outputs": [
        {
          "internalType": "bool",
          "name": "",
          "type": "bool"
        }
      ],
      "stateMutability": "view",
      "type": "function"
    },
    {
      "inputs": [
        {
          "internalType": "uint256",
          "name": "",
          "type": "uint256"
        }
      ],
      "name": "matchedElementCosts",
      "outputs": [
        {
          "internalType": "uint256",
          "name": "",
          "type": "uint256"
        }
      ],
      "stateMutability": "view",
      "type": "function"
    },
    {
      "inputs": [
        {
          "internalType": "bool",
          "name": "usingOrb",
          "type": "bool"
        },
        {
          "internalType": "uint256",
          "name": "orbId",
          "type": "uint256"
        }
      ],
      "name": "mint",
      "outputs": [],
      "stateMutability": "payable",
      "type": "function"
    },
    {
      "inputs": [
        {
          "internalType": "address",
          "name": "to",
          "type": "address"
        },
        {
          "internalType": "uint256",
          "name": "cl",
          "type": "uint256"
        },
        {
          "internalType": "uint256",
          "name": "el",
          "type": "uint256"
        },
        {
          "internalType": "uint256",
          "name": "id",
          "type": "uint256"
        }
      ],
      "name": "mintDev",
      "outputs": [],
      "stateMutability": "nonpayable",
      "type": "function"
    },
    {
      "inputs": [],
      "name": "minted",
      "outputs": [
        {
          "internalType": "uint256",
          "name": "",
          "type": "uint256"
        }
      ],
      "stateMutability": "view",
      "type": "function"
    },
    {
      "inputs": [],
      "name": "moonstone",
      "outputs": [
        {
          "internalType": "contract IERC20",
          "name": "",
          "type": "address"
        }
      ],
      "stateMutability": "view",
      "type": "function"
    },
    {
      "inputs": [],
      "name": "name",
      "outputs": [
        {
          "internalType": "string",
          "name": "",
          "type": "string"
        }
      ],
      "stateMutability": "view",
      "type": "function"
    },
    {
      "inputs": [
        {
          "internalType": "address",
          "name": "",
          "type": "address"
        },
        {
          "internalType": "address",
          "name": "",
          "type": "address"
        },
        {
          "internalType": "uint256",
          "name": "",
          "type": "uint256"
        },
        {
          "internalType": "bytes",
          "name": "",
          "type": "bytes"
        }
      ],
      "name": "onERC721Received",
      "outputs": [
        {
          "internalType": "bytes4",
          "name": "",
          "type": "bytes4"
        }
      ],
      "stateMutability": "nonpayable",
      "type": "function"
    },
    {
      "inputs": [],
      "name": "orb",
      "outputs": [
        {
          "internalType": "contract IERC721",
          "name": "",
          "type": "address"
        }
      ],
      "stateMutability": "view",
      "type": "function"
    },
    {
      "inputs": [],
      "name": "orbRarity",
      "outputs": [
        {
          "internalType": "contract IOrbRarity",
          "name": "",
          "type": "address"
        }
      ],
      "stateMutability": "view",
      "type": "function"
    },
    {
      "inputs": [],
      "name": "owner",
      "outputs": [
        {
          "internalType": "address",
          "name": "",
          "type": "address"
        }
      ],
      "stateMutability": "view",
      "type": "function"
    },
    {
      "inputs": [
        {
          "internalType": "uint256",
          "name": "tokenId",
          "type": "uint256"
        }
      ],
      "name": "ownerOf",
      "outputs": [
        {
          "internalType": "address",
          "name": "",
          "type": "address"
        }
      ],
      "stateMutability": "view",
      "type": "function"
    },
    {
      "inputs": [
        {
          "internalType": "uint256",
          "name": "",
          "type": "uint256"
        }
      ],
      "name": "paired",
      "outputs": [
        {
          "internalType": "bool",
          "name": "",
          "type": "bool"
        }
      ],
      "stateMutability": "view",
      "type": "function"
    },
    {
      "inputs": [],
      "name": "renounceOwnership",
      "outputs": [],
      "stateMutability": "nonpayable",
      "type": "function"
    },
    {
      "inputs": [
        {
          "internalType": "uint256",
          "name": "_tokenId",
          "type": "uint256"
        },
        {
          "internalType": "uint256",
          "name": "_salePrice",
          "type": "uint256"
        }
      ],
      "name": "royaltyInfo",
      "outputs": [
        {
          "internalType": "address",
          "name": "receiver",
          "type": "address"
        },
        {
          "internalType": "uint256",
          "name": "royaltyAmount",
          "type": "uint256"
        }
      ],
      "stateMutability": "view",
      "type": "function"
    },
    {
      "inputs": [
        {
          "internalType": "address",
          "name": "from",
          "type": "address"
        },
        {
          "internalType": "address",
          "name": "to",
          "type": "address"
        },
        {
          "internalType": "uint256",
          "name": "tokenId",
          "type": "uint256"
        }
      ],
      "name": "safeTransferFrom",
      "outputs": [],
      "stateMutability": "nonpayable",
      "type": "function"
    },
    {
      "inputs": [
        {
          "internalType": "address",
          "name": "from",
          "type": "address"
        },
        {
          "internalType": "address",
          "name": "to",
          "type": "address"
        },
        {
          "internalType": "uint256",
          "name": "tokenId",
          "type": "uint256"
        },
        {
          "internalType": "bytes",
          "name": "_data",
          "type": "bytes"
        }
      ],
      "name": "safeTransferFrom",
      "outputs": [],
      "stateMutability": "nonpayable",
      "type": "function"
    },
    {
      "inputs": [
        {
          "internalType": "address",
          "name": "operator",
          "type": "address"
        },
        {
          "internalType": "bool",
          "name": "approved",
          "type": "bool"
        }
      ],
      "name": "setApprovalForAll",
      "outputs": [],
      "stateMutability": "nonpayable",
      "type": "function"
    },
    {
      "inputs": [
        {
          "internalType": "address",
          "name": "_a",
          "type": "address"
        }
      ],
      "name": "setAttunementContract",
      "outputs": [],
      "stateMutability": "nonpayable",
      "type": "function"
    },
    {
      "inputs": [
        {
          "internalType": "string",
          "name": "_newBaseURI",
          "type": "string"
        }
      ],
      "name": "setBaseURI",
      "outputs": [],
      "stateMutability": "nonpayable",
      "type": "function"
    },
    {
      "inputs": [
        {
          "internalType": "uint256",
          "name": "_newCost",
          "type": "uint256"
        }
      ],
      "name": "setCost",
      "outputs": [],
      "stateMutability": "nonpayable",
      "type": "function"
    },
    {
      "inputs": [
        {
          "internalType": "uint256",
          "name": "_id",
          "type": "uint256"
        },
        {
          "internalType": "uint256",
          "name": "_newElement",
          "type": "uint256"
        }
      ],
      "name": "setElement",
      "outputs": [],
      "stateMutability": "nonpayable",
      "type": "function"
    },
    {
      "inputs": [
        {
          "internalType": "address",
          "name": "_es",
          "type": "address"
        }
      ],
      "name": "setElementalStoneContract",
      "outputs": [],
      "stateMutability": "nonpayable",
      "type": "function"
    },
    {
      "inputs": [
        {
          "internalType": "address",
          "name": "_e",
          "type": "address"
        }
      ],
      "name": "setEmissions",
      "outputs": [],
      "stateMutability": "nonpayable",
      "type": "function"
    },
    {
      "inputs": [
        {
          "internalType": "address",
          "name": "_moonstone",
          "type": "address"
        }
      ],
      "name": "setMoonstoneContract",
      "outputs": [],
      "stateMutability": "nonpayable",
      "type": "function"
    },
    {
      "inputs": [
        {
          "internalType": "uint256",
          "name": "_id",
          "type": "uint256"
        },
        {
          "internalType": "bool",
          "name": "_paired",
          "type": "bool"
        }
      ],
      "name": "setPaired",
      "outputs": [],
      "stateMutability": "nonpayable",
      "type": "function"
    },
    {
      "inputs": [
        {
          "internalType": "address",
          "name": "newRecipient",
          "type": "address"
        }
      ],
      "name": "setRoyalties",
      "outputs": [],
      "stateMutability": "nonpayable",
      "type": "function"
    },
    {
      "inputs": [
        {
          "internalType": "bool",
          "name": "_isWhitelistPeriod",
          "type": "bool"
        }
      ],
      "name": "setWhitelistPeriod",
      "outputs": [],
      "stateMutability": "nonpayable",
      "type": "function"
    },
    {
      "inputs": [
        {
          "internalType": "bytes4",
          "name": "interfaceId",
          "type": "bytes4"
        }
      ],
      "name": "supportsInterface",
      "outputs": [
        {
          "internalType": "bool",
          "name": "",
          "type": "bool"
        }
      ],
      "stateMutability": "view",
      "type": "function"
    },
    {
      "inputs": [],
      "name": "symbol",
      "outputs": [
        {
          "internalType": "string",
          "name": "",
          "type": "string"
        }
      ],
      "stateMutability": "view",
      "type": "function"
    },
    {
      "inputs": [
        {
          "internalType": "uint256",
          "name": "index",
          "type": "uint256"
        }
      ],
      "name": "tokenByIndex",
      "outputs": [
        {
          "internalType": "uint256",
          "name": "",
          "type": "uint256"
        }
      ],
      "stateMutability": "view",
      "type": "function"
    },
    {
      "inputs": [
        {
          "internalType": "address",
          "name": "owner",
          "type": "address"
        },
        {
          "internalType": "uint256",
          "name": "index",
          "type": "uint256"
        }
      ],
      "name": "tokenOfOwnerByIndex",
      "outputs": [
        {
          "internalType": "uint256",
          "name": "",
          "type": "uint256"
        }
      ],
      "stateMutability": "view",
      "type": "function"
    },
    {
      "inputs": [
        {
          "internalType": "uint256",
          "name": "tokenId",
          "type": "uint256"
        }
      ],
      "name": "tokenURI",
      "outputs": [
        {
          "internalType": "string",
          "name": "",
          "type": "string"
        }
      ],
      "stateMutability": "view",
      "type": "function"
    },
    {
      "inputs": [],
      "name": "totalSupply",
      "outputs": [
        {
          "internalType": "uint256",
          "name": "",
          "type": "uint256"
        }
      ],
      "stateMutability": "view",
      "type": "function"
    },
    {
      "inputs": [
        {
          "internalType": "address",
          "name": "from",
          "type": "address"
        },
        {
          "internalType": "address",
          "name": "to",
          "type": "address"
        },
        {
          "internalType": "uint256",
          "name": "tokenId",
          "type": "uint256"
        }
      ],
      "name": "transferFrom",
      "outputs": [],
      "stateMutability": "nonpayable",
      "type": "function"
    },
    {
      "inputs": [
        {
          "internalType": "address",
          "name": "newOwner",
          "type": "address"
        }
      ],
      "name": "transferOwnership",
      "outputs": [],
      "stateMutability": "nonpayable",
      "type": "function"
    },
    {
      "inputs": [
        {
          "internalType": "uint256",
          "name": "",
          "type": "uint256"
        }
      ],
      "name": "unmatchedElementCosts",
      "outputs": [
        {
          "internalType": "uint256",
          "name": "",
          "type": "uint256"
        }
      ],
      "stateMutability": "view",
      "type": "function"
    },
    {
      "inputs": [
        {
          "internalType": "address",
          "name": "_owner",
          "type": "address"
        }
      ],
      "name": "walletOfOwner",
      "outputs": [
        {
          "internalType": "uint256[]",
          "name": "",
          "type": "uint256[]"
        }
      ],
      "stateMutability": "view",
      "type": "function"
    },
    {
      "inputs": [],
      "name": "whitelistPeriod",
      "outputs": [
        {
          "internalType": "bool",
          "name": "",
          "type": "bool"
        }
      ],
      "stateMutability": "view",
      "type": "function"
    },
    {
      "inputs": [
        {
          "internalType": "address payable",
          "name": "_rest",
          "type": "address"
        }
      ],
      "name": "withdraw",
      "outputs": [],
      "stateMutability": "nonpayable",
      "type": "function"
    }
  ],
  "bytecode": "0x6019600e55600a600f9081556103c060405260006080908152600460a081905260c081905260e05260056101008190526101208190526101408190526101608190526101805260066101a08190526101c05260076101e052600861020081905261022081905261024081905261026052600b6102808190526102a08190526102c052600c6102e08190526103005261032091909152601061034081905261036081905260116103808190526103a052620000bb91601a62000404565b50604080516101408101825260008152600260208201526003918101829052606081019190915260046080820152600660a0820152600860c0820152600b60e0820152600e61010082015260126101208201526200011e90602a90600a6200044c565b506040805161014081018252600080825260208201819052918101919091526001606082015260026080820152600360a0820152600460c0820152600560e0820152600761010082015260096101208201526200018090603490600a6200044c565b50605a604155600560425560036043556044805460ff19166001179055611388604a556000604b55348015620001b557600080fd5b50604051620040a1380380620040a1833981016040819052620001d89162000532565b604080518082018252600f81526e151bdade5bc815195cdd0811da5c9b608a1b60208083019182528351808501909452600384526254544760e81b9084015281519192916200022a9160009162000481565b5080516200024090600190602084019062000481565b5050506200025d62000257620002e160201b60201c565b620002e5565b620002688562000337565b603e80546001600160a01b038087166001600160a01b031992831617909255603f805492861692909116919091179055620002a3826200035a565b620002b6674563918244f4000062000386565b604c80546001600160a01b0319166001600160a01b039290921691909117905550620006a892505050565b3390565b600a80546001600160a01b038381166001600160a01b0319831681179093556040519116919082907f8be0079c531659141344cd1fd0a4f28419497f9722a3daafe3b4186f6b6457e090600090a35050565b62000341620003a3565b80516200035690604990602084019062000481565b5050565b62000364620003a3565b604880546001600160a01b0319166001600160a01b0392909216919091179055565b62000390620003a3565b600081116200039e57600080fd5b604055565b600a546001600160a01b03163314620004025760405162461bcd60e51b815260206004820181905260248201527f4f776e61626c653a2063616c6c6572206973206e6f7420746865206f776e6572604482015260640160405180910390fd5b565b82601a81019282156200043a579160200282015b828111156200043a578251829060ff1690559160200191906001019062000418565b5062000448929150620004fe565b5090565b82600a81019282156200043a57916020028201828111156200043a578251829060ff1690559160200191906001019062000418565b8280546200048f9062000655565b90600052602060002090601f016020900481019282620004b357600085556200043a565b82601f10620004ce57805160ff19168380011785556200043a565b828001600101855582156200043a579182015b828111156200043a578251825591602001919060010190620004e1565b5b80821115620004485760008155600101620004ff565b80516001600160a01b03811681146200052d57600080fd5b919050565b600080600080600060a086880312156200054a578081fd5b85516001600160401b038082111562000561578283fd5b818801915088601f83011262000575578283fd5b8151818111156200058a576200058a62000692565b604051601f8201601f19908116603f01168101908382118183101715620005b557620005b562000692565b81604052828152602093508b84848701011115620005d1578586fd5b8591505b82821015620005f45784820184015181830185015290830190620005d5565b828211156200060557858484830101525b98506200061791505088820162000515565b95505050620006296040870162000515565b9250620006396060870162000515565b9150620006496080870162000515565b90509295509295909350565b600181811c908216806200066a57607f821691505b602082108114156200068c57634e487b7160e01b600052602260045260246000fd5b50919050565b634e487b7160e01b600052604160045260246000fd5b6139e980620006b86000396000f3fe6080604052600436106103e45760003560e01c806366db874511610208578063b060dd8611610118578063dfefc776116100ab578063f2fde38b1161007a578063f2fde38b14610c90578063f909a9cf14610cb0578063fd79e7ac14610cdd578063ff23d7d314610cfd578063ff91078314610d1d57600080fd5b8063dfefc77614610bf1578063e00cda2614610c04578063e985e9c514610c1a578063f090e00414610c6357600080fd5b8063c3ca39f8116100e7578063c3ca39f814610b64578063c4e2676714610b84578063c87b56dd14610ba4578063d066100614610bc457600080fd5b8063b060dd8614610afa578063b48e665e14610b15578063b88d4fde14610b2f578063bd3e19d414610b4f57600080fd5b80637a6832a51161019b57806395d89b411161016a57806395d89b4114610a58578063a16e721514610a6d578063a22b36ef14610a8d578063a22cb46514610aba578063a388237d14610ada57600080fd5b80637a6832a5146109ca578063814e1bb8146109ea5780638da5cb5b14610a0a5780638efab2d514610a2857600080fd5b806370a08231116101d757806370a0823114610955578063715018a614610975578063733495711461098a57806373ae2d78146109aa57600080fd5b806366db8745146108d5578063690d1ca2146108f557806369250220146109155780636aa5dd711461093557600080fd5b80633a7d22bc1161030357806349af0b941161029657806355f804b31161026557806355f804b314610828578063562d412f1461084857806358d70d74146108755780635c5ac79a146108955780636352211e146108b557600080fd5b806349af0b94146107a55780634f02c420146107d25780634f6ccce7146107e857806351cff8d91461080857600080fd5b806340a3c338116102d257806340a3c3381461070057806342842e0e14610745578063438b63001461076557806344a0d68a1461078557600080fd5b80633a7d22bc146106665780633c010930146106935780633f1ed709146106b35780633f74c596146106d357600080fd5b8063150b7a021161037b57806323b872dd1161034a57806323b872dd146105c75780632a55205a146105e75780632a9e63c6146106265780632f745c591461064657600080fd5b8063150b7a021461053a57806318160ddd146105735780631c8a76c5146105925780632267716c146105a757600080fd5b8063095ea7b3116103b7578063095ea7b31461049a5780630b689417146104ba5780630f3b899b146104ea57806312cbd7051461050a57600080fd5b806301ffc9a7146103e957806306fdde031461041e578063081812fc1461044057806308834ee714610478575b600080fd5b3480156103f557600080fd5b506104096104043660046135a4565b610d3d565b60405190151581526020015b60405180910390f35b34801561042a57600080fd5b50610433610d68565b6040516104159190613771565b34801561044c57600080fd5b5061046061045b366004613622565b610dfa565b6040516001600160a01b039091168152602001610415565b34801561048457600080fd5b506104986104933660046133b2565b610e21565b005b3480156104a657600080fd5b506104986104b536600461350a565b610e4b565b3480156104c657600080fd5b506104096104d5366004613622565b6000908152604f602052604090205460ff1690565b3480156104f657600080fd5b50604754610460906001600160a01b031681565b34801561051657600080fd5b506104096105253660046133b2565b604e6020526000908152604090205460ff1681565b34801561054657600080fd5b5061055a610555366004613462565b610f66565b6040516001600160e01b03199091168152602001610415565b34801561057f57600080fd5b506008545b604051908152602001610415565b34801561059e57600080fd5b50610584610f77565b3480156105b357600080fd5b50604854610460906001600160a01b031681565b3480156105d357600080fd5b506104986105e2366004613422565b610f9a565b3480156105f357600080fd5b50610607610602366004613674565b61102e565b604080516001600160a01b039093168352602083019190915201610415565b34801561063257600080fd5b506104986106413660046133b2565b611050565b34801561065257600080fd5b5061058461066136600461350a565b611064565b34801561067257600080fd5b50610584610681366004613622565b6000908152600d602052604090205490565b34801561069f57600080fd5b506105846106ae366004613674565b6110fa565b3480156106bf57600080fd5b506104986106ce366004613652565b6111f5565b3480156106df57600080fd5b506106f36106ee366004613674565b611289565b604051610415919061372d565b34801561070c57600080fd5b5061072061071b366004613622565b61131b565b604080516001600160a01b039094168452911515602084015290820152606001610415565b34801561075157600080fd5b50610498610760366004613422565b611354565b34801561077157600080fd5b506106f36107803660046133b2565b61136f565b34801561079157600080fd5b506104986107a0366004613622565b61142d565b3480156107b157600080fd5b506105846107c0366004613622565b60456020526000908152604090205481565b3480156107de57600080fd5b50610584604b5481565b3480156107f457600080fd5b50610584610803366004613622565b611447565b34801561081457600080fd5b506104986108233660046133b2565b6114e8565b34801561083457600080fd5b506104986108433660046135dc565b611568565b34801561085457600080fd5b50610584610863366004613622565b600c6020526000908152604090205481565b34801561088157600080fd5b50604654610460906001600160a01b031681565b3480156108a157600080fd5b50603f54610460906001600160a01b031681565b3480156108c157600080fd5b506104606108d0366004613622565b611587565b3480156108e157600080fd5b506104986108f0366004613535565b6115e7565b34801561090157600080fd5b506104986109103660046133b2565b6116cd565b34801561092157600080fd5b50610498610930366004613674565b6116f9565b34801561094157600080fd5b50610498610950366004613674565b611861565b34801561096157600080fd5b506105846109703660046133b2565b611940565b34801561098157600080fd5b506104986119c6565b34801561099657600080fd5b506104986109a536600461356f565b6119da565b3480156109b657600080fd5b506106f36109c5366004613674565b6119f5565b3480156109d657600080fd5b506104986109e53660046133b2565b611c40565b3480156109f657600080fd5b50610584610a05366004613622565b611c6a565b348015610a1657600080fd5b50600a546001600160a01b0316610460565b348015610a3457600080fd5b50610409610a43366004613622565b604f6020526000908152604090205460ff1681565b348015610a6457600080fd5b50610433611c81565b348015610a7957600080fd5b50610498610a88366004613674565b611c90565b348015610a9957600080fd5b50610584610aa8366004613622565b6000908152600c602052604090205490565b348015610ac657600080fd5b50610498610ad53660046134df565b611ce8565b348015610ae657600080fd5b50610498610af53660046133b2565b611cf3565b348015610b0657600080fd5b5061055a63152a902d60e11b81565b348015610b2157600080fd5b506044546104099060ff1681565b348015610b3b57600080fd5b50610498610b4a366004613462565b611d1d565b348015610b5b57600080fd5b50604054610584565b348015610b7057600080fd5b50610584610b7f366004613674565b611d80565b348015610b9057600080fd5b50610584610b9f366004613622565b611e89565b348015610bb057600080fd5b50610433610bbf366004613622565b611e99565b348015610bd057600080fd5b50610584610bdf366004613622565b6000908152600b602052604090205490565b610498610bff366004613589565b611f73565b348015610c1057600080fd5b5061058460425481565b348015610c2657600080fd5b50610409610c353660046133ea565b6001600160a01b03918216600090815260056020908152604080832093909416825291909152205460ff1690565b348015610c6f57600080fd5b50610584610c7e366004613622565b600d6020526000908152604090205481565b348015610c9c57600080fd5b50610498610cab3660046133b2565b612301565b348015610cbc57600080fd5b50610584610ccb366004613622565b600b6020526000908152604090205481565b348015610ce957600080fd5b50610584610cf8366004613622565b612377565b348015610d0957600080fd5b50610584610d18366004613622565b612387565b348015610d2957600080fd5b50603e54610460906001600160a01b031681565b60006001600160e01b0319821663152a902d60e11b1480610d625750610d62826123a3565b92915050565b606060008054610d7790613906565b80601f0160208091040260200160405190810160405280929190818152602001828054610da390613906565b8015610df05780601f10610dc557610100808354040283529160200191610df0565b820191906000526020600020905b815481529060010190602001808311610dd357829003601f168201915b5050505050905090565b6000610e05826123c8565b506000908152600460205260409020546001600160a01b031690565b610e29612427565b604880546001600160a01b0319166001600160a01b0392909216919091179055565b6000610e5682611587565b9050806001600160a01b0316836001600160a01b03161415610ec95760405162461bcd60e51b815260206004820152602160248201527f4552433732313a20617070726f76616c20746f2063757272656e74206f776e656044820152603960f91b60648201526084015b60405180910390fd5b336001600160a01b0382161480610ee55750610ee58133610c35565b610f575760405162461bcd60e51b815260206004820152603d60248201527f4552433732313a20617070726f76652063616c6c6572206973206e6f7420746f60448201527f6b656e206f776e6572206f7220617070726f76656420666f7220616c6c0000006064820152608401610ec0565b610f618383612481565b505050565b630a85bd0160e11b5b949350505050565b60006064604154604054610f8b91906138a4565b610f959190613884565b905090565b610fa433826124ef565b610fc05760405162461bcd60e51b8152600401610ec09061381b565b610fcb83838361256d565b60475460405163add058fd60e01b8152600481018390526001600160a01b039091169063add058fd90602401600060405180830381600087803b15801561101157600080fd5b505af1158015611025573d6000803e3d6000fd5b50505050505050565b604d546001600160a01b03166000611047601484613884565b90509250929050565b611058612427565b611061816126de565b50565b600061106f83611940565b82106110d15760405162461bcd60e51b815260206004820152602b60248201527f455243373231456e756d657261626c653a206f776e657220696e646578206f7560448201526a74206f6620626f756e647360a81b6064820152608401610ec0565b506001600160a01b03919091166000908152600660209081526040808320938352929052205490565b60006001821015801561110f5750600e548211155b61116c5760405162461bcd60e51b815260206004820152602860248201527f557067726164653a20746f54696572206d757374206265206265747765656e206044820152673120616e6420323560c01b6064820152608401610ec0565b6000838152600c602052604090205482116111e45760405162461bcd60e51b815260206004820152603260248201527f557067726164653a20746f54696572206d7573742062652067726561746572206044820152711d1a185b8818dd5c9c995b9d081b195d995b60721b6064820152608401610ec0565b6111ee8383611d80565b9392505050565b336000908152604e602052604090205460ff168061121d57506047546001600160a01b031633145b6112695760405162461bcd60e51b815260206004820152601d60248201527f4769726c3a206f6e6c79204553206f72204174742063616e2063616c6c0000006044820152606401610ec0565b6000918252604f6020526040909120805460ff1916911515919091179055565b6000828152600b6020526040902054606090821180156112aa5750600a8211155b6113115760405162461bcd60e51b815260206004820152603260248201527f557067726164653a2074696572206d757374206265206265747765656e20637560448201527107272656e74206c6576656c20616e642031360741b6064820152608401610ec0565b6111ee83836119f5565b600080600061132984611587565b6000948552604f6020908152604080872054600d90925290952054909560ff90951694909350915050565b610fcb83838360405180602001604052806000815250611d1d565b6060600061137c83611940565b905060008167ffffffffffffffff8111156113a757634e487b7160e01b600052604160045260246000fd5b6040519080825280602002602001820160405280156113d0578160200160208202803683370190505b50905060005b82811015611425576113e88582611064565b82828151811061140857634e487b7160e01b600052603260045260246000fd5b60209081029190910101528061141d81613941565b9150506113d6565b509392505050565b611435612427565b6000811161144257600080fd5b604055565b600061145260085490565b82106114b55760405162461bcd60e51b815260206004820152602c60248201527f455243373231456e756d657261626c653a20676c6f62616c20696e646578206f60448201526b7574206f6620626f756e647360a01b6064820152608401610ec0565b600882815481106114d657634e487b7160e01b600052603260045260246000fd5b90600052602060002001549050919050565b6114f0612427565b604c5447906001600160a01b03166108fc61150a8361276b565b6040518115909202916000818181858888f19350505050158015611532573d6000803e3d6000fd5b506040516001600160a01b038316904780156108fc02916000818181858888f19350505050158015610f61573d6000803e3d6000fd5b611570612427565b805161158390604990602084019061328e565b5050565b6000818152600260205260408120546001600160a01b031680610d625760405162461bcd60e51b8152602060048201526018602482015277115490cdcc8c4e881a5b9d985b1a59081d1bdad95b88125160421b6044820152606401610ec0565b6115ef612427565b6115f98482612787565b6000818152600b60209081526040808320869055600d9091529020829055604854604051632b017cb760e01b8152600481018390526001600160a01b0390911690632b017cb790602401600060405180830381600087803b15801561165d57600080fd5b505af1158015611671573d6000803e3d6000fd5b5050604080516001600160a01b038816815260208101859052908101869052606081018590527f5a3358a3d27a5373c0df2604662088d37894d56b7cfd27f315770440f4e0d9199250608001905060405180910390a150505050565b6116d5612427565b6001600160a01b03166000908152604e60205260409020805460ff19166001179055565b6046546001600160a01b031633146117675760405162461bcd60e51b815260206004820152602b60248201527f4769726c3a206f6e6c79206d6f6f6e73746f6e652063616e207570677261646560448201526a2067616d657273636f726560a81b6064820152608401610ec0565b6000828152600c6020908152604080832054600b9092529182902054604854925163b3c9524b60e01b815260048101869052919290916001600160a01b039091169063b3c9524b90602401600060405180830381600087803b1580156117cc57600080fd5b505af11580156117e0573d6000803e3d6000fd5b505050506117ee84846127a1565b604854604051632d7f86bb60e11b81526004810186905260248101849052604481018390526001600160a01b0390911690635aff0d76906064015b600060405180830381600087803b15801561184357600080fd5b505af1158015611857573d6000803e3d6000fd5b5050505050505050565b336000908152604e602052604090205460ff166118b95760405162461bcd60e51b815260206004820152601660248201527511da5c9b0e881bdb9b1e481154c818d85b8818d85b1b60521b6044820152606401610ec0565b6000828152600c6020908152604080832054600b9092529182902054604854925163b3c9524b60e01b815260048101869052919290916001600160a01b039091169063b3c9524b90602401600060405180830381600087803b15801561191e57600080fd5b505af1158015611932573d6000803e3d6000fd5b505050506117ee84846127e9565b60006001600160a01b0382166119aa5760405162461bcd60e51b815260206004820152602960248201527f4552433732313a2061646472657373207a65726f206973206e6f7420612076616044820152683634b21037bbb732b960b91b6064820152608401610ec0565b506001600160a01b031660009081526003602052604090205490565b6119ce612427565b6119d86000612831565b565b6119e2612427565b6044805460ff1916911515919091179055565b6060600f54821115611a495760405162461bcd60e51b815260206004820152601f60248201527f557067726164653a204d617820636f736d6963206c6576656c206973203130006044820152606401610ec0565b6000838152600b6020526040902054600f548110611ab35760405162461bcd60e51b815260206004820152602160248201527f557067726164653a20636f736d6963206c6576656c20616c7265616479206d616044820152600f60fb1b6064820152608401610ec0565b6000848152600d602052604080822054815160038082526080820190935290929181602001602082028036833701905050905060008080611af586600161386c565b90505b878111611b8157602a611b0c6001836138c3565b600a8110611b2a57634e487b7160e01b600052603260045260246000fd5b0154611b36908461386c565b92506034611b456001836138c3565b600a8110611b6357634e487b7160e01b600052603260045260246000fd5b0154611b6f908361386c565b9150611b7a81613941565b9050611af8565b508183611b8f6001876138c3565b81518110611bad57634e487b7160e01b600052603260045260246000fd5b60200260200101818152505060005b8351811015611c3357838181518110611be557634e487b7160e01b600052603260045260246000fd5b602002602001015160001415611c235781848281518110611c1657634e487b7160e01b600052603260045260246000fd5b6020026020010181815250505b611c2c81613941565b9050611bbc565b5091979650505050505050565b611c48612427565b604680546001600160a01b0319166001600160a01b0392909216919091179055565b601081601a8110611c7a57600080fd5b0154905081565b606060018054610d7790613906565b611c98612427565b6000828152600d602090815260409182902083905581518481529081018390527fe9d2aa95a8bcda1481b0316470d5993a8d561039f5db3f8222f8d526e03c0a1b91015b60405180910390a15050565b611583338383612883565b611cfb612427565b604780546001600160a01b0319166001600160a01b0392909216919091179055565b611d2733836124ef565b611d435760405162461bcd60e51b8152600401610ec09061381b565b611d4f84848484612952565b60475460405163add058fd60e01b8152600481018490526001600160a01b039091169063add058fd90602401611829565b6000600e54821115611dd45760405162461bcd60e51b815260206004820152601e60248201527f557067726164653a204d61782073636f7265206973206c6576656c20323500006044820152606401610ec0565b6000838152600c6020526040902054600e548110611e345760405162461bcd60e51b815260206004820152601f60248201527f557067726164653a204769726c20616c7265616479206d6178206c6576656c006044820152606401610ec0565b6000815b848111611e8057601081601a8110611e6057634e487b7160e01b600052603260045260246000fd5b0154611e6c908361386c565b915080611e7881613941565b915050611e38565b50949350505050565b603481600a8110611c7a57600080fd5b6000818152600260205260409020546060906001600160a01b0316611f185760405162461bcd60e51b815260206004820152602f60248201527f4552433732314d657461646174613a2055524920717565727920666f72206e6f60448201526e3732bc34b9ba32b73a103a37b5b2b760891b6064820152608401610ec0565b6000611f2261298b565b90506000815111611f4257604051806020016040528060008152506111ee565b80611f4c8461299a565b604051602001611f5d9291906136c1565b6040516020818303038152906040529392505050565b604b5433906000908190611f8890600161386c565b9050604a54604b5410611fce5760405162461bcd60e51b815260206004820152600e60248201526d11da5c9b0e8814dbdb19081bdd5d60921b6044820152606401610ec0565b841561224157603e546040516331a9108f60e11b8152600481018690526001600160a01b03858116921690636352211e9060240160206040518083038186803b15801561201a57600080fd5b505afa15801561202e573d6000803e3d6000fd5b505050506040513d601f19601f8201168201806040525081019061205291906133ce565b6001600160a01b03161461209e5760405162461bcd60e51b815260206004820152601360248201527223b4b9361d103737ba1037b9311037bbb732b960691b6044820152606401610ec0565b6120a6610f77565b3410156120f05760405162461bcd60e51b81526020600482015260186024820152774769726c3a2073656e6420636f727265637420707269636560401b6044820152606401610ec0565b6120f984612a3d565b91508160061461223c57603e546040516323b872dd60e01b81526001600160a01b03858116600483015230602483015260448201879052909116906323b872dd90606401600060405180830381600087803b15801561215757600080fd5b505af115801561216b573d6000803e3d6000fd5b5050603e546040516331a9108f60e11b8152600481018890523093506001600160a01b039091169150636352211e9060240160206040518083038186803b1580156121b557600080fd5b505afa1580156121c9573d6000803e3d6000fd5b505050506040513d601f19601f820116820180604052508101906121ed91906133ce565b6001600160a01b03161461223c5760405162461bcd60e51b815260206004820152601660248201527511da5c9b0e881bdc98881b9bdd081c9958da595d995960521b6044820152606401610ec0565b612293565b60405434101561228e5760405162461bcd60e51b81526020600482015260186024820152774769726c3a2073656e6420636f727265637420707269636560401b6044820152606401610ec0565b600691505b604b80549060006122a383613941565b9091555050604080516001600160a01b03851681528615156020820152908101839052606081018290527f6b5eb33a3d6af813f4384429e94a4936d1598feae8eced177fbf5d2b85d78ad59060800160405180910390a15050505050565b612309612427565b6001600160a01b03811661236e5760405162461bcd60e51b815260206004820152602660248201527f4f776e61626c653a206e6577206f776e657220697320746865207a65726f206160448201526564647265737360d01b6064820152608401610ec0565b61106181612831565b602a81600a8110611c7a57600080fd5b600081815260456020526040812054604254610d6291906138c3565b60006001600160e01b0319821663780e9d6360e01b1480610d625750610d6282612b0e565b6000818152600260205260409020546001600160a01b03166110615760405162461bcd60e51b8152602060048201526018602482015277115490cdcc8c4e881a5b9d985b1a59081d1bdad95b88125160421b6044820152606401610ec0565b600a546001600160a01b031633146119d85760405162461bcd60e51b815260206004820181905260248201527f4f776e61626c653a2063616c6c6572206973206e6f7420746865206f776e65726044820152606401610ec0565b600081815260046020526040902080546001600160a01b0319166001600160a01b03841690811790915581906124b682611587565b6001600160a01b03167f8c5be1e5ebec7d5bd14f71427d1e84f3dd0314c0f7b2291e5b200ac8c7c3b92560405160405180910390a45050565b6000806124fb83611587565b9050806001600160a01b0316846001600160a01b0316148061254257506001600160a01b0380821660009081526005602090815260408083209388168352929052205460ff165b80610f6f5750836001600160a01b031661255b84610dfa565b6001600160a01b031614949350505050565b826001600160a01b031661258082611587565b6001600160a01b0316146125a65760405162461bcd60e51b8152600401610ec0906137d6565b6001600160a01b0382166126085760405162461bcd60e51b8152602060048201526024808201527f4552433732313a207472616e7366657220746f20746865207a65726f206164646044820152637265737360e01b6064820152608401610ec0565b6126158383836001612b5e565b826001600160a01b031661262882611587565b6001600160a01b03161461264e5760405162461bcd60e51b8152600401610ec0906137d6565b600081815260046020908152604080832080546001600160a01b03199081169091556001600160a01b0387811680865260038552838620805460001901905590871680865283862080546001019055868652600290945282852080549092168417909155905184937fddf252ad1be2c89b69c2b068fc378daa952ba7f163c4a11628f55a4df523b3ef91a4505050565b6001600160a01b0381166127495760405162461bcd60e51b815260206004820152602c60248201527f526f79616c746965733a206e657720726563697069656e74206973207468652060448201526b7a65726f206164647265737360a01b6064820152608401610ec0565b604d80546001600160a01b0319166001600160a01b0392909216919091179055565b600060646043548361277d91906138a4565b610d629190613884565b611583828260405180602001604052806000815250612c9e565b6000828152600c602090815260409182902083905581518481529081018390527f866cfb7bcf22266717dccfb6e13d4a8aaf393c0bc2c147cf9df1b747e00370029101611cdc565b6000828152600b602090815260409182902083905581518481529081018390527f56bd88bf537c8134d681abc094b975697025d38f1a7e20c408f3b5e6b4df40b79101611cdc565b600a80546001600160a01b038381166001600160a01b0319831681179093556040519116919082907f8be0079c531659141344cd1fd0a4f28419497f9722a3daafe3b4186f6b6457e090600090a35050565b816001600160a01b0316836001600160a01b031614156128e55760405162461bcd60e51b815260206004820152601960248201527f4552433732313a20617070726f766520746f2063616c6c6572000000000000006044820152606401610ec0565b6001600160a01b03838116600081815260056020908152604080832094871680845294825291829020805460ff191686151590811790915591519182527f17307eab39ab6107e8899845ad3d59bd9653f200f220920489ca2b5937696c31910160405180910390a3505050565b61295d84848461256d565b61296984848484612cd1565b6129855760405162461bcd60e51b8152600401610ec090613784565b50505050565b606060498054610d7790613906565b606060006129a783612ddb565b600101905060008167ffffffffffffffff8111156129d557634e487b7160e01b600052604160045260246000fd5b6040519080825280601f01601f1916602001820160405280156129ff576020820181803683370190505b5090508181016020015b600019016f181899199a1a9b1b9c1cb0b131b232b360811b600a86061a8153600a8504945084612a3857611425565b612a09565b600081815260456020526040812054600511612a5857600080fd5b60008281526045602052604081208054909190612a7490613941565b9091555060008281526045602052604090205460069060051415610d6257603f54604051634875869760e01b8152600481018590526001600160a01b039091169063487586979060240160206040518083038186803b158015612ad657600080fd5b505afa158015612aea573d6000803e3d6000fd5b505050506040513d601f19601f820116820180604052508101906111ee919061363a565b60006001600160e01b031982166380ac58cd60e01b1480612b3f57506001600160e01b03198216635b5e139f60e01b145b80610d6257506301ffc9a760e01b6001600160e01b0319831614610d62565b612b6a84848484612eb3565b6001811115612bd95760405162461bcd60e51b815260206004820152603560248201527f455243373231456e756d657261626c653a20636f6e7365637574697665207472604482015274185b9cd9995c9cc81b9bdd081cdd5c1c1bdc9d1959605a1b6064820152608401610ec0565b816001600160a01b038516612c3557612c3081600880546000838152600960205260408120829055600182018355919091527ff3f7a9fe364faab93b216da50a3214154f22a0a2b415b23a84c8169e8b636ee30155565b612c58565b836001600160a01b0316856001600160a01b031614612c5857612c588582612f3b565b6001600160a01b038416612c7457612c6f81612fd8565b612c97565b846001600160a01b0316846001600160a01b031614612c9757612c9784826130b1565b5050505050565b612ca883836130f5565b612cb56000848484612cd1565b610f615760405162461bcd60e51b8152600401610ec090613784565b60006001600160a01b0384163b15612dd357604051630a85bd0160e11b81526001600160a01b0385169063150b7a0290612d159033908990889088906004016136f0565b602060405180830381600087803b158015612d2f57600080fd5b505af1925050508015612d5f575060408051601f3d908101601f19168201909252612d5c918101906135c0565b60015b612db9573d808015612d8d576040519150601f19603f3d011682016040523d82523d6000602084013e612d92565b606091505b508051612db15760405162461bcd60e51b8152600401610ec090613784565b805181602001fd5b6001600160e01b031916630a85bd0160e11b149050610f6f565b506001610f6f565b60008072184f03e93ff9f4daa797ed6e38ed64bf6a1f0160401b8310612e1a5772184f03e93ff9f4daa797ed6e38ed64bf6a1f0160401b830492506040015b6d04ee2d6d415b85acef81000000008310612e46576d04ee2d6d415b85acef8100000000830492506020015b662386f26fc100008310612e6457662386f26fc10000830492506010015b6305f5e1008310612e7c576305f5e100830492506008015b6127108310612e9057612710830492506004015b60648310612ea2576064830492506002015b600a8310610d625760010192915050565b6001811115612985576001600160a01b03841615612ef9576001600160a01b03841660009081526003602052604081208054839290612ef39084906138c3565b90915550505b6001600160a01b03831615612985576001600160a01b03831660009081526003602052604081208054839290612f3090849061386c565b909155505050505050565b60006001612f4884611940565b612f5291906138c3565b600083815260076020526040902054909150808214612fa5576001600160a01b03841660009081526006602090815260408083208584528252808320548484528184208190558352600790915290208190555b5060009182526007602090815260408084208490556001600160a01b039094168352600681528383209183525290812055565b600854600090612fea906001906138c3565b6000838152600960205260408120546008805493945090928490811061302057634e487b7160e01b600052603260045260246000fd5b90600052602060002001549050806008838154811061304f57634e487b7160e01b600052603260045260246000fd5b600091825260208083209091019290925582815260099091526040808220849055858252812055600880548061309557634e487b7160e01b600052603160045260246000fd5b6001900381819060005260206000200160009055905550505050565b60006130bc83611940565b6001600160a01b039093166000908152600660209081526040808320868452825280832085905593825260079052919091209190915550565b6001600160a01b03821661314b5760405162461bcd60e51b815260206004820181905260248201527f4552433732313a206d696e7420746f20746865207a65726f20616464726573736044820152606401610ec0565b6000818152600260205260409020546001600160a01b0316156131b05760405162461bcd60e51b815260206004820152601c60248201527f4552433732313a20746f6b656e20616c7265616479206d696e746564000000006044820152606401610ec0565b6131be600083836001612b5e565b6000818152600260205260409020546001600160a01b0316156132235760405162461bcd60e51b815260206004820152601c60248201527f4552433732313a20746f6b656e20616c7265616479206d696e746564000000006044820152606401610ec0565b6001600160a01b038216600081815260036020908152604080832080546001019055848352600290915280822080546001600160a01b0319168417905551839291907fddf252ad1be2c89b69c2b068fc378daa952ba7f163c4a11628f55a4df523b3ef908290a45050565b82805461329a90613906565b90600052602060002090601f0160209004810192826132bc5760008555613302565b82601f106132d557805160ff1916838001178555613302565b82800160010185558215613302579182015b828111156133025782518255916020019190600101906132e7565b5061330e929150613312565b5090565b5b8082111561330e5760008155600101613313565b600067ffffffffffffffff8084111561334257613342613972565b604051601f8501601f19908116603f0116810190828211818310171561336a5761336a613972565b8160405280935085815286868601111561338357600080fd5b858560208301376000602087830101525050509392505050565b803580151581146133ad57600080fd5b919050565b6000602082840312156133c3578081fd5b81356111ee81613988565b6000602082840312156133df578081fd5b81516111ee81613988565b600080604083850312156133fc578081fd5b823561340781613988565b9150602083013561341781613988565b809150509250929050565b600080600060608486031215613436578081fd5b833561344181613988565b9250602084013561345181613988565b929592945050506040919091013590565b60008060008060808587031215613477578081fd5b843561348281613988565b9350602085013561349281613988565b925060408501359150606085013567ffffffffffffffff8111156134b4578182fd5b8501601f810187136134c4578182fd5b6134d387823560208401613327565b91505092959194509250565b600080604083850312156134f1578182fd5b82356134fc81613988565b91506110476020840161339d565b6000806040838503121561351c578182fd5b823561352781613988565b946020939093013593505050565b6000806000806080858703121561354a578384fd5b843561355581613988565b966020860135965060408601359560600135945092505050565b600060208284031215613580578081fd5b6111ee8261339d565b6000806040838503121561359b578182fd5b6135278361339d565b6000602082840312156135b5578081fd5b81356111ee8161399d565b6000602082840312156135d1578081fd5b81516111ee8161399d565b6000602082840312156135ed578081fd5b813567ffffffffffffffff811115613603578182fd5b8201601f81018413613613578182fd5b610f6f84823560208401613327565b600060208284031215613633578081fd5b5035919050565b60006020828403121561364b578081fd5b5051919050565b60008060408385031215613664578182fd5b823591506110476020840161339d565b60008060408385031215613686578182fd5b50508035926020909101359150565b600081518084526136ad8160208601602086016138da565b601f01601f19169290920160200192915050565b600083516136d38184602088016138da565b8351908301906136e78183602088016138da565b01949350505050565b6001600160a01b038581168252841660208201526040810183905260806060820181905260009061372390830184613695565b9695505050505050565b6020808252825182820181905260009190848201906040850190845b8181101561376557835183529284019291840191600101613749565b50909695505050505050565b6020815260006111ee6020830184613695565b60208082526032908201527f4552433732313a207472616e7366657220746f206e6f6e20455243373231526560408201527131b2b4bb32b91034b6b83632b6b2b73a32b960711b606082015260800190565b60208082526025908201527f4552433732313a207472616e736665722066726f6d20696e636f72726563742060408201526437bbb732b960d91b606082015260800190565b60208082526031908201527f4552433732313a207472616e736665722063616c6c6572206973206e6f74206f6040820152701ddb995c881b9bdc88185c1c1c9bdd9959607a1b606082015260800190565b6000821982111561387f5761387f61395c565b500190565b60008261389f57634e487b7160e01b81526012600452602481fd5b500490565b60008160001904831182151516156138be576138be61395c565b500290565b6000828210156138d5576138d561395c565b500390565b60005b838110156138f55781810151838201526020016138dd565b838111156129855750506000910152565b600181811c9082168061391a57607f821691505b6020821081141561393b57634e487b7160e01b600052602260045260246000fd5b50919050565b60006000198214156139555761395561395c565b5060010190565b634e487b7160e01b600052601160045260246000fd5b634e487b7160e01b600052604160045260246000fd5b6001600160a01b038116811461106157600080fd5b6001600160e01b03198116811461106157600080fdfea2646970667358221220ce22309f10ed2093a9999b82c4897e74d01942f3b36c773171c54eb4af5a6d9264736f6c63430008040033",
  "linkReferences": {},
  "deployedLinkReferences": {}
}