{
  "_format": "hh-sol-artifact-1",
  "contractName": "Girl",
  "sourceName": "contracts/Girl/Girl.sol",
  "abi": [
    {
      "inputs": [
        {
          "internalType": "string",
          "name": "_initBaseURI",
          "type": "string"
        },
        {
          "internalType": "address",
          "name": "_orb",
          "type": "address"
        },
        {
          "internalType": "address",
          "name": "_emissions",
          "type": "address"
        },
        {
          "internalType": "address payable",
          "name": "_dev",
          "type": "address"
        },
        {
          "internalType": "address",
          "name": "_royalty",
          "type": "address"
        }
      ],
      "stateMutability": "nonpayable",
      "type": "constructor"
    },
    {
      "anonymous": false,
      "inputs": [
        {
          "indexed": true,
          "internalType": "address",
          "name": "owner",
          "type": "address"
        },
        {
          "indexed": true,
          "internalType": "address",
          "name": "approved",
          "type": "address"
        },
        {
          "indexed": true,
          "internalType": "uint256",
          "name": "tokenId",
          "type": "uint256"
        }
      ],
      "name": "Approval",
      "type": "event"
    },
    {
      "anonymous": false,
      "inputs": [
        {
          "indexed": true,
          "internalType": "address",
          "name": "owner",
          "type": "address"
        },
        {
          "indexed": true,
          "internalType": "address",
          "name": "operator",
          "type": "address"
        },
        {
          "indexed": false,
          "internalType": "bool",
          "name": "approved",
          "type": "bool"
        }
      ],
      "name": "ApprovalForAll",
      "type": "event"
    },
    {
      "anonymous": false,
      "inputs": [
        {
          "indexed": false,
          "internalType": "uint256",
          "name": "id",
          "type": "uint256"
        },
        {
          "indexed": false,
          "internalType": "uint256",
          "name": "newLevel",
          "type": "uint256"
        }
      ],
      "name": "CosmicLevelChanged",
      "type": "event"
    },
    {
      "anonymous": false,
      "inputs": [
        {
          "indexed": false,
          "internalType": "uint256",
          "name": "id",
          "type": "uint256"
        },
        {
          "indexed": false,
          "internalType": "uint256",
          "name": "element",
          "type": "uint256"
        }
      ],
      "name": "ElementChanged",
      "type": "event"
    },
    {
      "anonymous": false,
      "inputs": [
        {
          "indexed": false,
          "internalType": "uint256",
          "name": "id",
          "type": "uint256"
        },
        {
          "indexed": false,
          "internalType": "uint256",
          "name": "newScore",
          "type": "uint256"
        }
      ],
      "name": "GamerScoreChanged",
      "type": "event"
    },
    {
      "anonymous": false,
      "inputs": [
        {
          "indexed": false,
          "internalType": "address",
          "name": "minter",
          "type": "address"
        },
        {
          "indexed": true,
          "internalType": "uint256",
          "name": "id",
          "type": "uint256"
        },
        {
          "indexed": true,
          "internalType": "bool",
          "name": "usingOrb",
          "type": "bool"
        },
        {
          "indexed": true,
          "internalType": "uint256",
          "name": "rarity",
          "type": "uint256"
        }
      ],
      "name": "GirlMinted",
      "type": "event"
    },
    {
      "anonymous": false,
      "inputs": [
        {
          "indexed": true,
          "internalType": "address",
          "name": "previousOwner",
          "type": "address"
        },
        {
          "indexed": true,
          "internalType": "address",
          "name": "newOwner",
          "type": "address"
        }
      ],
      "name": "OwnershipTransferred",
      "type": "event"
    },
    {
      "anonymous": false,
      "inputs": [
        {
          "indexed": false,
          "internalType": "uint256",
          "name": "id",
          "type": "uint256"
        },
        {
          "indexed": false,
          "internalType": "uint256",
          "name": "cl",
          "type": "uint256"
        },
        {
          "indexed": false,
          "internalType": "uint256",
          "name": "el",
          "type": "uint256"
        }
      ],
      "name": "StatsInitialized",
      "type": "event"
    },
    {
      "anonymous": false,
      "inputs": [
        {
          "indexed": true,
          "internalType": "address",
          "name": "from",
          "type": "address"
        },
        {
          "indexed": true,
          "internalType": "address",
          "name": "to",
          "type": "address"
        },
        {
          "indexed": true,
          "internalType": "uint256",
          "name": "tokenId",
          "type": "uint256"
        }
      ],
      "name": "Transfer",
      "type": "event"
    },
    {
      "inputs": [],
      "name": "INTERFACE_ID_ERC2981",
      "outputs": [
        {
          "internalType": "bytes4",
          "name": "",
          "type": "bytes4"
        }
      ],
      "stateMutability": "view",
      "type": "function"
    },
    {
      "inputs": [
        {
          "internalType": "address",
          "name": "to",
          "type": "address"
        },
        {
          "internalType": "uint256",
          "name": "tokenId",
          "type": "uint256"
        }
      ],
      "name": "approve",
      "outputs": [],
      "stateMutability": "nonpayable",
      "type": "function"
    },
    {
      "inputs": [],
      "name": "attunement",
      "outputs": [
        {
          "internalType": "contract IAttunement",
          "name": "",
          "type": "address"
        }
      ],
      "stateMutability": "view",
      "type": "function"
    },
    {
      "inputs": [
        {
          "internalType": "address",
          "name": "owner",
          "type": "address"
        }
      ],
      "name": "balanceOf",
      "outputs": [
        {
          "internalType": "uint256",
          "name": "",
          "type": "uint256"
        }
      ],
      "stateMutability": "view",
      "type": "function"
    },
    {
      "inputs": [
        {
          "internalType": "uint256",
          "name": "id",
          "type": "uint256"
        },
        {
          "internalType": "uint256",
          "name": "toTier",
          "type": "uint256"
        }
      ],
      "name": "calcCosmicLevelUpgradeCost",
      "outputs": [
        {
          "internalType": "uint256[]",
          "name": "",
          "type": "uint256[]"
        }
      ],
      "stateMutability": "view",
      "type": "function"
    },
    {
      "inputs": [
        {
          "internalType": "uint256",
          "name": "id",
          "type": "uint256"
        },
        {
          "internalType": "uint256",
          "name": "toTier",
          "type": "uint256"
        }
      ],
      "name": "calcGamerScoreUpgradeCost",
      "outputs": [
        {
          "internalType": "uint256",
          "name": "",
          "type": "uint256"
        }
      ],
      "stateMutability": "view",
      "type": "function"
    },
    {
      "inputs": [],
      "name": "charges",
      "outputs": [
        {
          "internalType": "uint256",
          "name": "",
          "type": "uint256"
        }
      ],
      "stateMutability": "view",
      "type": "function"
    },
    {
      "inputs": [
        {
          "internalType": "uint256",
          "name": "",
          "type": "uint256"
        }
      ],
      "name": "chargesUsed",
      "outputs": [
        {
          "internalType": "uint256",
          "name": "",
          "type": "uint256"
        }
      ],
      "stateMutability": "view",
      "type": "function"
    },
    {
      "inputs": [
        {
          "internalType": "uint256",
          "name": "girlId",
          "type": "uint256"
        }
      ],
      "name": "checkStake",
      "outputs": [
        {
          "internalType": "address",
          "name": "",
          "type": "address"
        },
        {
          "internalType": "bool",
          "name": "",
          "type": "bool"
        },
        {
          "internalType": "uint256",
          "name": "",
          "type": "uint256"
        }
      ],
      "stateMutability": "view",
      "type": "function"
    },
    {
      "inputs": [
        {
          "internalType": "uint256",
          "name": "",
          "type": "uint256"
        }
      ],
      "name": "cosmicLevel",
      "outputs": [
        {
          "internalType": "uint256",
          "name": "",
          "type": "uint256"
        }
      ],
      "stateMutability": "view",
      "type": "function"
    },
    {
      "inputs": [
        {
          "internalType": "uint256",
          "name": "",
          "type": "uint256"
        }
      ],
      "name": "element",
      "outputs": [
        {
          "internalType": "uint256",
          "name": "",
          "type": "uint256"
        }
      ],
      "stateMutability": "view",
      "type": "function"
    },
    {
      "inputs": [],
      "name": "emissions",
      "outputs": [
        {
          "internalType": "contract IEmissions",
          "name": "",
          "type": "address"
        }
      ],
      "stateMutability": "view",
      "type": "function"
    },
    {
      "inputs": [
        {
          "internalType": "uint256",
          "name": "",
          "type": "uint256"
        }
      ],
      "name": "gamerScore",
      "outputs": [
        {
          "internalType": "uint256",
          "name": "",
          "type": "uint256"
        }
      ],
      "stateMutability": "view",
      "type": "function"
    },
    {
      "inputs": [
        {
          "internalType": "uint256",
          "name": "tokenId",
          "type": "uint256"
        }
      ],
      "name": "getApproved",
      "outputs": [
        {
          "internalType": "address",
          "name": "",
          "type": "address"
        }
      ],
      "stateMutability": "view",
      "type": "function"
    },
    {
      "inputs": [
        {
          "internalType": "uint256",
          "name": "id",
          "type": "uint256"
        }
      ],
      "name": "getChargesRemaining",
      "outputs": [
        {
          "internalType": "uint256",
          "name": "",
          "type": "uint256"
        }
      ],
      "stateMutability": "view",
      "type": "function"
    },
    {
      "inputs": [
        {
          "internalType": "uint256",
          "name": "_id",
          "type": "uint256"
        }
      ],
      "name": "getCosmicLevel",
      "outputs": [
        {
          "internalType": "uint256",
          "name": "",
          "type": "uint256"
        }
      ],
      "stateMutability": "view",
      "type": "function"
    },
    {
      "inputs": [
        {
          "internalType": "uint256",
          "name": "id",
          "type": "uint256"
        },
        {
          "internalType": "uint256",
          "name": "toTier",
          "type": "uint256"
        }
      ],
      "name": "getCosmicLevelUpgradeCost",
      "outputs": [
        {
          "internalType": "uint256[]",
          "name": "",
          "type": "uint256[]"
        }
      ],
      "stateMutability": "view",
      "type": "function"
    },
    {
      "inputs": [],
      "name": "getCost",
      "outputs": [
        {
          "internalType": "uint256",
          "name": "",
          "type": "uint256"
        }
      ],
      "stateMutability": "view",
      "type": "function"
    },
    {
      "inputs": [
        {
          "internalType": "uint256",
          "name": "_cost",
          "type": "uint256"
        }
      ],
      "name": "getDevFee",
      "outputs": [
        {
          "internalType": "uint256",
          "name": "",
          "type": "uint256"
        }
      ],
      "stateMutability": "view",
      "type": "function"
    },
    {
      "inputs": [],
      "name": "getDiscountCost",
      "outputs": [
        {
          "internalType": "uint256",
          "name": "",
          "type": "uint256"
        }
      ],
      "stateMutability": "view",
      "type": "function"
    },
    {
      "inputs": [
        {
          "internalType": "uint256",
          "name": "_id",
          "type": "uint256"
        }
      ],
      "name": "getElement",
      "outputs": [
        {
          "internalType": "uint256",
          "name": "",
          "type": "uint256"
        }
      ],
      "stateMutability": "view",
      "type": "function"
    },
    {
      "inputs": [
        {
          "internalType": "uint256",
          "name": "_id",
          "type": "uint256"
        }
      ],
      "name": "getGamerScore",
      "outputs": [
        {
          "internalType": "uint256",
          "name": "",
          "type": "uint256"
        }
      ],
      "stateMutability": "view",
      "type": "function"
    },
    {
      "inputs": [
        {
          "internalType": "uint256",
          "name": "id",
          "type": "uint256"
        },
        {
          "internalType": "uint256",
          "name": "toTier",
          "type": "uint256"
        }
      ],
      "name": "getGamerScoreUpgradeCost",
      "outputs": [
        {
          "internalType": "uint256",
          "name": "cost",
          "type": "uint256"
        }
      ],
      "stateMutability": "view",
      "type": "function"
    },
    {
      "inputs": [
        {
          "internalType": "uint256",
          "name": "",
          "type": "uint256"
        }
      ],
      "name": "gsUpgradeCosts",
      "outputs": [
        {
          "internalType": "uint256",
          "name": "",
          "type": "uint256"
        }
      ],
      "stateMutability": "view",
      "type": "function"
    },
    {
      "inputs": [
        {
          "internalType": "uint256",
          "name": "id",
          "type": "uint256"
        },
        {
          "internalType": "uint256",
          "name": "toTier",
          "type": "uint256"
        }
      ],
      "name": "handleUpgradeCosmicLevel",
      "outputs": [],
      "stateMutability": "nonpayable",
      "type": "function"
    },
    {
      "inputs": [
        {
          "internalType": "uint256",
          "name": "id",
          "type": "uint256"
        },
        {
          "internalType": "uint256",
          "name": "toTier",
          "type": "uint256"
        }
      ],
      "name": "handleUpgradeGamerScore",
      "outputs": [],
      "stateMutability": "nonpayable",
      "type": "function"
    },
    {
      "inputs": [
        {
          "internalType": "uint256",
          "name": "id",
          "type": "uint256"
        },
        {
          "internalType": "uint256",
          "name": "cl",
          "type": "uint256"
        },
        {
          "internalType": "uint256",
          "name": "el",
          "type": "uint256"
        }
      ],
      "name": "initStats",
      "outputs": [],
      "stateMutability": "nonpayable",
      "type": "function"
    },
    {
      "inputs": [
        {
          "internalType": "address",
          "name": "owner",
          "type": "address"
        },
        {
          "internalType": "address",
          "name": "operator",
          "type": "address"
        }
      ],
      "name": "isApprovedForAll",
      "outputs": [
        {
          "internalType": "bool",
          "name": "",
          "type": "bool"
        }
      ],
      "stateMutability": "view",
      "type": "function"
    },
    {
      "inputs": [
        {
          "internalType": "address",
          "name": "",
          "type": "address"
        }
      ],
      "name": "isElementalStone",
      "outputs": [
        {
          "internalType": "bool",
          "name": "",
          "type": "bool"
        }
      ],
      "stateMutability": "view",
      "type": "function"
    },
    {
      "inputs": [
        {
          "internalType": "uint256",
          "name": "girlId",
          "type": "uint256"
        }
      ],
      "name": "isPaired",
      "outputs": [
        {
          "internalType": "bool",
          "name": "",
          "type": "bool"
        }
      ],
      "stateMutability": "view",
      "type": "function"
    },
    {
      "inputs": [
        {
          "internalType": "address",
          "name": "",
          "type": "address"
        }
      ],
      "name": "isWorker",
      "outputs": [
        {
          "internalType": "bool",
          "name": "",
          "type": "bool"
        }
      ],
      "stateMutability": "view",
      "type": "function"
    },
    {
      "inputs": [
        {
          "internalType": "uint256",
          "name": "",
          "type": "uint256"
        }
      ],
      "name": "matchedElementCosts",
      "outputs": [
        {
          "internalType": "uint256",
          "name": "",
          "type": "uint256"
        }
      ],
      "stateMutability": "view",
      "type": "function"
    },
    {
      "inputs": [],
      "name": "maxSupply",
      "outputs": [
        {
          "internalType": "uint256",
          "name": "",
          "type": "uint256"
        }
      ],
      "stateMutability": "view",
      "type": "function"
    },
    {
      "inputs": [
        {
          "internalType": "bool",
          "name": "usingOrb",
          "type": "bool"
        },
        {
          "internalType": "uint256",
          "name": "orbId",
          "type": "uint256"
        },
        {
          "internalType": "uint256",
          "name": "amount",
          "type": "uint256"
        }
      ],
      "name": "mint",
      "outputs": [],
      "stateMutability": "payable",
      "type": "function"
    },
    {
      "inputs": [],
      "name": "mintDev",
      "outputs": [],
      "stateMutability": "nonpayable",
      "type": "function"
    },
    {
      "inputs": [],
      "name": "moonstone",
      "outputs": [
        {
          "internalType": "contract IERC20",
          "name": "",
          "type": "address"
        }
      ],
      "stateMutability": "view",
      "type": "function"
    },
    {
      "inputs": [],
      "name": "name",
      "outputs": [
        {
          "internalType": "string",
          "name": "",
          "type": "string"
        }
      ],
      "stateMutability": "view",
      "type": "function"
    },
    {
      "inputs": [
        {
          "internalType": "address",
          "name": "",
          "type": "address"
        },
        {
          "internalType": "address",
          "name": "",
          "type": "address"
        },
        {
          "internalType": "uint256",
          "name": "",
          "type": "uint256"
        },
        {
          "internalType": "bytes",
          "name": "",
          "type": "bytes"
        }
      ],
      "name": "onERC721Received",
      "outputs": [
        {
          "internalType": "bytes4",
          "name": "",
          "type": "bytes4"
        }
      ],
      "stateMutability": "nonpayable",
      "type": "function"
    },
    {
      "inputs": [],
      "name": "orb",
      "outputs": [
        {
          "internalType": "contract IERC721",
          "name": "",
          "type": "address"
        }
      ],
      "stateMutability": "view",
      "type": "function"
    },
    {
      "inputs": [],
      "name": "orbRarity",
      "outputs": [
        {
          "internalType": "contract IOrbRarity",
          "name": "",
          "type": "address"
        }
      ],
      "stateMutability": "view",
      "type": "function"
    },
    {
      "inputs": [],
      "name": "owner",
      "outputs": [
        {
          "internalType": "address",
          "name": "",
          "type": "address"
        }
      ],
      "stateMutability": "view",
      "type": "function"
    },
    {
      "inputs": [
        {
          "internalType": "uint256",
          "name": "tokenId",
          "type": "uint256"
        }
      ],
      "name": "ownerOf",
      "outputs": [
        {
          "internalType": "address",
          "name": "",
          "type": "address"
        }
      ],
      "stateMutability": "view",
      "type": "function"
    },
    {
      "inputs": [
        {
          "internalType": "uint256",
          "name": "",
          "type": "uint256"
        }
      ],
      "name": "paired",
      "outputs": [
        {
          "internalType": "bool",
          "name": "",
          "type": "bool"
        }
      ],
      "stateMutability": "view",
      "type": "function"
    },
    {
      "inputs": [],
      "name": "renounceOwnership",
      "outputs": [],
      "stateMutability": "nonpayable",
      "type": "function"
    },
    {
      "inputs": [
        {
          "internalType": "uint256",
          "name": "_tokenId",
          "type": "uint256"
        },
        {
          "internalType": "uint256",
          "name": "_salePrice",
          "type": "uint256"
        }
      ],
      "name": "royaltyInfo",
      "outputs": [
        {
          "internalType": "address",
          "name": "receiver",
          "type": "address"
        },
        {
          "internalType": "uint256",
          "name": "royaltyAmount",
          "type": "uint256"
        }
      ],
      "stateMutability": "view",
      "type": "function"
    },
    {
      "inputs": [
        {
          "internalType": "address",
          "name": "from",
          "type": "address"
        },
        {
          "internalType": "address",
          "name": "to",
          "type": "address"
        },
        {
          "internalType": "uint256",
          "name": "tokenId",
          "type": "uint256"
        }
      ],
      "name": "safeTransferFrom",
      "outputs": [],
      "stateMutability": "nonpayable",
      "type": "function"
    },
    {
      "inputs": [
        {
          "internalType": "address",
          "name": "from",
          "type": "address"
        },
        {
          "internalType": "address",
          "name": "to",
          "type": "address"
        },
        {
          "internalType": "uint256",
          "name": "tokenId",
          "type": "uint256"
        },
        {
          "internalType": "bytes",
          "name": "_data",
          "type": "bytes"
        }
      ],
      "name": "safeTransferFrom",
      "outputs": [],
      "stateMutability": "nonpayable",
      "type": "function"
    },
    {
      "inputs": [
        {
          "internalType": "address",
          "name": "operator",
          "type": "address"
        },
        {
          "internalType": "bool",
          "name": "approved",
          "type": "bool"
        }
      ],
      "name": "setApprovalForAll",
      "outputs": [],
      "stateMutability": "nonpayable",
      "type": "function"
    },
    {
      "inputs": [
        {
          "internalType": "address",
          "name": "_a",
          "type": "address"
        }
      ],
      "name": "setAttunementContract",
      "outputs": [],
      "stateMutability": "nonpayable",
      "type": "function"
    },
    {
      "inputs": [
        {
          "internalType": "string",
          "name": "_newBaseURI",
          "type": "string"
        }
      ],
      "name": "setBaseURI",
      "outputs": [],
      "stateMutability": "nonpayable",
      "type": "function"
    },
    {
      "inputs": [
        {
          "internalType": "uint256",
          "name": "_newCost",
          "type": "uint256"
        }
      ],
      "name": "setCost",
      "outputs": [],
      "stateMutability": "nonpayable",
      "type": "function"
    },
    {
      "inputs": [
        {
          "internalType": "uint256",
          "name": "_fee",
          "type": "uint256"
        }
      ],
      "name": "setDevFee",
      "outputs": [],
      "stateMutability": "nonpayable",
      "type": "function"
    },
    {
      "inputs": [
        {
          "internalType": "uint256",
          "name": "_id",
          "type": "uint256"
        },
        {
          "internalType": "uint256",
          "name": "_newElement",
          "type": "uint256"
        }
      ],
      "name": "setElement",
      "outputs": [],
      "stateMutability": "nonpayable",
      "type": "function"
    },
    {
      "inputs": [
        {
          "internalType": "address",
          "name": "_es",
          "type": "address"
        }
      ],
      "name": "setElementalStoneContract",
      "outputs": [],
      "stateMutability": "nonpayable",
      "type": "function"
    },
    {
      "inputs": [
        {
          "internalType": "address",
          "name": "_e",
          "type": "address"
        }
      ],
      "name": "setEmissions",
      "outputs": [],
      "stateMutability": "nonpayable",
      "type": "function"
    },
    {
      "inputs": [
        {
          "internalType": "uint256",
          "name": "_maxSupply",
          "type": "uint256"
        }
      ],
      "name": "setMaxSupply",
      "outputs": [],
      "stateMutability": "nonpayable",
      "type": "function"
    },
    {
      "inputs": [
        {
          "internalType": "address",
          "name": "_moonstone",
          "type": "address"
        }
      ],
      "name": "setMoonstoneContract",
      "outputs": [],
      "stateMutability": "nonpayable",
      "type": "function"
    },
    {
      "inputs": [
        {
          "internalType": "address",
          "name": "_orbRarity",
          "type": "address"
        }
      ],
      "name": "setOrbRarity",
      "outputs": [],
      "stateMutability": "nonpayable",
      "type": "function"
    },
    {
      "inputs": [
        {
          "internalType": "uint256",
          "name": "_id",
          "type": "uint256"
        },
        {
          "internalType": "bool",
          "name": "_paired",
          "type": "bool"
        }
      ],
      "name": "setPaired",
      "outputs": [],
      "stateMutability": "nonpayable",
      "type": "function"
    },
    {
      "inputs": [
        {
          "internalType": "address",
          "name": "newRecipient",
          "type": "address"
        }
      ],
      "name": "setRoyalties",
      "outputs": [],
      "stateMutability": "nonpayable",
      "type": "function"
    },
    {
      "inputs": [
        {
          "internalType": "uint256",
          "name": "_startTime",
          "type": "uint256"
        }
      ],
      "name": "setStartTime",
      "outputs": [],
      "stateMutability": "nonpayable",
      "type": "function"
    },
    {
      "inputs": [
        {
          "internalType": "address",
          "name": "_worker",
          "type": "address"
        },
        {
          "internalType": "bool",
          "name": "_isWorker",
          "type": "bool"
        }
      ],
      "name": "setWorker",
      "outputs": [],
      "stateMutability": "nonpayable",
      "type": "function"
    },
    {
      "inputs": [],
      "name": "startTime",
      "outputs": [
        {
          "internalType": "uint256",
          "name": "",
          "type": "uint256"
        }
      ],
      "stateMutability": "view",
      "type": "function"
    },
    {
      "inputs": [
        {
          "internalType": "bytes4",
          "name": "interfaceId",
          "type": "bytes4"
        }
      ],
      "name": "supportsInterface",
      "outputs": [
        {
          "internalType": "bool",
          "name": "",
          "type": "bool"
        }
      ],
      "stateMutability": "view",
      "type": "function"
    },
    {
      "inputs": [],
      "name": "symbol",
      "outputs": [
        {
          "internalType": "string",
          "name": "",
          "type": "string"
        }
      ],
      "stateMutability": "view",
      "type": "function"
    },
    {
      "inputs": [
        {
          "internalType": "uint256",
          "name": "index",
          "type": "uint256"
        }
      ],
      "name": "tokenByIndex",
      "outputs": [
        {
          "internalType": "uint256",
          "name": "",
          "type": "uint256"
        }
      ],
      "stateMutability": "view",
      "type": "function"
    },
    {
      "inputs": [
        {
          "internalType": "address",
          "name": "owner",
          "type": "address"
        },
        {
          "internalType": "uint256",
          "name": "index",
          "type": "uint256"
        }
      ],
      "name": "tokenOfOwnerByIndex",
      "outputs": [
        {
          "internalType": "uint256",
          "name": "",
          "type": "uint256"
        }
      ],
      "stateMutability": "view",
      "type": "function"
    },
    {
      "inputs": [
        {
          "internalType": "uint256",
          "name": "tokenId",
          "type": "uint256"
        }
      ],
      "name": "tokenURI",
      "outputs": [
        {
          "internalType": "string",
          "name": "",
          "type": "string"
        }
      ],
      "stateMutability": "view",
      "type": "function"
    },
    {
      "inputs": [],
      "name": "totalSupply",
      "outputs": [
        {
          "internalType": "uint256",
          "name": "",
          "type": "uint256"
        }
      ],
      "stateMutability": "view",
      "type": "function"
    },
    {
      "inputs": [
        {
          "internalType": "address",
          "name": "from",
          "type": "address"
        },
        {
          "internalType": "address",
          "name": "to",
          "type": "address"
        },
        {
          "internalType": "uint256",
          "name": "tokenId",
          "type": "uint256"
        }
      ],
      "name": "transferFrom",
      "outputs": [],
      "stateMutability": "nonpayable",
      "type": "function"
    },
    {
      "inputs": [
        {
          "internalType": "address",
          "name": "newOwner",
          "type": "address"
        }
      ],
      "name": "transferOwnership",
      "outputs": [],
      "stateMutability": "nonpayable",
      "type": "function"
    },
    {
      "inputs": [
        {
          "internalType": "uint256",
          "name": "",
          "type": "uint256"
        }
      ],
      "name": "unmatchedElementCosts",
      "outputs": [
        {
          "internalType": "uint256",
          "name": "",
          "type": "uint256"
        }
      ],
      "stateMutability": "view",
      "type": "function"
    },
    {
      "inputs": [
        {
          "internalType": "address",
          "name": "_owner",
          "type": "address"
        }
      ],
      "name": "walletOfOwner",
      "outputs": [
        {
          "internalType": "uint256[]",
          "name": "",
          "type": "uint256[]"
        }
      ],
      "stateMutability": "view",
      "type": "function"
    },
    {
      "inputs": [
        {
          "internalType": "address payable",
          "name": "_rest",
          "type": "address"
        }
      ],
      "name": "withdraw",
      "outputs": [],
      "stateMutability": "nonpayable",
      "type": "function"
    }
  ],
  "bytecode": "0x6019600e55600a600f9081556103c060405260006080908152600460a081905260c081905260e05260056101008190526101208190526101408190526101608190526101805260066101a08190526101c05260076101e052600861020081905261022081905261024081905261026052600b6102808190526102a08190526102c052600c6102e08190526103005261032091909152601061034081905261036081905260116103808190526103a052620000bb91601a6200052d565b50604080516101408101825260008152600260208201526003918101829052606081019190915260046080820152600660a0820152600860c0820152600b60e0820152600e61010082015260126101208201526200011e90602a90600a62000575565b506040805161014081018252600080825260208201819052918101919091526001606082015260026080820152600360a0820152600460c0820152600560e0820152600761010082015260096101208201526200018090603490600a62000575565b50605a60415560056042556006604355611388604a556363d481a2604b55348015620001ab57600080fd5b50604051620046cf380380620046cf833981016040819052620001ce916200065b565b604080518082018252600f81526e151bdade5bc815195cdd0811da5c9b608a1b60208083019182528351808501909452600384526254544760e81b9084015281519192916200022091600091620005aa565b50805162000236906001906020840190620005aa565b505050620002536200024d620002e960201b60201c565b620002ed565b6001604555603e80546001600160a01b0319166001600160a01b0386161790556200027e856200033f565b620002898362000362565b62000294816200038e565b620002a1336001620003a6565b620002b4674563918244f40000620003db565b50604c80546001600160a01b039092166001600160a01b03199283168117909155604d805490921617905550620007d1915050565b3390565b600a80546001600160a01b038381166001600160a01b0319831681179093556040519116919082907f8be0079c531659141344cd1fd0a4f28419497f9722a3daafe3b4186f6b6457e090600090a35050565b6200034962000440565b80516200035e906049906020840190620005aa565b5050565b6200036c62000440565b604880546001600160a01b0319166001600160a01b0392909216919091179055565b6200039862000440565b620003a3816200049e565b50565b620003b062000440565b6001600160a01b03919091166000908152605060205260409020805460ff1916911515919091179055565b620003e562000440565b600081116200043b5760405162461bcd60e51b815260206004820152601460248201527f4769726c3a20636f73742063616e74206265203000000000000000000000000060448201526064015b60405180910390fd5b604055565b600a546001600160a01b031633146200049c5760405162461bcd60e51b815260206004820181905260248201527f4f776e61626c653a2063616c6c6572206973206e6f7420746865206f776e6572604482015260640162000432565b565b6001600160a01b0381166200050b5760405162461bcd60e51b815260206004820152602c60248201527f526f79616c746965733a206e657720726563697069656e74206973207468652060448201526b7a65726f206164647265737360a01b606482015260840162000432565b604d80546001600160a01b0319166001600160a01b0392909216919091179055565b82601a810192821562000563579160200282015b8281111562000563578251829060ff1690559160200191906001019062000541565b506200057192915062000627565b5090565b82600a810192821562000563579160200282018281111562000563578251829060ff1690559160200191906001019062000541565b828054620005b8906200077e565b90600052602060002090601f016020900481019282620005dc576000855562000563565b82601f10620005f757805160ff191683800117855562000563565b8280016001018555821562000563579182015b82811115620005635782518255916020019190600101906200060a565b5b8082111562000571576000815560010162000628565b80516001600160a01b03811681146200065657600080fd5b919050565b600080600080600060a0868803121562000673578081fd5b85516001600160401b03808211156200068a578283fd5b818801915088601f8301126200069e578283fd5b815181811115620006b357620006b3620007bb565b604051601f8201601f19908116603f01168101908382118183101715620006de57620006de620007bb565b81604052828152602093508b84848701011115620006fa578586fd5b8591505b828210156200071d5784820184015181830185015290830190620006fe565b828211156200072e57858484830101525b9850620007409150508882016200063e565b9550505062000752604087016200063e565b925062000762606087016200063e565b915062000772608087016200063e565b90509295509295909350565b600181811c908216806200079357607f821691505b60208210811415620007b557634e487b7160e01b600052602260045260246000fd5b50919050565b634e487b7160e01b600052604160045260246000fd5b613eee80620007e16000396000f3fe6080604052600436106104315760003560e01c80636352211e11610229578063aa1566451161012e578063d5abeb01116100b6578063f2fde38b1161007a578063f2fde38b14610dc2578063f909a9cf14610de2578063fd79e7ac14610e0f578063ff23d7d314610e2f578063ff91078314610e4f57600080fd5b8063d5abeb0114610d0d578063e00cda2614610d23578063e985e9c514610d39578063f090e00414610d82578063f2731f4a14610daf57600080fd5b8063c373d7f3116100fd578063c373d7f314610c60578063c3ca39f814610c80578063c4e2676714610ca0578063c87b56dd14610cc0578063d066100614610ce057600080fd5b8063aa15664514610be0578063b060dd8614610c10578063b88d4fde14610c2b578063bd3e19d414610c4b57600080fd5b80637a6832a5116101b157806395d89b411161018057806395d89b4114610b3e578063a16e721514610b53578063a22b36ef14610b73578063a22cb46514610ba0578063a388237d14610bc057600080fd5b80637a6832a514610ab0578063814e1bb814610ad05780638da5cb5b14610af05780638efab2d514610b0e57600080fd5b80636f8b44b0116101f85780636f8b44b014610a2557806370a0823114610a45578063715018a614610a6557806373ae2d7814610a7a57806378e9792514610a9a57600080fd5b80636352211e146109a5578063690d1ca2146109c557806369250220146109e55780636aa5dd7114610a0557600080fd5b80632a55205a1161033a57806342842e0e116102c257806351cff8d91161028657806351cff8d9146108f857806355f804b314610918578063562d412f1461093857806358d70d74146109655780635c5ac79a1461098557600080fd5b806342842e0e1461084b578063438b63001461086b57806344a0d68a1461088b57806349af0b94146108ab5780634f6ccce7146108d857600080fd5b80633c010930116103095780633c010930146107795780633e0a322d146107995780633f1ed709146107b95780633f74c596146107d957806340a3c3381461080657600080fd5b80632a55205a146106cd5780632a9e63c61461070c5780632f745c591461072c5780633a7d22bc1461074c57600080fd5b806312cbd705116103bd5780631c75b6b21161038c5780631c75b6b2146106385780631c8a76c5146106585780631eeb2f4f1461066d5780632267716c1461068d57806323b872dd146106ad57600080fd5b806312cbd705146105a5578063150b7a02146105d557806318160ddd1461060e5780631b24b4d91461062357600080fd5b806308e6981e1161040457806308e6981e146104e7578063095ea7b3146105075780630b689417146105275780630f3b899b146105575780630fd40c2e1461057757600080fd5b806301ffc9a71461043657806306fdde031461046b578063081812fc1461048d57806308834ee7146104c5575b600080fd5b34801561044257600080fd5b50610456610451366004613a7e565b610e6f565b60405190151581526020015b60405180910390f35b34801561047757600080fd5b50610480610e9a565b6040516104629190613c76565b34801561049957600080fd5b506104ad6104a8366004613afc565b610f2c565b6040516001600160a01b039091168152602001610462565b3480156104d157600080fd5b506104e56104e03660046138c9565b610f53565b005b3480156104f357600080fd5b506104e5610502366004613b6f565b610f7d565b34801561051357600080fd5b506104e5610522366004613a21565b6110a4565b34801561053357600080fd5b50610456610542366004613afc565b6000908152604f602052604090205460ff1690565b34801561056357600080fd5b506047546104ad906001600160a01b031681565b34801561058357600080fd5b50610597610592366004613afc565b6111ba565b604051908152602001610462565b3480156105b157600080fd5b506104566105c03660046138c9565b604e6020526000908152604090205460ff1681565b3480156105e157600080fd5b506105f56105f0366004613979565b6111d6565b6040516001600160e01b03199091168152602001610462565b34801561061a57600080fd5b50600854610597565b34801561062f57600080fd5b506104e56111e7565b34801561064457600080fd5b506104e5610653366004613afc565b611297565b34801561066457600080fd5b506105976112a4565b34801561067957600080fd5b506104e56106883660046138c9565b6112c7565b34801561069957600080fd5b506048546104ad906001600160a01b031681565b3480156106b957600080fd5b506104e56106c8366004613939565b6112f1565b3480156106d957600080fd5b506106ed6106e8366004613b4e565b611385565b604080516001600160a01b039093168352602083019190915201610462565b34801561071857600080fd5b506104e56107273660046138c9565b6113b3565b34801561073857600080fd5b50610597610747366004613a21565b6113c7565b34801561075857600080fd5b50610597610767366004613afc565b6000908152600d602052604090205490565b34801561078557600080fd5b50610597610794366004613b4e565b61145d565b3480156107a557600080fd5b506104e56107b4366004613afc565b611558565b3480156107c557600080fd5b506104e56107d4366004613b2c565b611565565b3480156107e557600080fd5b506107f96107f4366004613b4e565b6115f9565b6040516104629190613c32565b34801561081257600080fd5b50610826610821366004613afc565b61168b565b604080516001600160a01b039094168452911515602084015290820152606001610462565b34801561085757600080fd5b506104e5610866366004613939565b6116c4565b34801561087757600080fd5b506107f96108863660046138c9565b6116df565b34801561089757600080fd5b506104e56108a6366004613afc565b61179d565b3480156108b757600080fd5b506105976108c6366004613afc565b60446020526000908152604090205481565b3480156108e457600080fd5b506105976108f3366004613afc565b6117f1565b34801561090457600080fd5b506104e56109133660046138c9565b611892565b34801561092457600080fd5b506104e5610933366004613ab6565b611912565b34801561094457600080fd5b50610597610953366004613afc565b600c6020526000908152604090205481565b34801561097157600080fd5b506046546104ad906001600160a01b031681565b34801561099157600080fd5b50603f546104ad906001600160a01b031681565b3480156109b157600080fd5b506104ad6109c0366004613afc565b611931565b3480156109d157600080fd5b506104e56109e03660046138c9565b611991565b3480156109f157600080fd5b506104e5610a00366004613b4e565b6119bd565b348015610a1157600080fd5b506104e5610a20366004613b4e565b611b32565b348015610a3157600080fd5b506104e5610a40366004613afc565b611c19565b348015610a5157600080fd5b50610597610a603660046138c9565b611c26565b348015610a7157600080fd5b506104e5611cac565b348015610a8657600080fd5b506107f9610a95366004613b4e565b611cc0565b348015610aa657600080fd5b50610597604b5481565b348015610abc57600080fd5b506104e5610acb3660046138c9565b611f0b565b348015610adc57600080fd5b50610597610aeb366004613afc565b611f35565b348015610afc57600080fd5b50600a546001600160a01b03166104ad565b348015610b1a57600080fd5b50610456610b29366004613afc565b604f6020526000908152604090205460ff1681565b348015610b4a57600080fd5b50610480611f4c565b348015610b5f57600080fd5b506104e5610b6e366004613b4e565b611f5b565b348015610b7f57600080fd5b50610597610b8e366004613afc565b6000908152600c602052604090205490565b348015610bac57600080fd5b506104e5610bbb3660046139f6565b611fb3565b348015610bcc57600080fd5b506104e5610bdb3660046138c9565b611fbe565b348015610bec57600080fd5b50610456610bfb3660046138c9565b60506020526000908152604090205460ff1681565b348015610c1c57600080fd5b506105f563152a902d60e11b81565b348015610c3757600080fd5b506104e5610c46366004613979565b611fe8565b348015610c5757600080fd5b50604054610597565b348015610c6c57600080fd5b506104e5610c7b3660046139f6565b61207e565b348015610c8c57600080fd5b50610597610c9b366004613b4e565b6120b1565b348015610cac57600080fd5b50610597610cbb366004613afc565b6121ba565b348015610ccc57600080fd5b50610480610cdb366004613afc565b6121ca565b348015610cec57600080fd5b50610597610cfb366004613afc565b6000908152600b602052604090205490565b348015610d1957600080fd5b50610597604a5481565b348015610d2f57600080fd5b5061059760425481565b348015610d4557600080fd5b50610456610d54366004613901565b6001600160a01b03918216600090815260056020908152604080832093909416825291909152205460ff1690565b348015610d8e57600080fd5b50610597610d9d366004613afc565b600d6020526000908152604090205481565b6104e5610dbd366004613a4c565b6122a4565b348015610dce57600080fd5b506104e5610ddd3660046138c9565b6127a0565b348015610dee57600080fd5b50610597610dfd366004613afc565b600b6020526000908152604090205481565b348015610e1b57600080fd5b50610597610e2a366004613afc565b612816565b348015610e3b57600080fd5b50610597610e4a366004613afc565b612826565b348015610e5b57600080fd5b50603e546104ad906001600160a01b031681565b60006001600160e01b0319821663152a902d60e11b1480610e945750610e9482612842565b92915050565b606060008054610ea990613e0b565b80601f0160208091040260200160405190810160405280929190818152602001828054610ed590613e0b565b8015610f225780601f10610ef757610100808354040283529160200191610f22565b820191906000526020600020905b815481529060010190602001808311610f0557829003601f168201915b5050505050905090565b6000610f3782612867565b506000908152600460205260409020546001600160a01b031690565b610f5b6128c6565b604880546001600160a01b0319166001600160a01b0392909216919091179055565b3360009081526050602052604090205460ff16610fe15760405162461bcd60e51b815260206004820152601a60248201527f4769726c3a206f6e6c7920776f726b65722063616e2063616c6c00000000000060448201526064015b60405180910390fd5b6000838152600b60209081526040808320859055600d9091529020819055604854604051632b017cb760e01b8152600481018590526001600160a01b0390911690632b017cb790602401600060405180830381600087803b15801561104557600080fd5b505af1158015611059573d6000803e3d6000fd5b505060408051868152602081018690529081018490527fd61e1c6078dbe8c00ff44edafbf29b5084c488aadbbf8d84f3b95c1ea3c1438c9250606001905060405180910390a1505050565b60006110af82611931565b9050806001600160a01b0316836001600160a01b0316141561111d5760405162461bcd60e51b815260206004820152602160248201527f4552433732313a20617070726f76616c20746f2063757272656e74206f776e656044820152603960f91b6064820152608401610fd8565b336001600160a01b038216148061113957506111398133610d54565b6111ab5760405162461bcd60e51b815260206004820152603d60248201527f4552433732313a20617070726f76652063616c6c6572206973206e6f7420746f60448201527f6b656e206f776e6572206f7220617070726f76656420666f7220616c6c0000006064820152608401610fd8565b6111b58383612920565b505050565b60006064604354836111cc9190613da9565b610e949190613d89565b630a85bd0160e11b5b949350505050565b6111ef6128c6565b60006111fa60085490565b90506000611209826001613d71565b9050604a5481111561124e5760405162461bcd60e51b815260206004820152600e60248201526d11da5c9b0e881cdbdb19081bdd5d60921b6044820152606401610fd8565b611258338261298e565b60405133815260069060009083907f1f1fc7f871c5573b0f1fde9f6e1f67d93527049f30fde62e53af0333b35839229060200160405180910390a45050565b61129f6128c6565b604355565b600060646041546040546112b89190613da9565b6112c29190613d89565b905090565b6112cf6128c6565b603f80546001600160a01b0319166001600160a01b0392909216919091179055565b6112fb33826129a8565b6113175760405162461bcd60e51b8152600401610fd890613d20565b611322838383612a26565b60475460405163add058fd60e01b8152600481018390526001600160a01b039091169063add058fd90602401600060405180830381600087803b15801561136857600080fd5b505af115801561137c573d6000803e3d6000fd5b50505050505050565b604d546001600160a01b0316600060646113a0846006613da9565b6113aa9190613d89565b90509250929050565b6113bb6128c6565b6113c481612b97565b50565b60006113d283611c26565b82106114345760405162461bcd60e51b815260206004820152602b60248201527f455243373231456e756d657261626c653a206f776e657220696e646578206f7560448201526a74206f6620626f756e647360a81b6064820152608401610fd8565b506001600160a01b03919091166000908152600660209081526040808320938352929052205490565b6000600182101580156114725750600e548211155b6114cf5760405162461bcd60e51b815260206004820152602860248201527f557067726164653a20746f54696572206d757374206265206265747765656e206044820152673120616e6420323560c01b6064820152608401610fd8565b6000838152600c602052604090205482116115475760405162461bcd60e51b815260206004820152603260248201527f557067726164653a20746f54696572206d7573742062652067726561746572206044820152711d1a185b8818dd5c9c995b9d081b195d995b60721b6064820152608401610fd8565b61155183836120b1565b9392505050565b6115606128c6565b604b55565b336000908152604e602052604090205460ff168061158d57506047546001600160a01b031633145b6115d95760405162461bcd60e51b815260206004820152601d60248201527f4769726c3a206f6e6c79204553206f72204174742063616e2063616c6c0000006044820152606401610fd8565b6000918252604f6020526040909120805460ff1916911515919091179055565b6000828152600b60205260409020546060908211801561161a5750600a8211155b6116815760405162461bcd60e51b815260206004820152603260248201527f557067726164653a2074696572206d757374206265206265747765656e20637560448201527107272656e74206c6576656c20616e642031360741b6064820152608401610fd8565b6115518383611cc0565b600080600061169984611931565b6000948552604f6020908152604080872054600d90925290952054909560ff90951694909350915050565b61132283838360405180602001604052806000815250611fe8565b606060006116ec83611c26565b905060008167ffffffffffffffff81111561171757634e487b7160e01b600052604160045260246000fd5b604051908082528060200260200182016040528015611740578160200160208202803683370190505b50905060005b828110156117955761175885826113c7565b82828151811061177857634e487b7160e01b600052603260045260246000fd5b60209081029190910101528061178d81613e46565b915050611746565b509392505050565b6117a56128c6565b600081116117ec5760405162461bcd60e51b815260206004820152601460248201527304769726c3a20636f73742063616e7420626520360641b6044820152606401610fd8565b604055565b60006117fc60085490565b821061185f5760405162461bcd60e51b815260206004820152602c60248201527f455243373231456e756d657261626c653a20676c6f62616c20696e646578206f60448201526b7574206f6620626f756e647360a01b6064820152608401610fd8565b6008828154811061188057634e487b7160e01b600052603260045260246000fd5b90600052602060002001549050919050565b61189a6128c6565b604c5447906001600160a01b03166108fc6118b4836111ba565b6040518115909202916000818181858888f193505050501580156118dc573d6000803e3d6000fd5b506040516001600160a01b038316904780156108fc02916000818181858888f193505050501580156111b5573d6000803e3d6000fd5b61191a6128c6565b805161192d9060499060208401906137a5565b5050565b6000818152600260205260408120546001600160a01b031680610e945760405162461bcd60e51b8152602060048201526018602482015277115490cdcc8c4e881a5b9d985b1a59081d1bdad95b88125160421b6044820152606401610fd8565b6119996128c6565b6001600160a01b03166000908152604e60205260409020805460ff19166001179055565b6119c5612c24565b6046546001600160a01b03163314611a335760405162461bcd60e51b815260206004820152602b60248201527f4769726c3a206f6e6c79206d6f6f6e73746f6e652063616e207570677261646560448201526a2067616d657273636f726560a81b6064820152608401610fd8565b6000828152600c6020908152604080832054600b9092529182902054604854925163b3c9524b60e01b815260048101869052919290916001600160a01b039091169063b3c9524b90602401600060405180830381600087803b158015611a9857600080fd5b505af1158015611aac573d6000803e3d6000fd5b50505050611aba8484612c7e565b604854604051632d7f86bb60e11b81526004810186905260248101849052604481018390526001600160a01b0390911690635aff0d7690606401600060405180830381600087803b158015611b0e57600080fd5b505af1158015611b22573d6000803e3d6000fd5b50505050505061192d6001604555565b611b3a612c24565b336000908152604e602052604090205460ff16611b925760405162461bcd60e51b815260206004820152601660248201527511da5c9b0e881bdb9b1e481154c818d85b8818d85b1b60521b6044820152606401610fd8565b6000828152600c6020908152604080832054600b9092529182902054604854925163b3c9524b60e01b815260048101869052919290916001600160a01b039091169063b3c9524b90602401600060405180830381600087803b158015611bf757600080fd5b505af1158015611c0b573d6000803e3d6000fd5b50505050611aba8484612cc6565b611c216128c6565b604a55565b60006001600160a01b038216611c905760405162461bcd60e51b815260206004820152602960248201527f4552433732313a2061646472657373207a65726f206973206e6f7420612076616044820152683634b21037bbb732b960b91b6064820152608401610fd8565b506001600160a01b031660009081526003602052604090205490565b611cb46128c6565b611cbe6000612d0e565b565b6060600f54821115611d145760405162461bcd60e51b815260206004820152601f60248201527f557067726164653a204d617820636f736d6963206c6576656c206973203130006044820152606401610fd8565b6000838152600b6020526040902054600f548110611d7e5760405162461bcd60e51b815260206004820152602160248201527f557067726164653a20636f736d6963206c6576656c20616c7265616479206d616044820152600f60fb1b6064820152608401610fd8565b6000848152600d602052604080822054815160038082526080820190935290929181602001602082028036833701905050905060008080611dc0866001613d71565b90505b878111611e4c57602a611dd7600183613dc8565b600a8110611df557634e487b7160e01b600052603260045260246000fd5b0154611e019084613d71565b92506034611e10600183613dc8565b600a8110611e2e57634e487b7160e01b600052603260045260246000fd5b0154611e3a9083613d71565b9150611e4581613e46565b9050611dc3565b508183611e5a600187613dc8565b81518110611e7857634e487b7160e01b600052603260045260246000fd5b60200260200101818152505060005b8351811015611efe57838181518110611eb057634e487b7160e01b600052603260045260246000fd5b602002602001015160001415611eee5781848281518110611ee157634e487b7160e01b600052603260045260246000fd5b6020026020010181815250505b611ef781613e46565b9050611e87565b5091979650505050505050565b611f136128c6565b604680546001600160a01b0319166001600160a01b0392909216919091179055565b601081601a8110611f4557600080fd5b0154905081565b606060018054610ea990613e0b565b611f636128c6565b6000828152600d602090815260409182902083905581518481529081018390527fe9d2aa95a8bcda1481b0316470d5993a8d561039f5db3f8222f8d526e03c0a1b91015b60405180910390a15050565b61192d338383612d60565b611fc66128c6565b604780546001600160a01b0319166001600160a01b0392909216919091179055565b611ff233836129a8565b61200e5760405162461bcd60e51b8152600401610fd890613d20565b61201a84848484612e2f565b60475460405163add058fd60e01b8152600481018490526001600160a01b039091169063add058fd90602401600060405180830381600087803b15801561206057600080fd5b505af1158015612074573d6000803e3d6000fd5b5050505050505050565b6120866128c6565b6001600160a01b03919091166000908152605060205260409020805460ff1916911515919091179055565b6000600e548211156121055760405162461bcd60e51b815260206004820152601e60248201527f557067726164653a204d61782073636f7265206973206c6576656c20323500006044820152606401610fd8565b6000838152600c6020526040902054600e5481106121655760405162461bcd60e51b815260206004820152601f60248201527f557067726164653a204769726c20616c7265616479206d6178206c6576656c006044820152606401610fd8565b6000815b8481116121b157601081601a811061219157634e487b7160e01b600052603260045260246000fd5b015461219d9083613d71565b9150806121a981613e46565b915050612169565b50949350505050565b603481600a8110611f4557600080fd5b6000818152600260205260409020546060906001600160a01b03166122495760405162461bcd60e51b815260206004820152602f60248201527f4552433732314d657461646174613a2055524920717565727920666f72206e6f60448201526e3732bc34b9ba32b73a103a37b5b2b760891b6064820152608401610fd8565b6000612253612e68565b905060008151116122735760405180602001604052806000815250611551565b8061227d84612e77565b60405160200161228e929190613bc6565b6040516020818303038152906040529392505050565b6122ac612c24565b3360006122b860085490565b905060006122c7826001613d71565b90506000600185101580156122dd575060058511155b6123295760405162461bcd60e51b815260206004820152601860248201527f4769726c3a20616d6f756e74203120746f2035206f6e6c7900000000000000006044820152606401610fd8565b604a546123368685613d71565b11156123755760405162461bcd60e51b815260206004820152600e60248201526d11da5c9b0e881cdbdb19081bdd5d60921b6044820152606401610fd8565b86156126c457603e546040516331a9108f60e11b8152600481018890526001600160a01b03868116921690636352211e9060240160206040518083038186803b1580156123c157600080fd5b505afa1580156123d5573d6000803e3d6000fd5b505050506040513d601f19601f820116820180604052508101906123f991906138e5565b6001600160a01b0316146124455760405162461bcd60e51b815260206004820152601360248201527223b4b9361d103737ba1037b9311037bbb732b960691b6044820152606401610fd8565b61244e86612826565b85111561249d5760405162461bcd60e51b815260206004820152601f60248201527f4769726c3a20616d6f756e74206d757374206265203c3d2063686172676573006044820152606401610fd8565b846124a66112a4565b6124b09190613da9565b3410156124fa5760405162461bcd60e51b81526020600482015260186024820152774769726c3a2073656e6420636f727265637420707269636560401b6044820152606401610fd8565b60005b858110156126be5761250e87612f1a565b91508160061461265157603e546040516323b872dd60e01b81526001600160a01b038781166004830152306024830152604482018a9052909116906323b872dd90606401600060405180830381600087803b15801561256c57600080fd5b505af1158015612580573d6000803e3d6000fd5b5050603e546040516331a9108f60e11b8152600481018b90523093506001600160a01b039091169150636352211e9060240160206040518083038186803b1580156125ca57600080fd5b505afa1580156125de573d6000803e3d6000fd5b505050506040513d601f19601f8201168201806040525081019061260291906138e5565b6001600160a01b0316146126515760405162461bcd60e51b815260206004820152601660248201527511da5c9b0e881bdc98881b9bdd081c9958da595d995960521b6044820152606401610fd8565b6126648561265f8386613d71565b61298e565b818815156126728386613d71565b6040516001600160a01b03891681527f1f1fc7f871c5573b0f1fde9f6e1f67d93527049f30fde62e53af0333b35839229060200160405180910390a46126b781613e46565b90506124fd565b50612792565b846040546126d29190613da9565b34101561271c5760405162461bcd60e51b81526020600482015260186024820152774769726c3a2073656e6420636f727265637420707269636560401b6044820152606401610fd8565b60005b85811015612790576127358561265f8386613d71565b60068815156127448386613d71565b6040516001600160a01b03891681527f1f1fc7f871c5573b0f1fde9f6e1f67d93527049f30fde62e53af0333b35839229060200160405180910390a461278981613e46565b905061271f565b505b505050506111b56001604555565b6127a86128c6565b6001600160a01b03811661280d5760405162461bcd60e51b815260206004820152602660248201527f4f776e61626c653a206e6577206f776e657220697320746865207a65726f206160448201526564647265737360d01b6064820152608401610fd8565b6113c481612d0e565b602a81600a8110611f4557600080fd5b600081815260446020526040812054604254610e949190613dc8565b60006001600160e01b0319821663780e9d6360e01b1480610e945750610e9482613025565b6000818152600260205260409020546001600160a01b03166113c45760405162461bcd60e51b8152602060048201526018602482015277115490cdcc8c4e881a5b9d985b1a59081d1bdad95b88125160421b6044820152606401610fd8565b600a546001600160a01b03163314611cbe5760405162461bcd60e51b815260206004820181905260248201527f4f776e61626c653a2063616c6c6572206973206e6f7420746865206f776e65726044820152606401610fd8565b600081815260046020526040902080546001600160a01b0319166001600160a01b038416908117909155819061295582611931565b6001600160a01b03167f8c5be1e5ebec7d5bd14f71427d1e84f3dd0314c0f7b2291e5b200ac8c7c3b92560405160405180910390a45050565b61192d828260405180602001604052806000815250613075565b6000806129b483611931565b9050806001600160a01b0316846001600160a01b031614806129fb57506001600160a01b0380821660009081526005602090815260408083209388168352929052205460ff165b806111df5750836001600160a01b0316612a1484610f2c565b6001600160a01b031614949350505050565b826001600160a01b0316612a3982611931565b6001600160a01b031614612a5f5760405162461bcd60e51b8152600401610fd890613cdb565b6001600160a01b038216612ac15760405162461bcd60e51b8152602060048201526024808201527f4552433732313a207472616e7366657220746f20746865207a65726f206164646044820152637265737360e01b6064820152608401610fd8565b612ace83838360016130a8565b826001600160a01b0316612ae182611931565b6001600160a01b031614612b075760405162461bcd60e51b8152600401610fd890613cdb565b600081815260046020908152604080832080546001600160a01b03199081169091556001600160a01b0387811680865260038552838620805460001901905590871680865283862080546001019055868652600290945282852080549092168417909155905184937fddf252ad1be2c89b69c2b068fc378daa952ba7f163c4a11628f55a4df523b3ef91a4505050565b6001600160a01b038116612c025760405162461bcd60e51b815260206004820152602c60248201527f526f79616c746965733a206e657720726563697069656e74206973207468652060448201526b7a65726f206164647265737360a01b6064820152608401610fd8565b604d80546001600160a01b0319166001600160a01b0392909216919091179055565b60026045541415612c775760405162461bcd60e51b815260206004820152601f60248201527f5265656e7472616e637947756172643a207265656e7472616e742063616c6c006044820152606401610fd8565b6002604555565b6000828152600c602090815260409182902083905581518481529081018390527f866cfb7bcf22266717dccfb6e13d4a8aaf393c0bc2c147cf9df1b747e00370029101611fa7565b6000828152600b602090815260409182902083905581518481529081018390527f56bd88bf537c8134d681abc094b975697025d38f1a7e20c408f3b5e6b4df40b79101611fa7565b600a80546001600160a01b038381166001600160a01b0319831681179093556040519116919082907f8be0079c531659141344cd1fd0a4f28419497f9722a3daafe3b4186f6b6457e090600090a35050565b816001600160a01b0316836001600160a01b03161415612dc25760405162461bcd60e51b815260206004820152601960248201527f4552433732313a20617070726f766520746f2063616c6c6572000000000000006044820152606401610fd8565b6001600160a01b03838116600081815260056020908152604080832094871680845294825291829020805460ff191686151590811790915591519182527f17307eab39ab6107e8899845ad3d59bd9653f200f220920489ca2b5937696c31910160405180910390a3505050565b612e3a848484612a26565b612e46848484846131e8565b612e625760405162461bcd60e51b8152600401610fd890613c89565b50505050565b606060498054610ea990613e0b565b60606000612e84836132f2565b600101905060008167ffffffffffffffff811115612eb257634e487b7160e01b600052604160045260246000fd5b6040519080825280601f01601f191660200182016040528015612edc576020820181803683370190505b5090508181016020015b600019016f181899199a1a9b1b9c1cb0b131b232b360811b600a86061a8153600a8504945084612f1557611795565b612ee6565b600081815260446020526040812054600511612f6f5760405162461bcd60e51b81526020600482015260146024820152734769726c3a206f7574206f66206368617267657360601b6044820152606401610fd8565b60008281526044602052604081208054909190612f8b90613e46565b9091555060008281526044602052604090205460069060051415610e9457603f54604051634875869760e01b8152600481018590526001600160a01b039091169063487586979060240160206040518083038186803b158015612fed57600080fd5b505afa158015613001573d6000803e3d6000fd5b505050506040513d601f19601f820116820180604052508101906115519190613b14565b60006001600160e01b031982166380ac58cd60e01b148061305657506001600160e01b03198216635b5e139f60e01b145b80610e9457506301ffc9a760e01b6001600160e01b0319831614610e94565b61307f83836133ca565b61308c60008484846131e8565b6111b55760405162461bcd60e51b8152600401610fd890613c89565b6130b484848484613563565b60018111156131235760405162461bcd60e51b815260206004820152603560248201527f455243373231456e756d657261626c653a20636f6e7365637574697665207472604482015274185b9cd9995c9cc81b9bdd081cdd5c1c1bdc9d1959605a1b6064820152608401610fd8565b816001600160a01b03851661317f5761317a81600880546000838152600960205260408120829055600182018355919091527ff3f7a9fe364faab93b216da50a3214154f22a0a2b415b23a84c8169e8b636ee30155565b6131a2565b836001600160a01b0316856001600160a01b0316146131a2576131a285826135eb565b6001600160a01b0384166131be576131b981613688565b6131e1565b846001600160a01b0316846001600160a01b0316146131e1576131e18482613761565b5050505050565b60006001600160a01b0384163b156132ea57604051630a85bd0160e11b81526001600160a01b0385169063150b7a029061322c903390899088908890600401613bf5565b602060405180830381600087803b15801561324657600080fd5b505af1925050508015613276575060408051601f3d908101601f1916820190925261327391810190613a9a565b60015b6132d0573d8080156132a4576040519150601f19603f3d011682016040523d82523d6000602084013e6132a9565b606091505b5080516132c85760405162461bcd60e51b8152600401610fd890613c89565b805181602001fd5b6001600160e01b031916630a85bd0160e11b1490506111df565b5060016111df565b60008072184f03e93ff9f4daa797ed6e38ed64bf6a1f0160401b83106133315772184f03e93ff9f4daa797ed6e38ed64bf6a1f0160401b830492506040015b6d04ee2d6d415b85acef8100000000831061335d576d04ee2d6d415b85acef8100000000830492506020015b662386f26fc10000831061337b57662386f26fc10000830492506010015b6305f5e1008310613393576305f5e100830492506008015b61271083106133a757612710830492506004015b606483106133b9576064830492506002015b600a8310610e945760010192915050565b6001600160a01b0382166134205760405162461bcd60e51b815260206004820181905260248201527f4552433732313a206d696e7420746f20746865207a65726f20616464726573736044820152606401610fd8565b6000818152600260205260409020546001600160a01b0316156134855760405162461bcd60e51b815260206004820152601c60248201527f4552433732313a20746f6b656e20616c7265616479206d696e746564000000006044820152606401610fd8565b6134936000838360016130a8565b6000818152600260205260409020546001600160a01b0316156134f85760405162461bcd60e51b815260206004820152601c60248201527f4552433732313a20746f6b656e20616c7265616479206d696e746564000000006044820152606401610fd8565b6001600160a01b038216600081815260036020908152604080832080546001019055848352600290915280822080546001600160a01b0319168417905551839291907fddf252ad1be2c89b69c2b068fc378daa952ba7f163c4a11628f55a4df523b3ef908290a45050565b6001811115612e62576001600160a01b038416156135a9576001600160a01b038416600090815260036020526040812080548392906135a3908490613dc8565b90915550505b6001600160a01b03831615612e62576001600160a01b038316600090815260036020526040812080548392906135e0908490613d71565b909155505050505050565b600060016135f884611c26565b6136029190613dc8565b600083815260076020526040902054909150808214613655576001600160a01b03841660009081526006602090815260408083208584528252808320548484528184208190558352600790915290208190555b5060009182526007602090815260408084208490556001600160a01b039094168352600681528383209183525290812055565b60085460009061369a90600190613dc8565b600083815260096020526040812054600880549394509092849081106136d057634e487b7160e01b600052603260045260246000fd5b9060005260206000200154905080600883815481106136ff57634e487b7160e01b600052603260045260246000fd5b600091825260208083209091019290925582815260099091526040808220849055858252812055600880548061374557634e487b7160e01b600052603160045260246000fd5b6001900381819060005260206000200160009055905550505050565b600061376c83611c26565b6001600160a01b039093166000908152600660209081526040808320868452825280832085905593825260079052919091209190915550565b8280546137b190613e0b565b90600052602060002090601f0160209004810192826137d35760008555613819565b82601f106137ec57805160ff1916838001178555613819565b82800160010185558215613819579182015b828111156138195782518255916020019190600101906137fe565b50613825929150613829565b5090565b5b80821115613825576000815560010161382a565b600067ffffffffffffffff8084111561385957613859613e77565b604051601f8501601f19908116603f0116810190828211818310171561388157613881613e77565b8160405280935085815286868601111561389a57600080fd5b858560208301376000602087830101525050509392505050565b803580151581146138c457600080fd5b919050565b6000602082840312156138da578081fd5b813561155181613e8d565b6000602082840312156138f6578081fd5b815161155181613e8d565b60008060408385031215613913578081fd5b823561391e81613e8d565b9150602083013561392e81613e8d565b809150509250929050565b60008060006060848603121561394d578081fd5b833561395881613e8d565b9250602084013561396881613e8d565b929592945050506040919091013590565b6000806000806080858703121561398e578081fd5b843561399981613e8d565b935060208501356139a981613e8d565b925060408501359150606085013567ffffffffffffffff8111156139cb578182fd5b8501601f810187136139db578182fd5b6139ea8782356020840161383e565b91505092959194509250565b60008060408385031215613a08578182fd5b8235613a1381613e8d565b91506113aa602084016138b4565b60008060408385031215613a33578182fd5b8235613a3e81613e8d565b946020939093013593505050565b600080600060608486031215613a60578283fd5b613a69846138b4565b95602085013595506040909401359392505050565b600060208284031215613a8f578081fd5b813561155181613ea2565b600060208284031215613aab578081fd5b815161155181613ea2565b600060208284031215613ac7578081fd5b813567ffffffffffffffff811115613add578182fd5b8201601f81018413613aed578182fd5b6111df8482356020840161383e565b600060208284031215613b0d578081fd5b5035919050565b600060208284031215613b25578081fd5b5051919050565b60008060408385031215613b3e578182fd5b823591506113aa602084016138b4565b60008060408385031215613b60578182fd5b50508035926020909101359150565b600080600060608486031215613b83578081fd5b505081359360208301359350604090920135919050565b60008151808452613bb2816020860160208601613ddf565b601f01601f19169290920160200192915050565b60008351613bd8818460208801613ddf565b835190830190613bec818360208801613ddf565b01949350505050565b6001600160a01b0385811682528416602082015260408101839052608060608201819052600090613c2890830184613b9a565b9695505050505050565b6020808252825182820181905260009190848201906040850190845b81811015613c6a57835183529284019291840191600101613c4e565b50909695505050505050565b6020815260006115516020830184613b9a565b60208082526032908201527f4552433732313a207472616e7366657220746f206e6f6e20455243373231526560408201527131b2b4bb32b91034b6b83632b6b2b73a32b960711b606082015260800190565b60208082526025908201527f4552433732313a207472616e736665722066726f6d20696e636f72726563742060408201526437bbb732b960d91b606082015260800190565b60208082526031908201527f4552433732313a207472616e736665722063616c6c6572206973206e6f74206f6040820152701ddb995c881b9bdc88185c1c1c9bdd9959607a1b606082015260800190565b60008219821115613d8457613d84613e61565b500190565b600082613da457634e487b7160e01b81526012600452602481fd5b500490565b6000816000190483118215151615613dc357613dc3613e61565b500290565b600082821015613dda57613dda613e61565b500390565b60005b83811015613dfa578181015183820152602001613de2565b83811115612e625750506000910152565b600181811c90821680613e1f57607f821691505b60208210811415613e4057634e487b7160e01b600052602260045260246000fd5b50919050565b6000600019821415613e5a57613e5a613e61565b5060010190565b634e487b7160e01b600052601160045260246000fd5b634e487b7160e01b600052604160045260246000fd5b6001600160a01b03811681146113c457600080fd5b6001600160e01b0319811681146113c457600080fdfea2646970667358221220d4276215c4729fddacfac4917758b4da1bcafd2343da01672f5708d79fac23f364736f6c63430008040033",
  "linkReferences": {},
  "deployedLinkReferences": {}
}