{
  "_format": "hh-sol-artifact-1",
  "contractName": "Girl",
  "sourceName": "contracts/Girl/Girl.sol",
  "abi": [
    {
      "inputs": [
        {
          "internalType": "string",
          "name": "_initBaseURI",
          "type": "string"
        },
        {
          "internalType": "address",
          "name": "_orb",
          "type": "address"
        },
        {
          "internalType": "address",
          "name": "_emissions",
          "type": "address"
        },
        {
          "internalType": "address payable",
          "name": "_dev",
          "type": "address"
        },
        {
          "internalType": "address",
          "name": "_royalty",
          "type": "address"
        }
      ],
      "stateMutability": "nonpayable",
      "type": "constructor"
    },
    {
      "anonymous": false,
      "inputs": [
        {
          "indexed": true,
          "internalType": "address",
          "name": "owner",
          "type": "address"
        },
        {
          "indexed": true,
          "internalType": "address",
          "name": "approved",
          "type": "address"
        },
        {
          "indexed": true,
          "internalType": "uint256",
          "name": "tokenId",
          "type": "uint256"
        }
      ],
      "name": "Approval",
      "type": "event"
    },
    {
      "anonymous": false,
      "inputs": [
        {
          "indexed": true,
          "internalType": "address",
          "name": "owner",
          "type": "address"
        },
        {
          "indexed": true,
          "internalType": "address",
          "name": "operator",
          "type": "address"
        },
        {
          "indexed": false,
          "internalType": "bool",
          "name": "approved",
          "type": "bool"
        }
      ],
      "name": "ApprovalForAll",
      "type": "event"
    },
    {
      "anonymous": false,
      "inputs": [
        {
          "indexed": false,
          "internalType": "uint256",
          "name": "id",
          "type": "uint256"
        },
        {
          "indexed": false,
          "internalType": "uint256",
          "name": "newLevel",
          "type": "uint256"
        }
      ],
      "name": "CosmicLevelChanged",
      "type": "event"
    },
    {
      "anonymous": false,
      "inputs": [
        {
          "indexed": false,
          "internalType": "uint256",
          "name": "id",
          "type": "uint256"
        },
        {
          "indexed": false,
          "internalType": "uint256",
          "name": "element",
          "type": "uint256"
        }
      ],
      "name": "ElementChanged",
      "type": "event"
    },
    {
      "anonymous": false,
      "inputs": [
        {
          "indexed": false,
          "internalType": "uint256",
          "name": "id",
          "type": "uint256"
        },
        {
          "indexed": false,
          "internalType": "uint256",
          "name": "newScore",
          "type": "uint256"
        }
      ],
      "name": "GamerScoreChanged",
      "type": "event"
    },
    {
      "anonymous": false,
      "inputs": [
        {
          "indexed": false,
          "internalType": "address",
          "name": "minter",
          "type": "address"
        },
        {
          "indexed": true,
          "internalType": "uint256",
          "name": "id",
          "type": "uint256"
        },
        {
          "indexed": true,
          "internalType": "bool",
          "name": "usingOrb",
          "type": "bool"
        },
        {
          "indexed": true,
          "internalType": "uint256",
          "name": "rarity",
          "type": "uint256"
        }
      ],
      "name": "GirlMinted",
      "type": "event"
    },
    {
      "anonymous": false,
      "inputs": [
        {
          "indexed": true,
          "internalType": "address",
          "name": "previousOwner",
          "type": "address"
        },
        {
          "indexed": true,
          "internalType": "address",
          "name": "newOwner",
          "type": "address"
        }
      ],
      "name": "OwnershipTransferred",
      "type": "event"
    },
    {
      "anonymous": false,
      "inputs": [
        {
          "indexed": false,
          "internalType": "uint256",
          "name": "id",
          "type": "uint256"
        },
        {
          "indexed": false,
          "internalType": "uint256",
          "name": "cl",
          "type": "uint256"
        },
        {
          "indexed": false,
          "internalType": "uint256",
          "name": "el",
          "type": "uint256"
        }
      ],
      "name": "StatsInitialized",
      "type": "event"
    },
    {
      "anonymous": false,
      "inputs": [
        {
          "indexed": true,
          "internalType": "address",
          "name": "from",
          "type": "address"
        },
        {
          "indexed": true,
          "internalType": "address",
          "name": "to",
          "type": "address"
        },
        {
          "indexed": true,
          "internalType": "uint256",
          "name": "tokenId",
          "type": "uint256"
        }
      ],
      "name": "Transfer",
      "type": "event"
    },
    {
      "inputs": [],
      "name": "INTERFACE_ID_ERC2981",
      "outputs": [
        {
          "internalType": "bytes4",
          "name": "",
          "type": "bytes4"
        }
      ],
      "stateMutability": "view",
      "type": "function"
    },
    {
      "inputs": [
        {
          "internalType": "address",
          "name": "to",
          "type": "address"
        },
        {
          "internalType": "uint256",
          "name": "tokenId",
          "type": "uint256"
        }
      ],
      "name": "approve",
      "outputs": [],
      "stateMutability": "nonpayable",
      "type": "function"
    },
    {
      "inputs": [],
      "name": "attunement",
      "outputs": [
        {
          "internalType": "contract IAttunement",
          "name": "",
          "type": "address"
        }
      ],
      "stateMutability": "view",
      "type": "function"
    },
    {
      "inputs": [
        {
          "internalType": "address",
          "name": "owner",
          "type": "address"
        }
      ],
      "name": "balanceOf",
      "outputs": [
        {
          "internalType": "uint256",
          "name": "",
          "type": "uint256"
        }
      ],
      "stateMutability": "view",
      "type": "function"
    },
    {
      "inputs": [
        {
          "internalType": "uint256",
          "name": "id",
          "type": "uint256"
        },
        {
          "internalType": "uint256",
          "name": "toTier",
          "type": "uint256"
        }
      ],
      "name": "calcCosmicLevelUpgradeCost",
      "outputs": [
        {
          "internalType": "uint256[]",
          "name": "",
          "type": "uint256[]"
        }
      ],
      "stateMutability": "view",
      "type": "function"
    },
    {
      "inputs": [
        {
          "internalType": "uint256",
          "name": "id",
          "type": "uint256"
        },
        {
          "internalType": "uint256",
          "name": "toTier",
          "type": "uint256"
        }
      ],
      "name": "calcGamerScoreUpgradeCost",
      "outputs": [
        {
          "internalType": "uint256",
          "name": "",
          "type": "uint256"
        }
      ],
      "stateMutability": "view",
      "type": "function"
    },
    {
      "inputs": [],
      "name": "charges",
      "outputs": [
        {
          "internalType": "uint256",
          "name": "",
          "type": "uint256"
        }
      ],
      "stateMutability": "view",
      "type": "function"
    },
    {
      "inputs": [
        {
          "internalType": "uint256",
          "name": "",
          "type": "uint256"
        }
      ],
      "name": "chargesUsed",
      "outputs": [
        {
          "internalType": "uint256",
          "name": "",
          "type": "uint256"
        }
      ],
      "stateMutability": "view",
      "type": "function"
    },
    {
      "inputs": [
        {
          "internalType": "uint256",
          "name": "girlId",
          "type": "uint256"
        }
      ],
      "name": "checkStake",
      "outputs": [
        {
          "internalType": "address",
          "name": "",
          "type": "address"
        },
        {
          "internalType": "bool",
          "name": "",
          "type": "bool"
        },
        {
          "internalType": "uint256",
          "name": "",
          "type": "uint256"
        }
      ],
      "stateMutability": "view",
      "type": "function"
    },
    {
      "inputs": [
        {
          "internalType": "uint256",
          "name": "",
          "type": "uint256"
        }
      ],
      "name": "cosmicLevel",
      "outputs": [
        {
          "internalType": "uint256",
          "name": "",
          "type": "uint256"
        }
      ],
      "stateMutability": "view",
      "type": "function"
    },
    {
      "inputs": [
        {
          "internalType": "uint256",
          "name": "",
          "type": "uint256"
        }
      ],
      "name": "element",
      "outputs": [
        {
          "internalType": "uint256",
          "name": "",
          "type": "uint256"
        }
      ],
      "stateMutability": "view",
      "type": "function"
    },
    {
      "inputs": [],
      "name": "emissions",
      "outputs": [
        {
          "internalType": "contract IEmissions",
          "name": "",
          "type": "address"
        }
      ],
      "stateMutability": "view",
      "type": "function"
    },
    {
      "inputs": [
        {
          "internalType": "uint256",
          "name": "",
          "type": "uint256"
        }
      ],
      "name": "gamerScore",
      "outputs": [
        {
          "internalType": "uint256",
          "name": "",
          "type": "uint256"
        }
      ],
      "stateMutability": "view",
      "type": "function"
    },
    {
      "inputs": [
        {
          "internalType": "uint256",
          "name": "tokenId",
          "type": "uint256"
        }
      ],
      "name": "getApproved",
      "outputs": [
        {
          "internalType": "address",
          "name": "",
          "type": "address"
        }
      ],
      "stateMutability": "view",
      "type": "function"
    },
    {
      "inputs": [
        {
          "internalType": "uint256",
          "name": "id",
          "type": "uint256"
        }
      ],
      "name": "getChargesRemaining",
      "outputs": [
        {
          "internalType": "uint256",
          "name": "",
          "type": "uint256"
        }
      ],
      "stateMutability": "view",
      "type": "function"
    },
    {
      "inputs": [
        {
          "internalType": "uint256",
          "name": "_id",
          "type": "uint256"
        }
      ],
      "name": "getCosmicLevel",
      "outputs": [
        {
          "internalType": "uint256",
          "name": "",
          "type": "uint256"
        }
      ],
      "stateMutability": "view",
      "type": "function"
    },
    {
      "inputs": [
        {
          "internalType": "uint256",
          "name": "id",
          "type": "uint256"
        },
        {
          "internalType": "uint256",
          "name": "toTier",
          "type": "uint256"
        }
      ],
      "name": "getCosmicLevelUpgradeCost",
      "outputs": [
        {
          "internalType": "uint256[]",
          "name": "",
          "type": "uint256[]"
        }
      ],
      "stateMutability": "view",
      "type": "function"
    },
    {
      "inputs": [],
      "name": "getCost",
      "outputs": [
        {
          "internalType": "uint256",
          "name": "",
          "type": "uint256"
        }
      ],
      "stateMutability": "view",
      "type": "function"
    },
    {
      "inputs": [
        {
          "internalType": "uint256",
          "name": "_cost",
          "type": "uint256"
        }
      ],
      "name": "getDevFee",
      "outputs": [
        {
          "internalType": "uint256",
          "name": "",
          "type": "uint256"
        }
      ],
      "stateMutability": "view",
      "type": "function"
    },
    {
      "inputs": [],
      "name": "getDiscountCost",
      "outputs": [
        {
          "internalType": "uint256",
          "name": "",
          "type": "uint256"
        }
      ],
      "stateMutability": "view",
      "type": "function"
    },
    {
      "inputs": [
        {
          "internalType": "uint256",
          "name": "_id",
          "type": "uint256"
        }
      ],
      "name": "getElement",
      "outputs": [
        {
          "internalType": "uint256",
          "name": "",
          "type": "uint256"
        }
      ],
      "stateMutability": "view",
      "type": "function"
    },
    {
      "inputs": [
        {
          "internalType": "uint256",
          "name": "_id",
          "type": "uint256"
        }
      ],
      "name": "getGamerScore",
      "outputs": [
        {
          "internalType": "uint256",
          "name": "",
          "type": "uint256"
        }
      ],
      "stateMutability": "view",
      "type": "function"
    },
    {
      "inputs": [
        {
          "internalType": "uint256",
          "name": "id",
          "type": "uint256"
        },
        {
          "internalType": "uint256",
          "name": "toTier",
          "type": "uint256"
        }
      ],
      "name": "getGamerScoreUpgradeCost",
      "outputs": [
        {
          "internalType": "uint256",
          "name": "cost",
          "type": "uint256"
        }
      ],
      "stateMutability": "view",
      "type": "function"
    },
    {
      "inputs": [
        {
          "internalType": "uint256",
          "name": "",
          "type": "uint256"
        }
      ],
      "name": "gsUpgradeCosts",
      "outputs": [
        {
          "internalType": "uint256",
          "name": "",
          "type": "uint256"
        }
      ],
      "stateMutability": "view",
      "type": "function"
    },
    {
      "inputs": [
        {
          "internalType": "uint256",
          "name": "id",
          "type": "uint256"
        },
        {
          "internalType": "uint256",
          "name": "toTier",
          "type": "uint256"
        }
      ],
      "name": "handleUpgradeCosmicLevel",
      "outputs": [],
      "stateMutability": "nonpayable",
      "type": "function"
    },
    {
      "inputs": [
        {
          "internalType": "uint256",
          "name": "id",
          "type": "uint256"
        },
        {
          "internalType": "uint256",
          "name": "toTier",
          "type": "uint256"
        }
      ],
      "name": "handleUpgradeGamerScore",
      "outputs": [],
      "stateMutability": "nonpayable",
      "type": "function"
    },
    {
      "inputs": [
        {
          "internalType": "uint256",
          "name": "id",
          "type": "uint256"
        },
        {
          "internalType": "uint256",
          "name": "cl",
          "type": "uint256"
        },
        {
          "internalType": "uint256",
          "name": "el",
          "type": "uint256"
        }
      ],
      "name": "initStats",
      "outputs": [],
      "stateMutability": "nonpayable",
      "type": "function"
    },
    {
      "inputs": [
        {
          "internalType": "address",
          "name": "owner",
          "type": "address"
        },
        {
          "internalType": "address",
          "name": "operator",
          "type": "address"
        }
      ],
      "name": "isApprovedForAll",
      "outputs": [
        {
          "internalType": "bool",
          "name": "",
          "type": "bool"
        }
      ],
      "stateMutability": "view",
      "type": "function"
    },
    {
      "inputs": [
        {
          "internalType": "address",
          "name": "",
          "type": "address"
        }
      ],
      "name": "isElementalStone",
      "outputs": [
        {
          "internalType": "bool",
          "name": "",
          "type": "bool"
        }
      ],
      "stateMutability": "view",
      "type": "function"
    },
    {
      "inputs": [
        {
          "internalType": "uint256",
          "name": "girlId",
          "type": "uint256"
        }
      ],
      "name": "isPaired",
      "outputs": [
        {
          "internalType": "bool",
          "name": "",
          "type": "bool"
        }
      ],
      "stateMutability": "view",
      "type": "function"
    },
    {
      "inputs": [
        {
          "internalType": "address",
          "name": "",
          "type": "address"
        }
      ],
      "name": "isWorker",
      "outputs": [
        {
          "internalType": "bool",
          "name": "",
          "type": "bool"
        }
      ],
      "stateMutability": "view",
      "type": "function"
    },
    {
      "inputs": [
        {
          "internalType": "uint256",
          "name": "",
          "type": "uint256"
        }
      ],
      "name": "matchedElementCosts",
      "outputs": [
        {
          "internalType": "uint256",
          "name": "",
          "type": "uint256"
        }
      ],
      "stateMutability": "view",
      "type": "function"
    },
    {
      "inputs": [],
      "name": "maxSupply",
      "outputs": [
        {
          "internalType": "uint256",
          "name": "",
          "type": "uint256"
        }
      ],
      "stateMutability": "view",
      "type": "function"
    },
    {
      "inputs": [
        {
          "internalType": "bool",
          "name": "usingOrb",
          "type": "bool"
        },
        {
          "internalType": "uint256",
          "name": "orbId",
          "type": "uint256"
        },
        {
          "internalType": "uint256",
          "name": "amount",
          "type": "uint256"
        }
      ],
      "name": "mint",
      "outputs": [],
      "stateMutability": "payable",
      "type": "function"
    },
    {
      "inputs": [
        {
          "internalType": "address",
          "name": "_to",
          "type": "address"
        }
      ],
      "name": "mintDev",
      "outputs": [],
      "stateMutability": "nonpayable",
      "type": "function"
    },
    {
      "inputs": [],
      "name": "moonstone",
      "outputs": [
        {
          "internalType": "contract IERC20",
          "name": "",
          "type": "address"
        }
      ],
      "stateMutability": "view",
      "type": "function"
    },
    {
      "inputs": [],
      "name": "name",
      "outputs": [
        {
          "internalType": "string",
          "name": "",
          "type": "string"
        }
      ],
      "stateMutability": "view",
      "type": "function"
    },
    {
      "inputs": [
        {
          "internalType": "address",
          "name": "",
          "type": "address"
        },
        {
          "internalType": "address",
          "name": "",
          "type": "address"
        },
        {
          "internalType": "uint256",
          "name": "",
          "type": "uint256"
        },
        {
          "internalType": "bytes",
          "name": "",
          "type": "bytes"
        }
      ],
      "name": "onERC721Received",
      "outputs": [
        {
          "internalType": "bytes4",
          "name": "",
          "type": "bytes4"
        }
      ],
      "stateMutability": "nonpayable",
      "type": "function"
    },
    {
      "inputs": [],
      "name": "orb",
      "outputs": [
        {
          "internalType": "contract IERC721",
          "name": "",
          "type": "address"
        }
      ],
      "stateMutability": "view",
      "type": "function"
    },
    {
      "inputs": [],
      "name": "orbRarity",
      "outputs": [
        {
          "internalType": "contract IOrbRarity",
          "name": "",
          "type": "address"
        }
      ],
      "stateMutability": "view",
      "type": "function"
    },
    {
      "inputs": [],
      "name": "owner",
      "outputs": [
        {
          "internalType": "address",
          "name": "",
          "type": "address"
        }
      ],
      "stateMutability": "view",
      "type": "function"
    },
    {
      "inputs": [
        {
          "internalType": "uint256",
          "name": "tokenId",
          "type": "uint256"
        }
      ],
      "name": "ownerOf",
      "outputs": [
        {
          "internalType": "address",
          "name": "",
          "type": "address"
        }
      ],
      "stateMutability": "view",
      "type": "function"
    },
    {
      "inputs": [
        {
          "internalType": "uint256",
          "name": "",
          "type": "uint256"
        }
      ],
      "name": "paired",
      "outputs": [
        {
          "internalType": "bool",
          "name": "",
          "type": "bool"
        }
      ],
      "stateMutability": "view",
      "type": "function"
    },
    {
      "inputs": [],
      "name": "renounceOwnership",
      "outputs": [],
      "stateMutability": "nonpayable",
      "type": "function"
    },
    {
      "inputs": [
        {
          "internalType": "uint256",
          "name": "_tokenId",
          "type": "uint256"
        },
        {
          "internalType": "uint256",
          "name": "_salePrice",
          "type": "uint256"
        }
      ],
      "name": "royaltyInfo",
      "outputs": [
        {
          "internalType": "address",
          "name": "receiver",
          "type": "address"
        },
        {
          "internalType": "uint256",
          "name": "royaltyAmount",
          "type": "uint256"
        }
      ],
      "stateMutability": "view",
      "type": "function"
    },
    {
      "inputs": [
        {
          "internalType": "address",
          "name": "from",
          "type": "address"
        },
        {
          "internalType": "address",
          "name": "to",
          "type": "address"
        },
        {
          "internalType": "uint256",
          "name": "tokenId",
          "type": "uint256"
        }
      ],
      "name": "safeTransferFrom",
      "outputs": [],
      "stateMutability": "nonpayable",
      "type": "function"
    },
    {
      "inputs": [
        {
          "internalType": "address",
          "name": "from",
          "type": "address"
        },
        {
          "internalType": "address",
          "name": "to",
          "type": "address"
        },
        {
          "internalType": "uint256",
          "name": "tokenId",
          "type": "uint256"
        },
        {
          "internalType": "bytes",
          "name": "_data",
          "type": "bytes"
        }
      ],
      "name": "safeTransferFrom",
      "outputs": [],
      "stateMutability": "nonpayable",
      "type": "function"
    },
    {
      "inputs": [
        {
          "internalType": "address",
          "name": "operator",
          "type": "address"
        },
        {
          "internalType": "bool",
          "name": "approved",
          "type": "bool"
        }
      ],
      "name": "setApprovalForAll",
      "outputs": [],
      "stateMutability": "nonpayable",
      "type": "function"
    },
    {
      "inputs": [
        {
          "internalType": "address",
          "name": "_a",
          "type": "address"
        }
      ],
      "name": "setAttunementContract",
      "outputs": [],
      "stateMutability": "nonpayable",
      "type": "function"
    },
    {
      "inputs": [
        {
          "internalType": "string",
          "name": "_newBaseURI",
          "type": "string"
        }
      ],
      "name": "setBaseURI",
      "outputs": [],
      "stateMutability": "nonpayable",
      "type": "function"
    },
    {
      "inputs": [
        {
          "internalType": "uint256",
          "name": "_newCost",
          "type": "uint256"
        }
      ],
      "name": "setCost",
      "outputs": [],
      "stateMutability": "nonpayable",
      "type": "function"
    },
    {
      "inputs": [
        {
          "internalType": "uint256",
          "name": "_fee",
          "type": "uint256"
        }
      ],
      "name": "setDevFee",
      "outputs": [],
      "stateMutability": "nonpayable",
      "type": "function"
    },
    {
      "inputs": [
        {
          "internalType": "uint256",
          "name": "_id",
          "type": "uint256"
        },
        {
          "internalType": "uint256",
          "name": "_newElement",
          "type": "uint256"
        }
      ],
      "name": "setElement",
      "outputs": [],
      "stateMutability": "nonpayable",
      "type": "function"
    },
    {
      "inputs": [
        {
          "internalType": "address",
          "name": "_es",
          "type": "address"
        }
      ],
      "name": "setElementalStoneContract",
      "outputs": [],
      "stateMutability": "nonpayable",
      "type": "function"
    },
    {
      "inputs": [
        {
          "internalType": "address",
          "name": "_e",
          "type": "address"
        }
      ],
      "name": "setEmissions",
      "outputs": [],
      "stateMutability": "nonpayable",
      "type": "function"
    },
    {
      "inputs": [
        {
          "internalType": "uint256",
          "name": "_maxSupply",
          "type": "uint256"
        }
      ],
      "name": "setMaxSupply",
      "outputs": [],
      "stateMutability": "nonpayable",
      "type": "function"
    },
    {
      "inputs": [
        {
          "internalType": "address",
          "name": "_moonstone",
          "type": "address"
        }
      ],
      "name": "setMoonstoneContract",
      "outputs": [],
      "stateMutability": "nonpayable",
      "type": "function"
    },
    {
      "inputs": [
        {
          "internalType": "address",
          "name": "_orbRarity",
          "type": "address"
        }
      ],
      "name": "setOrbRarity",
      "outputs": [],
      "stateMutability": "nonpayable",
      "type": "function"
    },
    {
      "inputs": [
        {
          "internalType": "uint256",
          "name": "_id",
          "type": "uint256"
        },
        {
          "internalType": "bool",
          "name": "_paired",
          "type": "bool"
        }
      ],
      "name": "setPaired",
      "outputs": [],
      "stateMutability": "nonpayable",
      "type": "function"
    },
    {
      "inputs": [
        {
          "internalType": "address",
          "name": "newRecipient",
          "type": "address"
        }
      ],
      "name": "setRoyalties",
      "outputs": [],
      "stateMutability": "nonpayable",
      "type": "function"
    },
    {
      "inputs": [
        {
          "internalType": "uint256",
          "name": "_startTime",
          "type": "uint256"
        }
      ],
      "name": "setStartTime",
      "outputs": [],
      "stateMutability": "nonpayable",
      "type": "function"
    },
    {
      "inputs": [
        {
          "internalType": "address",
          "name": "_worker",
          "type": "address"
        },
        {
          "internalType": "bool",
          "name": "_isWorker",
          "type": "bool"
        }
      ],
      "name": "setWorker",
      "outputs": [],
      "stateMutability": "nonpayable",
      "type": "function"
    },
    {
      "inputs": [],
      "name": "startTime",
      "outputs": [
        {
          "internalType": "uint256",
          "name": "",
          "type": "uint256"
        }
      ],
      "stateMutability": "view",
      "type": "function"
    },
    {
      "inputs": [
        {
          "internalType": "bytes4",
          "name": "interfaceId",
          "type": "bytes4"
        }
      ],
      "name": "supportsInterface",
      "outputs": [
        {
          "internalType": "bool",
          "name": "",
          "type": "bool"
        }
      ],
      "stateMutability": "view",
      "type": "function"
    },
    {
      "inputs": [],
      "name": "symbol",
      "outputs": [
        {
          "internalType": "string",
          "name": "",
          "type": "string"
        }
      ],
      "stateMutability": "view",
      "type": "function"
    },
    {
      "inputs": [
        {
          "internalType": "uint256",
          "name": "index",
          "type": "uint256"
        }
      ],
      "name": "tokenByIndex",
      "outputs": [
        {
          "internalType": "uint256",
          "name": "",
          "type": "uint256"
        }
      ],
      "stateMutability": "view",
      "type": "function"
    },
    {
      "inputs": [
        {
          "internalType": "address",
          "name": "owner",
          "type": "address"
        },
        {
          "internalType": "uint256",
          "name": "index",
          "type": "uint256"
        }
      ],
      "name": "tokenOfOwnerByIndex",
      "outputs": [
        {
          "internalType": "uint256",
          "name": "",
          "type": "uint256"
        }
      ],
      "stateMutability": "view",
      "type": "function"
    },
    {
      "inputs": [
        {
          "internalType": "uint256",
          "name": "tokenId",
          "type": "uint256"
        }
      ],
      "name": "tokenURI",
      "outputs": [
        {
          "internalType": "string",
          "name": "",
          "type": "string"
        }
      ],
      "stateMutability": "view",
      "type": "function"
    },
    {
      "inputs": [],
      "name": "totalSupply",
      "outputs": [
        {
          "internalType": "uint256",
          "name": "",
          "type": "uint256"
        }
      ],
      "stateMutability": "view",
      "type": "function"
    },
    {
      "inputs": [
        {
          "internalType": "address",
          "name": "from",
          "type": "address"
        },
        {
          "internalType": "address",
          "name": "to",
          "type": "address"
        },
        {
          "internalType": "uint256",
          "name": "tokenId",
          "type": "uint256"
        }
      ],
      "name": "transferFrom",
      "outputs": [],
      "stateMutability": "nonpayable",
      "type": "function"
    },
    {
      "inputs": [
        {
          "internalType": "address",
          "name": "newOwner",
          "type": "address"
        }
      ],
      "name": "transferOwnership",
      "outputs": [],
      "stateMutability": "nonpayable",
      "type": "function"
    },
    {
      "inputs": [
        {
          "internalType": "uint256",
          "name": "",
          "type": "uint256"
        }
      ],
      "name": "unmatchedElementCosts",
      "outputs": [
        {
          "internalType": "uint256",
          "name": "",
          "type": "uint256"
        }
      ],
      "stateMutability": "view",
      "type": "function"
    },
    {
      "inputs": [
        {
          "internalType": "address",
          "name": "_owner",
          "type": "address"
        }
      ],
      "name": "walletOfOwner",
      "outputs": [
        {
          "internalType": "uint256[]",
          "name": "",
          "type": "uint256[]"
        }
      ],
      "stateMutability": "view",
      "type": "function"
    },
    {
      "inputs": [
        {
          "internalType": "address payable",
          "name": "_rest",
          "type": "address"
        }
      ],
      "name": "withdraw",
      "outputs": [],
      "stateMutability": "nonpayable",
      "type": "function"
    }
  ],
  "bytecode": "0x6019600e55600a600f9081556103c060405260006080908152600460a081905260c081905260e05260056101008190526101208190526101408190526101608190526101805260066101a08190526101c05260076101e052600861020081905261022081905261024081905261026052600b6102808190526102a08190526102c052600c6102e08190526103005261032091909152601061034081905261036081905260116103808190526103a052620000bb91601a6200052d565b50604080516101408101825260008152600260208201526003918101829052606081019190915260046080820152600660a0820152600860c0820152600b60e0820152600e61010082015260126101208201526200011e90602a90600a62000575565b506040805161014081018252600080825260208201819052918101919091526001606082015260026080820152600360a0820152600460c0820152600560e0820152600761010082015260096101208201526200018090603490600a62000575565b50605a60415560056042556006604355611388604a556363d481a0604b55348015620001ab57600080fd5b506040516200472f3803806200472f833981016040819052620001ce916200065b565b604080518082018252600f81526e151bdade5bc815195cdd0811da5c9b608a1b60208083019182528351808501909452600384526254544760e81b9084015281519192916200022091600091620005aa565b50805162000236906001906020840190620005aa565b505050620002536200024d620002e960201b60201c565b620002ed565b6001604555603e80546001600160a01b0319166001600160a01b0386161790556200027e856200033f565b620002898362000362565b62000294816200038e565b620002a1336001620003a6565b620002b4674563918244f40000620003db565b50604c80546001600160a01b039092166001600160a01b03199283168117909155604d805490921617905550620007d1915050565b3390565b600a80546001600160a01b038381166001600160a01b0319831681179093556040519116919082907f8be0079c531659141344cd1fd0a4f28419497f9722a3daafe3b4186f6b6457e090600090a35050565b6200034962000440565b80516200035e906049906020840190620005aa565b5050565b6200036c62000440565b604880546001600160a01b0319166001600160a01b0392909216919091179055565b6200039862000440565b620003a3816200049e565b50565b620003b062000440565b6001600160a01b03919091166000908152605060205260409020805460ff1916911515919091179055565b620003e562000440565b600081116200043b5760405162461bcd60e51b815260206004820152601460248201527f4769726c3a20636f73742063616e74206265203000000000000000000000000060448201526064015b60405180910390fd5b604055565b600a546001600160a01b031633146200049c5760405162461bcd60e51b815260206004820181905260248201527f4f776e61626c653a2063616c6c6572206973206e6f7420746865206f776e6572604482015260640162000432565b565b6001600160a01b0381166200050b5760405162461bcd60e51b815260206004820152602c60248201527f526f79616c746965733a206e657720726563697069656e74206973207468652060448201526b7a65726f206164647265737360a01b606482015260840162000432565b604d80546001600160a01b0319166001600160a01b0392909216919091179055565b82601a810192821562000563579160200282015b8281111562000563578251829060ff1690559160200191906001019062000541565b506200057192915062000627565b5090565b82600a810192821562000563579160200282018281111562000563578251829060ff1690559160200191906001019062000541565b828054620005b8906200077e565b90600052602060002090601f016020900481019282620005dc576000855562000563565b82601f10620005f757805160ff191683800117855562000563565b8280016001018555821562000563579182015b82811115620005635782518255916020019190600101906200060a565b5b8082111562000571576000815560010162000628565b80516001600160a01b03811681146200065657600080fd5b919050565b600080600080600060a0868803121562000673578081fd5b85516001600160401b03808211156200068a578283fd5b818801915088601f8301126200069e578283fd5b815181811115620006b357620006b3620007bb565b604051601f8201601f19908116603f01168101908382118183101715620006de57620006de620007bb565b81604052828152602093508b84848701011115620006fa578586fd5b8591505b828210156200071d5784820184015181830185015290830190620006fe565b828211156200072e57858484830101525b9850620007409150508882016200063e565b9550505062000752604087016200063e565b925062000762606087016200063e565b915062000772608087016200063e565b90509295509295909350565b600181811c908216806200079357607f821691505b60208210811415620007b557634e487b7160e01b600052602260045260246000fd5b50919050565b634e487b7160e01b600052604160045260246000fd5b613f4e80620007e16000396000f3fe6080604052600436106104315760003560e01c80636352211e11610229578063aa1566451161012e578063d5abeb01116100b6578063f2fde38b1161007a578063f2fde38b14610dcd578063f909a9cf14610ded578063fd79e7ac14610e1a578063ff23d7d314610e3a578063ff91078314610e5a57600080fd5b8063d5abeb0114610d18578063e00cda2614610d2e578063e985e9c514610d44578063f090e00414610d8d578063f2731f4a14610dba57600080fd5b8063c373d7f3116100fd578063c373d7f314610c6b578063c3ca39f814610c8b578063c4e2676714610cab578063c87b56dd14610ccb578063d066100614610ceb57600080fd5b8063aa15664514610beb578063b060dd8614610c1b578063b88d4fde14610c36578063bd3e19d414610c5657600080fd5b80637a6832a5116101b157806395d89b411161018057806395d89b4114610b49578063a16e721514610b5e578063a22b36ef14610b7e578063a22cb46514610bab578063a388237d14610bcb57600080fd5b80637a6832a514610abb578063814e1bb814610adb5780638da5cb5b14610afb5780638efab2d514610b1957600080fd5b80636f8b44b0116101f85780636f8b44b014610a3057806370a0823114610a50578063715018a614610a7057806373ae2d7814610a8557806378e9792514610aa557600080fd5b80636352211e146109b0578063690d1ca2146109d057806369250220146109f05780636aa5dd7114610a1057600080fd5b80632a9e63c61161033a57806342842e0e116102c257806351cff8d91161028657806351cff8d91461090357806355f804b314610923578063562d412f1461094357806358d70d74146109705780635c5ac79a1461099057600080fd5b806342842e0e14610856578063438b63001461087657806344a0d68a1461089657806349af0b94146108b65780634f6ccce7146108e357600080fd5b80633c010930116103095780633c010930146107845780633e0a322d146107a45780633f1ed709146107c45780633f74c596146107e457806340a3c3381461081157600080fd5b80632a9e63c6146106f75780632c8296f3146107175780632f745c59146107375780633a7d22bc1461075757600080fd5b806312cbd705116103bd5780631c8a76c51161038c5780631c8a76c5146106435780631eeb2f4f146106585780632267716c1461067857806323b872dd146106985780632a55205a146106b857600080fd5b806312cbd705146105a5578063150b7a02146105d557806318160ddd1461060e5780631c75b6b21461062357600080fd5b806308e6981e1161040457806308e6981e146104e7578063095ea7b3146105075780630b689417146105275780630f3b899b146105575780630fd40c2e1461057757600080fd5b806301ffc9a71461043657806306fdde031461046b578063081812fc1461048d57806308834ee7146104c5575b600080fd5b34801561044257600080fd5b50610456610451366004613ade565b610e7a565b60405190151581526020015b60405180910390f35b34801561047757600080fd5b50610480610ea5565b6040516104629190613cd6565b34801561049957600080fd5b506104ad6104a8366004613b5c565b610f37565b6040516001600160a01b039091168152602001610462565b3480156104d157600080fd5b506104e56104e0366004613929565b610f5e565b005b3480156104f357600080fd5b506104e5610502366004613bcf565b610f88565b34801561051357600080fd5b506104e5610522366004613a81565b6110af565b34801561053357600080fd5b50610456610542366004613b5c565b6000908152604f602052604090205460ff1690565b34801561056357600080fd5b506047546104ad906001600160a01b031681565b34801561058357600080fd5b50610597610592366004613b5c565b6111c5565b604051908152602001610462565b3480156105b157600080fd5b506104566105c0366004613929565b604e6020526000908152604090205460ff1681565b3480156105e157600080fd5b506105f56105f03660046139d9565b6111e1565b6040516001600160e01b03199091168152602001610462565b34801561061a57600080fd5b50600854610597565b34801561062f57600080fd5b506104e561063e366004613b5c565b6111f2565b34801561064f57600080fd5b506105976111ff565b34801561066457600080fd5b506104e5610673366004613929565b611222565b34801561068457600080fd5b506048546104ad906001600160a01b031681565b3480156106a457600080fd5b506104e56106b3366004613999565b61124c565b3480156106c457600080fd5b506106d86106d3366004613bae565b6112e0565b604080516001600160a01b039093168352602083019190915201610462565b34801561070357600080fd5b506104e5610712366004613929565b61130e565b34801561072357600080fd5b506104e5610732366004613929565b611322565b34801561074357600080fd5b50610597610752366004613a81565b6113dc565b34801561076357600080fd5b50610597610772366004613b5c565b6000908152600d602052604090205490565b34801561079057600080fd5b5061059761079f366004613bae565b611472565b3480156107b057600080fd5b506104e56107bf366004613b5c565b61156d565b3480156107d057600080fd5b506104e56107df366004613b8c565b61157a565b3480156107f057600080fd5b506108046107ff366004613bae565b61160e565b6040516104629190613c92565b34801561081d57600080fd5b5061083161082c366004613b5c565b6116a0565b604080516001600160a01b039094168452911515602084015290820152606001610462565b34801561086257600080fd5b506104e5610871366004613999565b6116d9565b34801561088257600080fd5b50610804610891366004613929565b6116f4565b3480156108a257600080fd5b506104e56108b1366004613b5c565b6117b2565b3480156108c257600080fd5b506105976108d1366004613b5c565b60446020526000908152604090205481565b3480156108ef57600080fd5b506105976108fe366004613b5c565b611806565b34801561090f57600080fd5b506104e561091e366004613929565b6118a7565b34801561092f57600080fd5b506104e561093e366004613b16565b611927565b34801561094f57600080fd5b5061059761095e366004613b5c565b600c6020526000908152604090205481565b34801561097c57600080fd5b506046546104ad906001600160a01b031681565b34801561099c57600080fd5b50603f546104ad906001600160a01b031681565b3480156109bc57600080fd5b506104ad6109cb366004613b5c565b611946565b3480156109dc57600080fd5b506104e56109eb366004613929565b6119a6565b3480156109fc57600080fd5b506104e5610a0b366004613bae565b6119d2565b348015610a1c57600080fd5b506104e5610a2b366004613bae565b611b47565b348015610a3c57600080fd5b506104e5610a4b366004613b5c565b611c2e565b348015610a5c57600080fd5b50610597610a6b366004613929565b611c3b565b348015610a7c57600080fd5b506104e5611cc1565b348015610a9157600080fd5b50610804610aa0366004613bae565b611cd5565b348015610ab157600080fd5b50610597604b5481565b348015610ac757600080fd5b506104e5610ad6366004613929565b611f20565b348015610ae757600080fd5b50610597610af6366004613b5c565b611f4a565b348015610b0757600080fd5b50600a546001600160a01b03166104ad565b348015610b2557600080fd5b50610456610b34366004613b5c565b604f6020526000908152604090205460ff1681565b348015610b5557600080fd5b50610480611f61565b348015610b6a57600080fd5b506104e5610b79366004613bae565b611f70565b348015610b8a57600080fd5b50610597610b99366004613b5c565b6000908152600c602052604090205490565b348015610bb757600080fd5b506104e5610bc6366004613a56565b611fc8565b348015610bd757600080fd5b506104e5610be6366004613929565b611fd3565b348015610bf757600080fd5b50610456610c06366004613929565b60506020526000908152604090205460ff1681565b348015610c2757600080fd5b506105f563152a902d60e11b81565b348015610c4257600080fd5b506104e5610c513660046139d9565b611ffd565b348015610c6257600080fd5b50604054610597565b348015610c7757600080fd5b506104e5610c86366004613a56565b612093565b348015610c9757600080fd5b50610597610ca6366004613bae565b6120c6565b348015610cb757600080fd5b50610597610cc6366004613b5c565b6121cf565b348015610cd757600080fd5b50610480610ce6366004613b5c565b6121df565b348015610cf757600080fd5b50610597610d06366004613b5c565b6000908152600b602052604090205490565b348015610d2457600080fd5b50610597604a5481565b348015610d3a57600080fd5b5061059760425481565b348015610d5057600080fd5b50610456610d5f366004613961565b6001600160a01b03918216600090815260056020908152604080832093909416825291909152205460ff1690565b348015610d9957600080fd5b50610597610da8366004613b5c565b600d6020526000908152604090205481565b6104e5610dc8366004613aac565b6122b9565b348015610dd957600080fd5b506104e5610de8366004613929565b612800565b348015610df957600080fd5b50610597610e08366004613b5c565b600b6020526000908152604090205481565b348015610e2657600080fd5b50610597610e35366004613b5c565b612876565b348015610e4657600080fd5b50610597610e55366004613b5c565b612886565b348015610e6657600080fd5b50603e546104ad906001600160a01b031681565b60006001600160e01b0319821663152a902d60e11b1480610e9f5750610e9f826128a2565b92915050565b606060008054610eb490613e6b565b80601f0160208091040260200160405190810160405280929190818152602001828054610ee090613e6b565b8015610f2d5780601f10610f0257610100808354040283529160200191610f2d565b820191906000526020600020905b815481529060010190602001808311610f1057829003601f168201915b5050505050905090565b6000610f42826128c7565b506000908152600460205260409020546001600160a01b031690565b610f66612926565b604880546001600160a01b0319166001600160a01b0392909216919091179055565b3360009081526050602052604090205460ff16610fec5760405162461bcd60e51b815260206004820152601a60248201527f4769726c3a206f6e6c7920776f726b65722063616e2063616c6c00000000000060448201526064015b60405180910390fd5b6000838152600b60209081526040808320859055600d9091529020819055604854604051632b017cb760e01b8152600481018590526001600160a01b0390911690632b017cb790602401600060405180830381600087803b15801561105057600080fd5b505af1158015611064573d6000803e3d6000fd5b505060408051868152602081018690529081018490527fd61e1c6078dbe8c00ff44edafbf29b5084c488aadbbf8d84f3b95c1ea3c1438c9250606001905060405180910390a1505050565b60006110ba82611946565b9050806001600160a01b0316836001600160a01b031614156111285760405162461bcd60e51b815260206004820152602160248201527f4552433732313a20617070726f76616c20746f2063757272656e74206f776e656044820152603960f91b6064820152608401610fe3565b336001600160a01b038216148061114457506111448133610d5f565b6111b65760405162461bcd60e51b815260206004820152603d60248201527f4552433732313a20617070726f76652063616c6c6572206973206e6f7420746f60448201527f6b656e206f776e6572206f7220617070726f76656420666f7220616c6c0000006064820152608401610fe3565b6111c08383612980565b505050565b60006064604354836111d79190613e09565b610e9f9190613de9565b630a85bd0160e11b5b949350505050565b6111fa612926565b604355565b600060646041546040546112139190613e09565b61121d9190613de9565b905090565b61122a612926565b603f80546001600160a01b0319166001600160a01b0392909216919091179055565b61125633826129ee565b6112725760405162461bcd60e51b8152600401610fe390613d80565b61127d838383612a6c565b60475460405163add058fd60e01b8152600481018390526001600160a01b039091169063add058fd90602401600060405180830381600087803b1580156112c357600080fd5b505af11580156112d7573d6000803e3d6000fd5b50505050505050565b604d546001600160a01b0316600060646112fb846006613e09565b6113059190613de9565b90509250929050565b611316612926565b61131f81612bdd565b50565b61132a612926565b600061133560085490565b90506000611344826001613dd1565b9050604a548111156113895760405162461bcd60e51b815260206004820152600e60248201526d11da5c9b0e881cdbdb19081bdd5d60921b6044820152606401610fe3565b6113938382612c6a565b6040516001600160a01b038416815260069060009083907f1f1fc7f871c5573b0f1fde9f6e1f67d93527049f30fde62e53af0333b35839229060200160405180910390a4505050565b60006113e783611c3b565b82106114495760405162461bcd60e51b815260206004820152602b60248201527f455243373231456e756d657261626c653a206f776e657220696e646578206f7560448201526a74206f6620626f756e647360a81b6064820152608401610fe3565b506001600160a01b03919091166000908152600660209081526040808320938352929052205490565b6000600182101580156114875750600e548211155b6114e45760405162461bcd60e51b815260206004820152602860248201527f557067726164653a20746f54696572206d757374206265206265747765656e206044820152673120616e6420323560c01b6064820152608401610fe3565b6000838152600c6020526040902054821161155c5760405162461bcd60e51b815260206004820152603260248201527f557067726164653a20746f54696572206d7573742062652067726561746572206044820152711d1a185b8818dd5c9c995b9d081b195d995b60721b6064820152608401610fe3565b61156683836120c6565b9392505050565b611575612926565b604b55565b336000908152604e602052604090205460ff16806115a257506047546001600160a01b031633145b6115ee5760405162461bcd60e51b815260206004820152601d60248201527f4769726c3a206f6e6c79204553206f72204174742063616e2063616c6c0000006044820152606401610fe3565b6000918252604f6020526040909120805460ff1916911515919091179055565b6000828152600b60205260409020546060908211801561162f5750600a8211155b6116965760405162461bcd60e51b815260206004820152603260248201527f557067726164653a2074696572206d757374206265206265747765656e20637560448201527107272656e74206c6576656c20616e642031360741b6064820152608401610fe3565b6115668383611cd5565b60008060006116ae84611946565b6000948552604f6020908152604080872054600d90925290952054909560ff90951694909350915050565b61127d83838360405180602001604052806000815250611ffd565b6060600061170183611c3b565b905060008167ffffffffffffffff81111561172c57634e487b7160e01b600052604160045260246000fd5b604051908082528060200260200182016040528015611755578160200160208202803683370190505b50905060005b828110156117aa5761176d85826113dc565b82828151811061178d57634e487b7160e01b600052603260045260246000fd5b6020908102919091010152806117a281613ea6565b91505061175b565b509392505050565b6117ba612926565b600081116118015760405162461bcd60e51b815260206004820152601460248201527304769726c3a20636f73742063616e7420626520360641b6044820152606401610fe3565b604055565b600061181160085490565b82106118745760405162461bcd60e51b815260206004820152602c60248201527f455243373231456e756d657261626c653a20676c6f62616c20696e646578206f60448201526b7574206f6620626f756e647360a01b6064820152608401610fe3565b6008828154811061189557634e487b7160e01b600052603260045260246000fd5b90600052602060002001549050919050565b6118af612926565b604c5447906001600160a01b03166108fc6118c9836111c5565b6040518115909202916000818181858888f193505050501580156118f1573d6000803e3d6000fd5b506040516001600160a01b038316904780156108fc02916000818181858888f193505050501580156111c0573d6000803e3d6000fd5b61192f612926565b8051611942906049906020840190613805565b5050565b6000818152600260205260408120546001600160a01b031680610e9f5760405162461bcd60e51b8152602060048201526018602482015277115490cdcc8c4e881a5b9d985b1a59081d1bdad95b88125160421b6044820152606401610fe3565b6119ae612926565b6001600160a01b03166000908152604e60205260409020805460ff19166001179055565b6119da612c84565b6046546001600160a01b03163314611a485760405162461bcd60e51b815260206004820152602b60248201527f4769726c3a206f6e6c79206d6f6f6e73746f6e652063616e207570677261646560448201526a2067616d657273636f726560a81b6064820152608401610fe3565b6000828152600c6020908152604080832054600b9092529182902054604854925163b3c9524b60e01b815260048101869052919290916001600160a01b039091169063b3c9524b90602401600060405180830381600087803b158015611aad57600080fd5b505af1158015611ac1573d6000803e3d6000fd5b50505050611acf8484612cde565b604854604051632d7f86bb60e11b81526004810186905260248101849052604481018390526001600160a01b0390911690635aff0d7690606401600060405180830381600087803b158015611b2357600080fd5b505af1158015611b37573d6000803e3d6000fd5b5050505050506119426001604555565b611b4f612c84565b336000908152604e602052604090205460ff16611ba75760405162461bcd60e51b815260206004820152601660248201527511da5c9b0e881bdb9b1e481154c818d85b8818d85b1b60521b6044820152606401610fe3565b6000828152600c6020908152604080832054600b9092529182902054604854925163b3c9524b60e01b815260048101869052919290916001600160a01b039091169063b3c9524b90602401600060405180830381600087803b158015611c0c57600080fd5b505af1158015611c20573d6000803e3d6000fd5b50505050611acf8484612d26565b611c36612926565b604a55565b60006001600160a01b038216611ca55760405162461bcd60e51b815260206004820152602960248201527f4552433732313a2061646472657373207a65726f206973206e6f7420612076616044820152683634b21037bbb732b960b91b6064820152608401610fe3565b506001600160a01b031660009081526003602052604090205490565b611cc9612926565b611cd36000612d6e565b565b6060600f54821115611d295760405162461bcd60e51b815260206004820152601f60248201527f557067726164653a204d617820636f736d6963206c6576656c206973203130006044820152606401610fe3565b6000838152600b6020526040902054600f548110611d935760405162461bcd60e51b815260206004820152602160248201527f557067726164653a20636f736d6963206c6576656c20616c7265616479206d616044820152600f60fb1b6064820152608401610fe3565b6000848152600d602052604080822054815160038082526080820190935290929181602001602082028036833701905050905060008080611dd5866001613dd1565b90505b878111611e6157602a611dec600183613e28565b600a8110611e0a57634e487b7160e01b600052603260045260246000fd5b0154611e169084613dd1565b92506034611e25600183613e28565b600a8110611e4357634e487b7160e01b600052603260045260246000fd5b0154611e4f9083613dd1565b9150611e5a81613ea6565b9050611dd8565b508183611e6f600187613e28565b81518110611e8d57634e487b7160e01b600052603260045260246000fd5b60200260200101818152505060005b8351811015611f1357838181518110611ec557634e487b7160e01b600052603260045260246000fd5b602002602001015160001415611f035781848281518110611ef657634e487b7160e01b600052603260045260246000fd5b6020026020010181815250505b611f0c81613ea6565b9050611e9c565b5091979650505050505050565b611f28612926565b604680546001600160a01b0319166001600160a01b0392909216919091179055565b601081601a8110611f5a57600080fd5b0154905081565b606060018054610eb490613e6b565b611f78612926565b6000828152600d602090815260409182902083905581518481529081018390527fe9d2aa95a8bcda1481b0316470d5993a8d561039f5db3f8222f8d526e03c0a1b91015b60405180910390a15050565b611942338383612dc0565b611fdb612926565b604780546001600160a01b0319166001600160a01b0392909216919091179055565b61200733836129ee565b6120235760405162461bcd60e51b8152600401610fe390613d80565b61202f84848484612e8f565b60475460405163add058fd60e01b8152600481018490526001600160a01b039091169063add058fd90602401600060405180830381600087803b15801561207557600080fd5b505af1158015612089573d6000803e3d6000fd5b5050505050505050565b61209b612926565b6001600160a01b03919091166000908152605060205260409020805460ff1916911515919091179055565b6000600e5482111561211a5760405162461bcd60e51b815260206004820152601e60248201527f557067726164653a204d61782073636f7265206973206c6576656c20323500006044820152606401610fe3565b6000838152600c6020526040902054600e54811061217a5760405162461bcd60e51b815260206004820152601f60248201527f557067726164653a204769726c20616c7265616479206d6178206c6576656c006044820152606401610fe3565b6000815b8481116121c657601081601a81106121a657634e487b7160e01b600052603260045260246000fd5b01546121b29083613dd1565b9150806121be81613ea6565b91505061217e565b50949350505050565b603481600a8110611f5a57600080fd5b6000818152600260205260409020546060906001600160a01b031661225e5760405162461bcd60e51b815260206004820152602f60248201527f4552433732314d657461646174613a2055524920717565727920666f72206e6f60448201526e3732bc34b9ba32b73a103a37b5b2b760891b6064820152608401610fe3565b6000612268612ec8565b905060008151116122885760405180602001604052806000815250611566565b8061229284612ed7565b6040516020016122a3929190613c26565b6040516020818303038152906040529392505050565b6122c1612c84565b604b5442101561230c5760405162461bcd60e51b815260206004820152601660248201527511da5c9b0e881b5a5b9d081b9bdd081cdd185c9d195960521b6044820152606401610fe3565b33600061231860085490565b90506000612327826001613dd1565b905060006001851015801561233d575060058511155b6123895760405162461bcd60e51b815260206004820152601860248201527f4769726c3a20616d6f756e74203120746f2035206f6e6c7900000000000000006044820152606401610fe3565b604a546123968685613dd1565b11156123d55760405162461bcd60e51b815260206004820152600e60248201526d11da5c9b0e881cdbdb19081bdd5d60921b6044820152606401610fe3565b861561272457603e546040516331a9108f60e11b8152600481018890526001600160a01b03868116921690636352211e9060240160206040518083038186803b15801561242157600080fd5b505afa158015612435573d6000803e3d6000fd5b505050506040513d601f19601f820116820180604052508101906124599190613945565b6001600160a01b0316146124a55760405162461bcd60e51b815260206004820152601360248201527223b4b9361d103737ba1037b9311037bbb732b960691b6044820152606401610fe3565b6124ae86612886565b8511156124fd5760405162461bcd60e51b815260206004820152601f60248201527f4769726c3a20616d6f756e74206d757374206265203c3d2063686172676573006044820152606401610fe3565b846125066111ff565b6125109190613e09565b34101561255a5760405162461bcd60e51b81526020600482015260186024820152774769726c3a2073656e6420636f727265637420707269636560401b6044820152606401610fe3565b60005b8581101561271e5761256e87612f7a565b9150816006146126b157603e546040516323b872dd60e01b81526001600160a01b038781166004830152306024830152604482018a9052909116906323b872dd90606401600060405180830381600087803b1580156125cc57600080fd5b505af11580156125e0573d6000803e3d6000fd5b5050603e546040516331a9108f60e11b8152600481018b90523093506001600160a01b039091169150636352211e9060240160206040518083038186803b15801561262a57600080fd5b505afa15801561263e573d6000803e3d6000fd5b505050506040513d601f19601f820116820180604052508101906126629190613945565b6001600160a01b0316146126b15760405162461bcd60e51b815260206004820152601660248201527511da5c9b0e881bdc98881b9bdd081c9958da595d995960521b6044820152606401610fe3565b6126c4856126bf8386613dd1565b612c6a565b818815156126d28386613dd1565b6040516001600160a01b03891681527f1f1fc7f871c5573b0f1fde9f6e1f67d93527049f30fde62e53af0333b35839229060200160405180910390a461271781613ea6565b905061255d565b506127f2565b846040546127329190613e09565b34101561277c5760405162461bcd60e51b81526020600482015260186024820152774769726c3a2073656e6420636f727265637420707269636560401b6044820152606401610fe3565b60005b858110156127f057612795856126bf8386613dd1565b60068815156127a48386613dd1565b6040516001600160a01b03891681527f1f1fc7f871c5573b0f1fde9f6e1f67d93527049f30fde62e53af0333b35839229060200160405180910390a46127e981613ea6565b905061277f565b505b505050506111c06001604555565b612808612926565b6001600160a01b03811661286d5760405162461bcd60e51b815260206004820152602660248201527f4f776e61626c653a206e6577206f776e657220697320746865207a65726f206160448201526564647265737360d01b6064820152608401610fe3565b61131f81612d6e565b602a81600a8110611f5a57600080fd5b600081815260446020526040812054604254610e9f9190613e28565b60006001600160e01b0319821663780e9d6360e01b1480610e9f5750610e9f82613085565b6000818152600260205260409020546001600160a01b031661131f5760405162461bcd60e51b8152602060048201526018602482015277115490cdcc8c4e881a5b9d985b1a59081d1bdad95b88125160421b6044820152606401610fe3565b600a546001600160a01b03163314611cd35760405162461bcd60e51b815260206004820181905260248201527f4f776e61626c653a2063616c6c6572206973206e6f7420746865206f776e65726044820152606401610fe3565b600081815260046020526040902080546001600160a01b0319166001600160a01b03841690811790915581906129b582611946565b6001600160a01b03167f8c5be1e5ebec7d5bd14f71427d1e84f3dd0314c0f7b2291e5b200ac8c7c3b92560405160405180910390a45050565b6000806129fa83611946565b9050806001600160a01b0316846001600160a01b03161480612a4157506001600160a01b0380821660009081526005602090815260408083209388168352929052205460ff165b806111ea5750836001600160a01b0316612a5a84610f37565b6001600160a01b031614949350505050565b826001600160a01b0316612a7f82611946565b6001600160a01b031614612aa55760405162461bcd60e51b8152600401610fe390613d3b565b6001600160a01b038216612b075760405162461bcd60e51b8152602060048201526024808201527f4552433732313a207472616e7366657220746f20746865207a65726f206164646044820152637265737360e01b6064820152608401610fe3565b612b1483838360016130d5565b826001600160a01b0316612b2782611946565b6001600160a01b031614612b4d5760405162461bcd60e51b8152600401610fe390613d3b565b600081815260046020908152604080832080546001600160a01b03199081169091556001600160a01b0387811680865260038552838620805460001901905590871680865283862080546001019055868652600290945282852080549092168417909155905184937fddf252ad1be2c89b69c2b068fc378daa952ba7f163c4a11628f55a4df523b3ef91a4505050565b6001600160a01b038116612c485760405162461bcd60e51b815260206004820152602c60248201527f526f79616c746965733a206e657720726563697069656e74206973207468652060448201526b7a65726f206164647265737360a01b6064820152608401610fe3565b604d80546001600160a01b0319166001600160a01b0392909216919091179055565b611942828260405180602001604052806000815250613215565b60026045541415612cd75760405162461bcd60e51b815260206004820152601f60248201527f5265656e7472616e637947756172643a207265656e7472616e742063616c6c006044820152606401610fe3565b6002604555565b6000828152600c602090815260409182902083905581518481529081018390527f866cfb7bcf22266717dccfb6e13d4a8aaf393c0bc2c147cf9df1b747e00370029101611fbc565b6000828152600b602090815260409182902083905581518481529081018390527f56bd88bf537c8134d681abc094b975697025d38f1a7e20c408f3b5e6b4df40b79101611fbc565b600a80546001600160a01b038381166001600160a01b0319831681179093556040519116919082907f8be0079c531659141344cd1fd0a4f28419497f9722a3daafe3b4186f6b6457e090600090a35050565b816001600160a01b0316836001600160a01b03161415612e225760405162461bcd60e51b815260206004820152601960248201527f4552433732313a20617070726f766520746f2063616c6c6572000000000000006044820152606401610fe3565b6001600160a01b03838116600081815260056020908152604080832094871680845294825291829020805460ff191686151590811790915591519182527f17307eab39ab6107e8899845ad3d59bd9653f200f220920489ca2b5937696c31910160405180910390a3505050565b612e9a848484612a6c565b612ea684848484613248565b612ec25760405162461bcd60e51b8152600401610fe390613ce9565b50505050565b606060498054610eb490613e6b565b60606000612ee483613352565b600101905060008167ffffffffffffffff811115612f1257634e487b7160e01b600052604160045260246000fd5b6040519080825280601f01601f191660200182016040528015612f3c576020820181803683370190505b5090508181016020015b600019016f181899199a1a9b1b9c1cb0b131b232b360811b600a86061a8153600a8504945084612f75576117aa565b612f46565b600081815260446020526040812054600511612fcf5760405162461bcd60e51b81526020600482015260146024820152734769726c3a206f7574206f66206368617267657360601b6044820152606401610fe3565b60008281526044602052604081208054909190612feb90613ea6565b9091555060008281526044602052604090205460069060051415610e9f57603f54604051634875869760e01b8152600481018590526001600160a01b039091169063487586979060240160206040518083038186803b15801561304d57600080fd5b505afa158015613061573d6000803e3d6000fd5b505050506040513d601f19601f820116820180604052508101906115669190613b74565b60006001600160e01b031982166380ac58cd60e01b14806130b657506001600160e01b03198216635b5e139f60e01b145b80610e9f57506301ffc9a760e01b6001600160e01b0319831614610e9f565b6130e18484848461342a565b60018111156131505760405162461bcd60e51b815260206004820152603560248201527f455243373231456e756d657261626c653a20636f6e7365637574697665207472604482015274185b9cd9995c9cc81b9bdd081cdd5c1c1bdc9d1959605a1b6064820152608401610fe3565b816001600160a01b0385166131ac576131a781600880546000838152600960205260408120829055600182018355919091527ff3f7a9fe364faab93b216da50a3214154f22a0a2b415b23a84c8169e8b636ee30155565b6131cf565b836001600160a01b0316856001600160a01b0316146131cf576131cf85826134b2565b6001600160a01b0384166131eb576131e68161354f565b61320e565b846001600160a01b0316846001600160a01b03161461320e5761320e8482613628565b5050505050565b61321f838361366c565b61322c6000848484613248565b6111c05760405162461bcd60e51b8152600401610fe390613ce9565b60006001600160a01b0384163b1561334a57604051630a85bd0160e11b81526001600160a01b0385169063150b7a029061328c903390899088908890600401613c55565b602060405180830381600087803b1580156132a657600080fd5b505af19250505080156132d6575060408051601f3d908101601f191682019092526132d391810190613afa565b60015b613330573d808015613304576040519150601f19603f3d011682016040523d82523d6000602084013e613309565b606091505b5080516133285760405162461bcd60e51b8152600401610fe390613ce9565b805181602001fd5b6001600160e01b031916630a85bd0160e11b1490506111ea565b5060016111ea565b60008072184f03e93ff9f4daa797ed6e38ed64bf6a1f0160401b83106133915772184f03e93ff9f4daa797ed6e38ed64bf6a1f0160401b830492506040015b6d04ee2d6d415b85acef810000000083106133bd576d04ee2d6d415b85acef8100000000830492506020015b662386f26fc1000083106133db57662386f26fc10000830492506010015b6305f5e10083106133f3576305f5e100830492506008015b612710831061340757612710830492506004015b60648310613419576064830492506002015b600a8310610e9f5760010192915050565b6001811115612ec2576001600160a01b03841615613470576001600160a01b0384166000908152600360205260408120805483929061346a908490613e28565b90915550505b6001600160a01b03831615612ec2576001600160a01b038316600090815260036020526040812080548392906134a7908490613dd1565b909155505050505050565b600060016134bf84611c3b565b6134c99190613e28565b60008381526007602052604090205490915080821461351c576001600160a01b03841660009081526006602090815260408083208584528252808320548484528184208190558352600790915290208190555b5060009182526007602090815260408084208490556001600160a01b039094168352600681528383209183525290812055565b60085460009061356190600190613e28565b6000838152600960205260408120546008805493945090928490811061359757634e487b7160e01b600052603260045260246000fd5b9060005260206000200154905080600883815481106135c657634e487b7160e01b600052603260045260246000fd5b600091825260208083209091019290925582815260099091526040808220849055858252812055600880548061360c57634e487b7160e01b600052603160045260246000fd5b6001900381819060005260206000200160009055905550505050565b600061363383611c3b565b6001600160a01b039093166000908152600660209081526040808320868452825280832085905593825260079052919091209190915550565b6001600160a01b0382166136c25760405162461bcd60e51b815260206004820181905260248201527f4552433732313a206d696e7420746f20746865207a65726f20616464726573736044820152606401610fe3565b6000818152600260205260409020546001600160a01b0316156137275760405162461bcd60e51b815260206004820152601c60248201527f4552433732313a20746f6b656e20616c7265616479206d696e746564000000006044820152606401610fe3565b6137356000838360016130d5565b6000818152600260205260409020546001600160a01b03161561379a5760405162461bcd60e51b815260206004820152601c60248201527f4552433732313a20746f6b656e20616c7265616479206d696e746564000000006044820152606401610fe3565b6001600160a01b038216600081815260036020908152604080832080546001019055848352600290915280822080546001600160a01b0319168417905551839291907fddf252ad1be2c89b69c2b068fc378daa952ba7f163c4a11628f55a4df523b3ef908290a45050565b82805461381190613e6b565b90600052602060002090601f0160209004810192826138335760008555613879565b82601f1061384c57805160ff1916838001178555613879565b82800160010185558215613879579182015b8281111561387957825182559160200191906001019061385e565b50613885929150613889565b5090565b5b80821115613885576000815560010161388a565b600067ffffffffffffffff808411156138b9576138b9613ed7565b604051601f8501601f19908116603f011681019082821181831017156138e1576138e1613ed7565b816040528093508581528686860111156138fa57600080fd5b858560208301376000602087830101525050509392505050565b8035801515811461392457600080fd5b919050565b60006020828403121561393a578081fd5b813561156681613eed565b600060208284031215613956578081fd5b815161156681613eed565b60008060408385031215613973578081fd5b823561397e81613eed565b9150602083013561398e81613eed565b809150509250929050565b6000806000606084860312156139ad578081fd5b83356139b881613eed565b925060208401356139c881613eed565b929592945050506040919091013590565b600080600080608085870312156139ee578081fd5b84356139f981613eed565b93506020850135613a0981613eed565b925060408501359150606085013567ffffffffffffffff811115613a2b578182fd5b8501601f81018713613a3b578182fd5b613a4a8782356020840161389e565b91505092959194509250565b60008060408385031215613a68578182fd5b8235613a7381613eed565b915061130560208401613914565b60008060408385031215613a93578182fd5b8235613a9e81613eed565b946020939093013593505050565b600080600060608486031215613ac0578283fd5b613ac984613914565b95602085013595506040909401359392505050565b600060208284031215613aef578081fd5b813561156681613f02565b600060208284031215613b0b578081fd5b815161156681613f02565b600060208284031215613b27578081fd5b813567ffffffffffffffff811115613b3d578182fd5b8201601f81018413613b4d578182fd5b6111ea8482356020840161389e565b600060208284031215613b6d578081fd5b5035919050565b600060208284031215613b85578081fd5b5051919050565b60008060408385031215613b9e578182fd5b8235915061130560208401613914565b60008060408385031215613bc0578182fd5b50508035926020909101359150565b600080600060608486031215613be3578081fd5b505081359360208301359350604090920135919050565b60008151808452613c12816020860160208601613e3f565b601f01601f19169290920160200192915050565b60008351613c38818460208801613e3f565b835190830190613c4c818360208801613e3f565b01949350505050565b6001600160a01b0385811682528416602082015260408101839052608060608201819052600090613c8890830184613bfa565b9695505050505050565b6020808252825182820181905260009190848201906040850190845b81811015613cca57835183529284019291840191600101613cae565b50909695505050505050565b6020815260006115666020830184613bfa565b60208082526032908201527f4552433732313a207472616e7366657220746f206e6f6e20455243373231526560408201527131b2b4bb32b91034b6b83632b6b2b73a32b960711b606082015260800190565b60208082526025908201527f4552433732313a207472616e736665722066726f6d20696e636f72726563742060408201526437bbb732b960d91b606082015260800190565b60208082526031908201527f4552433732313a207472616e736665722063616c6c6572206973206e6f74206f6040820152701ddb995c881b9bdc88185c1c1c9bdd9959607a1b606082015260800190565b60008219821115613de457613de4613ec1565b500190565b600082613e0457634e487b7160e01b81526012600452602481fd5b500490565b6000816000190483118215151615613e2357613e23613ec1565b500290565b600082821015613e3a57613e3a613ec1565b500390565b60005b83811015613e5a578181015183820152602001613e42565b83811115612ec25750506000910152565b600181811c90821680613e7f57607f821691505b60208210811415613ea057634e487b7160e01b600052602260045260246000fd5b50919050565b6000600019821415613eba57613eba613ec1565b5060010190565b634e487b7160e01b600052601160045260246000fd5b634e487b7160e01b600052604160045260246000fd5b6001600160a01b038116811461131f57600080fd5b6001600160e01b03198116811461131f57600080fdfea264697066735822122016cbaa61052907f666532fb874e287edbf26c3e84e0960a7787c4c949ebe194264736f6c63430008040033",
  "linkReferences": {},
  "deployedLinkReferences": {}
}