{
  "_format": "hh-sol-artifact-1",
  "contractName": "Girl",
  "sourceName": "contracts/Girl/Girl.sol",
  "abi": [
    {
      "inputs": [
        {
          "internalType": "string",
          "name": "_initBaseURI",
          "type": "string"
        },
        {
          "internalType": "address",
          "name": "_orb",
          "type": "address"
        },
        {
          "internalType": "address",
          "name": "_orbRarity",
          "type": "address"
        },
        {
          "internalType": "address",
          "name": "_emissions",
          "type": "address"
        },
        {
          "internalType": "address payable",
          "name": "_dev",
          "type": "address"
        }
      ],
      "stateMutability": "nonpayable",
      "type": "constructor"
    },
    {
      "anonymous": false,
      "inputs": [
        {
          "indexed": true,
          "internalType": "address",
          "name": "owner",
          "type": "address"
        },
        {
          "indexed": true,
          "internalType": "address",
          "name": "approved",
          "type": "address"
        },
        {
          "indexed": true,
          "internalType": "uint256",
          "name": "tokenId",
          "type": "uint256"
        }
      ],
      "name": "Approval",
      "type": "event"
    },
    {
      "anonymous": false,
      "inputs": [
        {
          "indexed": true,
          "internalType": "address",
          "name": "owner",
          "type": "address"
        },
        {
          "indexed": true,
          "internalType": "address",
          "name": "operator",
          "type": "address"
        },
        {
          "indexed": false,
          "internalType": "bool",
          "name": "approved",
          "type": "bool"
        }
      ],
      "name": "ApprovalForAll",
      "type": "event"
    },
    {
      "anonymous": false,
      "inputs": [
        {
          "indexed": false,
          "internalType": "uint256",
          "name": "id",
          "type": "uint256"
        },
        {
          "indexed": false,
          "internalType": "uint256",
          "name": "newLevel",
          "type": "uint256"
        }
      ],
      "name": "CosmicLevelChanged",
      "type": "event"
    },
    {
      "anonymous": false,
      "inputs": [
        {
          "indexed": false,
          "internalType": "uint256",
          "name": "id",
          "type": "uint256"
        },
        {
          "indexed": false,
          "internalType": "uint256",
          "name": "element",
          "type": "uint256"
        }
      ],
      "name": "ElementChanged",
      "type": "event"
    },
    {
      "anonymous": false,
      "inputs": [
        {
          "indexed": false,
          "internalType": "uint256",
          "name": "id",
          "type": "uint256"
        },
        {
          "indexed": false,
          "internalType": "uint256",
          "name": "newScore",
          "type": "uint256"
        }
      ],
      "name": "GamerScoreChanged",
      "type": "event"
    },
    {
      "anonymous": false,
      "inputs": [
        {
          "indexed": false,
          "internalType": "address",
          "name": "minter",
          "type": "address"
        },
        {
          "indexed": false,
          "internalType": "uint256",
          "name": "id",
          "type": "uint256"
        },
        {
          "indexed": false,
          "internalType": "uint256",
          "name": "cl",
          "type": "uint256"
        },
        {
          "indexed": false,
          "internalType": "uint256",
          "name": "el",
          "type": "uint256"
        }
      ],
      "name": "Minted",
      "type": "event"
    },
    {
      "anonymous": false,
      "inputs": [
        {
          "indexed": true,
          "internalType": "address",
          "name": "previousOwner",
          "type": "address"
        },
        {
          "indexed": true,
          "internalType": "address",
          "name": "newOwner",
          "type": "address"
        }
      ],
      "name": "OwnershipTransferred",
      "type": "event"
    },
    {
      "anonymous": false,
      "inputs": [
        {
          "indexed": true,
          "internalType": "address",
          "name": "from",
          "type": "address"
        },
        {
          "indexed": true,
          "internalType": "address",
          "name": "to",
          "type": "address"
        },
        {
          "indexed": true,
          "internalType": "uint256",
          "name": "tokenId",
          "type": "uint256"
        }
      ],
      "name": "Transfer",
      "type": "event"
    },
    {
      "inputs": [],
      "name": "INTERFACE_ID_ERC2981",
      "outputs": [
        {
          "internalType": "bytes4",
          "name": "",
          "type": "bytes4"
        }
      ],
      "stateMutability": "view",
      "type": "function"
    },
    {
      "inputs": [
        {
          "internalType": "address",
          "name": "to",
          "type": "address"
        },
        {
          "internalType": "uint256",
          "name": "tokenId",
          "type": "uint256"
        }
      ],
      "name": "approve",
      "outputs": [],
      "stateMutability": "nonpayable",
      "type": "function"
    },
    {
      "inputs": [],
      "name": "attunement",
      "outputs": [
        {
          "internalType": "contract IAttunement",
          "name": "",
          "type": "address"
        }
      ],
      "stateMutability": "view",
      "type": "function"
    },
    {
      "inputs": [
        {
          "internalType": "address",
          "name": "owner",
          "type": "address"
        }
      ],
      "name": "balanceOf",
      "outputs": [
        {
          "internalType": "uint256",
          "name": "",
          "type": "uint256"
        }
      ],
      "stateMutability": "view",
      "type": "function"
    },
    {
      "inputs": [
        {
          "internalType": "uint256",
          "name": "id",
          "type": "uint256"
        },
        {
          "internalType": "uint256",
          "name": "toTier",
          "type": "uint256"
        }
      ],
      "name": "calcCosmicLevelUpgradeCost",
      "outputs": [
        {
          "internalType": "uint256[]",
          "name": "",
          "type": "uint256[]"
        }
      ],
      "stateMutability": "view",
      "type": "function"
    },
    {
      "inputs": [
        {
          "internalType": "uint256",
          "name": "id",
          "type": "uint256"
        },
        {
          "internalType": "uint256",
          "name": "toTier",
          "type": "uint256"
        }
      ],
      "name": "calcGamerScoreUpgradeCost",
      "outputs": [
        {
          "internalType": "uint256",
          "name": "",
          "type": "uint256"
        }
      ],
      "stateMutability": "view",
      "type": "function"
    },
    {
      "inputs": [],
      "name": "charges",
      "outputs": [
        {
          "internalType": "uint256",
          "name": "",
          "type": "uint256"
        }
      ],
      "stateMutability": "view",
      "type": "function"
    },
    {
      "inputs": [
        {
          "internalType": "uint256",
          "name": "",
          "type": "uint256"
        }
      ],
      "name": "chargesUsed",
      "outputs": [
        {
          "internalType": "uint256",
          "name": "",
          "type": "uint256"
        }
      ],
      "stateMutability": "view",
      "type": "function"
    },
    {
      "inputs": [
        {
          "internalType": "uint256",
          "name": "girlId",
          "type": "uint256"
        }
      ],
      "name": "checkStake",
      "outputs": [
        {
          "internalType": "address",
          "name": "",
          "type": "address"
        },
        {
          "internalType": "bool",
          "name": "",
          "type": "bool"
        },
        {
          "internalType": "uint256",
          "name": "",
          "type": "uint256"
        }
      ],
      "stateMutability": "view",
      "type": "function"
    },
    {
      "inputs": [
        {
          "internalType": "uint256",
          "name": "",
          "type": "uint256"
        }
      ],
      "name": "cosmicLevel",
      "outputs": [
        {
          "internalType": "uint256",
          "name": "",
          "type": "uint256"
        }
      ],
      "stateMutability": "view",
      "type": "function"
    },
    {
      "inputs": [
        {
          "internalType": "uint256",
          "name": "",
          "type": "uint256"
        }
      ],
      "name": "element",
      "outputs": [
        {
          "internalType": "uint256",
          "name": "",
          "type": "uint256"
        }
      ],
      "stateMutability": "view",
      "type": "function"
    },
    {
      "inputs": [],
      "name": "emissions",
      "outputs": [
        {
          "internalType": "contract IEmissions",
          "name": "",
          "type": "address"
        }
      ],
      "stateMutability": "view",
      "type": "function"
    },
    {
      "inputs": [
        {
          "internalType": "uint256",
          "name": "",
          "type": "uint256"
        }
      ],
      "name": "gamerScore",
      "outputs": [
        {
          "internalType": "uint256",
          "name": "",
          "type": "uint256"
        }
      ],
      "stateMutability": "view",
      "type": "function"
    },
    {
      "inputs": [
        {
          "internalType": "uint256",
          "name": "tokenId",
          "type": "uint256"
        }
      ],
      "name": "getApproved",
      "outputs": [
        {
          "internalType": "address",
          "name": "",
          "type": "address"
        }
      ],
      "stateMutability": "view",
      "type": "function"
    },
    {
      "inputs": [
        {
          "internalType": "uint256",
          "name": "id",
          "type": "uint256"
        }
      ],
      "name": "getChargesRemaining",
      "outputs": [
        {
          "internalType": "uint256",
          "name": "",
          "type": "uint256"
        }
      ],
      "stateMutability": "view",
      "type": "function"
    },
    {
      "inputs": [
        {
          "internalType": "uint256",
          "name": "_id",
          "type": "uint256"
        }
      ],
      "name": "getCosmicLevel",
      "outputs": [
        {
          "internalType": "uint256",
          "name": "",
          "type": "uint256"
        }
      ],
      "stateMutability": "view",
      "type": "function"
    },
    {
      "inputs": [
        {
          "internalType": "uint256",
          "name": "id",
          "type": "uint256"
        },
        {
          "internalType": "uint256",
          "name": "toTier",
          "type": "uint256"
        }
      ],
      "name": "getCosmicLevelUpgradeCost",
      "outputs": [
        {
          "internalType": "uint256[]",
          "name": "",
          "type": "uint256[]"
        }
      ],
      "stateMutability": "view",
      "type": "function"
    },
    {
      "inputs": [],
      "name": "getDiscountPrice",
      "outputs": [
        {
          "internalType": "uint256",
          "name": "",
          "type": "uint256"
        }
      ],
      "stateMutability": "view",
      "type": "function"
    },
    {
      "inputs": [
        {
          "internalType": "uint256",
          "name": "_id",
          "type": "uint256"
        }
      ],
      "name": "getElement",
      "outputs": [
        {
          "internalType": "uint256",
          "name": "",
          "type": "uint256"
        }
      ],
      "stateMutability": "view",
      "type": "function"
    },
    {
      "inputs": [
        {
          "internalType": "uint256",
          "name": "_id",
          "type": "uint256"
        }
      ],
      "name": "getGamerScore",
      "outputs": [
        {
          "internalType": "uint256",
          "name": "",
          "type": "uint256"
        }
      ],
      "stateMutability": "view",
      "type": "function"
    },
    {
      "inputs": [
        {
          "internalType": "uint256",
          "name": "id",
          "type": "uint256"
        },
        {
          "internalType": "uint256",
          "name": "toTier",
          "type": "uint256"
        }
      ],
      "name": "getGamerScoreUpgradeCost",
      "outputs": [
        {
          "internalType": "uint256",
          "name": "cost",
          "type": "uint256"
        }
      ],
      "stateMutability": "view",
      "type": "function"
    },
    {
      "inputs": [
        {
          "internalType": "uint256",
          "name": "",
          "type": "uint256"
        }
      ],
      "name": "gsUpgradeCosts",
      "outputs": [
        {
          "internalType": "uint256",
          "name": "",
          "type": "uint256"
        }
      ],
      "stateMutability": "view",
      "type": "function"
    },
    {
      "inputs": [
        {
          "internalType": "uint256",
          "name": "id",
          "type": "uint256"
        },
        {
          "internalType": "uint256",
          "name": "toTier",
          "type": "uint256"
        }
      ],
      "name": "handleUpgradeCosmicLevel",
      "outputs": [],
      "stateMutability": "nonpayable",
      "type": "function"
    },
    {
      "inputs": [
        {
          "internalType": "uint256",
          "name": "id",
          "type": "uint256"
        },
        {
          "internalType": "uint256",
          "name": "toTier",
          "type": "uint256"
        }
      ],
      "name": "handleUpgradeGamerScore",
      "outputs": [],
      "stateMutability": "nonpayable",
      "type": "function"
    },
    {
      "inputs": [
        {
          "internalType": "address",
          "name": "owner",
          "type": "address"
        },
        {
          "internalType": "address",
          "name": "operator",
          "type": "address"
        }
      ],
      "name": "isApprovedForAll",
      "outputs": [
        {
          "internalType": "bool",
          "name": "",
          "type": "bool"
        }
      ],
      "stateMutability": "view",
      "type": "function"
    },
    {
      "inputs": [
        {
          "internalType": "address",
          "name": "",
          "type": "address"
        }
      ],
      "name": "isElementalStone",
      "outputs": [
        {
          "internalType": "bool",
          "name": "",
          "type": "bool"
        }
      ],
      "stateMutability": "view",
      "type": "function"
    },
    {
      "inputs": [
        {
          "internalType": "uint256",
          "name": "girlId",
          "type": "uint256"
        }
      ],
      "name": "isPaired",
      "outputs": [
        {
          "internalType": "bool",
          "name": "",
          "type": "bool"
        }
      ],
      "stateMutability": "view",
      "type": "function"
    },
    {
      "inputs": [
        {
          "internalType": "uint256",
          "name": "",
          "type": "uint256"
        }
      ],
      "name": "matchedElementCosts",
      "outputs": [
        {
          "internalType": "uint256",
          "name": "",
          "type": "uint256"
        }
      ],
      "stateMutability": "view",
      "type": "function"
    },
    {
      "inputs": [
        {
          "internalType": "bool",
          "name": "usingOrb",
          "type": "bool"
        },
        {
          "internalType": "uint256",
          "name": "orbId",
          "type": "uint256"
        }
      ],
      "name": "mint",
      "outputs": [],
      "stateMutability": "payable",
      "type": "function"
    },
    {
      "inputs": [
        {
          "internalType": "address",
          "name": "_to",
          "type": "address"
        }
      ],
      "name": "mintDev",
      "outputs": [],
      "stateMutability": "nonpayable",
      "type": "function"
    },
    {
      "inputs": [],
      "name": "moonstone",
      "outputs": [
        {
          "internalType": "contract IERC20",
          "name": "",
          "type": "address"
        }
      ],
      "stateMutability": "view",
      "type": "function"
    },
    {
      "inputs": [],
      "name": "name",
      "outputs": [
        {
          "internalType": "string",
          "name": "",
          "type": "string"
        }
      ],
      "stateMutability": "view",
      "type": "function"
    },
    {
      "inputs": [
        {
          "internalType": "address",
          "name": "",
          "type": "address"
        },
        {
          "internalType": "address",
          "name": "",
          "type": "address"
        },
        {
          "internalType": "uint256",
          "name": "",
          "type": "uint256"
        },
        {
          "internalType": "bytes",
          "name": "",
          "type": "bytes"
        }
      ],
      "name": "onERC721Received",
      "outputs": [
        {
          "internalType": "bytes4",
          "name": "",
          "type": "bytes4"
        }
      ],
      "stateMutability": "nonpayable",
      "type": "function"
    },
    {
      "inputs": [],
      "name": "orb",
      "outputs": [
        {
          "internalType": "contract IERC721",
          "name": "",
          "type": "address"
        }
      ],
      "stateMutability": "view",
      "type": "function"
    },
    {
      "inputs": [],
      "name": "orbRarity",
      "outputs": [
        {
          "internalType": "contract IOrbRarity",
          "name": "",
          "type": "address"
        }
      ],
      "stateMutability": "view",
      "type": "function"
    },
    {
      "inputs": [],
      "name": "owner",
      "outputs": [
        {
          "internalType": "address",
          "name": "",
          "type": "address"
        }
      ],
      "stateMutability": "view",
      "type": "function"
    },
    {
      "inputs": [
        {
          "internalType": "uint256",
          "name": "tokenId",
          "type": "uint256"
        }
      ],
      "name": "ownerOf",
      "outputs": [
        {
          "internalType": "address",
          "name": "",
          "type": "address"
        }
      ],
      "stateMutability": "view",
      "type": "function"
    },
    {
      "inputs": [
        {
          "internalType": "uint256",
          "name": "",
          "type": "uint256"
        }
      ],
      "name": "paired",
      "outputs": [
        {
          "internalType": "bool",
          "name": "",
          "type": "bool"
        }
      ],
      "stateMutability": "view",
      "type": "function"
    },
    {
      "inputs": [],
      "name": "renounceOwnership",
      "outputs": [],
      "stateMutability": "nonpayable",
      "type": "function"
    },
    {
      "inputs": [
        {
          "internalType": "uint256",
          "name": "_tokenId",
          "type": "uint256"
        },
        {
          "internalType": "uint256",
          "name": "_salePrice",
          "type": "uint256"
        }
      ],
      "name": "royaltyInfo",
      "outputs": [
        {
          "internalType": "address",
          "name": "receiver",
          "type": "address"
        },
        {
          "internalType": "uint256",
          "name": "royaltyAmount",
          "type": "uint256"
        }
      ],
      "stateMutability": "view",
      "type": "function"
    },
    {
      "inputs": [
        {
          "internalType": "address",
          "name": "from",
          "type": "address"
        },
        {
          "internalType": "address",
          "name": "to",
          "type": "address"
        },
        {
          "internalType": "uint256",
          "name": "tokenId",
          "type": "uint256"
        }
      ],
      "name": "safeTransferFrom",
      "outputs": [],
      "stateMutability": "nonpayable",
      "type": "function"
    },
    {
      "inputs": [
        {
          "internalType": "address",
          "name": "from",
          "type": "address"
        },
        {
          "internalType": "address",
          "name": "to",
          "type": "address"
        },
        {
          "internalType": "uint256",
          "name": "tokenId",
          "type": "uint256"
        },
        {
          "internalType": "bytes",
          "name": "_data",
          "type": "bytes"
        }
      ],
      "name": "safeTransferFrom",
      "outputs": [],
      "stateMutability": "nonpayable",
      "type": "function"
    },
    {
      "inputs": [
        {
          "internalType": "address",
          "name": "operator",
          "type": "address"
        },
        {
          "internalType": "bool",
          "name": "approved",
          "type": "bool"
        }
      ],
      "name": "setApprovalForAll",
      "outputs": [],
      "stateMutability": "nonpayable",
      "type": "function"
    },
    {
      "inputs": [
        {
          "internalType": "address",
          "name": "_a",
          "type": "address"
        }
      ],
      "name": "setAttunementContract",
      "outputs": [],
      "stateMutability": "nonpayable",
      "type": "function"
    },
    {
      "inputs": [
        {
          "internalType": "string",
          "name": "_newBaseURI",
          "type": "string"
        }
      ],
      "name": "setBaseURI",
      "outputs": [],
      "stateMutability": "nonpayable",
      "type": "function"
    },
    {
      "inputs": [
        {
          "internalType": "uint256",
          "name": "_newCost",
          "type": "uint256"
        }
      ],
      "name": "setCost",
      "outputs": [],
      "stateMutability": "nonpayable",
      "type": "function"
    },
    {
      "inputs": [
        {
          "internalType": "uint256",
          "name": "_id",
          "type": "uint256"
        },
        {
          "internalType": "uint256",
          "name": "_newElement",
          "type": "uint256"
        }
      ],
      "name": "setElement",
      "outputs": [],
      "stateMutability": "nonpayable",
      "type": "function"
    },
    {
      "inputs": [
        {
          "internalType": "address",
          "name": "_es",
          "type": "address"
        }
      ],
      "name": "setElementalStoneContract",
      "outputs": [],
      "stateMutability": "nonpayable",
      "type": "function"
    },
    {
      "inputs": [
        {
          "internalType": "address",
          "name": "_e",
          "type": "address"
        }
      ],
      "name": "setEmissions",
      "outputs": [],
      "stateMutability": "nonpayable",
      "type": "function"
    },
    {
      "inputs": [
        {
          "internalType": "address",
          "name": "_moonstone",
          "type": "address"
        }
      ],
      "name": "setMoonstoneContract",
      "outputs": [],
      "stateMutability": "nonpayable",
      "type": "function"
    },
    {
      "inputs": [
        {
          "internalType": "uint256",
          "name": "_id",
          "type": "uint256"
        },
        {
          "internalType": "bool",
          "name": "_paired",
          "type": "bool"
        }
      ],
      "name": "setPaired",
      "outputs": [],
      "stateMutability": "nonpayable",
      "type": "function"
    },
    {
      "inputs": [
        {
          "internalType": "address",
          "name": "newRecipient",
          "type": "address"
        }
      ],
      "name": "setRoyalties",
      "outputs": [],
      "stateMutability": "nonpayable",
      "type": "function"
    },
    {
      "inputs": [
        {
          "internalType": "bool",
          "name": "_isWhitelistPeriod",
          "type": "bool"
        }
      ],
      "name": "setWhitelistPeriod",
      "outputs": [],
      "stateMutability": "nonpayable",
      "type": "function"
    },
    {
      "inputs": [
        {
          "internalType": "bytes4",
          "name": "interfaceId",
          "type": "bytes4"
        }
      ],
      "name": "supportsInterface",
      "outputs": [
        {
          "internalType": "bool",
          "name": "",
          "type": "bool"
        }
      ],
      "stateMutability": "view",
      "type": "function"
    },
    {
      "inputs": [],
      "name": "symbol",
      "outputs": [
        {
          "internalType": "string",
          "name": "",
          "type": "string"
        }
      ],
      "stateMutability": "view",
      "type": "function"
    },
    {
      "inputs": [
        {
          "internalType": "uint256",
          "name": "index",
          "type": "uint256"
        }
      ],
      "name": "tokenByIndex",
      "outputs": [
        {
          "internalType": "uint256",
          "name": "",
          "type": "uint256"
        }
      ],
      "stateMutability": "view",
      "type": "function"
    },
    {
      "inputs": [
        {
          "internalType": "address",
          "name": "owner",
          "type": "address"
        },
        {
          "internalType": "uint256",
          "name": "index",
          "type": "uint256"
        }
      ],
      "name": "tokenOfOwnerByIndex",
      "outputs": [
        {
          "internalType": "uint256",
          "name": "",
          "type": "uint256"
        }
      ],
      "stateMutability": "view",
      "type": "function"
    },
    {
      "inputs": [
        {
          "internalType": "uint256",
          "name": "tokenId",
          "type": "uint256"
        }
      ],
      "name": "tokenURI",
      "outputs": [
        {
          "internalType": "string",
          "name": "",
          "type": "string"
        }
      ],
      "stateMutability": "view",
      "type": "function"
    },
    {
      "inputs": [],
      "name": "totalSupply",
      "outputs": [
        {
          "internalType": "uint256",
          "name": "",
          "type": "uint256"
        }
      ],
      "stateMutability": "view",
      "type": "function"
    },
    {
      "inputs": [
        {
          "internalType": "address",
          "name": "from",
          "type": "address"
        },
        {
          "internalType": "address",
          "name": "to",
          "type": "address"
        },
        {
          "internalType": "uint256",
          "name": "tokenId",
          "type": "uint256"
        }
      ],
      "name": "transferFrom",
      "outputs": [],
      "stateMutability": "nonpayable",
      "type": "function"
    },
    {
      "inputs": [
        {
          "internalType": "address",
          "name": "newOwner",
          "type": "address"
        }
      ],
      "name": "transferOwnership",
      "outputs": [],
      "stateMutability": "nonpayable",
      "type": "function"
    },
    {
      "inputs": [
        {
          "internalType": "uint256",
          "name": "",
          "type": "uint256"
        }
      ],
      "name": "unmatchedElementCosts",
      "outputs": [
        {
          "internalType": "uint256",
          "name": "",
          "type": "uint256"
        }
      ],
      "stateMutability": "view",
      "type": "function"
    },
    {
      "inputs": [
        {
          "internalType": "address",
          "name": "_owner",
          "type": "address"
        }
      ],
      "name": "walletOfOwner",
      "outputs": [
        {
          "internalType": "uint256[]",
          "name": "",
          "type": "uint256[]"
        }
      ],
      "stateMutability": "view",
      "type": "function"
    },
    {
      "inputs": [],
      "name": "whitelistPeriod",
      "outputs": [
        {
          "internalType": "bool",
          "name": "",
          "type": "bool"
        }
      ],
      "stateMutability": "view",
      "type": "function"
    },
    {
      "inputs": [
        {
          "internalType": "address payable",
          "name": "_rest",
          "type": "address"
        }
      ],
      "name": "withdraw",
      "outputs": [],
      "stateMutability": "nonpayable",
      "type": "function"
    }
  ],
  "bytecode": "0x6005600b8181556003600c90815560c8600d556019601355600a6014556103c060405260006080908152600460a081905260c081905260e0526101008490526101208490526101408490526101608490526101809390935260066101a08190526101c05260076101e0526008610200819052610220819052610240819052610260526102808290526102a08290526102c0919091526102e081905261030052600f6103205260106103408190526103605260116103808190526103a052620000cc90601590601a6200059a565b50604080516101408101825260008152600260208201526003918101829052606081019190915260046080820152600660a0820152600860c0820152600b60e0820152600e61010082015260126101208201526200012f90602f90600a620005e2565b506040805161014081018252600080825260208201819052918101919091526001606082015260026080820152600360a0820152600460c0820152600560e0820152600761010082015260096101208201526200019190603990600a620005e2565b50605a604655600560475560036048556049805460ff19166001179055611388604f55348015620001c157600080fd5b506040516200423e3803806200423e833981016040819052620001e491620006c8565b610683806106826078602a601a600960036040518060400160405280600f81526020016e151bdade5bc815195cdd0811da5c9b608a1b8152506040518060400160405280600381526020016254544760e81b81525081600090805190602001906200025192919062000617565b5080516200026790600190602084019062000617565b505050620002846200027e6200033260201b60201c565b62000336565b6200029188888862000388565b620002a0858585858562000407565b5050505050505050620002b985620004cd60201b60201c565b604380546001600160a01b038087166001600160a01b0319928316179092556044805492861692909116919091179055620002f482620004f0565b62000307674563918244f400006200051c565b605080546001600160a01b0319166001600160a01b0392909216919091179055506200083e92505050565b3390565b600a80546001600160a01b038381166001600160a01b0319831681179093556040519116919082907f8be0079c531659141344cd1fd0a4f28419497f9722a3daafe3b4186f6b6457e090600090a35050565b6200039262000539565b60116020527f17bc176d2408558f6e4111feebc3cab4e16b63e967be91cde721f4c8a488b552929092557f08037d7b151cc412d25674a4e66b334d9ae9d2e5517a7feaae5cdb828bf1c6285560036000527f9bfbaa59f8e10e7868f8b402de9d605a390c45ddaebd8c9de3c6f31e733c87ff55565b6200041162000539565b60126020527f71a67924699a20698523213e55fe499d539379d7769cd5567e2c45d583f815a3949094557f8e1fee8c88a9e04123b21e90cae2727a7715bf522a1e46eb5934ccd05203a6b2929092557f0f36ad39aee03e7108cc48f54934702a5f0d4066f10344cebf8198978d86976a557fb4fcd034df3d20faa1c133b66d862ce92732727d40916b48ffb4020cb00fe0535560056000527f45429b9195d4ec5c0cf6c69e9c21a4ca0ea773b702c2de5735f85d2631f2674655565b620004d762000539565b8051620004ec90604e90602084019062000617565b5050565b620004fa62000539565b604d80546001600160a01b0319166001600160a01b0392909216919091179055565b6200052662000539565b600081116200053457600080fd5b604555565b600a546001600160a01b03163314620005985760405162461bcd60e51b815260206004820181905260248201527f4f776e61626c653a2063616c6c6572206973206e6f7420746865206f776e6572604482015260640160405180910390fd5b565b82601a8101928215620005d0579160200282015b82811115620005d0578251829060ff16905591602001919060010190620005ae565b50620005de92915062000694565b5090565b82600a8101928215620005d05791602002820182811115620005d0578251829060ff16905591602001919060010190620005ae565b8280546200062590620007eb565b90600052602060002090601f016020900481019282620006495760008555620005d0565b82601f106200066457805160ff1916838001178555620005d0565b82800160010185558215620005d0579182015b82811115620005d057825182559160200191906001019062000677565b5b80821115620005de576000815560010162000695565b80516001600160a01b0381168114620006c357600080fd5b919050565b600080600080600060a08688031215620006e0578081fd5b85516001600160401b0380821115620006f7578283fd5b818801915088601f8301126200070b578283fd5b81518181111562000720576200072062000828565b604051601f8201601f19908116603f011681019083821181831017156200074b576200074b62000828565b81604052828152602093508b8484870101111562000767578586fd5b8591505b828210156200078a57848201840151818301850152908301906200076b565b828211156200079b57858484830101525b9850620007ad915050888201620006ab565b95505050620007bf60408701620006ab565b9250620007cf60608701620006ab565b9150620007df60808701620006ab565b90509295509295909350565b600181811c908216806200080057607f821691505b602082108114156200082257634e487b7160e01b600052602260045260246000fd5b50919050565b634e487b7160e01b600052604160045260246000fd5b6139f0806200084e6000396000f3fe6080604052600436106103ce5760003560e01c8063690d1ca2116101fd578063a388237d11610118578063dfefc776116100ab578063f2fde38b1161007a578063f2fde38b14610c4f578063f909a9cf14610c6f578063fd79e7ac14610c9c578063ff23d7d314610cbc578063ff91078314610cdc57600080fd5b8063dfefc77614610bb0578063e00cda2614610bc3578063e985e9c514610bd9578063f090e00414610c2257600080fd5b8063c3ca39f8116100e7578063c3ca39f814610b23578063c4e2676714610b43578063c87b56dd14610b63578063d066100614610b8357600080fd5b8063a388237d14610aae578063b060dd8614610ace578063b48e665e14610ae9578063b88d4fde14610b0357600080fd5b8063814e1bb81161019057806395d89b411161015f57806395d89b4114610a2c578063a16e721514610a41578063a22b36ef14610a61578063a22cb46514610a8e57600080fd5b8063814e1bb8146109a9578063854e3214146109c95780638da5cb5b146109de5780638efab2d5146109fc57600080fd5b8063715018a6116101cc578063715018a614610934578063733495711461094957806373ae2d78146109695780637a6832a51461098957600080fd5b8063690d1ca2146108b457806369250220146108d45780636aa5dd71146108f457806370a082311461091457600080fd5b80633a7d22bc116102ed57806349af0b9411610280578063562d412f1161024f578063562d412f1461082757806358d70d74146108545780635c5ac79a146108745780636352211e1461089457600080fd5b806349af0b941461079a5780634f6ccce7146107c757806351cff8d9146107e757806355f804b31461080757600080fd5b806340a3c338116102bc57806340a3c338146106f557806342842e0e1461073a578063438b63001461075a57806344a0d68a1461077a57600080fd5b80633a7d22bc1461065b5780633c010930146106885780633f1ed709146106a85780633f74c596146106c857600080fd5b8063150b7a02116103655780632a55205a116103345780632a55205a146105bc5780632a9e63c6146105fb5780632c8296f31461061b5780632f745c591461063b57600080fd5b8063150b7a021461052457806318160ddd1461055d5780632267716c1461057c57806323b872dd1461059c57600080fd5b8063095ea7b3116103a1578063095ea7b3146104845780630b689417146104a45780630f3b899b146104d457806312cbd705146104f457600080fd5b806301ffc9a7146103d357806306fdde0314610408578063081812fc1461042a57806308834ee714610462575b600080fd5b3480156103df57600080fd5b506103f36103ee3660046135bb565b610cfc565b60405190151581526020015b60405180910390f35b34801561041457600080fd5b5061041d610d27565b6040516103ff9190613788565b34801561043657600080fd5b5061044a610445366004613639565b610db9565b6040516001600160a01b0390911681526020016103ff565b34801561046e57600080fd5b5061048261047d366004613403565b610de0565b005b34801561049057600080fd5b5061048261049f36600461355b565b610e0a565b3480156104b057600080fd5b506103f36104bf366004613639565b60009081526053602052604090205460ff1690565b3480156104e057600080fd5b50604c5461044a906001600160a01b031681565b34801561050057600080fd5b506103f361050f366004613403565b60526020526000908152604090205460ff1681565b34801561053057600080fd5b5061054461053f3660046134b3565b610f25565b6040516001600160e01b031990911681526020016103ff565b34801561056957600080fd5b506008545b6040519081526020016103ff565b34801561058857600080fd5b50604d5461044a906001600160a01b031681565b3480156105a857600080fd5b506104826105b7366004613473565b610f36565b3480156105c857600080fd5b506105dc6105d736600461368b565b610fca565b604080516001600160a01b0390931683526020830191909152016103ff565b34801561060757600080fd5b50610482610616366004613403565b610fec565b34801561062757600080fd5b50610482610636366004613403565b611000565b34801561064757600080fd5b5061056e61065636600461355b565b6110f5565b34801561066757600080fd5b5061056e610676366004613639565b60009081526010602052604090205490565b34801561069457600080fd5b5061056e6106a336600461368b565b61118b565b3480156106b457600080fd5b506104826106c3366004613669565b611215565b3480156106d457600080fd5b506106e86106e336600461368b565b6112a9565b6040516103ff9190613744565b34801561070157600080fd5b50610715610710366004613639565b61133b565b604080516001600160a01b0390941684529115156020840152908201526060016103ff565b34801561074657600080fd5b50610482610755366004613473565b611374565b34801561076657600080fd5b506106e8610775366004613403565b61138f565b34801561078657600080fd5b50610482610795366004613639565b61144d565b3480156107a657600080fd5b5061056e6107b5366004613639565b604a6020526000908152604090205481565b3480156107d357600080fd5b5061056e6107e2366004613639565b611467565b3480156107f357600080fd5b50610482610802366004613403565b611508565b34801561081357600080fd5b506104826108223660046135f3565b611588565b34801561083357600080fd5b5061056e610842366004613639565b600f6020526000908152604090205481565b34801561086057600080fd5b50604b5461044a906001600160a01b031681565b34801561088057600080fd5b5060445461044a906001600160a01b031681565b3480156108a057600080fd5b5061044a6108af366004613639565b6115a7565b3480156108c057600080fd5b506104826108cf366004613403565b611607565b3480156108e057600080fd5b506104826108ef36600461368b565b611633565b34801561090057600080fd5b5061048261090f36600461368b565b61179b565b34801561092057600080fd5b5061056e61092f366004613403565b61187a565b34801561094057600080fd5b50610482611900565b34801561095557600080fd5b50610482610964366004613586565b611914565b34801561097557600080fd5b506106e861098436600461368b565b61192f565b34801561099557600080fd5b506104826109a4366004613403565b611b7a565b3480156109b557600080fd5b5061056e6109c4366004613639565b611ba4565b3480156109d557600080fd5b5061056e611bbb565b3480156109ea57600080fd5b50600a546001600160a01b031661044a565b348015610a0857600080fd5b506103f3610a17366004613639565b60536020526000908152604090205460ff1681565b348015610a3857600080fd5b5061041d611bde565b348015610a4d57600080fd5b50610482610a5c36600461368b565b611bed565b348015610a6d57600080fd5b5061056e610a7c366004613639565b6000908152600f602052604090205490565b348015610a9a57600080fd5b50610482610aa9366004613530565b611c45565b348015610aba57600080fd5b50610482610ac9366004613403565b611c50565b348015610ada57600080fd5b5061054463152a902d60e11b81565b348015610af557600080fd5b506049546103f39060ff1681565b348015610b0f57600080fd5b50610482610b1e3660046134b3565b611c7a565b348015610b2f57600080fd5b5061056e610b3e36600461368b565b611cdd565b348015610b4f57600080fd5b5061056e610b5e366004613639565b611de6565b348015610b6f57600080fd5b5061041d610b7e366004613639565b611df6565b348015610b8f57600080fd5b5061056e610b9e366004613639565b6000908152600e602052604090205490565b610482610bbe3660046135a0565b611ed0565b348015610bcf57600080fd5b5061056e60475481565b348015610be557600080fd5b506103f3610bf436600461343b565b6001600160a01b03918216600090815260056020908152604080832093909416825291909152205460ff1690565b348015610c2e57600080fd5b5061056e610c3d366004613639565b60106020526000908152604090205481565b348015610c5b57600080fd5b50610482610c6a366004613403565b6122e8565b348015610c7b57600080fd5b5061056e610c8a366004613639565b600e6020526000908152604090205481565b348015610ca857600080fd5b5061056e610cb7366004613639565b61235e565b348015610cc857600080fd5b5061056e610cd7366004613639565b61236e565b348015610ce857600080fd5b5060435461044a906001600160a01b031681565b60006001600160e01b0319821663152a902d60e11b1480610d215750610d218261238a565b92915050565b606060008054610d36906138e3565b80601f0160208091040260200160405190810160405280929190818152602001828054610d62906138e3565b8015610daf5780601f10610d8457610100808354040283529160200191610daf565b820191906000526020600020905b815481529060010190602001808311610d9257829003601f168201915b5050505050905090565b6000610dc4826123af565b506000908152600460205260409020546001600160a01b031690565b610de861240e565b604d80546001600160a01b0319166001600160a01b0392909216919091179055565b6000610e15826115a7565b9050806001600160a01b0316836001600160a01b03161415610e885760405162461bcd60e51b815260206004820152602160248201527f4552433732313a20617070726f76616c20746f2063757272656e74206f776e656044820152603960f91b60648201526084015b60405180910390fd5b336001600160a01b0382161480610ea45750610ea48133610bf4565b610f165760405162461bcd60e51b815260206004820152603e60248201527f4552433732313a20617070726f76652063616c6c6572206973206e6f7420746f60448201527f6b656e206f776e6572206e6f7220617070726f76656420666f7220616c6c00006064820152608401610e7f565b610f208383612468565b505050565b630a85bd0160e11b5b949350505050565b610f4033826124d6565b610f5c5760405162461bcd60e51b8152600401610e7f906137ed565b610f67838383612554565b604c5460405163add058fd60e01b8152600481018390526001600160a01b039091169063add058fd90602401600060405180830381600087803b158015610fad57600080fd5b505af1158015610fc1573d6000803e3d6000fd5b50505050505050565b6051546001600160a01b03166000610fe3601484613856565b90509250929050565b610ff461240e565b610ffd816126fb565b50565b61100861240e565b600061101360085490565b9050600061102282600161383e565b905061102e8382612788565b60008061103a836127a2565b604d54604051632b017cb760e01b8152600481018790529294509092506001600160a01b031690632b017cb790602401600060405180830381600087803b15801561108457600080fd5b505af1158015611098573d6000803e3d6000fd5b5050604080516001600160a01b038916815260208101879052908101859052606081018490527f5a3358a3d27a5373c0df2604662088d37894d56b7cfd27f315770440f4e0d9199250608001905060405180910390a15050505050565b60006111008361187a565b82106111625760405162461bcd60e51b815260206004820152602b60248201527f455243373231456e756d657261626c653a206f776e657220696e646578206f7560448201526a74206f6620626f756e647360a81b6064820152608401610e7f565b506001600160a01b03919091166000908152600660209081526040808320938352929052205490565b6000828152600f6020526040812054821180156111a9575060198211155b6112045760405162461bcd60e51b815260206004820152602660248201527f557067726164653a2074696572206d757374206265206265747765656e203120604482015265616e6420323560d01b6064820152608401610e7f565b61120e8383611cdd565b9392505050565b3360009081526052602052604090205460ff168061123d5750604c546001600160a01b031633145b6112895760405162461bcd60e51b815260206004820152601d60248201527f4769726c3a206f6e6c79204553206f72204174742063616e2063616c6c0000006044820152606401610e7f565b600091825260536020526040909120805460ff1916911515919091179055565b6000828152600e6020526040902054606090821180156112ca5750600a8211155b6113315760405162461bcd60e51b815260206004820152603260248201527f557067726164653a2074696572206d757374206265206265747765656e20637560448201527107272656e74206c6576656c20616e642031360741b6064820152608401610e7f565b61120e838361192f565b6000806000611349846115a7565b600094855260536020908152604080872054601090925290952054909560ff90951694909350915050565b610f6783838360405180602001604052806000815250611c7a565b6060600061139c8361187a565b905060008167ffffffffffffffff8111156113c757634e487b7160e01b600052604160045260246000fd5b6040519080825280602002602001820160405280156113f0578160200160208202803683370190505b50905060005b828110156114455761140885826110f5565b82828151811061142857634e487b7160e01b600052603260045260246000fd5b60209081029190910101528061143d8161391e565b9150506113f6565b509392505050565b61145561240e565b6000811161146257600080fd5b604555565b600061147260085490565b82106114d55760405162461bcd60e51b815260206004820152602c60248201527f455243373231456e756d657261626c653a20676c6f62616c20696e646578206f60448201526b7574206f6620626f756e647360a01b6064820152608401610e7f565b600882815481106114f657634e487b7160e01b600052603260045260246000fd5b90600052602060002001549050919050565b61151061240e565b60505447906001600160a01b03166108fc61152a836127c9565b6040518115909202916000818181858888f19350505050158015611552573d6000803e3d6000fd5b506040516001600160a01b038316904780156108fc02916000818181858888f19350505050158015610f20573d6000803e3d6000fd5b61159061240e565b80516115a390604e9060208401906132df565b5050565b6000818152600260205260408120546001600160a01b031680610d215760405162461bcd60e51b8152602060048201526018602482015277115490cdcc8c4e881a5b9d985b1a59081d1bdad95b88125160421b6044820152606401610e7f565b61160f61240e565b6001600160a01b03166000908152605260205260409020805460ff19166001179055565b604b546001600160a01b031633146116a15760405162461bcd60e51b815260206004820152602b60248201527f4769726c3a206f6e6c79206d6f6f6e73746f6e652063616e207570677261646560448201526a2067616d657273636f726560a81b6064820152608401610e7f565b6000828152600f6020908152604080832054600e9092529182902054604d54925163b3c9524b60e01b815260048101869052919290916001600160a01b039091169063b3c9524b90602401600060405180830381600087803b15801561170657600080fd5b505af115801561171a573d6000803e3d6000fd5b5050505061172884846127e5565b604d54604051632d7f86bb60e11b81526004810186905260248101849052604481018390526001600160a01b0390911690635aff0d76906064015b600060405180830381600087803b15801561177d57600080fd5b505af1158015611791573d6000803e3d6000fd5b5050505050505050565b3360009081526052602052604090205460ff166117f35760405162461bcd60e51b815260206004820152601660248201527511da5c9b0e881bdb9b1e481154c818d85b8818d85b1b60521b6044820152606401610e7f565b6000828152600f6020908152604080832054600e9092529182902054604d54925163b3c9524b60e01b815260048101869052919290916001600160a01b039091169063b3c9524b90602401600060405180830381600087803b15801561185857600080fd5b505af115801561186c573d6000803e3d6000fd5b50505050611728848461282d565b60006001600160a01b0382166118e45760405162461bcd60e51b815260206004820152602960248201527f4552433732313a2061646472657373207a65726f206973206e6f7420612076616044820152683634b21037bbb732b960b91b6064820152608401610e7f565b506001600160a01b031660009081526003602052604090205490565b61190861240e565b6119126000612875565b565b61191c61240e565b6049805460ff1916911515919091179055565b60606014548211156119835760405162461bcd60e51b815260206004820152601f60248201527f557067726164653a204d617820636f736d6963206c6576656c206973203130006044820152606401610e7f565b6000838152600e602052604090205460145481106119ed5760405162461bcd60e51b815260206004820152602160248201527f557067726164653a20636f736d6963206c6576656c20616c7265616479206d616044820152600f60fb1b6064820152608401610e7f565b60008481526010602052604080822054815160038082526080820190935290929181602001602082028036833701905050905060008080611a2f86600161383e565b90505b878111611abb57602f611a46600183613889565b600a8110611a6457634e487b7160e01b600052603260045260246000fd5b0154611a70908461383e565b92506039611a7f600183613889565b600a8110611a9d57634e487b7160e01b600052603260045260246000fd5b0154611aa9908361383e565b9150611ab48161391e565b9050611a32565b508183611ac9600187613889565b81518110611ae757634e487b7160e01b600052603260045260246000fd5b60200260200101818152505060005b8351811015611b6d57838181518110611b1f57634e487b7160e01b600052603260045260246000fd5b602002602001015160001415611b5d5781848281518110611b5057634e487b7160e01b600052603260045260246000fd5b6020026020010181815250505b611b668161391e565b9050611af6565b5091979650505050505050565b611b8261240e565b604b80546001600160a01b0319166001600160a01b0392909216919091179055565b601581601a8110611bb457600080fd5b0154905081565b60006064604654604554611bcf919061386a565b611bd99190613856565b905090565b606060018054610d36906138e3565b611bf561240e565b60008281526010602090815260409182902083905581518481529081018390527fe9d2aa95a8bcda1481b0316470d5993a8d561039f5db3f8222f8d526e03c0a1b91015b60405180910390a15050565b6115a33383836128c7565b611c5861240e565b604c80546001600160a01b0319166001600160a01b0392909216919091179055565b611c8433836124d6565b611ca05760405162461bcd60e51b8152600401610e7f906137ed565b611cac84848484612996565b604c5460405163add058fd60e01b8152600481018490526001600160a01b039091169063add058fd90602401611763565b6000601354821115611d315760405162461bcd60e51b815260206004820152601e60248201527f557067726164653a204d61782073636f7265206973206c6576656c20323500006044820152606401610e7f565b6000838152600f60205260409020546013548110611d915760405162461bcd60e51b815260206004820152601f60248201527f557067726164653a204769726c20616c7265616479206d6178206c6576656c006044820152606401610e7f565b6000815b848111611ddd57601581601a8110611dbd57634e487b7160e01b600052603260045260246000fd5b0154611dc9908361383e565b915080611dd58161391e565b915050611d95565b50949350505050565b603981600a8110611bb457600080fd5b6000818152600260205260409020546060906001600160a01b0316611e755760405162461bcd60e51b815260206004820152602f60248201527f4552433732314d657461646174613a2055524920717565727920666f72206e6f60448201526e3732bc34b9ba32b73a103a37b5b2b760891b6064820152608401610e7f565b6000611e7f6129cf565b90506000815111611e9f576040518060200160405280600081525061120e565b80611ea9846129de565b604051602001611eba9291906136d8565b6040516020818303038152906040529392505050565b33600080611edd60085490565b9050604f548110611f215760405162461bcd60e51b815260206004820152600e60248201526d11da5c9b0e8814dbdb19081bdd5d60921b6044820152606401610e7f565b8415612194576043546040516331a9108f60e11b8152600481018690526001600160a01b03858116921690636352211e9060240160206040518083038186803b158015611f6d57600080fd5b505afa158015611f81573d6000803e3d6000fd5b505050506040513d601f19601f82011682018060405250810190611fa5919061341f565b6001600160a01b031614611ff15760405162461bcd60e51b815260206004820152601360248201527223b4b9361d103737ba1037b9311037bbb732b960691b6044820152606401610e7f565b611ff9611bbb565b3410156120435760405162461bcd60e51b81526020600482015260186024820152774769726c3a2073656e6420636f727265637420707269636560401b6044820152606401610e7f565b61204c84612af8565b91508160061461218f576043546040516323b872dd60e01b81526001600160a01b03858116600483015230602483015260448201879052909116906323b872dd90606401600060405180830381600087803b1580156120aa57600080fd5b505af11580156120be573d6000803e3d6000fd5b50506043546040516331a9108f60e11b8152600481018890523093506001600160a01b039091169150636352211e9060240160206040518083038186803b15801561210857600080fd5b505afa15801561211c573d6000803e3d6000fd5b505050506040513d601f19601f82011682018060405250810190612140919061341f565b6001600160a01b03161461218f5760405162461bcd60e51b815260206004820152601660248201527511da5c9b0e881bdc98881b9bdd081c9958da595d995960521b6044820152606401610e7f565b6121e6565b6045543410156121e15760405162461bcd60e51b81526020600482015260186024820152774769726c3a2073656e6420636f727265637420707269636560401b6044820152606401610e7f565b600691505b60006121f382600161383e565b90506121ff8482612788565b600080846006141561221e57612214836127a2565b909250905061222e565b84915061222b8383612bc9565b90505b604d54604051632b017cb760e01b8152600481018590526001600160a01b0390911690632b017cb790602401600060405180830381600087803b15801561227457600080fd5b505af1158015612288573d6000803e3d6000fd5b5050604080516001600160a01b038a16815260208101879052908101859052606081018490527f5a3358a3d27a5373c0df2604662088d37894d56b7cfd27f315770440f4e0d9199250608001905060405180910390a15050505050505050565b6122f061240e565b6001600160a01b0381166123555760405162461bcd60e51b815260206004820152602660248201527f4f776e61626c653a206e6577206f776e657220697320746865207a65726f206160448201526564647265737360d01b6064820152608401610e7f565b610ffd81612875565b602f81600a8110611bb457600080fd5b6000818152604a6020526040812054604754610d219190613889565b60006001600160e01b0319821663780e9d6360e01b1480610d215750610d2182612bff565b6000818152600260205260409020546001600160a01b0316610ffd5760405162461bcd60e51b8152602060048201526018602482015277115490cdcc8c4e881a5b9d985b1a59081d1bdad95b88125160421b6044820152606401610e7f565b600a546001600160a01b031633146119125760405162461bcd60e51b815260206004820181905260248201527f4f776e61626c653a2063616c6c6572206973206e6f7420746865206f776e65726044820152606401610e7f565b600081815260046020526040902080546001600160a01b0319166001600160a01b038416908117909155819061249d826115a7565b6001600160a01b03167f8c5be1e5ebec7d5bd14f71427d1e84f3dd0314c0f7b2291e5b200ac8c7c3b92560405160405180910390a45050565b6000806124e2836115a7565b9050806001600160a01b0316846001600160a01b0316148061252957506001600160a01b0380821660009081526005602090815260408083209388168352929052205460ff165b80610f2e5750836001600160a01b031661254284610db9565b6001600160a01b031614949350505050565b826001600160a01b0316612567826115a7565b6001600160a01b0316146125cb5760405162461bcd60e51b815260206004820152602560248201527f4552433732313a207472616e736665722066726f6d20696e636f72726563742060448201526437bbb732b960d91b6064820152608401610e7f565b6001600160a01b03821661262d5760405162461bcd60e51b8152602060048201526024808201527f4552433732313a207472616e7366657220746f20746865207a65726f206164646044820152637265737360e01b6064820152608401610e7f565b612638838383612c4f565b612643600082612468565b6001600160a01b038316600090815260036020526040812080546001929061266c908490613889565b90915550506001600160a01b038216600090815260036020526040812080546001929061269a90849061383e565b909155505060008181526002602052604080822080546001600160a01b0319166001600160a01b0386811691821790925591518493918716917fddf252ad1be2c89b69c2b068fc378daa952ba7f163c4a11628f55a4df523b3ef91a4505050565b6001600160a01b0381166127665760405162461bcd60e51b815260206004820152602c60248201527f526f79616c746965733a206e657720726563697069656e74206973207468652060448201526b7a65726f206164647265737360a01b6064820152608401610e7f565b605180546001600160a01b0319166001600160a01b0392909216919091179055565b6115a3828260405180602001604052806000815250612d07565b60008060006127b084612d3a565b905060006127bd85612df7565b91959194509092505050565b60006064604854836127db919061386a565b610d219190613856565b6000828152600f602090815260409182902083905581518481529081018390527f866cfb7bcf22266717dccfb6e13d4a8aaf393c0bc2c147cf9df1b747e00370029101611c39565b6000828152600e602090815260409182902083905581518481529081018390527f56bd88bf537c8134d681abc094b975697025d38f1a7e20c408f3b5e6b4df40b79101611c39565b600a80546001600160a01b038381166001600160a01b0319831681179093556040519116919082907f8be0079c531659141344cd1fd0a4f28419497f9722a3daafe3b4186f6b6457e090600090a35050565b816001600160a01b0316836001600160a01b031614156129295760405162461bcd60e51b815260206004820152601960248201527f4552433732313a20617070726f766520746f2063616c6c6572000000000000006044820152606401610e7f565b6001600160a01b03838116600081815260056020908152604080832094871680845294825291829020805460ff191686151590811790915591519182527f17307eab39ab6107e8899845ad3d59bd9653f200f220920489ca2b5937696c31910160405180910390a3505050565b6129a1848484612554565b6129ad84848484612e7f565b6129c95760405162461bcd60e51b8152600401610e7f9061379b565b50505050565b6060604e8054610d36906138e3565b606081612a025750506040805180820190915260018152600360fc1b602082015290565b8160005b8115612a2c5780612a168161391e565b9150612a259050600a83613856565b9150612a06565b60008167ffffffffffffffff811115612a5557634e487b7160e01b600052604160045260246000fd5b6040519080825280601f01601f191660200182016040528015612a7f576020820181803683370190505b5090505b8415610f2e57612a94600183613889565b9150612aa1600a86613939565b612aac90603061383e565b60f81b818381518110612acf57634e487b7160e01b600052603260045260246000fd5b60200101906001600160f81b031916908160001a905350612af1600a86613856565b9450612a83565b6000818152604a6020526040812054600511612b1357600080fd5b6000828152604a602052604081208054909190612b2f9061391e565b909155506000828152604a602052604090205460069060051415610d2157604454604051634875869760e01b8152600481018590526001600160a01b039091169063487586979060240160206040518083038186803b158015612b9157600080fd5b505afa158015612ba5573d6000803e3d6000fd5b505050506040513d601f19601f8201168201806040525081019061120e9190613651565b600080612bd8600c5485612f89565b6000858152601060209081526040808320849055600e909152902084905591505092915050565b60006001600160e01b031982166380ac58cd60e01b1480612c3057506001600160e01b03198216635b5e139f60e01b145b80610d2157506301ffc9a760e01b6001600160e01b0319831614610d21565b6001600160a01b038316612caa57612ca581600880546000838152600960205260408120829055600182018355919091527ff3f7a9fe364faab93b216da50a3214154f22a0a2b415b23a84c8169e8b636ee30155565b612ccd565b816001600160a01b0316836001600160a01b031614612ccd57612ccd8382612fd7565b6001600160a01b038216612ce457610f2081613074565b826001600160a01b0316826001600160a01b031614610f2057610f20828261314d565b612d118383613191565b612d1e6000848484612e7f565b610f205760405162461bcd60e51b8152600401610e7f9061379b565b600080612d49600d5484612f89565b905060008082118015612d5d575060788211155b15612d6a57506001612dde565b607882118015612d7b575060a28211155b15612d8857506002612dde565b60a282118015612d99575060bc8211155b15612da657506003612dde565b60bc82118015612db7575060c58211155b15612dc457506004612dde565b60c582118015612dd5575060c88211155b15612dde575060055b6000938452600e60205260409093208390555090919050565b600080612e06600c5484612f89565b90505b60008181526011602052604090205460011115612e495780612e2a8161391e565b9150506003811115612e4457612e41600382613889565b90505b612e09565b600083815260106020908152604080832084905583835260119091528120805491612e73836138cc565b90915550909392505050565b60006001600160a01b0384163b15612f8157604051630a85bd0160e11b81526001600160a01b0385169063150b7a0290612ec3903390899088908890600401613707565b602060405180830381600087803b158015612edd57600080fd5b505af1925050508015612f0d575060408051601f3d908101601f19168201909252612f0a918101906135d7565b60015b612f67573d808015612f3b576040519150601f19603f3d011682016040523d82523d6000602084013e612f40565b606091505b508051612f5f5760405162461bcd60e51b8152600401610e7f9061379b565b805181602001fd5b6001600160e01b031916630a85bd0160e11b149050610f2e565b506001610f2e565b6040805142602082015290810183905260608101829052600090819060800160408051601f1981840301815291905280516020909101209050612fcc8482613939565b610f2e90600161383e565b60006001612fe48461187a565b612fee9190613889565b600083815260076020526040902054909150808214613041576001600160a01b03841660009081526006602090815260408083208584528252808320548484528184208190558352600790915290208190555b5060009182526007602090815260408084208490556001600160a01b039094168352600681528383209183525290812055565b60085460009061308690600190613889565b600083815260096020526040812054600880549394509092849081106130bc57634e487b7160e01b600052603260045260246000fd5b9060005260206000200154905080600883815481106130eb57634e487b7160e01b600052603260045260246000fd5b600091825260208083209091019290925582815260099091526040808220849055858252812055600880548061313157634e487b7160e01b600052603160045260246000fd5b6001900381819060005260206000200160009055905550505050565b60006131588361187a565b6001600160a01b039093166000908152600660209081526040808320868452825280832085905593825260079052919091209190915550565b6001600160a01b0382166131e75760405162461bcd60e51b815260206004820181905260248201527f4552433732313a206d696e7420746f20746865207a65726f20616464726573736044820152606401610e7f565b6000818152600260205260409020546001600160a01b03161561324c5760405162461bcd60e51b815260206004820152601c60248201527f4552433732313a20746f6b656e20616c7265616479206d696e746564000000006044820152606401610e7f565b61325860008383612c4f565b6001600160a01b038216600090815260036020526040812080546001929061328190849061383e565b909155505060008181526002602052604080822080546001600160a01b0319166001600160a01b03861690811790915590518392907fddf252ad1be2c89b69c2b068fc378daa952ba7f163c4a11628f55a4df523b3ef908290a45050565b8280546132eb906138e3565b90600052602060002090601f01602090048101928261330d5760008555613353565b82601f1061332657805160ff1916838001178555613353565b82800160010185558215613353579182015b82811115613353578251825591602001919060010190613338565b5061335f929150613363565b5090565b5b8082111561335f5760008155600101613364565b600067ffffffffffffffff8084111561339357613393613979565b604051601f8501601f19908116603f011681019082821181831017156133bb576133bb613979565b816040528093508581528686860111156133d457600080fd5b858560208301376000602087830101525050509392505050565b803580151581146133fe57600080fd5b919050565b600060208284031215613414578081fd5b813561120e8161398f565b600060208284031215613430578081fd5b815161120e8161398f565b6000806040838503121561344d578081fd5b82356134588161398f565b915060208301356134688161398f565b809150509250929050565b600080600060608486031215613487578081fd5b83356134928161398f565b925060208401356134a28161398f565b929592945050506040919091013590565b600080600080608085870312156134c8578081fd5b84356134d38161398f565b935060208501356134e38161398f565b925060408501359150606085013567ffffffffffffffff811115613505578182fd5b8501601f81018713613515578182fd5b61352487823560208401613378565b91505092959194509250565b60008060408385031215613542578182fd5b823561354d8161398f565b9150610fe3602084016133ee565b6000806040838503121561356d578182fd5b82356135788161398f565b946020939093013593505050565b600060208284031215613597578081fd5b61120e826133ee565b600080604083850312156135b2578182fd5b613578836133ee565b6000602082840312156135cc578081fd5b813561120e816139a4565b6000602082840312156135e8578081fd5b815161120e816139a4565b600060208284031215613604578081fd5b813567ffffffffffffffff81111561361a578182fd5b8201601f8101841361362a578182fd5b610f2e84823560208401613378565b60006020828403121561364a578081fd5b5035919050565b600060208284031215613662578081fd5b5051919050565b6000806040838503121561367b578182fd5b82359150610fe3602084016133ee565b6000806040838503121561369d578182fd5b50508035926020909101359150565b600081518084526136c48160208601602086016138a0565b601f01601f19169290920160200192915050565b600083516136ea8184602088016138a0565b8351908301906136fe8183602088016138a0565b01949350505050565b6001600160a01b038581168252841660208201526040810183905260806060820181905260009061373a908301846136ac565b9695505050505050565b6020808252825182820181905260009190848201906040850190845b8181101561377c57835183529284019291840191600101613760565b50909695505050505050565b60208152600061120e60208301846136ac565b60208082526032908201527f4552433732313a207472616e7366657220746f206e6f6e20455243373231526560408201527131b2b4bb32b91034b6b83632b6b2b73a32b960711b606082015260800190565b60208082526031908201527f4552433732313a207472616e736665722063616c6c6572206973206e6f74206f6040820152701ddb995c881b9bdc88185c1c1c9bdd9959607a1b606082015260800190565b600082198211156138515761385161394d565b500190565b60008261386557613865613963565b500490565b60008160001904831182151516156138845761388461394d565b500290565b60008282101561389b5761389b61394d565b500390565b60005b838110156138bb5781810151838201526020016138a3565b838111156129c95750506000910152565b6000816138db576138db61394d565b506000190190565b600181811c908216806138f757607f821691505b6020821081141561391857634e487b7160e01b600052602260045260246000fd5b50919050565b60006000198214156139325761393261394d565b5060010190565b60008261394857613948613963565b500690565b634e487b7160e01b600052601160045260246000fd5b634e487b7160e01b600052601260045260246000fd5b634e487b7160e01b600052604160045260246000fd5b6001600160a01b0381168114610ffd57600080fd5b6001600160e01b031981168114610ffd57600080fdfea26469706673582212204daf2fb4cacec964f0da93807041d0f8732a0cbf525c8c453bd8dcd94605f06564736f6c63430008040033",
  "linkReferences": {},
  "deployedLinkReferences": {}
}