{
  "_format": "hh-sol-artifact-1",
  "contractName": "Girl",
  "sourceName": "contracts/Girl/Girl.sol",
  "abi": [
    {
      "inputs": [
        {
          "internalType": "string",
          "name": "_initBaseURI",
          "type": "string"
        },
        {
          "internalType": "address",
          "name": "_orb",
          "type": "address"
        },
        {
          "internalType": "address",
          "name": "_orbRarity",
          "type": "address"
        },
        {
          "internalType": "address",
          "name": "_emissions",
          "type": "address"
        },
        {
          "internalType": "address payable",
          "name": "_dev",
          "type": "address"
        }
      ],
      "stateMutability": "nonpayable",
      "type": "constructor"
    },
    {
      "anonymous": false,
      "inputs": [
        {
          "indexed": true,
          "internalType": "address",
          "name": "owner",
          "type": "address"
        },
        {
          "indexed": true,
          "internalType": "address",
          "name": "approved",
          "type": "address"
        },
        {
          "indexed": true,
          "internalType": "uint256",
          "name": "tokenId",
          "type": "uint256"
        }
      ],
      "name": "Approval",
      "type": "event"
    },
    {
      "anonymous": false,
      "inputs": [
        {
          "indexed": true,
          "internalType": "address",
          "name": "owner",
          "type": "address"
        },
        {
          "indexed": true,
          "internalType": "address",
          "name": "operator",
          "type": "address"
        },
        {
          "indexed": false,
          "internalType": "bool",
          "name": "approved",
          "type": "bool"
        }
      ],
      "name": "ApprovalForAll",
      "type": "event"
    },
    {
      "anonymous": false,
      "inputs": [
        {
          "indexed": false,
          "internalType": "uint256",
          "name": "id",
          "type": "uint256"
        },
        {
          "indexed": false,
          "internalType": "uint256",
          "name": "newLevel",
          "type": "uint256"
        }
      ],
      "name": "CosmicLevelChanged",
      "type": "event"
    },
    {
      "anonymous": false,
      "inputs": [
        {
          "indexed": false,
          "internalType": "uint256",
          "name": "id",
          "type": "uint256"
        },
        {
          "indexed": false,
          "internalType": "uint256",
          "name": "element",
          "type": "uint256"
        }
      ],
      "name": "ElementChanged",
      "type": "event"
    },
    {
      "anonymous": false,
      "inputs": [
        {
          "indexed": false,
          "internalType": "uint256",
          "name": "id",
          "type": "uint256"
        },
        {
          "indexed": false,
          "internalType": "uint256",
          "name": "newScore",
          "type": "uint256"
        }
      ],
      "name": "GamerScoreChanged",
      "type": "event"
    },
    {
      "anonymous": false,
      "inputs": [
        {
          "indexed": false,
          "internalType": "address",
          "name": "minter",
          "type": "address"
        },
        {
          "indexed": false,
          "internalType": "uint256",
          "name": "id",
          "type": "uint256"
        },
        {
          "indexed": false,
          "internalType": "uint256",
          "name": "cl",
          "type": "uint256"
        },
        {
          "indexed": false,
          "internalType": "uint256",
          "name": "el",
          "type": "uint256"
        }
      ],
      "name": "Minted",
      "type": "event"
    },
    {
      "anonymous": false,
      "inputs": [
        {
          "indexed": true,
          "internalType": "address",
          "name": "previousOwner",
          "type": "address"
        },
        {
          "indexed": true,
          "internalType": "address",
          "name": "newOwner",
          "type": "address"
        }
      ],
      "name": "OwnershipTransferred",
      "type": "event"
    },
    {
      "anonymous": false,
      "inputs": [
        {
          "indexed": true,
          "internalType": "address",
          "name": "from",
          "type": "address"
        },
        {
          "indexed": true,
          "internalType": "address",
          "name": "to",
          "type": "address"
        },
        {
          "indexed": true,
          "internalType": "uint256",
          "name": "tokenId",
          "type": "uint256"
        }
      ],
      "name": "Transfer",
      "type": "event"
    },
    {
      "inputs": [],
      "name": "INTERFACE_ID_ERC2981",
      "outputs": [
        {
          "internalType": "bytes4",
          "name": "",
          "type": "bytes4"
        }
      ],
      "stateMutability": "view",
      "type": "function"
    },
    {
      "inputs": [
        {
          "internalType": "address",
          "name": "to",
          "type": "address"
        },
        {
          "internalType": "uint256",
          "name": "tokenId",
          "type": "uint256"
        }
      ],
      "name": "approve",
      "outputs": [],
      "stateMutability": "nonpayable",
      "type": "function"
    },
    {
      "inputs": [],
      "name": "attunement",
      "outputs": [
        {
          "internalType": "contract IAttunement",
          "name": "",
          "type": "address"
        }
      ],
      "stateMutability": "view",
      "type": "function"
    },
    {
      "inputs": [
        {
          "internalType": "address",
          "name": "owner",
          "type": "address"
        }
      ],
      "name": "balanceOf",
      "outputs": [
        {
          "internalType": "uint256",
          "name": "",
          "type": "uint256"
        }
      ],
      "stateMutability": "view",
      "type": "function"
    },
    {
      "inputs": [
        {
          "internalType": "uint256",
          "name": "id",
          "type": "uint256"
        },
        {
          "internalType": "uint256",
          "name": "toTier",
          "type": "uint256"
        }
      ],
      "name": "calcCosmicLevelUpgradeCost",
      "outputs": [
        {
          "internalType": "uint256[]",
          "name": "",
          "type": "uint256[]"
        }
      ],
      "stateMutability": "view",
      "type": "function"
    },
    {
      "inputs": [
        {
          "internalType": "uint256",
          "name": "id",
          "type": "uint256"
        },
        {
          "internalType": "uint256",
          "name": "toTier",
          "type": "uint256"
        }
      ],
      "name": "calcGamerScoreUpgradeCost",
      "outputs": [
        {
          "internalType": "uint256",
          "name": "",
          "type": "uint256"
        }
      ],
      "stateMutability": "view",
      "type": "function"
    },
    {
      "inputs": [],
      "name": "charges",
      "outputs": [
        {
          "internalType": "uint256",
          "name": "",
          "type": "uint256"
        }
      ],
      "stateMutability": "view",
      "type": "function"
    },
    {
      "inputs": [
        {
          "internalType": "uint256",
          "name": "",
          "type": "uint256"
        }
      ],
      "name": "chargesUsed",
      "outputs": [
        {
          "internalType": "uint256",
          "name": "",
          "type": "uint256"
        }
      ],
      "stateMutability": "view",
      "type": "function"
    },
    {
      "inputs": [
        {
          "internalType": "uint256",
          "name": "girlId",
          "type": "uint256"
        }
      ],
      "name": "checkStake",
      "outputs": [
        {
          "internalType": "address",
          "name": "",
          "type": "address"
        },
        {
          "internalType": "bool",
          "name": "",
          "type": "bool"
        },
        {
          "internalType": "uint256",
          "name": "",
          "type": "uint256"
        }
      ],
      "stateMutability": "view",
      "type": "function"
    },
    {
      "inputs": [
        {
          "internalType": "uint256",
          "name": "",
          "type": "uint256"
        }
      ],
      "name": "cosmicLevel",
      "outputs": [
        {
          "internalType": "uint256",
          "name": "",
          "type": "uint256"
        }
      ],
      "stateMutability": "view",
      "type": "function"
    },
    {
      "inputs": [
        {
          "internalType": "uint256",
          "name": "",
          "type": "uint256"
        }
      ],
      "name": "element",
      "outputs": [
        {
          "internalType": "uint256",
          "name": "",
          "type": "uint256"
        }
      ],
      "stateMutability": "view",
      "type": "function"
    },
    {
      "inputs": [],
      "name": "emissions",
      "outputs": [
        {
          "internalType": "contract IEmissions",
          "name": "",
          "type": "address"
        }
      ],
      "stateMutability": "view",
      "type": "function"
    },
    {
      "inputs": [
        {
          "internalType": "uint256",
          "name": "",
          "type": "uint256"
        }
      ],
      "name": "gamerScore",
      "outputs": [
        {
          "internalType": "uint256",
          "name": "",
          "type": "uint256"
        }
      ],
      "stateMutability": "view",
      "type": "function"
    },
    {
      "inputs": [
        {
          "internalType": "uint256",
          "name": "tokenId",
          "type": "uint256"
        }
      ],
      "name": "getApproved",
      "outputs": [
        {
          "internalType": "address",
          "name": "",
          "type": "address"
        }
      ],
      "stateMutability": "view",
      "type": "function"
    },
    {
      "inputs": [
        {
          "internalType": "uint256",
          "name": "id",
          "type": "uint256"
        }
      ],
      "name": "getChargesRemaining",
      "outputs": [
        {
          "internalType": "uint256",
          "name": "",
          "type": "uint256"
        }
      ],
      "stateMutability": "view",
      "type": "function"
    },
    {
      "inputs": [
        {
          "internalType": "uint256",
          "name": "_id",
          "type": "uint256"
        }
      ],
      "name": "getCosmicLevel",
      "outputs": [
        {
          "internalType": "uint256",
          "name": "",
          "type": "uint256"
        }
      ],
      "stateMutability": "view",
      "type": "function"
    },
    {
      "inputs": [
        {
          "internalType": "uint256",
          "name": "id",
          "type": "uint256"
        },
        {
          "internalType": "uint256",
          "name": "toTier",
          "type": "uint256"
        }
      ],
      "name": "getCosmicLevelUpgradeCost",
      "outputs": [
        {
          "internalType": "uint256[]",
          "name": "",
          "type": "uint256[]"
        }
      ],
      "stateMutability": "view",
      "type": "function"
    },
    {
      "inputs": [],
      "name": "getDiscountPrice",
      "outputs": [
        {
          "internalType": "uint256",
          "name": "",
          "type": "uint256"
        }
      ],
      "stateMutability": "view",
      "type": "function"
    },
    {
      "inputs": [
        {
          "internalType": "uint256",
          "name": "_id",
          "type": "uint256"
        }
      ],
      "name": "getElement",
      "outputs": [
        {
          "internalType": "uint256",
          "name": "",
          "type": "uint256"
        }
      ],
      "stateMutability": "view",
      "type": "function"
    },
    {
      "inputs": [
        {
          "internalType": "uint256",
          "name": "_id",
          "type": "uint256"
        }
      ],
      "name": "getGamerScore",
      "outputs": [
        {
          "internalType": "uint256",
          "name": "",
          "type": "uint256"
        }
      ],
      "stateMutability": "view",
      "type": "function"
    },
    {
      "inputs": [
        {
          "internalType": "uint256",
          "name": "id",
          "type": "uint256"
        },
        {
          "internalType": "uint256",
          "name": "toTier",
          "type": "uint256"
        }
      ],
      "name": "getGamerScoreUpgradeCost",
      "outputs": [
        {
          "internalType": "uint256",
          "name": "cost",
          "type": "uint256"
        }
      ],
      "stateMutability": "view",
      "type": "function"
    },
    {
      "inputs": [
        {
          "internalType": "uint256",
          "name": "",
          "type": "uint256"
        }
      ],
      "name": "gsUpgradeCosts",
      "outputs": [
        {
          "internalType": "uint256",
          "name": "",
          "type": "uint256"
        }
      ],
      "stateMutability": "view",
      "type": "function"
    },
    {
      "inputs": [
        {
          "internalType": "uint256",
          "name": "id",
          "type": "uint256"
        },
        {
          "internalType": "uint256",
          "name": "toTier",
          "type": "uint256"
        }
      ],
      "name": "handleUpgradeCosmicLevel",
      "outputs": [],
      "stateMutability": "nonpayable",
      "type": "function"
    },
    {
      "inputs": [
        {
          "internalType": "uint256",
          "name": "id",
          "type": "uint256"
        },
        {
          "internalType": "uint256",
          "name": "toTier",
          "type": "uint256"
        }
      ],
      "name": "handleUpgradeGamerScore",
      "outputs": [],
      "stateMutability": "nonpayable",
      "type": "function"
    },
    {
      "inputs": [
        {
          "internalType": "address",
          "name": "owner",
          "type": "address"
        },
        {
          "internalType": "address",
          "name": "operator",
          "type": "address"
        }
      ],
      "name": "isApprovedForAll",
      "outputs": [
        {
          "internalType": "bool",
          "name": "",
          "type": "bool"
        }
      ],
      "stateMutability": "view",
      "type": "function"
    },
    {
      "inputs": [
        {
          "internalType": "address",
          "name": "",
          "type": "address"
        }
      ],
      "name": "isElementalStone",
      "outputs": [
        {
          "internalType": "bool",
          "name": "",
          "type": "bool"
        }
      ],
      "stateMutability": "view",
      "type": "function"
    },
    {
      "inputs": [
        {
          "internalType": "uint256",
          "name": "girlId",
          "type": "uint256"
        }
      ],
      "name": "isPaired",
      "outputs": [
        {
          "internalType": "bool",
          "name": "",
          "type": "bool"
        }
      ],
      "stateMutability": "view",
      "type": "function"
    },
    {
      "inputs": [
        {
          "internalType": "uint256",
          "name": "",
          "type": "uint256"
        }
      ],
      "name": "matchedElementCosts",
      "outputs": [
        {
          "internalType": "uint256",
          "name": "",
          "type": "uint256"
        }
      ],
      "stateMutability": "view",
      "type": "function"
    },
    {
      "inputs": [
        {
          "internalType": "bool",
          "name": "usingOrb",
          "type": "bool"
        },
        {
          "internalType": "uint256",
          "name": "orbId",
          "type": "uint256"
        }
      ],
      "name": "mint",
      "outputs": [],
      "stateMutability": "payable",
      "type": "function"
    },
    {
      "inputs": [
        {
          "internalType": "address",
          "name": "_to",
          "type": "address"
        }
      ],
      "name": "mintDev",
      "outputs": [],
      "stateMutability": "nonpayable",
      "type": "function"
    },
    {
      "inputs": [],
      "name": "moonstone",
      "outputs": [
        {
          "internalType": "contract IERC20",
          "name": "",
          "type": "address"
        }
      ],
      "stateMutability": "view",
      "type": "function"
    },
    {
      "inputs": [],
      "name": "name",
      "outputs": [
        {
          "internalType": "string",
          "name": "",
          "type": "string"
        }
      ],
      "stateMutability": "view",
      "type": "function"
    },
    {
      "inputs": [
        {
          "internalType": "address",
          "name": "",
          "type": "address"
        },
        {
          "internalType": "address",
          "name": "",
          "type": "address"
        },
        {
          "internalType": "uint256",
          "name": "",
          "type": "uint256"
        },
        {
          "internalType": "bytes",
          "name": "",
          "type": "bytes"
        }
      ],
      "name": "onERC721Received",
      "outputs": [
        {
          "internalType": "bytes4",
          "name": "",
          "type": "bytes4"
        }
      ],
      "stateMutability": "nonpayable",
      "type": "function"
    },
    {
      "inputs": [],
      "name": "orb",
      "outputs": [
        {
          "internalType": "contract IERC721",
          "name": "",
          "type": "address"
        }
      ],
      "stateMutability": "view",
      "type": "function"
    },
    {
      "inputs": [],
      "name": "orbRarity",
      "outputs": [
        {
          "internalType": "contract IOrbRarity",
          "name": "",
          "type": "address"
        }
      ],
      "stateMutability": "view",
      "type": "function"
    },
    {
      "inputs": [],
      "name": "owner",
      "outputs": [
        {
          "internalType": "address",
          "name": "",
          "type": "address"
        }
      ],
      "stateMutability": "view",
      "type": "function"
    },
    {
      "inputs": [
        {
          "internalType": "uint256",
          "name": "tokenId",
          "type": "uint256"
        }
      ],
      "name": "ownerOf",
      "outputs": [
        {
          "internalType": "address",
          "name": "",
          "type": "address"
        }
      ],
      "stateMutability": "view",
      "type": "function"
    },
    {
      "inputs": [
        {
          "internalType": "uint256",
          "name": "",
          "type": "uint256"
        }
      ],
      "name": "paired",
      "outputs": [
        {
          "internalType": "bool",
          "name": "",
          "type": "bool"
        }
      ],
      "stateMutability": "view",
      "type": "function"
    },
    {
      "inputs": [],
      "name": "renounceOwnership",
      "outputs": [],
      "stateMutability": "nonpayable",
      "type": "function"
    },
    {
      "inputs": [
        {
          "internalType": "uint256",
          "name": "_tokenId",
          "type": "uint256"
        },
        {
          "internalType": "uint256",
          "name": "_salePrice",
          "type": "uint256"
        }
      ],
      "name": "royaltyInfo",
      "outputs": [
        {
          "internalType": "address",
          "name": "receiver",
          "type": "address"
        },
        {
          "internalType": "uint256",
          "name": "royaltyAmount",
          "type": "uint256"
        }
      ],
      "stateMutability": "view",
      "type": "function"
    },
    {
      "inputs": [
        {
          "internalType": "address",
          "name": "from",
          "type": "address"
        },
        {
          "internalType": "address",
          "name": "to",
          "type": "address"
        },
        {
          "internalType": "uint256",
          "name": "tokenId",
          "type": "uint256"
        }
      ],
      "name": "safeTransferFrom",
      "outputs": [],
      "stateMutability": "nonpayable",
      "type": "function"
    },
    {
      "inputs": [
        {
          "internalType": "address",
          "name": "from",
          "type": "address"
        },
        {
          "internalType": "address",
          "name": "to",
          "type": "address"
        },
        {
          "internalType": "uint256",
          "name": "tokenId",
          "type": "uint256"
        },
        {
          "internalType": "bytes",
          "name": "_data",
          "type": "bytes"
        }
      ],
      "name": "safeTransferFrom",
      "outputs": [],
      "stateMutability": "nonpayable",
      "type": "function"
    },
    {
      "inputs": [
        {
          "internalType": "address",
          "name": "operator",
          "type": "address"
        },
        {
          "internalType": "bool",
          "name": "approved",
          "type": "bool"
        }
      ],
      "name": "setApprovalForAll",
      "outputs": [],
      "stateMutability": "nonpayable",
      "type": "function"
    },
    {
      "inputs": [
        {
          "internalType": "address",
          "name": "_a",
          "type": "address"
        }
      ],
      "name": "setAttunementContract",
      "outputs": [],
      "stateMutability": "nonpayable",
      "type": "function"
    },
    {
      "inputs": [
        {
          "internalType": "string",
          "name": "_newBaseURI",
          "type": "string"
        }
      ],
      "name": "setBaseURI",
      "outputs": [],
      "stateMutability": "nonpayable",
      "type": "function"
    },
    {
      "inputs": [
        {
          "internalType": "uint256",
          "name": "_newCost",
          "type": "uint256"
        }
      ],
      "name": "setCost",
      "outputs": [],
      "stateMutability": "nonpayable",
      "type": "function"
    },
    {
      "inputs": [
        {
          "internalType": "uint256",
          "name": "_id",
          "type": "uint256"
        },
        {
          "internalType": "uint256",
          "name": "_newElement",
          "type": "uint256"
        }
      ],
      "name": "setElement",
      "outputs": [],
      "stateMutability": "nonpayable",
      "type": "function"
    },
    {
      "inputs": [
        {
          "internalType": "address",
          "name": "_es",
          "type": "address"
        }
      ],
      "name": "setElementalStoneContract",
      "outputs": [],
      "stateMutability": "nonpayable",
      "type": "function"
    },
    {
      "inputs": [
        {
          "internalType": "address",
          "name": "_e",
          "type": "address"
        }
      ],
      "name": "setEmissions",
      "outputs": [],
      "stateMutability": "nonpayable",
      "type": "function"
    },
    {
      "inputs": [
        {
          "internalType": "address",
          "name": "_moonstone",
          "type": "address"
        }
      ],
      "name": "setMoonstoneContract",
      "outputs": [],
      "stateMutability": "nonpayable",
      "type": "function"
    },
    {
      "inputs": [
        {
          "internalType": "uint256",
          "name": "_id",
          "type": "uint256"
        },
        {
          "internalType": "bool",
          "name": "_paired",
          "type": "bool"
        }
      ],
      "name": "setPaired",
      "outputs": [],
      "stateMutability": "nonpayable",
      "type": "function"
    },
    {
      "inputs": [
        {
          "internalType": "address",
          "name": "newRecipient",
          "type": "address"
        }
      ],
      "name": "setRoyalties",
      "outputs": [],
      "stateMutability": "nonpayable",
      "type": "function"
    },
    {
      "inputs": [
        {
          "internalType": "bool",
          "name": "_isWhitelistPeriod",
          "type": "bool"
        }
      ],
      "name": "setWhitelistPeriod",
      "outputs": [],
      "stateMutability": "nonpayable",
      "type": "function"
    },
    {
      "inputs": [
        {
          "internalType": "bytes4",
          "name": "interfaceId",
          "type": "bytes4"
        }
      ],
      "name": "supportsInterface",
      "outputs": [
        {
          "internalType": "bool",
          "name": "",
          "type": "bool"
        }
      ],
      "stateMutability": "view",
      "type": "function"
    },
    {
      "inputs": [],
      "name": "symbol",
      "outputs": [
        {
          "internalType": "string",
          "name": "",
          "type": "string"
        }
      ],
      "stateMutability": "view",
      "type": "function"
    },
    {
      "inputs": [
        {
          "internalType": "uint256",
          "name": "index",
          "type": "uint256"
        }
      ],
      "name": "tokenByIndex",
      "outputs": [
        {
          "internalType": "uint256",
          "name": "",
          "type": "uint256"
        }
      ],
      "stateMutability": "view",
      "type": "function"
    },
    {
      "inputs": [
        {
          "internalType": "address",
          "name": "owner",
          "type": "address"
        },
        {
          "internalType": "uint256",
          "name": "index",
          "type": "uint256"
        }
      ],
      "name": "tokenOfOwnerByIndex",
      "outputs": [
        {
          "internalType": "uint256",
          "name": "",
          "type": "uint256"
        }
      ],
      "stateMutability": "view",
      "type": "function"
    },
    {
      "inputs": [
        {
          "internalType": "uint256",
          "name": "tokenId",
          "type": "uint256"
        }
      ],
      "name": "tokenURI",
      "outputs": [
        {
          "internalType": "string",
          "name": "",
          "type": "string"
        }
      ],
      "stateMutability": "view",
      "type": "function"
    },
    {
      "inputs": [],
      "name": "totalSupply",
      "outputs": [
        {
          "internalType": "uint256",
          "name": "",
          "type": "uint256"
        }
      ],
      "stateMutability": "view",
      "type": "function"
    },
    {
      "inputs": [
        {
          "internalType": "address",
          "name": "from",
          "type": "address"
        },
        {
          "internalType": "address",
          "name": "to",
          "type": "address"
        },
        {
          "internalType": "uint256",
          "name": "tokenId",
          "type": "uint256"
        }
      ],
      "name": "transferFrom",
      "outputs": [],
      "stateMutability": "nonpayable",
      "type": "function"
    },
    {
      "inputs": [
        {
          "internalType": "address",
          "name": "newOwner",
          "type": "address"
        }
      ],
      "name": "transferOwnership",
      "outputs": [],
      "stateMutability": "nonpayable",
      "type": "function"
    },
    {
      "inputs": [
        {
          "internalType": "uint256",
          "name": "",
          "type": "uint256"
        }
      ],
      "name": "unmatchedElementCosts",
      "outputs": [
        {
          "internalType": "uint256",
          "name": "",
          "type": "uint256"
        }
      ],
      "stateMutability": "view",
      "type": "function"
    },
    {
      "inputs": [
        {
          "internalType": "address",
          "name": "_owner",
          "type": "address"
        }
      ],
      "name": "walletOfOwner",
      "outputs": [
        {
          "internalType": "uint256[]",
          "name": "",
          "type": "uint256[]"
        }
      ],
      "stateMutability": "view",
      "type": "function"
    },
    {
      "inputs": [],
      "name": "whitelistPeriod",
      "outputs": [
        {
          "internalType": "bool",
          "name": "",
          "type": "bool"
        }
      ],
      "stateMutability": "view",
      "type": "function"
    },
    {
      "inputs": [
        {
          "internalType": "address payable",
          "name": "_rest",
          "type": "address"
        }
      ],
      "name": "withdraw",
      "outputs": [],
      "stateMutability": "nonpayable",
      "type": "function"
    }
  ],
  "bytecode": "0x6005600b8181556003600c90815560c8600d556019601355600a6014556103c060405260006080908152600460a081905260c081905260e0526101008490526101208490526101408490526101608490526101809390935260066101a08190526101c05260076101e0526008610200819052610220819052610240819052610260526102808290526102a08290526102c0919091526102e081905261030052600f6103205260106103408190526103605260116103808190526103a052620000cc90601590601a6200059a565b50604080516101408101825260008152600260208201526003918101829052606081019190915260046080820152600660a0820152600860c0820152600b60e0820152600e61010082015260126101208201526200012f90602f90600a620005e2565b506040805161014081018252600080825260208201819052918101919091526001606082015260026080820152600360a0820152600460c0820152600560e0820152600761010082015260096101208201526200019190603990600a620005e2565b50605a604655600560475560036048556049805460ff19166001179055611388604f55348015620001c157600080fd5b50604051620042af380380620042af833981016040819052620001e491620006c8565b610683806106826078602a601a600960036040518060400160405280600f81526020016e151bdade5bc815195cdd0811da5c9b608a1b8152506040518060400160405280600381526020016254544760e81b81525081600090805190602001906200025192919062000617565b5080516200026790600190602084019062000617565b505050620002846200027e6200033260201b60201c565b62000336565b6200029188888862000388565b620002a0858585858562000407565b5050505050505050620002b985620004cd60201b60201c565b604380546001600160a01b038087166001600160a01b0319928316179092556044805492861692909116919091179055620002f482620004f0565b62000307674563918244f400006200051c565b605080546001600160a01b0319166001600160a01b0392909216919091179055506200083e92505050565b3390565b600a80546001600160a01b038381166001600160a01b0319831681179093556040519116919082907f8be0079c531659141344cd1fd0a4f28419497f9722a3daafe3b4186f6b6457e090600090a35050565b6200039262000539565b60116020527f17bc176d2408558f6e4111feebc3cab4e16b63e967be91cde721f4c8a488b552929092557f08037d7b151cc412d25674a4e66b334d9ae9d2e5517a7feaae5cdb828bf1c6285560036000527f9bfbaa59f8e10e7868f8b402de9d605a390c45ddaebd8c9de3c6f31e733c87ff55565b6200041162000539565b60126020527f71a67924699a20698523213e55fe499d539379d7769cd5567e2c45d583f815a3949094557f8e1fee8c88a9e04123b21e90cae2727a7715bf522a1e46eb5934ccd05203a6b2929092557f0f36ad39aee03e7108cc48f54934702a5f0d4066f10344cebf8198978d86976a557fb4fcd034df3d20faa1c133b66d862ce92732727d40916b48ffb4020cb00fe0535560056000527f45429b9195d4ec5c0cf6c69e9c21a4ca0ea773b702c2de5735f85d2631f2674655565b620004d762000539565b8051620004ec90604e90602084019062000617565b5050565b620004fa62000539565b604d80546001600160a01b0319166001600160a01b0392909216919091179055565b6200052662000539565b600081116200053457600080fd5b604555565b600a546001600160a01b03163314620005985760405162461bcd60e51b815260206004820181905260248201527f4f776e61626c653a2063616c6c6572206973206e6f7420746865206f776e6572604482015260640160405180910390fd5b565b82601a8101928215620005d0579160200282015b82811115620005d0578251829060ff16905591602001919060010190620005ae565b50620005de92915062000694565b5090565b82600a8101928215620005d05791602002820182811115620005d0578251829060ff16905591602001919060010190620005ae565b8280546200062590620007eb565b90600052602060002090601f016020900481019282620006495760008555620005d0565b82601f106200066457805160ff1916838001178555620005d0565b82800160010185558215620005d0579182015b82811115620005d057825182559160200191906001019062000677565b5b80821115620005de576000815560010162000695565b80516001600160a01b0381168114620006c357600080fd5b919050565b600080600080600060a08688031215620006e0578081fd5b85516001600160401b0380821115620006f7578283fd5b818801915088601f8301126200070b578283fd5b81518181111562000720576200072062000828565b604051601f8201601f19908116603f011681019083821181831017156200074b576200074b62000828565b81604052828152602093508b8484870101111562000767578586fd5b8591505b828210156200078a57848201840151818301850152908301906200076b565b828211156200079b57858484830101525b9850620007ad915050888201620006ab565b95505050620007bf60408701620006ab565b9250620007cf60608701620006ab565b9150620007df60808701620006ab565b90509295509295909350565b600181811c908216806200080057607f821691505b602082108114156200082257634e487b7160e01b600052602260045260246000fd5b50919050565b634e487b7160e01b600052604160045260246000fd5b613a61806200084e6000396000f3fe6080604052600436106103ce5760003560e01c8063690d1ca2116101fd578063a388237d11610118578063dfefc776116100ab578063f2fde38b1161007a578063f2fde38b14610c4f578063f909a9cf14610c6f578063fd79e7ac14610c9c578063ff23d7d314610cbc578063ff91078314610cdc57600080fd5b8063dfefc77614610bb0578063e00cda2614610bc3578063e985e9c514610bd9578063f090e00414610c2257600080fd5b8063c3ca39f8116100e7578063c3ca39f814610b23578063c4e2676714610b43578063c87b56dd14610b63578063d066100614610b8357600080fd5b8063a388237d14610aae578063b060dd8614610ace578063b48e665e14610ae9578063b88d4fde14610b0357600080fd5b8063814e1bb81161019057806395d89b411161015f57806395d89b4114610a2c578063a16e721514610a41578063a22b36ef14610a61578063a22cb46514610a8e57600080fd5b8063814e1bb8146109a9578063854e3214146109c95780638da5cb5b146109de5780638efab2d5146109fc57600080fd5b8063715018a6116101cc578063715018a614610934578063733495711461094957806373ae2d78146109695780637a6832a51461098957600080fd5b8063690d1ca2146108b457806369250220146108d45780636aa5dd71146108f457806370a082311461091457600080fd5b80633a7d22bc116102ed57806349af0b9411610280578063562d412f1161024f578063562d412f1461082757806358d70d74146108545780635c5ac79a146108745780636352211e1461089457600080fd5b806349af0b941461079a5780634f6ccce7146107c757806351cff8d9146107e757806355f804b31461080757600080fd5b806340a3c338116102bc57806340a3c338146106f557806342842e0e1461073a578063438b63001461075a57806344a0d68a1461077a57600080fd5b80633a7d22bc1461065b5780633c010930146106885780633f1ed709146106a85780633f74c596146106c857600080fd5b8063150b7a02116103655780632a55205a116103345780632a55205a146105bc5780632a9e63c6146105fb5780632c8296f31461061b5780632f745c591461063b57600080fd5b8063150b7a021461052457806318160ddd1461055d5780632267716c1461057c57806323b872dd1461059c57600080fd5b8063095ea7b3116103a1578063095ea7b3146104845780630b689417146104a45780630f3b899b146104d457806312cbd705146104f457600080fd5b806301ffc9a7146103d357806306fdde0314610408578063081812fc1461042a57806308834ee714610462575b600080fd5b3480156103df57600080fd5b506103f36103ee36600461362c565b610cfc565b60405190151581526020015b60405180910390f35b34801561041457600080fd5b5061041d610d27565b6040516103ff91906137f9565b34801561043657600080fd5b5061044a6104453660046136aa565b610db9565b6040516001600160a01b0390911681526020016103ff565b34801561046e57600080fd5b5061048261047d366004613474565b610de0565b005b34801561049057600080fd5b5061048261049f3660046135cc565b610e0a565b3480156104b057600080fd5b506103f36104bf3660046136aa565b60009081526053602052604090205460ff1690565b3480156104e057600080fd5b50604c5461044a906001600160a01b031681565b34801561050057600080fd5b506103f361050f366004613474565b60526020526000908152604090205460ff1681565b34801561053057600080fd5b5061054461053f366004613524565b610f25565b6040516001600160e01b031990911681526020016103ff565b34801561056957600080fd5b506008545b6040519081526020016103ff565b34801561058857600080fd5b50604d5461044a906001600160a01b031681565b3480156105a857600080fd5b506104826105b73660046134e4565b610f36565b3480156105c857600080fd5b506105dc6105d73660046136fc565b610fca565b604080516001600160a01b0390931683526020830191909152016103ff565b34801561060757600080fd5b50610482610616366004613474565b610fec565b34801561062757600080fd5b50610482610636366004613474565b611000565b34801561064757600080fd5b5061056e6106563660046135cc565b6110f5565b34801561066757600080fd5b5061056e6106763660046136aa565b60009081526010602052604090205490565b34801561069457600080fd5b5061056e6106a33660046136fc565b61118b565b3480156106b457600080fd5b506104826106c33660046136da565b611286565b3480156106d457600080fd5b506106e86106e33660046136fc565b61131a565b6040516103ff91906137b5565b34801561070157600080fd5b506107156107103660046136aa565b6113ac565b604080516001600160a01b0390941684529115156020840152908201526060016103ff565b34801561074657600080fd5b506104826107553660046134e4565b6113e5565b34801561076657600080fd5b506106e8610775366004613474565b611400565b34801561078657600080fd5b506104826107953660046136aa565b6114be565b3480156107a657600080fd5b5061056e6107b53660046136aa565b604a6020526000908152604090205481565b3480156107d357600080fd5b5061056e6107e23660046136aa565b6114d8565b3480156107f357600080fd5b50610482610802366004613474565b611579565b34801561081357600080fd5b50610482610822366004613664565b6115f9565b34801561083357600080fd5b5061056e6108423660046136aa565b600f6020526000908152604090205481565b34801561086057600080fd5b50604b5461044a906001600160a01b031681565b34801561088057600080fd5b5060445461044a906001600160a01b031681565b3480156108a057600080fd5b5061044a6108af3660046136aa565b611618565b3480156108c057600080fd5b506104826108cf366004613474565b611678565b3480156108e057600080fd5b506104826108ef3660046136fc565b6116a4565b34801561090057600080fd5b5061048261090f3660046136fc565b61180c565b34801561092057600080fd5b5061056e61092f366004613474565b6118eb565b34801561094057600080fd5b50610482611971565b34801561095557600080fd5b506104826109643660046135f7565b611985565b34801561097557600080fd5b506106e86109843660046136fc565b6119a0565b34801561099557600080fd5b506104826109a4366004613474565b611beb565b3480156109b557600080fd5b5061056e6109c43660046136aa565b611c15565b3480156109d557600080fd5b5061056e611c2c565b3480156109ea57600080fd5b50600a546001600160a01b031661044a565b348015610a0857600080fd5b506103f3610a173660046136aa565b60536020526000908152604090205460ff1681565b348015610a3857600080fd5b5061041d611c4f565b348015610a4d57600080fd5b50610482610a5c3660046136fc565b611c5e565b348015610a6d57600080fd5b5061056e610a7c3660046136aa565b6000908152600f602052604090205490565b348015610a9a57600080fd5b50610482610aa93660046135a1565b611cb6565b348015610aba57600080fd5b50610482610ac9366004613474565b611cc1565b348015610ada57600080fd5b5061054463152a902d60e11b81565b348015610af557600080fd5b506049546103f39060ff1681565b348015610b0f57600080fd5b50610482610b1e366004613524565b611ceb565b348015610b2f57600080fd5b5061056e610b3e3660046136fc565b611d4e565b348015610b4f57600080fd5b5061056e610b5e3660046136aa565b611e57565b348015610b6f57600080fd5b5061041d610b7e3660046136aa565b611e67565b348015610b8f57600080fd5b5061056e610b9e3660046136aa565b6000908152600e602052604090205490565b610482610bbe366004613611565b611f41565b348015610bcf57600080fd5b5061056e60475481565b348015610be557600080fd5b506103f3610bf43660046134ac565b6001600160a01b03918216600090815260056020908152604080832093909416825291909152205460ff1690565b348015610c2e57600080fd5b5061056e610c3d3660046136aa565b60106020526000908152604090205481565b348015610c5b57600080fd5b50610482610c6a366004613474565b612359565b348015610c7b57600080fd5b5061056e610c8a3660046136aa565b600e6020526000908152604090205481565b348015610ca857600080fd5b5061056e610cb73660046136aa565b6123cf565b348015610cc857600080fd5b5061056e610cd73660046136aa565b6123df565b348015610ce857600080fd5b5060435461044a906001600160a01b031681565b60006001600160e01b0319821663152a902d60e11b1480610d215750610d21826123fb565b92915050565b606060008054610d3690613954565b80601f0160208091040260200160405190810160405280929190818152602001828054610d6290613954565b8015610daf5780601f10610d8457610100808354040283529160200191610daf565b820191906000526020600020905b815481529060010190602001808311610d9257829003601f168201915b5050505050905090565b6000610dc482612420565b506000908152600460205260409020546001600160a01b031690565b610de861247f565b604d80546001600160a01b0319166001600160a01b0392909216919091179055565b6000610e1582611618565b9050806001600160a01b0316836001600160a01b03161415610e885760405162461bcd60e51b815260206004820152602160248201527f4552433732313a20617070726f76616c20746f2063757272656e74206f776e656044820152603960f91b60648201526084015b60405180910390fd5b336001600160a01b0382161480610ea45750610ea48133610bf4565b610f165760405162461bcd60e51b815260206004820152603e60248201527f4552433732313a20617070726f76652063616c6c6572206973206e6f7420746f60448201527f6b656e206f776e6572206e6f7220617070726f76656420666f7220616c6c00006064820152608401610e7f565b610f2083836124d9565b505050565b630a85bd0160e11b5b949350505050565b610f403382612547565b610f5c5760405162461bcd60e51b8152600401610e7f9061385e565b610f678383836125c5565b604c5460405163add058fd60e01b8152600481018390526001600160a01b039091169063add058fd90602401600060405180830381600087803b158015610fad57600080fd5b505af1158015610fc1573d6000803e3d6000fd5b50505050505050565b6051546001600160a01b03166000610fe36014846138c7565b90509250929050565b610ff461247f565b610ffd8161276c565b50565b61100861247f565b600061101360085490565b905060006110228260016138af565b905061102e83826127f9565b60008061103a83612813565b604d54604051632b017cb760e01b8152600481018790529294509092506001600160a01b031690632b017cb790602401600060405180830381600087803b15801561108457600080fd5b505af1158015611098573d6000803e3d6000fd5b5050604080516001600160a01b038916815260208101879052908101859052606081018490527f5a3358a3d27a5373c0df2604662088d37894d56b7cfd27f315770440f4e0d9199250608001905060405180910390a15050505050565b6000611100836118eb565b82106111625760405162461bcd60e51b815260206004820152602b60248201527f455243373231456e756d657261626c653a206f776e657220696e646578206f7560448201526a74206f6620626f756e647360a81b6064820152608401610e7f565b506001600160a01b03919091166000908152600660209081526040808320938352929052205490565b6000600182101580156111a057506013548211155b6111fd5760405162461bcd60e51b815260206004820152602860248201527f557067726164653a20746f54696572206d757374206265206265747765656e206044820152673120616e6420323560c01b6064820152608401610e7f565b6000838152600f602052604090205482116112755760405162461bcd60e51b815260206004820152603260248201527f557067726164653a20746f54696572206d7573742062652067726561746572206044820152711d1a185b8818dd5c9c995b9d081b195d995b60721b6064820152608401610e7f565b61127f8383611d4e565b9392505050565b3360009081526052602052604090205460ff16806112ae5750604c546001600160a01b031633145b6112fa5760405162461bcd60e51b815260206004820152601d60248201527f4769726c3a206f6e6c79204553206f72204174742063616e2063616c6c0000006044820152606401610e7f565b600091825260536020526040909120805460ff1916911515919091179055565b6000828152600e60205260409020546060908211801561133b5750600a8211155b6113a25760405162461bcd60e51b815260206004820152603260248201527f557067726164653a2074696572206d757374206265206265747765656e20637560448201527107272656e74206c6576656c20616e642031360741b6064820152608401610e7f565b61127f83836119a0565b60008060006113ba84611618565b600094855260536020908152604080872054601090925290952054909560ff90951694909350915050565b610f6783838360405180602001604052806000815250611ceb565b6060600061140d836118eb565b905060008167ffffffffffffffff81111561143857634e487b7160e01b600052604160045260246000fd5b604051908082528060200260200182016040528015611461578160200160208202803683370190505b50905060005b828110156114b65761147985826110f5565b82828151811061149957634e487b7160e01b600052603260045260246000fd5b6020908102919091010152806114ae8161398f565b915050611467565b509392505050565b6114c661247f565b600081116114d357600080fd5b604555565b60006114e360085490565b82106115465760405162461bcd60e51b815260206004820152602c60248201527f455243373231456e756d657261626c653a20676c6f62616c20696e646578206f60448201526b7574206f6620626f756e647360a01b6064820152608401610e7f565b6008828154811061156757634e487b7160e01b600052603260045260246000fd5b90600052602060002001549050919050565b61158161247f565b60505447906001600160a01b03166108fc61159b8361283a565b6040518115909202916000818181858888f193505050501580156115c3573d6000803e3d6000fd5b506040516001600160a01b038316904780156108fc02916000818181858888f19350505050158015610f20573d6000803e3d6000fd5b61160161247f565b805161161490604e906020840190613350565b5050565b6000818152600260205260408120546001600160a01b031680610d215760405162461bcd60e51b8152602060048201526018602482015277115490cdcc8c4e881a5b9d985b1a59081d1bdad95b88125160421b6044820152606401610e7f565b61168061247f565b6001600160a01b03166000908152605260205260409020805460ff19166001179055565b604b546001600160a01b031633146117125760405162461bcd60e51b815260206004820152602b60248201527f4769726c3a206f6e6c79206d6f6f6e73746f6e652063616e207570677261646560448201526a2067616d657273636f726560a81b6064820152608401610e7f565b6000828152600f6020908152604080832054600e9092529182902054604d54925163b3c9524b60e01b815260048101869052919290916001600160a01b039091169063b3c9524b90602401600060405180830381600087803b15801561177757600080fd5b505af115801561178b573d6000803e3d6000fd5b505050506117998484612856565b604d54604051632d7f86bb60e11b81526004810186905260248101849052604481018390526001600160a01b0390911690635aff0d76906064015b600060405180830381600087803b1580156117ee57600080fd5b505af1158015611802573d6000803e3d6000fd5b5050505050505050565b3360009081526052602052604090205460ff166118645760405162461bcd60e51b815260206004820152601660248201527511da5c9b0e881bdb9b1e481154c818d85b8818d85b1b60521b6044820152606401610e7f565b6000828152600f6020908152604080832054600e9092529182902054604d54925163b3c9524b60e01b815260048101869052919290916001600160a01b039091169063b3c9524b90602401600060405180830381600087803b1580156118c957600080fd5b505af11580156118dd573d6000803e3d6000fd5b50505050611799848461289e565b60006001600160a01b0382166119555760405162461bcd60e51b815260206004820152602960248201527f4552433732313a2061646472657373207a65726f206973206e6f7420612076616044820152683634b21037bbb732b960b91b6064820152608401610e7f565b506001600160a01b031660009081526003602052604090205490565b61197961247f565b61198360006128e6565b565b61198d61247f565b6049805460ff1916911515919091179055565b60606014548211156119f45760405162461bcd60e51b815260206004820152601f60248201527f557067726164653a204d617820636f736d6963206c6576656c206973203130006044820152606401610e7f565b6000838152600e60205260409020546014548110611a5e5760405162461bcd60e51b815260206004820152602160248201527f557067726164653a20636f736d6963206c6576656c20616c7265616479206d616044820152600f60fb1b6064820152608401610e7f565b60008481526010602052604080822054815160038082526080820190935290929181602001602082028036833701905050905060008080611aa08660016138af565b90505b878111611b2c57602f611ab76001836138fa565b600a8110611ad557634e487b7160e01b600052603260045260246000fd5b0154611ae190846138af565b92506039611af06001836138fa565b600a8110611b0e57634e487b7160e01b600052603260045260246000fd5b0154611b1a90836138af565b9150611b258161398f565b9050611aa3565b508183611b3a6001876138fa565b81518110611b5857634e487b7160e01b600052603260045260246000fd5b60200260200101818152505060005b8351811015611bde57838181518110611b9057634e487b7160e01b600052603260045260246000fd5b602002602001015160001415611bce5781848281518110611bc157634e487b7160e01b600052603260045260246000fd5b6020026020010181815250505b611bd78161398f565b9050611b67565b5091979650505050505050565b611bf361247f565b604b80546001600160a01b0319166001600160a01b0392909216919091179055565b601581601a8110611c2557600080fd5b0154905081565b60006064604654604554611c4091906138db565b611c4a91906138c7565b905090565b606060018054610d3690613954565b611c6661247f565b60008281526010602090815260409182902083905581518481529081018390527fe9d2aa95a8bcda1481b0316470d5993a8d561039f5db3f8222f8d526e03c0a1b91015b60405180910390a15050565b611614338383612938565b611cc961247f565b604c80546001600160a01b0319166001600160a01b0392909216919091179055565b611cf53383612547565b611d115760405162461bcd60e51b8152600401610e7f9061385e565b611d1d84848484612a07565b604c5460405163add058fd60e01b8152600481018490526001600160a01b039091169063add058fd906024016117d4565b6000601354821115611da25760405162461bcd60e51b815260206004820152601e60248201527f557067726164653a204d61782073636f7265206973206c6576656c20323500006044820152606401610e7f565b6000838152600f60205260409020546013548110611e025760405162461bcd60e51b815260206004820152601f60248201527f557067726164653a204769726c20616c7265616479206d6178206c6576656c006044820152606401610e7f565b6000815b848111611e4e57601581601a8110611e2e57634e487b7160e01b600052603260045260246000fd5b0154611e3a90836138af565b915080611e468161398f565b915050611e06565b50949350505050565b603981600a8110611c2557600080fd5b6000818152600260205260409020546060906001600160a01b0316611ee65760405162461bcd60e51b815260206004820152602f60248201527f4552433732314d657461646174613a2055524920717565727920666f72206e6f60448201526e3732bc34b9ba32b73a103a37b5b2b760891b6064820152608401610e7f565b6000611ef0612a40565b90506000815111611f10576040518060200160405280600081525061127f565b80611f1a84612a4f565b604051602001611f2b929190613749565b6040516020818303038152906040529392505050565b33600080611f4e60085490565b9050604f548110611f925760405162461bcd60e51b815260206004820152600e60248201526d11da5c9b0e8814dbdb19081bdd5d60921b6044820152606401610e7f565b8415612205576043546040516331a9108f60e11b8152600481018690526001600160a01b03858116921690636352211e9060240160206040518083038186803b158015611fde57600080fd5b505afa158015611ff2573d6000803e3d6000fd5b505050506040513d601f19601f820116820180604052508101906120169190613490565b6001600160a01b0316146120625760405162461bcd60e51b815260206004820152601360248201527223b4b9361d103737ba1037b9311037bbb732b960691b6044820152606401610e7f565b61206a611c2c565b3410156120b45760405162461bcd60e51b81526020600482015260186024820152774769726c3a2073656e6420636f727265637420707269636560401b6044820152606401610e7f565b6120bd84612b69565b915081600614612200576043546040516323b872dd60e01b81526001600160a01b03858116600483015230602483015260448201879052909116906323b872dd90606401600060405180830381600087803b15801561211b57600080fd5b505af115801561212f573d6000803e3d6000fd5b50506043546040516331a9108f60e11b8152600481018890523093506001600160a01b039091169150636352211e9060240160206040518083038186803b15801561217957600080fd5b505afa15801561218d573d6000803e3d6000fd5b505050506040513d601f19601f820116820180604052508101906121b19190613490565b6001600160a01b0316146122005760405162461bcd60e51b815260206004820152601660248201527511da5c9b0e881bdc98881b9bdd081c9958da595d995960521b6044820152606401610e7f565b612257565b6045543410156122525760405162461bcd60e51b81526020600482015260186024820152774769726c3a2073656e6420636f727265637420707269636560401b6044820152606401610e7f565b600691505b60006122648260016138af565b905061227084826127f9565b600080846006141561228f5761228583612813565b909250905061229f565b84915061229c8383612c3a565b90505b604d54604051632b017cb760e01b8152600481018590526001600160a01b0390911690632b017cb790602401600060405180830381600087803b1580156122e557600080fd5b505af11580156122f9573d6000803e3d6000fd5b5050604080516001600160a01b038a16815260208101879052908101859052606081018490527f5a3358a3d27a5373c0df2604662088d37894d56b7cfd27f315770440f4e0d9199250608001905060405180910390a15050505050505050565b61236161247f565b6001600160a01b0381166123c65760405162461bcd60e51b815260206004820152602660248201527f4f776e61626c653a206e6577206f776e657220697320746865207a65726f206160448201526564647265737360d01b6064820152608401610e7f565b610ffd816128e6565b602f81600a8110611c2557600080fd5b6000818152604a6020526040812054604754610d2191906138fa565b60006001600160e01b0319821663780e9d6360e01b1480610d215750610d2182612c70565b6000818152600260205260409020546001600160a01b0316610ffd5760405162461bcd60e51b8152602060048201526018602482015277115490cdcc8c4e881a5b9d985b1a59081d1bdad95b88125160421b6044820152606401610e7f565b600a546001600160a01b031633146119835760405162461bcd60e51b815260206004820181905260248201527f4f776e61626c653a2063616c6c6572206973206e6f7420746865206f776e65726044820152606401610e7f565b600081815260046020526040902080546001600160a01b0319166001600160a01b038416908117909155819061250e82611618565b6001600160a01b03167f8c5be1e5ebec7d5bd14f71427d1e84f3dd0314c0f7b2291e5b200ac8c7c3b92560405160405180910390a45050565b60008061255383611618565b9050806001600160a01b0316846001600160a01b0316148061259a57506001600160a01b0380821660009081526005602090815260408083209388168352929052205460ff165b80610f2e5750836001600160a01b03166125b384610db9565b6001600160a01b031614949350505050565b826001600160a01b03166125d882611618565b6001600160a01b03161461263c5760405162461bcd60e51b815260206004820152602560248201527f4552433732313a207472616e736665722066726f6d20696e636f72726563742060448201526437bbb732b960d91b6064820152608401610e7f565b6001600160a01b03821661269e5760405162461bcd60e51b8152602060048201526024808201527f4552433732313a207472616e7366657220746f20746865207a65726f206164646044820152637265737360e01b6064820152608401610e7f565b6126a9838383612cc0565b6126b46000826124d9565b6001600160a01b03831660009081526003602052604081208054600192906126dd9084906138fa565b90915550506001600160a01b038216600090815260036020526040812080546001929061270b9084906138af565b909155505060008181526002602052604080822080546001600160a01b0319166001600160a01b0386811691821790925591518493918716917fddf252ad1be2c89b69c2b068fc378daa952ba7f163c4a11628f55a4df523b3ef91a4505050565b6001600160a01b0381166127d75760405162461bcd60e51b815260206004820152602c60248201527f526f79616c746965733a206e657720726563697069656e74206973207468652060448201526b7a65726f206164647265737360a01b6064820152608401610e7f565b605180546001600160a01b0319166001600160a01b0392909216919091179055565b611614828260405180602001604052806000815250612d78565b600080600061282184612dab565b9050600061282e85612e68565b91959194509092505050565b600060646048548361284c91906138db565b610d2191906138c7565b6000828152600f602090815260409182902083905581518481529081018390527f866cfb7bcf22266717dccfb6e13d4a8aaf393c0bc2c147cf9df1b747e00370029101611caa565b6000828152600e602090815260409182902083905581518481529081018390527f56bd88bf537c8134d681abc094b975697025d38f1a7e20c408f3b5e6b4df40b79101611caa565b600a80546001600160a01b038381166001600160a01b0319831681179093556040519116919082907f8be0079c531659141344cd1fd0a4f28419497f9722a3daafe3b4186f6b6457e090600090a35050565b816001600160a01b0316836001600160a01b0316141561299a5760405162461bcd60e51b815260206004820152601960248201527f4552433732313a20617070726f766520746f2063616c6c6572000000000000006044820152606401610e7f565b6001600160a01b03838116600081815260056020908152604080832094871680845294825291829020805460ff191686151590811790915591519182527f17307eab39ab6107e8899845ad3d59bd9653f200f220920489ca2b5937696c31910160405180910390a3505050565b612a128484846125c5565b612a1e84848484612ef0565b612a3a5760405162461bcd60e51b8152600401610e7f9061380c565b50505050565b6060604e8054610d3690613954565b606081612a735750506040805180820190915260018152600360fc1b602082015290565b8160005b8115612a9d5780612a878161398f565b9150612a969050600a836138c7565b9150612a77565b60008167ffffffffffffffff811115612ac657634e487b7160e01b600052604160045260246000fd5b6040519080825280601f01601f191660200182016040528015612af0576020820181803683370190505b5090505b8415610f2e57612b056001836138fa565b9150612b12600a866139aa565b612b1d9060306138af565b60f81b818381518110612b4057634e487b7160e01b600052603260045260246000fd5b60200101906001600160f81b031916908160001a905350612b62600a866138c7565b9450612af4565b6000818152604a6020526040812054600511612b8457600080fd5b6000828152604a602052604081208054909190612ba09061398f565b909155506000828152604a602052604090205460069060051415610d2157604454604051634875869760e01b8152600481018590526001600160a01b039091169063487586979060240160206040518083038186803b158015612c0257600080fd5b505afa158015612c16573d6000803e3d6000fd5b505050506040513d601f19601f8201168201806040525081019061127f91906136c2565b600080612c49600c5485612ffa565b6000858152601060209081526040808320849055600e909152902084905591505092915050565b60006001600160e01b031982166380ac58cd60e01b1480612ca157506001600160e01b03198216635b5e139f60e01b145b80610d2157506301ffc9a760e01b6001600160e01b0319831614610d21565b6001600160a01b038316612d1b57612d1681600880546000838152600960205260408120829055600182018355919091527ff3f7a9fe364faab93b216da50a3214154f22a0a2b415b23a84c8169e8b636ee30155565b612d3e565b816001600160a01b0316836001600160a01b031614612d3e57612d3e8382613048565b6001600160a01b038216612d5557610f20816130e5565b826001600160a01b0316826001600160a01b031614610f2057610f2082826131be565b612d828383613202565b612d8f6000848484612ef0565b610f205760405162461bcd60e51b8152600401610e7f9061380c565b600080612dba600d5484612ffa565b905060008082118015612dce575060788211155b15612ddb57506001612e4f565b607882118015612dec575060a28211155b15612df957506002612e4f565b60a282118015612e0a575060bc8211155b15612e1757506003612e4f565b60bc82118015612e28575060c58211155b15612e3557506004612e4f565b60c582118015612e46575060c88211155b15612e4f575060055b6000938452600e60205260409093208390555090919050565b600080612e77600c5484612ffa565b90505b60008181526011602052604090205460011115612eba5780612e9b8161398f565b9150506003811115612eb557612eb26003826138fa565b90505b612e7a565b600083815260106020908152604080832084905583835260119091528120805491612ee48361393d565b90915550909392505050565b60006001600160a01b0384163b15612ff257604051630a85bd0160e11b81526001600160a01b0385169063150b7a0290612f34903390899088908890600401613778565b602060405180830381600087803b158015612f4e57600080fd5b505af1925050508015612f7e575060408051601f3d908101601f19168201909252612f7b91810190613648565b60015b612fd8573d808015612fac576040519150601f19603f3d011682016040523d82523d6000602084013e612fb1565b606091505b508051612fd05760405162461bcd60e51b8152600401610e7f9061380c565b805181602001fd5b6001600160e01b031916630a85bd0160e11b149050610f2e565b506001610f2e565b6040805142602082015290810183905260608101829052600090819060800160408051601f198184030181529190528051602090910120905061303d84826139aa565b610f2e9060016138af565b60006001613055846118eb565b61305f91906138fa565b6000838152600760205260409020549091508082146130b2576001600160a01b03841660009081526006602090815260408083208584528252808320548484528184208190558352600790915290208190555b5060009182526007602090815260408084208490556001600160a01b039094168352600681528383209183525290812055565b6008546000906130f7906001906138fa565b6000838152600960205260408120546008805493945090928490811061312d57634e487b7160e01b600052603260045260246000fd5b90600052602060002001549050806008838154811061315c57634e487b7160e01b600052603260045260246000fd5b60009182526020808320909101929092558281526009909152604080822084905585825281205560088054806131a257634e487b7160e01b600052603160045260246000fd5b6001900381819060005260206000200160009055905550505050565b60006131c9836118eb565b6001600160a01b039093166000908152600660209081526040808320868452825280832085905593825260079052919091209190915550565b6001600160a01b0382166132585760405162461bcd60e51b815260206004820181905260248201527f4552433732313a206d696e7420746f20746865207a65726f20616464726573736044820152606401610e7f565b6000818152600260205260409020546001600160a01b0316156132bd5760405162461bcd60e51b815260206004820152601c60248201527f4552433732313a20746f6b656e20616c7265616479206d696e746564000000006044820152606401610e7f565b6132c960008383612cc0565b6001600160a01b03821660009081526003602052604081208054600192906132f29084906138af565b909155505060008181526002602052604080822080546001600160a01b0319166001600160a01b03861690811790915590518392907fddf252ad1be2c89b69c2b068fc378daa952ba7f163c4a11628f55a4df523b3ef908290a45050565b82805461335c90613954565b90600052602060002090601f01602090048101928261337e57600085556133c4565b82601f1061339757805160ff19168380011785556133c4565b828001600101855582156133c4579182015b828111156133c45782518255916020019190600101906133a9565b506133d09291506133d4565b5090565b5b808211156133d057600081556001016133d5565b600067ffffffffffffffff80841115613404576134046139ea565b604051601f8501601f19908116603f0116810190828211818310171561342c5761342c6139ea565b8160405280935085815286868601111561344557600080fd5b858560208301376000602087830101525050509392505050565b8035801515811461346f57600080fd5b919050565b600060208284031215613485578081fd5b813561127f81613a00565b6000602082840312156134a1578081fd5b815161127f81613a00565b600080604083850312156134be578081fd5b82356134c981613a00565b915060208301356134d981613a00565b809150509250929050565b6000806000606084860312156134f8578081fd5b833561350381613a00565b9250602084013561351381613a00565b929592945050506040919091013590565b60008060008060808587031215613539578081fd5b843561354481613a00565b9350602085013561355481613a00565b925060408501359150606085013567ffffffffffffffff811115613576578182fd5b8501601f81018713613586578182fd5b613595878235602084016133e9565b91505092959194509250565b600080604083850312156135b3578182fd5b82356135be81613a00565b9150610fe36020840161345f565b600080604083850312156135de578182fd5b82356135e981613a00565b946020939093013593505050565b600060208284031215613608578081fd5b61127f8261345f565b60008060408385031215613623578182fd5b6135e98361345f565b60006020828403121561363d578081fd5b813561127f81613a15565b600060208284031215613659578081fd5b815161127f81613a15565b600060208284031215613675578081fd5b813567ffffffffffffffff81111561368b578182fd5b8201601f8101841361369b578182fd5b610f2e848235602084016133e9565b6000602082840312156136bb578081fd5b5035919050565b6000602082840312156136d3578081fd5b5051919050565b600080604083850312156136ec578182fd5b82359150610fe36020840161345f565b6000806040838503121561370e578182fd5b50508035926020909101359150565b60008151808452613735816020860160208601613911565b601f01601f19169290920160200192915050565b6000835161375b818460208801613911565b83519083019061376f818360208801613911565b01949350505050565b6001600160a01b03858116825284166020820152604081018390526080606082018190526000906137ab9083018461371d565b9695505050505050565b6020808252825182820181905260009190848201906040850190845b818110156137ed578351835292840192918401916001016137d1565b50909695505050505050565b60208152600061127f602083018461371d565b60208082526032908201527f4552433732313a207472616e7366657220746f206e6f6e20455243373231526560408201527131b2b4bb32b91034b6b83632b6b2b73a32b960711b606082015260800190565b60208082526031908201527f4552433732313a207472616e736665722063616c6c6572206973206e6f74206f6040820152701ddb995c881b9bdc88185c1c1c9bdd9959607a1b606082015260800190565b600082198211156138c2576138c26139be565b500190565b6000826138d6576138d66139d4565b500490565b60008160001904831182151516156138f5576138f56139be565b500290565b60008282101561390c5761390c6139be565b500390565b60005b8381101561392c578181015183820152602001613914565b83811115612a3a5750506000910152565b60008161394c5761394c6139be565b506000190190565b600181811c9082168061396857607f821691505b6020821081141561398957634e487b7160e01b600052602260045260246000fd5b50919050565b60006000198214156139a3576139a36139be565b5060010190565b6000826139b9576139b96139d4565b500690565b634e487b7160e01b600052601160045260246000fd5b634e487b7160e01b600052601260045260246000fd5b634e487b7160e01b600052604160045260246000fd5b6001600160a01b0381168114610ffd57600080fd5b6001600160e01b031981168114610ffd57600080fdfea2646970667358221220cc8ba94ccb59a1c9fb795c0f9f0d02bcc7de33f424cb48e899363bab8169e5ff64736f6c63430008040033",
  "linkReferences": {},
  "deployedLinkReferences": {}
}