{
  "_format": "hh-sol-artifact-1",
  "contractName": "Girl",
  "sourceName": "contracts/Girl/Girl.sol",
  "abi": [
    {
      "inputs": [
        {
          "internalType": "string",
          "name": "_initBaseURI",
          "type": "string"
        },
        {
          "internalType": "address",
          "name": "_orb",
          "type": "address"
        },
        {
          "internalType": "address",
          "name": "_emissions",
          "type": "address"
        },
        {
          "internalType": "address payable",
          "name": "_dev",
          "type": "address"
        },
        {
          "internalType": "address",
          "name": "_royalty",
          "type": "address"
        }
      ],
      "stateMutability": "nonpayable",
      "type": "constructor"
    },
    {
      "anonymous": false,
      "inputs": [
        {
          "indexed": true,
          "internalType": "address",
          "name": "owner",
          "type": "address"
        },
        {
          "indexed": true,
          "internalType": "address",
          "name": "approved",
          "type": "address"
        },
        {
          "indexed": true,
          "internalType": "uint256",
          "name": "tokenId",
          "type": "uint256"
        }
      ],
      "name": "Approval",
      "type": "event"
    },
    {
      "anonymous": false,
      "inputs": [
        {
          "indexed": true,
          "internalType": "address",
          "name": "owner",
          "type": "address"
        },
        {
          "indexed": true,
          "internalType": "address",
          "name": "operator",
          "type": "address"
        },
        {
          "indexed": false,
          "internalType": "bool",
          "name": "approved",
          "type": "bool"
        }
      ],
      "name": "ApprovalForAll",
      "type": "event"
    },
    {
      "anonymous": false,
      "inputs": [
        {
          "indexed": false,
          "internalType": "uint256",
          "name": "id",
          "type": "uint256"
        },
        {
          "indexed": false,
          "internalType": "uint256",
          "name": "newLevel",
          "type": "uint256"
        }
      ],
      "name": "CosmicLevelChanged",
      "type": "event"
    },
    {
      "anonymous": false,
      "inputs": [
        {
          "indexed": false,
          "internalType": "uint256",
          "name": "id",
          "type": "uint256"
        },
        {
          "indexed": false,
          "internalType": "uint256",
          "name": "element",
          "type": "uint256"
        }
      ],
      "name": "ElementChanged",
      "type": "event"
    },
    {
      "anonymous": false,
      "inputs": [
        {
          "indexed": false,
          "internalType": "uint256",
          "name": "id",
          "type": "uint256"
        },
        {
          "indexed": false,
          "internalType": "uint256",
          "name": "newScore",
          "type": "uint256"
        }
      ],
      "name": "GamerScoreChanged",
      "type": "event"
    },
    {
      "anonymous": false,
      "inputs": [
        {
          "indexed": false,
          "internalType": "address",
          "name": "minter",
          "type": "address"
        },
        {
          "indexed": true,
          "internalType": "uint256",
          "name": "id",
          "type": "uint256"
        },
        {
          "indexed": true,
          "internalType": "bool",
          "name": "usingOrb",
          "type": "bool"
        },
        {
          "indexed": true,
          "internalType": "uint256",
          "name": "rarity",
          "type": "uint256"
        }
      ],
      "name": "GirlMinted",
      "type": "event"
    },
    {
      "anonymous": false,
      "inputs": [
        {
          "indexed": true,
          "internalType": "address",
          "name": "previousOwner",
          "type": "address"
        },
        {
          "indexed": true,
          "internalType": "address",
          "name": "newOwner",
          "type": "address"
        }
      ],
      "name": "OwnershipTransferred",
      "type": "event"
    },
    {
      "anonymous": false,
      "inputs": [
        {
          "indexed": false,
          "internalType": "uint256",
          "name": "id",
          "type": "uint256"
        },
        {
          "indexed": false,
          "internalType": "uint256",
          "name": "cl",
          "type": "uint256"
        },
        {
          "indexed": false,
          "internalType": "uint256",
          "name": "el",
          "type": "uint256"
        }
      ],
      "name": "StatsInitialized",
      "type": "event"
    },
    {
      "anonymous": false,
      "inputs": [
        {
          "indexed": true,
          "internalType": "address",
          "name": "from",
          "type": "address"
        },
        {
          "indexed": true,
          "internalType": "address",
          "name": "to",
          "type": "address"
        },
        {
          "indexed": true,
          "internalType": "uint256",
          "name": "tokenId",
          "type": "uint256"
        }
      ],
      "name": "Transfer",
      "type": "event"
    },
    {
      "inputs": [],
      "name": "INTERFACE_ID_ERC2981",
      "outputs": [
        {
          "internalType": "bytes4",
          "name": "",
          "type": "bytes4"
        }
      ],
      "stateMutability": "view",
      "type": "function"
    },
    {
      "inputs": [
        {
          "internalType": "address",
          "name": "to",
          "type": "address"
        },
        {
          "internalType": "uint256",
          "name": "tokenId",
          "type": "uint256"
        }
      ],
      "name": "approve",
      "outputs": [],
      "stateMutability": "nonpayable",
      "type": "function"
    },
    {
      "inputs": [],
      "name": "attunement",
      "outputs": [
        {
          "internalType": "contract IAttunement",
          "name": "",
          "type": "address"
        }
      ],
      "stateMutability": "view",
      "type": "function"
    },
    {
      "inputs": [
        {
          "internalType": "address",
          "name": "owner",
          "type": "address"
        }
      ],
      "name": "balanceOf",
      "outputs": [
        {
          "internalType": "uint256",
          "name": "",
          "type": "uint256"
        }
      ],
      "stateMutability": "view",
      "type": "function"
    },
    {
      "inputs": [
        {
          "internalType": "uint256",
          "name": "id",
          "type": "uint256"
        },
        {
          "internalType": "uint256",
          "name": "toTier",
          "type": "uint256"
        }
      ],
      "name": "calcCosmicLevelUpgradeCost",
      "outputs": [
        {
          "internalType": "uint256[]",
          "name": "",
          "type": "uint256[]"
        }
      ],
      "stateMutability": "view",
      "type": "function"
    },
    {
      "inputs": [
        {
          "internalType": "uint256",
          "name": "id",
          "type": "uint256"
        },
        {
          "internalType": "uint256",
          "name": "toTier",
          "type": "uint256"
        }
      ],
      "name": "calcGamerScoreUpgradeCost",
      "outputs": [
        {
          "internalType": "uint256",
          "name": "",
          "type": "uint256"
        }
      ],
      "stateMutability": "view",
      "type": "function"
    },
    {
      "inputs": [],
      "name": "charges",
      "outputs": [
        {
          "internalType": "uint256",
          "name": "",
          "type": "uint256"
        }
      ],
      "stateMutability": "view",
      "type": "function"
    },
    {
      "inputs": [
        {
          "internalType": "uint256",
          "name": "",
          "type": "uint256"
        }
      ],
      "name": "chargesUsed",
      "outputs": [
        {
          "internalType": "uint256",
          "name": "",
          "type": "uint256"
        }
      ],
      "stateMutability": "view",
      "type": "function"
    },
    {
      "inputs": [
        {
          "internalType": "uint256",
          "name": "girlId",
          "type": "uint256"
        }
      ],
      "name": "checkStake",
      "outputs": [
        {
          "internalType": "address",
          "name": "",
          "type": "address"
        },
        {
          "internalType": "bool",
          "name": "",
          "type": "bool"
        },
        {
          "internalType": "uint256",
          "name": "",
          "type": "uint256"
        }
      ],
      "stateMutability": "view",
      "type": "function"
    },
    {
      "inputs": [
        {
          "internalType": "uint256",
          "name": "",
          "type": "uint256"
        }
      ],
      "name": "cosmicLevel",
      "outputs": [
        {
          "internalType": "uint256",
          "name": "",
          "type": "uint256"
        }
      ],
      "stateMutability": "view",
      "type": "function"
    },
    {
      "inputs": [
        {
          "internalType": "uint256",
          "name": "",
          "type": "uint256"
        }
      ],
      "name": "element",
      "outputs": [
        {
          "internalType": "uint256",
          "name": "",
          "type": "uint256"
        }
      ],
      "stateMutability": "view",
      "type": "function"
    },
    {
      "inputs": [],
      "name": "emissions",
      "outputs": [
        {
          "internalType": "contract IEmissions",
          "name": "",
          "type": "address"
        }
      ],
      "stateMutability": "view",
      "type": "function"
    },
    {
      "inputs": [
        {
          "internalType": "uint256",
          "name": "",
          "type": "uint256"
        }
      ],
      "name": "gamerScore",
      "outputs": [
        {
          "internalType": "uint256",
          "name": "",
          "type": "uint256"
        }
      ],
      "stateMutability": "view",
      "type": "function"
    },
    {
      "inputs": [
        {
          "internalType": "uint256",
          "name": "tokenId",
          "type": "uint256"
        }
      ],
      "name": "getApproved",
      "outputs": [
        {
          "internalType": "address",
          "name": "",
          "type": "address"
        }
      ],
      "stateMutability": "view",
      "type": "function"
    },
    {
      "inputs": [
        {
          "internalType": "uint256",
          "name": "id",
          "type": "uint256"
        }
      ],
      "name": "getChargesRemaining",
      "outputs": [
        {
          "internalType": "uint256",
          "name": "",
          "type": "uint256"
        }
      ],
      "stateMutability": "view",
      "type": "function"
    },
    {
      "inputs": [
        {
          "internalType": "uint256",
          "name": "_id",
          "type": "uint256"
        }
      ],
      "name": "getCosmicLevel",
      "outputs": [
        {
          "internalType": "uint256",
          "name": "",
          "type": "uint256"
        }
      ],
      "stateMutability": "view",
      "type": "function"
    },
    {
      "inputs": [
        {
          "internalType": "uint256",
          "name": "id",
          "type": "uint256"
        },
        {
          "internalType": "uint256",
          "name": "toTier",
          "type": "uint256"
        }
      ],
      "name": "getCosmicLevelUpgradeCost",
      "outputs": [
        {
          "internalType": "uint256[]",
          "name": "",
          "type": "uint256[]"
        }
      ],
      "stateMutability": "view",
      "type": "function"
    },
    {
      "inputs": [],
      "name": "getCost",
      "outputs": [
        {
          "internalType": "uint256",
          "name": "",
          "type": "uint256"
        }
      ],
      "stateMutability": "view",
      "type": "function"
    },
    {
      "inputs": [],
      "name": "getDiscountCost",
      "outputs": [
        {
          "internalType": "uint256",
          "name": "",
          "type": "uint256"
        }
      ],
      "stateMutability": "view",
      "type": "function"
    },
    {
      "inputs": [
        {
          "internalType": "uint256",
          "name": "_id",
          "type": "uint256"
        }
      ],
      "name": "getElement",
      "outputs": [
        {
          "internalType": "uint256",
          "name": "",
          "type": "uint256"
        }
      ],
      "stateMutability": "view",
      "type": "function"
    },
    {
      "inputs": [
        {
          "internalType": "uint256",
          "name": "_id",
          "type": "uint256"
        }
      ],
      "name": "getGamerScore",
      "outputs": [
        {
          "internalType": "uint256",
          "name": "",
          "type": "uint256"
        }
      ],
      "stateMutability": "view",
      "type": "function"
    },
    {
      "inputs": [
        {
          "internalType": "uint256",
          "name": "id",
          "type": "uint256"
        },
        {
          "internalType": "uint256",
          "name": "toTier",
          "type": "uint256"
        }
      ],
      "name": "getGamerScoreUpgradeCost",
      "outputs": [
        {
          "internalType": "uint256",
          "name": "cost",
          "type": "uint256"
        }
      ],
      "stateMutability": "view",
      "type": "function"
    },
    {
      "inputs": [
        {
          "internalType": "uint256",
          "name": "",
          "type": "uint256"
        }
      ],
      "name": "gsUpgradeCosts",
      "outputs": [
        {
          "internalType": "uint256",
          "name": "",
          "type": "uint256"
        }
      ],
      "stateMutability": "view",
      "type": "function"
    },
    {
      "inputs": [
        {
          "internalType": "uint256",
          "name": "id",
          "type": "uint256"
        },
        {
          "internalType": "uint256",
          "name": "toTier",
          "type": "uint256"
        }
      ],
      "name": "handleUpgradeCosmicLevel",
      "outputs": [],
      "stateMutability": "nonpayable",
      "type": "function"
    },
    {
      "inputs": [
        {
          "internalType": "uint256",
          "name": "id",
          "type": "uint256"
        },
        {
          "internalType": "uint256",
          "name": "toTier",
          "type": "uint256"
        }
      ],
      "name": "handleUpgradeGamerScore",
      "outputs": [],
      "stateMutability": "nonpayable",
      "type": "function"
    },
    {
      "inputs": [
        {
          "internalType": "uint256",
          "name": "id",
          "type": "uint256"
        },
        {
          "internalType": "uint256",
          "name": "cl",
          "type": "uint256"
        },
        {
          "internalType": "uint256",
          "name": "el",
          "type": "uint256"
        }
      ],
      "name": "initStats",
      "outputs": [],
      "stateMutability": "nonpayable",
      "type": "function"
    },
    {
      "inputs": [
        {
          "internalType": "address",
          "name": "owner",
          "type": "address"
        },
        {
          "internalType": "address",
          "name": "operator",
          "type": "address"
        }
      ],
      "name": "isApprovedForAll",
      "outputs": [
        {
          "internalType": "bool",
          "name": "",
          "type": "bool"
        }
      ],
      "stateMutability": "view",
      "type": "function"
    },
    {
      "inputs": [
        {
          "internalType": "address",
          "name": "",
          "type": "address"
        }
      ],
      "name": "isElementalStone",
      "outputs": [
        {
          "internalType": "bool",
          "name": "",
          "type": "bool"
        }
      ],
      "stateMutability": "view",
      "type": "function"
    },
    {
      "inputs": [
        {
          "internalType": "uint256",
          "name": "girlId",
          "type": "uint256"
        }
      ],
      "name": "isPaired",
      "outputs": [
        {
          "internalType": "bool",
          "name": "",
          "type": "bool"
        }
      ],
      "stateMutability": "view",
      "type": "function"
    },
    {
      "inputs": [
        {
          "internalType": "address",
          "name": "",
          "type": "address"
        }
      ],
      "name": "isWorker",
      "outputs": [
        {
          "internalType": "bool",
          "name": "",
          "type": "bool"
        }
      ],
      "stateMutability": "view",
      "type": "function"
    },
    {
      "inputs": [
        {
          "internalType": "uint256",
          "name": "",
          "type": "uint256"
        }
      ],
      "name": "matchedElementCosts",
      "outputs": [
        {
          "internalType": "uint256",
          "name": "",
          "type": "uint256"
        }
      ],
      "stateMutability": "view",
      "type": "function"
    },
    {
      "inputs": [
        {
          "internalType": "bool",
          "name": "usingOrb",
          "type": "bool"
        },
        {
          "internalType": "uint256",
          "name": "orbId",
          "type": "uint256"
        },
        {
          "internalType": "uint256",
          "name": "amount",
          "type": "uint256"
        }
      ],
      "name": "mint",
      "outputs": [],
      "stateMutability": "payable",
      "type": "function"
    },
    {
      "inputs": [],
      "name": "moonstone",
      "outputs": [
        {
          "internalType": "contract IERC20",
          "name": "",
          "type": "address"
        }
      ],
      "stateMutability": "view",
      "type": "function"
    },
    {
      "inputs": [],
      "name": "name",
      "outputs": [
        {
          "internalType": "string",
          "name": "",
          "type": "string"
        }
      ],
      "stateMutability": "view",
      "type": "function"
    },
    {
      "inputs": [
        {
          "internalType": "address",
          "name": "",
          "type": "address"
        },
        {
          "internalType": "address",
          "name": "",
          "type": "address"
        },
        {
          "internalType": "uint256",
          "name": "",
          "type": "uint256"
        },
        {
          "internalType": "bytes",
          "name": "",
          "type": "bytes"
        }
      ],
      "name": "onERC721Received",
      "outputs": [
        {
          "internalType": "bytes4",
          "name": "",
          "type": "bytes4"
        }
      ],
      "stateMutability": "nonpayable",
      "type": "function"
    },
    {
      "inputs": [],
      "name": "orb",
      "outputs": [
        {
          "internalType": "contract IERC721",
          "name": "",
          "type": "address"
        }
      ],
      "stateMutability": "view",
      "type": "function"
    },
    {
      "inputs": [],
      "name": "orbRarity",
      "outputs": [
        {
          "internalType": "contract IOrbRarity",
          "name": "",
          "type": "address"
        }
      ],
      "stateMutability": "view",
      "type": "function"
    },
    {
      "inputs": [],
      "name": "owner",
      "outputs": [
        {
          "internalType": "address",
          "name": "",
          "type": "address"
        }
      ],
      "stateMutability": "view",
      "type": "function"
    },
    {
      "inputs": [
        {
          "internalType": "uint256",
          "name": "tokenId",
          "type": "uint256"
        }
      ],
      "name": "ownerOf",
      "outputs": [
        {
          "internalType": "address",
          "name": "",
          "type": "address"
        }
      ],
      "stateMutability": "view",
      "type": "function"
    },
    {
      "inputs": [
        {
          "internalType": "uint256",
          "name": "",
          "type": "uint256"
        }
      ],
      "name": "paired",
      "outputs": [
        {
          "internalType": "bool",
          "name": "",
          "type": "bool"
        }
      ],
      "stateMutability": "view",
      "type": "function"
    },
    {
      "inputs": [],
      "name": "renounceOwnership",
      "outputs": [],
      "stateMutability": "nonpayable",
      "type": "function"
    },
    {
      "inputs": [
        {
          "internalType": "uint256",
          "name": "_tokenId",
          "type": "uint256"
        },
        {
          "internalType": "uint256",
          "name": "_salePrice",
          "type": "uint256"
        }
      ],
      "name": "royaltyInfo",
      "outputs": [
        {
          "internalType": "address",
          "name": "receiver",
          "type": "address"
        },
        {
          "internalType": "uint256",
          "name": "royaltyAmount",
          "type": "uint256"
        }
      ],
      "stateMutability": "view",
      "type": "function"
    },
    {
      "inputs": [
        {
          "internalType": "address",
          "name": "from",
          "type": "address"
        },
        {
          "internalType": "address",
          "name": "to",
          "type": "address"
        },
        {
          "internalType": "uint256",
          "name": "tokenId",
          "type": "uint256"
        }
      ],
      "name": "safeTransferFrom",
      "outputs": [],
      "stateMutability": "nonpayable",
      "type": "function"
    },
    {
      "inputs": [
        {
          "internalType": "address",
          "name": "from",
          "type": "address"
        },
        {
          "internalType": "address",
          "name": "to",
          "type": "address"
        },
        {
          "internalType": "uint256",
          "name": "tokenId",
          "type": "uint256"
        },
        {
          "internalType": "bytes",
          "name": "_data",
          "type": "bytes"
        }
      ],
      "name": "safeTransferFrom",
      "outputs": [],
      "stateMutability": "nonpayable",
      "type": "function"
    },
    {
      "inputs": [
        {
          "internalType": "address",
          "name": "operator",
          "type": "address"
        },
        {
          "internalType": "bool",
          "name": "approved",
          "type": "bool"
        }
      ],
      "name": "setApprovalForAll",
      "outputs": [],
      "stateMutability": "nonpayable",
      "type": "function"
    },
    {
      "inputs": [
        {
          "internalType": "address",
          "name": "_a",
          "type": "address"
        }
      ],
      "name": "setAttunementContract",
      "outputs": [],
      "stateMutability": "nonpayable",
      "type": "function"
    },
    {
      "inputs": [
        {
          "internalType": "string",
          "name": "_newBaseURI",
          "type": "string"
        }
      ],
      "name": "setBaseURI",
      "outputs": [],
      "stateMutability": "nonpayable",
      "type": "function"
    },
    {
      "inputs": [
        {
          "internalType": "uint256",
          "name": "_newCost",
          "type": "uint256"
        }
      ],
      "name": "setCost",
      "outputs": [],
      "stateMutability": "nonpayable",
      "type": "function"
    },
    {
      "inputs": [
        {
          "internalType": "uint256",
          "name": "_id",
          "type": "uint256"
        },
        {
          "internalType": "uint256",
          "name": "_newElement",
          "type": "uint256"
        }
      ],
      "name": "setElement",
      "outputs": [],
      "stateMutability": "nonpayable",
      "type": "function"
    },
    {
      "inputs": [
        {
          "internalType": "address",
          "name": "_es",
          "type": "address"
        }
      ],
      "name": "setElementalStoneContract",
      "outputs": [],
      "stateMutability": "nonpayable",
      "type": "function"
    },
    {
      "inputs": [
        {
          "internalType": "address",
          "name": "_e",
          "type": "address"
        }
      ],
      "name": "setEmissions",
      "outputs": [],
      "stateMutability": "nonpayable",
      "type": "function"
    },
    {
      "inputs": [
        {
          "internalType": "address",
          "name": "_moonstone",
          "type": "address"
        }
      ],
      "name": "setMoonstoneContract",
      "outputs": [],
      "stateMutability": "nonpayable",
      "type": "function"
    },
    {
      "inputs": [
        {
          "internalType": "address",
          "name": "_orbRarity",
          "type": "address"
        }
      ],
      "name": "setOrbRarity",
      "outputs": [],
      "stateMutability": "nonpayable",
      "type": "function"
    },
    {
      "inputs": [
        {
          "internalType": "uint256",
          "name": "_id",
          "type": "uint256"
        },
        {
          "internalType": "bool",
          "name": "_paired",
          "type": "bool"
        }
      ],
      "name": "setPaired",
      "outputs": [],
      "stateMutability": "nonpayable",
      "type": "function"
    },
    {
      "inputs": [
        {
          "internalType": "address",
          "name": "newRecipient",
          "type": "address"
        }
      ],
      "name": "setRoyalties",
      "outputs": [],
      "stateMutability": "nonpayable",
      "type": "function"
    },
    {
      "inputs": [
        {
          "internalType": "address",
          "name": "_worker",
          "type": "address"
        },
        {
          "internalType": "bool",
          "name": "_isWorker",
          "type": "bool"
        }
      ],
      "name": "setWorker",
      "outputs": [],
      "stateMutability": "nonpayable",
      "type": "function"
    },
    {
      "inputs": [
        {
          "internalType": "bytes4",
          "name": "interfaceId",
          "type": "bytes4"
        }
      ],
      "name": "supportsInterface",
      "outputs": [
        {
          "internalType": "bool",
          "name": "",
          "type": "bool"
        }
      ],
      "stateMutability": "view",
      "type": "function"
    },
    {
      "inputs": [],
      "name": "symbol",
      "outputs": [
        {
          "internalType": "string",
          "name": "",
          "type": "string"
        }
      ],
      "stateMutability": "view",
      "type": "function"
    },
    {
      "inputs": [
        {
          "internalType": "uint256",
          "name": "index",
          "type": "uint256"
        }
      ],
      "name": "tokenByIndex",
      "outputs": [
        {
          "internalType": "uint256",
          "name": "",
          "type": "uint256"
        }
      ],
      "stateMutability": "view",
      "type": "function"
    },
    {
      "inputs": [
        {
          "internalType": "address",
          "name": "owner",
          "type": "address"
        },
        {
          "internalType": "uint256",
          "name": "index",
          "type": "uint256"
        }
      ],
      "name": "tokenOfOwnerByIndex",
      "outputs": [
        {
          "internalType": "uint256",
          "name": "",
          "type": "uint256"
        }
      ],
      "stateMutability": "view",
      "type": "function"
    },
    {
      "inputs": [
        {
          "internalType": "uint256",
          "name": "tokenId",
          "type": "uint256"
        }
      ],
      "name": "tokenURI",
      "outputs": [
        {
          "internalType": "string",
          "name": "",
          "type": "string"
        }
      ],
      "stateMutability": "view",
      "type": "function"
    },
    {
      "inputs": [],
      "name": "totalSupply",
      "outputs": [
        {
          "internalType": "uint256",
          "name": "",
          "type": "uint256"
        }
      ],
      "stateMutability": "view",
      "type": "function"
    },
    {
      "inputs": [
        {
          "internalType": "address",
          "name": "from",
          "type": "address"
        },
        {
          "internalType": "address",
          "name": "to",
          "type": "address"
        },
        {
          "internalType": "uint256",
          "name": "tokenId",
          "type": "uint256"
        }
      ],
      "name": "transferFrom",
      "outputs": [],
      "stateMutability": "nonpayable",
      "type": "function"
    },
    {
      "inputs": [
        {
          "internalType": "address",
          "name": "newOwner",
          "type": "address"
        }
      ],
      "name": "transferOwnership",
      "outputs": [],
      "stateMutability": "nonpayable",
      "type": "function"
    },
    {
      "inputs": [
        {
          "internalType": "uint256",
          "name": "",
          "type": "uint256"
        }
      ],
      "name": "unmatchedElementCosts",
      "outputs": [
        {
          "internalType": "uint256",
          "name": "",
          "type": "uint256"
        }
      ],
      "stateMutability": "view",
      "type": "function"
    },
    {
      "inputs": [
        {
          "internalType": "address",
          "name": "_owner",
          "type": "address"
        }
      ],
      "name": "walletOfOwner",
      "outputs": [
        {
          "internalType": "uint256[]",
          "name": "",
          "type": "uint256[]"
        }
      ],
      "stateMutability": "view",
      "type": "function"
    },
    {
      "inputs": [
        {
          "internalType": "address payable",
          "name": "_rest",
          "type": "address"
        }
      ],
      "name": "withdraw",
      "outputs": [],
      "stateMutability": "nonpayable",
      "type": "function"
    }
  ],
  "bytecode": "0x6019600e55600a600f9081556103c060405260006080908152600460a081905260c081905260e05260056101008190526101208190526101408190526101608190526101805260066101a08190526101c05260076101e052600861020081905261022081905261024081905261026052600b6102808190526102a08190526102c052600c6102e08190526103005261032091909152601061034081905261036081905260116103808190526103a052620000bb91601a620004d2565b50604080516101408101825260008152600260208201526003918101829052606081019190915260046080820152600660a0820152600860c0820152600b60e0820152600e61010082015260126101208201526200011e90602a90600a6200051a565b506040805161014081018252600080825260208201819052918101919091526001606082015260026080820152600360a0820152600460c0820152600560e0820152600761010082015260096101208201526200018090603490600a6200051a565b50605a6041556005604255600f604355611388604955348015620001a357600080fd5b506040516200433438038062004334833981016040819052620001c69162000600565b604080518082018252600f81526e151bdade5bc815195cdd0811da5c9b608a1b60208083019182528351808501909452600384526254544760e81b90840152815191929162000218916000916200054f565b5080516200022e9060019060208401906200054f565b5050506200024b62000245620002d260201b60201c565b620002d6565b603e80546001600160a01b0319166001600160a01b038616179055620002718562000328565b6200027c836200034b565b620002878162000377565b620002943360016200038f565b620002a7674563918244f40000620003c4565b50604a80546001600160a01b0319166001600160a01b03929092169190911790555062000776915050565b3390565b600a80546001600160a01b038381166001600160a01b0319831681179093556040519116919082907f8be0079c531659141344cd1fd0a4f28419497f9722a3daafe3b4186f6b6457e090600090a35050565b62000332620003e1565b8051620003479060489060208401906200054f565b5050565b62000355620003e1565b604780546001600160a01b0319166001600160a01b0392909216919091179055565b62000381620003e1565b6200038c8162000443565b50565b62000399620003e1565b6001600160a01b03919091166000908152604e60205260409020805460ff1916911515919091179055565b620003ce620003e1565b60008111620003dc57600080fd5b604055565b600a546001600160a01b03163314620004415760405162461bcd60e51b815260206004820181905260248201527f4f776e61626c653a2063616c6c6572206973206e6f7420746865206f776e657260448201526064015b60405180910390fd5b565b6001600160a01b038116620004b05760405162461bcd60e51b815260206004820152602c60248201527f526f79616c746965733a206e657720726563697069656e74206973207468652060448201526b7a65726f206164647265737360a01b606482015260840162000438565b604b80546001600160a01b0319166001600160a01b0392909216919091179055565b82601a810192821562000508579160200282015b8281111562000508578251829060ff16905591602001919060010190620004e6565b5062000516929150620005cc565b5090565b82600a810192821562000508579160200282018281111562000508578251829060ff16905591602001919060010190620004e6565b8280546200055d9062000723565b90600052602060002090601f01602090048101928262000581576000855562000508565b82601f106200059c57805160ff191683800117855562000508565b8280016001018555821562000508579182015b8281111562000508578251825591602001919060010190620005af565b5b80821115620005165760008155600101620005cd565b80516001600160a01b0381168114620005fb57600080fd5b919050565b600080600080600060a0868803121562000618578081fd5b85516001600160401b03808211156200062f578283fd5b818801915088601f83011262000643578283fd5b81518181111562000658576200065862000760565b604051601f8201601f19908116603f0116810190838211818310171562000683576200068362000760565b81604052828152602093508b848487010111156200069f578586fd5b8591505b82821015620006c25784820184015181830185015290830190620006a3565b82821115620006d357858484830101525b9850620006e5915050888201620005e3565b95505050620006f760408701620005e3565b92506200070760608701620005e3565b91506200071760808701620005e3565b90509295509295909350565b600181811c908216806200073857607f821691505b602082108114156200075a57634e487b7160e01b600052602260045260246000fd5b50919050565b634e487b7160e01b600052604160045260246000fd5b613bae80620007866000396000f3fe6080604052600436106103e45760003560e01c80636352211e11610208578063b060dd8611610118578063e00cda26116100ab578063f2fde38b1161007a578063f2fde38b14610cb0578063f909a9cf14610cd0578063fd79e7ac14610cfd578063ff23d7d314610d1d578063ff91078314610d3d57600080fd5b8063e00cda2614610c11578063e985e9c514610c27578063f090e00414610c70578063f2731f4a14610c9d57600080fd5b8063c3ca39f8116100e7578063c3ca39f814610b84578063c4e2676714610ba4578063c87b56dd14610bc4578063d066100614610be457600080fd5b8063b060dd8614610b14578063b88d4fde14610b2f578063bd3e19d414610b4f578063c373d7f314610b6457600080fd5b8063814e1bb81161019b578063a16e72151161016a578063a16e721514610a57578063a22b36ef14610a77578063a22cb46514610aa4578063a388237d14610ac4578063aa15664514610ae457600080fd5b8063814e1bb8146109d45780638da5cb5b146109f45780638efab2d514610a1257806395d89b4114610a4257600080fd5b806370a08231116101d757806370a082311461095f578063715018a61461097f57806373ae2d78146109945780637a6832a5146109b457600080fd5b80636352211e146108df578063690d1ca2146108ff578063692502201461091f5780636aa5dd711461093f57600080fd5b80632a9e63c611610303578063438b63001161029657806351cff8d91161026557806351cff8d91461083257806355f804b314610852578063562d412f1461087257806358d70d741461089f5780635c5ac79a146108bf57600080fd5b8063438b6300146107a557806344a0d68a146107c557806349af0b94146107e55780634f6ccce71461081257600080fd5b80633f1ed709116102d25780633f1ed709146106f35780633f74c5961461071357806340a3c3381461074057806342842e0e1461078557600080fd5b80632a9e63c6146106665780632f745c59146106865780633a7d22bc146106a65780633c010930146106d357600080fd5b806312cbd7051161037b5780631eeb2f4f1161034a5780631eeb2f4f146105c75780632267716c146105e757806323b872dd146106075780632a55205a1461062757600080fd5b806312cbd7051461052a578063150b7a021461055a57806318160ddd146105935780631c8a76c5146105b257600080fd5b806308e6981e116103b757806308e6981e1461049a578063095ea7b3146104ba5780630b689417146104da5780630f3b899b1461050a57600080fd5b806301ffc9a7146103e957806306fdde031461041e578063081812fc1461044057806308834ee714610478575b600080fd5b3480156103f557600080fd5b5061040961040436600461373e565b610d5d565b60405190151581526020015b60405180910390f35b34801561042a57600080fd5b50610433610d88565b6040516104159190613936565b34801561044c57600080fd5b5061046061045b3660046137bc565b610e1a565b6040516001600160a01b039091168152602001610415565b34801561048457600080fd5b50610498610493366004613589565b610e41565b005b3480156104a657600080fd5b506104986104b536600461382f565b610e6b565b3480156104c657600080fd5b506104986104d53660046136e1565b610f36565b3480156104e657600080fd5b506104096104f53660046137bc565b6000908152604d602052604090205460ff1690565b34801561051657600080fd5b50604654610460906001600160a01b031681565b34801561053657600080fd5b50610409610545366004613589565b604c6020526000908152604090205460ff1681565b34801561056657600080fd5b5061057a610575366004613639565b611051565b6040516001600160e01b03199091168152602001610415565b34801561059f57600080fd5b506008545b604051908152602001610415565b3480156105be57600080fd5b506105a4611062565b3480156105d357600080fd5b506104986105e2366004613589565b611085565b3480156105f357600080fd5b50604754610460906001600160a01b031681565b34801561061357600080fd5b506104986106223660046135f9565b6110af565b34801561063357600080fd5b5061064761064236600461380e565b611143565b604080516001600160a01b039093168352602083019190915201610415565b34801561067257600080fd5b50610498610681366004613589565b611165565b34801561069257600080fd5b506105a46106a13660046136e1565b611179565b3480156106b257600080fd5b506105a46106c13660046137bc565b6000908152600d602052604090205490565b3480156106df57600080fd5b506105a46106ee36600461380e565b61120f565b3480156106ff57600080fd5b5061049861070e3660046137ec565b61130a565b34801561071f57600080fd5b5061073361072e36600461380e565b61139e565b60405161041591906138f2565b34801561074c57600080fd5b5061076061075b3660046137bc565b611430565b604080516001600160a01b039094168452911515602084015290820152606001610415565b34801561079157600080fd5b506104986107a03660046135f9565b611469565b3480156107b157600080fd5b506107336107c0366004613589565b611484565b3480156107d157600080fd5b506104986107e03660046137bc565b611542565b3480156107f157600080fd5b506105a46108003660046137bc565b60446020526000908152604090205481565b34801561081e57600080fd5b506105a461082d3660046137bc565b61155c565b34801561083e57600080fd5b5061049861084d366004613589565b6115fd565b34801561085e57600080fd5b5061049861086d366004613776565b61167d565b34801561087e57600080fd5b506105a461088d3660046137bc565b600c6020526000908152604090205481565b3480156108ab57600080fd5b50604554610460906001600160a01b031681565b3480156108cb57600080fd5b50603f54610460906001600160a01b031681565b3480156108eb57600080fd5b506104606108fa3660046137bc565b61169c565b34801561090b57600080fd5b5061049861091a366004613589565b6116fc565b34801561092b57600080fd5b5061049861093a36600461380e565b611728565b34801561094b57600080fd5b5061049861095a36600461380e565b611890565b34801561096b57600080fd5b506105a461097a366004613589565b61196f565b34801561098b57600080fd5b506104986119f5565b3480156109a057600080fd5b506107336109af36600461380e565b611a09565b3480156109c057600080fd5b506104986109cf366004613589565b611c54565b3480156109e057600080fd5b506105a46109ef3660046137bc565b611c7e565b348015610a0057600080fd5b50600a546001600160a01b0316610460565b348015610a1e57600080fd5b50610409610a2d3660046137bc565b604d6020526000908152604090205460ff1681565b348015610a4e57600080fd5b50610433611c95565b348015610a6357600080fd5b50610498610a7236600461380e565b611ca4565b348015610a8357600080fd5b506105a4610a923660046137bc565b6000908152600c602052604090205490565b348015610ab057600080fd5b50610498610abf3660046136b6565b611cfc565b348015610ad057600080fd5b50610498610adf366004613589565b611d07565b348015610af057600080fd5b50610409610aff366004613589565b604e6020526000908152604090205460ff1681565b348015610b2057600080fd5b5061057a63152a902d60e11b81565b348015610b3b57600080fd5b50610498610b4a366004613639565b611d31565b348015610b5b57600080fd5b506040546105a4565b348015610b7057600080fd5b50610498610b7f3660046136b6565b611d94565b348015610b9057600080fd5b506105a4610b9f36600461380e565b611dc7565b348015610bb057600080fd5b506105a4610bbf3660046137bc565b611ed0565b348015610bd057600080fd5b50610433610bdf3660046137bc565b611ee0565b348015610bf057600080fd5b506105a4610bff3660046137bc565b6000908152600b602052604090205490565b348015610c1d57600080fd5b506105a460425481565b348015610c3357600080fd5b50610409610c423660046135c1565b6001600160a01b03918216600090815260056020908152604080832093909416825291909152205460ff1690565b348015610c7c57600080fd5b506105a4610c8b3660046137bc565b600d6020526000908152604090205481565b610498610cab36600461370c565b611fba565b348015610cbc57600080fd5b50610498610ccb366004613589565b61249e565b348015610cdc57600080fd5b506105a4610ceb3660046137bc565b600b6020526000908152604090205481565b348015610d0957600080fd5b506105a4610d183660046137bc565b612514565b348015610d2957600080fd5b506105a4610d383660046137bc565b612524565b348015610d4957600080fd5b50603e54610460906001600160a01b031681565b60006001600160e01b0319821663152a902d60e11b1480610d825750610d8282612540565b92915050565b606060008054610d9790613acb565b80601f0160208091040260200160405190810160405280929190818152602001828054610dc390613acb565b8015610e105780601f10610de557610100808354040283529160200191610e10565b820191906000526020600020905b815481529060010190602001808311610df357829003601f168201915b5050505050905090565b6000610e2582612565565b506000908152600460205260409020546001600160a01b031690565b610e496125c4565b604780546001600160a01b0319166001600160a01b0392909216919091179055565b610e736125c4565b6000838152600b60209081526040808320859055600d9091529020819055604754604051632b017cb760e01b8152600481018590526001600160a01b0390911690632b017cb790602401600060405180830381600087803b158015610ed757600080fd5b505af1158015610eeb573d6000803e3d6000fd5b505060408051868152602081018690529081018490527fd61e1c6078dbe8c00ff44edafbf29b5084c488aadbbf8d84f3b95c1ea3c1438c9250606001905060405180910390a1505050565b6000610f418261169c565b9050806001600160a01b0316836001600160a01b03161415610fb45760405162461bcd60e51b815260206004820152602160248201527f4552433732313a20617070726f76616c20746f2063757272656e74206f776e656044820152603960f91b60648201526084015b60405180910390fd5b336001600160a01b0382161480610fd05750610fd08133610c42565b6110425760405162461bcd60e51b815260206004820152603d60248201527f4552433732313a20617070726f76652063616c6c6572206973206e6f7420746f60448201527f6b656e206f776e6572206f7220617070726f76656420666f7220616c6c0000006064820152608401610fab565b61104c838361261e565b505050565b630a85bd0160e11b5b949350505050565b600060646041546040546110769190613a69565b6110809190613a49565b905090565b61108d6125c4565b603f80546001600160a01b0319166001600160a01b0392909216919091179055565b6110b9338261268c565b6110d55760405162461bcd60e51b8152600401610fab906139e0565b6110e083838361270a565b60465460405163add058fd60e01b8152600481018390526001600160a01b039091169063add058fd90602401600060405180830381600087803b15801561112657600080fd5b505af115801561113a573d6000803e3d6000fd5b50505050505050565b604b546001600160a01b0316600061115c601484613a49565b90509250929050565b61116d6125c4565b6111768161287b565b50565b60006111848361196f565b82106111e65760405162461bcd60e51b815260206004820152602b60248201527f455243373231456e756d657261626c653a206f776e657220696e646578206f7560448201526a74206f6620626f756e647360a81b6064820152608401610fab565b506001600160a01b03919091166000908152600660209081526040808320938352929052205490565b6000600182101580156112245750600e548211155b6112815760405162461bcd60e51b815260206004820152602860248201527f557067726164653a20746f54696572206d757374206265206265747765656e206044820152673120616e6420323560c01b6064820152608401610fab565b6000838152600c602052604090205482116112f95760405162461bcd60e51b815260206004820152603260248201527f557067726164653a20746f54696572206d7573742062652067726561746572206044820152711d1a185b8818dd5c9c995b9d081b195d995b60721b6064820152608401610fab565b6113038383611dc7565b9392505050565b336000908152604c602052604090205460ff168061133257506046546001600160a01b031633145b61137e5760405162461bcd60e51b815260206004820152601d60248201527f4769726c3a206f6e6c79204553206f72204174742063616e2063616c6c0000006044820152606401610fab565b6000918252604d6020526040909120805460ff1916911515919091179055565b6000828152600b6020526040902054606090821180156113bf5750600a8211155b6114265760405162461bcd60e51b815260206004820152603260248201527f557067726164653a2074696572206d757374206265206265747765656e20637560448201527107272656e74206c6576656c20616e642031360741b6064820152608401610fab565b6113038383611a09565b600080600061143e8461169c565b6000948552604d6020908152604080872054600d90925290952054909560ff90951694909350915050565b6110e083838360405180602001604052806000815250611d31565b606060006114918361196f565b905060008167ffffffffffffffff8111156114bc57634e487b7160e01b600052604160045260246000fd5b6040519080825280602002602001820160405280156114e5578160200160208202803683370190505b50905060005b8281101561153a576114fd8582611179565b82828151811061151d57634e487b7160e01b600052603260045260246000fd5b60209081029190910101528061153281613b06565b9150506114eb565b509392505050565b61154a6125c4565b6000811161155757600080fd5b604055565b600061156760085490565b82106115ca5760405162461bcd60e51b815260206004820152602c60248201527f455243373231456e756d657261626c653a20676c6f62616c20696e646578206f60448201526b7574206f6620626f756e647360a01b6064820152608401610fab565b600882815481106115eb57634e487b7160e01b600052603260045260246000fd5b90600052602060002001549050919050565b6116056125c4565b604a5447906001600160a01b03166108fc61161f83612908565b6040518115909202916000818181858888f19350505050158015611647573d6000803e3d6000fd5b506040516001600160a01b038316904780156108fc02916000818181858888f1935050505015801561104c573d6000803e3d6000fd5b6116856125c4565b8051611698906048906020840190613465565b5050565b6000818152600260205260408120546001600160a01b031680610d825760405162461bcd60e51b8152602060048201526018602482015277115490cdcc8c4e881a5b9d985b1a59081d1bdad95b88125160421b6044820152606401610fab565b6117046125c4565b6001600160a01b03166000908152604c60205260409020805460ff19166001179055565b6045546001600160a01b031633146117965760405162461bcd60e51b815260206004820152602b60248201527f4769726c3a206f6e6c79206d6f6f6e73746f6e652063616e207570677261646560448201526a2067616d657273636f726560a81b6064820152608401610fab565b6000828152600c6020908152604080832054600b9092529182902054604754925163b3c9524b60e01b815260048101869052919290916001600160a01b039091169063b3c9524b90602401600060405180830381600087803b1580156117fb57600080fd5b505af115801561180f573d6000803e3d6000fd5b5050505061181d8484612924565b604754604051632d7f86bb60e11b81526004810186905260248101849052604481018390526001600160a01b0390911690635aff0d76906064015b600060405180830381600087803b15801561187257600080fd5b505af1158015611886573d6000803e3d6000fd5b5050505050505050565b336000908152604c602052604090205460ff166118e85760405162461bcd60e51b815260206004820152601660248201527511da5c9b0e881bdb9b1e481154c818d85b8818d85b1b60521b6044820152606401610fab565b6000828152600c6020908152604080832054600b9092529182902054604754925163b3c9524b60e01b815260048101869052919290916001600160a01b039091169063b3c9524b90602401600060405180830381600087803b15801561194d57600080fd5b505af1158015611961573d6000803e3d6000fd5b5050505061181d848461296c565b60006001600160a01b0382166119d95760405162461bcd60e51b815260206004820152602960248201527f4552433732313a2061646472657373207a65726f206973206e6f7420612076616044820152683634b21037bbb732b960b91b6064820152608401610fab565b506001600160a01b031660009081526003602052604090205490565b6119fd6125c4565b611a0760006129b4565b565b6060600f54821115611a5d5760405162461bcd60e51b815260206004820152601f60248201527f557067726164653a204d617820636f736d6963206c6576656c206973203130006044820152606401610fab565b6000838152600b6020526040902054600f548110611ac75760405162461bcd60e51b815260206004820152602160248201527f557067726164653a20636f736d6963206c6576656c20616c7265616479206d616044820152600f60fb1b6064820152608401610fab565b6000848152600d602052604080822054815160038082526080820190935290929181602001602082028036833701905050905060008080611b09866001613a31565b90505b878111611b9557602a611b20600183613a88565b600a8110611b3e57634e487b7160e01b600052603260045260246000fd5b0154611b4a9084613a31565b92506034611b59600183613a88565b600a8110611b7757634e487b7160e01b600052603260045260246000fd5b0154611b839083613a31565b9150611b8e81613b06565b9050611b0c565b508183611ba3600187613a88565b81518110611bc157634e487b7160e01b600052603260045260246000fd5b60200260200101818152505060005b8351811015611c4757838181518110611bf957634e487b7160e01b600052603260045260246000fd5b602002602001015160001415611c375781848281518110611c2a57634e487b7160e01b600052603260045260246000fd5b6020026020010181815250505b611c4081613b06565b9050611bd0565b5091979650505050505050565b611c5c6125c4565b604580546001600160a01b0319166001600160a01b0392909216919091179055565b601081601a8110611c8e57600080fd5b0154905081565b606060018054610d9790613acb565b611cac6125c4565b6000828152600d602090815260409182902083905581518481529081018390527fe9d2aa95a8bcda1481b0316470d5993a8d561039f5db3f8222f8d526e03c0a1b91015b60405180910390a15050565b611698338383612a06565b611d0f6125c4565b604680546001600160a01b0319166001600160a01b0392909216919091179055565b611d3b338361268c565b611d575760405162461bcd60e51b8152600401610fab906139e0565b611d6384848484612ad5565b60465460405163add058fd60e01b8152600481018490526001600160a01b039091169063add058fd90602401611858565b611d9c6125c4565b6001600160a01b03919091166000908152604e60205260409020805460ff1916911515919091179055565b6000600e54821115611e1b5760405162461bcd60e51b815260206004820152601e60248201527f557067726164653a204d61782073636f7265206973206c6576656c20323500006044820152606401610fab565b6000838152600c6020526040902054600e548110611e7b5760405162461bcd60e51b815260206004820152601f60248201527f557067726164653a204769726c20616c7265616479206d6178206c6576656c006044820152606401610fab565b6000815b848111611ec757601081601a8110611ea757634e487b7160e01b600052603260045260246000fd5b0154611eb39083613a31565b915080611ebf81613b06565b915050611e7f565b50949350505050565b603481600a8110611c8e57600080fd5b6000818152600260205260409020546060906001600160a01b0316611f5f5760405162461bcd60e51b815260206004820152602f60248201527f4552433732314d657461646174613a2055524920717565727920666f72206e6f60448201526e3732bc34b9ba32b73a103a37b5b2b760891b6064820152608401610fab565b6000611f69612b0e565b90506000815111611f895760405180602001604052806000815250611303565b80611f9384612b1d565b604051602001611fa4929190613886565b6040516020818303038152906040529392505050565b336000611fc660085490565b90506000611fd5826001613a31565b9050600060018510158015611feb575060058511155b6120375760405162461bcd60e51b815260206004820152601860248201527f4769726c3a20616d6f756e74203120746f2035206f6e6c7900000000000000006044820152606401610fab565b6049546120448685613a31565b11156120835760405162461bcd60e51b815260206004820152600e60248201526d11da5c9b0e881cdbdb19081bdd5d60921b6044820152606401610fab565b86156123d257603e546040516331a9108f60e11b8152600481018890526001600160a01b03868116921690636352211e9060240160206040518083038186803b1580156120cf57600080fd5b505afa1580156120e3573d6000803e3d6000fd5b505050506040513d601f19601f8201168201806040525081019061210791906135a5565b6001600160a01b0316146121535760405162461bcd60e51b815260206004820152601360248201527223b4b9361d103737ba1037b9311037bbb732b960691b6044820152606401610fab565b61215c86612524565b8511156121ab5760405162461bcd60e51b815260206004820152601f60248201527f4769726c3a20616d6f756e74206d757374206265203c3d2063686172676573006044820152606401610fab565b846121b4611062565b6121be9190613a69565b3410156122085760405162461bcd60e51b81526020600482015260186024820152774769726c3a2073656e6420636f727265637420707269636560401b6044820152606401610fab565b60005b858110156123cc5761221c87612bc0565b91508160061461235f57603e546040516323b872dd60e01b81526001600160a01b038781166004830152306024830152604482018a9052909116906323b872dd90606401600060405180830381600087803b15801561227a57600080fd5b505af115801561228e573d6000803e3d6000fd5b5050603e546040516331a9108f60e11b8152600481018b90523093506001600160a01b039091169150636352211e9060240160206040518083038186803b1580156122d857600080fd5b505afa1580156122ec573d6000803e3d6000fd5b505050506040513d601f19601f8201168201806040525081019061231091906135a5565b6001600160a01b03161461235f5760405162461bcd60e51b815260206004820152601660248201527511da5c9b0e881bdc98881b9bdd081c9958da595d995960521b6044820152606401610fab565b6123728561236d8386613a31565b612ccb565b818815156123808386613a31565b6040516001600160a01b03891681527f1f1fc7f871c5573b0f1fde9f6e1f67d93527049f30fde62e53af0333b35839229060200160405180910390a46123c581613b06565b905061220b565b5061113a565b846040546123e09190613a69565b34101561242a5760405162461bcd60e51b81526020600482015260186024820152774769726c3a2073656e6420636f727265637420707269636560401b6044820152606401610fab565b60005b85811015611886576124438561236d8386613a31565b60068815156124528386613a31565b6040516001600160a01b03891681527f1f1fc7f871c5573b0f1fde9f6e1f67d93527049f30fde62e53af0333b35839229060200160405180910390a461249781613b06565b905061242d565b6124a66125c4565b6001600160a01b03811661250b5760405162461bcd60e51b815260206004820152602660248201527f4f776e61626c653a206e6577206f776e657220697320746865207a65726f206160448201526564647265737360d01b6064820152608401610fab565b611176816129b4565b602a81600a8110611c8e57600080fd5b600081815260446020526040812054604254610d829190613a88565b60006001600160e01b0319821663780e9d6360e01b1480610d825750610d8282612ce5565b6000818152600260205260409020546001600160a01b03166111765760405162461bcd60e51b8152602060048201526018602482015277115490cdcc8c4e881a5b9d985b1a59081d1bdad95b88125160421b6044820152606401610fab565b600a546001600160a01b03163314611a075760405162461bcd60e51b815260206004820181905260248201527f4f776e61626c653a2063616c6c6572206973206e6f7420746865206f776e65726044820152606401610fab565b600081815260046020526040902080546001600160a01b0319166001600160a01b03841690811790915581906126538261169c565b6001600160a01b03167f8c5be1e5ebec7d5bd14f71427d1e84f3dd0314c0f7b2291e5b200ac8c7c3b92560405160405180910390a45050565b6000806126988361169c565b9050806001600160a01b0316846001600160a01b031614806126df57506001600160a01b0380821660009081526005602090815260408083209388168352929052205460ff165b8061105a5750836001600160a01b03166126f884610e1a565b6001600160a01b031614949350505050565b826001600160a01b031661271d8261169c565b6001600160a01b0316146127435760405162461bcd60e51b8152600401610fab9061399b565b6001600160a01b0382166127a55760405162461bcd60e51b8152602060048201526024808201527f4552433732313a207472616e7366657220746f20746865207a65726f206164646044820152637265737360e01b6064820152608401610fab565b6127b28383836001612d35565b826001600160a01b03166127c58261169c565b6001600160a01b0316146127eb5760405162461bcd60e51b8152600401610fab9061399b565b600081815260046020908152604080832080546001600160a01b03199081169091556001600160a01b0387811680865260038552838620805460001901905590871680865283862080546001019055868652600290945282852080549092168417909155905184937fddf252ad1be2c89b69c2b068fc378daa952ba7f163c4a11628f55a4df523b3ef91a4505050565b6001600160a01b0381166128e65760405162461bcd60e51b815260206004820152602c60248201527f526f79616c746965733a206e657720726563697069656e74206973207468652060448201526b7a65726f206164647265737360a01b6064820152608401610fab565b604b80546001600160a01b0319166001600160a01b0392909216919091179055565b600060646043548361291a9190613a69565b610d829190613a49565b6000828152600c602090815260409182902083905581518481529081018390527f866cfb7bcf22266717dccfb6e13d4a8aaf393c0bc2c147cf9df1b747e00370029101611cf0565b6000828152600b602090815260409182902083905581518481529081018390527f56bd88bf537c8134d681abc094b975697025d38f1a7e20c408f3b5e6b4df40b79101611cf0565b600a80546001600160a01b038381166001600160a01b0319831681179093556040519116919082907f8be0079c531659141344cd1fd0a4f28419497f9722a3daafe3b4186f6b6457e090600090a35050565b816001600160a01b0316836001600160a01b03161415612a685760405162461bcd60e51b815260206004820152601960248201527f4552433732313a20617070726f766520746f2063616c6c6572000000000000006044820152606401610fab565b6001600160a01b03838116600081815260056020908152604080832094871680845294825291829020805460ff191686151590811790915591519182527f17307eab39ab6107e8899845ad3d59bd9653f200f220920489ca2b5937696c31910160405180910390a3505050565b612ae084848461270a565b612aec84848484612e75565b612b085760405162461bcd60e51b8152600401610fab90613949565b50505050565b606060488054610d9790613acb565b60606000612b2a83612f7f565b600101905060008167ffffffffffffffff811115612b5857634e487b7160e01b600052604160045260246000fd5b6040519080825280601f01601f191660200182016040528015612b82576020820181803683370190505b5090508181016020015b600019016f181899199a1a9b1b9c1cb0b131b232b360811b600a86061a8153600a8504945084612bbb5761153a565b612b8c565b600081815260446020526040812054600511612c155760405162461bcd60e51b81526020600482015260146024820152734769726c3a206f7574206f66206368617267657360601b6044820152606401610fab565b60008281526044602052604081208054909190612c3190613b06565b9091555060008281526044602052604090205460069060051415610d8257603f54604051634875869760e01b8152600481018590526001600160a01b039091169063487586979060240160206040518083038186803b158015612c9357600080fd5b505afa158015612ca7573d6000803e3d6000fd5b505050506040513d601f19601f8201168201806040525081019061130391906137d4565b611698828260405180602001604052806000815250613057565b60006001600160e01b031982166380ac58cd60e01b1480612d1657506001600160e01b03198216635b5e139f60e01b145b80610d8257506301ffc9a760e01b6001600160e01b0319831614610d82565b612d418484848461308a565b6001811115612db05760405162461bcd60e51b815260206004820152603560248201527f455243373231456e756d657261626c653a20636f6e7365637574697665207472604482015274185b9cd9995c9cc81b9bdd081cdd5c1c1bdc9d1959605a1b6064820152608401610fab565b816001600160a01b038516612e0c57612e0781600880546000838152600960205260408120829055600182018355919091527ff3f7a9fe364faab93b216da50a3214154f22a0a2b415b23a84c8169e8b636ee30155565b612e2f565b836001600160a01b0316856001600160a01b031614612e2f57612e2f8582613112565b6001600160a01b038416612e4b57612e46816131af565b612e6e565b846001600160a01b0316846001600160a01b031614612e6e57612e6e8482613288565b5050505050565b60006001600160a01b0384163b15612f7757604051630a85bd0160e11b81526001600160a01b0385169063150b7a0290612eb99033908990889088906004016138b5565b602060405180830381600087803b158015612ed357600080fd5b505af1925050508015612f03575060408051601f3d908101601f19168201909252612f009181019061375a565b60015b612f5d573d808015612f31576040519150601f19603f3d011682016040523d82523d6000602084013e612f36565b606091505b508051612f555760405162461bcd60e51b8152600401610fab90613949565b805181602001fd5b6001600160e01b031916630a85bd0160e11b14905061105a565b50600161105a565b60008072184f03e93ff9f4daa797ed6e38ed64bf6a1f0160401b8310612fbe5772184f03e93ff9f4daa797ed6e38ed64bf6a1f0160401b830492506040015b6d04ee2d6d415b85acef81000000008310612fea576d04ee2d6d415b85acef8100000000830492506020015b662386f26fc10000831061300857662386f26fc10000830492506010015b6305f5e1008310613020576305f5e100830492506008015b612710831061303457612710830492506004015b60648310613046576064830492506002015b600a8310610d825760010192915050565b61306183836132cc565b61306e6000848484612e75565b61104c5760405162461bcd60e51b8152600401610fab90613949565b6001811115612b08576001600160a01b038416156130d0576001600160a01b038416600090815260036020526040812080548392906130ca908490613a88565b90915550505b6001600160a01b03831615612b08576001600160a01b03831660009081526003602052604081208054839290613107908490613a31565b909155505050505050565b6000600161311f8461196f565b6131299190613a88565b60008381526007602052604090205490915080821461317c576001600160a01b03841660009081526006602090815260408083208584528252808320548484528184208190558352600790915290208190555b5060009182526007602090815260408084208490556001600160a01b039094168352600681528383209183525290812055565b6008546000906131c190600190613a88565b600083815260096020526040812054600880549394509092849081106131f757634e487b7160e01b600052603260045260246000fd5b90600052602060002001549050806008838154811061322657634e487b7160e01b600052603260045260246000fd5b600091825260208083209091019290925582815260099091526040808220849055858252812055600880548061326c57634e487b7160e01b600052603160045260246000fd5b6001900381819060005260206000200160009055905550505050565b60006132938361196f565b6001600160a01b039093166000908152600660209081526040808320868452825280832085905593825260079052919091209190915550565b6001600160a01b0382166133225760405162461bcd60e51b815260206004820181905260248201527f4552433732313a206d696e7420746f20746865207a65726f20616464726573736044820152606401610fab565b6000818152600260205260409020546001600160a01b0316156133875760405162461bcd60e51b815260206004820152601c60248201527f4552433732313a20746f6b656e20616c7265616479206d696e746564000000006044820152606401610fab565b613395600083836001612d35565b6000818152600260205260409020546001600160a01b0316156133fa5760405162461bcd60e51b815260206004820152601c60248201527f4552433732313a20746f6b656e20616c7265616479206d696e746564000000006044820152606401610fab565b6001600160a01b038216600081815260036020908152604080832080546001019055848352600290915280822080546001600160a01b0319168417905551839291907fddf252ad1be2c89b69c2b068fc378daa952ba7f163c4a11628f55a4df523b3ef908290a45050565b82805461347190613acb565b90600052602060002090601f01602090048101928261349357600085556134d9565b82601f106134ac57805160ff19168380011785556134d9565b828001600101855582156134d9579182015b828111156134d95782518255916020019190600101906134be565b506134e59291506134e9565b5090565b5b808211156134e557600081556001016134ea565b600067ffffffffffffffff8084111561351957613519613b37565b604051601f8501601f19908116603f0116810190828211818310171561354157613541613b37565b8160405280935085815286868601111561355a57600080fd5b858560208301376000602087830101525050509392505050565b8035801515811461358457600080fd5b919050565b60006020828403121561359a578081fd5b813561130381613b4d565b6000602082840312156135b6578081fd5b815161130381613b4d565b600080604083850312156135d3578081fd5b82356135de81613b4d565b915060208301356135ee81613b4d565b809150509250929050565b60008060006060848603121561360d578081fd5b833561361881613b4d565b9250602084013561362881613b4d565b929592945050506040919091013590565b6000806000806080858703121561364e578081fd5b843561365981613b4d565b9350602085013561366981613b4d565b925060408501359150606085013567ffffffffffffffff81111561368b578182fd5b8501601f8101871361369b578182fd5b6136aa878235602084016134fe565b91505092959194509250565b600080604083850312156136c8578182fd5b82356136d381613b4d565b915061115c60208401613574565b600080604083850312156136f3578182fd5b82356136fe81613b4d565b946020939093013593505050565b600080600060608486031215613720578283fd5b61372984613574565b95602085013595506040909401359392505050565b60006020828403121561374f578081fd5b813561130381613b62565b60006020828403121561376b578081fd5b815161130381613b62565b600060208284031215613787578081fd5b813567ffffffffffffffff81111561379d578182fd5b8201601f810184136137ad578182fd5b61105a848235602084016134fe565b6000602082840312156137cd578081fd5b5035919050565b6000602082840312156137e5578081fd5b5051919050565b600080604083850312156137fe578182fd5b8235915061115c60208401613574565b60008060408385031215613820578182fd5b50508035926020909101359150565b600080600060608486031215613843578081fd5b505081359360208301359350604090920135919050565b60008151808452613872816020860160208601613a9f565b601f01601f19169290920160200192915050565b60008351613898818460208801613a9f565b8351908301906138ac818360208801613a9f565b01949350505050565b6001600160a01b03858116825284166020820152604081018390526080606082018190526000906138e89083018461385a565b9695505050505050565b6020808252825182820181905260009190848201906040850190845b8181101561392a5783518352928401929184019160010161390e565b50909695505050505050565b602081526000611303602083018461385a565b60208082526032908201527f4552433732313a207472616e7366657220746f206e6f6e20455243373231526560408201527131b2b4bb32b91034b6b83632b6b2b73a32b960711b606082015260800190565b60208082526025908201527f4552433732313a207472616e736665722066726f6d20696e636f72726563742060408201526437bbb732b960d91b606082015260800190565b60208082526031908201527f4552433732313a207472616e736665722063616c6c6572206973206e6f74206f6040820152701ddb995c881b9bdc88185c1c1c9bdd9959607a1b606082015260800190565b60008219821115613a4457613a44613b21565b500190565b600082613a6457634e487b7160e01b81526012600452602481fd5b500490565b6000816000190483118215151615613a8357613a83613b21565b500290565b600082821015613a9a57613a9a613b21565b500390565b60005b83811015613aba578181015183820152602001613aa2565b83811115612b085750506000910152565b600181811c90821680613adf57607f821691505b60208210811415613b0057634e487b7160e01b600052602260045260246000fd5b50919050565b6000600019821415613b1a57613b1a613b21565b5060010190565b634e487b7160e01b600052601160045260246000fd5b634e487b7160e01b600052604160045260246000fd5b6001600160a01b038116811461117657600080fd5b6001600160e01b03198116811461117657600080fdfea264697066735822122057bec1d5ccd1a589d8882402e0d58d48677c9f7029499f613dd41bb842dfd27064736f6c63430008040033",
  "linkReferences": {},
  "deployedLinkReferences": {}
}