{
  "_format": "hh-sol-artifact-1",
  "contractName": "Girl",
  "sourceName": "contracts/Girl/Girl.sol",
  "abi": [
    {
      "inputs": [
        {
          "internalType": "string",
          "name": "_initBaseURI",
          "type": "string"
        },
        {
          "internalType": "address",
          "name": "_orb",
          "type": "address"
        },
        {
          "internalType": "address",
          "name": "_orbRarity",
          "type": "address"
        },
        {
          "internalType": "address",
          "name": "_emissions",
          "type": "address"
        },
        {
          "internalType": "address payable",
          "name": "_dev",
          "type": "address"
        }
      ],
      "stateMutability": "nonpayable",
      "type": "constructor"
    },
    {
      "anonymous": false,
      "inputs": [
        {
          "indexed": true,
          "internalType": "address",
          "name": "owner",
          "type": "address"
        },
        {
          "indexed": true,
          "internalType": "address",
          "name": "approved",
          "type": "address"
        },
        {
          "indexed": true,
          "internalType": "uint256",
          "name": "tokenId",
          "type": "uint256"
        }
      ],
      "name": "Approval",
      "type": "event"
    },
    {
      "anonymous": false,
      "inputs": [
        {
          "indexed": true,
          "internalType": "address",
          "name": "owner",
          "type": "address"
        },
        {
          "indexed": true,
          "internalType": "address",
          "name": "operator",
          "type": "address"
        },
        {
          "indexed": false,
          "internalType": "bool",
          "name": "approved",
          "type": "bool"
        }
      ],
      "name": "ApprovalForAll",
      "type": "event"
    },
    {
      "anonymous": false,
      "inputs": [
        {
          "indexed": false,
          "internalType": "uint256",
          "name": "id",
          "type": "uint256"
        },
        {
          "indexed": false,
          "internalType": "uint256",
          "name": "newLevel",
          "type": "uint256"
        }
      ],
      "name": "CosmicLevelChanged",
      "type": "event"
    },
    {
      "anonymous": false,
      "inputs": [
        {
          "indexed": false,
          "internalType": "uint256",
          "name": "id",
          "type": "uint256"
        },
        {
          "indexed": false,
          "internalType": "uint256",
          "name": "element",
          "type": "uint256"
        }
      ],
      "name": "ElementChanged",
      "type": "event"
    },
    {
      "anonymous": false,
      "inputs": [
        {
          "indexed": false,
          "internalType": "uint256",
          "name": "id",
          "type": "uint256"
        },
        {
          "indexed": false,
          "internalType": "uint256",
          "name": "newScore",
          "type": "uint256"
        }
      ],
      "name": "GamerScoreChanged",
      "type": "event"
    },
    {
      "anonymous": false,
      "inputs": [
        {
          "indexed": false,
          "internalType": "address",
          "name": "minter",
          "type": "address"
        },
        {
          "indexed": false,
          "internalType": "uint256",
          "name": "id",
          "type": "uint256"
        },
        {
          "indexed": false,
          "internalType": "uint256",
          "name": "cl",
          "type": "uint256"
        },
        {
          "indexed": false,
          "internalType": "uint256",
          "name": "el",
          "type": "uint256"
        }
      ],
      "name": "Minted",
      "type": "event"
    },
    {
      "anonymous": false,
      "inputs": [
        {
          "indexed": true,
          "internalType": "address",
          "name": "previousOwner",
          "type": "address"
        },
        {
          "indexed": true,
          "internalType": "address",
          "name": "newOwner",
          "type": "address"
        }
      ],
      "name": "OwnershipTransferred",
      "type": "event"
    },
    {
      "anonymous": false,
      "inputs": [
        {
          "indexed": true,
          "internalType": "address",
          "name": "from",
          "type": "address"
        },
        {
          "indexed": true,
          "internalType": "address",
          "name": "to",
          "type": "address"
        },
        {
          "indexed": true,
          "internalType": "uint256",
          "name": "tokenId",
          "type": "uint256"
        }
      ],
      "name": "Transfer",
      "type": "event"
    },
    {
      "inputs": [],
      "name": "INTERFACE_ID_ERC2981",
      "outputs": [
        {
          "internalType": "bytes4",
          "name": "",
          "type": "bytes4"
        }
      ],
      "stateMutability": "view",
      "type": "function"
    },
    {
      "inputs": [
        {
          "internalType": "address",
          "name": "to",
          "type": "address"
        },
        {
          "internalType": "uint256",
          "name": "tokenId",
          "type": "uint256"
        }
      ],
      "name": "approve",
      "outputs": [],
      "stateMutability": "nonpayable",
      "type": "function"
    },
    {
      "inputs": [],
      "name": "attunement",
      "outputs": [
        {
          "internalType": "contract IAttunement",
          "name": "",
          "type": "address"
        }
      ],
      "stateMutability": "view",
      "type": "function"
    },
    {
      "inputs": [
        {
          "internalType": "address",
          "name": "owner",
          "type": "address"
        }
      ],
      "name": "balanceOf",
      "outputs": [
        {
          "internalType": "uint256",
          "name": "",
          "type": "uint256"
        }
      ],
      "stateMutability": "view",
      "type": "function"
    },
    {
      "inputs": [
        {
          "internalType": "uint256",
          "name": "id",
          "type": "uint256"
        },
        {
          "internalType": "uint256",
          "name": "toTier",
          "type": "uint256"
        }
      ],
      "name": "calcCosmicLevelUpgradeCost",
      "outputs": [
        {
          "internalType": "uint256[]",
          "name": "",
          "type": "uint256[]"
        }
      ],
      "stateMutability": "view",
      "type": "function"
    },
    {
      "inputs": [
        {
          "internalType": "uint256",
          "name": "id",
          "type": "uint256"
        },
        {
          "internalType": "uint256",
          "name": "toTier",
          "type": "uint256"
        }
      ],
      "name": "calcGamerScoreUpgradeCost",
      "outputs": [
        {
          "internalType": "uint256",
          "name": "",
          "type": "uint256"
        }
      ],
      "stateMutability": "view",
      "type": "function"
    },
    {
      "inputs": [],
      "name": "charges",
      "outputs": [
        {
          "internalType": "uint256",
          "name": "",
          "type": "uint256"
        }
      ],
      "stateMutability": "view",
      "type": "function"
    },
    {
      "inputs": [
        {
          "internalType": "uint256",
          "name": "",
          "type": "uint256"
        }
      ],
      "name": "chargesUsed",
      "outputs": [
        {
          "internalType": "uint256",
          "name": "",
          "type": "uint256"
        }
      ],
      "stateMutability": "view",
      "type": "function"
    },
    {
      "inputs": [
        {
          "internalType": "uint256",
          "name": "girlId",
          "type": "uint256"
        }
      ],
      "name": "checkStake",
      "outputs": [
        {
          "internalType": "address",
          "name": "",
          "type": "address"
        },
        {
          "internalType": "bool",
          "name": "",
          "type": "bool"
        },
        {
          "internalType": "uint256",
          "name": "",
          "type": "uint256"
        }
      ],
      "stateMutability": "view",
      "type": "function"
    },
    {
      "inputs": [
        {
          "internalType": "uint256",
          "name": "",
          "type": "uint256"
        }
      ],
      "name": "cosmicLevel",
      "outputs": [
        {
          "internalType": "uint256",
          "name": "",
          "type": "uint256"
        }
      ],
      "stateMutability": "view",
      "type": "function"
    },
    {
      "inputs": [
        {
          "internalType": "uint256",
          "name": "",
          "type": "uint256"
        }
      ],
      "name": "element",
      "outputs": [
        {
          "internalType": "uint256",
          "name": "",
          "type": "uint256"
        }
      ],
      "stateMutability": "view",
      "type": "function"
    },
    {
      "inputs": [],
      "name": "emissions",
      "outputs": [
        {
          "internalType": "contract IEmissions",
          "name": "",
          "type": "address"
        }
      ],
      "stateMutability": "view",
      "type": "function"
    },
    {
      "inputs": [
        {
          "internalType": "uint256",
          "name": "",
          "type": "uint256"
        }
      ],
      "name": "gamerScore",
      "outputs": [
        {
          "internalType": "uint256",
          "name": "",
          "type": "uint256"
        }
      ],
      "stateMutability": "view",
      "type": "function"
    },
    {
      "inputs": [
        {
          "internalType": "uint256",
          "name": "tokenId",
          "type": "uint256"
        }
      ],
      "name": "getApproved",
      "outputs": [
        {
          "internalType": "address",
          "name": "",
          "type": "address"
        }
      ],
      "stateMutability": "view",
      "type": "function"
    },
    {
      "inputs": [
        {
          "internalType": "uint256",
          "name": "id",
          "type": "uint256"
        }
      ],
      "name": "getChargesRemaining",
      "outputs": [
        {
          "internalType": "uint256",
          "name": "",
          "type": "uint256"
        }
      ],
      "stateMutability": "view",
      "type": "function"
    },
    {
      "inputs": [
        {
          "internalType": "uint256",
          "name": "_id",
          "type": "uint256"
        }
      ],
      "name": "getCosmicLevel",
      "outputs": [
        {
          "internalType": "uint256",
          "name": "",
          "type": "uint256"
        }
      ],
      "stateMutability": "view",
      "type": "function"
    },
    {
      "inputs": [
        {
          "internalType": "uint256",
          "name": "id",
          "type": "uint256"
        },
        {
          "internalType": "uint256",
          "name": "toTier",
          "type": "uint256"
        }
      ],
      "name": "getCosmicLevelUpgradeCost",
      "outputs": [
        {
          "internalType": "uint256[]",
          "name": "",
          "type": "uint256[]"
        }
      ],
      "stateMutability": "view",
      "type": "function"
    },
    {
      "inputs": [],
      "name": "getDiscountPrice",
      "outputs": [
        {
          "internalType": "uint256",
          "name": "",
          "type": "uint256"
        }
      ],
      "stateMutability": "view",
      "type": "function"
    },
    {
      "inputs": [
        {
          "internalType": "uint256",
          "name": "_id",
          "type": "uint256"
        }
      ],
      "name": "getElement",
      "outputs": [
        {
          "internalType": "uint256",
          "name": "",
          "type": "uint256"
        }
      ],
      "stateMutability": "view",
      "type": "function"
    },
    {
      "inputs": [
        {
          "internalType": "uint256",
          "name": "_id",
          "type": "uint256"
        }
      ],
      "name": "getGamerScore",
      "outputs": [
        {
          "internalType": "uint256",
          "name": "",
          "type": "uint256"
        }
      ],
      "stateMutability": "view",
      "type": "function"
    },
    {
      "inputs": [
        {
          "internalType": "uint256",
          "name": "id",
          "type": "uint256"
        },
        {
          "internalType": "uint256",
          "name": "toTier",
          "type": "uint256"
        }
      ],
      "name": "getGamerScoreUpgradeCost",
      "outputs": [
        {
          "internalType": "uint256",
          "name": "cost",
          "type": "uint256"
        }
      ],
      "stateMutability": "view",
      "type": "function"
    },
    {
      "inputs": [
        {
          "internalType": "uint256",
          "name": "",
          "type": "uint256"
        }
      ],
      "name": "gsUpgradeCosts",
      "outputs": [
        {
          "internalType": "uint256",
          "name": "",
          "type": "uint256"
        }
      ],
      "stateMutability": "view",
      "type": "function"
    },
    {
      "inputs": [
        {
          "internalType": "uint256",
          "name": "id",
          "type": "uint256"
        },
        {
          "internalType": "uint256",
          "name": "toTier",
          "type": "uint256"
        }
      ],
      "name": "handleUpgradeCosmicLevel",
      "outputs": [],
      "stateMutability": "nonpayable",
      "type": "function"
    },
    {
      "inputs": [
        {
          "internalType": "uint256",
          "name": "id",
          "type": "uint256"
        },
        {
          "internalType": "uint256",
          "name": "toTier",
          "type": "uint256"
        }
      ],
      "name": "handleUpgradeGamerScore",
      "outputs": [],
      "stateMutability": "nonpayable",
      "type": "function"
    },
    {
      "inputs": [
        {
          "internalType": "address",
          "name": "owner",
          "type": "address"
        },
        {
          "internalType": "address",
          "name": "operator",
          "type": "address"
        }
      ],
      "name": "isApprovedForAll",
      "outputs": [
        {
          "internalType": "bool",
          "name": "",
          "type": "bool"
        }
      ],
      "stateMutability": "view",
      "type": "function"
    },
    {
      "inputs": [
        {
          "internalType": "address",
          "name": "",
          "type": "address"
        }
      ],
      "name": "isElementalStone",
      "outputs": [
        {
          "internalType": "bool",
          "name": "",
          "type": "bool"
        }
      ],
      "stateMutability": "view",
      "type": "function"
    },
    {
      "inputs": [
        {
          "internalType": "uint256",
          "name": "girlId",
          "type": "uint256"
        }
      ],
      "name": "isPaired",
      "outputs": [
        {
          "internalType": "bool",
          "name": "",
          "type": "bool"
        }
      ],
      "stateMutability": "view",
      "type": "function"
    },
    {
      "inputs": [
        {
          "internalType": "uint256",
          "name": "",
          "type": "uint256"
        }
      ],
      "name": "matchedElementCosts",
      "outputs": [
        {
          "internalType": "uint256",
          "name": "",
          "type": "uint256"
        }
      ],
      "stateMutability": "view",
      "type": "function"
    },
    {
      "inputs": [
        {
          "internalType": "bool",
          "name": "usingOrb",
          "type": "bool"
        },
        {
          "internalType": "uint256",
          "name": "orbId",
          "type": "uint256"
        }
      ],
      "name": "mint",
      "outputs": [],
      "stateMutability": "payable",
      "type": "function"
    },
    {
      "inputs": [],
      "name": "moonstone",
      "outputs": [
        {
          "internalType": "contract IERC20",
          "name": "",
          "type": "address"
        }
      ],
      "stateMutability": "view",
      "type": "function"
    },
    {
      "inputs": [],
      "name": "name",
      "outputs": [
        {
          "internalType": "string",
          "name": "",
          "type": "string"
        }
      ],
      "stateMutability": "view",
      "type": "function"
    },
    {
      "inputs": [
        {
          "internalType": "address",
          "name": "",
          "type": "address"
        },
        {
          "internalType": "address",
          "name": "",
          "type": "address"
        },
        {
          "internalType": "uint256",
          "name": "",
          "type": "uint256"
        },
        {
          "internalType": "bytes",
          "name": "",
          "type": "bytes"
        }
      ],
      "name": "onERC721Received",
      "outputs": [
        {
          "internalType": "bytes4",
          "name": "",
          "type": "bytes4"
        }
      ],
      "stateMutability": "nonpayable",
      "type": "function"
    },
    {
      "inputs": [],
      "name": "orb",
      "outputs": [
        {
          "internalType": "contract IERC721",
          "name": "",
          "type": "address"
        }
      ],
      "stateMutability": "view",
      "type": "function"
    },
    {
      "inputs": [],
      "name": "orbRarity",
      "outputs": [
        {
          "internalType": "contract IOrbRarity",
          "name": "",
          "type": "address"
        }
      ],
      "stateMutability": "view",
      "type": "function"
    },
    {
      "inputs": [],
      "name": "owner",
      "outputs": [
        {
          "internalType": "address",
          "name": "",
          "type": "address"
        }
      ],
      "stateMutability": "view",
      "type": "function"
    },
    {
      "inputs": [
        {
          "internalType": "uint256",
          "name": "tokenId",
          "type": "uint256"
        }
      ],
      "name": "ownerOf",
      "outputs": [
        {
          "internalType": "address",
          "name": "",
          "type": "address"
        }
      ],
      "stateMutability": "view",
      "type": "function"
    },
    {
      "inputs": [
        {
          "internalType": "uint256",
          "name": "",
          "type": "uint256"
        }
      ],
      "name": "paired",
      "outputs": [
        {
          "internalType": "bool",
          "name": "",
          "type": "bool"
        }
      ],
      "stateMutability": "view",
      "type": "function"
    },
    {
      "inputs": [],
      "name": "renounceOwnership",
      "outputs": [],
      "stateMutability": "nonpayable",
      "type": "function"
    },
    {
      "inputs": [
        {
          "internalType": "uint256",
          "name": "_tokenId",
          "type": "uint256"
        },
        {
          "internalType": "uint256",
          "name": "_salePrice",
          "type": "uint256"
        }
      ],
      "name": "royaltyInfo",
      "outputs": [
        {
          "internalType": "address",
          "name": "receiver",
          "type": "address"
        },
        {
          "internalType": "uint256",
          "name": "royaltyAmount",
          "type": "uint256"
        }
      ],
      "stateMutability": "view",
      "type": "function"
    },
    {
      "inputs": [
        {
          "internalType": "address",
          "name": "from",
          "type": "address"
        },
        {
          "internalType": "address",
          "name": "to",
          "type": "address"
        },
        {
          "internalType": "uint256",
          "name": "tokenId",
          "type": "uint256"
        }
      ],
      "name": "safeTransferFrom",
      "outputs": [],
      "stateMutability": "nonpayable",
      "type": "function"
    },
    {
      "inputs": [
        {
          "internalType": "address",
          "name": "from",
          "type": "address"
        },
        {
          "internalType": "address",
          "name": "to",
          "type": "address"
        },
        {
          "internalType": "uint256",
          "name": "tokenId",
          "type": "uint256"
        },
        {
          "internalType": "bytes",
          "name": "_data",
          "type": "bytes"
        }
      ],
      "name": "safeTransferFrom",
      "outputs": [],
      "stateMutability": "nonpayable",
      "type": "function"
    },
    {
      "inputs": [
        {
          "internalType": "address",
          "name": "operator",
          "type": "address"
        },
        {
          "internalType": "bool",
          "name": "approved",
          "type": "bool"
        }
      ],
      "name": "setApprovalForAll",
      "outputs": [],
      "stateMutability": "nonpayable",
      "type": "function"
    },
    {
      "inputs": [
        {
          "internalType": "address",
          "name": "_a",
          "type": "address"
        }
      ],
      "name": "setAttunementContract",
      "outputs": [],
      "stateMutability": "nonpayable",
      "type": "function"
    },
    {
      "inputs": [
        {
          "internalType": "string",
          "name": "_newBaseURI",
          "type": "string"
        }
      ],
      "name": "setBaseURI",
      "outputs": [],
      "stateMutability": "nonpayable",
      "type": "function"
    },
    {
      "inputs": [
        {
          "internalType": "uint256",
          "name": "_newCost",
          "type": "uint256"
        }
      ],
      "name": "setCost",
      "outputs": [],
      "stateMutability": "nonpayable",
      "type": "function"
    },
    {
      "inputs": [
        {
          "internalType": "uint256",
          "name": "_id",
          "type": "uint256"
        },
        {
          "internalType": "uint256",
          "name": "_newElement",
          "type": "uint256"
        }
      ],
      "name": "setElement",
      "outputs": [],
      "stateMutability": "nonpayable",
      "type": "function"
    },
    {
      "inputs": [
        {
          "internalType": "address",
          "name": "_es",
          "type": "address"
        }
      ],
      "name": "setElementalStoneContract",
      "outputs": [],
      "stateMutability": "nonpayable",
      "type": "function"
    },
    {
      "inputs": [
        {
          "internalType": "address",
          "name": "_e",
          "type": "address"
        }
      ],
      "name": "setEmissions",
      "outputs": [],
      "stateMutability": "nonpayable",
      "type": "function"
    },
    {
      "inputs": [
        {
          "internalType": "address",
          "name": "_moonstone",
          "type": "address"
        }
      ],
      "name": "setMoonstoneContract",
      "outputs": [],
      "stateMutability": "nonpayable",
      "type": "function"
    },
    {
      "inputs": [
        {
          "internalType": "uint256",
          "name": "_id",
          "type": "uint256"
        },
        {
          "internalType": "bool",
          "name": "_paired",
          "type": "bool"
        }
      ],
      "name": "setPaired",
      "outputs": [],
      "stateMutability": "nonpayable",
      "type": "function"
    },
    {
      "inputs": [
        {
          "internalType": "address",
          "name": "newRecipient",
          "type": "address"
        }
      ],
      "name": "setRoyalties",
      "outputs": [],
      "stateMutability": "nonpayable",
      "type": "function"
    },
    {
      "inputs": [
        {
          "internalType": "bool",
          "name": "_isWhitelistPeriod",
          "type": "bool"
        }
      ],
      "name": "setWhitelistPeriod",
      "outputs": [],
      "stateMutability": "nonpayable",
      "type": "function"
    },
    {
      "inputs": [
        {
          "internalType": "bytes4",
          "name": "interfaceId",
          "type": "bytes4"
        }
      ],
      "name": "supportsInterface",
      "outputs": [
        {
          "internalType": "bool",
          "name": "",
          "type": "bool"
        }
      ],
      "stateMutability": "view",
      "type": "function"
    },
    {
      "inputs": [],
      "name": "symbol",
      "outputs": [
        {
          "internalType": "string",
          "name": "",
          "type": "string"
        }
      ],
      "stateMutability": "view",
      "type": "function"
    },
    {
      "inputs": [
        {
          "internalType": "uint256",
          "name": "index",
          "type": "uint256"
        }
      ],
      "name": "tokenByIndex",
      "outputs": [
        {
          "internalType": "uint256",
          "name": "",
          "type": "uint256"
        }
      ],
      "stateMutability": "view",
      "type": "function"
    },
    {
      "inputs": [
        {
          "internalType": "address",
          "name": "owner",
          "type": "address"
        },
        {
          "internalType": "uint256",
          "name": "index",
          "type": "uint256"
        }
      ],
      "name": "tokenOfOwnerByIndex",
      "outputs": [
        {
          "internalType": "uint256",
          "name": "",
          "type": "uint256"
        }
      ],
      "stateMutability": "view",
      "type": "function"
    },
    {
      "inputs": [
        {
          "internalType": "uint256",
          "name": "tokenId",
          "type": "uint256"
        }
      ],
      "name": "tokenURI",
      "outputs": [
        {
          "internalType": "string",
          "name": "",
          "type": "string"
        }
      ],
      "stateMutability": "view",
      "type": "function"
    },
    {
      "inputs": [],
      "name": "totalSupply",
      "outputs": [
        {
          "internalType": "uint256",
          "name": "",
          "type": "uint256"
        }
      ],
      "stateMutability": "view",
      "type": "function"
    },
    {
      "inputs": [
        {
          "internalType": "address",
          "name": "from",
          "type": "address"
        },
        {
          "internalType": "address",
          "name": "to",
          "type": "address"
        },
        {
          "internalType": "uint256",
          "name": "tokenId",
          "type": "uint256"
        }
      ],
      "name": "transferFrom",
      "outputs": [],
      "stateMutability": "nonpayable",
      "type": "function"
    },
    {
      "inputs": [
        {
          "internalType": "address",
          "name": "newOwner",
          "type": "address"
        }
      ],
      "name": "transferOwnership",
      "outputs": [],
      "stateMutability": "nonpayable",
      "type": "function"
    },
    {
      "inputs": [
        {
          "internalType": "uint256",
          "name": "",
          "type": "uint256"
        }
      ],
      "name": "unmatchedElementCosts",
      "outputs": [
        {
          "internalType": "uint256",
          "name": "",
          "type": "uint256"
        }
      ],
      "stateMutability": "view",
      "type": "function"
    },
    {
      "inputs": [
        {
          "internalType": "address",
          "name": "_owner",
          "type": "address"
        }
      ],
      "name": "walletOfOwner",
      "outputs": [
        {
          "internalType": "uint256[]",
          "name": "",
          "type": "uint256[]"
        }
      ],
      "stateMutability": "view",
      "type": "function"
    },
    {
      "inputs": [],
      "name": "whitelistPeriod",
      "outputs": [
        {
          "internalType": "bool",
          "name": "",
          "type": "bool"
        }
      ],
      "stateMutability": "view",
      "type": "function"
    },
    {
      "inputs": [
        {
          "internalType": "address payable",
          "name": "_rest",
          "type": "address"
        }
      ],
      "name": "withdraw",
      "outputs": [],
      "stateMutability": "nonpayable",
      "type": "function"
    }
  ],
  "bytecode": "0x6005600b8181556003600c90815560c8600d556019601355600a6014556103c060405260006080908152600460a081905260c081905260e0526101008490526101208490526101408490526101608490526101809390935260066101a08190526101c05260076101e0526008610200819052610220819052610240819052610260526102808290526102a08290526102c0919091526102e081905261030052600f6103205260106103408190526103605260116103808190526103a052620000cc90601590601a6200059a565b50604080516101408101825260008152600260208201526003918101829052606081019190915260046080820152600660a0820152600860c0820152600b60e0820152600e61010082015260126101208201526200012f90602f90600a620005e2565b506040805161014081018252600080825260208201819052918101919091526001606082015260026080820152600360a0820152600460c0820152600560e0820152600761010082015260096101208201526200019190603990600a620005e2565b50605a604655600560475560036048556049805460ff19166001179055611388604f55348015620001c157600080fd5b506040516200411e3803806200411e833981016040819052620001e491620006c8565b610683806106826078602a601a600960036040518060400160405280600f81526020016e151bdade5bc815195cdd0811da5c9b608a1b8152506040518060400160405280600381526020016254544760e81b81525081600090805190602001906200025192919062000617565b5080516200026790600190602084019062000617565b505050620002846200027e6200033260201b60201c565b62000336565b6200029188888862000388565b620002a0858585858562000407565b5050505050505050620002b985620004cd60201b60201c565b604380546001600160a01b038087166001600160a01b0319928316179092556044805492861692909116919091179055620002f482620004f0565b62000307674563918244f400006200051c565b605080546001600160a01b0319166001600160a01b0392909216919091179055506200083e92505050565b3390565b600a80546001600160a01b038381166001600160a01b0319831681179093556040519116919082907f8be0079c531659141344cd1fd0a4f28419497f9722a3daafe3b4186f6b6457e090600090a35050565b6200039262000539565b60116020527f17bc176d2408558f6e4111feebc3cab4e16b63e967be91cde721f4c8a488b552929092557f08037d7b151cc412d25674a4e66b334d9ae9d2e5517a7feaae5cdb828bf1c6285560036000527f9bfbaa59f8e10e7868f8b402de9d605a390c45ddaebd8c9de3c6f31e733c87ff55565b6200041162000539565b60126020527f71a67924699a20698523213e55fe499d539379d7769cd5567e2c45d583f815a3949094557f8e1fee8c88a9e04123b21e90cae2727a7715bf522a1e46eb5934ccd05203a6b2929092557f0f36ad39aee03e7108cc48f54934702a5f0d4066f10344cebf8198978d86976a557fb4fcd034df3d20faa1c133b66d862ce92732727d40916b48ffb4020cb00fe0535560056000527f45429b9195d4ec5c0cf6c69e9c21a4ca0ea773b702c2de5735f85d2631f2674655565b620004d762000539565b8051620004ec90604e90602084019062000617565b5050565b620004fa62000539565b604d80546001600160a01b0319166001600160a01b0392909216919091179055565b6200052662000539565b600081116200053457600080fd5b604555565b600a546001600160a01b03163314620005985760405162461bcd60e51b815260206004820181905260248201527f4f776e61626c653a2063616c6c6572206973206e6f7420746865206f776e6572604482015260640160405180910390fd5b565b82601a8101928215620005d0579160200282015b82811115620005d0578251829060ff16905591602001919060010190620005ae565b50620005de92915062000694565b5090565b82600a8101928215620005d05791602002820182811115620005d0578251829060ff16905591602001919060010190620005ae565b8280546200062590620007eb565b90600052602060002090601f016020900481019282620006495760008555620005d0565b82601f106200066457805160ff1916838001178555620005d0565b82800160010185558215620005d0579182015b82811115620005d057825182559160200191906001019062000677565b5b80821115620005de576000815560010162000695565b80516001600160a01b0381168114620006c357600080fd5b919050565b600080600080600060a08688031215620006e0578081fd5b85516001600160401b0380821115620006f7578283fd5b818801915088601f8301126200070b578283fd5b81518181111562000720576200072062000828565b604051601f8201601f19908116603f011681019083821181831017156200074b576200074b62000828565b81604052828152602093508b8484870101111562000767578586fd5b8591505b828210156200078a57848201840151818301850152908301906200076b565b828211156200079b57858484830101525b9850620007ad915050888201620006ab565b95505050620007bf60408701620006ab565b9250620007cf60608701620006ab565b9150620007df60808701620006ab565b90509295509295909350565b600181811c908216806200080057607f821691505b602082108114156200082257634e487b7160e01b600052602260045260246000fd5b50919050565b634e487b7160e01b600052604160045260246000fd5b6138d0806200084e6000396000f3fe6080604052600436106103c35760003560e01c806369250220116101f2578063b060dd861161010d578063e00cda26116100a0578063f909a9cf1161006f578063f909a9cf14610c44578063fd79e7ac14610c71578063ff23d7d314610c91578063ff91078314610cb157600080fd5b8063e00cda2614610b98578063e985e9c514610bae578063f090e00414610bf7578063f2fde38b14610c2457600080fd5b8063c4e26767116100dc578063c4e2676714610b18578063c87b56dd14610b38578063d066100614610b58578063dfefc77614610b8557600080fd5b8063b060dd8614610aa3578063b48e665e14610abe578063b88d4fde14610ad8578063c3ca39f814610af857600080fd5b8063854e321411610185578063a16e721511610154578063a16e721514610a16578063a22b36ef14610a36578063a22cb46514610a63578063a388237d14610a8357600080fd5b8063854e32141461099e5780638da5cb5b146109b35780638efab2d5146109d157806395d89b4114610a0157600080fd5b806373349571116101c1578063733495711461091e57806373ae2d781461093e5780637a6832a51461095e578063814e1bb81461097e57600080fd5b806369250220146108a95780636aa5dd71146108c957806370a08231146108e9578063715018a61461090957600080fd5b80633c010930116102e25780634f6ccce71161027557806358d70d741161024457806358d70d74146108295780635c5ac79a146108495780636352211e14610869578063690d1ca21461088957600080fd5b80634f6ccce71461079c57806351cff8d9146107bc57806355f804b3146107dc578063562d412f146107fc57600080fd5b806342842e0e116102b157806342842e0e1461070f578063438b63001461072f57806344a0d68a1461074f57806349af0b941461076f57600080fd5b80633c0109301461065d5780633f1ed7091461067d5780633f74c5961461069d57806340a3c338146106ca57600080fd5b8063150b7a021161035a5780632a55205a116103295780632a55205a146105b15780632a9e63c6146105f05780632f745c59146106105780633a7d22bc1461063057600080fd5b8063150b7a021461051957806318160ddd146105525780632267716c1461057157806323b872dd1461059157600080fd5b8063095ea7b311610396578063095ea7b3146104795780630b689417146104995780630f3b899b146104c957806312cbd705146104e957600080fd5b806301ffc9a7146103c857806306fdde03146103fd578063081812fc1461041f57806308834ee714610457575b600080fd5b3480156103d457600080fd5b506103e86103e336600461349b565b610cd1565b60405190151581526020015b60405180910390f35b34801561040957600080fd5b50610412610cfc565b6040516103f49190613668565b34801561042b57600080fd5b5061043f61043a366004613519565b610d8e565b6040516001600160a01b0390911681526020016103f4565b34801561046357600080fd5b506104776104723660046132e3565b610db5565b005b34801561048557600080fd5b5061047761049436600461343b565b610ddf565b3480156104a557600080fd5b506103e86104b4366004613519565b60009081526053602052604090205460ff1690565b3480156104d557600080fd5b50604c5461043f906001600160a01b031681565b3480156104f557600080fd5b506103e86105043660046132e3565b60526020526000908152604090205460ff1681565b34801561052557600080fd5b50610539610534366004613393565b610efa565b6040516001600160e01b031990911681526020016103f4565b34801561055e57600080fd5b506008545b6040519081526020016103f4565b34801561057d57600080fd5b50604d5461043f906001600160a01b031681565b34801561059d57600080fd5b506104776105ac366004613353565b610f0b565b3480156105bd57600080fd5b506105d16105cc36600461356b565b610f9f565b604080516001600160a01b0390931683526020830191909152016103f4565b3480156105fc57600080fd5b5061047761060b3660046132e3565b610fc1565b34801561061c57600080fd5b5061056361062b36600461343b565b610fd5565b34801561063c57600080fd5b5061056361064b366004613519565b60009081526010602052604090205490565b34801561066957600080fd5b5061056361067836600461356b565b61106b565b34801561068957600080fd5b50610477610698366004613549565b6110f5565b3480156106a957600080fd5b506106bd6106b836600461356b565b611189565b6040516103f49190613624565b3480156106d657600080fd5b506106ea6106e5366004613519565b61121b565b604080516001600160a01b0390941684529115156020840152908201526060016103f4565b34801561071b57600080fd5b5061047761072a366004613353565b611254565b34801561073b57600080fd5b506106bd61074a3660046132e3565b61126f565b34801561075b57600080fd5b5061047761076a366004613519565b61132d565b34801561077b57600080fd5b5061056361078a366004613519565b604a6020526000908152604090205481565b3480156107a857600080fd5b506105636107b7366004613519565b611347565b3480156107c857600080fd5b506104776107d73660046132e3565b6113e8565b3480156107e857600080fd5b506104776107f73660046134d3565b611468565b34801561080857600080fd5b50610563610817366004613519565b600f6020526000908152604090205481565b34801561083557600080fd5b50604b5461043f906001600160a01b031681565b34801561085557600080fd5b5060445461043f906001600160a01b031681565b34801561087557600080fd5b5061043f610884366004613519565b611487565b34801561089557600080fd5b506104776108a43660046132e3565b6114e7565b3480156108b557600080fd5b506104776108c436600461356b565b611513565b3480156108d557600080fd5b506104776108e436600461356b565b61167b565b3480156108f557600080fd5b506105636109043660046132e3565b61175a565b34801561091557600080fd5b506104776117e0565b34801561092a57600080fd5b50610477610939366004613466565b6117f4565b34801561094a57600080fd5b506106bd61095936600461356b565b61180f565b34801561096a57600080fd5b506104776109793660046132e3565b611a5a565b34801561098a57600080fd5b50610563610999366004613519565b611a84565b3480156109aa57600080fd5b50610563611a9b565b3480156109bf57600080fd5b50600a546001600160a01b031661043f565b3480156109dd57600080fd5b506103e86109ec366004613519565b60536020526000908152604090205460ff1681565b348015610a0d57600080fd5b50610412611abe565b348015610a2257600080fd5b50610477610a3136600461356b565b611acd565b348015610a4257600080fd5b50610563610a51366004613519565b6000908152600f602052604090205490565b348015610a6f57600080fd5b50610477610a7e366004613410565b611b25565b348015610a8f57600080fd5b50610477610a9e3660046132e3565b611b30565b348015610aaf57600080fd5b5061053963152a902d60e11b81565b348015610aca57600080fd5b506049546103e89060ff1681565b348015610ae457600080fd5b50610477610af3366004613393565b611b5a565b348015610b0457600080fd5b50610563610b1336600461356b565b611bbd565b348015610b2457600080fd5b50610563610b33366004613519565b611cc6565b348015610b4457600080fd5b50610412610b53366004613519565b611cd6565b348015610b6457600080fd5b50610563610b73366004613519565b6000908152600e602052604090205490565b610477610b93366004613480565b611db0565b348015610ba457600080fd5b5061056360475481565b348015610bba57600080fd5b506103e8610bc936600461331b565b6001600160a01b03918216600090815260056020908152604080832093909416825291909152205460ff1690565b348015610c0357600080fd5b50610563610c12366004613519565b60106020526000908152604090205481565b348015610c3057600080fd5b50610477610c3f3660046132e3565b6121c8565b348015610c5057600080fd5b50610563610c5f366004613519565b600e6020526000908152604090205481565b348015610c7d57600080fd5b50610563610c8c366004613519565b61223e565b348015610c9d57600080fd5b50610563610cac366004613519565b61224e565b348015610cbd57600080fd5b5060435461043f906001600160a01b031681565b60006001600160e01b0319821663152a902d60e11b1480610cf65750610cf68261226a565b92915050565b606060008054610d0b906137c3565b80601f0160208091040260200160405190810160405280929190818152602001828054610d37906137c3565b8015610d845780601f10610d5957610100808354040283529160200191610d84565b820191906000526020600020905b815481529060010190602001808311610d6757829003601f168201915b5050505050905090565b6000610d998261228f565b506000908152600460205260409020546001600160a01b031690565b610dbd6122ee565b604d80546001600160a01b0319166001600160a01b0392909216919091179055565b6000610dea82611487565b9050806001600160a01b0316836001600160a01b03161415610e5d5760405162461bcd60e51b815260206004820152602160248201527f4552433732313a20617070726f76616c20746f2063757272656e74206f776e656044820152603960f91b60648201526084015b60405180910390fd5b336001600160a01b0382161480610e795750610e798133610bc9565b610eeb5760405162461bcd60e51b815260206004820152603e60248201527f4552433732313a20617070726f76652063616c6c6572206973206e6f7420746f60448201527f6b656e206f776e6572206e6f7220617070726f76656420666f7220616c6c00006064820152608401610e54565b610ef58383612348565b505050565b630a85bd0160e11b5b949350505050565b610f1533826123b6565b610f315760405162461bcd60e51b8152600401610e54906136cd565b610f3c838383612434565b604c5460405163add058fd60e01b8152600481018390526001600160a01b039091169063add058fd90602401600060405180830381600087803b158015610f8257600080fd5b505af1158015610f96573d6000803e3d6000fd5b50505050505050565b6051546001600160a01b03166000610fb8601484613736565b90509250929050565b610fc96122ee565b610fd2816125db565b50565b6000610fe08361175a565b82106110425760405162461bcd60e51b815260206004820152602b60248201527f455243373231456e756d657261626c653a206f776e657220696e646578206f7560448201526a74206f6620626f756e647360a81b6064820152608401610e54565b506001600160a01b03919091166000908152600660209081526040808320938352929052205490565b6000828152600f602052604081205482118015611089575060198211155b6110e45760405162461bcd60e51b815260206004820152602660248201527f557067726164653a2074696572206d757374206265206265747765656e203120604482015265616e6420323560d01b6064820152608401610e54565b6110ee8383611bbd565b9392505050565b3360009081526052602052604090205460ff168061111d5750604c546001600160a01b031633145b6111695760405162461bcd60e51b815260206004820152601d60248201527f4769726c3a206f6e6c79204553206f72204174742063616e2063616c6c0000006044820152606401610e54565b600091825260536020526040909120805460ff1916911515919091179055565b6000828152600e6020526040902054606090821180156111aa5750600a8211155b6112115760405162461bcd60e51b815260206004820152603260248201527f557067726164653a2074696572206d757374206265206265747765656e20637560448201527107272656e74206c6576656c20616e642031360741b6064820152608401610e54565b6110ee838361180f565b600080600061122984611487565b600094855260536020908152604080872054601090925290952054909560ff90951694909350915050565b610f3c83838360405180602001604052806000815250611b5a565b6060600061127c8361175a565b905060008167ffffffffffffffff8111156112a757634e487b7160e01b600052604160045260246000fd5b6040519080825280602002602001820160405280156112d0578160200160208202803683370190505b50905060005b82811015611325576112e88582610fd5565b82828151811061130857634e487b7160e01b600052603260045260246000fd5b60209081029190910101528061131d816137fe565b9150506112d6565b509392505050565b6113356122ee565b6000811161134257600080fd5b604555565b600061135260085490565b82106113b55760405162461bcd60e51b815260206004820152602c60248201527f455243373231456e756d657261626c653a20676c6f62616c20696e646578206f60448201526b7574206f6620626f756e647360a01b6064820152608401610e54565b600882815481106113d657634e487b7160e01b600052603260045260246000fd5b90600052602060002001549050919050565b6113f06122ee565b60505447906001600160a01b03166108fc61140a83612668565b6040518115909202916000818181858888f19350505050158015611432573d6000803e3d6000fd5b506040516001600160a01b038316904780156108fc02916000818181858888f19350505050158015610ef5573d6000803e3d6000fd5b6114706122ee565b805161148390604e9060208401906131bf565b5050565b6000818152600260205260408120546001600160a01b031680610cf65760405162461bcd60e51b8152602060048201526018602482015277115490cdcc8c4e881a5b9d985b1a59081d1bdad95b88125160421b6044820152606401610e54565b6114ef6122ee565b6001600160a01b03166000908152605260205260409020805460ff19166001179055565b604b546001600160a01b031633146115815760405162461bcd60e51b815260206004820152602b60248201527f4769726c3a206f6e6c79206d6f6f6e73746f6e652063616e207570677261646560448201526a2067616d657273636f726560a81b6064820152608401610e54565b6000828152600f6020908152604080832054600e9092529182902054604d54925163b3c9524b60e01b815260048101869052919290916001600160a01b039091169063b3c9524b90602401600060405180830381600087803b1580156115e657600080fd5b505af11580156115fa573d6000803e3d6000fd5b505050506116088484612684565b604d54604051632d7f86bb60e11b81526004810186905260248101849052604481018390526001600160a01b0390911690635aff0d76906064015b600060405180830381600087803b15801561165d57600080fd5b505af1158015611671573d6000803e3d6000fd5b5050505050505050565b3360009081526052602052604090205460ff166116d35760405162461bcd60e51b815260206004820152601660248201527511da5c9b0e881bdb9b1e481154c818d85b8818d85b1b60521b6044820152606401610e54565b6000828152600f6020908152604080832054600e9092529182902054604d54925163b3c9524b60e01b815260048101869052919290916001600160a01b039091169063b3c9524b90602401600060405180830381600087803b15801561173857600080fd5b505af115801561174c573d6000803e3d6000fd5b5050505061160884846126cc565b60006001600160a01b0382166117c45760405162461bcd60e51b815260206004820152602960248201527f4552433732313a2061646472657373207a65726f206973206e6f7420612076616044820152683634b21037bbb732b960b91b6064820152608401610e54565b506001600160a01b031660009081526003602052604090205490565b6117e86122ee565b6117f26000612714565b565b6117fc6122ee565b6049805460ff1916911515919091179055565b60606014548211156118635760405162461bcd60e51b815260206004820152601f60248201527f557067726164653a204d617820636f736d6963206c6576656c206973203130006044820152606401610e54565b6000838152600e602052604090205460145481106118cd5760405162461bcd60e51b815260206004820152602160248201527f557067726164653a20636f736d6963206c6576656c20616c7265616479206d616044820152600f60fb1b6064820152608401610e54565b6000848152601060205260408082205481516003808252608082019093529092918160200160208202803683370190505090506000808061190f86600161371e565b90505b87811161199b57602f611926600183613769565b600a811061194457634e487b7160e01b600052603260045260246000fd5b0154611950908461371e565b9250603961195f600183613769565b600a811061197d57634e487b7160e01b600052603260045260246000fd5b0154611989908361371e565b9150611994816137fe565b9050611912565b5081836119a9600187613769565b815181106119c757634e487b7160e01b600052603260045260246000fd5b60200260200101818152505060005b8351811015611a4d578381815181106119ff57634e487b7160e01b600052603260045260246000fd5b602002602001015160001415611a3d5781848281518110611a3057634e487b7160e01b600052603260045260246000fd5b6020026020010181815250505b611a46816137fe565b90506119d6565b5091979650505050505050565b611a626122ee565b604b80546001600160a01b0319166001600160a01b0392909216919091179055565b601581601a8110611a9457600080fd5b0154905081565b60006064604654604554611aaf919061374a565b611ab99190613736565b905090565b606060018054610d0b906137c3565b611ad56122ee565b60008281526010602090815260409182902083905581518481529081018390527fe9d2aa95a8bcda1481b0316470d5993a8d561039f5db3f8222f8d526e03c0a1b91015b60405180910390a15050565b611483338383612766565b611b386122ee565b604c80546001600160a01b0319166001600160a01b0392909216919091179055565b611b6433836123b6565b611b805760405162461bcd60e51b8152600401610e54906136cd565b611b8c84848484612835565b604c5460405163add058fd60e01b8152600481018490526001600160a01b039091169063add058fd90602401611643565b6000601354821115611c115760405162461bcd60e51b815260206004820152601e60248201527f557067726164653a204d61782073636f7265206973206c6576656c20323500006044820152606401610e54565b6000838152600f60205260409020546013548110611c715760405162461bcd60e51b815260206004820152601f60248201527f557067726164653a204769726c20616c7265616479206d6178206c6576656c006044820152606401610e54565b6000815b848111611cbd57601581601a8110611c9d57634e487b7160e01b600052603260045260246000fd5b0154611ca9908361371e565b915080611cb5816137fe565b915050611c75565b50949350505050565b603981600a8110611a9457600080fd5b6000818152600260205260409020546060906001600160a01b0316611d555760405162461bcd60e51b815260206004820152602f60248201527f4552433732314d657461646174613a2055524920717565727920666f72206e6f60448201526e3732bc34b9ba32b73a103a37b5b2b760891b6064820152608401610e54565b6000611d5f61286e565b90506000815111611d7f57604051806020016040528060008152506110ee565b80611d898461287d565b604051602001611d9a9291906135b8565b6040516020818303038152906040529392505050565b33600080611dbd60085490565b9050604f548110611e015760405162461bcd60e51b815260206004820152600e60248201526d11da5c9b0e8814dbdb19081bdd5d60921b6044820152606401610e54565b8415612074576043546040516331a9108f60e11b8152600481018690526001600160a01b03858116921690636352211e9060240160206040518083038186803b158015611e4d57600080fd5b505afa158015611e61573d6000803e3d6000fd5b505050506040513d601f19601f82011682018060405250810190611e8591906132ff565b6001600160a01b031614611ed15760405162461bcd60e51b815260206004820152601360248201527223b4b9361d103737ba1037b9311037bbb732b960691b6044820152606401610e54565b611ed9611a9b565b341015611f235760405162461bcd60e51b81526020600482015260186024820152774769726c3a2073656e6420636f727265637420707269636560401b6044820152606401610e54565b611f2c84612997565b91508160061461206f576043546040516323b872dd60e01b81526001600160a01b03858116600483015230602483015260448201879052909116906323b872dd90606401600060405180830381600087803b158015611f8a57600080fd5b505af1158015611f9e573d6000803e3d6000fd5b50506043546040516331a9108f60e11b8152600481018890523093506001600160a01b039091169150636352211e9060240160206040518083038186803b158015611fe857600080fd5b505afa158015611ffc573d6000803e3d6000fd5b505050506040513d601f19601f8201168201806040525081019061202091906132ff565b6001600160a01b03161461206f5760405162461bcd60e51b815260206004820152601660248201527511da5c9b0e881bdc98881b9bdd081c9958da595d995960521b6044820152606401610e54565b6120c6565b6045543410156120c15760405162461bcd60e51b81526020600482015260186024820152774769726c3a2073656e6420636f727265637420707269636560401b6044820152606401610e54565b600691505b60006120d382600161371e565b90506120df8482612a68565b60008084600614156120fe576120f483612a82565b909250905061210e565b84915061210b8383612aa9565b90505b604d54604051632b017cb760e01b8152600481018590526001600160a01b0390911690632b017cb790602401600060405180830381600087803b15801561215457600080fd5b505af1158015612168573d6000803e3d6000fd5b5050604080516001600160a01b038a16815260208101879052908101859052606081018490527f5a3358a3d27a5373c0df2604662088d37894d56b7cfd27f315770440f4e0d9199250608001905060405180910390a15050505050505050565b6121d06122ee565b6001600160a01b0381166122355760405162461bcd60e51b815260206004820152602660248201527f4f776e61626c653a206e6577206f776e657220697320746865207a65726f206160448201526564647265737360d01b6064820152608401610e54565b610fd281612714565b602f81600a8110611a9457600080fd5b6000818152604a6020526040812054604754610cf69190613769565b60006001600160e01b0319821663780e9d6360e01b1480610cf65750610cf682612adf565b6000818152600260205260409020546001600160a01b0316610fd25760405162461bcd60e51b8152602060048201526018602482015277115490cdcc8c4e881a5b9d985b1a59081d1bdad95b88125160421b6044820152606401610e54565b600a546001600160a01b031633146117f25760405162461bcd60e51b815260206004820181905260248201527f4f776e61626c653a2063616c6c6572206973206e6f7420746865206f776e65726044820152606401610e54565b600081815260046020526040902080546001600160a01b0319166001600160a01b038416908117909155819061237d82611487565b6001600160a01b03167f8c5be1e5ebec7d5bd14f71427d1e84f3dd0314c0f7b2291e5b200ac8c7c3b92560405160405180910390a45050565b6000806123c283611487565b9050806001600160a01b0316846001600160a01b0316148061240957506001600160a01b0380821660009081526005602090815260408083209388168352929052205460ff165b80610f035750836001600160a01b031661242284610d8e565b6001600160a01b031614949350505050565b826001600160a01b031661244782611487565b6001600160a01b0316146124ab5760405162461bcd60e51b815260206004820152602560248201527f4552433732313a207472616e736665722066726f6d20696e636f72726563742060448201526437bbb732b960d91b6064820152608401610e54565b6001600160a01b03821661250d5760405162461bcd60e51b8152602060048201526024808201527f4552433732313a207472616e7366657220746f20746865207a65726f206164646044820152637265737360e01b6064820152608401610e54565b612518838383612b2f565b612523600082612348565b6001600160a01b038316600090815260036020526040812080546001929061254c908490613769565b90915550506001600160a01b038216600090815260036020526040812080546001929061257a90849061371e565b909155505060008181526002602052604080822080546001600160a01b0319166001600160a01b0386811691821790925591518493918716917fddf252ad1be2c89b69c2b068fc378daa952ba7f163c4a11628f55a4df523b3ef91a4505050565b6001600160a01b0381166126465760405162461bcd60e51b815260206004820152602c60248201527f526f79616c746965733a206e657720726563697069656e74206973207468652060448201526b7a65726f206164647265737360a01b6064820152608401610e54565b605180546001600160a01b0319166001600160a01b0392909216919091179055565b600060646048548361267a919061374a565b610cf69190613736565b6000828152600f602090815260409182902083905581518481529081018390527f866cfb7bcf22266717dccfb6e13d4a8aaf393c0bc2c147cf9df1b747e00370029101611b19565b6000828152600e602090815260409182902083905581518481529081018390527f56bd88bf537c8134d681abc094b975697025d38f1a7e20c408f3b5e6b4df40b79101611b19565b600a80546001600160a01b038381166001600160a01b0319831681179093556040519116919082907f8be0079c531659141344cd1fd0a4f28419497f9722a3daafe3b4186f6b6457e090600090a35050565b816001600160a01b0316836001600160a01b031614156127c85760405162461bcd60e51b815260206004820152601960248201527f4552433732313a20617070726f766520746f2063616c6c6572000000000000006044820152606401610e54565b6001600160a01b03838116600081815260056020908152604080832094871680845294825291829020805460ff191686151590811790915591519182527f17307eab39ab6107e8899845ad3d59bd9653f200f220920489ca2b5937696c31910160405180910390a3505050565b612840848484612434565b61284c84848484612be7565b6128685760405162461bcd60e51b8152600401610e549061367b565b50505050565b6060604e8054610d0b906137c3565b6060816128a15750506040805180820190915260018152600360fc1b602082015290565b8160005b81156128cb57806128b5816137fe565b91506128c49050600a83613736565b91506128a5565b60008167ffffffffffffffff8111156128f457634e487b7160e01b600052604160045260246000fd5b6040519080825280601f01601f19166020018201604052801561291e576020820181803683370190505b5090505b8415610f0357612933600183613769565b9150612940600a86613819565b61294b90603061371e565b60f81b81838151811061296e57634e487b7160e01b600052603260045260246000fd5b60200101906001600160f81b031916908160001a905350612990600a86613736565b9450612922565b6000818152604a60205260408120546005116129b257600080fd5b6000828152604a6020526040812080549091906129ce906137fe565b909155506000828152604a602052604090205460069060051415610cf657604454604051634875869760e01b8152600481018590526001600160a01b039091169063487586979060240160206040518083038186803b158015612a3057600080fd5b505afa158015612a44573d6000803e3d6000fd5b505050506040513d601f19601f820116820180604052508101906110ee9190613531565b611483828260405180602001604052806000815250612cf1565b6000806000612a9084612d24565b90506000612a9d85612de1565b91959194509092505050565b600080612ab8600c5485612e69565b6000858152601060209081526040808320849055600e909152902084905591505092915050565b60006001600160e01b031982166380ac58cd60e01b1480612b1057506001600160e01b03198216635b5e139f60e01b145b80610cf657506301ffc9a760e01b6001600160e01b0319831614610cf6565b6001600160a01b038316612b8a57612b8581600880546000838152600960205260408120829055600182018355919091527ff3f7a9fe364faab93b216da50a3214154f22a0a2b415b23a84c8169e8b636ee30155565b612bad565b816001600160a01b0316836001600160a01b031614612bad57612bad8382612eb7565b6001600160a01b038216612bc457610ef581612f54565b826001600160a01b0316826001600160a01b031614610ef557610ef5828261302d565b60006001600160a01b0384163b15612ce957604051630a85bd0160e11b81526001600160a01b0385169063150b7a0290612c2b9033908990889088906004016135e7565b602060405180830381600087803b158015612c4557600080fd5b505af1925050508015612c75575060408051601f3d908101601f19168201909252612c72918101906134b7565b60015b612ccf573d808015612ca3576040519150601f19603f3d011682016040523d82523d6000602084013e612ca8565b606091505b508051612cc75760405162461bcd60e51b8152600401610e549061367b565b805181602001fd5b6001600160e01b031916630a85bd0160e11b149050610f03565b506001610f03565b612cfb8383613071565b612d086000848484612be7565b610ef55760405162461bcd60e51b8152600401610e549061367b565b600080612d33600d5484612e69565b905060008082118015612d47575060788211155b15612d5457506001612dc8565b607882118015612d65575060a28211155b15612d7257506002612dc8565b60a282118015612d83575060bc8211155b15612d9057506003612dc8565b60bc82118015612da1575060c58211155b15612dae57506004612dc8565b60c582118015612dbf575060c88211155b15612dc8575060055b6000938452600e60205260409093208390555090919050565b600080612df0600c5484612e69565b90505b60008181526011602052604090205460011115612e335780612e14816137fe565b9150506003811115612e2e57612e2b600382613769565b90505b612df3565b600083815260106020908152604080832084905583835260119091528120805491612e5d836137ac565b90915550909392505050565b6040805142602082015290810183905260608101829052600090819060800160408051601f1981840301815291905280516020909101209050612eac8482613819565b610f0390600161371e565b60006001612ec48461175a565b612ece9190613769565b600083815260076020526040902054909150808214612f21576001600160a01b03841660009081526006602090815260408083208584528252808320548484528184208190558352600790915290208190555b5060009182526007602090815260408084208490556001600160a01b039094168352600681528383209183525290812055565b600854600090612f6690600190613769565b60008381526009602052604081205460088054939450909284908110612f9c57634e487b7160e01b600052603260045260246000fd5b906000526020600020015490508060088381548110612fcb57634e487b7160e01b600052603260045260246000fd5b600091825260208083209091019290925582815260099091526040808220849055858252812055600880548061301157634e487b7160e01b600052603160045260246000fd5b6001900381819060005260206000200160009055905550505050565b60006130388361175a565b6001600160a01b039093166000908152600660209081526040808320868452825280832085905593825260079052919091209190915550565b6001600160a01b0382166130c75760405162461bcd60e51b815260206004820181905260248201527f4552433732313a206d696e7420746f20746865207a65726f20616464726573736044820152606401610e54565b6000818152600260205260409020546001600160a01b03161561312c5760405162461bcd60e51b815260206004820152601c60248201527f4552433732313a20746f6b656e20616c7265616479206d696e746564000000006044820152606401610e54565b61313860008383612b2f565b6001600160a01b038216600090815260036020526040812080546001929061316190849061371e565b909155505060008181526002602052604080822080546001600160a01b0319166001600160a01b03861690811790915590518392907fddf252ad1be2c89b69c2b068fc378daa952ba7f163c4a11628f55a4df523b3ef908290a45050565b8280546131cb906137c3565b90600052602060002090601f0160209004810192826131ed5760008555613233565b82601f1061320657805160ff1916838001178555613233565b82800160010185558215613233579182015b82811115613233578251825591602001919060010190613218565b5061323f929150613243565b5090565b5b8082111561323f5760008155600101613244565b600067ffffffffffffffff8084111561327357613273613859565b604051601f8501601f19908116603f0116810190828211818310171561329b5761329b613859565b816040528093508581528686860111156132b457600080fd5b858560208301376000602087830101525050509392505050565b803580151581146132de57600080fd5b919050565b6000602082840312156132f4578081fd5b81356110ee8161386f565b600060208284031215613310578081fd5b81516110ee8161386f565b6000806040838503121561332d578081fd5b82356133388161386f565b915060208301356133488161386f565b809150509250929050565b600080600060608486031215613367578081fd5b83356133728161386f565b925060208401356133828161386f565b929592945050506040919091013590565b600080600080608085870312156133a8578081fd5b84356133b38161386f565b935060208501356133c38161386f565b925060408501359150606085013567ffffffffffffffff8111156133e5578182fd5b8501601f810187136133f5578182fd5b61340487823560208401613258565b91505092959194509250565b60008060408385031215613422578182fd5b823561342d8161386f565b9150610fb8602084016132ce565b6000806040838503121561344d578182fd5b82356134588161386f565b946020939093013593505050565b600060208284031215613477578081fd5b6110ee826132ce565b60008060408385031215613492578182fd5b613458836132ce565b6000602082840312156134ac578081fd5b81356110ee81613884565b6000602082840312156134c8578081fd5b81516110ee81613884565b6000602082840312156134e4578081fd5b813567ffffffffffffffff8111156134fa578182fd5b8201601f8101841361350a578182fd5b610f0384823560208401613258565b60006020828403121561352a578081fd5b5035919050565b600060208284031215613542578081fd5b5051919050565b6000806040838503121561355b578182fd5b82359150610fb8602084016132ce565b6000806040838503121561357d578182fd5b50508035926020909101359150565b600081518084526135a4816020860160208601613780565b601f01601f19169290920160200192915050565b600083516135ca818460208801613780565b8351908301906135de818360208801613780565b01949350505050565b6001600160a01b038581168252841660208201526040810183905260806060820181905260009061361a9083018461358c565b9695505050505050565b6020808252825182820181905260009190848201906040850190845b8181101561365c57835183529284019291840191600101613640565b50909695505050505050565b6020815260006110ee602083018461358c565b60208082526032908201527f4552433732313a207472616e7366657220746f206e6f6e20455243373231526560408201527131b2b4bb32b91034b6b83632b6b2b73a32b960711b606082015260800190565b60208082526031908201527f4552433732313a207472616e736665722063616c6c6572206973206e6f74206f6040820152701ddb995c881b9bdc88185c1c1c9bdd9959607a1b606082015260800190565b600082198211156137315761373161382d565b500190565b60008261374557613745613843565b500490565b60008160001904831182151516156137645761376461382d565b500290565b60008282101561377b5761377b61382d565b500390565b60005b8381101561379b578181015183820152602001613783565b838111156128685750506000910152565b6000816137bb576137bb61382d565b506000190190565b600181811c908216806137d757607f821691505b602082108114156137f857634e487b7160e01b600052602260045260246000fd5b50919050565b60006000198214156138125761381261382d565b5060010190565b60008261382857613828613843565b500690565b634e487b7160e01b600052601160045260246000fd5b634e487b7160e01b600052601260045260246000fd5b634e487b7160e01b600052604160045260246000fd5b6001600160a01b0381168114610fd257600080fd5b6001600160e01b031981168114610fd257600080fdfea264697066735822122071c1cdbbb5899ae7e3a03e178c0c4fe2f0823730c9ff3395c90081baf999c2ef64736f6c63430008040033",
  "linkReferences": {},
  "deployedLinkReferences": {}
}