{
  "_format": "hh-sol-artifact-1",
  "contractName": "Girl",
  "sourceName": "contracts/Girl/Girl.sol",
  "abi": [
    {
      "inputs": [
        {
          "internalType": "string",
          "name": "_initBaseURI",
          "type": "string"
        },
        {
          "internalType": "address",
          "name": "_orb",
          "type": "address"
        },
        {
          "internalType": "address",
          "name": "_emissions",
          "type": "address"
        },
        {
          "internalType": "address payable",
          "name": "_dev",
          "type": "address"
        },
        {
          "internalType": "address",
          "name": "_royalty",
          "type": "address"
        }
      ],
      "stateMutability": "nonpayable",
      "type": "constructor"
    },
    {
      "anonymous": false,
      "inputs": [
        {
          "indexed": true,
          "internalType": "address",
          "name": "owner",
          "type": "address"
        },
        {
          "indexed": true,
          "internalType": "address",
          "name": "approved",
          "type": "address"
        },
        {
          "indexed": true,
          "internalType": "uint256",
          "name": "tokenId",
          "type": "uint256"
        }
      ],
      "name": "Approval",
      "type": "event"
    },
    {
      "anonymous": false,
      "inputs": [
        {
          "indexed": true,
          "internalType": "address",
          "name": "owner",
          "type": "address"
        },
        {
          "indexed": true,
          "internalType": "address",
          "name": "operator",
          "type": "address"
        },
        {
          "indexed": false,
          "internalType": "bool",
          "name": "approved",
          "type": "bool"
        }
      ],
      "name": "ApprovalForAll",
      "type": "event"
    },
    {
      "anonymous": false,
      "inputs": [
        {
          "indexed": false,
          "internalType": "uint256",
          "name": "id",
          "type": "uint256"
        },
        {
          "indexed": false,
          "internalType": "uint256",
          "name": "newLevel",
          "type": "uint256"
        }
      ],
      "name": "CosmicLevelChanged",
      "type": "event"
    },
    {
      "anonymous": false,
      "inputs": [
        {
          "indexed": false,
          "internalType": "uint256",
          "name": "id",
          "type": "uint256"
        },
        {
          "indexed": false,
          "internalType": "uint256",
          "name": "element",
          "type": "uint256"
        }
      ],
      "name": "ElementChanged",
      "type": "event"
    },
    {
      "anonymous": false,
      "inputs": [
        {
          "indexed": false,
          "internalType": "uint256",
          "name": "id",
          "type": "uint256"
        },
        {
          "indexed": false,
          "internalType": "uint256",
          "name": "newScore",
          "type": "uint256"
        }
      ],
      "name": "GamerScoreChanged",
      "type": "event"
    },
    {
      "anonymous": false,
      "inputs": [
        {
          "indexed": false,
          "internalType": "address",
          "name": "minter",
          "type": "address"
        },
        {
          "indexed": true,
          "internalType": "uint256",
          "name": "id",
          "type": "uint256"
        },
        {
          "indexed": true,
          "internalType": "bool",
          "name": "usingOrb",
          "type": "bool"
        },
        {
          "indexed": true,
          "internalType": "uint256",
          "name": "rarity",
          "type": "uint256"
        }
      ],
      "name": "GirlMinted",
      "type": "event"
    },
    {
      "anonymous": false,
      "inputs": [
        {
          "indexed": true,
          "internalType": "address",
          "name": "previousOwner",
          "type": "address"
        },
        {
          "indexed": true,
          "internalType": "address",
          "name": "newOwner",
          "type": "address"
        }
      ],
      "name": "OwnershipTransferred",
      "type": "event"
    },
    {
      "anonymous": false,
      "inputs": [
        {
          "indexed": false,
          "internalType": "uint256",
          "name": "id",
          "type": "uint256"
        },
        {
          "indexed": false,
          "internalType": "uint256",
          "name": "cl",
          "type": "uint256"
        },
        {
          "indexed": false,
          "internalType": "uint256",
          "name": "el",
          "type": "uint256"
        }
      ],
      "name": "StatsInitialized",
      "type": "event"
    },
    {
      "anonymous": false,
      "inputs": [
        {
          "indexed": true,
          "internalType": "address",
          "name": "from",
          "type": "address"
        },
        {
          "indexed": true,
          "internalType": "address",
          "name": "to",
          "type": "address"
        },
        {
          "indexed": true,
          "internalType": "uint256",
          "name": "tokenId",
          "type": "uint256"
        }
      ],
      "name": "Transfer",
      "type": "event"
    },
    {
      "inputs": [],
      "name": "INTERFACE_ID_ERC2981",
      "outputs": [
        {
          "internalType": "bytes4",
          "name": "",
          "type": "bytes4"
        }
      ],
      "stateMutability": "view",
      "type": "function"
    },
    {
      "inputs": [
        {
          "internalType": "address",
          "name": "to",
          "type": "address"
        },
        {
          "internalType": "uint256",
          "name": "tokenId",
          "type": "uint256"
        }
      ],
      "name": "approve",
      "outputs": [],
      "stateMutability": "nonpayable",
      "type": "function"
    },
    {
      "inputs": [],
      "name": "attunement",
      "outputs": [
        {
          "internalType": "contract IAttunement",
          "name": "",
          "type": "address"
        }
      ],
      "stateMutability": "view",
      "type": "function"
    },
    {
      "inputs": [
        {
          "internalType": "address",
          "name": "owner",
          "type": "address"
        }
      ],
      "name": "balanceOf",
      "outputs": [
        {
          "internalType": "uint256",
          "name": "",
          "type": "uint256"
        }
      ],
      "stateMutability": "view",
      "type": "function"
    },
    {
      "inputs": [
        {
          "internalType": "uint256",
          "name": "id",
          "type": "uint256"
        },
        {
          "internalType": "uint256",
          "name": "toTier",
          "type": "uint256"
        }
      ],
      "name": "calcCosmicLevelUpgradeCost",
      "outputs": [
        {
          "internalType": "uint256[]",
          "name": "",
          "type": "uint256[]"
        }
      ],
      "stateMutability": "view",
      "type": "function"
    },
    {
      "inputs": [
        {
          "internalType": "uint256",
          "name": "id",
          "type": "uint256"
        },
        {
          "internalType": "uint256",
          "name": "toTier",
          "type": "uint256"
        }
      ],
      "name": "calcGamerScoreUpgradeCost",
      "outputs": [
        {
          "internalType": "uint256",
          "name": "",
          "type": "uint256"
        }
      ],
      "stateMutability": "view",
      "type": "function"
    },
    {
      "inputs": [],
      "name": "charges",
      "outputs": [
        {
          "internalType": "uint256",
          "name": "",
          "type": "uint256"
        }
      ],
      "stateMutability": "view",
      "type": "function"
    },
    {
      "inputs": [
        {
          "internalType": "uint256",
          "name": "",
          "type": "uint256"
        }
      ],
      "name": "chargesUsed",
      "outputs": [
        {
          "internalType": "uint256",
          "name": "",
          "type": "uint256"
        }
      ],
      "stateMutability": "view",
      "type": "function"
    },
    {
      "inputs": [
        {
          "internalType": "uint256",
          "name": "girlId",
          "type": "uint256"
        }
      ],
      "name": "checkStake",
      "outputs": [
        {
          "internalType": "address",
          "name": "",
          "type": "address"
        },
        {
          "internalType": "bool",
          "name": "",
          "type": "bool"
        },
        {
          "internalType": "uint256",
          "name": "",
          "type": "uint256"
        }
      ],
      "stateMutability": "view",
      "type": "function"
    },
    {
      "inputs": [
        {
          "internalType": "uint256",
          "name": "",
          "type": "uint256"
        }
      ],
      "name": "cosmicLevel",
      "outputs": [
        {
          "internalType": "uint256",
          "name": "",
          "type": "uint256"
        }
      ],
      "stateMutability": "view",
      "type": "function"
    },
    {
      "inputs": [
        {
          "internalType": "uint256",
          "name": "",
          "type": "uint256"
        }
      ],
      "name": "element",
      "outputs": [
        {
          "internalType": "uint256",
          "name": "",
          "type": "uint256"
        }
      ],
      "stateMutability": "view",
      "type": "function"
    },
    {
      "inputs": [],
      "name": "emissions",
      "outputs": [
        {
          "internalType": "contract IEmissions",
          "name": "",
          "type": "address"
        }
      ],
      "stateMutability": "view",
      "type": "function"
    },
    {
      "inputs": [
        {
          "internalType": "uint256",
          "name": "",
          "type": "uint256"
        }
      ],
      "name": "gamerScore",
      "outputs": [
        {
          "internalType": "uint256",
          "name": "",
          "type": "uint256"
        }
      ],
      "stateMutability": "view",
      "type": "function"
    },
    {
      "inputs": [
        {
          "internalType": "uint256",
          "name": "tokenId",
          "type": "uint256"
        }
      ],
      "name": "getApproved",
      "outputs": [
        {
          "internalType": "address",
          "name": "",
          "type": "address"
        }
      ],
      "stateMutability": "view",
      "type": "function"
    },
    {
      "inputs": [
        {
          "internalType": "uint256",
          "name": "id",
          "type": "uint256"
        }
      ],
      "name": "getChargesRemaining",
      "outputs": [
        {
          "internalType": "uint256",
          "name": "",
          "type": "uint256"
        }
      ],
      "stateMutability": "view",
      "type": "function"
    },
    {
      "inputs": [
        {
          "internalType": "uint256",
          "name": "_id",
          "type": "uint256"
        }
      ],
      "name": "getCosmicLevel",
      "outputs": [
        {
          "internalType": "uint256",
          "name": "",
          "type": "uint256"
        }
      ],
      "stateMutability": "view",
      "type": "function"
    },
    {
      "inputs": [
        {
          "internalType": "uint256",
          "name": "id",
          "type": "uint256"
        },
        {
          "internalType": "uint256",
          "name": "toTier",
          "type": "uint256"
        }
      ],
      "name": "getCosmicLevelUpgradeCost",
      "outputs": [
        {
          "internalType": "uint256[]",
          "name": "",
          "type": "uint256[]"
        }
      ],
      "stateMutability": "view",
      "type": "function"
    },
    {
      "inputs": [],
      "name": "getCost",
      "outputs": [
        {
          "internalType": "uint256",
          "name": "",
          "type": "uint256"
        }
      ],
      "stateMutability": "view",
      "type": "function"
    },
    {
      "inputs": [],
      "name": "getDiscountCost",
      "outputs": [
        {
          "internalType": "uint256",
          "name": "",
          "type": "uint256"
        }
      ],
      "stateMutability": "view",
      "type": "function"
    },
    {
      "inputs": [
        {
          "internalType": "uint256",
          "name": "_id",
          "type": "uint256"
        }
      ],
      "name": "getElement",
      "outputs": [
        {
          "internalType": "uint256",
          "name": "",
          "type": "uint256"
        }
      ],
      "stateMutability": "view",
      "type": "function"
    },
    {
      "inputs": [
        {
          "internalType": "uint256",
          "name": "_id",
          "type": "uint256"
        }
      ],
      "name": "getGamerScore",
      "outputs": [
        {
          "internalType": "uint256",
          "name": "",
          "type": "uint256"
        }
      ],
      "stateMutability": "view",
      "type": "function"
    },
    {
      "inputs": [
        {
          "internalType": "uint256",
          "name": "id",
          "type": "uint256"
        },
        {
          "internalType": "uint256",
          "name": "toTier",
          "type": "uint256"
        }
      ],
      "name": "getGamerScoreUpgradeCost",
      "outputs": [
        {
          "internalType": "uint256",
          "name": "cost",
          "type": "uint256"
        }
      ],
      "stateMutability": "view",
      "type": "function"
    },
    {
      "inputs": [
        {
          "internalType": "uint256",
          "name": "",
          "type": "uint256"
        }
      ],
      "name": "gsUpgradeCosts",
      "outputs": [
        {
          "internalType": "uint256",
          "name": "",
          "type": "uint256"
        }
      ],
      "stateMutability": "view",
      "type": "function"
    },
    {
      "inputs": [
        {
          "internalType": "uint256",
          "name": "id",
          "type": "uint256"
        },
        {
          "internalType": "uint256",
          "name": "toTier",
          "type": "uint256"
        }
      ],
      "name": "handleUpgradeCosmicLevel",
      "outputs": [],
      "stateMutability": "nonpayable",
      "type": "function"
    },
    {
      "inputs": [
        {
          "internalType": "uint256",
          "name": "id",
          "type": "uint256"
        },
        {
          "internalType": "uint256",
          "name": "toTier",
          "type": "uint256"
        }
      ],
      "name": "handleUpgradeGamerScore",
      "outputs": [],
      "stateMutability": "nonpayable",
      "type": "function"
    },
    {
      "inputs": [
        {
          "internalType": "uint256",
          "name": "id",
          "type": "uint256"
        },
        {
          "internalType": "uint256",
          "name": "cl",
          "type": "uint256"
        },
        {
          "internalType": "uint256",
          "name": "el",
          "type": "uint256"
        }
      ],
      "name": "initStats",
      "outputs": [],
      "stateMutability": "nonpayable",
      "type": "function"
    },
    {
      "inputs": [
        {
          "internalType": "address",
          "name": "owner",
          "type": "address"
        },
        {
          "internalType": "address",
          "name": "operator",
          "type": "address"
        }
      ],
      "name": "isApprovedForAll",
      "outputs": [
        {
          "internalType": "bool",
          "name": "",
          "type": "bool"
        }
      ],
      "stateMutability": "view",
      "type": "function"
    },
    {
      "inputs": [
        {
          "internalType": "address",
          "name": "",
          "type": "address"
        }
      ],
      "name": "isElementalStone",
      "outputs": [
        {
          "internalType": "bool",
          "name": "",
          "type": "bool"
        }
      ],
      "stateMutability": "view",
      "type": "function"
    },
    {
      "inputs": [
        {
          "internalType": "uint256",
          "name": "girlId",
          "type": "uint256"
        }
      ],
      "name": "isPaired",
      "outputs": [
        {
          "internalType": "bool",
          "name": "",
          "type": "bool"
        }
      ],
      "stateMutability": "view",
      "type": "function"
    },
    {
      "inputs": [
        {
          "internalType": "address",
          "name": "",
          "type": "address"
        }
      ],
      "name": "isWorker",
      "outputs": [
        {
          "internalType": "bool",
          "name": "",
          "type": "bool"
        }
      ],
      "stateMutability": "view",
      "type": "function"
    },
    {
      "inputs": [
        {
          "internalType": "uint256",
          "name": "",
          "type": "uint256"
        }
      ],
      "name": "matchedElementCosts",
      "outputs": [
        {
          "internalType": "uint256",
          "name": "",
          "type": "uint256"
        }
      ],
      "stateMutability": "view",
      "type": "function"
    },
    {
      "inputs": [
        {
          "internalType": "bool",
          "name": "usingOrb",
          "type": "bool"
        },
        {
          "internalType": "uint256",
          "name": "orbId",
          "type": "uint256"
        },
        {
          "internalType": "uint256",
          "name": "amount",
          "type": "uint256"
        }
      ],
      "name": "mint",
      "outputs": [],
      "stateMutability": "payable",
      "type": "function"
    },
    {
      "inputs": [],
      "name": "moonstone",
      "outputs": [
        {
          "internalType": "contract IERC20",
          "name": "",
          "type": "address"
        }
      ],
      "stateMutability": "view",
      "type": "function"
    },
    {
      "inputs": [],
      "name": "name",
      "outputs": [
        {
          "internalType": "string",
          "name": "",
          "type": "string"
        }
      ],
      "stateMutability": "view",
      "type": "function"
    },
    {
      "inputs": [
        {
          "internalType": "address",
          "name": "",
          "type": "address"
        },
        {
          "internalType": "address",
          "name": "",
          "type": "address"
        },
        {
          "internalType": "uint256",
          "name": "",
          "type": "uint256"
        },
        {
          "internalType": "bytes",
          "name": "",
          "type": "bytes"
        }
      ],
      "name": "onERC721Received",
      "outputs": [
        {
          "internalType": "bytes4",
          "name": "",
          "type": "bytes4"
        }
      ],
      "stateMutability": "nonpayable",
      "type": "function"
    },
    {
      "inputs": [],
      "name": "orb",
      "outputs": [
        {
          "internalType": "contract IERC721",
          "name": "",
          "type": "address"
        }
      ],
      "stateMutability": "view",
      "type": "function"
    },
    {
      "inputs": [],
      "name": "orbRarity",
      "outputs": [
        {
          "internalType": "contract IOrbRarity",
          "name": "",
          "type": "address"
        }
      ],
      "stateMutability": "view",
      "type": "function"
    },
    {
      "inputs": [],
      "name": "owner",
      "outputs": [
        {
          "internalType": "address",
          "name": "",
          "type": "address"
        }
      ],
      "stateMutability": "view",
      "type": "function"
    },
    {
      "inputs": [
        {
          "internalType": "uint256",
          "name": "tokenId",
          "type": "uint256"
        }
      ],
      "name": "ownerOf",
      "outputs": [
        {
          "internalType": "address",
          "name": "",
          "type": "address"
        }
      ],
      "stateMutability": "view",
      "type": "function"
    },
    {
      "inputs": [
        {
          "internalType": "uint256",
          "name": "",
          "type": "uint256"
        }
      ],
      "name": "paired",
      "outputs": [
        {
          "internalType": "bool",
          "name": "",
          "type": "bool"
        }
      ],
      "stateMutability": "view",
      "type": "function"
    },
    {
      "inputs": [],
      "name": "renounceOwnership",
      "outputs": [],
      "stateMutability": "nonpayable",
      "type": "function"
    },
    {
      "inputs": [
        {
          "internalType": "uint256",
          "name": "_tokenId",
          "type": "uint256"
        },
        {
          "internalType": "uint256",
          "name": "_salePrice",
          "type": "uint256"
        }
      ],
      "name": "royaltyInfo",
      "outputs": [
        {
          "internalType": "address",
          "name": "receiver",
          "type": "address"
        },
        {
          "internalType": "uint256",
          "name": "royaltyAmount",
          "type": "uint256"
        }
      ],
      "stateMutability": "view",
      "type": "function"
    },
    {
      "inputs": [
        {
          "internalType": "address",
          "name": "from",
          "type": "address"
        },
        {
          "internalType": "address",
          "name": "to",
          "type": "address"
        },
        {
          "internalType": "uint256",
          "name": "tokenId",
          "type": "uint256"
        }
      ],
      "name": "safeTransferFrom",
      "outputs": [],
      "stateMutability": "nonpayable",
      "type": "function"
    },
    {
      "inputs": [
        {
          "internalType": "address",
          "name": "from",
          "type": "address"
        },
        {
          "internalType": "address",
          "name": "to",
          "type": "address"
        },
        {
          "internalType": "uint256",
          "name": "tokenId",
          "type": "uint256"
        },
        {
          "internalType": "bytes",
          "name": "_data",
          "type": "bytes"
        }
      ],
      "name": "safeTransferFrom",
      "outputs": [],
      "stateMutability": "nonpayable",
      "type": "function"
    },
    {
      "inputs": [
        {
          "internalType": "address",
          "name": "operator",
          "type": "address"
        },
        {
          "internalType": "bool",
          "name": "approved",
          "type": "bool"
        }
      ],
      "name": "setApprovalForAll",
      "outputs": [],
      "stateMutability": "nonpayable",
      "type": "function"
    },
    {
      "inputs": [
        {
          "internalType": "address",
          "name": "_a",
          "type": "address"
        }
      ],
      "name": "setAttunementContract",
      "outputs": [],
      "stateMutability": "nonpayable",
      "type": "function"
    },
    {
      "inputs": [
        {
          "internalType": "string",
          "name": "_newBaseURI",
          "type": "string"
        }
      ],
      "name": "setBaseURI",
      "outputs": [],
      "stateMutability": "nonpayable",
      "type": "function"
    },
    {
      "inputs": [
        {
          "internalType": "uint256",
          "name": "_newCost",
          "type": "uint256"
        }
      ],
      "name": "setCost",
      "outputs": [],
      "stateMutability": "nonpayable",
      "type": "function"
    },
    {
      "inputs": [
        {
          "internalType": "uint256",
          "name": "_id",
          "type": "uint256"
        },
        {
          "internalType": "uint256",
          "name": "_newElement",
          "type": "uint256"
        }
      ],
      "name": "setElement",
      "outputs": [],
      "stateMutability": "nonpayable",
      "type": "function"
    },
    {
      "inputs": [
        {
          "internalType": "address",
          "name": "_es",
          "type": "address"
        }
      ],
      "name": "setElementalStoneContract",
      "outputs": [],
      "stateMutability": "nonpayable",
      "type": "function"
    },
    {
      "inputs": [
        {
          "internalType": "address",
          "name": "_e",
          "type": "address"
        }
      ],
      "name": "setEmissions",
      "outputs": [],
      "stateMutability": "nonpayable",
      "type": "function"
    },
    {
      "inputs": [
        {
          "internalType": "address",
          "name": "_moonstone",
          "type": "address"
        }
      ],
      "name": "setMoonstoneContract",
      "outputs": [],
      "stateMutability": "nonpayable",
      "type": "function"
    },
    {
      "inputs": [
        {
          "internalType": "address",
          "name": "_orbRarity",
          "type": "address"
        }
      ],
      "name": "setOrbRarity",
      "outputs": [],
      "stateMutability": "nonpayable",
      "type": "function"
    },
    {
      "inputs": [
        {
          "internalType": "uint256",
          "name": "_id",
          "type": "uint256"
        },
        {
          "internalType": "bool",
          "name": "_paired",
          "type": "bool"
        }
      ],
      "name": "setPaired",
      "outputs": [],
      "stateMutability": "nonpayable",
      "type": "function"
    },
    {
      "inputs": [
        {
          "internalType": "address",
          "name": "newRecipient",
          "type": "address"
        }
      ],
      "name": "setRoyalties",
      "outputs": [],
      "stateMutability": "nonpayable",
      "type": "function"
    },
    {
      "inputs": [
        {
          "internalType": "address",
          "name": "_worker",
          "type": "address"
        },
        {
          "internalType": "bool",
          "name": "_isWorker",
          "type": "bool"
        }
      ],
      "name": "setWorker",
      "outputs": [],
      "stateMutability": "nonpayable",
      "type": "function"
    },
    {
      "inputs": [
        {
          "internalType": "bytes4",
          "name": "interfaceId",
          "type": "bytes4"
        }
      ],
      "name": "supportsInterface",
      "outputs": [
        {
          "internalType": "bool",
          "name": "",
          "type": "bool"
        }
      ],
      "stateMutability": "view",
      "type": "function"
    },
    {
      "inputs": [],
      "name": "symbol",
      "outputs": [
        {
          "internalType": "string",
          "name": "",
          "type": "string"
        }
      ],
      "stateMutability": "view",
      "type": "function"
    },
    {
      "inputs": [
        {
          "internalType": "uint256",
          "name": "index",
          "type": "uint256"
        }
      ],
      "name": "tokenByIndex",
      "outputs": [
        {
          "internalType": "uint256",
          "name": "",
          "type": "uint256"
        }
      ],
      "stateMutability": "view",
      "type": "function"
    },
    {
      "inputs": [
        {
          "internalType": "address",
          "name": "owner",
          "type": "address"
        },
        {
          "internalType": "uint256",
          "name": "index",
          "type": "uint256"
        }
      ],
      "name": "tokenOfOwnerByIndex",
      "outputs": [
        {
          "internalType": "uint256",
          "name": "",
          "type": "uint256"
        }
      ],
      "stateMutability": "view",
      "type": "function"
    },
    {
      "inputs": [
        {
          "internalType": "uint256",
          "name": "tokenId",
          "type": "uint256"
        }
      ],
      "name": "tokenURI",
      "outputs": [
        {
          "internalType": "string",
          "name": "",
          "type": "string"
        }
      ],
      "stateMutability": "view",
      "type": "function"
    },
    {
      "inputs": [],
      "name": "totalSupply",
      "outputs": [
        {
          "internalType": "uint256",
          "name": "",
          "type": "uint256"
        }
      ],
      "stateMutability": "view",
      "type": "function"
    },
    {
      "inputs": [
        {
          "internalType": "address",
          "name": "from",
          "type": "address"
        },
        {
          "internalType": "address",
          "name": "to",
          "type": "address"
        },
        {
          "internalType": "uint256",
          "name": "tokenId",
          "type": "uint256"
        }
      ],
      "name": "transferFrom",
      "outputs": [],
      "stateMutability": "nonpayable",
      "type": "function"
    },
    {
      "inputs": [
        {
          "internalType": "address",
          "name": "newOwner",
          "type": "address"
        }
      ],
      "name": "transferOwnership",
      "outputs": [],
      "stateMutability": "nonpayable",
      "type": "function"
    },
    {
      "inputs": [
        {
          "internalType": "uint256",
          "name": "",
          "type": "uint256"
        }
      ],
      "name": "unmatchedElementCosts",
      "outputs": [
        {
          "internalType": "uint256",
          "name": "",
          "type": "uint256"
        }
      ],
      "stateMutability": "view",
      "type": "function"
    },
    {
      "inputs": [
        {
          "internalType": "address",
          "name": "_owner",
          "type": "address"
        }
      ],
      "name": "walletOfOwner",
      "outputs": [
        {
          "internalType": "uint256[]",
          "name": "",
          "type": "uint256[]"
        }
      ],
      "stateMutability": "view",
      "type": "function"
    },
    {
      "inputs": [
        {
          "internalType": "address payable",
          "name": "_rest",
          "type": "address"
        }
      ],
      "name": "withdraw",
      "outputs": [],
      "stateMutability": "nonpayable",
      "type": "function"
    }
  ],
  "bytecode": "0x6019600e55600a600f9081556103c060405260006080908152600460a081905260c081905260e05260056101008190526101208190526101408190526101608190526101805260066101a08190526101c05260076101e052600861020081905261022081905261024081905261026052600b6102808190526102a08190526102c052600c6102e08190526103005261032091909152601061034081905261036081905260116103808190526103a052620000bb91601a620004d2565b50604080516101408101825260008152600260208201526003918101829052606081019190915260046080820152600660a0820152600860c0820152600b60e0820152600e61010082015260126101208201526200011e90602a90600a6200051a565b506040805161014081018252600080825260208201819052918101919091526001606082015260026080820152600360a0820152600460c0820152600560e0820152600761010082015260096101208201526200018090603490600a6200051a565b50605a6041556005604255600f604355611388604955348015620001a357600080fd5b506040516200438b3803806200438b833981016040819052620001c69162000600565b604080518082018252600f81526e151bdade5bc815195cdd0811da5c9b608a1b60208083019182528351808501909452600384526254544760e81b90840152815191929162000218916000916200054f565b5080516200022e9060019060208401906200054f565b5050506200024b62000245620002d260201b60201c565b620002d6565b603e80546001600160a01b0319166001600160a01b038616179055620002718562000328565b6200027c836200034b565b620002878162000377565b620002943360016200038f565b620002a7674563918244f40000620003c4565b50604a80546001600160a01b0319166001600160a01b03929092169190911790555062000776915050565b3390565b600a80546001600160a01b038381166001600160a01b0319831681179093556040519116919082907f8be0079c531659141344cd1fd0a4f28419497f9722a3daafe3b4186f6b6457e090600090a35050565b62000332620003e1565b8051620003479060489060208401906200054f565b5050565b62000355620003e1565b604780546001600160a01b0319166001600160a01b0392909216919091179055565b62000381620003e1565b6200038c8162000443565b50565b62000399620003e1565b6001600160a01b03919091166000908152604e60205260409020805460ff1916911515919091179055565b620003ce620003e1565b60008111620003dc57600080fd5b604055565b600a546001600160a01b03163314620004415760405162461bcd60e51b815260206004820181905260248201527f4f776e61626c653a2063616c6c6572206973206e6f7420746865206f776e657260448201526064015b60405180910390fd5b565b6001600160a01b038116620004b05760405162461bcd60e51b815260206004820152602c60248201527f526f79616c746965733a206e657720726563697069656e74206973207468652060448201526b7a65726f206164647265737360a01b606482015260840162000438565b604b80546001600160a01b0319166001600160a01b0392909216919091179055565b82601a810192821562000508579160200282015b8281111562000508578251829060ff16905591602001919060010190620004e6565b5062000516929150620005cc565b5090565b82600a810192821562000508579160200282018281111562000508578251829060ff16905591602001919060010190620004e6565b8280546200055d9062000723565b90600052602060002090601f01602090048101928262000581576000855562000508565b82601f106200059c57805160ff191683800117855562000508565b8280016001018555821562000508579182015b8281111562000508578251825591602001919060010190620005af565b5b80821115620005165760008155600101620005cd565b80516001600160a01b0381168114620005fb57600080fd5b919050565b600080600080600060a0868803121562000618578081fd5b85516001600160401b03808211156200062f578283fd5b818801915088601f83011262000643578283fd5b81518181111562000658576200065862000760565b604051601f8201601f19908116603f0116810190838211818310171562000683576200068362000760565b81604052828152602093508b848487010111156200069f578586fd5b8591505b82821015620006c25784820184015181830185015290830190620006a3565b82821115620006d357858484830101525b9850620006e5915050888201620005e3565b95505050620006f760408701620005e3565b92506200070760608701620005e3565b91506200071760808701620005e3565b90509295509295909350565b600181811c908216806200073857607f821691505b602082108114156200075a57634e487b7160e01b600052602260045260246000fd5b50919050565b634e487b7160e01b600052604160045260246000fd5b613c0580620007866000396000f3fe6080604052600436106103e45760003560e01c80636352211e11610208578063b060dd8611610118578063e00cda26116100ab578063f2fde38b1161007a578063f2fde38b14610cb0578063f909a9cf14610cd0578063fd79e7ac14610cfd578063ff23d7d314610d1d578063ff91078314610d3d57600080fd5b8063e00cda2614610c11578063e985e9c514610c27578063f090e00414610c70578063f2731f4a14610c9d57600080fd5b8063c3ca39f8116100e7578063c3ca39f814610b84578063c4e2676714610ba4578063c87b56dd14610bc4578063d066100614610be457600080fd5b8063b060dd8614610b14578063b88d4fde14610b2f578063bd3e19d414610b4f578063c373d7f314610b6457600080fd5b8063814e1bb81161019b578063a16e72151161016a578063a16e721514610a57578063a22b36ef14610a77578063a22cb46514610aa4578063a388237d14610ac4578063aa15664514610ae457600080fd5b8063814e1bb8146109d45780638da5cb5b146109f45780638efab2d514610a1257806395d89b4114610a4257600080fd5b806370a08231116101d757806370a082311461095f578063715018a61461097f57806373ae2d78146109945780637a6832a5146109b457600080fd5b80636352211e146108df578063690d1ca2146108ff578063692502201461091f5780636aa5dd711461093f57600080fd5b80632a9e63c611610303578063438b63001161029657806351cff8d91161026557806351cff8d91461083257806355f804b314610852578063562d412f1461087257806358d70d741461089f5780635c5ac79a146108bf57600080fd5b8063438b6300146107a557806344a0d68a146107c557806349af0b94146107e55780634f6ccce71461081257600080fd5b80633f1ed709116102d25780633f1ed709146106f35780633f74c5961461071357806340a3c3381461074057806342842e0e1461078557600080fd5b80632a9e63c6146106665780632f745c59146106865780633a7d22bc146106a65780633c010930146106d357600080fd5b806312cbd7051161037b5780631eeb2f4f1161034a5780631eeb2f4f146105c75780632267716c146105e757806323b872dd146106075780632a55205a1461062757600080fd5b806312cbd7051461052a578063150b7a021461055a57806318160ddd146105935780631c8a76c5146105b257600080fd5b806308e6981e116103b757806308e6981e1461049a578063095ea7b3146104ba5780630b689417146104da5780630f3b899b1461050a57600080fd5b806301ffc9a7146103e957806306fdde031461041e578063081812fc1461044057806308834ee714610478575b600080fd5b3480156103f557600080fd5b50610409610404366004613795565b610d5d565b60405190151581526020015b60405180910390f35b34801561042a57600080fd5b50610433610d88565b604051610415919061398d565b34801561044c57600080fd5b5061046061045b366004613813565b610e1a565b6040516001600160a01b039091168152602001610415565b34801561048457600080fd5b506104986104933660046135e0565b610e41565b005b3480156104a657600080fd5b506104986104b5366004613886565b610e6b565b3480156104c657600080fd5b506104986104d5366004613738565b610f92565b3480156104e657600080fd5b506104096104f5366004613813565b6000908152604d602052604090205460ff1690565b34801561051657600080fd5b50604654610460906001600160a01b031681565b34801561053657600080fd5b506104096105453660046135e0565b604c6020526000908152604090205460ff1681565b34801561056657600080fd5b5061057a610575366004613690565b6110a8565b6040516001600160e01b03199091168152602001610415565b34801561059f57600080fd5b506008545b604051908152602001610415565b3480156105be57600080fd5b506105a46110b9565b3480156105d357600080fd5b506104986105e23660046135e0565b6110dc565b3480156105f357600080fd5b50604754610460906001600160a01b031681565b34801561061357600080fd5b50610498610622366004613650565b611106565b34801561063357600080fd5b50610647610642366004613865565b61119a565b604080516001600160a01b039093168352602083019190915201610415565b34801561067257600080fd5b506104986106813660046135e0565b6111bc565b34801561069257600080fd5b506105a46106a1366004613738565b6111d0565b3480156106b257600080fd5b506105a46106c1366004613813565b6000908152600d602052604090205490565b3480156106df57600080fd5b506105a46106ee366004613865565b611266565b3480156106ff57600080fd5b5061049861070e366004613843565b611361565b34801561071f57600080fd5b5061073361072e366004613865565b6113f5565b6040516104159190613949565b34801561074c57600080fd5b5061076061075b366004613813565b611487565b604080516001600160a01b039094168452911515602084015290820152606001610415565b34801561079157600080fd5b506104986107a0366004613650565b6114c0565b3480156107b157600080fd5b506107336107c03660046135e0565b6114db565b3480156107d157600080fd5b506104986107e0366004613813565b611599565b3480156107f157600080fd5b506105a4610800366004613813565b60446020526000908152604090205481565b34801561081e57600080fd5b506105a461082d366004613813565b6115b3565b34801561083e57600080fd5b5061049861084d3660046135e0565b611654565b34801561085e57600080fd5b5061049861086d3660046137cd565b6116d4565b34801561087e57600080fd5b506105a461088d366004613813565b600c6020526000908152604090205481565b3480156108ab57600080fd5b50604554610460906001600160a01b031681565b3480156108cb57600080fd5b50603f54610460906001600160a01b031681565b3480156108eb57600080fd5b506104606108fa366004613813565b6116f3565b34801561090b57600080fd5b5061049861091a3660046135e0565b611753565b34801561092b57600080fd5b5061049861093a366004613865565b61177f565b34801561094b57600080fd5b5061049861095a366004613865565b6118e7565b34801561096b57600080fd5b506105a461097a3660046135e0565b6119c6565b34801561098b57600080fd5b50610498611a4c565b3480156109a057600080fd5b506107336109af366004613865565b611a60565b3480156109c057600080fd5b506104986109cf3660046135e0565b611cab565b3480156109e057600080fd5b506105a46109ef366004613813565b611cd5565b348015610a0057600080fd5b50600a546001600160a01b0316610460565b348015610a1e57600080fd5b50610409610a2d366004613813565b604d6020526000908152604090205460ff1681565b348015610a4e57600080fd5b50610433611cec565b348015610a6357600080fd5b50610498610a72366004613865565b611cfb565b348015610a8357600080fd5b506105a4610a92366004613813565b6000908152600c602052604090205490565b348015610ab057600080fd5b50610498610abf36600461370d565b611d53565b348015610ad057600080fd5b50610498610adf3660046135e0565b611d5e565b348015610af057600080fd5b50610409610aff3660046135e0565b604e6020526000908152604090205460ff1681565b348015610b2057600080fd5b5061057a63152a902d60e11b81565b348015610b3b57600080fd5b50610498610b4a366004613690565b611d88565b348015610b5b57600080fd5b506040546105a4565b348015610b7057600080fd5b50610498610b7f36600461370d565b611deb565b348015610b9057600080fd5b506105a4610b9f366004613865565b611e1e565b348015610bb057600080fd5b506105a4610bbf366004613813565b611f27565b348015610bd057600080fd5b50610433610bdf366004613813565b611f37565b348015610bf057600080fd5b506105a4610bff366004613813565b6000908152600b602052604090205490565b348015610c1d57600080fd5b506105a460425481565b348015610c3357600080fd5b50610409610c42366004613618565b6001600160a01b03918216600090815260056020908152604080832093909416825291909152205460ff1690565b348015610c7c57600080fd5b506105a4610c8b366004613813565b600d6020526000908152604090205481565b610498610cab366004613763565b612011565b348015610cbc57600080fd5b50610498610ccb3660046135e0565b6124f5565b348015610cdc57600080fd5b506105a4610ceb366004613813565b600b6020526000908152604090205481565b348015610d0957600080fd5b506105a4610d18366004613813565b61256b565b348015610d2957600080fd5b506105a4610d38366004613813565b61257b565b348015610d4957600080fd5b50603e54610460906001600160a01b031681565b60006001600160e01b0319821663152a902d60e11b1480610d825750610d8282612597565b92915050565b606060008054610d9790613b22565b80601f0160208091040260200160405190810160405280929190818152602001828054610dc390613b22565b8015610e105780601f10610de557610100808354040283529160200191610e10565b820191906000526020600020905b815481529060010190602001808311610df357829003601f168201915b5050505050905090565b6000610e25826125bc565b506000908152600460205260409020546001600160a01b031690565b610e4961261b565b604780546001600160a01b0319166001600160a01b0392909216919091179055565b336000908152604e602052604090205460ff16610ecf5760405162461bcd60e51b815260206004820152601a60248201527f4769726c3a206f6e6c7920776f726b65722063616e2063616c6c00000000000060448201526064015b60405180910390fd5b6000838152600b60209081526040808320859055600d9091529020819055604754604051632b017cb760e01b8152600481018590526001600160a01b0390911690632b017cb790602401600060405180830381600087803b158015610f3357600080fd5b505af1158015610f47573d6000803e3d6000fd5b505060408051868152602081018690529081018490527fd61e1c6078dbe8c00ff44edafbf29b5084c488aadbbf8d84f3b95c1ea3c1438c9250606001905060405180910390a1505050565b6000610f9d826116f3565b9050806001600160a01b0316836001600160a01b0316141561100b5760405162461bcd60e51b815260206004820152602160248201527f4552433732313a20617070726f76616c20746f2063757272656e74206f776e656044820152603960f91b6064820152608401610ec6565b336001600160a01b038216148061102757506110278133610c42565b6110995760405162461bcd60e51b815260206004820152603d60248201527f4552433732313a20617070726f76652063616c6c6572206973206e6f7420746f60448201527f6b656e206f776e6572206f7220617070726f76656420666f7220616c6c0000006064820152608401610ec6565b6110a38383612675565b505050565b630a85bd0160e11b5b949350505050565b600060646041546040546110cd9190613ac0565b6110d79190613aa0565b905090565b6110e461261b565b603f80546001600160a01b0319166001600160a01b0392909216919091179055565b61111033826126e3565b61112c5760405162461bcd60e51b8152600401610ec690613a37565b611137838383612761565b60465460405163add058fd60e01b8152600481018390526001600160a01b039091169063add058fd90602401600060405180830381600087803b15801561117d57600080fd5b505af1158015611191573d6000803e3d6000fd5b50505050505050565b604b546001600160a01b031660006111b3601484613aa0565b90509250929050565b6111c461261b565b6111cd816128d2565b50565b60006111db836119c6565b821061123d5760405162461bcd60e51b815260206004820152602b60248201527f455243373231456e756d657261626c653a206f776e657220696e646578206f7560448201526a74206f6620626f756e647360a81b6064820152608401610ec6565b506001600160a01b03919091166000908152600660209081526040808320938352929052205490565b60006001821015801561127b5750600e548211155b6112d85760405162461bcd60e51b815260206004820152602860248201527f557067726164653a20746f54696572206d757374206265206265747765656e206044820152673120616e6420323560c01b6064820152608401610ec6565b6000838152600c602052604090205482116113505760405162461bcd60e51b815260206004820152603260248201527f557067726164653a20746f54696572206d7573742062652067726561746572206044820152711d1a185b8818dd5c9c995b9d081b195d995b60721b6064820152608401610ec6565b61135a8383611e1e565b9392505050565b336000908152604c602052604090205460ff168061138957506046546001600160a01b031633145b6113d55760405162461bcd60e51b815260206004820152601d60248201527f4769726c3a206f6e6c79204553206f72204174742063616e2063616c6c0000006044820152606401610ec6565b6000918252604d6020526040909120805460ff1916911515919091179055565b6000828152600b6020526040902054606090821180156114165750600a8211155b61147d5760405162461bcd60e51b815260206004820152603260248201527f557067726164653a2074696572206d757374206265206265747765656e20637560448201527107272656e74206c6576656c20616e642031360741b6064820152608401610ec6565b61135a8383611a60565b6000806000611495846116f3565b6000948552604d6020908152604080872054600d90925290952054909560ff90951694909350915050565b61113783838360405180602001604052806000815250611d88565b606060006114e8836119c6565b905060008167ffffffffffffffff81111561151357634e487b7160e01b600052604160045260246000fd5b60405190808252806020026020018201604052801561153c578160200160208202803683370190505b50905060005b828110156115915761155485826111d0565b82828151811061157457634e487b7160e01b600052603260045260246000fd5b60209081029190910101528061158981613b5d565b915050611542565b509392505050565b6115a161261b565b600081116115ae57600080fd5b604055565b60006115be60085490565b82106116215760405162461bcd60e51b815260206004820152602c60248201527f455243373231456e756d657261626c653a20676c6f62616c20696e646578206f60448201526b7574206f6620626f756e647360a01b6064820152608401610ec6565b6008828154811061164257634e487b7160e01b600052603260045260246000fd5b90600052602060002001549050919050565b61165c61261b565b604a5447906001600160a01b03166108fc6116768361295f565b6040518115909202916000818181858888f1935050505015801561169e573d6000803e3d6000fd5b506040516001600160a01b038316904780156108fc02916000818181858888f193505050501580156110a3573d6000803e3d6000fd5b6116dc61261b565b80516116ef9060489060208401906134bc565b5050565b6000818152600260205260408120546001600160a01b031680610d825760405162461bcd60e51b8152602060048201526018602482015277115490cdcc8c4e881a5b9d985b1a59081d1bdad95b88125160421b6044820152606401610ec6565b61175b61261b565b6001600160a01b03166000908152604c60205260409020805460ff19166001179055565b6045546001600160a01b031633146117ed5760405162461bcd60e51b815260206004820152602b60248201527f4769726c3a206f6e6c79206d6f6f6e73746f6e652063616e207570677261646560448201526a2067616d657273636f726560a81b6064820152608401610ec6565b6000828152600c6020908152604080832054600b9092529182902054604754925163b3c9524b60e01b815260048101869052919290916001600160a01b039091169063b3c9524b90602401600060405180830381600087803b15801561185257600080fd5b505af1158015611866573d6000803e3d6000fd5b50505050611874848461297b565b604754604051632d7f86bb60e11b81526004810186905260248101849052604481018390526001600160a01b0390911690635aff0d76906064015b600060405180830381600087803b1580156118c957600080fd5b505af11580156118dd573d6000803e3d6000fd5b5050505050505050565b336000908152604c602052604090205460ff1661193f5760405162461bcd60e51b815260206004820152601660248201527511da5c9b0e881bdb9b1e481154c818d85b8818d85b1b60521b6044820152606401610ec6565b6000828152600c6020908152604080832054600b9092529182902054604754925163b3c9524b60e01b815260048101869052919290916001600160a01b039091169063b3c9524b90602401600060405180830381600087803b1580156119a457600080fd5b505af11580156119b8573d6000803e3d6000fd5b5050505061187484846129c3565b60006001600160a01b038216611a305760405162461bcd60e51b815260206004820152602960248201527f4552433732313a2061646472657373207a65726f206973206e6f7420612076616044820152683634b21037bbb732b960b91b6064820152608401610ec6565b506001600160a01b031660009081526003602052604090205490565b611a5461261b565b611a5e6000612a0b565b565b6060600f54821115611ab45760405162461bcd60e51b815260206004820152601f60248201527f557067726164653a204d617820636f736d6963206c6576656c206973203130006044820152606401610ec6565b6000838152600b6020526040902054600f548110611b1e5760405162461bcd60e51b815260206004820152602160248201527f557067726164653a20636f736d6963206c6576656c20616c7265616479206d616044820152600f60fb1b6064820152608401610ec6565b6000848152600d602052604080822054815160038082526080820190935290929181602001602082028036833701905050905060008080611b60866001613a88565b90505b878111611bec57602a611b77600183613adf565b600a8110611b9557634e487b7160e01b600052603260045260246000fd5b0154611ba19084613a88565b92506034611bb0600183613adf565b600a8110611bce57634e487b7160e01b600052603260045260246000fd5b0154611bda9083613a88565b9150611be581613b5d565b9050611b63565b508183611bfa600187613adf565b81518110611c1857634e487b7160e01b600052603260045260246000fd5b60200260200101818152505060005b8351811015611c9e57838181518110611c5057634e487b7160e01b600052603260045260246000fd5b602002602001015160001415611c8e5781848281518110611c8157634e487b7160e01b600052603260045260246000fd5b6020026020010181815250505b611c9781613b5d565b9050611c27565b5091979650505050505050565b611cb361261b565b604580546001600160a01b0319166001600160a01b0392909216919091179055565b601081601a8110611ce557600080fd5b0154905081565b606060018054610d9790613b22565b611d0361261b565b6000828152600d602090815260409182902083905581518481529081018390527fe9d2aa95a8bcda1481b0316470d5993a8d561039f5db3f8222f8d526e03c0a1b91015b60405180910390a15050565b6116ef338383612a5d565b611d6661261b565b604680546001600160a01b0319166001600160a01b0392909216919091179055565b611d9233836126e3565b611dae5760405162461bcd60e51b8152600401610ec690613a37565b611dba84848484612b2c565b60465460405163add058fd60e01b8152600481018490526001600160a01b039091169063add058fd906024016118af565b611df361261b565b6001600160a01b03919091166000908152604e60205260409020805460ff1916911515919091179055565b6000600e54821115611e725760405162461bcd60e51b815260206004820152601e60248201527f557067726164653a204d61782073636f7265206973206c6576656c20323500006044820152606401610ec6565b6000838152600c6020526040902054600e548110611ed25760405162461bcd60e51b815260206004820152601f60248201527f557067726164653a204769726c20616c7265616479206d6178206c6576656c006044820152606401610ec6565b6000815b848111611f1e57601081601a8110611efe57634e487b7160e01b600052603260045260246000fd5b0154611f0a9083613a88565b915080611f1681613b5d565b915050611ed6565b50949350505050565b603481600a8110611ce557600080fd5b6000818152600260205260409020546060906001600160a01b0316611fb65760405162461bcd60e51b815260206004820152602f60248201527f4552433732314d657461646174613a2055524920717565727920666f72206e6f60448201526e3732bc34b9ba32b73a103a37b5b2b760891b6064820152608401610ec6565b6000611fc0612b65565b90506000815111611fe0576040518060200160405280600081525061135a565b80611fea84612b74565b604051602001611ffb9291906138dd565b6040516020818303038152906040529392505050565b33600061201d60085490565b9050600061202c826001613a88565b9050600060018510158015612042575060058511155b61208e5760405162461bcd60e51b815260206004820152601860248201527f4769726c3a20616d6f756e74203120746f2035206f6e6c7900000000000000006044820152606401610ec6565b60495461209b8685613a88565b11156120da5760405162461bcd60e51b815260206004820152600e60248201526d11da5c9b0e881cdbdb19081bdd5d60921b6044820152606401610ec6565b861561242957603e546040516331a9108f60e11b8152600481018890526001600160a01b03868116921690636352211e9060240160206040518083038186803b15801561212657600080fd5b505afa15801561213a573d6000803e3d6000fd5b505050506040513d601f19601f8201168201806040525081019061215e91906135fc565b6001600160a01b0316146121aa5760405162461bcd60e51b815260206004820152601360248201527223b4b9361d103737ba1037b9311037bbb732b960691b6044820152606401610ec6565b6121b38661257b565b8511156122025760405162461bcd60e51b815260206004820152601f60248201527f4769726c3a20616d6f756e74206d757374206265203c3d2063686172676573006044820152606401610ec6565b8461220b6110b9565b6122159190613ac0565b34101561225f5760405162461bcd60e51b81526020600482015260186024820152774769726c3a2073656e6420636f727265637420707269636560401b6044820152606401610ec6565b60005b858110156124235761227387612c17565b9150816006146123b657603e546040516323b872dd60e01b81526001600160a01b038781166004830152306024830152604482018a9052909116906323b872dd90606401600060405180830381600087803b1580156122d157600080fd5b505af11580156122e5573d6000803e3d6000fd5b5050603e546040516331a9108f60e11b8152600481018b90523093506001600160a01b039091169150636352211e9060240160206040518083038186803b15801561232f57600080fd5b505afa158015612343573d6000803e3d6000fd5b505050506040513d601f19601f8201168201806040525081019061236791906135fc565b6001600160a01b0316146123b65760405162461bcd60e51b815260206004820152601660248201527511da5c9b0e881bdc98881b9bdd081c9958da595d995960521b6044820152606401610ec6565b6123c9856123c48386613a88565b612d22565b818815156123d78386613a88565b6040516001600160a01b03891681527f1f1fc7f871c5573b0f1fde9f6e1f67d93527049f30fde62e53af0333b35839229060200160405180910390a461241c81613b5d565b9050612262565b50611191565b846040546124379190613ac0565b3410156124815760405162461bcd60e51b81526020600482015260186024820152774769726c3a2073656e6420636f727265637420707269636560401b6044820152606401610ec6565b60005b858110156118dd5761249a856123c48386613a88565b60068815156124a98386613a88565b6040516001600160a01b03891681527f1f1fc7f871c5573b0f1fde9f6e1f67d93527049f30fde62e53af0333b35839229060200160405180910390a46124ee81613b5d565b9050612484565b6124fd61261b565b6001600160a01b0381166125625760405162461bcd60e51b815260206004820152602660248201527f4f776e61626c653a206e6577206f776e657220697320746865207a65726f206160448201526564647265737360d01b6064820152608401610ec6565b6111cd81612a0b565b602a81600a8110611ce557600080fd5b600081815260446020526040812054604254610d829190613adf565b60006001600160e01b0319821663780e9d6360e01b1480610d825750610d8282612d3c565b6000818152600260205260409020546001600160a01b03166111cd5760405162461bcd60e51b8152602060048201526018602482015277115490cdcc8c4e881a5b9d985b1a59081d1bdad95b88125160421b6044820152606401610ec6565b600a546001600160a01b03163314611a5e5760405162461bcd60e51b815260206004820181905260248201527f4f776e61626c653a2063616c6c6572206973206e6f7420746865206f776e65726044820152606401610ec6565b600081815260046020526040902080546001600160a01b0319166001600160a01b03841690811790915581906126aa826116f3565b6001600160a01b03167f8c5be1e5ebec7d5bd14f71427d1e84f3dd0314c0f7b2291e5b200ac8c7c3b92560405160405180910390a45050565b6000806126ef836116f3565b9050806001600160a01b0316846001600160a01b0316148061273657506001600160a01b0380821660009081526005602090815260408083209388168352929052205460ff165b806110b15750836001600160a01b031661274f84610e1a565b6001600160a01b031614949350505050565b826001600160a01b0316612774826116f3565b6001600160a01b03161461279a5760405162461bcd60e51b8152600401610ec6906139f2565b6001600160a01b0382166127fc5760405162461bcd60e51b8152602060048201526024808201527f4552433732313a207472616e7366657220746f20746865207a65726f206164646044820152637265737360e01b6064820152608401610ec6565b6128098383836001612d8c565b826001600160a01b031661281c826116f3565b6001600160a01b0316146128425760405162461bcd60e51b8152600401610ec6906139f2565b600081815260046020908152604080832080546001600160a01b03199081169091556001600160a01b0387811680865260038552838620805460001901905590871680865283862080546001019055868652600290945282852080549092168417909155905184937fddf252ad1be2c89b69c2b068fc378daa952ba7f163c4a11628f55a4df523b3ef91a4505050565b6001600160a01b03811661293d5760405162461bcd60e51b815260206004820152602c60248201527f526f79616c746965733a206e657720726563697069656e74206973207468652060448201526b7a65726f206164647265737360a01b6064820152608401610ec6565b604b80546001600160a01b0319166001600160a01b0392909216919091179055565b60006064604354836129719190613ac0565b610d829190613aa0565b6000828152600c602090815260409182902083905581518481529081018390527f866cfb7bcf22266717dccfb6e13d4a8aaf393c0bc2c147cf9df1b747e00370029101611d47565b6000828152600b602090815260409182902083905581518481529081018390527f56bd88bf537c8134d681abc094b975697025d38f1a7e20c408f3b5e6b4df40b79101611d47565b600a80546001600160a01b038381166001600160a01b0319831681179093556040519116919082907f8be0079c531659141344cd1fd0a4f28419497f9722a3daafe3b4186f6b6457e090600090a35050565b816001600160a01b0316836001600160a01b03161415612abf5760405162461bcd60e51b815260206004820152601960248201527f4552433732313a20617070726f766520746f2063616c6c6572000000000000006044820152606401610ec6565b6001600160a01b03838116600081815260056020908152604080832094871680845294825291829020805460ff191686151590811790915591519182527f17307eab39ab6107e8899845ad3d59bd9653f200f220920489ca2b5937696c31910160405180910390a3505050565b612b37848484612761565b612b4384848484612ecc565b612b5f5760405162461bcd60e51b8152600401610ec6906139a0565b50505050565b606060488054610d9790613b22565b60606000612b8183612fd6565b600101905060008167ffffffffffffffff811115612baf57634e487b7160e01b600052604160045260246000fd5b6040519080825280601f01601f191660200182016040528015612bd9576020820181803683370190505b5090508181016020015b600019016f181899199a1a9b1b9c1cb0b131b232b360811b600a86061a8153600a8504945084612c1257611591565b612be3565b600081815260446020526040812054600511612c6c5760405162461bcd60e51b81526020600482015260146024820152734769726c3a206f7574206f66206368617267657360601b6044820152606401610ec6565b60008281526044602052604081208054909190612c8890613b5d565b9091555060008281526044602052604090205460069060051415610d8257603f54604051634875869760e01b8152600481018590526001600160a01b039091169063487586979060240160206040518083038186803b158015612cea57600080fd5b505afa158015612cfe573d6000803e3d6000fd5b505050506040513d601f19601f8201168201806040525081019061135a919061382b565b6116ef8282604051806020016040528060008152506130ae565b60006001600160e01b031982166380ac58cd60e01b1480612d6d57506001600160e01b03198216635b5e139f60e01b145b80610d8257506301ffc9a760e01b6001600160e01b0319831614610d82565b612d98848484846130e1565b6001811115612e075760405162461bcd60e51b815260206004820152603560248201527f455243373231456e756d657261626c653a20636f6e7365637574697665207472604482015274185b9cd9995c9cc81b9bdd081cdd5c1c1bdc9d1959605a1b6064820152608401610ec6565b816001600160a01b038516612e6357612e5e81600880546000838152600960205260408120829055600182018355919091527ff3f7a9fe364faab93b216da50a3214154f22a0a2b415b23a84c8169e8b636ee30155565b612e86565b836001600160a01b0316856001600160a01b031614612e8657612e868582613169565b6001600160a01b038416612ea257612e9d81613206565b612ec5565b846001600160a01b0316846001600160a01b031614612ec557612ec584826132df565b5050505050565b60006001600160a01b0384163b15612fce57604051630a85bd0160e11b81526001600160a01b0385169063150b7a0290612f1090339089908890889060040161390c565b602060405180830381600087803b158015612f2a57600080fd5b505af1925050508015612f5a575060408051601f3d908101601f19168201909252612f57918101906137b1565b60015b612fb4573d808015612f88576040519150601f19603f3d011682016040523d82523d6000602084013e612f8d565b606091505b508051612fac5760405162461bcd60e51b8152600401610ec6906139a0565b805181602001fd5b6001600160e01b031916630a85bd0160e11b1490506110b1565b5060016110b1565b60008072184f03e93ff9f4daa797ed6e38ed64bf6a1f0160401b83106130155772184f03e93ff9f4daa797ed6e38ed64bf6a1f0160401b830492506040015b6d04ee2d6d415b85acef81000000008310613041576d04ee2d6d415b85acef8100000000830492506020015b662386f26fc10000831061305f57662386f26fc10000830492506010015b6305f5e1008310613077576305f5e100830492506008015b612710831061308b57612710830492506004015b6064831061309d576064830492506002015b600a8310610d825760010192915050565b6130b88383613323565b6130c56000848484612ecc565b6110a35760405162461bcd60e51b8152600401610ec6906139a0565b6001811115612b5f576001600160a01b03841615613127576001600160a01b03841660009081526003602052604081208054839290613121908490613adf565b90915550505b6001600160a01b03831615612b5f576001600160a01b0383166000908152600360205260408120805483929061315e908490613a88565b909155505050505050565b60006001613176846119c6565b6131809190613adf565b6000838152600760205260409020549091508082146131d3576001600160a01b03841660009081526006602090815260408083208584528252808320548484528184208190558352600790915290208190555b5060009182526007602090815260408084208490556001600160a01b039094168352600681528383209183525290812055565b60085460009061321890600190613adf565b6000838152600960205260408120546008805493945090928490811061324e57634e487b7160e01b600052603260045260246000fd5b90600052602060002001549050806008838154811061327d57634e487b7160e01b600052603260045260246000fd5b60009182526020808320909101929092558281526009909152604080822084905585825281205560088054806132c357634e487b7160e01b600052603160045260246000fd5b6001900381819060005260206000200160009055905550505050565b60006132ea836119c6565b6001600160a01b039093166000908152600660209081526040808320868452825280832085905593825260079052919091209190915550565b6001600160a01b0382166133795760405162461bcd60e51b815260206004820181905260248201527f4552433732313a206d696e7420746f20746865207a65726f20616464726573736044820152606401610ec6565b6000818152600260205260409020546001600160a01b0316156133de5760405162461bcd60e51b815260206004820152601c60248201527f4552433732313a20746f6b656e20616c7265616479206d696e746564000000006044820152606401610ec6565b6133ec600083836001612d8c565b6000818152600260205260409020546001600160a01b0316156134515760405162461bcd60e51b815260206004820152601c60248201527f4552433732313a20746f6b656e20616c7265616479206d696e746564000000006044820152606401610ec6565b6001600160a01b038216600081815260036020908152604080832080546001019055848352600290915280822080546001600160a01b0319168417905551839291907fddf252ad1be2c89b69c2b068fc378daa952ba7f163c4a11628f55a4df523b3ef908290a45050565b8280546134c890613b22565b90600052602060002090601f0160209004810192826134ea5760008555613530565b82601f1061350357805160ff1916838001178555613530565b82800160010185558215613530579182015b82811115613530578251825591602001919060010190613515565b5061353c929150613540565b5090565b5b8082111561353c5760008155600101613541565b600067ffffffffffffffff8084111561357057613570613b8e565b604051601f8501601f19908116603f0116810190828211818310171561359857613598613b8e565b816040528093508581528686860111156135b157600080fd5b858560208301376000602087830101525050509392505050565b803580151581146135db57600080fd5b919050565b6000602082840312156135f1578081fd5b813561135a81613ba4565b60006020828403121561360d578081fd5b815161135a81613ba4565b6000806040838503121561362a578081fd5b823561363581613ba4565b9150602083013561364581613ba4565b809150509250929050565b600080600060608486031215613664578081fd5b833561366f81613ba4565b9250602084013561367f81613ba4565b929592945050506040919091013590565b600080600080608085870312156136a5578081fd5b84356136b081613ba4565b935060208501356136c081613ba4565b925060408501359150606085013567ffffffffffffffff8111156136e2578182fd5b8501601f810187136136f2578182fd5b61370187823560208401613555565b91505092959194509250565b6000806040838503121561371f578182fd5b823561372a81613ba4565b91506111b3602084016135cb565b6000806040838503121561374a578182fd5b823561375581613ba4565b946020939093013593505050565b600080600060608486031215613777578283fd5b613780846135cb565b95602085013595506040909401359392505050565b6000602082840312156137a6578081fd5b813561135a81613bb9565b6000602082840312156137c2578081fd5b815161135a81613bb9565b6000602082840312156137de578081fd5b813567ffffffffffffffff8111156137f4578182fd5b8201601f81018413613804578182fd5b6110b184823560208401613555565b600060208284031215613824578081fd5b5035919050565b60006020828403121561383c578081fd5b5051919050565b60008060408385031215613855578182fd5b823591506111b3602084016135cb565b60008060408385031215613877578182fd5b50508035926020909101359150565b60008060006060848603121561389a578081fd5b505081359360208301359350604090920135919050565b600081518084526138c9816020860160208601613af6565b601f01601f19169290920160200192915050565b600083516138ef818460208801613af6565b835190830190613903818360208801613af6565b01949350505050565b6001600160a01b038581168252841660208201526040810183905260806060820181905260009061393f908301846138b1565b9695505050505050565b6020808252825182820181905260009190848201906040850190845b8181101561398157835183529284019291840191600101613965565b50909695505050505050565b60208152600061135a60208301846138b1565b60208082526032908201527f4552433732313a207472616e7366657220746f206e6f6e20455243373231526560408201527131b2b4bb32b91034b6b83632b6b2b73a32b960711b606082015260800190565b60208082526025908201527f4552433732313a207472616e736665722066726f6d20696e636f72726563742060408201526437bbb732b960d91b606082015260800190565b60208082526031908201527f4552433732313a207472616e736665722063616c6c6572206973206e6f74206f6040820152701ddb995c881b9bdc88185c1c1c9bdd9959607a1b606082015260800190565b60008219821115613a9b57613a9b613b78565b500190565b600082613abb57634e487b7160e01b81526012600452602481fd5b500490565b6000816000190483118215151615613ada57613ada613b78565b500290565b600082821015613af157613af1613b78565b500390565b60005b83811015613b11578181015183820152602001613af9565b83811115612b5f5750506000910152565b600181811c90821680613b3657607f821691505b60208210811415613b5757634e487b7160e01b600052602260045260246000fd5b50919050565b6000600019821415613b7157613b71613b78565b5060010190565b634e487b7160e01b600052601160045260246000fd5b634e487b7160e01b600052604160045260246000fd5b6001600160a01b03811681146111cd57600080fd5b6001600160e01b0319811681146111cd57600080fdfea2646970667358221220f68a3c169e0251b3baf8cbf7b579b21a2be2f27dbe7fd7e3224e25a6ab9dfdd064736f6c63430008040033",
  "linkReferences": {},
  "deployedLinkReferences": {}
}