{
  "_format": "hh-sol-artifact-1",
  "contractName": "Moonstone",
  "sourceName": "contracts/Gacha/Moonstone.sol",
  "abi": [
    {
      "inputs": [
        {
          "internalType": "address",
          "name": "_gachaMachine",
          "type": "address"
        },
        {
          "internalType": "address",
          "name": "_girlContract",
          "type": "address"
        }
      ],
      "stateMutability": "nonpayable",
      "type": "constructor"
    },
    {
      "anonymous": false,
      "inputs": [
        {
          "indexed": true,
          "internalType": "address",
          "name": "owner",
          "type": "address"
        },
        {
          "indexed": true,
          "internalType": "address",
          "name": "spender",
          "type": "address"
        },
        {
          "indexed": false,
          "internalType": "uint256",
          "name": "value",
          "type": "uint256"
        }
      ],
      "name": "Approval",
      "type": "event"
    },
    {
      "anonymous": false,
      "inputs": [
        {
          "indexed": true,
          "internalType": "address",
          "name": "previousOwner",
          "type": "address"
        },
        {
          "indexed": true,
          "internalType": "address",
          "name": "newOwner",
          "type": "address"
        }
      ],
      "name": "OwnershipTransferred",
      "type": "event"
    },
    {
      "anonymous": false,
      "inputs": [
        {
          "indexed": true,
          "internalType": "address",
          "name": "from",
          "type": "address"
        },
        {
          "indexed": true,
          "internalType": "address",
          "name": "to",
          "type": "address"
        },
        {
          "indexed": false,
          "internalType": "uint256",
          "name": "value",
          "type": "uint256"
        }
      ],
      "name": "Transfer",
      "type": "event"
    },
    {
      "inputs": [
        {
          "internalType": "address",
          "name": "owner",
          "type": "address"
        },
        {
          "internalType": "address",
          "name": "spender",
          "type": "address"
        }
      ],
      "name": "allowance",
      "outputs": [
        {
          "internalType": "uint256",
          "name": "",
          "type": "uint256"
        }
      ],
      "stateMutability": "view",
      "type": "function"
    },
    {
      "inputs": [
        {
          "internalType": "address",
          "name": "spender",
          "type": "address"
        },
        {
          "internalType": "uint256",
          "name": "amount",
          "type": "uint256"
        }
      ],
      "name": "approve",
      "outputs": [
        {
          "internalType": "bool",
          "name": "",
          "type": "bool"
        }
      ],
      "stateMutability": "nonpayable",
      "type": "function"
    },
    {
      "inputs": [
        {
          "internalType": "address",
          "name": "account",
          "type": "address"
        }
      ],
      "name": "balanceOf",
      "outputs": [
        {
          "internalType": "uint256",
          "name": "",
          "type": "uint256"
        }
      ],
      "stateMutability": "view",
      "type": "function"
    },
    {
      "inputs": [
        {
          "internalType": "uint256",
          "name": "amount",
          "type": "uint256"
        }
      ],
      "name": "burn",
      "outputs": [],
      "stateMutability": "nonpayable",
      "type": "function"
    },
    {
      "inputs": [
        {
          "internalType": "address",
          "name": "account",
          "type": "address"
        },
        {
          "internalType": "uint256",
          "name": "amount",
          "type": "uint256"
        }
      ],
      "name": "burnFrom",
      "outputs": [],
      "stateMutability": "nonpayable",
      "type": "function"
    },
    {
      "inputs": [],
      "name": "decimals",
      "outputs": [
        {
          "internalType": "uint8",
          "name": "",
          "type": "uint8"
        }
      ],
      "stateMutability": "view",
      "type": "function"
    },
    {
      "inputs": [
        {
          "internalType": "address",
          "name": "spender",
          "type": "address"
        },
        {
          "internalType": "uint256",
          "name": "subtractedValue",
          "type": "uint256"
        }
      ],
      "name": "decreaseAllowance",
      "outputs": [
        {
          "internalType": "bool",
          "name": "",
          "type": "bool"
        }
      ],
      "stateMutability": "nonpayable",
      "type": "function"
    },
    {
      "inputs": [],
      "name": "girlContract",
      "outputs": [
        {
          "internalType": "contract IGirl",
          "name": "",
          "type": "address"
        }
      ],
      "stateMutability": "view",
      "type": "function"
    },
    {
      "inputs": [
        {
          "internalType": "address",
          "name": "spender",
          "type": "address"
        },
        {
          "internalType": "uint256",
          "name": "addedValue",
          "type": "uint256"
        }
      ],
      "name": "increaseAllowance",
      "outputs": [
        {
          "internalType": "bool",
          "name": "",
          "type": "bool"
        }
      ],
      "stateMutability": "nonpayable",
      "type": "function"
    },
    {
      "inputs": [
        {
          "internalType": "address",
          "name": "",
          "type": "address"
        }
      ],
      "name": "isGachaMachine",
      "outputs": [
        {
          "internalType": "bool",
          "name": "",
          "type": "bool"
        }
      ],
      "stateMutability": "view",
      "type": "function"
    },
    {
      "inputs": [
        {
          "internalType": "address",
          "name": "to",
          "type": "address"
        },
        {
          "internalType": "uint256",
          "name": "amount",
          "type": "uint256"
        }
      ],
      "name": "mint",
      "outputs": [],
      "stateMutability": "nonpayable",
      "type": "function"
    },
    {
      "inputs": [],
      "name": "name",
      "outputs": [
        {
          "internalType": "string",
          "name": "",
          "type": "string"
        }
      ],
      "stateMutability": "view",
      "type": "function"
    },
    {
      "inputs": [],
      "name": "owner",
      "outputs": [
        {
          "internalType": "address",
          "name": "",
          "type": "address"
        }
      ],
      "stateMutability": "view",
      "type": "function"
    },
    {
      "inputs": [],
      "name": "renounceOwnership",
      "outputs": [],
      "stateMutability": "nonpayable",
      "type": "function"
    },
    {
      "inputs": [
        {
          "internalType": "address",
          "name": "_g",
          "type": "address"
        },
        {
          "internalType": "bool",
          "name": "_tf",
          "type": "bool"
        }
      ],
      "name": "setGachaMachine",
      "outputs": [],
      "stateMutability": "nonpayable",
      "type": "function"
    },
    {
      "inputs": [
        {
          "internalType": "address",
          "name": "_girlContract",
          "type": "address"
        }
      ],
      "name": "setGirlContract",
      "outputs": [],
      "stateMutability": "nonpayable",
      "type": "function"
    },
    {
      "inputs": [],
      "name": "symbol",
      "outputs": [
        {
          "internalType": "string",
          "name": "",
          "type": "string"
        }
      ],
      "stateMutability": "view",
      "type": "function"
    },
    {
      "inputs": [],
      "name": "totalSupply",
      "outputs": [
        {
          "internalType": "uint256",
          "name": "",
          "type": "uint256"
        }
      ],
      "stateMutability": "view",
      "type": "function"
    },
    {
      "inputs": [
        {
          "internalType": "address",
          "name": "to",
          "type": "address"
        },
        {
          "internalType": "uint256",
          "name": "amount",
          "type": "uint256"
        }
      ],
      "name": "transfer",
      "outputs": [
        {
          "internalType": "bool",
          "name": "",
          "type": "bool"
        }
      ],
      "stateMutability": "nonpayable",
      "type": "function"
    },
    {
      "inputs": [
        {
          "internalType": "address",
          "name": "from",
          "type": "address"
        },
        {
          "internalType": "address",
          "name": "to",
          "type": "address"
        },
        {
          "internalType": "uint256",
          "name": "amount",
          "type": "uint256"
        }
      ],
      "name": "transferFrom",
      "outputs": [
        {
          "internalType": "bool",
          "name": "",
          "type": "bool"
        }
      ],
      "stateMutability": "nonpayable",
      "type": "function"
    },
    {
      "inputs": [
        {
          "internalType": "address",
          "name": "newOwner",
          "type": "address"
        }
      ],
      "name": "transferOwnership",
      "outputs": [],
      "stateMutability": "nonpayable",
      "type": "function"
    },
    {
      "inputs": [
        {
          "internalType": "uint256",
          "name": "id",
          "type": "uint256"
        },
        {
          "internalType": "uint256",
          "name": "toTier",
          "type": "uint256"
        }
      ],
      "name": "upgradeGamerScore",
      "outputs": [],
      "stateMutability": "nonpayable",
      "type": "function"
    }
  ],
  "bytecode": "0x60806040523480156200001157600080fd5b50604051620014d2380380620014d28339810160408190526200003491620002b3565b60408051808201825260098152684d6f6f6e73746f6e6560b81b6020808301918252835180850190945260088452673a33b3a6a729aa2760c11b9084015281519192916200008591600391620001f0565b5080516200009b906004906020840190620001f0565b505050620000b8620000b2620000d860201b60201c565b620000dc565b620000c58260016200012e565b620000d08162000163565b505062000327565b3390565b600580546001600160a01b038381166001600160a01b0319831681179093556040519116919082907f8be0079c531659141344cd1fd0a4f28419497f9722a3daafe3b4186f6b6457e090600090a35050565b620001386200018f565b6001600160a01b03919091166000908152600760205260409020805460ff1916911515919091179055565b6200016d6200018f565b600680546001600160a01b0319166001600160a01b0392909216919091179055565b6005546001600160a01b03163314620001ee5760405162461bcd60e51b815260206004820181905260248201527f4f776e61626c653a2063616c6c6572206973206e6f7420746865206f776e6572604482015260640160405180910390fd5b565b828054620001fe90620002ea565b90600052602060002090601f0160209004810192826200022257600085556200026d565b82601f106200023d57805160ff19168380011785556200026d565b828001600101855582156200026d579182015b828111156200026d57825182559160200191906001019062000250565b506200027b9291506200027f565b5090565b5b808211156200027b576000815560010162000280565b80516001600160a01b0381168114620002ae57600080fd5b919050565b60008060408385031215620002c6578182fd5b620002d18362000296565b9150620002e16020840162000296565b90509250929050565b600181811c90821680620002ff57607f821691505b602082108114156200032157634e487b7160e01b600052602260045260246000fd5b50919050565b61119b80620003376000396000f3fe608060405234801561001057600080fd5b50600436106101425760003560e01c806370a08231116100b857806395d89b411161007c57806395d89b41146102bc578063a457c2d7146102c4578063a9059cbb146102d7578063cf0d5504146102ea578063dd62ed3e146102fd578063f2fde38b1461031057600080fd5b806370a0823114610240578063715018a61461026957806379cc67901461027157806384eda544146102845780638da5cb5b1461029757600080fd5b8063313ce5671161010a578063313ce567146101c257806339509351146101d15780633c22ae5a146101e457806340c10f191461020757806342966c681461021a5780634d8745771461022d57600080fd5b806306fdde0314610147578063095ea7b31461016557806318160ddd146101885780631dab397d1461019a57806323b872dd146101af575b600080fd5b61014f610323565b60405161015c919061107d565b60405180910390f35b610178610173366004611001565b6103b5565b604051901515815260200161015c565b6002545b60405190815260200161015c565b6101ad6101a836600461105c565b6103cd565b005b6101786101bd366004610f90565b61064d565b6040516000815260200161015c565b6101786101df366004611001565b610671565b6101786101f2366004610f19565b60076020526000908152604090205460ff1681565b6101ad610215366004611001565b610693565b6101ad61022836600461102c565b61070f565b6101ad61023b366004610fd0565b61071c565b61018c61024e366004610f19565b6001600160a01b031660009081526020819052604090205490565b6101ad61074f565b6101ad61027f366004611001565b610763565b6101ad610292366004610f19565b610778565b6005546001600160a01b03165b6040516001600160a01b03909116815260200161015c565b61014f6107a2565b6101786102d2366004611001565b6107b1565b6101786102e5366004611001565b61082c565b6006546102a4906001600160a01b031681565b61018c61030b366004610f58565b61083a565b6101ad61031e366004610f19565b610865565b606060038054610332906110ff565b80601f016020809104026020016040519081016040528092919081815260200182805461035e906110ff565b80156103ab5780601f10610380576101008083540402835291602001916103ab565b820191906000526020600020905b81548152906001019060200180831161038e57829003601f168201915b5050505050905090565b6000336103c38185856108db565b5060019392505050565b6006546040516303c0109360e41b815260048101849052602481018390526000916001600160a01b031690633c0109309060440160206040518083038186803b15801561041957600080fd5b505afa15801561042d573d6000803e3d6000fd5b505050506040513d601f19601f820116820180604052508101906104519190611044565b90506000811161049d5760405162461bcd60e51b81526020600482015260126024820152710557067726164653a20636f7374203d3d20360741b60448201526064015b60405180910390fd5b336000908152602081905260409020548111156104fc5760405162461bcd60e51b815260206004820152601c60248201527f4d6f6f6e73746f6e653a206e6f7420656e6f75676820746f6b656e73000000006044820152606401610494565b6006546040516331a9108f60e11b81526004810185905233916001600160a01b031690636352211e9060240160206040518083038186803b15801561054057600080fd5b505afa158015610554573d6000803e3d6000fd5b505050506040513d601f19601f820116820180604052508101906105789190610f3c565b6001600160a01b0316146105da5760405162461bcd60e51b815260206004820152602360248201527f4d6f6f6e73746f6e653a20757067726164652063616c6c6572206e6f74206f776044820152623732b960e91b6064820152608401610494565b6105e38161070f565b600654604051630349281160e51b815260048101859052602481018490526001600160a01b0390911690636925022090604401600060405180830381600087803b15801561063057600080fd5b505af1158015610644573d6000803e3d6000fd5b50505050505050565b60003361065b858285610a00565b610666858585610a7a565b506001949350505050565b6000336103c3818585610684838361083a565b61068e91906110d0565b6108db565b3360009081526007602052604090205460ff166107015760405162461bcd60e51b815260206004820152602660248201527f4d6f6f6e73746f6e653a204f6e6c79206761636861206d616368696e652063616044820152651b881b5a5b9d60d21b6064820152608401610494565b61070b8282610c48565b5050565b6107193382610d27565b50565b610724610e6d565b6001600160a01b03919091166000908152600760205260409020805460ff1916911515919091179055565b610757610e6d565b6107616000610ec7565b565b61076e823383610a00565b61070b8282610d27565b610780610e6d565b600680546001600160a01b0319166001600160a01b0392909216919091179055565b606060048054610332906110ff565b600033816107bf828661083a565b90508381101561081f5760405162461bcd60e51b815260206004820152602560248201527f45524332303a2064656372656173656420616c6c6f77616e63652062656c6f77604482015264207a65726f60d81b6064820152608401610494565b61066682868684036108db565b6000336103c3818585610a7a565b6001600160a01b03918216600090815260016020908152604080832093909416825291909152205490565b61086d610e6d565b6001600160a01b0381166108d25760405162461bcd60e51b815260206004820152602660248201527f4f776e61626c653a206e6577206f776e657220697320746865207a65726f206160448201526564647265737360d01b6064820152608401610494565b61071981610ec7565b6001600160a01b03831661093d5760405162461bcd60e51b8152602060048201526024808201527f45524332303a20617070726f76652066726f6d20746865207a65726f206164646044820152637265737360e01b6064820152608401610494565b6001600160a01b03821661099e5760405162461bcd60e51b815260206004820152602260248201527f45524332303a20617070726f766520746f20746865207a65726f206164647265604482015261737360f01b6064820152608401610494565b6001600160a01b0383811660008181526001602090815260408083209487168084529482529182902085905590518481527f8c5be1e5ebec7d5bd14f71427d1e84f3dd0314c0f7b2291e5b200ac8c7c3b92591015b60405180910390a3505050565b6000610a0c848461083a565b90506000198114610a745781811015610a675760405162461bcd60e51b815260206004820152601d60248201527f45524332303a20696e73756666696369656e7420616c6c6f77616e63650000006044820152606401610494565b610a7484848484036108db565b50505050565b6001600160a01b038316610ade5760405162461bcd60e51b815260206004820152602560248201527f45524332303a207472616e736665722066726f6d20746865207a65726f206164604482015264647265737360d81b6064820152608401610494565b6001600160a01b038216610b405760405162461bcd60e51b815260206004820152602360248201527f45524332303a207472616e7366657220746f20746865207a65726f206164647260448201526265737360e81b6064820152608401610494565b6001600160a01b03831660009081526020819052604090205481811015610bb85760405162461bcd60e51b815260206004820152602660248201527f45524332303a207472616e7366657220616d6f756e7420657863656564732062604482015265616c616e636560d01b6064820152608401610494565b6001600160a01b03808516600090815260208190526040808220858503905591851681529081208054849290610bef9084906110d0565b92505081905550826001600160a01b0316846001600160a01b03167fddf252ad1be2c89b69c2b068fc378daa952ba7f163c4a11628f55a4df523b3ef84604051610c3b91815260200190565b60405180910390a3610a74565b6001600160a01b038216610c9e5760405162461bcd60e51b815260206004820152601f60248201527f45524332303a206d696e7420746f20746865207a65726f2061646472657373006044820152606401610494565b8060026000828254610cb091906110d0565b90915550506001600160a01b03821660009081526020819052604081208054839290610cdd9084906110d0565b90915550506040518181526001600160a01b038316906000907fddf252ad1be2c89b69c2b068fc378daa952ba7f163c4a11628f55a4df523b3ef9060200160405180910390a35050565b6001600160a01b038216610d875760405162461bcd60e51b815260206004820152602160248201527f45524332303a206275726e2066726f6d20746865207a65726f206164647265736044820152607360f81b6064820152608401610494565b6001600160a01b03821660009081526020819052604090205481811015610dfb5760405162461bcd60e51b815260206004820152602260248201527f45524332303a206275726e20616d6f756e7420657863656564732062616c616e604482015261636560f01b6064820152608401610494565b6001600160a01b0383166000908152602081905260408120838303905560028054849290610e2a9084906110e8565b90915550506040518281526000906001600160a01b038516907fddf252ad1be2c89b69c2b068fc378daa952ba7f163c4a11628f55a4df523b3ef906020016109f3565b6005546001600160a01b031633146107615760405162461bcd60e51b815260206004820181905260248201527f4f776e61626c653a2063616c6c6572206973206e6f7420746865206f776e65726044820152606401610494565b600580546001600160a01b038381166001600160a01b0319831681179093556040519116919082907f8be0079c531659141344cd1fd0a4f28419497f9722a3daafe3b4186f6b6457e090600090a35050565b600060208284031215610f2a578081fd5b8135610f3581611150565b9392505050565b600060208284031215610f4d578081fd5b8151610f3581611150565b60008060408385031215610f6a578081fd5b8235610f7581611150565b91506020830135610f8581611150565b809150509250929050565b600080600060608486031215610fa4578081fd5b8335610faf81611150565b92506020840135610fbf81611150565b929592945050506040919091013590565b60008060408385031215610fe2578182fd5b8235610fed81611150565b915060208301358015158114610f85578182fd5b60008060408385031215611013578182fd5b823561101e81611150565b946020939093013593505050565b60006020828403121561103d578081fd5b5035919050565b600060208284031215611055578081fd5b5051919050565b6000806040838503121561106e578182fd5b50508035926020909101359150565b6000602080835283518082850152825b818110156110a95785810183015185820160400152820161108d565b818111156110ba5783604083870101525b50601f01601f1916929092016040019392505050565b600082198211156110e3576110e361113a565b500190565b6000828210156110fa576110fa61113a565b500390565b600181811c9082168061111357607f821691505b6020821081141561113457634e487b7160e01b600052602260045260246000fd5b50919050565b634e487b7160e01b600052601160045260246000fd5b6001600160a01b038116811461071957600080fdfea2646970667358221220b7a0509afac8ed5573dd7aa4f008e039faed849eece8f81b8ae6713c3a267fc464736f6c63430008040033",
  "linkReferences": {},
  "deployedLinkReferences": {}
}