{
  "_format": "hh-sol-artifact-1",
  "contractName": "Moonstone",
  "sourceName": "contracts/Gacha/Moonstone.sol",
  "abi": [
    {
      "inputs": [
        {
          "internalType": "address",
          "name": "_gachaMachine",
          "type": "address"
        },
        {
          "internalType": "address",
          "name": "_girlContract",
          "type": "address"
        }
      ],
      "stateMutability": "nonpayable",
      "type": "constructor"
    },
    {
      "anonymous": false,
      "inputs": [
        {
          "indexed": true,
          "internalType": "address",
          "name": "owner",
          "type": "address"
        },
        {
          "indexed": true,
          "internalType": "address",
          "name": "spender",
          "type": "address"
        },
        {
          "indexed": false,
          "internalType": "uint256",
          "name": "value",
          "type": "uint256"
        }
      ],
      "name": "Approval",
      "type": "event"
    },
    {
      "anonymous": false,
      "inputs": [
        {
          "indexed": true,
          "internalType": "address",
          "name": "previousOwner",
          "type": "address"
        },
        {
          "indexed": true,
          "internalType": "address",
          "name": "newOwner",
          "type": "address"
        }
      ],
      "name": "OwnershipTransferred",
      "type": "event"
    },
    {
      "anonymous": false,
      "inputs": [
        {
          "indexed": true,
          "internalType": "address",
          "name": "from",
          "type": "address"
        },
        {
          "indexed": true,
          "internalType": "address",
          "name": "to",
          "type": "address"
        },
        {
          "indexed": false,
          "internalType": "uint256",
          "name": "value",
          "type": "uint256"
        }
      ],
      "name": "Transfer",
      "type": "event"
    },
    {
      "inputs": [
        {
          "internalType": "address",
          "name": "owner",
          "type": "address"
        },
        {
          "internalType": "address",
          "name": "spender",
          "type": "address"
        }
      ],
      "name": "allowance",
      "outputs": [
        {
          "internalType": "uint256",
          "name": "",
          "type": "uint256"
        }
      ],
      "stateMutability": "view",
      "type": "function"
    },
    {
      "inputs": [
        {
          "internalType": "address",
          "name": "spender",
          "type": "address"
        },
        {
          "internalType": "uint256",
          "name": "amount",
          "type": "uint256"
        }
      ],
      "name": "approve",
      "outputs": [
        {
          "internalType": "bool",
          "name": "",
          "type": "bool"
        }
      ],
      "stateMutability": "nonpayable",
      "type": "function"
    },
    {
      "inputs": [
        {
          "internalType": "address",
          "name": "account",
          "type": "address"
        }
      ],
      "name": "balanceOf",
      "outputs": [
        {
          "internalType": "uint256",
          "name": "",
          "type": "uint256"
        }
      ],
      "stateMutability": "view",
      "type": "function"
    },
    {
      "inputs": [
        {
          "internalType": "uint256",
          "name": "amount",
          "type": "uint256"
        }
      ],
      "name": "burn",
      "outputs": [],
      "stateMutability": "nonpayable",
      "type": "function"
    },
    {
      "inputs": [
        {
          "internalType": "address",
          "name": "account",
          "type": "address"
        },
        {
          "internalType": "uint256",
          "name": "amount",
          "type": "uint256"
        }
      ],
      "name": "burnFrom",
      "outputs": [],
      "stateMutability": "nonpayable",
      "type": "function"
    },
    {
      "inputs": [],
      "name": "decimals",
      "outputs": [
        {
          "internalType": "uint8",
          "name": "",
          "type": "uint8"
        }
      ],
      "stateMutability": "view",
      "type": "function"
    },
    {
      "inputs": [
        {
          "internalType": "address",
          "name": "spender",
          "type": "address"
        },
        {
          "internalType": "uint256",
          "name": "subtractedValue",
          "type": "uint256"
        }
      ],
      "name": "decreaseAllowance",
      "outputs": [
        {
          "internalType": "bool",
          "name": "",
          "type": "bool"
        }
      ],
      "stateMutability": "nonpayable",
      "type": "function"
    },
    {
      "inputs": [],
      "name": "girlContract",
      "outputs": [
        {
          "internalType": "contract IGirl",
          "name": "",
          "type": "address"
        }
      ],
      "stateMutability": "view",
      "type": "function"
    },
    {
      "inputs": [
        {
          "internalType": "address",
          "name": "spender",
          "type": "address"
        },
        {
          "internalType": "uint256",
          "name": "addedValue",
          "type": "uint256"
        }
      ],
      "name": "increaseAllowance",
      "outputs": [
        {
          "internalType": "bool",
          "name": "",
          "type": "bool"
        }
      ],
      "stateMutability": "nonpayable",
      "type": "function"
    },
    {
      "inputs": [
        {
          "internalType": "address",
          "name": "",
          "type": "address"
        }
      ],
      "name": "isGachaMachine",
      "outputs": [
        {
          "internalType": "bool",
          "name": "",
          "type": "bool"
        }
      ],
      "stateMutability": "view",
      "type": "function"
    },
    {
      "inputs": [
        {
          "internalType": "address",
          "name": "to",
          "type": "address"
        },
        {
          "internalType": "uint256",
          "name": "amount",
          "type": "uint256"
        }
      ],
      "name": "mint",
      "outputs": [],
      "stateMutability": "nonpayable",
      "type": "function"
    },
    {
      "inputs": [
        {
          "internalType": "address",
          "name": "_to",
          "type": "address"
        },
        {
          "internalType": "uint256",
          "name": "amount",
          "type": "uint256"
        }
      ],
      "name": "mintDev",
      "outputs": [],
      "stateMutability": "nonpayable",
      "type": "function"
    },
    {
      "inputs": [],
      "name": "name",
      "outputs": [
        {
          "internalType": "string",
          "name": "",
          "type": "string"
        }
      ],
      "stateMutability": "view",
      "type": "function"
    },
    {
      "inputs": [],
      "name": "owner",
      "outputs": [
        {
          "internalType": "address",
          "name": "",
          "type": "address"
        }
      ],
      "stateMutability": "view",
      "type": "function"
    },
    {
      "inputs": [],
      "name": "renounceOwnership",
      "outputs": [],
      "stateMutability": "nonpayable",
      "type": "function"
    },
    {
      "inputs": [
        {
          "internalType": "address",
          "name": "_g",
          "type": "address"
        },
        {
          "internalType": "bool",
          "name": "_tf",
          "type": "bool"
        }
      ],
      "name": "setGachaMachine",
      "outputs": [],
      "stateMutability": "nonpayable",
      "type": "function"
    },
    {
      "inputs": [
        {
          "internalType": "address",
          "name": "_girlContract",
          "type": "address"
        }
      ],
      "name": "setGirlContract",
      "outputs": [],
      "stateMutability": "nonpayable",
      "type": "function"
    },
    {
      "inputs": [],
      "name": "symbol",
      "outputs": [
        {
          "internalType": "string",
          "name": "",
          "type": "string"
        }
      ],
      "stateMutability": "view",
      "type": "function"
    },
    {
      "inputs": [],
      "name": "totalSupply",
      "outputs": [
        {
          "internalType": "uint256",
          "name": "",
          "type": "uint256"
        }
      ],
      "stateMutability": "view",
      "type": "function"
    },
    {
      "inputs": [
        {
          "internalType": "address",
          "name": "to",
          "type": "address"
        },
        {
          "internalType": "uint256",
          "name": "amount",
          "type": "uint256"
        }
      ],
      "name": "transfer",
      "outputs": [
        {
          "internalType": "bool",
          "name": "",
          "type": "bool"
        }
      ],
      "stateMutability": "nonpayable",
      "type": "function"
    },
    {
      "inputs": [
        {
          "internalType": "address",
          "name": "from",
          "type": "address"
        },
        {
          "internalType": "address",
          "name": "to",
          "type": "address"
        },
        {
          "internalType": "uint256",
          "name": "amount",
          "type": "uint256"
        }
      ],
      "name": "transferFrom",
      "outputs": [
        {
          "internalType": "bool",
          "name": "",
          "type": "bool"
        }
      ],
      "stateMutability": "nonpayable",
      "type": "function"
    },
    {
      "inputs": [
        {
          "internalType": "address",
          "name": "newOwner",
          "type": "address"
        }
      ],
      "name": "transferOwnership",
      "outputs": [],
      "stateMutability": "nonpayable",
      "type": "function"
    },
    {
      "inputs": [
        {
          "internalType": "uint256",
          "name": "id",
          "type": "uint256"
        },
        {
          "internalType": "uint256",
          "name": "toTier",
          "type": "uint256"
        }
      ],
      "name": "upgradeGamerScore",
      "outputs": [],
      "stateMutability": "nonpayable",
      "type": "function"
    }
  ],
  "bytecode": "0x60806040523480156200001157600080fd5b50604051620014f8380380620014f88339810160408190526200003491620002b3565b60408051808201825260098152684d6f6f6e73746f6e6560b81b6020808301918252835180850190945260088452673a33b3a6a729aa2760c11b9084015281519192916200008591600391620001f0565b5080516200009b906004906020840190620001f0565b505050620000b8620000b2620000d860201b60201c565b620000dc565b620000c58260016200012e565b620000d08162000163565b505062000327565b3390565b600580546001600160a01b038381166001600160a01b0319831681179093556040519116919082907f8be0079c531659141344cd1fd0a4f28419497f9722a3daafe3b4186f6b6457e090600090a35050565b620001386200018f565b6001600160a01b03919091166000908152600760205260409020805460ff1916911515919091179055565b6200016d6200018f565b600680546001600160a01b0319166001600160a01b0392909216919091179055565b6005546001600160a01b03163314620001ee5760405162461bcd60e51b815260206004820181905260248201527f4f776e61626c653a2063616c6c6572206973206e6f7420746865206f776e6572604482015260640160405180910390fd5b565b828054620001fe90620002ea565b90600052602060002090601f0160209004810192826200022257600085556200026d565b82601f106200023d57805160ff19168380011785556200026d565b828001600101855582156200026d579182015b828111156200026d57825182559160200191906001019062000250565b506200027b9291506200027f565b5090565b5b808211156200027b576000815560010162000280565b80516001600160a01b0381168114620002ae57600080fd5b919050565b60008060408385031215620002c6578182fd5b620002d18362000296565b9150620002e16020840162000296565b90509250929050565b600181811c90821680620002ff57607f821691505b602082108114156200032157634e487b7160e01b600052602260045260246000fd5b50919050565b6111c180620003376000396000f3fe608060405234801561001057600080fd5b506004361061014d5760003560e01c80634d874577116100c357806395d89b411161007c57806395d89b41146102da578063a457c2d7146102e2578063a9059cbb146102f5578063cf0d550414610308578063dd62ed3e1461031b578063f2fde38b1461032e57600080fd5b80634d8745771461024b57806370a082311461025e578063715018a61461028757806379cc67901461028f57806384eda544146102a25780638da5cb5b146102b557600080fd5b8063313ce56711610115578063313ce567146101cd578063324c6adc146101dc57806339509351146101ef5780633c22ae5a1461020257806340c10f191461022557806342966c681461023857600080fd5b806306fdde0314610152578063095ea7b31461017057806318160ddd146101935780631dab397d146101a557806323b872dd146101ba575b600080fd5b61015a610341565b60405161016791906110a3565b60405180910390f35b61018361017e366004611027565b6103d3565b6040519015158152602001610167565b6002545b604051908152602001610167565b6101b86101b3366004611082565b6103eb565b005b6101836101c8366004610fb6565b61066b565b60405160008152602001610167565b6101b86101ea366004611027565b61068f565b6101836101fd366004611027565b6106a5565b610183610210366004610f3f565b60076020526000908152604090205460ff1681565b6101b8610233366004611027565b6106c7565b6101b8610246366004611052565b610735565b6101b8610259366004610ff6565b610742565b61019761026c366004610f3f565b6001600160a01b031660009081526020819052604090205490565b6101b8610775565b6101b861029d366004611027565b610789565b6101b86102b0366004610f3f565b61079e565b6005546001600160a01b03165b6040516001600160a01b039091168152602001610167565b61015a6107c8565b6101836102f0366004611027565b6107d7565b610183610303366004611027565b610852565b6006546102c2906001600160a01b031681565b610197610329366004610f7e565b610860565b6101b861033c366004610f3f565b61088b565b60606003805461035090611125565b80601f016020809104026020016040519081016040528092919081815260200182805461037c90611125565b80156103c95780601f1061039e576101008083540402835291602001916103c9565b820191906000526020600020905b8154815290600101906020018083116103ac57829003601f168201915b5050505050905090565b6000336103e1818585610901565b5060019392505050565b6006546040516303c0109360e41b815260048101849052602481018390526000916001600160a01b031690633c0109309060440160206040518083038186803b15801561043757600080fd5b505afa15801561044b573d6000803e3d6000fd5b505050506040513d601f19601f8201168201806040525081019061046f919061106a565b9050600081116104bb5760405162461bcd60e51b81526020600482015260126024820152710557067726164653a20636f7374203d3d20360741b60448201526064015b60405180910390fd5b3360009081526020819052604090205481111561051a5760405162461bcd60e51b815260206004820152601c60248201527f4d6f6f6e73746f6e653a206e6f7420656e6f75676820746f6b656e730000000060448201526064016104b2565b6006546040516331a9108f60e11b81526004810185905233916001600160a01b031690636352211e9060240160206040518083038186803b15801561055e57600080fd5b505afa158015610572573d6000803e3d6000fd5b505050506040513d601f19601f820116820180604052508101906105969190610f62565b6001600160a01b0316146105f85760405162461bcd60e51b815260206004820152602360248201527f4d6f6f6e73746f6e653a20757067726164652063616c6c6572206e6f74206f776044820152623732b960e91b60648201526084016104b2565b61060181610735565b600654604051630349281160e51b815260048101859052602481018490526001600160a01b0390911690636925022090604401600060405180830381600087803b15801561064e57600080fd5b505af1158015610662573d6000803e3d6000fd5b50505050505050565b600033610679858285610a26565b610684858585610aa0565b506001949350505050565b610697610c6e565b6106a18282610cc8565b5050565b6000336103e18185856106b88383610860565b6106c291906110f6565b610901565b3360009081526007602052604090205460ff166106975760405162461bcd60e51b815260206004820152602660248201527f4d6f6f6e73746f6e653a204f6e6c79206761636861206d616368696e652063616044820152651b881b5a5b9d60d21b60648201526084016104b2565b61073f3382610da7565b50565b61074a610c6e565b6001600160a01b03919091166000908152600760205260409020805460ff1916911515919091179055565b61077d610c6e565b6107876000610eed565b565b610794823383610a26565b6106a18282610da7565b6107a6610c6e565b600680546001600160a01b0319166001600160a01b0392909216919091179055565b60606004805461035090611125565b600033816107e58286610860565b9050838110156108455760405162461bcd60e51b815260206004820152602560248201527f45524332303a2064656372656173656420616c6c6f77616e63652062656c6f77604482015264207a65726f60d81b60648201526084016104b2565b6106848286868403610901565b6000336103e1818585610aa0565b6001600160a01b03918216600090815260016020908152604080832093909416825291909152205490565b610893610c6e565b6001600160a01b0381166108f85760405162461bcd60e51b815260206004820152602660248201527f4f776e61626c653a206e6577206f776e657220697320746865207a65726f206160448201526564647265737360d01b60648201526084016104b2565b61073f81610eed565b6001600160a01b0383166109635760405162461bcd60e51b8152602060048201526024808201527f45524332303a20617070726f76652066726f6d20746865207a65726f206164646044820152637265737360e01b60648201526084016104b2565b6001600160a01b0382166109c45760405162461bcd60e51b815260206004820152602260248201527f45524332303a20617070726f766520746f20746865207a65726f206164647265604482015261737360f01b60648201526084016104b2565b6001600160a01b0383811660008181526001602090815260408083209487168084529482529182902085905590518481527f8c5be1e5ebec7d5bd14f71427d1e84f3dd0314c0f7b2291e5b200ac8c7c3b92591015b60405180910390a3505050565b6000610a328484610860565b90506000198114610a9a5781811015610a8d5760405162461bcd60e51b815260206004820152601d60248201527f45524332303a20696e73756666696369656e7420616c6c6f77616e636500000060448201526064016104b2565b610a9a8484848403610901565b50505050565b6001600160a01b038316610b045760405162461bcd60e51b815260206004820152602560248201527f45524332303a207472616e736665722066726f6d20746865207a65726f206164604482015264647265737360d81b60648201526084016104b2565b6001600160a01b038216610b665760405162461bcd60e51b815260206004820152602360248201527f45524332303a207472616e7366657220746f20746865207a65726f206164647260448201526265737360e81b60648201526084016104b2565b6001600160a01b03831660009081526020819052604090205481811015610bde5760405162461bcd60e51b815260206004820152602660248201527f45524332303a207472616e7366657220616d6f756e7420657863656564732062604482015265616c616e636560d01b60648201526084016104b2565b6001600160a01b03808516600090815260208190526040808220858503905591851681529081208054849290610c159084906110f6565b92505081905550826001600160a01b0316846001600160a01b03167fddf252ad1be2c89b69c2b068fc378daa952ba7f163c4a11628f55a4df523b3ef84604051610c6191815260200190565b60405180910390a3610a9a565b6005546001600160a01b031633146107875760405162461bcd60e51b815260206004820181905260248201527f4f776e61626c653a2063616c6c6572206973206e6f7420746865206f776e657260448201526064016104b2565b6001600160a01b038216610d1e5760405162461bcd60e51b815260206004820152601f60248201527f45524332303a206d696e7420746f20746865207a65726f20616464726573730060448201526064016104b2565b8060026000828254610d3091906110f6565b90915550506001600160a01b03821660009081526020819052604081208054839290610d5d9084906110f6565b90915550506040518181526001600160a01b038316906000907fddf252ad1be2c89b69c2b068fc378daa952ba7f163c4a11628f55a4df523b3ef9060200160405180910390a35050565b6001600160a01b038216610e075760405162461bcd60e51b815260206004820152602160248201527f45524332303a206275726e2066726f6d20746865207a65726f206164647265736044820152607360f81b60648201526084016104b2565b6001600160a01b03821660009081526020819052604090205481811015610e7b5760405162461bcd60e51b815260206004820152602260248201527f45524332303a206275726e20616d6f756e7420657863656564732062616c616e604482015261636560f01b60648201526084016104b2565b6001600160a01b0383166000908152602081905260408120838303905560028054849290610eaa90849061110e565b90915550506040518281526000906001600160a01b038516907fddf252ad1be2c89b69c2b068fc378daa952ba7f163c4a11628f55a4df523b3ef90602001610a19565b600580546001600160a01b038381166001600160a01b0319831681179093556040519116919082907f8be0079c531659141344cd1fd0a4f28419497f9722a3daafe3b4186f6b6457e090600090a35050565b600060208284031215610f50578081fd5b8135610f5b81611176565b9392505050565b600060208284031215610f73578081fd5b8151610f5b81611176565b60008060408385031215610f90578081fd5b8235610f9b81611176565b91506020830135610fab81611176565b809150509250929050565b600080600060608486031215610fca578081fd5b8335610fd581611176565b92506020840135610fe581611176565b929592945050506040919091013590565b60008060408385031215611008578182fd5b823561101381611176565b915060208301358015158114610fab578182fd5b60008060408385031215611039578182fd5b823561104481611176565b946020939093013593505050565b600060208284031215611063578081fd5b5035919050565b60006020828403121561107b578081fd5b5051919050565b60008060408385031215611094578182fd5b50508035926020909101359150565b6000602080835283518082850152825b818110156110cf578581018301518582016040015282016110b3565b818111156110e05783604083870101525b50601f01601f1916929092016040019392505050565b6000821982111561110957611109611160565b500190565b60008282101561112057611120611160565b500390565b600181811c9082168061113957607f821691505b6020821081141561115a57634e487b7160e01b600052602260045260246000fd5b50919050565b634e487b7160e01b600052601160045260246000fd5b6001600160a01b038116811461073f57600080fdfea26469706673582212200a78c64a713afcde410a863a628798bbdc9ed1ee656326363e289789f7264a0a64736f6c63430008040033",
  "linkReferences": {},
  "deployedLinkReferences": {}
}