{
  "_format": "hh-sol-artifact-1",
  "contractName": "Moonstone",
  "sourceName": "contracts/Gacha/Moonstone.sol",
  "abi": [
    {
      "inputs": [
        {
          "internalType": "address",
          "name": "_gachaMachine",
          "type": "address"
        },
        {
          "internalType": "address",
          "name": "_girlContract",
          "type": "address"
        }
      ],
      "stateMutability": "nonpayable",
      "type": "constructor"
    },
    {
      "anonymous": false,
      "inputs": [
        {
          "indexed": true,
          "internalType": "address",
          "name": "owner",
          "type": "address"
        },
        {
          "indexed": true,
          "internalType": "address",
          "name": "spender",
          "type": "address"
        },
        {
          "indexed": false,
          "internalType": "uint256",
          "name": "value",
          "type": "uint256"
        }
      ],
      "name": "Approval",
      "type": "event"
    },
    {
      "anonymous": false,
      "inputs": [
        {
          "indexed": false,
          "internalType": "uint256",
          "name": "id",
          "type": "uint256"
        },
        {
          "indexed": false,
          "internalType": "uint256",
          "name": "toTier",
          "type": "uint256"
        }
      ],
      "name": "GamerScoreUpgraded",
      "type": "event"
    },
    {
      "anonymous": false,
      "inputs": [
        {
          "indexed": true,
          "internalType": "address",
          "name": "previousOwner",
          "type": "address"
        },
        {
          "indexed": true,
          "internalType": "address",
          "name": "newOwner",
          "type": "address"
        }
      ],
      "name": "OwnershipTransferred",
      "type": "event"
    },
    {
      "anonymous": false,
      "inputs": [
        {
          "indexed": true,
          "internalType": "address",
          "name": "from",
          "type": "address"
        },
        {
          "indexed": true,
          "internalType": "address",
          "name": "to",
          "type": "address"
        },
        {
          "indexed": false,
          "internalType": "uint256",
          "name": "value",
          "type": "uint256"
        }
      ],
      "name": "Transfer",
      "type": "event"
    },
    {
      "inputs": [
        {
          "internalType": "address",
          "name": "owner",
          "type": "address"
        },
        {
          "internalType": "address",
          "name": "spender",
          "type": "address"
        }
      ],
      "name": "allowance",
      "outputs": [
        {
          "internalType": "uint256",
          "name": "",
          "type": "uint256"
        }
      ],
      "stateMutability": "view",
      "type": "function"
    },
    {
      "inputs": [
        {
          "internalType": "address",
          "name": "spender",
          "type": "address"
        },
        {
          "internalType": "uint256",
          "name": "amount",
          "type": "uint256"
        }
      ],
      "name": "approve",
      "outputs": [
        {
          "internalType": "bool",
          "name": "",
          "type": "bool"
        }
      ],
      "stateMutability": "nonpayable",
      "type": "function"
    },
    {
      "inputs": [
        {
          "internalType": "address",
          "name": "account",
          "type": "address"
        }
      ],
      "name": "balanceOf",
      "outputs": [
        {
          "internalType": "uint256",
          "name": "",
          "type": "uint256"
        }
      ],
      "stateMutability": "view",
      "type": "function"
    },
    {
      "inputs": [
        {
          "internalType": "uint256",
          "name": "amount",
          "type": "uint256"
        }
      ],
      "name": "burn",
      "outputs": [],
      "stateMutability": "nonpayable",
      "type": "function"
    },
    {
      "inputs": [
        {
          "internalType": "address",
          "name": "account",
          "type": "address"
        },
        {
          "internalType": "uint256",
          "name": "amount",
          "type": "uint256"
        }
      ],
      "name": "burnFrom",
      "outputs": [],
      "stateMutability": "nonpayable",
      "type": "function"
    },
    {
      "inputs": [],
      "name": "decimals",
      "outputs": [
        {
          "internalType": "uint8",
          "name": "",
          "type": "uint8"
        }
      ],
      "stateMutability": "view",
      "type": "function"
    },
    {
      "inputs": [
        {
          "internalType": "address",
          "name": "spender",
          "type": "address"
        },
        {
          "internalType": "uint256",
          "name": "subtractedValue",
          "type": "uint256"
        }
      ],
      "name": "decreaseAllowance",
      "outputs": [
        {
          "internalType": "bool",
          "name": "",
          "type": "bool"
        }
      ],
      "stateMutability": "nonpayable",
      "type": "function"
    },
    {
      "inputs": [],
      "name": "girlContract",
      "outputs": [
        {
          "internalType": "contract IGirl",
          "name": "",
          "type": "address"
        }
      ],
      "stateMutability": "view",
      "type": "function"
    },
    {
      "inputs": [
        {
          "internalType": "address",
          "name": "spender",
          "type": "address"
        },
        {
          "internalType": "uint256",
          "name": "addedValue",
          "type": "uint256"
        }
      ],
      "name": "increaseAllowance",
      "outputs": [
        {
          "internalType": "bool",
          "name": "",
          "type": "bool"
        }
      ],
      "stateMutability": "nonpayable",
      "type": "function"
    },
    {
      "inputs": [
        {
          "internalType": "address",
          "name": "",
          "type": "address"
        }
      ],
      "name": "isGachaMachine",
      "outputs": [
        {
          "internalType": "bool",
          "name": "",
          "type": "bool"
        }
      ],
      "stateMutability": "view",
      "type": "function"
    },
    {
      "inputs": [
        {
          "internalType": "address",
          "name": "to",
          "type": "address"
        },
        {
          "internalType": "uint256",
          "name": "amount",
          "type": "uint256"
        }
      ],
      "name": "mint",
      "outputs": [],
      "stateMutability": "nonpayable",
      "type": "function"
    },
    {
      "inputs": [],
      "name": "name",
      "outputs": [
        {
          "internalType": "string",
          "name": "",
          "type": "string"
        }
      ],
      "stateMutability": "view",
      "type": "function"
    },
    {
      "inputs": [],
      "name": "owner",
      "outputs": [
        {
          "internalType": "address",
          "name": "",
          "type": "address"
        }
      ],
      "stateMutability": "view",
      "type": "function"
    },
    {
      "inputs": [],
      "name": "renounceOwnership",
      "outputs": [],
      "stateMutability": "nonpayable",
      "type": "function"
    },
    {
      "inputs": [
        {
          "internalType": "address",
          "name": "_g",
          "type": "address"
        },
        {
          "internalType": "bool",
          "name": "_tf",
          "type": "bool"
        }
      ],
      "name": "setGachaMachine",
      "outputs": [],
      "stateMutability": "nonpayable",
      "type": "function"
    },
    {
      "inputs": [
        {
          "internalType": "address",
          "name": "_girlContract",
          "type": "address"
        }
      ],
      "name": "setGirlContract",
      "outputs": [],
      "stateMutability": "nonpayable",
      "type": "function"
    },
    {
      "inputs": [],
      "name": "symbol",
      "outputs": [
        {
          "internalType": "string",
          "name": "",
          "type": "string"
        }
      ],
      "stateMutability": "view",
      "type": "function"
    },
    {
      "inputs": [],
      "name": "totalSupply",
      "outputs": [
        {
          "internalType": "uint256",
          "name": "",
          "type": "uint256"
        }
      ],
      "stateMutability": "view",
      "type": "function"
    },
    {
      "inputs": [
        {
          "internalType": "address",
          "name": "to",
          "type": "address"
        },
        {
          "internalType": "uint256",
          "name": "amount",
          "type": "uint256"
        }
      ],
      "name": "transfer",
      "outputs": [
        {
          "internalType": "bool",
          "name": "",
          "type": "bool"
        }
      ],
      "stateMutability": "nonpayable",
      "type": "function"
    },
    {
      "inputs": [
        {
          "internalType": "address",
          "name": "from",
          "type": "address"
        },
        {
          "internalType": "address",
          "name": "to",
          "type": "address"
        },
        {
          "internalType": "uint256",
          "name": "amount",
          "type": "uint256"
        }
      ],
      "name": "transferFrom",
      "outputs": [
        {
          "internalType": "bool",
          "name": "",
          "type": "bool"
        }
      ],
      "stateMutability": "nonpayable",
      "type": "function"
    },
    {
      "inputs": [
        {
          "internalType": "address",
          "name": "newOwner",
          "type": "address"
        }
      ],
      "name": "transferOwnership",
      "outputs": [],
      "stateMutability": "nonpayable",
      "type": "function"
    },
    {
      "inputs": [
        {
          "internalType": "uint256",
          "name": "id",
          "type": "uint256"
        },
        {
          "internalType": "uint256",
          "name": "toTier",
          "type": "uint256"
        }
      ],
      "name": "upgradeGamerScore",
      "outputs": [],
      "stateMutability": "nonpayable",
      "type": "function"
    }
  ],
  "bytecode": "0x60806040523480156200001157600080fd5b506040516200148d3803806200148d8339810160408190526200003491620002bb565b604080518082018252600d81526c544747204d6f6f6e73746f6e6560981b60208083019182528351808501909452600c84526b5447474d6f6f6e73746f6e6560a01b9084015281519192916200008d91600391620001f8565b508051620000a3906004906020840190620001f8565b505050620000c0620000ba620000e060201b60201c565b620000e4565b620000cd82600162000136565b620000d8816200016b565b50506200032f565b3390565b600580546001600160a01b038381166001600160a01b0319831681179093556040519116919082907f8be0079c531659141344cd1fd0a4f28419497f9722a3daafe3b4186f6b6457e090600090a35050565b6200014062000197565b6001600160a01b03919091166000908152600760205260409020805460ff1916911515919091179055565b6200017562000197565b600680546001600160a01b0319166001600160a01b0392909216919091179055565b6005546001600160a01b03163314620001f65760405162461bcd60e51b815260206004820181905260248201527f4f776e61626c653a2063616c6c6572206973206e6f7420746865206f776e6572604482015260640160405180910390fd5b565b8280546200020690620002f2565b90600052602060002090601f0160209004810192826200022a576000855562000275565b82601f106200024557805160ff191683800117855562000275565b8280016001018555821562000275579182015b828111156200027557825182559160200191906001019062000258565b506200028392915062000287565b5090565b5b8082111562000283576000815560010162000288565b80516001600160a01b0381168114620002b657600080fd5b919050565b60008060408385031215620002ce578182fd5b620002d9836200029e565b9150620002e9602084016200029e565b90509250929050565b600181811c908216806200030757607f821691505b602082108114156200032957634e487b7160e01b600052602260045260246000fd5b50919050565b61114e806200033f6000396000f3fe608060405234801561001057600080fd5b50600436106101425760003560e01c806370a08231116100b857806395d89b411161007c57806395d89b41146102bc578063a457c2d7146102c4578063a9059cbb146102d7578063cf0d5504146102ea578063dd62ed3e146102fd578063f2fde38b1461031057600080fd5b806370a0823114610240578063715018a61461026957806379cc67901461027157806384eda544146102845780638da5cb5b1461029757600080fd5b8063313ce5671161010a578063313ce567146101c257806339509351146101d15780633c22ae5a146101e457806340c10f191461020757806342966c681461021a5780634d8745771461022d57600080fd5b806306fdde0314610147578063095ea7b31461016557806318160ddd146101885780631dab397d1461019a57806323b872dd146101af575b600080fd5b61014f610323565b60405161015c9190611051565b60405180910390f35b610178610173366004610fd5565b6103b5565b604051901515815260200161015c565b6002545b60405190815260200161015c565b6101ad6101a8366004611030565b6103cd565b005b6101786101bd366004610f64565b610687565b6040516000815260200161015c565b6101786101df366004610fd5565b6106ab565b6101786101f2366004610eed565b60076020526000908152604090205460ff1681565b6101ad610215366004610fd5565b6106cd565b6101ad610228366004611000565b610749565b6101ad61023b366004610fa4565b610756565b61018c61024e366004610eed565b6001600160a01b031660009081526020819052604090205490565b6101ad610789565b6101ad61027f366004610fd5565b61079d565b6101ad610292366004610eed565b6107b2565b6005546001600160a01b03165b6040516001600160a01b03909116815260200161015c565b61014f6107dc565b6101786102d2366004610fd5565b6107eb565b6101786102e5366004610fd5565b610866565b6006546102a4906001600160a01b031681565b61018c61030b366004610f2c565b610874565b6101ad61031e366004610eed565b61089f565b606060038054610332906110c8565b80601f016020809104026020016040519081016040528092919081815260200182805461035e906110c8565b80156103ab5780601f10610380576101008083540402835291602001916103ab565b820191906000526020600020905b81548152906001019060200180831161038e57829003601f168201915b5050505050905090565b6000336103c3818585610915565b5060019392505050565b6006546040516303c0109360e41b815260048101849052602481018390526000916001600160a01b031690633c0109309060440160206040518083038186803b15801561041957600080fd5b505afa15801561042d573d6000803e3d6000fd5b505050506040513d601f19601f820116820180604052508101906104519190611018565b90506000811161049d5760405162461bcd60e51b81526020600482015260126024820152710557067726164653a20636f7374203d3d20360741b60448201526064015b60405180910390fd5b336000908152602081905260409020548111156104fc5760405162461bcd60e51b815260206004820152601c60248201527f4d6f6f6e73746f6e653a206e6f7420656e6f75676820746f6b656e73000000006044820152606401610494565b6006546040516331a9108f60e11b81526004810185905233916001600160a01b031690636352211e9060240160206040518083038186803b15801561054057600080fd5b505afa158015610554573d6000803e3d6000fd5b505050506040513d601f19601f820116820180604052508101906105789190610f10565b6001600160a01b0316146105da5760405162461bcd60e51b815260206004820152602360248201527f4d6f6f6e73746f6e653a20757067726164652063616c6c6572206e6f74206f776044820152623732b960e91b6064820152608401610494565b6105e381610749565b600654604051630349281160e51b815260048101859052602481018490526001600160a01b0390911690636925022090604401600060405180830381600087803b15801561063057600080fd5b505af1158015610644573d6000803e3d6000fd5b505060408051868152602081018690527ffa71c613a73ab199271165b6d5fd2134bdf5b4257c022d377e72a39c481a468e935001905060405180910390a1505050565b600033610695858285610a3a565b6106a0858585610ab4565b506001949350505050565b6000336103c38185856106be8383610874565b6106c891906110a4565b610915565b3360009081526007602052604090205460ff1661073b5760405162461bcd60e51b815260206004820152602660248201527f4d6f6f6e73746f6e653a204f6e6c79206761636861206d616368696e652063616044820152651b881b5a5b9d60d21b6064820152608401610494565b6107458282610c58565b5050565b6107533382610d17565b50565b61075e610e41565b6001600160a01b03919091166000908152600760205260409020805460ff1916911515919091179055565b610791610e41565b61079b6000610e9b565b565b6107a8823383610a3a565b6107458282610d17565b6107ba610e41565b600680546001600160a01b0319166001600160a01b0392909216919091179055565b606060048054610332906110c8565b600033816107f98286610874565b9050838110156108595760405162461bcd60e51b815260206004820152602560248201527f45524332303a2064656372656173656420616c6c6f77616e63652062656c6f77604482015264207a65726f60d81b6064820152608401610494565b6106a08286868403610915565b6000336103c3818585610ab4565b6001600160a01b03918216600090815260016020908152604080832093909416825291909152205490565b6108a7610e41565b6001600160a01b03811661090c5760405162461bcd60e51b815260206004820152602660248201527f4f776e61626c653a206e6577206f776e657220697320746865207a65726f206160448201526564647265737360d01b6064820152608401610494565b61075381610e9b565b6001600160a01b0383166109775760405162461bcd60e51b8152602060048201526024808201527f45524332303a20617070726f76652066726f6d20746865207a65726f206164646044820152637265737360e01b6064820152608401610494565b6001600160a01b0382166109d85760405162461bcd60e51b815260206004820152602260248201527f45524332303a20617070726f766520746f20746865207a65726f206164647265604482015261737360f01b6064820152608401610494565b6001600160a01b0383811660008181526001602090815260408083209487168084529482529182902085905590518481527f8c5be1e5ebec7d5bd14f71427d1e84f3dd0314c0f7b2291e5b200ac8c7c3b92591015b60405180910390a3505050565b6000610a468484610874565b90506000198114610aae5781811015610aa15760405162461bcd60e51b815260206004820152601d60248201527f45524332303a20696e73756666696369656e7420616c6c6f77616e63650000006044820152606401610494565b610aae8484848403610915565b50505050565b6001600160a01b038316610b185760405162461bcd60e51b815260206004820152602560248201527f45524332303a207472616e736665722066726f6d20746865207a65726f206164604482015264647265737360d81b6064820152608401610494565b6001600160a01b038216610b7a5760405162461bcd60e51b815260206004820152602360248201527f45524332303a207472616e7366657220746f20746865207a65726f206164647260448201526265737360e81b6064820152608401610494565b6001600160a01b03831660009081526020819052604090205481811015610bf25760405162461bcd60e51b815260206004820152602660248201527f45524332303a207472616e7366657220616d6f756e7420657863656564732062604482015265616c616e636560d01b6064820152608401610494565b6001600160a01b03848116600081815260208181526040808320878703905593871680835291849020805487019055925185815290927fddf252ad1be2c89b69c2b068fc378daa952ba7f163c4a11628f55a4df523b3ef910160405180910390a3610aae565b6001600160a01b038216610cae5760405162461bcd60e51b815260206004820152601f60248201527f45524332303a206d696e7420746f20746865207a65726f2061646472657373006044820152606401610494565b8060026000828254610cc091906110a4565b90915550506001600160a01b038216600081815260208181526040808320805486019055518481527fddf252ad1be2c89b69c2b068fc378daa952ba7f163c4a11628f55a4df523b3ef910160405180910390a35050565b6001600160a01b038216610d775760405162461bcd60e51b815260206004820152602160248201527f45524332303a206275726e2066726f6d20746865207a65726f206164647265736044820152607360f81b6064820152608401610494565b6001600160a01b03821660009081526020819052604090205481811015610deb5760405162461bcd60e51b815260206004820152602260248201527f45524332303a206275726e20616d6f756e7420657863656564732062616c616e604482015261636560f01b6064820152608401610494565b6001600160a01b0383166000818152602081815260408083208686039055600280548790039055518581529192917fddf252ad1be2c89b69c2b068fc378daa952ba7f163c4a11628f55a4df523b3ef9101610a2d565b6005546001600160a01b0316331461079b5760405162461bcd60e51b815260206004820181905260248201527f4f776e61626c653a2063616c6c6572206973206e6f7420746865206f776e65726044820152606401610494565b600580546001600160a01b038381166001600160a01b0319831681179093556040519116919082907f8be0079c531659141344cd1fd0a4f28419497f9722a3daafe3b4186f6b6457e090600090a35050565b600060208284031215610efe578081fd5b8135610f0981611103565b9392505050565b600060208284031215610f21578081fd5b8151610f0981611103565b60008060408385031215610f3e578081fd5b8235610f4981611103565b91506020830135610f5981611103565b809150509250929050565b600080600060608486031215610f78578081fd5b8335610f8381611103565b92506020840135610f9381611103565b929592945050506040919091013590565b60008060408385031215610fb6578182fd5b8235610fc181611103565b915060208301358015158114610f59578182fd5b60008060408385031215610fe7578182fd5b8235610ff281611103565b946020939093013593505050565b600060208284031215611011578081fd5b5035919050565b600060208284031215611029578081fd5b5051919050565b60008060408385031215611042578182fd5b50508035926020909101359150565b6000602080835283518082850152825b8181101561107d57858101830151858201604001528201611061565b8181111561108e5783604083870101525b50601f01601f1916929092016040019392505050565b600082198211156110c357634e487b7160e01b81526011600452602481fd5b500190565b600181811c908216806110dc57607f821691505b602082108114156110fd57634e487b7160e01b600052602260045260246000fd5b50919050565b6001600160a01b038116811461075357600080fdfea2646970667358221220faa16ff102b40b20de76c069675a4fe7f12999b45674b7ef2dc91e42f7b24cde64736f6c63430008040033",
  "linkReferences": {},
  "deployedLinkReferences": {}
}