{
  "_format": "hh-sol-artifact-1",
  "contractName": "Orb",
  "sourceName": "contracts/Orb/Orb.sol",
  "abi": [
    {
      "inputs": [
        {
          "internalType": "string",
          "name": "_initBaseURI",
          "type": "string"
        },
        {
          "internalType": "uint256",
          "name": "_maxSupply",
          "type": "uint256"
        }
      ],
      "stateMutability": "nonpayable",
      "type": "constructor"
    },
    {
      "anonymous": false,
      "inputs": [
        {
          "indexed": true,
          "internalType": "address",
          "name": "owner",
          "type": "address"
        },
        {
          "indexed": true,
          "internalType": "address",
          "name": "approved",
          "type": "address"
        },
        {
          "indexed": true,
          "internalType": "uint256",
          "name": "tokenId",
          "type": "uint256"
        }
      ],
      "name": "Approval",
      "type": "event"
    },
    {
      "anonymous": false,
      "inputs": [
        {
          "indexed": true,
          "internalType": "address",
          "name": "owner",
          "type": "address"
        },
        {
          "indexed": true,
          "internalType": "address",
          "name": "operator",
          "type": "address"
        },
        {
          "indexed": false,
          "internalType": "bool",
          "name": "approved",
          "type": "bool"
        }
      ],
      "name": "ApprovalForAll",
      "type": "event"
    },
    {
      "anonymous": false,
      "inputs": [
        {
          "indexed": false,
          "internalType": "address",
          "name": "minter",
          "type": "address"
        },
        {
          "indexed": false,
          "internalType": "uint256",
          "name": "id",
          "type": "uint256"
        }
      ],
      "name": "Minted",
      "type": "event"
    },
    {
      "anonymous": false,
      "inputs": [
        {
          "indexed": true,
          "internalType": "address",
          "name": "previousOwner",
          "type": "address"
        },
        {
          "indexed": true,
          "internalType": "address",
          "name": "newOwner",
          "type": "address"
        }
      ],
      "name": "OwnershipTransferred",
      "type": "event"
    },
    {
      "anonymous": false,
      "inputs": [
        {
          "indexed": false,
          "internalType": "string",
          "name": "revealed",
          "type": "string"
        }
      ],
      "name": "Revealed",
      "type": "event"
    },
    {
      "anonymous": false,
      "inputs": [
        {
          "indexed": true,
          "internalType": "address",
          "name": "from",
          "type": "address"
        },
        {
          "indexed": true,
          "internalType": "address",
          "name": "to",
          "type": "address"
        },
        {
          "indexed": true,
          "internalType": "uint256",
          "name": "tokenId",
          "type": "uint256"
        }
      ],
      "name": "Transfer",
      "type": "event"
    },
    {
      "inputs": [],
      "name": "INTERFACE_ID_ERC2981",
      "outputs": [
        {
          "internalType": "bytes4",
          "name": "",
          "type": "bytes4"
        }
      ],
      "stateMutability": "view",
      "type": "function"
    },
    {
      "inputs": [
        {
          "internalType": "address",
          "name": "to",
          "type": "address"
        },
        {
          "internalType": "uint256",
          "name": "tokenId",
          "type": "uint256"
        }
      ],
      "name": "approve",
      "outputs": [],
      "stateMutability": "nonpayable",
      "type": "function"
    },
    {
      "inputs": [
        {
          "internalType": "address",
          "name": "owner",
          "type": "address"
        }
      ],
      "name": "balanceOf",
      "outputs": [
        {
          "internalType": "uint256",
          "name": "",
          "type": "uint256"
        }
      ],
      "stateMutability": "view",
      "type": "function"
    },
    {
      "inputs": [],
      "name": "getAllRarities",
      "outputs": [
        {
          "internalType": "uint256[]",
          "name": "",
          "type": "uint256[]"
        }
      ],
      "stateMutability": "view",
      "type": "function"
    },
    {
      "inputs": [
        {
          "internalType": "uint256",
          "name": "tokenId",
          "type": "uint256"
        }
      ],
      "name": "getApproved",
      "outputs": [
        {
          "internalType": "address",
          "name": "",
          "type": "address"
        }
      ],
      "stateMutability": "view",
      "type": "function"
    },
    {
      "inputs": [
        {
          "internalType": "uint256",
          "name": "token",
          "type": "uint256"
        }
      ],
      "name": "getRarity",
      "outputs": [
        {
          "internalType": "uint256",
          "name": "",
          "type": "uint256"
        }
      ],
      "stateMutability": "view",
      "type": "function"
    },
    {
      "inputs": [
        {
          "internalType": "uint256",
          "name": "token",
          "type": "uint256"
        }
      ],
      "name": "getRarityString",
      "outputs": [
        {
          "internalType": "string",
          "name": "",
          "type": "string"
        }
      ],
      "stateMutability": "view",
      "type": "function"
    },
    {
      "inputs": [
        {
          "internalType": "address",
          "name": "owner",
          "type": "address"
        },
        {
          "internalType": "address",
          "name": "operator",
          "type": "address"
        }
      ],
      "name": "isApprovedForAll",
      "outputs": [
        {
          "internalType": "bool",
          "name": "",
          "type": "bool"
        }
      ],
      "stateMutability": "view",
      "type": "function"
    },
    {
      "inputs": [],
      "name": "maxSupply",
      "outputs": [
        {
          "internalType": "uint256",
          "name": "",
          "type": "uint256"
        }
      ],
      "stateMutability": "view",
      "type": "function"
    },
    {
      "inputs": [
        {
          "internalType": "uint256",
          "name": "_amount",
          "type": "uint256"
        },
        {
          "internalType": "address",
          "name": "_to",
          "type": "address"
        }
      ],
      "name": "mint",
      "outputs": [],
      "stateMutability": "nonpayable",
      "type": "function"
    },
    {
      "inputs": [],
      "name": "name",
      "outputs": [
        {
          "internalType": "string",
          "name": "",
          "type": "string"
        }
      ],
      "stateMutability": "view",
      "type": "function"
    },
    {
      "inputs": [],
      "name": "owner",
      "outputs": [
        {
          "internalType": "address",
          "name": "",
          "type": "address"
        }
      ],
      "stateMutability": "view",
      "type": "function"
    },
    {
      "inputs": [
        {
          "internalType": "uint256",
          "name": "tokenId",
          "type": "uint256"
        }
      ],
      "name": "ownerOf",
      "outputs": [
        {
          "internalType": "address",
          "name": "",
          "type": "address"
        }
      ],
      "stateMutability": "view",
      "type": "function"
    },
    {
      "inputs": [],
      "name": "rarityContract",
      "outputs": [
        {
          "internalType": "contract IOrbRarity",
          "name": "",
          "type": "address"
        }
      ],
      "stateMutability": "view",
      "type": "function"
    },
    {
      "inputs": [],
      "name": "renounceOwnership",
      "outputs": [],
      "stateMutability": "nonpayable",
      "type": "function"
    },
    {
      "inputs": [],
      "name": "reveal",
      "outputs": [],
      "stateMutability": "nonpayable",
      "type": "function"
    },
    {
      "inputs": [
        {
          "internalType": "uint256",
          "name": "_tokenId",
          "type": "uint256"
        },
        {
          "internalType": "uint256",
          "name": "_salePrice",
          "type": "uint256"
        }
      ],
      "name": "royaltyInfo",
      "outputs": [
        {
          "internalType": "address",
          "name": "receiver",
          "type": "address"
        },
        {
          "internalType": "uint256",
          "name": "royaltyAmount",
          "type": "uint256"
        }
      ],
      "stateMutability": "view",
      "type": "function"
    },
    {
      "inputs": [
        {
          "internalType": "address",
          "name": "from",
          "type": "address"
        },
        {
          "internalType": "address",
          "name": "to",
          "type": "address"
        },
        {
          "internalType": "uint256",
          "name": "tokenId",
          "type": "uint256"
        }
      ],
      "name": "safeTransferFrom",
      "outputs": [],
      "stateMutability": "nonpayable",
      "type": "function"
    },
    {
      "inputs": [
        {
          "internalType": "address",
          "name": "from",
          "type": "address"
        },
        {
          "internalType": "address",
          "name": "to",
          "type": "address"
        },
        {
          "internalType": "uint256",
          "name": "tokenId",
          "type": "uint256"
        },
        {
          "internalType": "bytes",
          "name": "data",
          "type": "bytes"
        }
      ],
      "name": "safeTransferFrom",
      "outputs": [],
      "stateMutability": "nonpayable",
      "type": "function"
    },
    {
      "inputs": [
        {
          "internalType": "address",
          "name": "operator",
          "type": "address"
        },
        {
          "internalType": "bool",
          "name": "approved",
          "type": "bool"
        }
      ],
      "name": "setApprovalForAll",
      "outputs": [],
      "stateMutability": "nonpayable",
      "type": "function"
    },
    {
      "inputs": [
        {
          "internalType": "uint256",
          "name": "_newMaxSupply",
          "type": "uint256"
        }
      ],
      "name": "setMaxSupply",
      "outputs": [],
      "stateMutability": "nonpayable",
      "type": "function"
    },
    {
      "inputs": [
        {
          "internalType": "address",
          "name": "_rarityContract",
          "type": "address"
        }
      ],
      "name": "setRarityContract",
      "outputs": [],
      "stateMutability": "nonpayable",
      "type": "function"
    },
    {
      "inputs": [
        {
          "internalType": "address",
          "name": "newRecipient",
          "type": "address"
        }
      ],
      "name": "setRoyalties",
      "outputs": [],
      "stateMutability": "nonpayable",
      "type": "function"
    },
    {
      "inputs": [
        {
          "internalType": "bytes4",
          "name": "interfaceId",
          "type": "bytes4"
        }
      ],
      "name": "supportsInterface",
      "outputs": [
        {
          "internalType": "bool",
          "name": "",
          "type": "bool"
        }
      ],
      "stateMutability": "view",
      "type": "function"
    },
    {
      "inputs": [],
      "name": "symbol",
      "outputs": [
        {
          "internalType": "string",
          "name": "",
          "type": "string"
        }
      ],
      "stateMutability": "view",
      "type": "function"
    },
    {
      "inputs": [
        {
          "internalType": "uint256",
          "name": "index",
          "type": "uint256"
        }
      ],
      "name": "tokenByIndex",
      "outputs": [
        {
          "internalType": "uint256",
          "name": "",
          "type": "uint256"
        }
      ],
      "stateMutability": "view",
      "type": "function"
    },
    {
      "inputs": [
        {
          "internalType": "address",
          "name": "owner",
          "type": "address"
        },
        {
          "internalType": "uint256",
          "name": "index",
          "type": "uint256"
        }
      ],
      "name": "tokenOfOwnerByIndex",
      "outputs": [
        {
          "internalType": "uint256",
          "name": "",
          "type": "uint256"
        }
      ],
      "stateMutability": "view",
      "type": "function"
    },
    {
      "inputs": [
        {
          "internalType": "uint256",
          "name": "tokenId",
          "type": "uint256"
        }
      ],
      "name": "tokenURI",
      "outputs": [
        {
          "internalType": "string",
          "name": "",
          "type": "string"
        }
      ],
      "stateMutability": "view",
      "type": "function"
    },
    {
      "inputs": [],
      "name": "totalSupply",
      "outputs": [
        {
          "internalType": "uint256",
          "name": "",
          "type": "uint256"
        }
      ],
      "stateMutability": "view",
      "type": "function"
    },
    {
      "inputs": [
        {
          "internalType": "address",
          "name": "from",
          "type": "address"
        },
        {
          "internalType": "address",
          "name": "to",
          "type": "address"
        },
        {
          "internalType": "uint256",
          "name": "tokenId",
          "type": "uint256"
        }
      ],
      "name": "transferFrom",
      "outputs": [],
      "stateMutability": "nonpayable",
      "type": "function"
    },
    {
      "inputs": [
        {
          "internalType": "address",
          "name": "newOwner",
          "type": "address"
        }
      ],
      "name": "transferOwnership",
      "outputs": [],
      "stateMutability": "nonpayable",
      "type": "function"
    },
    {
      "inputs": [
        {
          "internalType": "address",
          "name": "_owner",
          "type": "address"
        }
      ],
      "name": "walletOfOwner",
      "outputs": [
        {
          "internalType": "uint256[]",
          "name": "",
          "type": "uint256[]"
        }
      ],
      "stateMutability": "view",
      "type": "function"
    }
  ],
  "bytecode": "0x60c060405260076080819052662ab735b737bbb760c91b60a09081526200002a91600c919062000204565b503480156200003857600080fd5b5060405162002702380380620027028339810160408190526200005b91620002aa565b604080518082018252601a81527f546f6b796f204761636861204769726c73202d20574c204f72620000000000006020808301918252835180850190945260088452672a23a3aba627a92160c11b908401528151919291620000c09160009162000204565b508051620000d690600190602084019062000204565b505050620000f3620000ed6200012a60201b60201c565b6200012e565b620000fe8262000180565b600e5550600a54600f80546001600160a01b0319166001600160a01b03909216919091179055620003dc565b3390565b600a80546001600160a01b038381166001600160a01b0319831681179093556040519116919082907f8be0079c531659141344cd1fd0a4f28419497f9722a3daafe3b4186f6b6457e090600090a35050565b6200018a620001a3565b80516200019f90600d90602084019062000204565b5050565b600a546001600160a01b03163314620002025760405162461bcd60e51b815260206004820181905260248201527f4f776e61626c653a2063616c6c6572206973206e6f7420746865206f776e6572604482015260640160405180910390fd5b565b828054620002129062000389565b90600052602060002090601f01602090048101928262000236576000855562000281565b82601f106200025157805160ff191683800117855562000281565b8280016001018555821562000281579182015b828111156200028157825182559160200191906001019062000264565b506200028f92915062000293565b5090565b5b808211156200028f576000815560010162000294565b60008060408385031215620002bd578182fd5b82516001600160401b0380821115620002d4578384fd5b818501915085601f830112620002e8578384fd5b815181811115620002fd57620002fd620003c6565b604051601f8201601f19908116603f01168101908382118183101715620003285762000328620003c6565b8160405282815260209350888484870101111562000344578687fd5b8691505b8282101562000367578482018401518183018501529083019062000348565b828211156200037857868484830101525b969092015195979596505050505050565b600181811c908216806200039e57607f821691505b60208210811415620003c057634e487b7160e01b600052602260045260246000fd5b50919050565b634e487b7160e01b600052604160045260246000fd5b61231680620003ec6000396000f3fe608060405234801561001057600080fd5b50600436106101f05760003560e01c806370a082311161010f578063b88d4fde116100a2578063d5abeb0111610071578063d5abeb011461044b578063e177164f14610454578063e985e9c514610467578063f2fde38b146104a357600080fd5b8063b88d4fde1461040a578063c87b56dd1461041d578063d3457fc614610430578063d3fc7d1c1461043857600080fd5b806395d89b41116100de57806395d89b41146103c0578063a22cb465146103c8578063a475b5dd146103db578063b060dd86146103e357600080fd5b806370a0823114610381578063715018a6146103945780638da5cb5b1461039c57806394bf804d146103ad57600080fd5b80632f745c59116101875780634f6ccce7116101565780634f6ccce7146103355780636352211e146103485780636b9e37b81461035b5780636f8b44b01461036e57600080fd5b80632f745c59146102dc57806342842e0e146102ef578063438b630014610302578063487586971461032257600080fd5b806318160ddd116101c357806318160ddd1461027257806323b872dd146102845780632a55205a146102975780632a9e63c6146102c957600080fd5b806301ffc9a7146101f557806306fdde031461021d578063081812fc14610232578063095ea7b31461025d575b600080fd5b610208610203366004611e83565b6104b6565b60405190151581526020015b60405180910390f35b6102256104e1565b604051610214919061207d565b610245610240366004611f2e565b610573565b6040516001600160a01b039091168152602001610214565b61027061026b366004611db2565b61059a565b005b6008545b604051908152602001610214565b610270610292366004611c9a565b6106b5565b6102aa6102a5366004611f80565b6106e6565b604080516001600160a01b039093168352602083019190915201610214565b6102706102d7366004611c57565b610708565b6102766102ea366004611db2565b61071c565b6102706102fd366004611c9a565b6107b2565b610315610310366004611c57565b6107cd565b6040516102149190612039565b610276610330366004611f2e565b61088b565b610276610343366004611f2e565b610908565b610245610356366004611f2e565b6109a9565b610225610369366004611f2e565b610a09565b61027061037c366004611f2e565b610a8a565b61027661038f366004611c57565b610a97565b610270610b1d565b600a546001600160a01b0316610245565b6102706103bb366004611f5e565b610b31565b610225610b5d565b6102706103d6366004611d78565b610b6c565b610270610b7b565b6103f163152a902d60e11b81565b6040516001600160e01b03199091168152602001610214565b610270610418366004611cd5565b610be1565b61022561042b366004611f2e565b610c19565b610315610cf4565b610270610446366004611c57565b610d7a565b610276600e5481565b600b54610245906001600160a01b031681565b610208610475366004611c71565b6001600160a01b03918216600090815260056020908152604080832093909416825291909152205460ff1690565b6102706104b1366004611c57565b610da4565b60006001600160e01b0319821663152a902d60e11b14806104db57506104db82610e1a565b92915050565b6060600080546104f090612248565b80601f016020809104026020016040519081016040528092919081815260200182805461051c90612248565b80156105695780601f1061053e57610100808354040283529160200191610569565b820191906000526020600020905b81548152906001019060200180831161054c57829003601f168201915b5050505050905090565b600061057e82610e3f565b506000908152600460205260409020546001600160a01b031690565b60006105a5826109a9565b9050806001600160a01b0316836001600160a01b031614156106185760405162461bcd60e51b815260206004820152602160248201527f4552433732313a20617070726f76616c20746f2063757272656e74206f776e656044820152603960f91b60648201526084015b60405180910390fd5b336001600160a01b038216148061063457506106348133610475565b6106a65760405162461bcd60e51b815260206004820152603d60248201527f4552433732313a20617070726f76652063616c6c6572206973206e6f7420746f60448201527f6b656e206f776e6572206f7220617070726f76656420666f7220616c6c000000606482015260840161060f565b6106b08383610e9e565b505050565b6106bf3382610f0c565b6106db5760405162461bcd60e51b815260040161060f90612090565b6106b0838383610f8b565b600f546001600160a01b031660006106ff600a846121e5565b90509250929050565b6107106110fc565b61071981611156565b50565b600061072783610a97565b82106107895760405162461bcd60e51b815260206004820152602b60248201527f455243373231456e756d657261626c653a206f776e657220696e646578206f7560448201526a74206f6620626f756e647360a81b606482015260840161060f565b506001600160a01b03919091166000908152600660209081526040808320938352929052205490565b6106b083838360405180602001604052806000815250610be1565b606060006107da83610a97565b905060008167ffffffffffffffff81111561080557634e487b7160e01b600052604160045260246000fd5b60405190808252806020026020018201604052801561082e578160200160208202803683370190505b50905060005b8281101561088357610846858261071c565b82828151811061086657634e487b7160e01b600052603260045260246000fd5b60209081029190910101528061087b81612283565b915050610834565b509392505050565b600b54604051634875869760e01b8152600481018390526000916001600160a01b03169063487586979060240160206040518083038186803b1580156108d057600080fd5b505afa1580156108e4573d6000803e3d6000fd5b505050506040513d601f19601f820116820180604052508101906104db9190611f46565b600061091360085490565b82106109765760405162461bcd60e51b815260206004820152602c60248201527f455243373231456e756d657261626c653a20676c6f62616c20696e646578206f60448201526b7574206f6620626f756e647360a01b606482015260840161060f565b6008828154811061099757634e487b7160e01b600052603260045260246000fd5b90600052602060002001549050919050565b6000818152600260205260408120546001600160a01b0316806104db5760405162461bcd60e51b8152602060048201526018602482015277115490cdcc8c4e881a5b9d985b1a59081d1bdad95b88125160421b604482015260640161060f565b600b54604051630d73c6f760e31b8152600481018390526060916001600160a01b031690636b9e37b89060240160006040518083038186803b158015610a4e57600080fd5b505afa158015610a62573d6000803e3d6000fd5b505050506040513d6000823e601f3d908101601f191682016040526104db9190810190611ebb565b610a926110fc565b600e55565b60006001600160a01b038216610b015760405162461bcd60e51b815260206004820152602960248201527f4552433732313a2061646472657373207a65726f206973206e6f7420612076616044820152683634b21037bbb732b960b91b606482015260840161060f565b506001600160a01b031660009081526003602052604090205490565b610b256110fc565b610b2f60006111e3565b565b610b396110fc565b60005b828110156106b057610b4d82611235565b610b5681612283565b9050610b3c565b6060600180546104f090612248565b610b773383836112ea565b5050565b610b836110fc565b7f34f25fe82e04b6b4bb3440737372e9d5d8e7a6a2b12da5dc4abead2c0b544ad9604051610bd79060208082526012908201527115d30814985c9a5d1e4814995d99585b195960721b604082015260600190565b60405180910390a1565b610beb3383610f0c565b610c075760405162461bcd60e51b815260040161060f90612090565b610c13848484846113b9565b50505050565b6000818152600260205260409020546060906001600160a01b0316610c985760405162461bcd60e51b815260206004820152602f60248201527f4552433732314d657461646174613a2055524920717565727920666f72206e6f60448201526e3732bc34b9ba32b73a103a37b5b2b760891b606482015260840161060f565b6000610ca26113ec565b90506000815111610cc25760405180602001604052806000815250610ced565b80610ccc846113fb565b604051602001610cdd929190611fcd565b6040516020818303038152906040525b9392505050565b600b54604080516369a2bfe360e11b815290516060926001600160a01b03169163d3457fc6916004808301926000929190829003018186803b158015610d3957600080fd5b505afa158015610d4d573d6000803e3d6000fd5b505050506040513d6000823e601f3d908101601f19168201604052610d759190810190611ddb565b905090565b610d826110fc565b600b80546001600160a01b0319166001600160a01b0392909216919091179055565b610dac6110fc565b6001600160a01b038116610e115760405162461bcd60e51b815260206004820152602660248201527f4f776e61626c653a206e6577206f776e657220697320746865207a65726f206160448201526564647265737360d01b606482015260840161060f565b610719816111e3565b60006001600160e01b0319821663780e9d6360e01b14806104db57506104db8261149e565b6000818152600260205260409020546001600160a01b03166107195760405162461bcd60e51b8152602060048201526018602482015277115490cdcc8c4e881a5b9d985b1a59081d1bdad95b88125160421b604482015260640161060f565b600081815260046020526040902080546001600160a01b0319166001600160a01b0384169081179091558190610ed3826109a9565b6001600160a01b03167f8c5be1e5ebec7d5bd14f71427d1e84f3dd0314c0f7b2291e5b200ac8c7c3b92560405160405180910390a45050565b600080610f18836109a9565b9050806001600160a01b0316846001600160a01b03161480610f5f57506001600160a01b0380821660009081526005602090815260408083209388168352929052205460ff165b80610f835750836001600160a01b0316610f7884610573565b6001600160a01b0316145b949350505050565b826001600160a01b0316610f9e826109a9565b6001600160a01b031614610fc45760405162461bcd60e51b815260040161060f9061212f565b6001600160a01b0382166110265760405162461bcd60e51b8152602060048201526024808201527f4552433732313a207472616e7366657220746f20746865207a65726f206164646044820152637265737360e01b606482015260840161060f565b61103383838360016114ee565b826001600160a01b0316611046826109a9565b6001600160a01b03161461106c5760405162461bcd60e51b815260040161060f9061212f565b600081815260046020908152604080832080546001600160a01b03199081169091556001600160a01b0387811680865260038552838620805460001901905590871680865283862080546001019055868652600290945282852080549092168417909155905184937fddf252ad1be2c89b69c2b068fc378daa952ba7f163c4a11628f55a4df523b3ef91a4505050565b600a546001600160a01b03163314610b2f5760405162461bcd60e51b815260206004820181905260248201527f4f776e61626c653a2063616c6c6572206973206e6f7420746865206f776e6572604482015260640161060f565b6001600160a01b0381166111c15760405162461bcd60e51b815260206004820152602c60248201527f526f79616c746965733a206e657720726563697069656e74206973207468652060448201526b7a65726f206164647265737360a01b606482015260840161060f565b600f80546001600160a01b0319166001600160a01b0392909216919091179055565b600a80546001600160a01b038381166001600160a01b0319831681179093556040519116919082907f8be0079c531659141344cd1fd0a4f28419497f9722a3daafe3b4186f6b6457e090600090a35050565b600061124060085490565b9050600e5481106112835760405162461bcd60e51b815260206004820152600d60248201526c4d696e7420636f6d706c65746560981b604482015260640161060f565b611297826112928360016121cd565b61162e565b7f30385c845b448a36257a6a1716e6ad2e1bc2cbe333cde1e69fe849ad6511adfe826112c48360016121cd565b604080516001600160a01b03909316835260208301919091520160405180910390a15050565b816001600160a01b0316836001600160a01b0316141561134c5760405162461bcd60e51b815260206004820152601960248201527f4552433732313a20617070726f766520746f2063616c6c657200000000000000604482015260640161060f565b6001600160a01b03838116600081815260056020908152604080832094871680845294825291829020805460ff191686151590811790915591519182527f17307eab39ab6107e8899845ad3d59bd9653f200f220920489ca2b5937696c31910160405180910390a3505050565b6113c4848484610f8b565b6113d084848484611648565b610c135760405162461bcd60e51b815260040161060f906120dd565b6060600d80546104f090612248565b6060600061140883611755565b600101905060008167ffffffffffffffff81111561143657634e487b7160e01b600052604160045260246000fd5b6040519080825280601f01601f191660200182016040528015611460576020820181803683370190505b5090508181016020015b600019016f181899199a1a9b1b9c1cb0b131b232b360811b600a86061a8153600a850494508461149957610883565b61146a565b60006001600160e01b031982166380ac58cd60e01b14806114cf57506001600160e01b03198216635b5e139f60e01b145b806104db57506301ffc9a760e01b6001600160e01b03198316146104db565b6114fa8484848461182d565b60018111156115695760405162461bcd60e51b815260206004820152603560248201527f455243373231456e756d657261626c653a20636f6e7365637574697665207472604482015274185b9cd9995c9cc81b9bdd081cdd5c1c1bdc9d1959605a1b606482015260840161060f565b816001600160a01b0385166115c5576115c081600880546000838152600960205260408120829055600182018355919091527ff3f7a9fe364faab93b216da50a3214154f22a0a2b415b23a84c8169e8b636ee30155565b6115e8565b836001600160a01b0316856001600160a01b0316146115e8576115e885826118b5565b6001600160a01b038416611604576115ff81611952565b611627565b846001600160a01b0316846001600160a01b031614611627576116278482611a2b565b5050505050565b610b77828260405180602001604052806000815250611a6f565b60006001600160a01b0384163b1561174a57604051630a85bd0160e11b81526001600160a01b0385169063150b7a029061168c903390899088908890600401611ffc565b602060405180830381600087803b1580156116a657600080fd5b505af19250505080156116d6575060408051601f3d908101601f191682019092526116d391810190611e9f565b60015b611730573d808015611704576040519150601f19603f3d011682016040523d82523d6000602084013e611709565b606091505b5080516117285760405162461bcd60e51b815260040161060f906120dd565b805181602001fd5b6001600160e01b031916630a85bd0160e11b149050610f83565b506001949350505050565b60008072184f03e93ff9f4daa797ed6e38ed64bf6a1f0160401b83106117945772184f03e93ff9f4daa797ed6e38ed64bf6a1f0160401b830492506040015b6d04ee2d6d415b85acef810000000083106117c0576d04ee2d6d415b85acef8100000000830492506020015b662386f26fc1000083106117de57662386f26fc10000830492506010015b6305f5e10083106117f6576305f5e100830492506008015b612710831061180a57612710830492506004015b6064831061181c576064830492506002015b600a83106104db5760010192915050565b6001811115610c13576001600160a01b03841615611873576001600160a01b0384166000908152600360205260408120805483929061186d908490612205565b90915550505b6001600160a01b03831615610c13576001600160a01b038316600090815260036020526040812080548392906118aa9084906121cd565b909155505050505050565b600060016118c284610a97565b6118cc9190612205565b60008381526007602052604090205490915080821461191f576001600160a01b03841660009081526006602090815260408083208584528252808320548484528184208190558352600790915290208190555b5060009182526007602090815260408084208490556001600160a01b039094168352600681528383209183525290812055565b60085460009061196490600190612205565b6000838152600960205260408120546008805493945090928490811061199a57634e487b7160e01b600052603260045260246000fd5b9060005260206000200154905080600883815481106119c957634e487b7160e01b600052603260045260246000fd5b6000918252602080832090910192909255828152600990915260408082208490558582528120556008805480611a0f57634e487b7160e01b600052603160045260246000fd5b6001900381819060005260206000200160009055905550505050565b6000611a3683610a97565b6001600160a01b039093166000908152600660209081526040808320868452825280832085905593825260079052919091209190915550565b611a798383611aa2565b611a866000848484611648565b6106b05760405162461bcd60e51b815260040161060f906120dd565b6001600160a01b038216611af85760405162461bcd60e51b815260206004820181905260248201527f4552433732313a206d696e7420746f20746865207a65726f2061646472657373604482015260640161060f565b6000818152600260205260409020546001600160a01b031615611b5d5760405162461bcd60e51b815260206004820152601c60248201527f4552433732313a20746f6b656e20616c7265616479206d696e74656400000000604482015260640161060f565b611b6b6000838360016114ee565b6000818152600260205260409020546001600160a01b031615611bd05760405162461bcd60e51b815260206004820152601c60248201527f4552433732313a20746f6b656e20616c7265616479206d696e74656400000000604482015260640161060f565b6001600160a01b038216600081815260036020908152604080832080546001019055848352600290915280822080546001600160a01b0319168417905551839291907fddf252ad1be2c89b69c2b068fc378daa952ba7f163c4a11628f55a4df523b3ef908290a45050565b80356001600160a01b0381168114611c5257600080fd5b919050565b600060208284031215611c68578081fd5b610ced82611c3b565b60008060408385031215611c83578081fd5b611c8c83611c3b565b91506106ff60208401611c3b565b600080600060608486031215611cae578081fd5b611cb784611c3b565b9250611cc560208501611c3b565b9150604084013590509250925092565b60008060008060808587031215611cea578081fd5b611cf385611c3b565b9350611d0160208601611c3b565b925060408501359150606085013567ffffffffffffffff811115611d23578182fd5b8501601f81018713611d33578182fd5b8035611d46611d41826121a5565b612174565b818152886020838501011115611d5a578384fd5b81602084016020830137908101602001929092525092959194509250565b60008060408385031215611d8a578182fd5b611d9383611c3b565b915060208301358015158114611da7578182fd5b809150509250929050565b60008060408385031215611dc4578182fd5b611dcd83611c3b565b946020939093013593505050565b60006020808385031215611ded578182fd5b825167ffffffffffffffff80821115611e04578384fd5b818501915085601f830112611e17578384fd5b815181811115611e2957611e296122b4565b8060051b9150611e3a848301612174565b8181528481019084860184860187018a1015611e54578788fd5b8795505b83861015611e76578051835260019590950194918601918601611e58565b5098975050505050505050565b600060208284031215611e94578081fd5b8135610ced816122ca565b600060208284031215611eb0578081fd5b8151610ced816122ca565b600060208284031215611ecc578081fd5b815167ffffffffffffffff811115611ee2578182fd5b8201601f81018413611ef2578182fd5b8051611f00611d41826121a5565b818152856020838501011115611f14578384fd5b611f2582602083016020860161221c565b95945050505050565b600060208284031215611f3f578081fd5b5035919050565b600060208284031215611f57578081fd5b5051919050565b60008060408385031215611f70578182fd5b823591506106ff60208401611c3b565b60008060408385031215611f92578182fd5b50508035926020909101359150565b60008151808452611fb981602086016020860161221c565b601f01601f19169290920160200192915050565b60008351611fdf81846020880161221c565b835190830190611ff381836020880161221c565b01949350505050565b6001600160a01b038581168252841660208201526040810183905260806060820181905260009061202f90830184611fa1565b9695505050505050565b6020808252825182820181905260009190848201906040850190845b8181101561207157835183529284019291840191600101612055565b50909695505050505050565b602081526000610ced6020830184611fa1565b6020808252602d908201527f4552433732313a2063616c6c6572206973206e6f7420746f6b656e206f776e6560408201526c1c881bdc88185c1c1c9bdd9959609a1b606082015260800190565b60208082526032908201527f4552433732313a207472616e7366657220746f206e6f6e20455243373231526560408201527131b2b4bb32b91034b6b83632b6b2b73a32b960711b606082015260800190565b60208082526025908201527f4552433732313a207472616e736665722066726f6d20696e636f72726563742060408201526437bbb732b960d91b606082015260800190565b604051601f8201601f1916810167ffffffffffffffff8111828210171561219d5761219d6122b4565b604052919050565b600067ffffffffffffffff8211156121bf576121bf6122b4565b50601f01601f191660200190565b600082198211156121e0576121e061229e565b500190565b60008261220057634e487b7160e01b81526012600452602481fd5b500490565b6000828210156122175761221761229e565b500390565b60005b8381101561223757818101518382015260200161221f565b83811115610c135750506000910152565b600181811c9082168061225c57607f821691505b6020821081141561227d57634e487b7160e01b600052602260045260246000fd5b50919050565b60006000198214156122975761229761229e565b5060010190565b634e487b7160e01b600052601160045260246000fd5b634e487b7160e01b600052604160045260246000fd5b6001600160e01b03198116811461071957600080fdfea26469706673582212205a14e904cbf2031e3492535cad97146380482711c639b20b59f4f40b8a546ef664736f6c63430008040033",
  "linkReferences": {},
  "deployedLinkReferences": {}
}