{
  "_format": "hh-sol-artifact-1",
  "contractName": "Orb",
  "sourceName": "contracts/Orb/Orb.sol",
  "abi": [
    {
      "inputs": [
        {
          "internalType": "string",
          "name": "_initBaseURI",
          "type": "string"
        },
        {
          "internalType": "uint256",
          "name": "_maxSupply",
          "type": "uint256"
        }
      ],
      "stateMutability": "nonpayable",
      "type": "constructor"
    },
    {
      "anonymous": false,
      "inputs": [
        {
          "indexed": true,
          "internalType": "address",
          "name": "owner",
          "type": "address"
        },
        {
          "indexed": true,
          "internalType": "address",
          "name": "approved",
          "type": "address"
        },
        {
          "indexed": true,
          "internalType": "uint256",
          "name": "tokenId",
          "type": "uint256"
        }
      ],
      "name": "Approval",
      "type": "event"
    },
    {
      "anonymous": false,
      "inputs": [
        {
          "indexed": true,
          "internalType": "address",
          "name": "owner",
          "type": "address"
        },
        {
          "indexed": true,
          "internalType": "address",
          "name": "operator",
          "type": "address"
        },
        {
          "indexed": false,
          "internalType": "bool",
          "name": "approved",
          "type": "bool"
        }
      ],
      "name": "ApprovalForAll",
      "type": "event"
    },
    {
      "anonymous": false,
      "inputs": [
        {
          "indexed": false,
          "internalType": "address",
          "name": "minter",
          "type": "address"
        },
        {
          "indexed": false,
          "internalType": "uint256",
          "name": "id",
          "type": "uint256"
        }
      ],
      "name": "Minted",
      "type": "event"
    },
    {
      "anonymous": false,
      "inputs": [
        {
          "indexed": true,
          "internalType": "address",
          "name": "previousOwner",
          "type": "address"
        },
        {
          "indexed": true,
          "internalType": "address",
          "name": "newOwner",
          "type": "address"
        }
      ],
      "name": "OwnershipTransferred",
      "type": "event"
    },
    {
      "anonymous": false,
      "inputs": [
        {
          "indexed": false,
          "internalType": "string",
          "name": "revealed",
          "type": "string"
        }
      ],
      "name": "Revealed",
      "type": "event"
    },
    {
      "anonymous": false,
      "inputs": [
        {
          "indexed": true,
          "internalType": "address",
          "name": "from",
          "type": "address"
        },
        {
          "indexed": true,
          "internalType": "address",
          "name": "to",
          "type": "address"
        },
        {
          "indexed": true,
          "internalType": "uint256",
          "name": "tokenId",
          "type": "uint256"
        }
      ],
      "name": "Transfer",
      "type": "event"
    },
    {
      "inputs": [],
      "name": "INTERFACE_ID_ERC2981",
      "outputs": [
        {
          "internalType": "bytes4",
          "name": "",
          "type": "bytes4"
        }
      ],
      "stateMutability": "view",
      "type": "function"
    },
    {
      "inputs": [
        {
          "internalType": "address",
          "name": "to",
          "type": "address"
        },
        {
          "internalType": "uint256",
          "name": "tokenId",
          "type": "uint256"
        }
      ],
      "name": "approve",
      "outputs": [],
      "stateMutability": "nonpayable",
      "type": "function"
    },
    {
      "inputs": [
        {
          "internalType": "address",
          "name": "owner",
          "type": "address"
        }
      ],
      "name": "balanceOf",
      "outputs": [
        {
          "internalType": "uint256",
          "name": "",
          "type": "uint256"
        }
      ],
      "stateMutability": "view",
      "type": "function"
    },
    {
      "inputs": [],
      "name": "getAllRarities",
      "outputs": [
        {
          "internalType": "uint256[]",
          "name": "",
          "type": "uint256[]"
        }
      ],
      "stateMutability": "view",
      "type": "function"
    },
    {
      "inputs": [
        {
          "internalType": "uint256",
          "name": "tokenId",
          "type": "uint256"
        }
      ],
      "name": "getApproved",
      "outputs": [
        {
          "internalType": "address",
          "name": "",
          "type": "address"
        }
      ],
      "stateMutability": "view",
      "type": "function"
    },
    {
      "inputs": [
        {
          "internalType": "uint256",
          "name": "token",
          "type": "uint256"
        }
      ],
      "name": "getRarity",
      "outputs": [
        {
          "internalType": "uint256",
          "name": "",
          "type": "uint256"
        }
      ],
      "stateMutability": "view",
      "type": "function"
    },
    {
      "inputs": [
        {
          "internalType": "uint256",
          "name": "token",
          "type": "uint256"
        }
      ],
      "name": "getRarityString",
      "outputs": [
        {
          "internalType": "string",
          "name": "",
          "type": "string"
        }
      ],
      "stateMutability": "view",
      "type": "function"
    },
    {
      "inputs": [
        {
          "internalType": "address",
          "name": "owner",
          "type": "address"
        },
        {
          "internalType": "address",
          "name": "operator",
          "type": "address"
        }
      ],
      "name": "isApprovedForAll",
      "outputs": [
        {
          "internalType": "bool",
          "name": "",
          "type": "bool"
        }
      ],
      "stateMutability": "view",
      "type": "function"
    },
    {
      "inputs": [],
      "name": "maxSupply",
      "outputs": [
        {
          "internalType": "uint256",
          "name": "",
          "type": "uint256"
        }
      ],
      "stateMutability": "view",
      "type": "function"
    },
    {
      "inputs": [
        {
          "internalType": "uint256",
          "name": "_amount",
          "type": "uint256"
        },
        {
          "internalType": "address",
          "name": "_to",
          "type": "address"
        }
      ],
      "name": "mint",
      "outputs": [],
      "stateMutability": "nonpayable",
      "type": "function"
    },
    {
      "inputs": [],
      "name": "name",
      "outputs": [
        {
          "internalType": "string",
          "name": "",
          "type": "string"
        }
      ],
      "stateMutability": "view",
      "type": "function"
    },
    {
      "inputs": [],
      "name": "owner",
      "outputs": [
        {
          "internalType": "address",
          "name": "",
          "type": "address"
        }
      ],
      "stateMutability": "view",
      "type": "function"
    },
    {
      "inputs": [
        {
          "internalType": "uint256",
          "name": "tokenId",
          "type": "uint256"
        }
      ],
      "name": "ownerOf",
      "outputs": [
        {
          "internalType": "address",
          "name": "",
          "type": "address"
        }
      ],
      "stateMutability": "view",
      "type": "function"
    },
    {
      "inputs": [],
      "name": "rarityContract",
      "outputs": [
        {
          "internalType": "contract IOrbRarity",
          "name": "",
          "type": "address"
        }
      ],
      "stateMutability": "view",
      "type": "function"
    },
    {
      "inputs": [],
      "name": "renounceOwnership",
      "outputs": [],
      "stateMutability": "nonpayable",
      "type": "function"
    },
    {
      "inputs": [],
      "name": "reveal",
      "outputs": [],
      "stateMutability": "nonpayable",
      "type": "function"
    },
    {
      "inputs": [
        {
          "internalType": "uint256",
          "name": "_tokenId",
          "type": "uint256"
        },
        {
          "internalType": "uint256",
          "name": "_salePrice",
          "type": "uint256"
        }
      ],
      "name": "royaltyInfo",
      "outputs": [
        {
          "internalType": "address",
          "name": "receiver",
          "type": "address"
        },
        {
          "internalType": "uint256",
          "name": "royaltyAmount",
          "type": "uint256"
        }
      ],
      "stateMutability": "view",
      "type": "function"
    },
    {
      "inputs": [
        {
          "internalType": "address",
          "name": "from",
          "type": "address"
        },
        {
          "internalType": "address",
          "name": "to",
          "type": "address"
        },
        {
          "internalType": "uint256",
          "name": "tokenId",
          "type": "uint256"
        }
      ],
      "name": "safeTransferFrom",
      "outputs": [],
      "stateMutability": "nonpayable",
      "type": "function"
    },
    {
      "inputs": [
        {
          "internalType": "address",
          "name": "from",
          "type": "address"
        },
        {
          "internalType": "address",
          "name": "to",
          "type": "address"
        },
        {
          "internalType": "uint256",
          "name": "tokenId",
          "type": "uint256"
        },
        {
          "internalType": "bytes",
          "name": "data",
          "type": "bytes"
        }
      ],
      "name": "safeTransferFrom",
      "outputs": [],
      "stateMutability": "nonpayable",
      "type": "function"
    },
    {
      "inputs": [
        {
          "internalType": "address",
          "name": "operator",
          "type": "address"
        },
        {
          "internalType": "bool",
          "name": "approved",
          "type": "bool"
        }
      ],
      "name": "setApprovalForAll",
      "outputs": [],
      "stateMutability": "nonpayable",
      "type": "function"
    },
    {
      "inputs": [
        {
          "internalType": "uint256",
          "name": "_newMaxSupply",
          "type": "uint256"
        }
      ],
      "name": "setMaxSupply",
      "outputs": [],
      "stateMutability": "nonpayable",
      "type": "function"
    },
    {
      "inputs": [
        {
          "internalType": "address",
          "name": "_rarityContract",
          "type": "address"
        }
      ],
      "name": "setRarityContract",
      "outputs": [],
      "stateMutability": "nonpayable",
      "type": "function"
    },
    {
      "inputs": [
        {
          "internalType": "address",
          "name": "newRecipient",
          "type": "address"
        }
      ],
      "name": "setRoyalties",
      "outputs": [],
      "stateMutability": "nonpayable",
      "type": "function"
    },
    {
      "inputs": [
        {
          "internalType": "bytes4",
          "name": "interfaceId",
          "type": "bytes4"
        }
      ],
      "name": "supportsInterface",
      "outputs": [
        {
          "internalType": "bool",
          "name": "",
          "type": "bool"
        }
      ],
      "stateMutability": "view",
      "type": "function"
    },
    {
      "inputs": [],
      "name": "symbol",
      "outputs": [
        {
          "internalType": "string",
          "name": "",
          "type": "string"
        }
      ],
      "stateMutability": "view",
      "type": "function"
    },
    {
      "inputs": [
        {
          "internalType": "uint256",
          "name": "index",
          "type": "uint256"
        }
      ],
      "name": "tokenByIndex",
      "outputs": [
        {
          "internalType": "uint256",
          "name": "",
          "type": "uint256"
        }
      ],
      "stateMutability": "view",
      "type": "function"
    },
    {
      "inputs": [
        {
          "internalType": "address",
          "name": "owner",
          "type": "address"
        },
        {
          "internalType": "uint256",
          "name": "index",
          "type": "uint256"
        }
      ],
      "name": "tokenOfOwnerByIndex",
      "outputs": [
        {
          "internalType": "uint256",
          "name": "",
          "type": "uint256"
        }
      ],
      "stateMutability": "view",
      "type": "function"
    },
    {
      "inputs": [
        {
          "internalType": "uint256",
          "name": "tokenId",
          "type": "uint256"
        }
      ],
      "name": "tokenURI",
      "outputs": [
        {
          "internalType": "string",
          "name": "",
          "type": "string"
        }
      ],
      "stateMutability": "view",
      "type": "function"
    },
    {
      "inputs": [],
      "name": "totalSupply",
      "outputs": [
        {
          "internalType": "uint256",
          "name": "",
          "type": "uint256"
        }
      ],
      "stateMutability": "view",
      "type": "function"
    },
    {
      "inputs": [
        {
          "internalType": "address",
          "name": "from",
          "type": "address"
        },
        {
          "internalType": "address",
          "name": "to",
          "type": "address"
        },
        {
          "internalType": "uint256",
          "name": "tokenId",
          "type": "uint256"
        }
      ],
      "name": "transferFrom",
      "outputs": [],
      "stateMutability": "nonpayable",
      "type": "function"
    },
    {
      "inputs": [
        {
          "internalType": "address",
          "name": "newOwner",
          "type": "address"
        }
      ],
      "name": "transferOwnership",
      "outputs": [],
      "stateMutability": "nonpayable",
      "type": "function"
    },
    {
      "inputs": [
        {
          "internalType": "address",
          "name": "_owner",
          "type": "address"
        }
      ],
      "name": "walletOfOwner",
      "outputs": [
        {
          "internalType": "uint256[]",
          "name": "",
          "type": "uint256[]"
        }
      ],
      "stateMutability": "view",
      "type": "function"
    }
  ],
  "bytecode": "0x60c060405260076080819052662ab735b737bbb760c91b60a09081526200002a91600c919062000204565b503480156200003857600080fd5b5060405162002556380380620025568339810160408190526200005b91620002aa565b604080518082018252601a81527f546f6b796f204761636861204769726c73202d20574c204f72620000000000006020808301918252835180850190945260088452672a23a3aba627a92160c11b908401528151919291620000c09160009162000204565b508051620000d690600190602084019062000204565b505050620000f3620000ed6200012a60201b60201c565b6200012e565b620000fe8262000180565b600e5550600a54600f80546001600160a01b0319166001600160a01b03909216919091179055620003dc565b3390565b600a80546001600160a01b038381166001600160a01b0319831681179093556040519116919082907f8be0079c531659141344cd1fd0a4f28419497f9722a3daafe3b4186f6b6457e090600090a35050565b6200018a620001a3565b80516200019f90600d90602084019062000204565b5050565b600a546001600160a01b03163314620002025760405162461bcd60e51b815260206004820181905260248201527f4f776e61626c653a2063616c6c6572206973206e6f7420746865206f776e6572604482015260640160405180910390fd5b565b828054620002129062000389565b90600052602060002090601f01602090048101928262000236576000855562000281565b82601f106200025157805160ff191683800117855562000281565b8280016001018555821562000281579182015b828111156200028157825182559160200191906001019062000264565b506200028f92915062000293565b5090565b5b808211156200028f576000815560010162000294565b60008060408385031215620002bd578182fd5b82516001600160401b0380821115620002d4578384fd5b818501915085601f830112620002e8578384fd5b815181811115620002fd57620002fd620003c6565b604051601f8201601f19908116603f01168101908382118183101715620003285762000328620003c6565b8160405282815260209350888484870101111562000344578687fd5b8691505b8282101562000367578482018401518183018501529083019062000348565b828211156200037857868484830101525b969092015195979596505050505050565b600181811c908216806200039e57607f821691505b60208210811415620003c057634e487b7160e01b600052602260045260246000fd5b50919050565b634e487b7160e01b600052604160045260246000fd5b61216a80620003ec6000396000f3fe608060405234801561001057600080fd5b50600436106101f05760003560e01c806370a082311161010f578063b88d4fde116100a2578063d5abeb0111610071578063d5abeb011461044b578063e177164f14610454578063e985e9c514610467578063f2fde38b146104a357600080fd5b8063b88d4fde1461040a578063c87b56dd1461041d578063d3457fc614610430578063d3fc7d1c1461043857600080fd5b806395d89b41116100de57806395d89b41146103c0578063a22cb465146103c8578063a475b5dd146103db578063b060dd86146103e357600080fd5b806370a0823114610381578063715018a6146103945780638da5cb5b1461039c57806394bf804d146103ad57600080fd5b80632f745c59116101875780634f6ccce7116101565780634f6ccce7146103355780636352211e146103485780636b9e37b81461035b5780636f8b44b01461036e57600080fd5b80632f745c59146102dc57806342842e0e146102ef578063438b630014610302578063487586971461032257600080fd5b806318160ddd116101c357806318160ddd1461027257806323b872dd146102845780632a55205a146102975780632a9e63c6146102c957600080fd5b806301ffc9a7146101f557806306fdde031461021d578063081812fc14610232578063095ea7b31461025d575b600080fd5b610208610203366004611cfd565b6104b6565b60405190151581526020015b60405180910390f35b6102256104e1565b6040516102149190611ef7565b610245610240366004611da8565b610573565b6040516001600160a01b039091168152602001610214565b61027061026b366004611c2c565b61059a565b005b6008545b604051908152602001610214565b610270610292366004611b14565b6106b5565b6102aa6102a5366004611dfa565b6106e6565b604080516001600160a01b039093168352602083019190915201610214565b6102706102d7366004611ad1565b610708565b6102766102ea366004611c2c565b61071c565b6102706102fd366004611b14565b6107b2565b610315610310366004611ad1565b6107cd565b6040516102149190611eb3565b610276610330366004611da8565b61088b565b610276610343366004611da8565b610908565b610245610356366004611da8565b6109a9565b610225610369366004611da8565b610a09565b61027061037c366004611da8565b610a8a565b61027661038f366004611ad1565b610a97565b610270610b1d565b600a546001600160a01b0316610245565b6102706103bb366004611dd8565b610b31565b610225610b5d565b6102706103d6366004611bf2565b610b6c565b610270610b7b565b6103f163152a902d60e11b81565b6040516001600160e01b03199091168152602001610214565b610270610418366004611b4f565b610be1565b61022561042b366004611da8565b610c19565b610315610cf4565b610270610446366004611ad1565b610d7a565b610276600e5481565b600b54610245906001600160a01b031681565b610208610475366004611aeb565b6001600160a01b03918216600090815260056020908152604080832093909416825291909152205460ff1690565b6102706104b1366004611ad1565b610da4565b60006001600160e01b0319821663152a902d60e11b14806104db57506104db82610e1a565b92915050565b6060600080546104f090612072565b80601f016020809104026020016040519081016040528092919081815260200182805461051c90612072565b80156105695780601f1061053e57610100808354040283529160200191610569565b820191906000526020600020905b81548152906001019060200180831161054c57829003601f168201915b5050505050905090565b600061057e82610e3f565b506000908152600460205260409020546001600160a01b031690565b60006105a5826109a9565b9050806001600160a01b0316836001600160a01b031614156106185760405162461bcd60e51b815260206004820152602160248201527f4552433732313a20617070726f76616c20746f2063757272656e74206f776e656044820152603960f91b60648201526084015b60405180910390fd5b336001600160a01b038216148061063457506106348133610475565b6106a65760405162461bcd60e51b815260206004820152603e60248201527f4552433732313a20617070726f76652063616c6c6572206973206e6f7420746f60448201527f6b656e206f776e6572206e6f7220617070726f76656420666f7220616c6c0000606482015260840161060f565b6106b08383610e9e565b505050565b6106bf3382610f0c565b6106db5760405162461bcd60e51b815260040161060f90611f5c565b6106b0838383610f8b565b600f546001600160a01b031660006106ff600a8461201b565b90509250929050565b610710611132565b6107198161118c565b50565b600061072783610a97565b82106107895760405162461bcd60e51b815260206004820152602b60248201527f455243373231456e756d657261626c653a206f776e657220696e646578206f7560448201526a74206f6620626f756e647360a81b606482015260840161060f565b506001600160a01b03919091166000908152600660209081526040808320938352929052205490565b6106b083838360405180602001604052806000815250610be1565b606060006107da83610a97565b905060008167ffffffffffffffff81111561080557634e487b7160e01b600052604160045260246000fd5b60405190808252806020026020018201604052801561082e578160200160208202803683370190505b50905060005b8281101561088357610846858261071c565b82828151811061086657634e487b7160e01b600052603260045260246000fd5b60209081029190910101528061087b816120ad565b915050610834565b509392505050565b600b54604051634875869760e01b8152600481018390526000916001600160a01b03169063487586979060240160206040518083038186803b1580156108d057600080fd5b505afa1580156108e4573d6000803e3d6000fd5b505050506040513d601f19601f820116820180604052508101906104db9190611dc0565b600061091360085490565b82106109765760405162461bcd60e51b815260206004820152602c60248201527f455243373231456e756d657261626c653a20676c6f62616c20696e646578206f60448201526b7574206f6620626f756e647360a01b606482015260840161060f565b6008828154811061099757634e487b7160e01b600052603260045260246000fd5b90600052602060002001549050919050565b6000818152600260205260408120546001600160a01b0316806104db5760405162461bcd60e51b8152602060048201526018602482015277115490cdcc8c4e881a5b9d985b1a59081d1bdad95b88125160421b604482015260640161060f565b600b54604051630d73c6f760e31b8152600481018390526060916001600160a01b031690636b9e37b89060240160006040518083038186803b158015610a4e57600080fd5b505afa158015610a62573d6000803e3d6000fd5b505050506040513d6000823e601f3d908101601f191682016040526104db9190810190611d35565b610a92611132565b600e55565b60006001600160a01b038216610b015760405162461bcd60e51b815260206004820152602960248201527f4552433732313a2061646472657373207a65726f206973206e6f7420612076616044820152683634b21037bbb732b960b91b606482015260840161060f565b506001600160a01b031660009081526003602052604090205490565b610b25611132565b610b2f6000611219565b565b610b39611132565b60005b828110156106b057610b4d8261126b565b610b56816120ad565b9050610b3c565b6060600180546104f090612072565b610b77338383611320565b5050565b610b83611132565b7f34f25fe82e04b6b4bb3440737372e9d5d8e7a6a2b12da5dc4abead2c0b544ad9604051610bd79060208082526012908201527115d30814985c9a5d1e4814995d99585b195960721b604082015260600190565b60405180910390a1565b610beb3383610f0c565b610c075760405162461bcd60e51b815260040161060f90611f5c565b610c13848484846113ef565b50505050565b6000818152600260205260409020546060906001600160a01b0316610c985760405162461bcd60e51b815260206004820152602f60248201527f4552433732314d657461646174613a2055524920717565727920666f72206e6f60448201526e3732bc34b9ba32b73a103a37b5b2b760891b606482015260840161060f565b6000610ca2611422565b90506000815111610cc25760405180602001604052806000815250610ced565b80610ccc84611431565b604051602001610cdd929190611e47565b6040516020818303038152906040525b9392505050565b600b54604080516369a2bfe360e11b815290516060926001600160a01b03169163d3457fc6916004808301926000929190829003018186803b158015610d3957600080fd5b505afa158015610d4d573d6000803e3d6000fd5b505050506040513d6000823e601f3d908101601f19168201604052610d759190810190611c55565b905090565b610d82611132565b600b80546001600160a01b0319166001600160a01b0392909216919091179055565b610dac611132565b6001600160a01b038116610e115760405162461bcd60e51b815260206004820152602660248201527f4f776e61626c653a206e6577206f776e657220697320746865207a65726f206160448201526564647265737360d01b606482015260840161060f565b61071981611219565b60006001600160e01b0319821663780e9d6360e01b14806104db57506104db8261154b565b6000818152600260205260409020546001600160a01b03166107195760405162461bcd60e51b8152602060048201526018602482015277115490cdcc8c4e881a5b9d985b1a59081d1bdad95b88125160421b604482015260640161060f565b600081815260046020526040902080546001600160a01b0319166001600160a01b0384169081179091558190610ed3826109a9565b6001600160a01b03167f8c5be1e5ebec7d5bd14f71427d1e84f3dd0314c0f7b2291e5b200ac8c7c3b92560405160405180910390a45050565b600080610f18836109a9565b9050806001600160a01b0316846001600160a01b03161480610f5f57506001600160a01b0380821660009081526005602090815260408083209388168352929052205460ff165b80610f835750836001600160a01b0316610f7884610573565b6001600160a01b0316145b949350505050565b826001600160a01b0316610f9e826109a9565b6001600160a01b0316146110025760405162461bcd60e51b815260206004820152602560248201527f4552433732313a207472616e736665722066726f6d20696e636f72726563742060448201526437bbb732b960d91b606482015260840161060f565b6001600160a01b0382166110645760405162461bcd60e51b8152602060048201526024808201527f4552433732313a207472616e7366657220746f20746865207a65726f206164646044820152637265737360e01b606482015260840161060f565b61106f83838361159b565b61107a600082610e9e565b6001600160a01b03831660009081526003602052604081208054600192906110a390849061202f565b90915550506001600160a01b03821660009081526003602052604081208054600192906110d1908490612003565b909155505060008181526002602052604080822080546001600160a01b0319166001600160a01b0386811691821790925591518493918716917fddf252ad1be2c89b69c2b068fc378daa952ba7f163c4a11628f55a4df523b3ef91a4505050565b600a546001600160a01b03163314610b2f5760405162461bcd60e51b815260206004820181905260248201527f4f776e61626c653a2063616c6c6572206973206e6f7420746865206f776e6572604482015260640161060f565b6001600160a01b0381166111f75760405162461bcd60e51b815260206004820152602c60248201527f526f79616c746965733a206e657720726563697069656e74206973207468652060448201526b7a65726f206164647265737360a01b606482015260840161060f565b600f80546001600160a01b0319166001600160a01b0392909216919091179055565b600a80546001600160a01b038381166001600160a01b0319831681179093556040519116919082907f8be0079c531659141344cd1fd0a4f28419497f9722a3daafe3b4186f6b6457e090600090a35050565b600061127660085490565b9050600e5481106112b95760405162461bcd60e51b815260206004820152600d60248201526c4d696e7420636f6d706c65746560981b604482015260640161060f565b6112cd826112c8836001612003565b611653565b7f30385c845b448a36257a6a1716e6ad2e1bc2cbe333cde1e69fe849ad6511adfe826112fa836001612003565b604080516001600160a01b03909316835260208301919091520160405180910390a15050565b816001600160a01b0316836001600160a01b031614156113825760405162461bcd60e51b815260206004820152601960248201527f4552433732313a20617070726f766520746f2063616c6c657200000000000000604482015260640161060f565b6001600160a01b03838116600081815260056020908152604080832094871680845294825291829020805460ff191686151590811790915591519182527f17307eab39ab6107e8899845ad3d59bd9653f200f220920489ca2b5937696c31910160405180910390a3505050565b6113fa848484610f8b565b6114068484848461166d565b610c135760405162461bcd60e51b815260040161060f90611f0a565b6060600d80546104f090612072565b6060816114555750506040805180820190915260018152600360fc1b602082015290565b8160005b811561147f5780611469816120ad565b91506114789050600a8361201b565b9150611459565b60008167ffffffffffffffff8111156114a857634e487b7160e01b600052604160045260246000fd5b6040519080825280601f01601f1916602001820160405280156114d2576020820181803683370190505b5090505b8415610f83576114e760018361202f565b91506114f4600a866120c8565b6114ff906030612003565b60f81b81838151811061152257634e487b7160e01b600052603260045260246000fd5b60200101906001600160f81b031916908160001a905350611544600a8661201b565b94506114d6565b60006001600160e01b031982166380ac58cd60e01b148061157c57506001600160e01b03198216635b5e139f60e01b145b806104db57506301ffc9a760e01b6001600160e01b03198316146104db565b6001600160a01b0383166115f6576115f181600880546000838152600960205260408120829055600182018355919091527ff3f7a9fe364faab93b216da50a3214154f22a0a2b415b23a84c8169e8b636ee30155565b611619565b816001600160a01b0316836001600160a01b03161461161957611619838261177a565b6001600160a01b038216611630576106b081611817565b826001600160a01b0316826001600160a01b0316146106b0576106b082826118f0565b610b77828260405180602001604052806000815250611934565b60006001600160a01b0384163b1561176f57604051630a85bd0160e11b81526001600160a01b0385169063150b7a02906116b1903390899088908890600401611e76565b602060405180830381600087803b1580156116cb57600080fd5b505af19250505080156116fb575060408051601f3d908101601f191682019092526116f891810190611d19565b60015b611755573d808015611729576040519150601f19603f3d011682016040523d82523d6000602084013e61172e565b606091505b50805161174d5760405162461bcd60e51b815260040161060f90611f0a565b805181602001fd5b6001600160e01b031916630a85bd0160e11b149050610f83565b506001949350505050565b6000600161178784610a97565b611791919061202f565b6000838152600760205260409020549091508082146117e4576001600160a01b03841660009081526006602090815260408083208584528252808320548484528184208190558352600790915290208190555b5060009182526007602090815260408084208490556001600160a01b039094168352600681528383209183525290812055565b6008546000906118299060019061202f565b6000838152600960205260408120546008805493945090928490811061185f57634e487b7160e01b600052603260045260246000fd5b90600052602060002001549050806008838154811061188e57634e487b7160e01b600052603260045260246000fd5b60009182526020808320909101929092558281526009909152604080822084905585825281205560088054806118d457634e487b7160e01b600052603160045260246000fd5b6001900381819060005260206000200160009055905550505050565b60006118fb83610a97565b6001600160a01b039093166000908152600660209081526040808320868452825280832085905593825260079052919091209190915550565b61193e8383611967565b61194b600084848461166d565b6106b05760405162461bcd60e51b815260040161060f90611f0a565b6001600160a01b0382166119bd5760405162461bcd60e51b815260206004820181905260248201527f4552433732313a206d696e7420746f20746865207a65726f2061646472657373604482015260640161060f565b6000818152600260205260409020546001600160a01b031615611a225760405162461bcd60e51b815260206004820152601c60248201527f4552433732313a20746f6b656e20616c7265616479206d696e74656400000000604482015260640161060f565b611a2e6000838361159b565b6001600160a01b0382166000908152600360205260408120805460019290611a57908490612003565b909155505060008181526002602052604080822080546001600160a01b0319166001600160a01b03861690811790915590518392907fddf252ad1be2c89b69c2b068fc378daa952ba7f163c4a11628f55a4df523b3ef908290a45050565b80356001600160a01b0381168114611acc57600080fd5b919050565b600060208284031215611ae2578081fd5b610ced82611ab5565b60008060408385031215611afd578081fd5b611b0683611ab5565b91506106ff60208401611ab5565b600080600060608486031215611b28578081fd5b611b3184611ab5565b9250611b3f60208501611ab5565b9150604084013590509250925092565b60008060008060808587031215611b64578081fd5b611b6d85611ab5565b9350611b7b60208601611ab5565b925060408501359150606085013567ffffffffffffffff811115611b9d578182fd5b8501601f81018713611bad578182fd5b8035611bc0611bbb82611fdb565b611faa565b818152886020838501011115611bd4578384fd5b81602084016020830137908101602001929092525092959194509250565b60008060408385031215611c04578182fd5b611c0d83611ab5565b915060208301358015158114611c21578182fd5b809150509250929050565b60008060408385031215611c3e578182fd5b611c4783611ab5565b946020939093013593505050565b60006020808385031215611c67578182fd5b825167ffffffffffffffff80821115611c7e578384fd5b818501915085601f830112611c91578384fd5b815181811115611ca357611ca3612108565b8060051b9150611cb4848301611faa565b8181528481019084860184860187018a1015611cce578788fd5b8795505b83861015611cf0578051835260019590950194918601918601611cd2565b5098975050505050505050565b600060208284031215611d0e578081fd5b8135610ced8161211e565b600060208284031215611d2a578081fd5b8151610ced8161211e565b600060208284031215611d46578081fd5b815167ffffffffffffffff811115611d5c578182fd5b8201601f81018413611d6c578182fd5b8051611d7a611bbb82611fdb565b818152856020838501011115611d8e578384fd5b611d9f826020830160208601612046565b95945050505050565b600060208284031215611db9578081fd5b5035919050565b600060208284031215611dd1578081fd5b5051919050565b60008060408385031215611dea578182fd5b823591506106ff60208401611ab5565b60008060408385031215611e0c578182fd5b50508035926020909101359150565b60008151808452611e33816020860160208601612046565b601f01601f19169290920160200192915050565b60008351611e59818460208801612046565b835190830190611e6d818360208801612046565b01949350505050565b6001600160a01b0385811682528416602082015260408101839052608060608201819052600090611ea990830184611e1b565b9695505050505050565b6020808252825182820181905260009190848201906040850190845b81811015611eeb57835183529284019291840191600101611ecf565b50909695505050505050565b602081526000610ced6020830184611e1b565b60208082526032908201527f4552433732313a207472616e7366657220746f206e6f6e20455243373231526560408201527131b2b4bb32b91034b6b83632b6b2b73a32b960711b606082015260800190565b6020808252602e908201527f4552433732313a2063616c6c6572206973206e6f7420746f6b656e206f776e6560408201526d1c881b9bdc88185c1c1c9bdd995960921b606082015260800190565b604051601f8201601f1916810167ffffffffffffffff81118282101715611fd357611fd3612108565b604052919050565b600067ffffffffffffffff821115611ff557611ff5612108565b50601f01601f191660200190565b60008219821115612016576120166120dc565b500190565b60008261202a5761202a6120f2565b500490565b600082821015612041576120416120dc565b500390565b60005b83811015612061578181015183820152602001612049565b83811115610c135750506000910152565b600181811c9082168061208657607f821691505b602082108114156120a757634e487b7160e01b600052602260045260246000fd5b50919050565b60006000198214156120c1576120c16120dc565b5060010190565b6000826120d7576120d76120f2565b500690565b634e487b7160e01b600052601160045260246000fd5b634e487b7160e01b600052601260045260246000fd5b634e487b7160e01b600052604160045260246000fd5b6001600160e01b03198116811461071957600080fdfea2646970667358221220b7b0baa08c480fc5362a777c53a03ac313125a61ddf001645370f129ac4a1a9364736f6c63430008040033",
  "linkReferences": {},
  "deployedLinkReferences": {}
}