{
  "_format": "hh-sol-artifact-1",
  "contractName": "Rewards",
  "sourceName": "contracts/ARC/Rewards.sol",
  "abi": [
    {
      "inputs": [
        {
          "internalType": "address",
          "name": "_vesting",
          "type": "address"
        }
      ],
      "stateMutability": "nonpayable",
      "type": "constructor"
    },
    {
      "anonymous": false,
      "inputs": [
        {
          "indexed": true,
          "internalType": "address",
          "name": "previousOwner",
          "type": "address"
        },
        {
          "indexed": true,
          "internalType": "address",
          "name": "newOwner",
          "type": "address"
        }
      ],
      "name": "OwnershipTransferred",
      "type": "event"
    },
    {
      "inputs": [],
      "name": "arc",
      "outputs": [
        {
          "internalType": "contract IERC20",
          "name": "",
          "type": "address"
        }
      ],
      "stateMutability": "view",
      "type": "function"
    },
    {
      "inputs": [],
      "name": "arcPerDay",
      "outputs": [
        {
          "internalType": "uint256",
          "name": "",
          "type": "uint256"
        }
      ],
      "stateMutability": "view",
      "type": "function"
    },
    {
      "inputs": [],
      "name": "bankAddress",
      "outputs": [
        {
          "internalType": "address",
          "name": "",
          "type": "address"
        }
      ],
      "stateMutability": "view",
      "type": "function"
    },
    {
      "inputs": [],
      "name": "claimFaucetReward",
      "outputs": [],
      "stateMutability": "nonpayable",
      "type": "function"
    },
    {
      "inputs": [],
      "name": "faucet",
      "outputs": [
        {
          "internalType": "uint256",
          "name": "",
          "type": "uint256"
        }
      ],
      "stateMutability": "view",
      "type": "function"
    },
    {
      "inputs": [],
      "name": "getFaucetRewardAmount",
      "outputs": [
        {
          "internalType": "uint256",
          "name": "amount",
          "type": "uint256"
        }
      ],
      "stateMutability": "view",
      "type": "function"
    },
    {
      "inputs": [],
      "name": "lastEmitted",
      "outputs": [
        {
          "internalType": "uint256",
          "name": "",
          "type": "uint256"
        }
      ],
      "stateMutability": "view",
      "type": "function"
    },
    {
      "inputs": [],
      "name": "owner",
      "outputs": [
        {
          "internalType": "address",
          "name": "",
          "type": "address"
        }
      ],
      "stateMutability": "view",
      "type": "function"
    },
    {
      "inputs": [],
      "name": "renounceOwnership",
      "outputs": [],
      "stateMutability": "nonpayable",
      "type": "function"
    },
    {
      "inputs": [],
      "name": "sendTokensToBank",
      "outputs": [
        {
          "internalType": "bool",
          "name": "complete",
          "type": "bool"
        }
      ],
      "stateMutability": "nonpayable",
      "type": "function"
    },
    {
      "inputs": [
        {
          "internalType": "address",
          "name": "_arc",
          "type": "address"
        }
      ],
      "name": "setArcAddress",
      "outputs": [],
      "stateMutability": "nonpayable",
      "type": "function"
    },
    {
      "inputs": [
        {
          "internalType": "address",
          "name": "_bank",
          "type": "address"
        }
      ],
      "name": "setBankAddress",
      "outputs": [],
      "stateMutability": "nonpayable",
      "type": "function"
    },
    {
      "inputs": [
        {
          "internalType": "uint256",
          "name": "amount",
          "type": "uint256"
        }
      ],
      "name": "setFaucetAmount",
      "outputs": [],
      "stateMutability": "nonpayable",
      "type": "function"
    },
    {
      "inputs": [
        {
          "internalType": "address",
          "name": "newOwner",
          "type": "address"
        }
      ],
      "name": "transferOwnership",
      "outputs": [],
      "stateMutability": "nonpayable",
      "type": "function"
    },
    {
      "inputs": [],
      "name": "vesting",
      "outputs": [
        {
          "internalType": "contract IVesting",
          "name": "",
          "type": "address"
        }
      ],
      "stateMutability": "view",
      "type": "function"
    }
  ],
  "bytecode": "0x608060405268b99d8ba2ded9800000600455670de0b6b3a76400006005556363d481a060065534801561003157600080fd5b506040516109de3803806109de833981016040819052610050916100ce565b6100593361007e565b600280546001600160a01b0319166001600160a01b03929092169190911790556100fc565b600080546001600160a01b038381166001600160a01b0319831681178455604051919092169283917f8be0079c531659141344cd1fd0a4f28419497f9722a3daafe3b4186f6b6457e09190a35050565b6000602082840312156100df578081fd5b81516001600160a01b03811681146100f5578182fd5b9392505050565b6108d38061010b6000396000f3fe608060405234801561001057600080fd5b50600436106100f55760003560e01c806381d2fd9c11610097578063d05d0fa711610066578063d05d0fa7146101c6578063de5f72fd146101d9578063f2fde38b146101e2578063fc3c0eee146101f557600080fd5b806381d2fd9c146101915780638da5cb5b146101a45780638f1a5bd1146101b5578063996c0b29146101bd57600080fd5b806355f72b7b116100d357806355f72b7b14610147578063715018a61461015f57806371ecd8d2146101675780637822ed491461017e57600080fd5b8063383aafda146100fa57806344c63eec146101045780634b1c6a4014610134575b600080fd5b610102610208565b005b600254610117906001600160a01b031681565b6040516001600160a01b0390911681526020015b60405180910390f35b600154610117906001600160a01b031681565b61014f610367565b604051901515815260200161012b565b6101026105cc565b61017060045481565b60405190815260200161012b565b600354610117906001600160a01b031681565b61010261019f366004610801565b6105e0565b6000546001600160a01b0316610117565b610170610600565b61017060065481565b6101026101d43660046107b3565b61063f565b61017060055481565b6101026101f03660046107b3565b610669565b6101026102033660046107b3565b6106df565b6000610212610600565b905061021c610367565b80156102285750600081115b1561036457600260009054906101000a90046001600160a01b03166001600160a01b0316639ed9aa486040518163ffffffff1660e01b8152600401600060405180830381600087803b15801561027d57600080fd5b505af1158015610291573d6000803e3d6000fd5b505060015460405163a9059cbb60e01b815233600482015260248101859052600093506001600160a01b03909116915063a9059cbb90604401602060405180830381600087803b1580156102e457600080fd5b505af11580156102f8573d6000803e3d6000fd5b505050506040513d601f19601f8201168201806040525081019061031c91906107e1565b9050806103625760405162461bcd60e51b815260206004820152600f60248201526e1d1c985b9cd9995c8819985a5b1959608a1b60448201526064015b60405180910390fd5b505b50565b6006546000904290829061037b9083610870565b905080156105c3576006829055600454600090620151809061039d9084610851565b6103a79190610831565b6001546040516370a0823160e01b815230600482015291925082916001600160a01b03909116906370a082319060240160206040518083038186803b1580156103ef57600080fd5b505afa158015610403573d6000803e3d6000fd5b505050506040513d601f19601f820116820180604052508101906104279190610819565b106105065760015460035460405163a9059cbb60e01b81526001600160a01b03918216600482015260248101849052600092919091169063a9059cbb906044015b602060405180830381600087803b15801561048257600080fd5b505af1158015610496573d6000803e3d6000fd5b505050506040513d601f19601f820116820180604052508101906104ba91906107e1565b9050806104fb5760405162461bcd60e51b815260206004820152600f60248201526e1d1c985b9cd9995c8819985a5b1959608a1b6044820152606401610359565b600194505050505090565b6001546003546040516370a0823160e01b81523060048201526000926001600160a01b039081169263a9059cbb9291169083906370a082319060240160206040518083038186803b15801561055a57600080fd5b505afa15801561056e573d6000803e3d6000fd5b505050506040513d601f19601f820116820180604052508101906105929190610819565b6040516001600160e01b031960e085901b1681526001600160a01b0390921660048301526024820152604401610468565b60009250505090565b6105d4610709565b6105de6000610763565b565b6105e8610709565b6105fa81670de0b6b3a7640000610851565b60055550565b600654600090429082906106149083610870565b905080156105c357620151808160055461062e9190610851565b6106389190610831565b9250505090565b610647610709565b600180546001600160a01b0319166001600160a01b0392909216919091179055565b610671610709565b6001600160a01b0381166106d65760405162461bcd60e51b815260206004820152602660248201527f4f776e61626c653a206e6577206f776e657220697320746865207a65726f206160448201526564647265737360d01b6064820152608401610359565b61036481610763565b6106e7610709565b600380546001600160a01b0319166001600160a01b0392909216919091179055565b6000546001600160a01b031633146105de5760405162461bcd60e51b815260206004820181905260248201527f4f776e61626c653a2063616c6c6572206973206e6f7420746865206f776e65726044820152606401610359565b600080546001600160a01b038381166001600160a01b0319831681178455604051919092169283917f8be0079c531659141344cd1fd0a4f28419497f9722a3daafe3b4186f6b6457e09190a35050565b6000602082840312156107c4578081fd5b81356001600160a01b03811681146107da578182fd5b9392505050565b6000602082840312156107f2578081fd5b815180151581146107da578182fd5b600060208284031215610812578081fd5b5035919050565b60006020828403121561082a578081fd5b5051919050565b60008261084c57634e487b7160e01b81526012600452602481fd5b500490565b600081600019048311821515161561086b5761086b610887565b500290565b60008282101561088257610882610887565b500390565b634e487b7160e01b600052601160045260246000fdfea26469706673582212200840755d1960681b2023620ad544bfbcfb22d7168d837a6619370d6042bdeb4464736f6c63430008040033",
  "linkReferences": {},
  "deployedLinkReferences": {}
}