{
  "_format": "hh-sol-artifact-1",
  "contractName": "Rewards",
  "sourceName": "contracts/ARC/Rewards.sol",
  "abi": [
    {
      "inputs": [
        {
          "internalType": "address",
          "name": "_vesting",
          "type": "address"
        }
      ],
      "stateMutability": "nonpayable",
      "type": "constructor"
    },
    {
      "anonymous": false,
      "inputs": [
        {
          "indexed": true,
          "internalType": "address",
          "name": "previousOwner",
          "type": "address"
        },
        {
          "indexed": true,
          "internalType": "address",
          "name": "newOwner",
          "type": "address"
        }
      ],
      "name": "OwnershipTransferred",
      "type": "event"
    },
    {
      "inputs": [],
      "name": "arc",
      "outputs": [
        {
          "internalType": "contract IERC20",
          "name": "",
          "type": "address"
        }
      ],
      "stateMutability": "view",
      "type": "function"
    },
    {
      "inputs": [],
      "name": "arcPerDay",
      "outputs": [
        {
          "internalType": "uint256",
          "name": "",
          "type": "uint256"
        }
      ],
      "stateMutability": "view",
      "type": "function"
    },
    {
      "inputs": [],
      "name": "bankAddress",
      "outputs": [
        {
          "internalType": "address",
          "name": "",
          "type": "address"
        }
      ],
      "stateMutability": "view",
      "type": "function"
    },
    {
      "inputs": [],
      "name": "claimFaucetReward",
      "outputs": [],
      "stateMutability": "nonpayable",
      "type": "function"
    },
    {
      "inputs": [],
      "name": "getFaucetRewardAmount",
      "outputs": [
        {
          "internalType": "uint256",
          "name": "amount",
          "type": "uint256"
        }
      ],
      "stateMutability": "view",
      "type": "function"
    },
    {
      "inputs": [],
      "name": "lastEmitted",
      "outputs": [
        {
          "internalType": "uint256",
          "name": "",
          "type": "uint256"
        }
      ],
      "stateMutability": "view",
      "type": "function"
    },
    {
      "inputs": [],
      "name": "owner",
      "outputs": [
        {
          "internalType": "address",
          "name": "",
          "type": "address"
        }
      ],
      "stateMutability": "view",
      "type": "function"
    },
    {
      "inputs": [],
      "name": "renounceOwnership",
      "outputs": [],
      "stateMutability": "nonpayable",
      "type": "function"
    },
    {
      "inputs": [],
      "name": "sendTokensToBank",
      "outputs": [
        {
          "internalType": "bool",
          "name": "success",
          "type": "bool"
        }
      ],
      "stateMutability": "nonpayable",
      "type": "function"
    },
    {
      "inputs": [
        {
          "internalType": "address",
          "name": "_arc",
          "type": "address"
        }
      ],
      "name": "setArcAddress",
      "outputs": [],
      "stateMutability": "nonpayable",
      "type": "function"
    },
    {
      "inputs": [
        {
          "internalType": "address",
          "name": "_bank",
          "type": "address"
        }
      ],
      "name": "setBankAddress",
      "outputs": [],
      "stateMutability": "nonpayable",
      "type": "function"
    },
    {
      "inputs": [
        {
          "internalType": "address",
          "name": "newOwner",
          "type": "address"
        }
      ],
      "name": "transferOwnership",
      "outputs": [],
      "stateMutability": "nonpayable",
      "type": "function"
    },
    {
      "inputs": [],
      "name": "vesting",
      "outputs": [
        {
          "internalType": "contract IVesting",
          "name": "",
          "type": "address"
        }
      ],
      "stateMutability": "view",
      "type": "function"
    }
  ],
  "bytecode": "0x608060405268b99d8ba2ded98000006004554260055534801561002157600080fd5b506040516108c93803806108c9833981016040819052610040916100be565b6100493361006e565b600280546001600160a01b0319166001600160a01b03929092169190911790556100ec565b600080546001600160a01b038381166001600160a01b0319831681178455604051919092169283917f8be0079c531659141344cd1fd0a4f28419497f9722a3daafe3b4186f6b6457e09190a35050565b6000602082840312156100cf578081fd5b81516001600160a01b03811681146100e5578182fd5b9392505050565b6107ce806100fb6000396000f3fe608060405234801561001057600080fd5b50600436106100cf5760003560e01c80637822ed491161008c578063996c0b2911610066578063996c0b2914610184578063d05d0fa71461018d578063f2fde38b146101a0578063fc3c0eee146101b357600080fd5b80637822ed49146101585780638da5cb5b1461016b5780638f1a5bd11461017c57600080fd5b8063383aafda146100d457806344c63eec146100de5780634b1c6a401461010e57806355f72b7b14610121578063715018a61461013957806371ecd8d214610141575b600080fd5b6100dc6101c6565b005b6002546100f1906001600160a01b031681565b6040516001600160a01b0390911681526020015b60405180910390f35b6001546100f1906001600160a01b031681565b6101296102dc565b6040519015158152602001610105565b6100dc6104f6565b61014a60045481565b604051908152602001610105565b6003546100f1906001600160a01b031681565b6000546001600160a01b03166100f1565b61014a61050a565b61014a60055481565b6100dc61019b3660046106c6565b61054d565b6100dc6101ae3660046106c6565b610577565b6100dc6101c13660046106c6565b6105f2565b60006101d061050a565b90506101da6102dc565b80156101e65750600081115b156102d957600260009054906101000a90046001600160a01b03166001600160a01b0316639ed9aa486040518163ffffffff1660e01b8152600401600060405180830381600087803b15801561023b57600080fd5b505af115801561024f573d6000803e3d6000fd5b505060015460405163a9059cbb60e01b8152336004820152602481018590526001600160a01b03909116925063a9059cbb9150604401602060405180830381600087803b15801561029f57600080fd5b505af11580156102b3573d6000803e3d6000fd5b505050506040513d601f19601f820116820180604052508101906102d791906106f4565b505b50565b600554600090429082906102f0908361076b565b905080156104ed57600582905560045460009061031190620151809061072c565b61031b908361074c565b6001546040516370a0823160e01b815230600482015291925082916001600160a01b03909116906370a082319060240160206040518083038186803b15801561036357600080fd5b505afa158015610377573d6000803e3d6000fd5b505050506040513d601f19601f8201168201806040525081019061039b9190610714565b106104345760015460035460405163a9059cbb60e01b81526001600160a01b0391821660048201526024810184905291169063a9059cbb906044015b602060405180830381600087803b1580156103f157600080fd5b505af1158015610405573d6000803e3d6000fd5b505050506040513d601f19601f8201168201806040525081019061042991906106f4565b506001935050505090565b6001546003546040516370a0823160e01b81523060048201526001600160a01b039283169263a9059cbb92169083906370a082319060240160206040518083038186803b15801561048457600080fd5b505afa158015610498573d6000803e3d6000fd5b505050506040513d601f19601f820116820180604052508101906104bc9190610714565b6040516001600160e01b031960e085901b1681526001600160a01b03909216600483015260248201526044016103d7565b60009250505090565b6104fe61061c565b6105086000610676565b565b6005546000904290829061051e908361076b565b905080156104ed576201518061053c82670de0b6b3a764000061074c565b610546919061072c565b9250505090565b61055561061c565b600180546001600160a01b0319166001600160a01b0392909216919091179055565b61057f61061c565b6001600160a01b0381166105e95760405162461bcd60e51b815260206004820152602660248201527f4f776e61626c653a206e6577206f776e657220697320746865207a65726f206160448201526564647265737360d01b60648201526084015b60405180910390fd5b6102d981610676565b6105fa61061c565b600380546001600160a01b0319166001600160a01b0392909216919091179055565b6000546001600160a01b031633146105085760405162461bcd60e51b815260206004820181905260248201527f4f776e61626c653a2063616c6c6572206973206e6f7420746865206f776e657260448201526064016105e0565b600080546001600160a01b038381166001600160a01b0319831681178455604051919092169283917f8be0079c531659141344cd1fd0a4f28419497f9722a3daafe3b4186f6b6457e09190a35050565b6000602082840312156106d7578081fd5b81356001600160a01b03811681146106ed578182fd5b9392505050565b600060208284031215610705578081fd5b815180151581146106ed578182fd5b600060208284031215610725578081fd5b5051919050565b60008261074757634e487b7160e01b81526012600452602481fd5b500490565b600081600019048311821515161561076657610766610782565b500290565b60008282101561077d5761077d610782565b500390565b634e487b7160e01b600052601160045260246000fdfea2646970667358221220c29537196fa4ad7d594dc7962945ad973e86dd0ac01af24da0d8f42d570b07d164736f6c63430008040033",
  "linkReferences": {},
  "deployedLinkReferences": {}
}