{
  "_format": "hh-sol-artifact-1",
  "contractName": "Rewards",
  "sourceName": "contracts/ARC/Rewards.sol",
  "abi": [
    {
      "inputs": [
        {
          "internalType": "address",
          "name": "_vesting",
          "type": "address"
        }
      ],
      "stateMutability": "nonpayable",
      "type": "constructor"
    },
    {
      "anonymous": false,
      "inputs": [
        {
          "indexed": true,
          "internalType": "address",
          "name": "previousOwner",
          "type": "address"
        },
        {
          "indexed": true,
          "internalType": "address",
          "name": "newOwner",
          "type": "address"
        }
      ],
      "name": "OwnershipTransferred",
      "type": "event"
    },
    {
      "inputs": [],
      "name": "arc",
      "outputs": [
        {
          "internalType": "contract IERC20",
          "name": "",
          "type": "address"
        }
      ],
      "stateMutability": "view",
      "type": "function"
    },
    {
      "inputs": [],
      "name": "arcPerDay",
      "outputs": [
        {
          "internalType": "uint256",
          "name": "",
          "type": "uint256"
        }
      ],
      "stateMutability": "view",
      "type": "function"
    },
    {
      "inputs": [],
      "name": "bankAddress",
      "outputs": [
        {
          "internalType": "address",
          "name": "",
          "type": "address"
        }
      ],
      "stateMutability": "view",
      "type": "function"
    },
    {
      "inputs": [],
      "name": "claimFaucetReward",
      "outputs": [],
      "stateMutability": "nonpayable",
      "type": "function"
    },
    {
      "inputs": [],
      "name": "faucet",
      "outputs": [
        {
          "internalType": "uint256",
          "name": "",
          "type": "uint256"
        }
      ],
      "stateMutability": "view",
      "type": "function"
    },
    {
      "inputs": [],
      "name": "getFaucetRewardAmount",
      "outputs": [
        {
          "internalType": "uint256",
          "name": "amount",
          "type": "uint256"
        }
      ],
      "stateMutability": "view",
      "type": "function"
    },
    {
      "inputs": [],
      "name": "lastEmitted",
      "outputs": [
        {
          "internalType": "uint256",
          "name": "",
          "type": "uint256"
        }
      ],
      "stateMutability": "view",
      "type": "function"
    },
    {
      "inputs": [],
      "name": "owner",
      "outputs": [
        {
          "internalType": "address",
          "name": "",
          "type": "address"
        }
      ],
      "stateMutability": "view",
      "type": "function"
    },
    {
      "inputs": [],
      "name": "renounceOwnership",
      "outputs": [],
      "stateMutability": "nonpayable",
      "type": "function"
    },
    {
      "inputs": [],
      "name": "sendTokensToBank",
      "outputs": [
        {
          "internalType": "bool",
          "name": "success",
          "type": "bool"
        }
      ],
      "stateMutability": "nonpayable",
      "type": "function"
    },
    {
      "inputs": [
        {
          "internalType": "address",
          "name": "_arc",
          "type": "address"
        }
      ],
      "name": "setArcAddress",
      "outputs": [],
      "stateMutability": "nonpayable",
      "type": "function"
    },
    {
      "inputs": [
        {
          "internalType": "address",
          "name": "_bank",
          "type": "address"
        }
      ],
      "name": "setBankAddress",
      "outputs": [],
      "stateMutability": "nonpayable",
      "type": "function"
    },
    {
      "inputs": [
        {
          "internalType": "uint256",
          "name": "amount",
          "type": "uint256"
        }
      ],
      "name": "setFaucetAmount",
      "outputs": [],
      "stateMutability": "nonpayable",
      "type": "function"
    },
    {
      "inputs": [
        {
          "internalType": "address",
          "name": "newOwner",
          "type": "address"
        }
      ],
      "name": "transferOwnership",
      "outputs": [],
      "stateMutability": "nonpayable",
      "type": "function"
    },
    {
      "inputs": [],
      "name": "vesting",
      "outputs": [
        {
          "internalType": "contract IVesting",
          "name": "",
          "type": "address"
        }
      ],
      "stateMutability": "view",
      "type": "function"
    }
  ],
  "bytecode": "0x608060405268b99d8ba2ded9800000600455670de0b6b3a76400006005554260065534801561002d57600080fd5b5060405161094b38038061094b83398101604081905261004c916100ca565b6100553361007a565b600280546001600160a01b0319166001600160a01b03929092169190911790556100f8565b600080546001600160a01b038381166001600160a01b0319831681178455604051919092169283917f8be0079c531659141344cd1fd0a4f28419497f9722a3daafe3b4186f6b6457e09190a35050565b6000602082840312156100db578081fd5b81516001600160a01b03811681146100f1578182fd5b9392505050565b610844806101076000396000f3fe608060405234801561001057600080fd5b50600436106100f55760003560e01c806381d2fd9c11610097578063d05d0fa711610066578063d05d0fa7146101c6578063de5f72fd146101d9578063f2fde38b146101e2578063fc3c0eee146101f557600080fd5b806381d2fd9c146101915780638da5cb5b146101a45780638f1a5bd1146101b5578063996c0b29146101bd57600080fd5b806355f72b7b116100d357806355f72b7b14610147578063715018a61461015f57806371ecd8d2146101675780637822ed491461017e57600080fd5b8063383aafda146100fa57806344c63eec146101045780634b1c6a4014610134575b600080fd5b610102610208565b005b600254610117906001600160a01b031681565b6040516001600160a01b0390911681526020015b60405180910390f35b600154610117906001600160a01b031681565b61014f61031e565b604051901515815260200161012b565b610102610538565b61017060045481565b60405190815260200161012b565b600354610117906001600160a01b031681565b61010261019f366004610772565b61054c565b6000546001600160a01b0316610117565b61017061056c565b61017060065481565b6101026101d4366004610724565b6105ab565b61017060055481565b6101026101f0366004610724565b6105d5565b610102610203366004610724565b610650565b600061021261056c565b905061021c61031e565b80156102285750600081115b1561031b57600260009054906101000a90046001600160a01b03166001600160a01b0316639ed9aa486040518163ffffffff1660e01b8152600401600060405180830381600087803b15801561027d57600080fd5b505af1158015610291573d6000803e3d6000fd5b505060015460405163a9059cbb60e01b8152336004820152602481018590526001600160a01b03909116925063a9059cbb9150604401602060405180830381600087803b1580156102e157600080fd5b505af11580156102f5573d6000803e3d6000fd5b505050506040513d601f19601f820116820180604052508101906103199190610752565b505b50565b6006546000904290829061033290836107e1565b9050801561052f5760068290556004546000906103539062015180906107a2565b61035d90836107c2565b6001546040516370a0823160e01b815230600482015291925082916001600160a01b03909116906370a082319060240160206040518083038186803b1580156103a557600080fd5b505afa1580156103b9573d6000803e3d6000fd5b505050506040513d601f19601f820116820180604052508101906103dd919061078a565b106104765760015460035460405163a9059cbb60e01b81526001600160a01b0391821660048201526024810184905291169063a9059cbb906044015b602060405180830381600087803b15801561043357600080fd5b505af1158015610447573d6000803e3d6000fd5b505050506040513d601f19601f8201168201806040525081019061046b9190610752565b506001935050505090565b6001546003546040516370a0823160e01b81523060048201526001600160a01b039283169263a9059cbb92169083906370a082319060240160206040518083038186803b1580156104c657600080fd5b505afa1580156104da573d6000803e3d6000fd5b505050506040513d601f19601f820116820180604052508101906104fe919061078a565b6040516001600160e01b031960e085901b1681526001600160a01b0390921660048301526024820152604401610419565b60009250505090565b61054061067a565b61054a60006106d4565b565b61055461067a565b61056681670de0b6b3a76400006107c2565b60055550565b6006546000904290829061058090836107e1565b9050801561052f57620151808160055461059a91906107c2565b6105a491906107a2565b9250505090565b6105b361067a565b600180546001600160a01b0319166001600160a01b0392909216919091179055565b6105dd61067a565b6001600160a01b0381166106475760405162461bcd60e51b815260206004820152602660248201527f4f776e61626c653a206e6577206f776e657220697320746865207a65726f206160448201526564647265737360d01b60648201526084015b60405180910390fd5b61031b816106d4565b61065861067a565b600380546001600160a01b0319166001600160a01b0392909216919091179055565b6000546001600160a01b0316331461054a5760405162461bcd60e51b815260206004820181905260248201527f4f776e61626c653a2063616c6c6572206973206e6f7420746865206f776e6572604482015260640161063e565b600080546001600160a01b038381166001600160a01b0319831681178455604051919092169283917f8be0079c531659141344cd1fd0a4f28419497f9722a3daafe3b4186f6b6457e09190a35050565b600060208284031215610735578081fd5b81356001600160a01b038116811461074b578182fd5b9392505050565b600060208284031215610763578081fd5b8151801515811461074b578182fd5b600060208284031215610783578081fd5b5035919050565b60006020828403121561079b578081fd5b5051919050565b6000826107bd57634e487b7160e01b81526012600452602481fd5b500490565b60008160001904831182151516156107dc576107dc6107f8565b500290565b6000828210156107f3576107f36107f8565b500390565b634e487b7160e01b600052601160045260246000fdfea264697066735822122075d9a4f3593507bbfd2c991113ab6b02f30b9708edef95cd6f287f5a04b1573664736f6c63430008040033",
  "linkReferences": {},
  "deployedLinkReferences": {}
}