{
  "_format": "hh-sol-artifact-1",
  "contractName": "Rewards",
  "sourceName": "contracts/ARC/Rewards.sol",
  "abi": [
    {
      "anonymous": false,
      "inputs": [
        {
          "indexed": true,
          "internalType": "address",
          "name": "previousOwner",
          "type": "address"
        },
        {
          "indexed": true,
          "internalType": "address",
          "name": "newOwner",
          "type": "address"
        }
      ],
      "name": "OwnershipTransferred",
      "type": "event"
    },
    {
      "inputs": [],
      "name": "arc",
      "outputs": [
        {
          "internalType": "contract IERC20",
          "name": "",
          "type": "address"
        }
      ],
      "stateMutability": "view",
      "type": "function"
    },
    {
      "inputs": [],
      "name": "arcPerDay",
      "outputs": [
        {
          "internalType": "uint256",
          "name": "",
          "type": "uint256"
        }
      ],
      "stateMutability": "view",
      "type": "function"
    },
    {
      "inputs": [],
      "name": "bankAddress",
      "outputs": [
        {
          "internalType": "address",
          "name": "",
          "type": "address"
        }
      ],
      "stateMutability": "view",
      "type": "function"
    },
    {
      "inputs": [],
      "name": "claimFaucetReward",
      "outputs": [],
      "stateMutability": "nonpayable",
      "type": "function"
    },
    {
      "inputs": [],
      "name": "getFaucetRewardAmount",
      "outputs": [
        {
          "internalType": "uint256",
          "name": "amount",
          "type": "uint256"
        }
      ],
      "stateMutability": "view",
      "type": "function"
    },
    {
      "inputs": [],
      "name": "lastEmitted",
      "outputs": [
        {
          "internalType": "uint256",
          "name": "",
          "type": "uint256"
        }
      ],
      "stateMutability": "view",
      "type": "function"
    },
    {
      "inputs": [],
      "name": "owner",
      "outputs": [
        {
          "internalType": "address",
          "name": "",
          "type": "address"
        }
      ],
      "stateMutability": "view",
      "type": "function"
    },
    {
      "inputs": [],
      "name": "renounceOwnership",
      "outputs": [],
      "stateMutability": "nonpayable",
      "type": "function"
    },
    {
      "inputs": [],
      "name": "sendTokensToBank",
      "outputs": [
        {
          "internalType": "bool",
          "name": "success",
          "type": "bool"
        }
      ],
      "stateMutability": "nonpayable",
      "type": "function"
    },
    {
      "inputs": [
        {
          "internalType": "address",
          "name": "_arc",
          "type": "address"
        }
      ],
      "name": "setArcAddress",
      "outputs": [],
      "stateMutability": "nonpayable",
      "type": "function"
    },
    {
      "inputs": [
        {
          "internalType": "address",
          "name": "_bank",
          "type": "address"
        }
      ],
      "name": "setBankAddress",
      "outputs": [],
      "stateMutability": "nonpayable",
      "type": "function"
    },
    {
      "inputs": [
        {
          "internalType": "address",
          "name": "newOwner",
          "type": "address"
        }
      ],
      "name": "transferOwnership",
      "outputs": [],
      "stateMutability": "nonpayable",
      "type": "function"
    }
  ],
  "bytecode": "0x608060405268b99d8ba2ded98000006003554260045534801561002157600080fd5b5061002b33610030565b610080565b600080546001600160a01b038381166001600160a01b0319831681178455604051919092169283917f8be0079c531659141344cd1fd0a4f28419497f9722a3daafe3b4186f6b6457e09190a35050565b61073a8061008f6000396000f3fe608060405234801561001057600080fd5b50600436106100b45760003560e01c80638da5cb5b116100715780638da5cb5b1461013d5780638f1a5bd11461014e578063996c0b2914610156578063d05d0fa71461015f578063f2fde38b14610172578063fc3c0eee1461018557600080fd5b8063383aafda146100b95780634b1c6a40146100c357806355f72b7b146100f3578063715018a61461010b57806371ecd8d2146101135780637822ed491461012a575b600080fd5b6100c1610198565b005b6001546100d6906001600160a01b031681565b6040516001600160a01b0390911681526020015b60405180910390f35b6100fb610246565b60405190151581526020016100ea565b6100c1610462565b61011c60035481565b6040519081526020016100ea565b6002546100d6906001600160a01b031681565b6000546001600160a01b03166100d6565b61011c610476565b61011c60045481565b6100c161016d366004610632565b6104b9565b6100c1610180366004610632565b6104e3565b6100c1610193366004610632565b61055e565b60006101a2610476565b90506101ac610246565b80156101b85750600081115b156102435760015460405163a9059cbb60e01b8152336004820152602481018390526001600160a01b039091169063a9059cbb90604401602060405180830381600087803b15801561020957600080fd5b505af115801561021d573d6000803e3d6000fd5b505050506040513d601f19601f820116820180604052508101906102419190610660565b505b50565b60008042905060008160045461025c91906106d7565b9050801561045957600482905560035460009061027d906201518090610698565b61028790836106b8565b6001546040516370a0823160e01b815230600482015291925082916001600160a01b03909116906370a082319060240160206040518083038186803b1580156102cf57600080fd5b505afa1580156102e3573d6000803e3d6000fd5b505050506040513d601f19601f820116820180604052508101906103079190610680565b106103a05760015460025460405163a9059cbb60e01b81526001600160a01b0391821660048201526024810184905291169063a9059cbb906044015b602060405180830381600087803b15801561035d57600080fd5b505af1158015610371573d6000803e3d6000fd5b505050506040513d601f19601f820116820180604052508101906103959190610660565b506001935050505090565b6001546002546040516370a0823160e01b81523060048201526001600160a01b039283169263a9059cbb92169083906370a082319060240160206040518083038186803b1580156103f057600080fd5b505afa158015610404573d6000803e3d6000fd5b505050506040513d601f19601f820116820180604052508101906104289190610680565b6040516001600160e01b031960e085901b1681526001600160a01b0390921660048301526024820152604401610343565b60009250505090565b61046a610588565b61047460006105e2565b565b6004546000904290829061048a90836106d7565b9050801561045957620151806104a882670de0b6b3a76400006106b8565b6104b29190610698565b9250505090565b6104c1610588565b600180546001600160a01b0319166001600160a01b0392909216919091179055565b6104eb610588565b6001600160a01b0381166105555760405162461bcd60e51b815260206004820152602660248201527f4f776e61626c653a206e6577206f776e657220697320746865207a65726f206160448201526564647265737360d01b60648201526084015b60405180910390fd5b610243816105e2565b610566610588565b600280546001600160a01b0319166001600160a01b0392909216919091179055565b6000546001600160a01b031633146104745760405162461bcd60e51b815260206004820181905260248201527f4f776e61626c653a2063616c6c6572206973206e6f7420746865206f776e6572604482015260640161054c565b600080546001600160a01b038381166001600160a01b0319831681178455604051919092169283917f8be0079c531659141344cd1fd0a4f28419497f9722a3daafe3b4186f6b6457e09190a35050565b600060208284031215610643578081fd5b81356001600160a01b0381168114610659578182fd5b9392505050565b600060208284031215610671578081fd5b81518015158114610659578182fd5b600060208284031215610691578081fd5b5051919050565b6000826106b357634e487b7160e01b81526012600452602481fd5b500490565b60008160001904831182151516156106d2576106d26106ee565b500290565b6000828210156106e9576106e96106ee565b500390565b634e487b7160e01b600052601160045260246000fdfea26469706673582212209f52edabf84b705b45656e8ccff1029021329fced6b45a2a51ece88d98fe8e6664736f6c63430008040033",
  "linkReferences": {},
  "deployedLinkReferences": {}
}