{
  "_format": "hh-sol-artifact-1",
  "contractName": "Vesting",
  "sourceName": "contracts/ARC/Vesting.sol",
  "abi": [
    {
      "anonymous": false,
      "inputs": [
        {
          "indexed": true,
          "internalType": "address",
          "name": "previousOwner",
          "type": "address"
        },
        {
          "indexed": true,
          "internalType": "address",
          "name": "newOwner",
          "type": "address"
        }
      ],
      "name": "OwnershipTransferred",
      "type": "event"
    },
    {
      "inputs": [
        {
          "internalType": "address",
          "name": "_seeder",
          "type": "address"
        }
      ],
      "name": "addSeeder",
      "outputs": [],
      "stateMutability": "nonpayable",
      "type": "function"
    },
    {
      "inputs": [],
      "name": "arc",
      "outputs": [
        {
          "internalType": "contract IERC20",
          "name": "",
          "type": "address"
        }
      ],
      "stateMutability": "view",
      "type": "function"
    },
    {
      "inputs": [],
      "name": "devLastClaimed",
      "outputs": [
        {
          "internalType": "uint256",
          "name": "",
          "type": "uint256"
        }
      ],
      "stateMutability": "view",
      "type": "function"
    },
    {
      "inputs": [],
      "name": "devMaxDays",
      "outputs": [
        {
          "internalType": "uint256",
          "name": "",
          "type": "uint256"
        }
      ],
      "stateMutability": "view",
      "type": "function"
    },
    {
      "inputs": [],
      "name": "devOps",
      "outputs": [
        {
          "internalType": "address",
          "name": "",
          "type": "address"
        }
      ],
      "stateMutability": "view",
      "type": "function"
    },
    {
      "inputs": [],
      "name": "devOpsPerDay",
      "outputs": [
        {
          "internalType": "uint256",
          "name": "",
          "type": "uint256"
        }
      ],
      "stateMutability": "view",
      "type": "function"
    },
    {
      "inputs": [],
      "name": "owner",
      "outputs": [
        {
          "internalType": "address",
          "name": "",
          "type": "address"
        }
      ],
      "stateMutability": "view",
      "type": "function"
    },
    {
      "inputs": [],
      "name": "payoutDev",
      "outputs": [],
      "stateMutability": "nonpayable",
      "type": "function"
    },
    {
      "inputs": [],
      "name": "payoutSeed",
      "outputs": [],
      "stateMutability": "nonpayable",
      "type": "function"
    },
    {
      "inputs": [],
      "name": "renounceOwnership",
      "outputs": [],
      "stateMutability": "nonpayable",
      "type": "function"
    },
    {
      "inputs": [],
      "name": "seedLastClaimed",
      "outputs": [
        {
          "internalType": "uint256",
          "name": "",
          "type": "uint256"
        }
      ],
      "stateMutability": "view",
      "type": "function"
    },
    {
      "inputs": [],
      "name": "seedMaxDays",
      "outputs": [
        {
          "internalType": "uint256",
          "name": "",
          "type": "uint256"
        }
      ],
      "stateMutability": "view",
      "type": "function"
    },
    {
      "inputs": [],
      "name": "seedPerDay",
      "outputs": [
        {
          "internalType": "uint256",
          "name": "",
          "type": "uint256"
        }
      ],
      "stateMutability": "view",
      "type": "function"
    },
    {
      "inputs": [],
      "name": "seedStartTime",
      "outputs": [
        {
          "internalType": "uint256",
          "name": "",
          "type": "uint256"
        }
      ],
      "stateMutability": "view",
      "type": "function"
    },
    {
      "inputs": [
        {
          "internalType": "uint256",
          "name": "",
          "type": "uint256"
        }
      ],
      "name": "seeders",
      "outputs": [
        {
          "internalType": "address",
          "name": "",
          "type": "address"
        }
      ],
      "stateMutability": "view",
      "type": "function"
    },
    {
      "inputs": [
        {
          "internalType": "address",
          "name": "_arc",
          "type": "address"
        }
      ],
      "name": "setArc",
      "outputs": [],
      "stateMutability": "nonpayable",
      "type": "function"
    },
    {
      "inputs": [
        {
          "internalType": "address",
          "name": "_d",
          "type": "address"
        }
      ],
      "name": "setDevOps",
      "outputs": [],
      "stateMutability": "nonpayable",
      "type": "function"
    },
    {
      "inputs": [
        {
          "internalType": "address",
          "name": "_t",
          "type": "address"
        }
      ],
      "name": "setTeam",
      "outputs": [],
      "stateMutability": "nonpayable",
      "type": "function"
    },
    {
      "inputs": [],
      "name": "startTime",
      "outputs": [
        {
          "internalType": "uint256",
          "name": "",
          "type": "uint256"
        }
      ],
      "stateMutability": "view",
      "type": "function"
    },
    {
      "inputs": [],
      "name": "team",
      "outputs": [
        {
          "internalType": "address",
          "name": "",
          "type": "address"
        }
      ],
      "stateMutability": "view",
      "type": "function"
    },
    {
      "inputs": [],
      "name": "teamPerDay",
      "outputs": [
        {
          "internalType": "uint256",
          "name": "",
          "type": "uint256"
        }
      ],
      "stateMutability": "view",
      "type": "function"
    },
    {
      "inputs": [
        {
          "internalType": "address",
          "name": "newOwner",
          "type": "address"
        }
      ],
      "name": "transferOwnership",
      "outputs": [],
      "stateMutability": "nonpayable",
      "type": "function"
    }
  ],
  "bytecode": "0x608060405269024bbef9b49f4128000060045568947b42c427f2ec00006005556883bb063d4ee738000060065542600781905561003f9062093a806100de565b6008556007546009819055600a81905561005d906303c267006100de565b600b556008546100709062ed4e006100de565b600c5534801561007f57600080fd5b506100893361008e565b610102565b600080546001600160a01b038381166001600160a01b0319831681178455604051919092169283917f8be0079c531659141344cd1fd0a4f28419497f9722a3daafe3b4186f6b6457e09190a35050565b600082198211156100fd57634e487b7160e01b81526011600452602481fd5b500190565b6109d1806101116000396000f3fe608060405234801561001057600080fd5b50600436106101425760003560e01c806381b54498116100b8578063ba3fb12c1161007c578063ba3fb12c14610265578063c8981fde1461026e578063caef627914610277578063cf7e984a14610280578063e419899014610293578063f2fde38b1461029c57600080fd5b806381b544981461022657806385f2aef21461022f57806388f2c5d6146102425780638da5cb5b1461024b57806394d060591461025c57600080fd5b8063560932fe1161010a578063560932fe146101ba57806356c987c2146101d15780636086d044146101e4578063715018a61461020d57806378e97925146102155780637b7dcce61461021e57600080fd5b8063095cf5c614610147578063291fb6f91461015c5780632c6ed67a146101645780634a3f10d7146101775780634b1c6a40146101a7575b600080fd5b61015a6101553660046108ae565b6102af565b005b61015a6102d9565b61015a6101723660046108ae565b6104b5565b60025461018a906001600160a01b031681565b6040516001600160a01b0390911681526020015b60405180910390f35b60015461018a906001600160a01b031681565b6101c3600a5481565b60405190815260200161019e565b61015a6101df3660046108ae565b6104df565b61018a6101f23660046108fc565b600d602052600090815260409020546001600160a01b031681565b61015a610509565b6101c360075481565b61015a61051d565b6101c360085481565b60035461018a906001600160a01b031681565b6101c360045481565b6000546001600160a01b031661018a565b6101c3600c5481565b6101c360095481565b6101c360065481565b6101c3600b5481565b61015a61028e3660046108ae565b610741565b6101c360055481565b61015a6102aa3660046108ae565b610789565b6102b7610804565b600380546001600160a01b0319166001600160a01b0392909216919091179055565b60095442906000906102eb9083610953565b9050600b5482111561048457600954600b546103079190610953565b9050801561048057600b546009556001546002546004546001600160a01b039283169263a9059cbb92169062015180906103419086610934565b61034b9190610914565b6040516001600160e01b031960e085901b1681526001600160a01b0390921660048301526024820152604401602060405180830381600087803b15801561039157600080fd5b505af11580156103a5573d6000803e3d6000fd5b505050506040513d601f19601f820116820180604052508101906103c991906108dc565b506001546003546005546001600160a01b039283169263a9059cbb92169062015180906103f69086610934565b6104009190610914565b6040516001600160e01b031960e085901b1681526001600160a01b0390921660048301526024820152604401602060405180830381600087803b15801561044657600080fd5b505af115801561045a573d6000803e3d6000fd5b505050506040513d601f19601f8201168201806040525081019061047e91906108dc565b505b5050565b60098290556001546002546004546001600160a01b039283169263a9059cbb92169062015180906103419086610934565b6104bd610804565b600280546001600160a01b0319166001600160a01b0392909216919091179055565b6104e7610804565b600180546001600160a01b0319166001600160a01b0392909216919091179055565b610511610804565b61051b600061085e565b565b600854429081111561073e576000600a54826105399190610953565b9050600c5482111561064e57600a54600c546105559190610953565b9050801561048057600c54600a5560005b600e5481101561047e576001546000828152600d6020526040902054600e546006546001600160a01b039384169363a9059cbb93169162015180916105ab9190610914565b6105b59087610934565b6105bf9190610914565b6040516001600160e01b031960e085901b1681526001600160a01b0390921660048301526024820152604401602060405180830381600087803b15801561060557600080fd5b505af1158015610619573d6000803e3d6000fd5b505050506040513d601f19601f8201168201806040525081019061063d91906108dc565b506106478161096a565b9050610566565b600a82905560005b600e5481101561047e576001546000828152600d6020526040902054600e546006546001600160a01b039384169363a9059cbb931691620151809161069b9190610914565b6106a59087610934565b6106af9190610914565b6040516001600160e01b031960e085901b1681526001600160a01b0390921660048301526024820152604401602060405180830381600087803b1580156106f557600080fd5b505af1158015610709573d6000803e3d6000fd5b505050506040513d601f19601f8201168201806040525081019061072d91906108dc565b506107378161096a565b9050610656565b50565b610749610804565b600e80546000908152600d6020526040812080546001600160a01b0319166001600160a01b038516179055815491906107818361096a565b919050555050565b610791610804565b6001600160a01b0381166107fb5760405162461bcd60e51b815260206004820152602660248201527f4f776e61626c653a206e6577206f776e657220697320746865207a65726f206160448201526564647265737360d01b60648201526084015b60405180910390fd5b61073e8161085e565b6000546001600160a01b0316331461051b5760405162461bcd60e51b815260206004820181905260248201527f4f776e61626c653a2063616c6c6572206973206e6f7420746865206f776e657260448201526064016107f2565b600080546001600160a01b038381166001600160a01b0319831681178455604051919092169283917f8be0079c531659141344cd1fd0a4f28419497f9722a3daafe3b4186f6b6457e09190a35050565b6000602082840312156108bf578081fd5b81356001600160a01b03811681146108d5578182fd5b9392505050565b6000602082840312156108ed578081fd5b815180151581146108d5578182fd5b60006020828403121561090d578081fd5b5035919050565b60008261092f57634e487b7160e01b81526012600452602481fd5b500490565b600081600019048311821515161561094e5761094e610985565b500290565b60008282101561096557610965610985565b500390565b600060001982141561097e5761097e610985565b5060010190565b634e487b7160e01b600052601160045260246000fdfea264697066735822122098774546cca5f09f03ff70a774bcdde1dee15626e964f5e0798a295684b147a464736f6c63430008040033",
  "linkReferences": {},
  "deployedLinkReferences": {}
}