{
  "_format": "hh-sol-artifact-1",
  "contractName": "Vesting",
  "sourceName": "contracts/ARC/Vesting.sol",
  "abi": [
    {
      "anonymous": false,
      "inputs": [
        {
          "indexed": true,
          "internalType": "address",
          "name": "previousOwner",
          "type": "address"
        },
        {
          "indexed": true,
          "internalType": "address",
          "name": "newOwner",
          "type": "address"
        }
      ],
      "name": "OwnershipTransferred",
      "type": "event"
    },
    {
      "inputs": [
        {
          "internalType": "address",
          "name": "_seeder",
          "type": "address"
        }
      ],
      "name": "addSeeder",
      "outputs": [],
      "stateMutability": "nonpayable",
      "type": "function"
    },
    {
      "inputs": [],
      "name": "arc",
      "outputs": [
        {
          "internalType": "contract IERC20",
          "name": "",
          "type": "address"
        }
      ],
      "stateMutability": "view",
      "type": "function"
    },
    {
      "inputs": [],
      "name": "devLastClaimed",
      "outputs": [
        {
          "internalType": "uint256",
          "name": "",
          "type": "uint256"
        }
      ],
      "stateMutability": "view",
      "type": "function"
    },
    {
      "inputs": [],
      "name": "devMaxDays",
      "outputs": [
        {
          "internalType": "uint256",
          "name": "",
          "type": "uint256"
        }
      ],
      "stateMutability": "view",
      "type": "function"
    },
    {
      "inputs": [],
      "name": "devOps",
      "outputs": [
        {
          "internalType": "address",
          "name": "",
          "type": "address"
        }
      ],
      "stateMutability": "view",
      "type": "function"
    },
    {
      "inputs": [],
      "name": "devOpsPerDay",
      "outputs": [
        {
          "internalType": "uint256",
          "name": "",
          "type": "uint256"
        }
      ],
      "stateMutability": "view",
      "type": "function"
    },
    {
      "inputs": [],
      "name": "owner",
      "outputs": [
        {
          "internalType": "address",
          "name": "",
          "type": "address"
        }
      ],
      "stateMutability": "view",
      "type": "function"
    },
    {
      "inputs": [],
      "name": "payoutDev",
      "outputs": [],
      "stateMutability": "nonpayable",
      "type": "function"
    },
    {
      "inputs": [],
      "name": "payoutSeed",
      "outputs": [],
      "stateMutability": "nonpayable",
      "type": "function"
    },
    {
      "inputs": [],
      "name": "payoutVesting",
      "outputs": [],
      "stateMutability": "nonpayable",
      "type": "function"
    },
    {
      "inputs": [
        {
          "internalType": "uint256",
          "name": "index",
          "type": "uint256"
        }
      ],
      "name": "removeSeed",
      "outputs": [],
      "stateMutability": "nonpayable",
      "type": "function"
    },
    {
      "inputs": [],
      "name": "renounceOwnership",
      "outputs": [],
      "stateMutability": "nonpayable",
      "type": "function"
    },
    {
      "inputs": [],
      "name": "seedLastClaimed",
      "outputs": [
        {
          "internalType": "uint256",
          "name": "",
          "type": "uint256"
        }
      ],
      "stateMutability": "view",
      "type": "function"
    },
    {
      "inputs": [],
      "name": "seedMaxDays",
      "outputs": [
        {
          "internalType": "uint256",
          "name": "",
          "type": "uint256"
        }
      ],
      "stateMutability": "view",
      "type": "function"
    },
    {
      "inputs": [],
      "name": "seedPerDay",
      "outputs": [
        {
          "internalType": "uint256",
          "name": "",
          "type": "uint256"
        }
      ],
      "stateMutability": "view",
      "type": "function"
    },
    {
      "inputs": [],
      "name": "seedStartTime",
      "outputs": [
        {
          "internalType": "uint256",
          "name": "",
          "type": "uint256"
        }
      ],
      "stateMutability": "view",
      "type": "function"
    },
    {
      "inputs": [
        {
          "internalType": "uint256",
          "name": "",
          "type": "uint256"
        }
      ],
      "name": "seeders",
      "outputs": [
        {
          "internalType": "address",
          "name": "",
          "type": "address"
        }
      ],
      "stateMutability": "view",
      "type": "function"
    },
    {
      "inputs": [
        {
          "internalType": "address",
          "name": "_arc",
          "type": "address"
        }
      ],
      "name": "setArc",
      "outputs": [],
      "stateMutability": "nonpayable",
      "type": "function"
    },
    {
      "inputs": [
        {
          "internalType": "address",
          "name": "_d",
          "type": "address"
        }
      ],
      "name": "setDevOps",
      "outputs": [],
      "stateMutability": "nonpayable",
      "type": "function"
    },
    {
      "inputs": [
        {
          "internalType": "address",
          "name": "_t",
          "type": "address"
        }
      ],
      "name": "setTeam",
      "outputs": [],
      "stateMutability": "nonpayable",
      "type": "function"
    },
    {
      "inputs": [],
      "name": "startTime",
      "outputs": [
        {
          "internalType": "uint256",
          "name": "",
          "type": "uint256"
        }
      ],
      "stateMutability": "view",
      "type": "function"
    },
    {
      "inputs": [],
      "name": "team",
      "outputs": [
        {
          "internalType": "address",
          "name": "",
          "type": "address"
        }
      ],
      "stateMutability": "view",
      "type": "function"
    },
    {
      "inputs": [],
      "name": "teamPerDay",
      "outputs": [
        {
          "internalType": "uint256",
          "name": "",
          "type": "uint256"
        }
      ],
      "stateMutability": "view",
      "type": "function"
    },
    {
      "inputs": [
        {
          "internalType": "address",
          "name": "newOwner",
          "type": "address"
        }
      ],
      "name": "transferOwnership",
      "outputs": [],
      "stateMutability": "nonpayable",
      "type": "function"
    },
    {
      "inputs": [
        {
          "internalType": "uint256",
          "name": "index",
          "type": "uint256"
        }
      ],
      "name": "viewSeeder",
      "outputs": [
        {
          "internalType": "address",
          "name": "",
          "type": "address"
        }
      ],
      "stateMutability": "view",
      "type": "function"
    }
  ],
  "bytecode": "0x608060405269024bbef9b49f4128000060045568947b42c427f2ec00006005556883bb063d4ee73800006006556363d481a060078190556100439062093a806100e5565b600855600754600955600854600a556007546303c2670061006491906100e5565b600b556008546100779062ed4e006100e5565b600c5534801561008657600080fd5b5061009033610095565b610109565b600080546001600160a01b038381166001600160a01b0319831681178455604051919092169283917f8be0079c531659141344cd1fd0a4f28419497f9722a3daafe3b4186f6b6457e09190a35050565b6000821982111561010457634e487b7160e01b81526011600452602481fd5b500190565b610b61806101186000396000f3fe608060405234801561001057600080fd5b50600436106101735760003560e01c806381b54498116100de578063ba3fb12c11610097578063cf7e984a11610071578063cf7e984a146102cc578063d1c354d7146102df578063e419899014610308578063f2fde38b1461031157600080fd5b8063ba3fb12c146102b1578063c8981fde146102ba578063caef6279146102c357600080fd5b806381b544981461026a57806385f2aef21461027357806388f2c5d6146102865780638da5cb5b1461028f57806394d06059146102a05780639ed9aa48146102a957600080fd5b806356c987c21161013057806356c987c2146102025780636086d04414610215578063715018a61461023e57806375a6f4a41461024657806378e97925146102595780637b7dcce61461026257600080fd5b8063095cf5c614610178578063291fb6f91461018d5780632c6ed67a146101955780634a3f10d7146101a85780634b1c6a40146101d8578063560932fe146101eb575b600080fd5b61018b6101863660046109fe565b610324565b005b61018b61034e565b61018b6101a33660046109fe565b61057d565b6002546101bb906001600160a01b031681565b6040516001600160a01b0390911681526020015b60405180910390f35b6001546101bb906001600160a01b031681565b6101f4600a5481565b6040519081526020016101cf565b61018b6102103660046109fe565b6105a7565b6101bb610223366004610a4c565b600d602052600090815260409020546001600160a01b031681565b61018b6105d1565b61018b610254366004610a4c565b6105e5565b6101f460075481565b61018b61061f565b6101f460085481565b6003546101bb906001600160a01b031681565b6101f460045481565b6000546001600160a01b03166101bb565b6101f4600c5481565b61018b61088e565b6101f460095481565b6101f460065481565b6101f4600b5481565b61018b6102da3660046109fe565b61089e565b6101bb6102ed366004610a4c565b6000908152600d60205260409020546001600160a01b031690565b6101f460055481565b61018b61031f3660046109fe565b6108de565b61032c610954565b600380546001600160a01b0319166001600160a01b0392909216919091179055565b60095442906000906103609083610acc565b9050600b5482111561054857600954600b5461037c9190610acc565b9050801561054457600b546009556001546002546004546000926001600160a01b039081169263a9059cbb9291169062015180906103ba9087610aad565b6103c49190610a8d565b6040516001600160e01b031960e085901b1681526001600160a01b0390921660048301526024820152604401602060405180830381600087803b15801561040a57600080fd5b505af115801561041e573d6000803e3d6000fd5b505050506040513d601f19601f820116820180604052508101906104429190610a2c565b90508061046a5760405162461bcd60e51b815260040161046190610a64565b60405180910390fd5b6001546003546005546000926001600160a01b039081169263a9059cbb92911690620151809061049a9088610aad565b6104a49190610a8d565b6040516001600160e01b031960e085901b1681526001600160a01b0390921660048301526024820152604401602060405180830381600087803b1580156104ea57600080fd5b505af11580156104fe573d6000803e3d6000fd5b505050506040513d601f19601f820116820180604052508101906105229190610a2c565b9050806105415760405162461bcd60e51b815260040161046190610a64565b50505b5050565b60098290556001546002546004546000926001600160a01b039081169263a9059cbb9291169062015180906103ba9087610aad565b610585610954565b600280546001600160a01b0319166001600160a01b0392909216919091179055565b6105af610954565b600180546001600160a01b0319166001600160a01b0392909216919091179055565b6105d9610954565b6105e360006109ae565b565b6105ed610954565b6000818152600d6020526040812080546001600160a01b0319169055600e80549161061783610ae3565b919050555050565b600854429081111561088b576000600a548261063b9190610acc565b9050600c5482111561077857600a54600c546106579190610acc565b9050801561054457600c54600a5560005b600e54811015610773576001546000828152600d6020526040812054600e5460065492936001600160a01b039081169363a9059cbb939091169162015180916106b19089610aad565b6106bb9190610a8d565b6106c59190610a8d565b6040516001600160e01b031960e085901b1681526001600160a01b0390921660048301526024820152604401602060405180830381600087803b15801561070b57600080fd5b505af115801561071f573d6000803e3d6000fd5b505050506040513d601f19601f820116820180604052508101906107439190610a2c565b9050806107625760405162461bcd60e51b815260040161046190610a64565b5061076c81610afa565b9050610668565b505050565b600a82905560005b600e54811015610773576001546000828152600d6020526040812054600e5460065492936001600160a01b039081169363a9059cbb939091169162015180916107c99089610aad565b6107d39190610a8d565b6107dd9190610a8d565b6040516001600160e01b031960e085901b1681526001600160a01b0390921660048301526024820152604401602060405180830381600087803b15801561082357600080fd5b505af1158015610837573d6000803e3d6000fd5b505050506040513d601f19601f8201168201806040525081019061085b9190610a2c565b90508061087a5760405162461bcd60e51b815260040161046190610a64565b5061088481610afa565b9050610780565b50565b61089661034e565b6105e361061f565b6108a6610954565b600e80546000908152600d6020526040812080546001600160a01b0319166001600160a01b0385161790558154919061061783610afa565b6108e6610954565b6001600160a01b03811661094b5760405162461bcd60e51b815260206004820152602660248201527f4f776e61626c653a206e6577206f776e657220697320746865207a65726f206160448201526564647265737360d01b6064820152608401610461565b61088b816109ae565b6000546001600160a01b031633146105e35760405162461bcd60e51b815260206004820181905260248201527f4f776e61626c653a2063616c6c6572206973206e6f7420746865206f776e65726044820152606401610461565b600080546001600160a01b038381166001600160a01b0319831681178455604051919092169283917f8be0079c531659141344cd1fd0a4f28419497f9722a3daafe3b4186f6b6457e09190a35050565b600060208284031215610a0f578081fd5b81356001600160a01b0381168114610a25578182fd5b9392505050565b600060208284031215610a3d578081fd5b81518015158114610a25578182fd5b600060208284031215610a5d578081fd5b5035919050565b6020808252600f908201526e1d1c985b9cd9995c8819985a5b1959608a1b604082015260600190565b600082610aa857634e487b7160e01b81526012600452602481fd5b500490565b6000816000190483118215151615610ac757610ac7610b15565b500290565b600082821015610ade57610ade610b15565b500390565b600081610af257610af2610b15565b506000190190565b6000600019821415610b0e57610b0e610b15565b5060010190565b634e487b7160e01b600052601160045260246000fdfea2646970667358221220b51cfd80580d82739d416838fa4419a45658475d0c849d0242dee175b5cf01ad64736f6c63430008040033",
  "linkReferences": {},
  "deployedLinkReferences": {}
}