{
  "_format": "hh-sol-artifact-1",
  "contractName": "Vesting",
  "sourceName": "contracts/ARC/Vesting.sol",
  "abi": [
    {
      "anonymous": false,
      "inputs": [
        {
          "indexed": true,
          "internalType": "address",
          "name": "previousOwner",
          "type": "address"
        },
        {
          "indexed": true,
          "internalType": "address",
          "name": "newOwner",
          "type": "address"
        }
      ],
      "name": "OwnershipTransferred",
      "type": "event"
    },
    {
      "inputs": [
        {
          "internalType": "address",
          "name": "_seeder",
          "type": "address"
        }
      ],
      "name": "addSeeder",
      "outputs": [],
      "stateMutability": "nonpayable",
      "type": "function"
    },
    {
      "inputs": [],
      "name": "arc",
      "outputs": [
        {
          "internalType": "contract IERC20",
          "name": "",
          "type": "address"
        }
      ],
      "stateMutability": "view",
      "type": "function"
    },
    {
      "inputs": [],
      "name": "devLastClaimed",
      "outputs": [
        {
          "internalType": "uint256",
          "name": "",
          "type": "uint256"
        }
      ],
      "stateMutability": "view",
      "type": "function"
    },
    {
      "inputs": [],
      "name": "devMaxDays",
      "outputs": [
        {
          "internalType": "uint256",
          "name": "",
          "type": "uint256"
        }
      ],
      "stateMutability": "view",
      "type": "function"
    },
    {
      "inputs": [],
      "name": "devOps",
      "outputs": [
        {
          "internalType": "address",
          "name": "",
          "type": "address"
        }
      ],
      "stateMutability": "view",
      "type": "function"
    },
    {
      "inputs": [],
      "name": "devOpsPerDay",
      "outputs": [
        {
          "internalType": "uint256",
          "name": "",
          "type": "uint256"
        }
      ],
      "stateMutability": "view",
      "type": "function"
    },
    {
      "inputs": [],
      "name": "owner",
      "outputs": [
        {
          "internalType": "address",
          "name": "",
          "type": "address"
        }
      ],
      "stateMutability": "view",
      "type": "function"
    },
    {
      "inputs": [],
      "name": "payoutDev",
      "outputs": [],
      "stateMutability": "nonpayable",
      "type": "function"
    },
    {
      "inputs": [],
      "name": "payoutSeed",
      "outputs": [],
      "stateMutability": "nonpayable",
      "type": "function"
    },
    {
      "inputs": [],
      "name": "payoutVesting",
      "outputs": [],
      "stateMutability": "nonpayable",
      "type": "function"
    },
    {
      "inputs": [
        {
          "internalType": "uint256",
          "name": "index",
          "type": "uint256"
        }
      ],
      "name": "removeSeed",
      "outputs": [],
      "stateMutability": "nonpayable",
      "type": "function"
    },
    {
      "inputs": [],
      "name": "renounceOwnership",
      "outputs": [],
      "stateMutability": "nonpayable",
      "type": "function"
    },
    {
      "inputs": [],
      "name": "seedLastClaimed",
      "outputs": [
        {
          "internalType": "uint256",
          "name": "",
          "type": "uint256"
        }
      ],
      "stateMutability": "view",
      "type": "function"
    },
    {
      "inputs": [],
      "name": "seedMaxDays",
      "outputs": [
        {
          "internalType": "uint256",
          "name": "",
          "type": "uint256"
        }
      ],
      "stateMutability": "view",
      "type": "function"
    },
    {
      "inputs": [],
      "name": "seedPerDay",
      "outputs": [
        {
          "internalType": "uint256",
          "name": "",
          "type": "uint256"
        }
      ],
      "stateMutability": "view",
      "type": "function"
    },
    {
      "inputs": [],
      "name": "seedStartTime",
      "outputs": [
        {
          "internalType": "uint256",
          "name": "",
          "type": "uint256"
        }
      ],
      "stateMutability": "view",
      "type": "function"
    },
    {
      "inputs": [
        {
          "internalType": "uint256",
          "name": "",
          "type": "uint256"
        }
      ],
      "name": "seeders",
      "outputs": [
        {
          "internalType": "address",
          "name": "",
          "type": "address"
        }
      ],
      "stateMutability": "view",
      "type": "function"
    },
    {
      "inputs": [
        {
          "internalType": "address",
          "name": "_arc",
          "type": "address"
        }
      ],
      "name": "setArc",
      "outputs": [],
      "stateMutability": "nonpayable",
      "type": "function"
    },
    {
      "inputs": [
        {
          "internalType": "address",
          "name": "_d",
          "type": "address"
        }
      ],
      "name": "setDevOps",
      "outputs": [],
      "stateMutability": "nonpayable",
      "type": "function"
    },
    {
      "inputs": [
        {
          "internalType": "address",
          "name": "_t",
          "type": "address"
        }
      ],
      "name": "setTeam",
      "outputs": [],
      "stateMutability": "nonpayable",
      "type": "function"
    },
    {
      "inputs": [],
      "name": "startTime",
      "outputs": [
        {
          "internalType": "uint256",
          "name": "",
          "type": "uint256"
        }
      ],
      "stateMutability": "view",
      "type": "function"
    },
    {
      "inputs": [],
      "name": "team",
      "outputs": [
        {
          "internalType": "address",
          "name": "",
          "type": "address"
        }
      ],
      "stateMutability": "view",
      "type": "function"
    },
    {
      "inputs": [],
      "name": "teamPerDay",
      "outputs": [
        {
          "internalType": "uint256",
          "name": "",
          "type": "uint256"
        }
      ],
      "stateMutability": "view",
      "type": "function"
    },
    {
      "inputs": [
        {
          "internalType": "address",
          "name": "newOwner",
          "type": "address"
        }
      ],
      "name": "transferOwnership",
      "outputs": [],
      "stateMutability": "nonpayable",
      "type": "function"
    },
    {
      "inputs": [
        {
          "internalType": "uint256",
          "name": "index",
          "type": "uint256"
        }
      ],
      "name": "viewSeeder",
      "outputs": [
        {
          "internalType": "address",
          "name": "",
          "type": "address"
        }
      ],
      "stateMutability": "view",
      "type": "function"
    }
  ],
  "bytecode": "0x608060405269024bbef9b49f4128000060045568947b42c427f2ec00006005556883bb063d4ee738000060065542600781905561003f9062093a806100de565b6008556007546009819055600a81905561005d906303c267006100de565b600b556008546100709062ed4e006100de565b600c5534801561007f57600080fd5b506100893361008e565b610102565b600080546001600160a01b038381166001600160a01b0319831681178455604051919092169283917f8be0079c531659141344cd1fd0a4f28419497f9722a3daafe3b4186f6b6457e09190a35050565b600082198211156100fd57634e487b7160e01b81526011600452602481fd5b500190565b610a9f806101116000396000f3fe608060405234801561001057600080fd5b50600436106101735760003560e01c806381b54498116100de578063ba3fb12c11610097578063cf7e984a11610071578063cf7e984a146102cc578063d1c354d7146102df578063e419899014610308578063f2fde38b1461031157600080fd5b8063ba3fb12c146102b1578063c8981fde146102ba578063caef6279146102c357600080fd5b806381b544981461026a57806385f2aef21461027357806388f2c5d6146102865780638da5cb5b1461028f57806394d06059146102a05780639ed9aa48146102a957600080fd5b806356c987c21161013057806356c987c2146102025780636086d04414610215578063715018a61461023e57806375a6f4a41461024657806378e97925146102595780637b7dcce61461026257600080fd5b8063095cf5c614610178578063291fb6f91461018d5780632c6ed67a146101955780634a3f10d7146101a85780634b1c6a40146101d8578063560932fe146101eb575b600080fd5b61018b610186366004610965565b610324565b005b61018b61034e565b61018b6101a3366004610965565b61052a565b6002546101bb906001600160a01b031681565b6040516001600160a01b0390911681526020015b60405180910390f35b6001546101bb906001600160a01b031681565b6101f4600a5481565b6040519081526020016101cf565b61018b610210366004610965565b610554565b6101bb6102233660046109b3565b600d602052600090815260409020546001600160a01b031681565b61018b61057e565b61018b6102543660046109b3565b610592565b6101f460075481565b61018b6105cc565b6101f460085481565b6003546101bb906001600160a01b031681565b6101f460045481565b6000546001600160a01b03166101bb565b6101f4600c5481565b61018b6107f0565b6101f460095481565b6101f460065481565b6101f4600b5481565b61018b6102da366004610965565b610800565b6101bb6102ed3660046109b3565b6000908152600d60205260409020546001600160a01b031690565b6101f460055481565b61018b61031f366004610965565b610840565b61032c6108bb565b600380546001600160a01b0319166001600160a01b0392909216919091179055565b60095442906000906103609083610a0a565b9050600b548211156104f957600954600b5461037c9190610a0a565b905080156104f557600b546009556001546002546004546001600160a01b039283169263a9059cbb92169062015180906103b690866109eb565b6103c091906109cb565b6040516001600160e01b031960e085901b1681526001600160a01b0390921660048301526024820152604401602060405180830381600087803b15801561040657600080fd5b505af115801561041a573d6000803e3d6000fd5b505050506040513d601f19601f8201168201806040525081019061043e9190610993565b506001546003546005546001600160a01b039283169263a9059cbb921690620151809061046b90866109eb565b61047591906109cb565b6040516001600160e01b031960e085901b1681526001600160a01b0390921660048301526024820152604401602060405180830381600087803b1580156104bb57600080fd5b505af11580156104cf573d6000803e3d6000fd5b505050506040513d601f19601f820116820180604052508101906104f39190610993565b505b5050565b60098290556001546002546004546001600160a01b039283169263a9059cbb92169062015180906103b690866109eb565b6105326108bb565b600280546001600160a01b0319166001600160a01b0392909216919091179055565b61055c6108bb565b600180546001600160a01b0319166001600160a01b0392909216919091179055565b6105866108bb565b6105906000610915565b565b61059a6108bb565b6000818152600d6020526040812080546001600160a01b0319169055600e8054916105c483610a21565b919050555050565b60085442908111156107ed576000600a54826105e89190610a0a565b9050600c548211156106fd57600a54600c546106049190610a0a565b905080156104f557600c54600a5560005b600e548110156104f3576001546000828152600d6020526040902054600e546006546001600160a01b039384169363a9059cbb931691620151809161065a91906109cb565b61066490876109eb565b61066e91906109cb565b6040516001600160e01b031960e085901b1681526001600160a01b0390921660048301526024820152604401602060405180830381600087803b1580156106b457600080fd5b505af11580156106c8573d6000803e3d6000fd5b505050506040513d601f19601f820116820180604052508101906106ec9190610993565b506106f681610a38565b9050610615565b600a82905560005b600e548110156104f3576001546000828152600d6020526040902054600e546006546001600160a01b039384169363a9059cbb931691620151809161074a91906109cb565b61075490876109eb565b61075e91906109cb565b6040516001600160e01b031960e085901b1681526001600160a01b0390921660048301526024820152604401602060405180830381600087803b1580156107a457600080fd5b505af11580156107b8573d6000803e3d6000fd5b505050506040513d601f19601f820116820180604052508101906107dc9190610993565b506107e681610a38565b9050610705565b50565b6107f861034e565b6105906105cc565b6108086108bb565b600e80546000908152600d6020526040812080546001600160a01b0319166001600160a01b038516179055815491906105c483610a38565b6108486108bb565b6001600160a01b0381166108b25760405162461bcd60e51b815260206004820152602660248201527f4f776e61626c653a206e6577206f776e657220697320746865207a65726f206160448201526564647265737360d01b60648201526084015b60405180910390fd5b6107ed81610915565b6000546001600160a01b031633146105905760405162461bcd60e51b815260206004820181905260248201527f4f776e61626c653a2063616c6c6572206973206e6f7420746865206f776e657260448201526064016108a9565b600080546001600160a01b038381166001600160a01b0319831681178455604051919092169283917f8be0079c531659141344cd1fd0a4f28419497f9722a3daafe3b4186f6b6457e09190a35050565b600060208284031215610976578081fd5b81356001600160a01b038116811461098c578182fd5b9392505050565b6000602082840312156109a4578081fd5b8151801515811461098c578182fd5b6000602082840312156109c4578081fd5b5035919050565b6000826109e657634e487b7160e01b81526012600452602481fd5b500490565b6000816000190483118215151615610a0557610a05610a53565b500290565b600082821015610a1c57610a1c610a53565b500390565b600081610a3057610a30610a53565b506000190190565b6000600019821415610a4c57610a4c610a53565b5060010190565b634e487b7160e01b600052601160045260246000fdfea26469706673582212205cd3ccfa12b222a54091547aa81d79970c27938010f11d9622f9a12129358a2964736f6c63430008040033",
  "linkReferences": {},
  "deployedLinkReferences": {}
}